S0150000736B657463685F6665623033612E737265633D
S11300000BC400000C9451400C947C400C94A74009
S11300100C94D2400C94FD400C9428410C94534110
S11300200C947E412AC4000028C4000026C40000A9
S113003024C4000022C4000020C400001EC4000028
S11300401CC400000C94E53518C4000016C400005C
S113005014C4000012C4000010C400000C94A94190
S11300600CC400000C94F73B0C942D3C06C4000017
S113007004C4000002C4000000C40000FEC3000069
S11300800C94D218FAC30000F8C30000F6C30000B1
S1130090F4C30000F2C30000F0C300000C941C324F
S11300A0ECC30000EAC30000E8C30000E6C300009C
S11300B0E4C30000E2C30000E0C30000DEC30000AC
S11300C0DCC30000DAC30000D8C300000C948C3CED
S11300D00C94C23CD2C300000C94213D0C94573DB7
S11300E0CCC30000084AD73B3BCE016E84BCBFFDA5
S11300F0C12F3D6C74319ABD56833DDA3D00C77FF4
S113010011BED9E4BB4C3E916BAAAABE000000808C
S11301103F05A84CCDB2D44EB93836A9020C50B91B
S1130120918688083CA6AAAA2ABE000000803F0740
S1130130634236B79BD8A71A39685618AEBAAB557E
S11301408C1D3CB7CC5763BD6DEDFD753EF6177243
S113015031BF000000803F08000000BE9224491215
S11301603EABAAAA2ABECDCCCC4C3E00000080BE39
S1130170ABAAAAAA3E00000000BF000000803F0016
S113018000000000084178D3BB4387D1133D190E0A
S11301903CC3BD4282AD2B3E68EC8276BED98FE172
S11301A0A93E4C80EFFFBE01C4FF7F3F000000006A
S11301B000002B40F53FFD3F0940164037404440C6
S11301C0E442E742D642DA42E0421E43EB42EF42C7
S11301D0F542F942FD42034307430B431E431143D7
S11301E01543194300000000003E5B4F5B3E3E6B2D
S11301F04F6B3E1C3E7C3E1C183C7E3C181C577DBD
S1130200571C1C5E7F5E1C00183C1800FFE7C3E708
S1130210FF0018241800FFE7DBE7FF30483A060E1A
S11302202629792926407F050507407F05253F5A61
S11302303CE73C5A7F3E1C1C08081C1C3E7F1422D1
S11302407F22145F5F005F5F06097F017F0066897C
S1130250956A606060606094A2FFA29408047E04C2
S11302600810207E201008082A1C08081C2A0808E8
S11302701E101010100C1E0C1E0C30383E383006A8
S11302800E3E0E06000000000000005F00000007A4
S1130290000700147F147F14242A7F2A12231308D2
S11302A0646236495620500008070300001C2241AE
S11302B0000041221C002A1C7F1C2A08083E080852
S11302C00080703000080808080800006060002002
S11302D0100804023E5149453E00427F40007249E5
S11302E04949462141494D331814127F1027454589
S11302F045393C4A4949314121110907364949499F
S113030036464949291E000014000000403400000C
S11303100008142241141414141400412214080275
S1130320015909063E415D594E7C1211127C7F49E8
S11303304949363E414141227F4141413E7F49493D
S113034049417F090909013E414151737F08080869
S11303507F00417F41002040413F017F081422413A
S11303607F404040407F021C027F7F0408107F3E94
S11303704141413E7F090909063E4151215E7F0901
S1130380192946264949493203017F01033F404068
S1130390403F1F2040201F3F4038403F6314081453
S11303A06303047804036159494D43007F4141418B
S11303B00204081020004141417F0402010204406C
S11303C040404040000307080020545478407F28F0
S11303D04444383844444428384444287F385454E6
S11303E0541800087E090218A4A49C787F08040409
S11303F07800447D40002040403D007F10284400A8
S113040000417F40007C047804787C080404783838
S113041044444438FC1824241818242418FC7C0868
S1130420040408485454542404043F44243C4040E5
S1130430207C1C2040201C3C4030403C4428102898
S1130440444C9090907C4464544C440008364100E1
S11304500000770000004136080002010204023C5B
S11304602623263C1EA1A161123A4040207A38542A
S113047054555921555579412254547842215554A3
S1130480784020545579400C1E52721239555555F6
S113049059395454545939555454580000457C41E1
S11304A00002457D420001457C407D1211127DF021
S11304B0282528F07C545545002054547C547C0A4B
S11304C0097F4932494949323A4444443A324A4814
S11304D048303A4141217A3A42402078009DA0A018
S11304E07D3D4242423D3D4040403D3C24FF24246A
S11304F0487E4943662B2FFC2F2BFF0929F620C089
S1130500887E090320545479410000447D413048D9
S1130510484A32384040227A007A0A0A727D0D191C
S1130520317D2629292F28262929292630484D407E
S113053020380808080808080808382F10C8ACBA7A
S11305402F102834FA00007B000008142A142222F9
S1130550142A14085500550055AA55AA55AAFF5542
S1130560FF55FF000000FF00101010FF00141414CA
S1130570FF001010FF00FF1010F010F0141414FC12
S1130580001414F700FF0000FF00FF1414F404FC2F
S1130590141417101F10101F101F1414141F001010
S11305A01010F0000000001F101010101F10101089
S11305B010F010000000FF10101010101010101098
S11305C0FF10000000FF140000FF00FF00001F10D8
S11305D0170000FC04F414141710171414F404F492
S11305E00000FF00F714141414141414F700F71483
S11305F01414171410101F101F141414F4141010D2
S1130600F010F000001F101F0000001F1400000075
S1130610FC140000F010F01010FF10FF141414FF6D
S1130620141010101F00000000F010FFFFFFFFFF68
S1130630F0F0F0F0F0FFFFFF0000000000FFFF0FFC
S11306400F0F0F0F3844443844FC4A4A4A347E02A0
S1130650020606027E027E02635549416338444421
S11306603C04407E201E2006027E020299A5E7A5D6
S1130670991C2A492A1C4C7201724C304A4D4D3047
S11306803048784830BC625A463D3E494949007E6C
S11306900101017E2A2A2A2A2A44445F4444405103
S11306A04A444040444A51400000FF0103E080FFB7
S11306B0000008086B6B083612362436060F090F43
S11306C006000018180000001010003040FF01015F
S11306D0001F01011E00191D1712003C3C3C3C0088
S11306E00000000000000A0B02090C0D0E080703AD
S11306F004010000000000000000000000000000F1
S113070000000000000000000000000000000000E5
S113071012111000000000000000000000000000A2
S1130720000000000000000000000102102020086A
S11307300810204010204080020102010804020138
S113074001020408102040808040201008040201A7
S11307508004020180402010080402010804020100
S11307600102040810204080010204081020408087
S113077005050505070508080808020202020A0A19
S11307800808040404040101010101010101030337
S1130790030303030303040707070C0C0C0C0C0CE2
S11307A00C0C0202020206060606060606060B0BDF
S11307B00B0B0B0B0B0B0000200023002600290061
S11307C02C002F0032000001000003010601090182
S11307D000002200250028002B002E0031003400E8
S11307E002010000050108010B01000021002400A2
S11307F027002A002D00300033000101000004010D
S113080007010A01F00F4F13301573217530B53409
S11308105F3CF43C893DB73011241FBECFEFD1E2D9
S1130820DEBFCDBF00E00CBF1DE0A0E0B2E0E8E415
S1130830FFE800E00BBF02C007900D92A834B10797
S1130840D9F722E1A8E4BDE001C01D92A232B207AB
S1130850E1F714E0CBE0D4E000E006C02197010901
S1130860802FFE010E942045C230D10780E0080796
S1130870A9F70E94B73D0C949347C2CB80E090E067
S1130880089508952F923F924F925F926F927F92B4
S11308908F929F92AF92BF92CF92DF92EF92FF928C
S11308A00F931F93CF93DF9300D0CDB7DEB74C01E6
S11308B07B836A836A01590117019801241B350B54
S11308C037FF03C0319521953109C5014A815B8108
S11308D0841B950B97FF03C091958195910951E075
S11308E059838217930714F019820BC09A2D8B2D0C
S11308F05801092F182F9A818B81DB82CA82C92E55
S1130900D82E8A819B81A816B9065CF49C2D8D2D66
S11309106801092F182F9A818B81BB82AA82A92E84
S1130920B82E2501AA81BB814A1A5B0A38016C18CA
S11309307D0877FE03C0719461947108720157FEBB
S113094003C0BFEFEB1AFB0AF594E794C016D10677
S11309501CF00FEF1FEF1FC001E010E01CC0D4011A
S1130960ED91FC91B9810484F585E02D9101BB23BF
S1130970C1F04A815B81B601C4011995E618F708F4
S1130980F7FE04C0C00ED11EE40CF51CEA81FB8105
S11309903196FB83EA834A815B81A416B506FCF693
S11309A004C0A6016A817B81E7CF0F900F900F905E
S11309B0DF91CF911F910F91FF90EF90DF90CF9037
S11309C0BF90AF909F908F907F906F905F904F906B
S11309D03F902F9008950895DC01ED91FC910084DF
S11309E0F185E02D19940F931F93DC01ED91FC9197
S11309F0048CF58DE02D19951F910F9108950F9397
S1130A001F93DC01ED91FC91068CF78DE02D199577
S1130A101F910F910895EF92FF920F931F93DC01A2
S1130A20ED91FC9100A0F1A1E02D19951F910F917A
S1130A30FF90EF9008950895AF92BF92CF92DF9206
S1130A40EF92FF920F931F93CF93DF9300D01F92E7
S1130A50CDB7DEB75C016901DC01ED91FC91028444
S1130A60F385E02D4B835C8369837A831995D501E3
S1130A70ED91FC914B815C81C40ED51EB1E0CB1A83
S1130A80D1080488F589E02D7801860169817A818D
S1130A909B01C5011995D501ED91FC910688F78953
S1130AA0E02DC5010F900F900F900F90DF91CF9123
S1130AB01F910F91FF90EF90DF90CF90BF90AF9078
S1130AC01994AF92BF92CF92DF92EF92FF920F935D
S1130AD01F93CF93DF9300D01F92CDB7DEB75C0195
S1130AE06901DC01ED91FC910284F385E02D4B83D7
S1130AF05C8369837A831995D501ED91FC916981B1
S1130B007A819B012C0D3D1D215031090488F58902
S1130B10E02D78014B815C818A01C5011995D501CD
S1130B20ED91FC910688F789E02DC5010F900F9097
S1130B300F900F90DF91CF911F910F91FF90EF9045
S1130B40DF90CF90BF90AF9019944F925F926F92C5
S1130B507F928F929F92AF92BF92CF92DF92EF9249
S1130B60FF920F931F93CF93DF931F921F92CDB7E2
S1130B70DEB76C015A0139014801DC01ED91FC91A9
S1130B800284F385E02D69837A8319956981462E61
S1130B907A81572E640C751CD601ED91FC91461494
S1130BA057046CF40088F189E02D87019401A501B4
S1130BB0B201C6011995BFEF4B1A5B0AEDCF068847
S1130BC0F789E02DC6010F900F90DF91CF911F910F
S1130BD00F91FF90EF90DF90CF90BF90AF909F90D8
S1130BE08F907F906F905F904F901994EF92FF9247
S1130BF00F931F93DC01ED91FC9111971A960D91BF
S1130C001C911B9718962D913C91199700A0F1A166
S1130C10E02D7B0140E050E060E070E019951F9109
S1130C200F91FF90EF900895CF92DF92EF92FF9291
S1130C300F931F93CF93DF9300D000D0CDB7DEB7CF
S1130C406C01DC01ED91FC916217730789F40417C0
S1130C5015072CF4942F852FA801092F182F041B96
S1130C60150B98012F5F3F4F048CF58DE02D12C0BA
S1130C704017510709F5261737072CF4962F872FAD
S1130C80B901292F382F261B370B2F5F3F4F068CB6
S1130C90F78DE02D8701C601199526960FB6F894B5
S1130CA0DEBF0FBECDBFDF91CF911F910F91FF909B
S1130CB0EF90DF90CF9008950284F385E02D2D838B
S1130CC03E834B835C8369837A831995D601ED91C6
S1130CD0FC910488F589E02D2D813E814B815C8156
S1130CE069817A81C6011995D601ED91FC91068836
S1130CF0F789E02DC60126960FB6F894DEBF0FBE25
S1130D00CDBFDF91CF911F910F91FF90EF90DF90B6
S1130D10CF9019946F927F928F929F92AF92BF92CD
S1130D20CF92DF92EF92FF920F931F93CF93DF93B3
S1130D30EC014B015A0169013801E881F98102840F
S1130D40F385E02D1995E881F9810288F389E02D76
S1130D5087019601A501B401CE011995E881F981B5
S1130D60A501460D571D415051090288F389E02D14
S1130D709601B401CE011995E881F9810088F189C1
S1130D80E02D9301A501B401CE011995E881F98103
S1130D90C80CD91CB601615071090088F189E02D95
S1130DA09301A501CE011995E881F9810688F78997
S1130DB0E02DCE01DF91CF911F910F91FF90EF9025
S1130DC0DF90CF90BF90AF909F908F907F906F9067
S1130DD019940895FC016370658B84819581268143
S1130DE03781613039F0633029F091878087338708
S1130DF02287089531872087938782870895FC018D
S1130E00138212828AE696E09183808375836483D9
S1130E10578346837187608753874287158A15866F
S1130E2014861786168681E0848B2FEF3FEF338B71
S1130E30228B318B208B868B178A118E108E08950E
S1130E402F923F924F925F926F927F928F929F92D6
S1130E50AF92BF92CF92DF92EF92FF920F931F93C4
S1130E60CF93DF93CDB7DEB76C970FB6F894DEBFA0
S1130E700FBECDBF9C8F8B8F5B011A011F830E8326
S1130E803701C982DC0158964D915C9159974115FF
S1130E90510509F0E5C018968D919C911997681732
S1130EA079070CF0CAC11A968D919C911B9728164C
S1130EB039060CF0C2C18C2C912CFB0136E0C39E88
S1130EC0E00DF11D1124FB87EA871E161F060CF0A6
S1130ED0B4C1C40133E0880F991F3A95E1F79D87A7
S1130EE08C87820D931D181619060CF0A6C157960F
S1130EF08C91811103C0203B08F02F5FAB8DBC8D1A
S1130F00ED91FC9111970284F385E02DCD012A8F98
S1130F1019952A8DB5E02B9F90011124F501359682
S1130F20FF87EE872501BB82AA82A9014A195B09C2
S1130F30598B488BC10108969B8B8A8BE889F98968
S1130F40E40DF51DEC51FE4F949198873D822C825F
S1130F506101A885A0FF13C0AB8DBC8DED91FC9100
S1130F60B981B13031F40484F585E02D2E813F81BF
S1130F7016C00684F785E02DEE80FF801AC0EE814E
S1130F80FF816E167F06F1F0AB8DBC8DED91FC9167
S1130F90B981B13051F40484F585E02D9301A601A3
S1130FA0B2018B8D9C8D19950DC00684F785E02DBB
S1130FB07301840194014C815D816A817B818B8DF5
S1130FC09C8D1995E885E695E8872C813D81280D4F
S1130FD0391D3D832C833FEFC31AD30A4A895B89A9
S1130FE0C416D50609F0B5CF8A819B81880D991D59
S1130FF09B838A839FEF491A590AAE85BF854A1697
S11310005B0609F09BCFEE81FF816E167F0609F423
S1131010F2C0EB8DFC8DA081B181F981F13079F4BE
S1131020B5016B5F7F4F5096ED91FC915197830111
S113103028E030E0A1018B8D9C8D1995DCC06A8578
S11310407B85681979091E96ED91FC911F977301B0
S11310500C851D859401A1018B8D9C8D1995CBC0A8
S1131060FA0134969491329765917491291BCB01BE
S1131070B7E02B9F800D911D1124FA012591349125
S11310803B8B2A8BFC01459154915B834A83FC0181
S11310903296C490319654915C873296149131966D
S11310A0D4908981823058F0612E012E000C77088B
S11310B0AD2D0D2C000CBB0BB987A88704C0198675
S11310C01886612C712CAB8DBC8DED91FC91119720
S11310D00284F385E02DCD011995B9818B2E912CD5
S11310E0689CC001699C900D789C900D1124FC01B2
S11310F0EA0DFB1DF98BE88B1C82712C612CE12F0E
S1131100110FFF0B95012E0F3F1F3B872A87AC0C55
S1131110B11CA5014E0F5F1F5F8B4E8BC1018D0D5E
S1131120911DD7FC9A95998F888F4C85641608F089
S113113062C0862D90E048855985480F591F489D07
S11311409001499D300D589D300D1124D901A20DF7
S1131150B31DBF87AE87AA84BB8448885988DC80C6
S1131160BA85DB1AE88DF98DE80FF91FFD8BEC8B3E
S11311708D2D8A0D2E893F89A216B306B9F1877089
S113118061F48A819B810196EA89FB89AA81BB81EA
S1131190EA0FFB1F74909B838A8377FE20C0AB8D7C
S11311A0BC8DED91FC91B981B13061F40484F58575
S11311B0E02D2E813F814C895D89B5018B8D9C8DFD
S11311C019950DC00684F785E02DEE80FF8084011B
S11311D094014E855F85B2018B8D9C8D1995770C9A
S11311E0480C591CEFEFAE1ABE0AC2CF3C813C0D2D
S11311F03C8363949ACFAB8DBC8DED91FC91119798
S11312000688F789E02DCD016C960FB6F894DEBF01
S11312100FBECDBFDF91CF911F910F91FF90EF9043
S1131220DF90CF90BF90AF909F908F907F906F9002
S11312305F904F903F902F9019946C960FB6F8944E
S1131240DEBF0FBECDBFDF91CF911F910F91FF90F5
S1131250EF90DF90CF90BF90AF909F908F907F9052
S11312606F905F904F903F902F900895AF92BF92F0
S1131270CF92EF92FF920F931F93CF93DF93EC01E2
S1131280262F888D998D009709F03FC06A3059F454
S11312901D861C862C898E859F8538E0239F800DB2
S11312A0911D112440C06D3009F4A8C08E89882393
S11312B0C1F03C898C859D8546E0349F800D911D4D
S11312C0112448855985481759075CF41D861C86E6
S11312D08E859F8548E0349F800D911D11249F8742
S11312E08E87EA88FB88088919894E855F856C8515
S11312F07D85CC88CE01A4DD2C898C859D8536E046
S1131300239F800D911D112442C06A3079F41D86FB
S11313101C862C89FC013696E4918E859F852E9F30
S1131320800D911D11249F878E8768C06D3009F44C
S113133065C0FC0134963491631708F45FC031969C
S1131340E491E61708F45AC0FC013296A590B490D3
S1131350462F50E0431B510937E0349FB001359FBD
S1131360700D1124A60EB71EF501329634913196F4
S1131370E491332311F0E1110DC0F5013496E491A9
S11313802C898C859D85E29F800D911D11249D875C
S11313908C8734C0F501359644915E89552311F14B
S11313A06C89E32FF0E0E40FF11D47FDFA956E9F81
S11313B0D0016F9FB00D11244C855D854A0F5B1FD2
S11313C0E885F985E417F5076CF41D861C86FC0195
S11313D03696E4918E859F856E9F800D911D112414
S11313E09F878E87EA88FB88088919894E855F85DF
S11313F06C857D85CC88CE0123DDBFCF81E090E074
S1131400DF91CF911F910F91FF90EF90CF90BF90FC
S1131410AF900895FC0175876487578746870895C0
S1131420611101C061E0FC01648B0895FC01738BC0
S1131430628B718B608B0895FC0185890895FC0192
S1131440808591850895FC018285938508950F9385
S11314501F93CF93DF93DC01FB0155968C91559735
S1131460823089F0833021F1813009F0E6C014968E
S11314708D919C911597BC01641B750BAB01415078
S11314805109BF011DC014966D917C911597CB0134
S11314908E1B9F0BFC0116968D919C911797BC0196
S11314A0641B750BAB0141505109E21BF30BC5C022
S11314B016966D917C9117976E1B7F0B621B730BB5
S11314C057FD1AC114968D919C9115974817590789
S11314D00CF012C177FF04C0260F371F60E070E0E4
S11314E016968D919C911797FB01E20FF31F8E17AF
S11314F09F071CF49C01261B370B121613060CF0D5
S1131500FBC0A22F862F86958695869590E8899FA5
S1131510400D511D1124FA01EA5EFD4F6770A9F1D7
S113152098E0961B492F50E0EA01C25FDD4F8881A5
S1131530291790F4421B51092FEF30E002C0359572
S113154027954A95E2F782230130110541F068F0AE
S11315500230110589F0D0C00130110519F4208141
S1131560822B0CC00130110520F480952081822348
S113157005C00230110531F4208182278083A91728
S113158008F4BAC0A91BE058FF4FA83048F1023054
S1131590110559F4EF018A2F988190959883C058CA
S11315A0DF4F88508830C0F732C081E00130110528
S11315B009F080E08195EF019A2F8883C058DF4FAE
S11315C098509830D0F788EF8A0F8695869586953F
S11315D060E8869FE00DF11D1124E058FF4FA770CD
S11315E0AA2309F489C0B0E0AA5FBD4F8C910130F1
S11315F0110529F038F002301105E1F07DC0908129
S1131600892B03C0809590818923808375C088EFDE
S11316108A0F86958695869570E8879FE00DF11D63
S11316201124E058FF4FA77009F466C0B0E0AA5F28
S1131630BD4F8C9190818927E8CF57FD5DC01696E8
S11316408D919C911797481759070CF055C0F7FFD7
S113165004C02E0F3F1FE0E0F0E014968D919C91A2
S11316601597BF01620F731F861797071CF49C011F
S11316702E1B3F0B121613060CF03EC0CA0157FD79
S1131680079663E0959587956A95E1F79695982F67
S1131690882797958795E80FF91FEA5EFD4F4770F5
S11316A0552781E090E001C0880F4A95EAF7482F5A
S11316B00130110539F078F002301105E9F42E0FEC
S11316C03F1F13C02E0F3F1FE217F307A9F08081BD
S11316D0842B8193F9CF80952E0F3F1FE217F307D8
S11316E059F0908198239193F9CFE217F30721F0F1
S11316F0808184278193F9CFDF91CF911F910F913E
S113170008950F931F93CF93DF93DC0155968C912B
S11317105597823071F0833009F1813009F08CC023
S11317201496ED91FC911597E41BF50BE21BF30B5A
S113173020C01496ED91FC911597CF01861B970B51
S1131740BC01615071091696ED91FC911797CF0178
S1131750841B950BAC01421B530B6EC01696ED9186
S1131760FC911797CF01861B970BBC01615071093F
S1131770FA0177FD1BC116968D919C9117976817F6
S113178079070CF013C1F7FF04C02E0F3F1FE0E0F0
S1131790F0E014968D919C911597AF01420F531F61
S11317A0841795071CF49C012E1B3F0B121613067D
S11317B00CF0FCC0CB0177FD079643E09595879527
S11317C04A95E1F79695982F882797958795E80F7E
S11317D0F91FEA5EFD4F6770772781E090E001C052
S11317E0880F6A95EAF7482F0130110541F088F017
S11317F00230110509F0DAC02E0F3F1F15C02E0F5D
S11318003F1FE217F30709F4D1C08081842B819331
S1131810F8CF80952E0F3F1FE217F30709F4C6C0D7
S1131820908198239193F8CFE217F30709F4BEC08F
S1131830808184278193F8CF77FDB8C014968D9169
S11318409C911597681779070CF0B0C057FF04C036
S1131850240F351F40E050E016968D919C91179708
S1131860FA01E20FF31F8E179F071CF49C01241B3F
S1131870350B121613060CF099C0A22F842F8695EF
S11318808695869590E8899F600D711D1124FB0152
S1131890EA5EFD4F4770A9F198E0941B492F50E090
S11318A0EA01C25FDD4F8881291790F4421B510978
S11318B02FEF30E002C0359527954A95E2F7822351
S11318C00130110541F068F00230110589F06EC055
S11318D00130110519F42081822B0CC0013011054F
S11318E020F480952081822305C00230110531F453
S11318F0208182278083A91708F458C0A91BE058C7
S1131900FF4FA83048F10230110559F4EF018A2F36
S1131910988190959883C058DF4F88508830C0F7DD
S113192030C081E00130110509F080E08195EF01BC
S11319309A2F8883C058DF4F98509830D0F788EF9B
S11319408A0F86958695869590E8899FE00DF11D0E
S11319501124E058FF4FA770AA2341F1B0E0AA5F19
S1131960BD4F8C910130110529F038F0023011057A
S1131970D1F01CC09081892B18C080959081892357
S113198014C088EF8A0F86958695869590E8899F7E
S1131990E00DF11D1124E058FF4FA77039F0B0E0BD
S11319A0AA5FBD4F8C91908189278083DF91CF916D
S11319B01F910F910895CF92DF92EF92FF920F93B0
S11319C01F93CF93DF937C018B01EA01690177FDBB
S11319D09DC035DD081719070CF098C0D7FD96C0D7
S11319E0C70131DDC817D9070CF090C0C70124DD49
S11319F0823009F07FC0F70164817581CB01801BBF
S1131A00910B8C010150110946815781FA01EC1B9D
S1131A10FD0BEF0121970BC0813049F4F70184815C
S1131A2095818C1B9D0BE8018C0101501109F1E09B
S1131A30CF16D10431F010F182E0C816D104E1F1DF
S1131A4065C0FE01D7FD379643E0F595E7954A95C5
S1131A50E1F7F695FE2FEE27F795E7950E0F1F1F7A
S1131A60F801EA5EFD4FC770DD2781E090E001C018
S1131A70880FCA95EAF79081892B3AC0FE01D7FDF9
S1131A80379623E0F595E7952A95E1F7F695FE2F2D
S1131A90EE27F795E7950E0F1F1FF801EA5EFD4F3D
S1131AA0C770DD2781E090E001C0880FCA95EAF78E
S1131AB08095908189231CC0FE01D7FD379683E071
S1131AC0F595E7958A95E1F7F695FE2FEE27F795BC
S1131AD0E7950E0F1F1FF801EA5EFD4FC770DD2763
S1131AE081E090E001C0880FCA95EAF790818927C8
S1131AF080830CC0833009F08FCFF70186819781F2
S1131B00801B910B8E01EC01219791CFDF91CF9136
S1131B101F910F91FF90EF90DF90CF9008951F9346
S1131B20CF93DF93EC01162F40E450E060E870E0BF
S1131B3066D986E996E0998388838FEF8C8F88A392
S1131B408E8F8D8F1F8FDF91CF911F91089580E02D
S1131B5094E0E6E1F2E0DF019C011D922150304067
S1131B60E1F70895FC0181A1882339F06EBD0000DE
S1131B700DB407FEFDCF8EB5089528E030E090E85F
S1131B80A4A1B5A14C9183A5809584238C93A2A193
S1131B90B3A182A5492F462319F04C91842B03C08D
S1131BA04C91809584238C93A4A1B5A14C9183A5D9
S1131BB0842B8C9396952150310911F708951F9326
S1131BC0CF93DF93EC01162F8C8D8F3F01F1EEA1A3
S1131BD0FFA190818CA5892B8083E8A5F9A590812C
S1131BE08DA5809589238083EEA1FFA190818CA58A
S1131BF0809589238083CE01B5DFEEA1FFA190817A
S1131C008CA5892B8083DF91CF911F9108958A8DB4
S1131C10682F880F770B83EE9FE00E94393460E0D1
S1131C2083EE9FE00E94D533612F83EE9FE00E94F4
S1131C30D53383EE9FE0DF91CF911F910C94AE34A6
S1131C400F931F93CF93DF93EC01162F022F6B8F0B
S1131C504A8F8C8D8F3F09F48CC061E08E8D0E9479
S1131C601F4361E088A10E941F4388A1082E000C35
S1131C70990BFC01E059F84FE491F0E0EE0FFF1FDF
S1131C80E053F84F259134913FA32EA3FC01E65D68
S1131C90F84FE491ECA78E8D082E000C990BFC01F3
S1131CA0E059F84FE491F0E0EE0FFF1FE053F84FD6
S1131CB02591349139A728A7FC01E65DF84FE491FA
S1131CC0EDA789A1811134C061E08C8D0E941F436E
S1131CD061E08D8D0E941F438D8D082E000C990BA1
S1131CE0FC01E059F84FE491F0E0EE0FFF1FE053E0
S1131CF0F84F259134913DA32CA3FC01E65DF84FE8
S1131D00E491EBA78C8D082E000C990BFC01E05993
S1131D10F84FE491F0E0EE0FFF1FE053F84F2591E8
S1131D2034913BA32AA3FC01E65DF84FE491EAA7B2
S1131D3089A1882311F10E94D0308091730F8823E8
S1131D4099F02FB7F8948091730F813059F48DB3C3
S1131D508093710F9DB38091720F809589238DBB01
S1131D602FBF02C02093710F80E58CBD81E08DBD33
S1131D7004C083EE9FE00E9413340023F1F08F8DA2
S1131D8087FD1BC061E00E941F4361E08F8D0E94AC
S1131D905B4361E070E080E090E00E94244260E0F8
S1131DA08F8D0E945B436AE070E080E090E00E94C7
S1131DB0244261E08F8D0E945B436EEACE01FFDE18
S1131DC065EDCE01FCDE60E8CE01F9DE68EACE0105
S1131DD0F6DE6FE3CE01F3DE63EDCE01F0DE60E00C
S1131DE0CE01EDDE60E4CE01EADE6DE8CE01E7DE91
S1131DF0113011F460E101C064E1CE01E0DE60E283
S1131E00CE01DDDE60E0CE01DADE61EACE01D7DEAE
S1131E1068ECCE01D4DE6AEDCE01D1DE62E1CE0102
S1131E20CEDE61E8CE01CBDE113011F46FE901C0E2
S1131E306FECCE01C4DE69EDCE01C1DE113011F4C8
S1131E4062E201C061EFCE01BADE6BEDCE01B7DE16
S1131E5060E4CE01B4DE64EACE01B1DE66EACE010E
S1131E60AEDE6EE2CE01ABDE6FEACE01DF91CF9142
S1131E701F910F91A4CEDF92EF92FF920F931F93C5
S1131E80CF93DF93EC0161E29ADE60E0CE0197DE4E
S1131E906FE7CE0194DE62E2CE0191DE60E0CE0116
S1131EA08EDE67E0CE018BDE8C8D8F3F29F1EEA1B3
S1131EB0FFA190818CA5892B8083E8A5F9A5908149
S1131EC08DA5892B8083EEA1FFA190818CA580959F
S1131ED08923808306E112E0F80161918F01CE012C
S1131EE041DEF6E006311F07B9F7EEA1FFA19081AC
S1131EF08CA5892B808331C0D090B8008CE080936E
S1131F00B80006E112E06A8D062E000C770B83EE12
S1131F109FE00E94393460E483EE9FE00E94D53351
S1131F20E12CF12CF801EE0DFF1D608183EE9FE0A2
S1131F300E94D5338FEFE81AF80AE0E1EE16F104B7
S1131F4089F783EE9FE00E94AE34005F1F4FF6E0F6
S1131F5006311F07C1F6D092B800DF91CF911F91CF
S1131F600F91FF90EF90DF900895DC01ED91FC91CB
S1131F700190F081E02D199465EA70E088E791E121
S1131F80F4DF61E570E088E791E1EFCF65EA70E0A6
S1131F9088E791E1EADF65E570E088E791E1E5CF64
S1131FA0CF93DF93EC0126E040E052EC61E070E077
S1131FB088E791E10E94923B68EB7BE080E090E04F
S1131FC00E942442CE01E2DF65EA70E088E791E1F5
S1131FD0CCDF62E570E088E791E1DF91CF91C5CF76
S1131FE0E8E4FDE0148A158A0895FF920F931F9385
S1131FF0CF93DF93EC01FF24F39488E791E10E94EF
S1132000933A892BC1F00C8910E088E791E10E9492
S1132010AD3AFE01E00FF11F84878C89811104C061
S11320209C859A3A09F056C08F5F8C8B883029F7CB
S11320301C8AFD8AE2CF8D89813009F04BC08C85E2
S11320408A3A09F046C08B89853509F042C06D850E
S113205070E0762F66278E85682B072E000C880B80
S1132060990B0E94793720E030E048EC52EC0E9452
S1132070DE36688379838A839B836F8570E0762F4D
S113208066278889682B072E000C880B990B0E9401
S1132090793720E030E048EC52E40E94DE366C836D
S11320A07D838E839F83698970E0762F66278A8972
S11320B0682B072E000C880B990B0E94793720E0BF
S11320C030E048EC52E40E94DE36688779878A87DC
S11320D09B871D8ADF91CF911F910F91FF900895E7
S11320E0CF93DF93FC0188E0DF01C82F1D92CA95CE
S11320F0E9F7DF011896ED0119928A95E9F7148E34
S1132100158E168E178E10A280E090E0A0E8BFE333
S1132110808B918BA28BB38B848B958BA68BB78B87
S1132120808F918FA28FB38FDF91CF910895CF933A
S1132130DF93EA0170E083EE9FE00E9439346EEB96
S113214076E083EE9FE00E94033E4AE050E0BE0149
S113215083EE9FE00E94BD3E83EE9FE0DF91CF912E
S11321600C94AE34CF92DF92EF92FF920F931F93B1
S1132170CF93DF93EC016A017901AB0161E0D7DF12
S1132180A60162E0CE01D3DFA70163E0CE01CFDF79
S1132190A80164E0CE01DF91CF911F910F91FF90D0
S11321A0EF90DF90CF90C3CF4F925F926F927F9268
S11321B0AF92BF92CF92DF92EF92FF920F931F9351
S11321C0CF93DF9300D01F92CDB7DEB729013A0138
S11321D0E982FA820B831C8370E083EE9FE00E9405
S11321E0393461EC76E083EE9FE00E94033E22E006
S11321F030E0B301A20183EE9FE00E94CC3F65EC86
S113220076E083EE9FE00E94033E22E030E04981C5
S11322105A816B817C8183EE9FE00E94CC3F69EC04
S113222076E083EE9FE00E94033E22E030E0B601B8
S1132230A50183EE9FE00E94CC3F83EE9FE00E94C5
S11322400B3E83EE9FE00F900F900F900F90DF9165
S1132250CF911F910F91FF90EF90DF90CF90BF909F
S1132260AF907F906F905F904F900C94AE34AF928C
S1132270BF92CF92DF92EF92FF920F931F93CF936F
S1132280DF93EC01A88CB98CCA8CDB8CEC88FD88BC
S11322900E891F89288939894A895B8961E084DF2D
S11322A0A88CB98CCA8CDB8CEC88FD880E891F89BC
S11322B0288939894A895B8962E0CE0175DFA88C57
S11322C0B98CCA8CDB8CEC88FD880E891F8928891F
S11322D039894A895B8963E0CE0166DFA88CB98CB1
S11322E0CA8CDB8CEC88FD880E891F892889398982
S11322F04A895B8964E0CE0157DFDF91CF911F915A
S11323000F91FF90EF90DF90CF90BF90AF90089522
S1132310CF93DF931F92CDB7DEB783EE9FE069833F
S11323200E941334698170E041E050E083EE9FE045
S11323300E94AC3483EE9FE00E944A33892B39F02B
S113234083EE9FE00F90DF91CF910C9452330F9066
S1132350DF91CF910895AF92BF92CF92DF92EF9227
S1132360FF920F931F93CF93DF93EC0183EE9FE0D3
S11323700E9413346DEC76E08EE390E10E940E3EF1
S113238086E0A82EB12CC88CD98CEA8CFB8C0C89E5
S11323901D892E893F89488959896A897B89CE019B
S11323A066DF60ED76E08EE390E10E940E3E61E030
S11323B0CE01AEDF6C0162E0CE01AADF7C0163E0F6
S11323C0CE01A6DF8C0164E0CE01A2DF9C0181E096
S11323D0C816D10469F482E0E816F10449F4033024
S11323E0110531F42430310519F481E08C8F04C0D7
S11323F01C8ECA94CD2811F481E08D8F82E0E816FA
S1132400F10411F481E08E8F0330110511F481E0A1
S11324108F8F2430310511F481E088A381E0A81A5C
S1132420B10809F0B0CF64ED76E08EE390E1DF917E
S1132430CF911F910F91FF90EF90DF90CF90BF90BD
S1132440AF900C940E3E089526E08BED90E10E942F
S1132450923B68ED76E08BED90E10C940E3E4F924A
S11324605F926F927F928F929F92AF92BF92CF9220
S1132470DF92EF92FF920F931F932A013B014801D1
S113248059016EEB76E08BED90E10E94033E4AE049
S113249050E060E070E08BED90E10E94B73E64EEA6
S11324A076E08BED90E10E94033E4AE050E060E06C
S11324B070E08BED90E10E94B73E64E17CE08BED2F
S11324C090E10E94033E22E030E0B301A2018BEDD3
S11324D090E10E94CC3F68E17CE08BED90E10E94AA
S11324E0033E22E030E0B501A4018BED90E10E94AF
S11324F0CC3F62EC76E08BED90E10E94033E22E05B
S113250030E0B701A6018BED90E11F910F91FF9090
S1132510EF90DF90CF90BF90AF909F908F907F907F
S11325206F905F904F900C94CD3FCF93DF93EC016D
S113253083EE9FE00E9413346EEE76E08EE390E12A
S11325400E940E3E6881798183EE9FE00E943934B7
S113255061E077E083EE9FE00E940E3E83EE9FE011
S1132560DF91CF910C94AE344F925F926F927F9231
S11325708F929F92AF92BF92CF92DF92EF92FF928F
S11325800F931F93CF93DF93EC012A013B01480182
S1132590590168E077E08EE390E10E94033E64E134
S11325A077E08EE390E10E94033E22E030E0B30145
S11325B0A2018EE390E10E94CC3F67E177E08EE3D5
S11325C090E10E94033E22E030E0B501A4018EE3D5
S11325D090E10E94CC3F60E07DE08EE390E10E94B8
S11325E0033E22E030E0B701A6018EE390E10E94B1
S11325F0CC3F6AE177E08EE390E10E940E3E688171
S1132600798183EE9FE00E94393464E07CE083EEBC
S11326109FE00E94033E64E177E083EE9FE00E9426
S1132620033E22E030E0B301A20183EE9FE00E946A
S1132630CC3F67E177E083EE9FE00E94033E22E017
S113264030E0B501A40183EE9FE00E94CC3F60E03E
S11326507DE083EE9FE00E94033E22E030E0B7017C
S1132660A60183EE9FE00E94CC3F6FE177E083EE0A
S11326709FE00E940E3E83EE9FE0DF91CF911F9179
S11326800F91FF90EF90DF90CF90BF90AF909F900D
S11326908F907F906F905F904F900C94AE34EEE5E6
S11326A0FDE085E090E0918380831382128214829E
S11326B00895FC0111821082138212821582148201
S11326C02AE030E03783268380E490E09187808796
S11326D0338722871586148622E130E037872687E0
S11326E0918B808B338B228B158A148A2CE130E0FA
S11326F0378B268B918F808F338F228F158E148E7C
S113270024E230E0378F268F11A210A22EE230E0AF
S113271033A322A395A384A337A326A311A610A6AB
S113272046E350E053A742A715A614A637A726A749
S113273091AB80AB33AB22AB15AA14AA57AB46AB13
S1132740089521E04CE362E083E69DE079DA83E6D4
S11327509DE091DB68EE73E080E090E00E9424420B
S113276083E69DE0F4C92F923F924F925F926F925D
S11327707F928F929F92AF92BF92CF92DF92EF920D
S1132780FF920F931F93CF93DF93CDB7DEB762977A
S11327900FB6F894DEBF0FBECDBF1C017A836983E8
S11327A05C834B833E832D8348A459A46AA47BA4F1
S11327B08EA59FA5A8A9B9A98F839887A987BA8749
S11327C08AA99BA9ACA9BDA98B879C87AD87BE8725
S11327D08EA99FA9A8ADB9AD8F87988BA98BBA8B09
S11327E061E083E69DE00E94100A61E070E083E608
S11327F09DE00E94160A40E050E060E070E083E64D
S11328009DE00E940A0A83E69DE0A1D967E377E090
S113281083E69DE00E94033E0E94F341AB01BC01AC
S11328202AE030E083E69DE00E94D23ED101169674
S11328304D915C91179714966D917C91159783E651
S11328409DE00E940A0A6DE377E083E69DE00E9422
S1132850033E4AE050E069817A8183E69DE00E946C
S1132860B73EF101428553856085718583E69DE01D
S11328700E940A0A61E477E083E69DE00E94033E39
S11328804AE050E06D817E8183E69DE00E94B73E80
S1132890D1011E964D915C911F971C966D917C9170
S11328A01D9783E69DE00E940A0A65E477E083E6CB
S11328B09DE00E94033E4AE050E06B817C8183E608
S11328C09DE00E94B73EF101428953896089718974
S11328D083E69DE00E940A0A69E477E083E69DE0CE
S11328E00E94033E4AE050E0B80183E69DE00E9466
S11328F0B73ED10156964D915C91579754966D9180
S11329007C91559783E69DE00E940A0A6DE477E086
S113291083E69DE00E94033E22E030E0B701A60179
S113292083E69DE00E94CC3FF101428D538D608D82
S1132930718D83E69DE00E940A0A63E577E083E6F1
S11329409DE00E94033E22E030E0B501A40183E64D
S11329509DE00E94CC3FD1015E964D915C915F97C2
S11329605C966D917C915D9783E69DE00E940A0AD6
S113297069E577E083E69DE00E94033E22E030E0D3
S1132980B301A20183E69DE00E94CC3FF10146A57C
S113299057A564A575A583E69DE00E940A0A6FE524
S11329A077E083E69DE00E94033E22E030E04F8121
S11329B0588569857A8583E69DE00E94CC3FD101E4
S11329C0D2964D915C91D397D0966D917C91D1978D
S11329D083E69DE00E940A0A64E677E083E69DE0D0
S11329E00E94033E22E030E04B855C856D857E8548
S11329F083E69DE00E94CC3FF10146A957A964A952
S1132A0075A983E69DE00E940A0A6BE677E083E6F7
S1132A109DE00E94033E22E030E04F855889698999
S1132A207A8983E69DE00E94CC3F83E69DE062962E
S1132A300FB6F894DEBF0FBECDBFDF91CF911F91CB
S1132A400F91FF90EF90DF90CF90BF90AF909F9049
S1132A508F907F906F905F904F903F902F900BCA14
S1132A6064E083E69DE05BC84F925F926F927F9231
S1132A70AF92BF92CF92DF92EF92FF920F931F9388
S1132A80CF93DF93EC015B01CA01B9012AA33BA3F5
S1132A904CA35DA32BED3FE049E450E40E9492383F
S1132AA06C877D878E879F87B9A2A8A2EEA2FFA21A
S1132AB008A719A7B601DD0C880B990B0E9479377A
S1132AC09B01AC0160E070E080E090E40E94F53886
S1132AD020E030E040E85FE30E9410366AA77BA75D
S1132AE08CA79DA7DF91CF911F910F91FF90EF903D
S1132AF0DF90CF90BF90AF907F906F905F904F909A
S1132B0008952F923F924F925F926F927F928F928D
S1132B109F92AF92BF92CF92DF92EF92FF920F9368
S1132B201F93CF93DF93CDB7DEB760970FB6F894BA
S1132B30DEBF0FBECDBF1C01CB01BA014801590154
S1132B4020E030E040E752E40E94923869877A87B7
S1132B508B879C87D1016D937D938D939C93139761
S1132B6020E030E040E752E4C501B4010E9492380D
S1132B702B013C01F101648375838683978320E0F4
S1132B8030E040E752E4C701B6010E949238D10117
S1132B9018966D937D938D939C931B9796962D9188
S1132BA03D914D915C9199970E9492386D877E87F3
S1132BB08F87988BF101608B718B828B938B8484CC
S1132BC09584A684B784A501940169857A858B854B
S1132BD09C850E94DE366B017C01D10154966D9375
S1132BE07D938D939C935797A5019401C301B201E2
S1132BF00E94DE362B013C01F101608F718F828FC0
S1132C00938FA50194016D857E858F8598890E9497
S1132C10DE364B015C01D1015C966D937D938D93FF
S1132C209C935F97A3019201C701B6010E941036DD
S1132C3069877A878B879C87A3019201C701B601B4
S1132C400E9411366B017C01A501940169857A8586
S1132C508B859C850E9410360E944637662E7A83A7
S1132C606983A5019401C701B6010E9410360E9430
S1132C704637762E7C836B83A5019401C701B60188
S1132C800E9411360E944637F62E7E836D83A5017D
S1132C90940169857A858B859C850E9411360E94F2
S1132CA04637862F262F372F38872F83262D3A81B4
S1132CB0472D5C816F2D7E81988560960FB6F894C0
S1132CC0DEBF0FBECDBFDF91CF911F910F91FF905B
S1132CD0EF90DF90CF90BF90AF909F908F907F90B8
S1132CE06F905F904F903F902F900895CF92DF9216
S1132CF0EF92FF92CF93DF93EC01072E000C880B29
S1132D00990B0E9479376B017C0148A159A1BA0142
S1132D10550F880B990B0E9479379B01AC01C701B1
S1132D20B6010E94DE362AA53BA54CA55DA50E94EE
S1132D3092380E944637CB01DF91CF91FF90EF90FC
S1132D40DF90CF9008954F925F926F927F928F920F
S1132D509F92AF92BF92CF92DF92EF92FF920F9326
S1132D601F93CF93DF93CDB7DEB760970FB6F89478
S1132D70DEBF0FBECDBF5C01C4DE29873A874B8717
S1132D805C876D877E878F87988B69857A85C50177
S1132D90ADDF4C016B857C85C501A8DF6C016D85B9
S1132DA07E85C501A3DF8C016F857889C5019EDF0F
S1132DB07C01B40197FE04C0662777276819790956
S1132DC06F3F710509F024F5C601D7FE04C08827BA
S1132DD099278C199D098F3F910509F0CCF4C801FE
S1132DE017FF04C088279927801B910B8F3F9105FB
S1132DF011F00CF051C0C701F7FE04C088279927D1
S1132E008E199F098F3F910511F00CF045C09FC0AA
S1132E10072E000C880B990B0E9479379B01AC019B
S1132E2060E070E08FE793E40E94DE362B013C0102
S1132E30B801110F880B990B0E947937A3019201F5
S1132E400E9492380E9446378B01B701FF0C880B11
S1132E50990B0E947937A30192010E9492380E9433
S1132E6046377B01B401990C880B990B0E94793782
S1132E70A30192010E9492380E9446374B01B60189
S1132E80DD0C880B990B0E947937A30192010E94F3
S1132E9092380E9446376B01B80117FF04C06627B9
S1132EA07727601B710B6F3F710509F064F4C7014C
S1132EB0F7FE04C0882799278E199F098F3F910533
S1132EC009F00CF444C0072E000C880B990B0E94E7
S1132ED079379B01AC0160E070E08FE793E40E94D6
S1132EE0DE362B013C01B801110F880B990B0E94AF
S1132EF07937A30192010E9492380E9446378B01D0
S1132F00B701FF0C880B990B0E947937A30192013A
S1132F100E9492380E9446377B01B401990C880BB9
S1132F20990B0E947937A30192010E9492380E9462
S1132F3046374B01B601DD0C880B990B0E9479379B
S1132F40A30192010E9492380E9446376B019A8233
S1132F508982DC82CB821E830D83F886EF82282D42
S1132F603A814C2D5C81602F7E818E2D98856096F0
S1132F700FB6F894DEBF0FBECDBFDF91CF911F9186
S1132F800F91FF90EF90DF90CF90BF90AF909F9004
S1132F908F907F906F905F904F900895FC0182E036
S1132FA0808383E0818384E0828385E08383158248
S1132FB0148281E090E0978386831186108693873C
S1132FC08287089508954F925F926F927F92AF9295
S1132FD0BF92CF92DF92EF92FF920F931F93CF9302
S1132FE0DF93CDB7DEB72A970FB6F894DEBF0FBED6
S1132FF0CDBF7C015B018AE0E2E5F6E0DE011196DB
S113300001900D928A95E1F7CE0101966C0100E0E2
S113301010E030E8432E3EE3532E612C712CF60170
S1133020619171916F01CB01770FAA0BBB0B7727CD
S11330306627A30192010E940445A216B3062CF050
S11330400F5F1F4F0530110551F7F70131872087B6
S1133050000F111FE1E0F0E0EC0FFD1FE00FF11F86
S1133060808191812A960FB6F894DEBF0FBECDBF42
S1133070DF91CF911F910F91FF90EF90DF90CF9050
S1133080BF90AF907F906F905F904F900895CF93D3
S1133090DF93EC0162E07CE00E94584481E090E020
S11330A09F838E83198618861B861A868FB780683D
S11330B08FBFDF91CF910895EF92FF920F931F93EB
S11330C0CF93DF93EC017B018A010E946C44B80129
S11330D0CE0179DF9F838E83C7010E94BC4460E7E1
S11330E077E0C7010E949E44882309F44DC01092E2
S11330F090001092910088E0809391008E819F81CE
S1133100019729F4809191008160809391008E81D0
S11331109F81089729F480919100826080939100A7
S11331208E819F818034910529F480919100836080
S1133130809391008E819F818115914029F4809123
S113314091008460809391008E819F8181159440C9
S113315029F48091910085608093910020E83EE3FA
S1133160D8010E9437452E813F81032E000C440B69
S1133170550B0E9404453B872A873093990020937E
S1133180980082E080937100DF91CF911F910F919D
S1133190FF90EF90089570931706609316060895B4
S11331A00C94F1431F920F920FB60F9211240BB699
S11331B00F922F933F934F935F936F937F938F93CC
S11331C09F93AF93BF93EF93FF93E0911606F09113
S11331D017061995FF91EF91BF91AF919F918F9130
S11331E07F916F915F914F913F912F910F900BBE03
S11331F00F900FBE0F901F901895CF93DF93EC01A3
S1133200198218821A821B821C821D821E821F82CE
S1133210188619861A868FE790E09C878B879E878D
S11332208D87988B8F879A8B898B62E07CE0CE01A7
S113323043960E94584481E0898FDF91CF9108958D
S1133240CF92EF920F93CF93DF93EC0126E040E00F
S113325052EC61E070E08EE390E10E94923B6CE2FC
S113326071E080E090E00E942442C12CE12C0DE04A
S11332702AE04BE06CE081E99DE00E94D623282FF0
S113328030E0398328832115310569F564E777E057
S11332908EE390E10E94033E6DE977E08EE390E1D6
S11332A00E94033E6AEA77E08EE390E10E940E3EBC
S11332B060EB77E08EE390E10E94033E6AEA77E0F8
S11332C08EE390E10E940E3E6AEB77E08EE390E19C
S11332D00E940E3E6EE078E08EE390E10E940E3E86
S11332E067E478E011C02130310519F467E878E02B
S11332F00BC02230310519F46DEF78E005C023309E
S1133300310531F46DE779E08EE390E10E940E3EE1
S113331081E99DE00E94D8218A83813059F038F0F8
S1133320823059F08330A1F46BEF79E008C06FEB81
S113333079E005C069E07AE002C06EED79E08EE3E1
S113334090E1DF91CF910F91EF90CF900C94033ED9
S1133350DF91CF910F91EF90CF9008951F93CF936A
S1133360DF93FC012281223009F487C1EC014381FF
S113337060E081E99DE00E94D52268E070E081E987
S11333809DE00E94C721882361F065E27AE08EE324
S113339090E10E940E3E65E27AE0CE0143960E94DF
S11333A0894461E070E081E99DE0F1D7882361F010
S11333B069E37AE08EE390E10E940E3E69E37AE0ED
S11333C0CE0143960E94894460E170E081E99DE06A
S11333D0DED78823E1F06EE47AE08EE390E10E9488
S11333E0033E6BE081E99DE0DED74AE050E0682FC0
S11333F08EE390E10E94DE3E81E08C8361E67AE018
S1133400CE0143960E9489448FEB9DE0FBD160E29C
S113341070E081E99DE0BBD78823C9F062E77AE0D8
S11334208EE390E10E94033E69E081E99DE0BBD711
S11334304AE050E0682F8EE390E10E94DE3E81E096
S11334408F8369E87AE0CE0143960E94894460E85C
S113345070E081E99DE09BD78823C9F06DE97AE0AB
S11334608EE390E10E94033E6AE081E99DE09BD7F0
S11334704AE050E0682F8EE390E10E94DE3E81E056
S11334808E8363EB7AE0CE0143960E94894460E424
S113349070E081E99DE07BD78823E1F066EC7AE077
S11334A08EE390E10E94033E6CE081E99DE07BD7CE
S11334B04AE050E0682F8EE390E10E94DE3E81E016
S11334C08D836CED7AE0CE0143960E9489448FEBA4
S11334D09DE0AED16FE081E99DE065D78B8381E902
S11334E09DE004D7882309F468C062E070E081E9B4
S11334F09DE04DD7882361F06FEE7AE08EE390E192
S11335000E940E3E6AEF7AE0CE0143960E948944FF
S113351064E070E081E99DE03AD7882361F06BE0D4
S11335207BE08EE390E10E940E3E66E17BE0CE01FB
S113353043960E94894460E071E081E99DE027D7C9
S1133540882379F067E27BE08EE390E10E940E3EEF
S113355062E37BE0CE0143960E9489448FEB9DE0B9
S11335603BD160E072E081E99DE011D7882379F0D6
S113357063E47BE08EE390E10E940E3E6EE47BE028
S1133580CE0143960E9489448FEB9DE00FD160E009
S113359070E181E99DE0FBD6882379F06FE57BE05B
S11335A08EE390E10E940E3E60E77BE0CE014396FD
S11335B00E9489448FEB9DE051D160E070E281E983
S11335C09DE0ADD6882379F067E87BE08EE390E157
S11335D00E940E3E11E019876BE97BE0CE01439611
S11335E00E948944198F60E070E481E99DE089D6E6
S11335F0882389F060EB7BE08EE390E10E940E3E2D
S113360081E08A876FEB7BE0CE0143960E94894478
S11336108FEB9DE053D160E070E881E99DE09BD69B
S1133620882379F06FEC7BE08EE390E10E940E3EFC
S113363081E0898764EE7BE0CE0143960E94894451
S1133640198E68E081E99DE0AED690E09C878B8777
S113365067E081E99DE0A7D690E09E878D8766E0CC
S113366081E99DE0A0D690E0988B8F8765E081E9A1
S11336709DE099D690E09A8B898BDF91CF911F9131
S11336800895CF93DF93FC0180E5DF011D928A95B5
S1133690E9F76EE774E0758364838CEF98E09187B3
S11336A080879587848777876687918B808B938BB8
S11336B0828B958B848BCAE7DDE0D78BC68B918F89
S11336C0808F48EF51E1538F428F758F648F578FEE
S11336D0468F53A342A3A2E8BBEFB5A3A4A357A369
S11336E046A324E037EF31A720A753A742A735A765
S11336F024A7D7A7C6A731AB20AB93AB82AB35AB1E
S113370024AB77AB66AB31AF20AFB5AFA4AFDF016D
S1133710A05BBF4F11961C921E92129681E090E01E
S113372011969C938E93129640E050E060E07FE304
S11337304D935D936D937C93139714964AE057EDE4
S113374063EA7BE34D935D936D937C931397149697
S11337501D921D921D921C92139714961D921D92F8
S11337601D921C92139714961D921D921D921C92E9
S1133770139714961D921D921D921C9213971496E2
S11337801D921D921D921C92139714964DEC5CECA5
S11337906CE47EE34D935D936D937C931397EC58A7
S11337A0FF4F91838083DF91CF910895CF93DF936F
S11337B0EC01CC5ADF4F2AE037ED43E25CE3688149
S11337C079818A819B810E941136688379838A83F7
S11337D09B83DF91CF910895CF93DF93EC01CC5A73
S11337E0DF4F2AE037ED43E25CE3688179818A8127
S11337F09B810E941036688379838A839B83DF913F
S1133800CF910895CF93DF93EC01C85ADF4F2FE691
S113381032E143E85AE3688179818A819B810E947D
S11338201136688379838A839B83DF91CF910895CE
S1133830CF93DF93EC01C85ADF4F2FE632E143E820
S11338405AE3688179818A819B810E94103668835A
S113385079838A839B83DF91CF910895CF93DF93FC
S1133860EC01FC01EC5AFF4F20E030E048EC52E45C
S113387060817181828193810E9492380E944B37CA
S1133880FE01E05BFF4F808191810E948547FE012C
S1133890E85AFF4F20E030E04AE754E46081718148
S11338A0828193810E9492380E944B37CE5ADF4F17
S11338B088819981DF91CF910C9485470F931F9351
S11338C0CF93DF93EC01FC01E05BFF4F808191819A
S11338D00E947D478E010C5A1F4F682F70E080E0D4
S11338E090E00E94793720E030E048EC52E40E94F6
S11338F0DE36F801608371838283938332978081FB
S113390091810E947D47C85ADF4F682F70E080E0A4
S113391090E00E94793720E030E04AE754E40E94C6
S1133920DE36688379838A839B83DF91CF911F91ED
S11339300F910895CF92DF92EF92FF920F931F930E
S1133940CB01BA01A90198010E9410366B017C01D8
S113395020E030E044E353E40E948738181654F41E
S113396020E030E044EB53E4C701B6010E94103676
S11339706B017C0120E030E044E353ECC701B60165
S11339800E94D73687FF0AC020E030E044EB53E4BE
S1133990C701B6010E9411366B017C01C701B60153
S11339A01F910F91FF90EF90DF90CF9008952F9289
S11339B03F924F925F926F927F928F929F92AF92BB
S11339C0BF92CF92DF92EF92FF920F931F93CF9308
S11339D0DF93CDB7DEB76E970FB6F894DEBF0FBE98
S11339E0CDBF1C01498B5A8B6B8B7C8B0D8B1E8B33
S11339F02F8B388FC98EDA8EEB8EFC8E9A01AB0139
S1133A00C501B4010E9410366D837E838F8398872D
S1133A102D893E894F89588D6CA97DA98EA99FA9AE
S1133A200E94103669877A878B879C872D813E8117
S1133A304F815885CA01B9010E9492386B017C01FB
S1133A4029853A854B855C85CA01B9010E94923863
S1133A509B01AC01C701B6010E9411360E944B398B
S1133A606D877E878F87988B29853A854B855C8502
S1133A706D817E818F8198850E9484362BED3FE095
S1133A8049E450E40E94DE3620E030E044E353E4AD
S1133A900E949238AB01BC01F101E45AFF4F40830C
S1133AA0518362837383098D1A8D2B8D3C8DC101E3
S1133AB041DF6B017C018101005A1F4FD8016D93D6
S1133AC07D938D939C93139720E030E040EA50E47B
S1133AD06D857E858F8598890E94D736F101E059DE
S1133AE0FF4FFE8FED8F87FF16C069EF7BE08EE3FB
S1133AF090E10E940E3EAD8DBE8D1D921D921D92D1
S1133B001C921397F101E459FF4F10821182128223
S1133B10138281E050C220E030E048EC52E46D852D
S1133B207E858F8598890E94D73626013701E894CF
S1133B3077F8F101E859FF4FFA83E98320E030E098
S1133B4040EF51E487FFB8C0C301B2010E94873837
S1133B50181644F520E030E0A901C701B6010E941F
S1133B60873818164CF480E090E0A0E8B0E4F8013F
S1133B7080839183A283B38320E030E0A901D8013C
S1133B806D917D918D919C910E94D73687FF7EC067
S1133B9080E090E0A0E8B0ECF80180839183A283F8
S1133BA0B38374C0A981BA812D913D914D915C91EB
S1133BB0C701B6010E9410362B013C01F101EC59FA
S1133BC0FF4F608371838283938320E030E0A901F7
S1133BD0C701B6010E948738181644F5F101E4596B
S1133BE0FF4FFE83ED837897208131814281538199
S1133BF0C701B6010E9492384B015C01F101E85AF9
S1133C00FF4F2081318142815381C301B2010E945F
S1133C1092389B01AC01C501B4010E941036AD81FC
S1133C20BE816D937D938D939C93139720E030E038
S1133C30A901C701B6010E94D73687FF27C05101E9
S1133C40BCE6AB0EB11CF101EC5AFF4F208131816F
S1133C5042815381C701B6010E9492386B017C01F5
S1133C60F101E85AFF4F2081318142815381C30120
S1133C70B2010E9492389B01AC01C701B6010E94B7
S1133C801136F5016083718382839383F801808107
S1133C909181A281B381E981FA8180839183A28396
S1133CA0B3838DEC9CECACE4BEE3ED8DFE8D8083A0
S1133CB09183A283B3837FC1C301B2010E94873879
S1133CC018164CF520E030E0A901C701B6010E94A6
S1133CD0873818165CF480E090E0A0E8B0E4F101C5
S1133CE0E459FF4F80839183A283B38320E030E0C3
S1133CF0A901C701B6010E94D73687FF84C080E0BE
S1133D0090E0A0E8B0ECF101E459FF4F8083918387
S1133D10A283B38378C0A981BA812D913D914D913D
S1133D205C91C701B6010E94103669837A838B8344
S1133D309C83F101EC59FF4F6083718382839383E9
S1133D4020E030E0A901C701B6010E9487381816A7
S1133D5044F5810104591F4FF101EC5AFF4F2081B2
S1133D60318142815381C701B6010E9492382B01EF
S1133D703C01F101E85AFF4F208131814281538196
S1133D8069817A818B819C810E9492389B01AC016C
S1133D90C301B2010E941036F801608371838283EB
S1133DA0938320E030E0A901C701B6010E94D73611
S1133DB087FF29C0810104591F4FF101EC5AFF4FBD
S1133DC02081318142815381C701B6010E9492381A
S1133DD02B013C01F101E85AFF4F208131814281DE
S1133DE0538169817A818B819C810E9492389B01E5
S1133DF0AC01C301B2010E941136D8016D937D93C9
S1133E008D939C931397F101E859FF4FC082D1829F
S1133E10E282F382389680E090E0A0E8BFE38083FA
S1133E209183A283B38364E07CE08EE390E10E94FB
S1133E30033E22E030E049895A896B897C898EE30C
S1133E4090E10E94CC3F61E07CE08EE390E10E942F
S1133E50033E22E030E04D895E896F89788D8EE3E0
S1133E6090E10E94CC3F61E07CE08EE390E10E940F
S1133E70033E22E030E0498D5A8D6B8D7C8D8EE3BC
S1133E8090E10E94CC3F61E07CE08EE390E10E94EF
S1133E90033E63E07CE08EE390E10E94033E22E077
S1133EA030E0B501A4018EE390E10E94CC3F61E0D3
S1133EB07CE08EE390E10E94033E22E030E04CA9D6
S1133EC05DA96EA97FA98EE390E10E94CC3F61E0D9
S1133ED07CE08EE390E10E94033E69E07CE08EE3A7
S1133EE090E10E94033E22E030E04D855E856F85BF
S1133EF078898EE390E10E94CC3F63E17CE08EE31D
S1133F0090E10E94033E22E030E04D815E816F81AA
S1133F1078858EE390E10E94CC3F67E17CE08EE3FC
S1133F2090E10E94033E22E030E049855A856B858A
S1133F307C858EE390E10E94CC3F6BE17CE08EE3D4
S1133F4090E10E94033EF101E45AFF4F4081518108
S1133F506281738122E030E08EE390E10E94CC3FE5
S1133F6069E27CE08EE390E10E94033EF101E05AB5
S1133F70FF4F408151816281738122E030E08EE302
S1133F8090E10E94CC3F65E37CE08EE390E10E94E7
S1133F90033EF101E459FF4F4081518162817381F5
S1133FA022E030E08EE390E10E94CC3F8EE390E18A
S1133FB00E940B3E80E06E960FB6F894DEBF0FBEF3
S1133FC0CDBFDF91CF911F910F91FF90EF90DF90C4
S1133FD0CF90BF90AF909F908F907F906F905F90A5
S1133FE04F903F902F9008952F923F924F925F925F
S1133FF06F927F928F929F92AF92BF92CF92DF92F5
S1134000EF92FF920F931F93CF93DF93CDB7DEB759
S11340102C970FB6F894DEBF0FBECDBF9C878B875D
S113402049835A836B837C830D831E832F83388754
S11340308A019B014D815E816F8178857BDC6B01F8
S11340407C012B843C8420E6220E311CF101608328
S11340507183828393834B015C01E894B7F820E079
S113406030E040EA50E4C501B4010E94D73687FD30
S113407020C120E030E040EF51E4C501B4010E94CA
S113408087380B851C8504591F4F2B853C8528597F
S11340903F4F3A87298718162CF520E030E0A90114
S11340A0C701B6010E94873818164CF480E090E0EE
S11340B0A0E0B0E4F80180839183A283B38320E07D
S11340C030E0A901C701B6010E94D73687FF7EC040
S11340D080E090E0A0E0B0ECF80180839183A283BB
S11340E0B38374C0E985FA8520813181428153818B
S11340F0C701B6010E9410364B015C01EB85FC85BB
S1134100EC59FF4F608371838283938320E030E016
S1134110A901C701B6010E94873818162CF5EB8552
S1134120FC85EC5AFF4F2081318142815381C701C4
S1134130B6010E9492382B013C01EB85FC85E85ABC
S1134140FF4F2081318142815381C501B4010E9416
S113415092389B01AC01C301B2010E941036F801F0
S1134160608371838283938320E030E0A901C701D7
S1134170B6010E94D73687FF29C00B851C850459D8
S11341801F4FEB85FC85EC5AFF4F20813181428122
S11341905381C701B6010E9492382B013C01EB8583
S11341A0FC85E85AFF4F2081318142815381C5014A
S11341B0B4010E9492389B01AC01C301B2010E9478
S11341C01136F8016083718382839383E985FA85CC
S11341D0C082D182E282F382EB85FC85E059FF4FF5
S11341E0108211821282138222E030E049815A81C6
S11341F06B817C818EE390E10E94CC3F61E07CE0A6
S11342008EE390E10E94033E64E47CE08EE390E15F
S11342100E94033E22E030E04D815E816F8178850B
S11342208EE390E10E94CC3F61E07CE08EE390E17C
S11342300E94033E6BE17CE08EE390E10E94033E2A
S1134240EB85FC85E45AFF4F408151816281738183
S113425022E030E08EE390E10E94CC3F69E27CE012
S11342608EE390E10E94033EF1014081518162811D
S1134270738122E030E08EE390E10E94CC3F65E35D
S11342807CE08EE390E10E94033EEB85FC85E459DB
S1134290FF4F408151816281738122E030E08EE3DF
S11342A090E10E94CC3F8EE390E10E940B3E80E0BF
S11342B001C081E02C960FB6F894DEBF0FBECDBFCF
S11342C0DF91CF911F910F91FF90EF90DF90CF90EE
S11342D0BF90AF909F908F907F906F905F904F9022
S11342E03F902F9008958FEB9DE0CBC9FC0181E0B6
S11342F046895789208D318D4217530709F480E090
S11343000895FC01208D318D868997898227932712
S11343106823792381E0672B09F480E00895DC01A8
S11343205896ED91FC915997AF01409550954623CD
S1134330572391E0452B09F490E056962D913C913A
S113434057972E273F276223732381E0672B09F4B5
S113435080E089230895DC015696ED91FC915797EE
S1134360AF01409550954623572391E0452B09F41E
S113437090E058962D913C9159972E273F27622320
S1134380732381E0672B09F480E089230895FC01FD
S1134390808D918D809590956823792381E0672B9A
S11343A009F480E00895860F911DFC018081089531
S11343B0FC0183A5833031F0813031F08C3031F051
S11343C080E0089581E0089582E0089583E00895EF
S11343D0DC019FB7F8945B96ED91FC915C9720818A
S11343E05A968C91822B80839FBF0895DC019FB7DE
S11343F0F8945E96ED91FC915F9720815D968C9187
S1134400822B80839FBF08958F929F92AF92BF9219
S1134410CF92DF92EF92FF920F931F93CF93DF938C
S1134420EC0100E010E0F12CC62ED12C812C912C53
S113443054018394E02EC601002E02C09595879501
S11344400A94E2F780FF03C0CE01D0DF0AC02FB781
S1134450F894EE8DFF8D90818D8D809589238083D6
S11344602FBF2FB7F894EB8DFC8D90818A8D8095AA
S1134470892380832FBF84E090E00E945D42ECA1F9
S1134480FDA190818BA1892351F0D501C40104C001
S1134490880F991FAA1FBB1FEA94D2F7F82ACE01EE
S11344A097DF0F5F1F4F0830110509F0C3CFCE010E
S11344B09DDF83E090E00E945D428F2DDF91CF91DC
S11344C01F910F91FF90EF90DF90CF90BF90AF902E
S11344D09F908F900895DC019FB7F8949196ED9189
S11344E0FC919297208190968C91822B80839FBF20
S11344F00895DC012FB7F8949196ED91FC91929771
S1134500908190968C918095892380832FBF089504
S1134510CF92DF92EF92FF920F931F93CF93DF938B
S1134520EC016B01042FE5DF760110E0C7018C1963
S11345309D098017910734F4F70161917F01CE0141
S113454063DFF4CFCE01C7DF6AA570E080E090E0BE
S1134550DF91CF911F910F91FF90EF90DF90CF905B
S11345600C942442CF93DF93EC0145E068E376E0BA
S1134570CFDF49E06FE276E0CE01CADF8CA5882365
S113458029F045E068E176E0CE01C2DF8DA58823FD
S113459029F049E066E276E0CE01BADF49E06DE158
S11345A076E0CE01DF91CF91B3CF2F923F924F921D
S11345B05F926F927F928F929F92AF92BF92CF92AF
S11345C0DF92EF92FF920F931F93CF93DF93CDB7B8
S11345D0DEB729970FB6F894DEBF0FBECDBF4C01EE
S11345E0762E142F0E94F341F401C6A0D7A0E0A4B4
S11345F0F1A46C197D098E099F090E9477376B011C
S11346007C0120E030E84BEB54E40E948738181614
S113461014F4C401A7DFF40162A570E080E090E027
S11346200E9479371B012C019B01AC01C701B60123
S11346300E94D73687FF0AC0A7019601C201B101C3
S11346400E9410360E944B370E9424421123E1F04D
S1134650612F70E080E090E01F921F921F922FEF75
S11346602F9320E4A22EB12CC12CD12CE12CF12CBF
S11346708701EA9420E030E0A9010E94B243162F9A
S11346800F900F900F900F90CE0101967C0189E05E
S1134690F70111928A95E9F781E0898382E48A839C
S11346A07C821D8385E0382E8E01065F1F4F6401D6
S11346B0F9E0CF0ED11C540185E1A80EB11CC40150
S11346C095DEC40185DEC40114DF83E090E00E941E
S11346D05D4227013401F20161912F01C40194DE8E
S11346E0F30181933F0140165106A9F7F40181813A
S11346F0893741F0C401EFDEF4018181807F803786
S113470061F417C0360160E0C4017EDEF3018193D9
S11347103F01EA15FB05B9F7EDCFC40123DFF4012E
S113472062A570E080E090E00E9424423A94311047
S1134730C6CFF4018181807F803731F0F40182A5F6
S11347408A3010F48F5F82A7F401808D918D978B4E
S1134750868B83819481918F808F0E94F341F40131
S113476066A377A380A791A79181907F81E090377A
S113477009F080E029960FB6F894DEBF0FBECDBFD6
S1134780DF91CF911F910F91FF90EF90DF90CF9029
S1134790BF90AF909F908F907F906F905F904F905D
S11347A03F902F90089540E060E0FFCE6F927F929B
S11347B08F929F92AF92BF92CF92EF92FF920F93FC
S11347C01F93CF93DF93CDB7DEB72B970FB6F89433
S11347D0DEBF0FBECDBF5C01862F70E0FB01E65D3E
S11347E0F84FE491D5015A96EC935A97FB01E0599E
S11347F0F84FE491F0E0EE0FFF1FE053F84F65919E
S11348007491F501748F638F642F70E0FB01E65D92
S1134810F84FE4915D96EC935D97FB01E059F84FF6
S1134820E491F0E0EE0FFF1FE053F84F65917491AF
S1134830F501778F668F622F70E0FB01E65DF84F1C
S1134840E4919096EC93FB01E059F84FE491F0E089
S1134850EE0FFF1FE053F84F65917491F50172A3B9
S113486061A3A02FB0E0FD01E65DF84F9491F5013E
S113487093A3FD01E059F84FE491F0E0EE0FFF1F20
S1134880EA54F84F65917491D50195967C936E9393
S1134890949761E02A874B870E941F4361E02A8531
S11348A0822F0E941F4361E04B85842F0E941F4387
S11348B060E0802F0E941F4361E0802F0E945B43D1
S11348C0C50194DDC50184DDC5016DDFC5016BDF64
S11348D0F50181818134D9F08337C9F08937B9F082
S11348E068E47CE08EE390E10E940E3E6BE77CE09E
S11348F08EE390E10E94033E40E150E0D501119621
S11349006C918EE390E10E94DE3E81E07EC081E006
S1134910F50182A78BE0882E912CFF24F39445E0C7
S113492068E376E0C501F4DD83E090E00E945D4237
S1134930C5015CDDC5014CDDC501DBDD83E090E034
S11349400E945D4204ED1CE0CE0101963C01D801B9
S11349506D918D01C50158DDF30181933F01FCE0A8
S11349600D3D1F07A1F7C501B6DD8C81D5019B96CE
S11349708C9349E06FE276E0C501CADDCC2039F0C2
S113498045E068E176E0C501C3DDF501F4A6EE205B
S113499041F049E066E276E0C501BADDD5019D96B5
S11349A0FC9249E06DE176E0C501B2DDC501FBDEB4
S11349B0F5018181EE2021F0893731F1833711F13E
S11349C0833711F1F1E08F1A9108B9F461EA7CE0C0
S11349D08EE390E10E940E3E63EC7CE08EE390E176
S11349E00E94033E40E150E0D50111966C918EE3A4
S11349F090E10E94DE3E82E008C0F50182A58F5F4F
S1134A0082A78DCF83E001C080E02B960FB6F89487
S1134A10DEBF0FBECDBFDF91CF911F910F91FF90ED
S1134A20EF90CF90BF90AF909F908F907F906F90BA
S1134A300895FC011082118212821382148215825D
S1134A40168217821086118612861386148615869E
S1134A5016861786108A118A128A138A148A158A6E
S1134A60168A178A108E118E128E138E148E158E3E
S1134A70168E178E10A211A212A213A28FEF84A376
S1134A8085A316A217A280A780E881A712A613A661
S1134A9084E684A715A608951F93CF93DF93EC01B2
S1134AA083EE9FE00E94133449E050E068E070E038
S1134AB083EE9FE00E94AC3411E083EE9FE00E94FD
S1134AC04A33892B09F467C083EE9FE00E94523376
S1134AD0898383EE9FE00E9452338A8383EE9FE0B2
S1134AE00E9452338B8383EE9FE00E9452338C8367
S1134AF083EE9FE00E9452338D8383EE9FE00E94F9
S1134B0052338E8383EE9FE00E9452338F8383EE71
S1134B109FE00E945233888783EE9FE00E945233C5
S1134B2089A3698170E0762F66278A81682B072E16
S1134B30000C880B990B0E94793769877A878B87D9
S1134B409C876B8170E0762F66278C81682B072EFB
S1134B50000C880B990B0E9479376D877E878F87AD
S1134B60988B6D8170E0762F66278E81682B072ED7
S1134B70000C880B990B0E947937698B7A8B8B8B8D
S1134B809C8B8F81811105C08885811102C0188397
S1134B9094CF188292CFDF91CF911F9108954F92B5
S1134BA05F926F927F928F929F92AF92BF92CF92B9
S1134BB0DF92EF92FF92CF93DF93CDB7DEB72897C2
S1134BC00FB6F894DEBF0FBECDBF6091610F709138
S1134BD0620F8091630F9091640F0E94793721EEE8
S1134BE03AE744E95FE30E94923820E030E040E095
S1134BF05BE30E9492382BED3FE049E450E40E94CD
S1134C00923820E030E048E152E40E949238609308
S1134C10550F7093560F8093570F9093580F10921F
S1134C20610F1092620F1092630F1092640F6091E3
S1134C305D0F70915E0F80915F0F9091600F0E94E5
S1134C40793721EE3AE744E95FE30E94923820E0A5
S1134C5030E040E05BE30E9492382BED3FE049E412
S1134C6050E40E94923820E030E048E152E40E948F
S1134C7092384B015C016093510F7093520F8093F3
S1134C80530F9093540F10925D0F10925E0F109279
S1134C905F0F1092600F6091590F70915A0F8091BD
S1134CA05B0F90915C0F0E94793721EE3AE744E95B
S1134CB05FE30E94923820E030E040E05BE30E9432
S1134CC092382BED3FE049E450E40E94923820E012
S1134CD030E048E152E40E9492382B013C01609399
S1134CE04D0F70934E0F80934F0F9093500F10926F
S1134CF0590F10925A0F10925B0F10925C0F20E024
S1134D0030E044E353E46091480D7091490D809183
S1134D104A0D90914B0D0E94DE362BED3FE049E4A5
S1134D2050E40E9492386B017C016093410F7093B0
S1134D30420F8093430F9093440FA3019201C50146
S1134D40B4010E94103620E030E040E05FE30E94AE
S1134D5092382B013C01C0923D0FD0923E0FE0925D
S1134D603F0FF092400FC701B6010E94DB366D83FE
S1134D707E838F839887C701B6010E9441394B0116
S1134D805C0120E030E0A9016D817E818F819885EE
S1134D900E94923869837A838B839C83A501940152
S1134DA0C301B2010E9492389B01AC0169817A81EE
S1134DB08B819C810E9411362091490F30914A0FBA
S1134DC040914B0F50914C0F0E94113669837A83A6
S1134DD08B839C836093490F70934A0F80934B0F8E
S1134DE090934C0F2D813E814F815885C301B201B0
S1134DF00E9492382B013C0120E030E0A901C5015A
S1134E00B4010E9492389B01AC01C301B2010E941B
S1134E1010362091450F3091460F4091470F509125
S1134E20480F0E9411366093450F7093460F80938C
S1134E30470F9093480F29813A814B815C812093DD
S1134E406D0F30936E0F40936F0F5093700F6093FC
S1134E50690F70936A0F80936B0F90936C0F2BED17
S1134E603FE049E450E4C701B6010E94DE3620E089
S1134E7030E044E353E40E9492386093650F7093EA
S1134E80660F8093670F9093680F28960FB6F89477
S1134E90DEBF0FBECDBFDF91CF91FF90EF90DF90CB
S1134EA0CF90BF90AF909F908F907F906F905F90C6
S1134EB04F900895EEEDFEE0918D81E08927818F7A
S1134EC088E49DE00E94C60F68EC70E080E090E00A
S1134ED00C94244284E00E948A434091610F5091D3
S1134EE0620F6091630F7091640F019729F4415030
S1134EF051096109710904C04F5F5F4F6F4F7F4FC4
S1134F004093610F5093620F6093630F7093640F2B
S1134F10089585E00E948A4340915D0F50915E0F91
S1134F2060915F0F7091600F019729F44F5F5F4F9D
S1134F306F4F7F4F04C0415051096109710940937B
S1134F405D0F50935E0F60935F0F7093600F089531
S1134F5086E00E948A434091590F50915A0F609104
S1134F605B0F70915C0F019729F44F5F5F4F6F4F98
S1134F707F4F04C041505109610971094093590F91
S1134F8050935A0F60935B0F70935C0F08958F9248
S1134F909F92AF92BF92CF92DF92EF92FF920F93C4
S1134FA01F938091F70E81111CC680913D108111D1
S1134FB043C28091410E9091420E892BA1F5C0907D
S1134FC0650FD090660FE090670FF090680F009126
S1134FD0690F10916A0F20916B0F30916C0F409103
S1134FE06D0F50916E0F60916F0F7091700F84E48C
S1134FF08F938FEA8F931F921F92812C912C5401CF
S11350008FEB9DE00E94D71C0F900F900F900F9094
S1135010882349F08091410E9091420E019690931D
S1135020420E8093410E8091410E9091420E019761
S1135030D9F44091650F5091660F6091670F70919C
S1135040680F00E010E024EB32E48FEB9DE00E9457
S1135050F41F882349F08091410E9091420E0196ED
S11350609093420E8093410E8091410E9091420E96
S11350700297B9F5C090650FD090660FE090670F66
S1135080F090680F0091690F10916A0F20916B0FD7
S113509030916C0F40916D0F50916E0F60916F0FB6
S11350A07091700F84E48F938FEA8F931F921F92F5
S11350B0812C912CE6E1AE2EE4E4BE2E8FEB9DE034
S11350C00E94D71C0F900F900F900F90882349F0E7
S11350D08091410E9091420E01969093420E8093DE
S11350E0410E8091410E9091420E0397D1F440916C
S11350F0650F5091660F6091670F7091680F00E023
S113510010E098018FEB9DE00E94F41F882349F082
S11351108091410E9091420E01969093420E80939D
S1135120410E8091410E9091420E0497B9F5C090C2
S1135130650FD090660FE090670FF090680F0091B4
S1135140690F10916A0F20916B0F30916C0F409191
S11351506D0F50916E0F60916F0F7091700F85E419
S11351608F938FE28F931F921F92812C912C96E143
S1135170A92E94E4B92E8FEB9DE00E94D71C0F90CA
S11351800F900F900F90882349F08091410E9091D9
S1135190420E01969093420E8093410E8091410EEF
S11351A09091420E0597D9F44091650F5091660F86
S11351B06091670F7091680F00E010E024EB32EC0F
S11351C08FEB9DE00E94F41F882349F08091410EEB
S11351D09091420E01969093420E8093410E8091DD
S11351E0410E9091420E0697B9F5C090650FD0908C
S11351F0660FE090670FF090680F0091690F1091AF
S11352006A0F20916B0F30916C0F40916D0F50918C
S11352106E0F60916F0F7091700F85E48F938FE222
S11352208F931F921F92812C912C86E1A82E84ECDF
S1135230B82E8FEB9DE00E94D71C0F900F900F901B
S11352400F90882349F08091410E9091420E01966F
S11352509093420E8093410E8091410E9091420EA4
S11352600797D9F44091650F5091660F6091670FCD
S11352707091680F00E010E023E333EC8FEB9DE0C6
S11352800E94F41F882349F08091410E9091420EB0
S113529001969093420E8093410E8091410E90911D
S11352A0420E0897B9F5C090650FD090660FE09054
S11352B0670FF090680F0091690F10916A0F2091A9
S11352C06B0F30916C0F40916D0F50916E0F609188
S11352D06F0F7091700F84E48F938FEA8F931F92F6
S11352E01F92812C912CB6E1AB2EB4ECBB2E8FEB2C
S11352F09DE00E94D71C0F900F900F900F90882371
S113530049F08091410E9091420E01969093420E85
S11353108093410E8091410E9091420E0997D9F4E9
S11353204091650F5091660F6091670F7091680FFF
S113533000E010E024EB32E48FEB9DE00E94F41FC8
S1135340882349F08091410E9091420E01969093EA
S1135350420E8093410E8091410E9091420E0A9725
S1135360B9F5C090650FD090660FE090670FF0908C
S1135370680F0091690F10916A0F20916B0F3091A3
S11353806C0F40916D0F50916E0F60916F0F709183
S1135390700F84E48F938FEA8F931F921F92812C56
S11353A0912CA8ECAA2EA2ECBA2E8FEB9DE00E94C1
S11353B0D71C0F900F900F900F90882349F0809185
S11353C0410E9091420E01969093420E8093410EAD
S11353D08091410E9091420E0B97D9F44091650F44
S11353E05091660F6091670F7091680F00E010E0B4
S11353F023E333E48FEB9DE00E94F41F882349F0FC
S11354008091410E9091420E01969093420E8093AA
S1135410410E8091410E9091420E0C976CF081E008
S113542080933D101092420E1092410E6DED7CE07F
S11354308EE390E10E940E3E80913D10813009F090
S11354405BC080913F068130A9F580E090E0A0E840
S1135450BFEB80932F0E9093300EA093310EB09338
S1135460320E10922B0E10922C0E10922D0E1092C2
S11354702E0E8091490E8823E9F068EE73E080E0F7
S113548090E00E9424428091490E882399F0109262
S11354902F0E1092300E1092310E1092320E109286
S11354A02B0E10922C0E10922D0E10922E0E83E0C5
S11354B080933F0680913F068330F1F44091560E6D
S11354C05091570E6091580E7091590E4093490FA8
S11354D050934A0F60934B0F70934C0F40E050E091
S11354E06AEF74E44093450F5093460F6093470F5F
S11354F07093480F80933D1080913D10833049F59F
S11355008EE59DE00E949512C090650FD090660FC5
S1135510E090670FF090680F0091690F10916A0F87
S113552020916B0F30916C0F40916D0F50916E0F65
S113553060916F0F7091700F8EE59DE00E94B41220
S11355400E94F3417093610D6093600D84E0809339
S11355503D1080913D108430C1F40E94F3410091CC
S1135560600D1091610D012E000C220B330BDC0138
S1135570CB01801B910BA20BB30B81339547A10583
S1135580B10518F085E080933D1080913D10853081
S113559009F0F5C18091410E9091420E892BD9F406
S11355A04091650F5091660F6091670F7091680F7D
S11355B000E010E024EB32E48FEB9DE00E94F41F46
S11355C0882349F08091410E9091420E0196909368
S11355D0420E8093410E8091410E9091420E0197AC
S11355E0B9F5C090650FD090660FE090670FF0900A
S11355F0680F0091690F10916A0F20916B0F309121
S11356006C0F40916D0F50916E0F60916F0F709100
S1135610700F84E48F9381E98F931F921F92812CE2
S1135620912CFAE7AF2EF4E4BF2E8FEB9DE00E949D
S1135630D71C0F900F900F900F90882349F0809102
S1135640410E9091420E01969093420E8093410E2A
S11356508091410E9091420E0297D1F44091650FD2
S11356605091660F6091670F7091680F00E010E031
S113567098018FEB9DE00E94F41F882349F08091EC
S1135680410E9091420E01969093420E8093410EEA
S11356908091410E9091420E0397C1F5C090650F21
S11356A0D090660FE090670FF090680F0091690F3B
S11356B010916A0F20916B0F30916C0F40916D0F18
S11356C050916E0F60916F0F7091700F85E48F93FE
S11356D084E48F9380E48F931F92812C912CEAE7CA
S11356E0AE2EE4E4BE2E8FEB9DE00E94D71C0F90FB
S11356F00F900F900F90882349F08091410E909164
S1135700420E01969093420E8093410E8091410E79
S11357109091420E0497D9F44091650F5091660F11
S11357206091670F7091680F00E010E024EB32EC99
S11357308FEB9DE00E94F41F882349F08091410E75
S11357409091420E01969093420E8093410E809167
S1135750410E9091420E0597C1F5C090650FD0900F
S1135760660FE090670FF090680F0091690F109139
S11357706A0F20916B0F30916C0F40916D0F509117
S11357806E0F60916F0F7091700F85E48F9384E4B6
S11357908F9380E48F931F92812C912C9AE7A92EEA
S11357A094ECB92E8FEB9DE00E94D71C0F900F90C4
S11357B00F900F90882349F08091410E9091420EF2
S11357C001969093420E8093410E8091410E9091E8
S11357D0420E0697D9F44091650F5091660F60917F
S11357E0670F7091680F00E010E023E333EC8FEB58
S11357F09DE00E94F41F882349F08091410E90910E
S1135800420E01969093420E8093410E8091410E78
S11358109091420E0797B9F5C090650FD090660F2E
S1135820E090670FF090680F0091690F10916A0F74
S113583020916B0F30916C0F40916D0F50916E0F52
S113584060916F0F7091700F84E48F9381E98F934F
S11358501F921F92812C912C8AE7A82E84ECB82EDB
S11358608FEB9DE00E94D71C0F900F900F900F902C
S1135870882349F08091410E9091420E01969093B5
S1135880420E8093410E8091410E9091420E0897F2
S1135890D9F44091650F5091660F6091670F709134
S11358A0680F00E010E024EB32E48FEB9DE00E94EF
S11358B0F41F882349F08091410E9091420E019685
S11358C09093420E8093410E8091410E9091420E2E
S11358D00997A1F5C090650FD090660FE090670F0F
S11358E0F090680F0091690F10916A0F20916B0F6F
S11358F030916C0F40916D0F50916E0F60916F0F4E
S11359007091700F84E48F9381E98F931F921F929B
S1135910812C912C54018FEB9DE00E94D71C0F9099
S11359200F900F900F90882349F08091410E909131
S1135930420E01969093420E8093410E8091410E47
S11359409091420E0A97D9F44091650F5091660FD9
S11359506091670F7091680F00E010E024EB32E46F
S11359608FEB9DE00E94F41F882349F08091410E43
S11359709091420E01969093420E8093410E809135
S11359803D108630C9F580913F068130A9F580E04D
S113599090E0A0E8BFEB80932F0E9093300EA0937D
S11359A0310EB093320E10922B0E10922C0E1092D8
S11359B02D0E10922E0E8091490E8823E9F06CE290
S11359C071E080E090E00E9424428091490E882397
S11359D099F010922F0E1092300E1092310E1092F8
S11359E0320E10922B0E10922C0E10922D0E10923D
S11359F02E0E83E080933F0680913D10893009F09C
S1135A0047C080E090E0A0E8BFE380932F0E90931E
S1135A10300EA093310EB093320E80E090E0A0E0FF
S1135A20BFEB80932B0E90932C0EA0932D0EB0936E
S1135A302E0E80916A0E882359F120E030E84BEB5A
S1135A4054E460915A0E70915B0E80915C0E9091BB
S1135A505D0E0E94873887FD1BC08BE080933D104C
S1135A604091650F5091660F6091670F7091680FB8
S1135A7000E010E024E333E48FEB9DE00E949A1CE5
S1135A806093391070933A1080933B1090933C10BC
S1135A9080913D108B30A9F580E090E0A0E8BFEB49
S1135AA080932F0E9093300EA093310EB093320E4C
S1135AB010922B0E10922C0E10922D0E10922E0E70
S1135AC08091490E8823E9F06CE271E080E090E077
S1135AD00E9424428091490E882399F010922F0E3F
S1135AE01092300E1092310E1092320E10922B0E34
S1135AF010922C0E10922D0E10922E0E8CE080938C
S1135B003D1080913D108C30F9F48091560E9091A7
S1135B10570EA091580EB091590E8093490F90934F
S1135B204A0FA0934B0FB0934C0F80E090E0AAEF84
S1135B30B4E48093450F9093460FA093470FB0931E
S1135B40480F8DE080933D1080913D108D3049F5D4
S1135B508EE59DE00E949512C090650FD090660F6F
S1135B60E090670FF090680F0091690F10916A0F31
S1135B7020916B0F30916C0F40916D0F50916E0F0F
S1135B8060916F0F7091700F8EE59DE00E94B412CA
S1135B900E94F3417093610D6093600D84E08093E3
S1135BA03D1080912F0E9091300EA091310EB09146
S1135BB0320E80933D0E90933E0EA0933F0EB09311
S1135BC0400E80912B0E90912C0EA0912D0EB09131
S1135BD02E0E8093350E9093360EA093370EB0930D
S1135BE0380E1F910F91FF90EF90DF90CF90BF90F0
S1135BF0AF909F908F90089562E083E10E941F43CD
S1135C0062E082E00E941F4362E083E00E941F433F
S1135C1062E084E00E941F4362E085E00E941F432B
S1135C2062E086E00E941F4342E050E06AE677E2C9
S1135C3084E00E94DE3F42E050E069E877E280E0E1
S1135C400E94DE3F42E050E068EA77E281E00C9493
S1135C50DE3FCF93DF9300D000D0CDB7DEB726E090
S1135C6040E052EC61E070E08EE390E10E94923BF0
S1135C7040E052EC61E070E084E09FE00E94241276
S1135C8085E09FE00E94A11387E79EE00E94AB118C
S1135C90B3DF60E777E0CE0101960E94584442E307
S1135CA050E0BE016F5F7F4F82ED9EE018D7CE01BA
S1135CB001960E94F1436FEC75E282ED9EE07ED77F
S1135CC060E777E0CE0101960E94584444E650E034
S1135CD0BE016F5F7F4F86EC9EE00E945C18CE0190
S1135CE001960E94F14367EC77E286EC9EE00E9405
