S0150000736B657463685F6665623033612E737265633D
S1130000F1C300000C941E2D0C94492D0C94742DF6
S11300100C949F2D0C94CA2D0C94F52D0C94202E29
S11300200C944B2E10C400000EC400000CC400003D
S11300300AC4000008C4000006C4000004C4000090
S113004002C400000C942823FEC30000FCC300007B
S1130050FAC30000F8C30000F6C300000C94762E27
S1130060F2C300000C94DA280C941029ECC30000AD
S1130070EAC30000E8C30000E6C30000E4C30000D4
S1130080E2C30000E0C30000DEC30000DCC30000E4
S1130090DAC30000D8C30000D6C300000C94E41FE8
S11300A0D2C30000D0C30000CEC30000CCC3000004
S11300B0CAC30000C8C30000C6C30000C4C3000014
S11300C0C2C30000C0C30000BEC300000C946F296B
S11300D00C94A529B8C300000C94042A0C943A2A61
S11300E0B2C3000005A84CCDB2D44EB93836A9022B
S11300F00C50B9918688083CA6AAAA2ABE00000022
S1130100803F07634236B79BD8A71A39685618AEA2
S1130110BAAB558C1D3CB7CC5763BD6DEDFD753E38
S1130120F6177231BF000000803F08000000BE9245
S11301302449123EABAAAA2ABECDCCCC4C3E000028
S11301400080BEABAAAAAA3E00000000BF000000C7
S1130150803F0000000000084178D3BB4387D113DF
S11301603D190E3CC3BD4282AD2B3E68EC8276BE87
S1130170D98FE1A93E4C80EFFFBE01C4FF7F3F0051
S113018000000000F82CC22CCA2CD62CE32C042D21
S1130190112DB12FB42FA32FA72FAD2FEB2FB82FD5
S11301A0BC2FC22FC62FCA2FD02FD42FD82FEB2F5E
S11301B0DE2FE22FE62F00000000003E5B4F5B3E87
S11301C03E6B4F6B3E1C3E7C3E1C183C7E3C181C18
S11301D0577D571C1C5E7F5E1C00183C1800FFE70F
S11301E0C3E7FF0018241800FFE7DBE7FF30483AB5
S11301F0060E2629792926407F050507407F052517
S11302003F5A3CE73C5A7F3E1C1C08081C1C3E7F9E
S113021014227F22145F5F005F5F06097F017F0065
S11302206689956A606060606094A2FFA294080485
S11302307E040810207E201008082A1C08081C2AA6
S113024008081E101010100C1E0C1E0C30383E38FE
S113025030060E3E0E06000000000000005F0000A5
S11302600007000700147F147F14242A7F2A122316
S11302701308646236495620500008070300001C26
S11302802241000041221C002A1C7F1C2A08083E2F
S11302900808008070300008080808080000606042
S11302A00020100804023E5149453E00427F4000B0
S11302B072494949462141494D331814127F102788
S11302C0454545393C4A49493141211109073649D7
S11302D0494936464949291E0000140000004034AB
S11302E000000008142241141414141400412214B0
S11302F00802015909063E415D594E7C1211127CD7
S11303007F494949363E414141227F4141413E7F37
S1130310494949417F090909013E414151737F0817
S113032008087F00417F41002040413F017F0814BD
S113033022417F404040407F021C027F7F0408101E
S11303407F3E4141413E7F090909063E4151215EFC
S11303507F09192946264949493203017F01033F90
S11303604040403F1F2040201F3F4038403F63141F
S113037008146303047804036159494D43007F4121
S113038041410204081020004141417F040201025E
S11303900440404040400003070800205454784083
S11303A07F284444383844444428384444287F3817
S11303B05454541800087E090218A4A49C787F0899
S11303C004047800447D40002040403D007F102814
S11303D0440000417F40007C047804787C080404D5
S11303E0783844444438FC1824241818242418FC6D
S11303F07C08040408485454542404043F44243C12
S11304004040207C1C2040201C3C4030403C442880
S11304101028444C9090907C4464544C440008361A
S11304204100000077000000413608000201020488
S1130430023C2623263C1EA1A161123A4040207AA8
S113044038545455592155557941225454784221F0
S11304505554784020545579400C1E527212395527
S11304605555593954545459395554545800004524
S11304707C410002457D420001457C407D12111201
S11304807DF0282528F07C545545002054547C5494
S11304907C0A097F4932494949323A4444443A3250
S11304A04A4848303A4141217A3A42402078009DF6
S11304B0A0A07D3D4242423D3D4040403D3C24FFA2
S11304C02424487E4943662B2FFC2F2BFF0929F651
S11304D020C0887E090320545479410000447D41A2
S11304E03048484A32384040227A007A0A0A727DFB
S11304F00D19317D2629292F282629292926304816
S11305004D4020380808080808080808382F10C883
S1130510ACBA2F102834FA00007B000008142A1407
S11305202222142A14085500550055AA55AA55AA82
S1130530FF55FF55FF000000FF00101010FF0014CE
S11305401414FF001010FF00FF1010F010F014142A
S113055014FC001414F700FF0000FF00FF1414F44F
S113056004FC141417101F10101F101F1414141F50
S113057000101010F0000000001F101010101F10C9
S1130580101010F010000000FF10101010101010C8
S11305901010FF10000000FF140000FF00FF000017
S11305A01F10170000FC04F414141710171414F48B
S11305B004F40000FF00F714141414141414F700C6
S11305C0F7141414171410101F101F141414F41417
S11305D01010F010F000001F101F0000001F140086
S11305E00000FC140000F010F01010FF10FF1414B1
S11305F014FF141010101F00000000F010FFFFFF84
S1130600FFFFF0F0F0F0F0FFFFFF0000000000FF3C
S1130610FF0F0F0F0F0F3844443844FC4A4A4A3442
S11306207E02020606027E027E0263554941633859
S113063044443C04407E201E2006027E020299A50A
S1130640E7A5991C2A492A1C4C7201724C304A4D68
S11306504D303048784830BC625A463D3E4949499D
S1130660007E0101017E2A2A2A2A2A44445F444446
S113067040514A444040444A51400000FF0103E0D5
S113068080FF000008086B6B083612362436060F0C
S1130690090F06000018180000001010003040FF79
S11306A00101001F01011E00191D1712003C3C3CF2
S11306B03C000000000000000A0B02090C0D0E08AB
S11306C00703040100000000000000000000000017
S11306D00000000000000000000000000000000016
S11306E000001211100000000000000000000000D3
S11306F000000000000000000000000001021020C3
S11307002008081020401020408002010201080443
S113071002010102040810204080804020100804D7
S11307200201800402018040201008040201080430
S11307300201010204081020408001020408102074
S1130740408005050505070508080808020202029D
S11307500A0A080804040404010101010101010159
S11307600303030303030303040707070C0C0C0C24
S11307700C0C0C0C0202020206060606060606060D
S11307800B0B0B0B0B0B0B0B0000200023002600A4
S113079029002C002F003200000100000301060193
S11307A0090100002200250028002B002E00310042
S11307B0340002010000050108010B0100002100C2
S11307C0240027002A002D0030003300010100001E
S11307D0040107010A01C4136D1E35224229D729D9
S11307E06C2AAB1E11241FBECFEFD1E2DEBFCDBFFA
S11307F000E00CBF1AE0A0E0B2E0E4E1FBE600E0B8
S11308000BBF02C007900D92AA39B107D9F72EE0A9
S1130810AAE9BAE001C01D92AA37B207E1F713E0D2
S1130820C1EFD3E000E006C021970109802FFE014B
S11308300E94C732CB3ED10780E00807A9F70E9487
S11308409A2A0C947935DCCB80E090E008950895E1
S11308502F923F924F925F926F927F928F929F92CC
S1130860AF92BF92CF92DF92EF92FF920F931F93BA
S1130870CF93DF9300D0CDB7DEB74C017B836A837F
S11308806A01590117019801241B350B37FF03C076
S1130890319521953109C5014A815B81841B950BF2
S11308A097FF03C091958195910951E0598382176F
S11308B0930714F019820BC09A2D8B2D5801092F20
S11308C0182F9A818B81DB82CA82C92ED82E8A8105
S11308D09B81A816B9065CF49C2D8D2D6801092F07
S11308E0182F9A818B81BB82AA82A92EB82E25014A
S11308F0AA81BB814A1A5B0A38016C187D0877FE0D
S113090003C0719461947108720157FE03C0BFEF74
S1130910EB1AFB0AF594E794C016D1061CF00FEF0E
S11309201FEF1FC001E010E01CC0D401ED91FC9149
S1130930B9810484F585E02D9101BB23C1F04A817E
S11309405B81B601C4011995E618F708F7FE04C0E7
S1130950C00ED11EE40CF51CEA81FB813196FB83A9
S1130960EA834A815B81A416B506FCF604C0A6019D
S11309706A817B81E7CF0F900F900F90DF91CF9129
S11309801F910F91FF90EF90DF90CF90BF90AF90A9
S11309909F908F907F906F905F904F903F902F909B
S11309A008950895DC01ED91FC910084F185E02D1A
S11309B019940F931F93DC01ED91FC91048CF58D38
S11309C0E02D19951F910F9108950F931F93DC014A
S11309D0ED91FC91068CF78DE02D19951F910F91E7
S11309E00895EF92FF920F931F93DC01ED91FC9118
S11309F000A0F1A1E02D19951F910F91FF90EF90A8
S1130A0008950895AF92BF92CF92DF92EF92FF9232
S1130A100F931F93CF93DF9300D01F92CDB7DEB710
S1130A205C016901DC01ED91FC910284F385E02D08
S1130A304B835C8369837A831995D501ED91FC918D
S1130A404B815C81C40ED51EB1E0CB1AD108048859
S1130A50F589E02D7801860169817A819B01C501C0
S1130A601995D501ED91FC910688F789E02DC50112
S1130A700F900F900F900F90DF91CF911F910F91D6
S1130A80FF90EF90DF90CF90BF90AF901994AF920A
S1130A90BF92CF92DF92EF92FF920F931F93CF9367
S1130AA0DF9300D01F92CDB7DEB75C016901DC0192
S1130AB0ED91FC910284F385E02D4B835C83698383
S1130AC07A831995D501ED91FC9169817A819B0115
S1130AD02C0D3D1D215031090488F589E02D780144
S1130AE04B815C818A01C5011995D501ED91FC9179
S1130AF00688F789E02DC5010F900F900F900F9095
S1130B00DF91CF911F910F91FF90EF90DF90CF90E5
S1130B10BF90AF9019944F925F926F927F928F9291
S1130B209F92AF92BF92CF92DF92EF92FF920F9378
S1130B301F93CF93DF931F921F92CDB7DEB76C0143
S1130B405A0139014801DC01ED91FC910284F385DD
S1130B50E02D69837A8319956981462E7A81572E0F
S1130B60640C751CD601ED91FC91461457046CF489
S1130B700088F189E02D87019401A501B201C60125
S1130B801995BFEF4B1A5B0AEDCF0688F789E02D64
S1130B90C6010F900F90DF91CF911F910F91FF909D
S1130BA0EF90DF90CF90BF90AF909F908F907F9009
S1130BB06F905F904F901994EF92FF920F931F9351
S1130BC0DC01ED91FC9111971A960D911C911B97E4
S1130BD018962D913C91199700A0F1A1E02D7B016D
S1130BE040E050E060E070E019951F910F91FF9094
S1130BF0EF900895CF92DF92EF92FF920F931F939D
S1130C00CF93DF9300D000D0CDB7DEB76C01DC0109
S1130C10ED91FC916217730789F4041715072CF4FE
S1130C20942F852FA801092F182F041B150B980149
S1130C302F5F3F4F048CF58DE02D12C040175107F4
S1130C4009F5261737072CF4962F872FB901292F7A
S1130C50382F261B370B2F5F3F4F068CF78DE02D67
S1130C608701C601199526960FB6F894DEBF0FBE0C
S1130C70CDBFDF91CF911F910F91FF90EF90DF9047
S1130C80CF9008950284F385E02D2D833E834B831A
S1130C905C8369837A831995D601ED91FC9104886C
S1130CA0F589E02D2D813E814B815C8169817A81BA
S1130CB0C6011995D601ED91FC910688F789E02DBE
S1130CC0C60126960FB6F894DEBF0FBECDBFDF91E6
S1130CD0CF911F910F91FF90EF90DF90CF901994D7
S1130CE06F927F928F929F92AF92BF92CF92DF9238
S1130CF0EF92FF920F931F93CF93DF93EC014B017D
S1130D005A0169013801E881F9810284F385E02DF3
S1130D101995E881F9810288F389E02D870196010C
S1130D20A501B401CE011995E881F981A501460D0B
S1130D30571D415051090288F389E02D9601B401F1
S1130D40CE011995E881F9810088F189E02D93019C
S1130D50A501B401CE011995E881F981C80CD91C0B
S1130D60B601615071090088F189E02D9301A50154
S1130D70CE011995E881F9810688F789E02DCE0125
S1130D80DF91CF911F910F91FF90EF90DF90CF9063
S1130D90BF90AF909F908F907F906F90199408951B
S1130DA0FC016370658B8481958126813781613074
S1130DB039F0633029F0918780873387228708953B
S1130DC031872087938782870895FC0113821282DA
S1130DD08BE596E091838083758364835783468390
S1130DE07187608753874287158A1586148617860C
S1130DF0168681E0848B2FEF3FEF338B228B318B70
S1130E00208B868B178A118E108E08952F923F9215
S1130E104F925F926F927F928F929F92AF92BF9206
S1130E20CF92DF92EF92FF920F931F93CF93DF93B2
S1130E30CDB7DEB76C970FB6F894DEBF0FBECDBF4B
S1130E409C8F8B8F5B011A011F830E833701C9822C
S1130E50DC0158964D915C9159974115510509F063
S1130E60E5C018968D919C911997681779070CF035
S1130E70CAC11A968D919C911B97281639060CF0BD
S1130E80C2C18C2C912CFB0136E0C39EE00DF11DF8
S1130E901124FB87EA871E161F060CF0B4C1C40197
S1130EA033E0880F991F3A95E1F79D878C87820D6F
S1130EB0931D181619060CF0A6C157968C91811132
S1130EC003C0203B08F02F5FAB8DBC8DED91FC91EE
S1130ED011970284F385E02DCD012A8F19952A8D6F
S1130EE0B5E02B9F90011124F5013596FF87EE871D
S1130EF02501BB82AA82A9014A195B09598B488B37
S1130F00C10108969B8B8A8BE889F989E40DF51D4C
S1130F10EA54FE4F949198873D822C826101A88502
S1130F20A0FF13C0AB8DBC8DED91FC91B981B130A4
S1130F3031F40484F585E02D2E813F8116C00684AA
S1130F40F785E02DEE80FF801AC0EE81FF816E16DA
S1130F507F06F1F0AB8DBC8DED91FC91B981B13080
S1130F6051F40484F585E02D9301A601B2018B8D23
S1130F709C8D19950DC00684F785E02D73018401BD
S1130F8094014C815D816A817B818B8D9C8D199547
S1130F90E885E695E8872C813D81280D391D3D8340
S1130FA02C833FEFC31AD30A4A895B89C416D5063A
S1130FB009F0B5CF8A819B81880D991D9B838A8313
S1130FC09FEF491A590AAE85BF854A165B0609F098
S1130FD09BCFEE81FF816E167F0609F4F2C0EB8D84
S1130FE0FC8DA081B181F981F13079F4B5016B5F99
S1130FF07F4F5096ED91FC915197830128E030E0AA
S1131000A1018B8D9C8D1995DCC06A857B8568193F
S113101079091E96ED91FC911F9773010C851D852E
S11310209401A1018B8D9C8D1995CBC0FA01349646
S11310309491329765917491291BCB01B7E02B9F52
S1131040800D911D1124FA01259134913B8B2A8B3B
S1131050FC01459154915B834A83FC013296C49010
S1131060319654915C87329614913196D49089814B
S1131070823058F0612E012E000C7708AD2D0D2C16
S1131080000CBB0BB987A88704C019861886612C8D
S1131090712CAB8DBC8DED91FC9111970284F3857D
S11310A0E02DCD011995B9818B2E912C689CC0013E
S11310B0699C900D789C900D1124FC01EA0DFB1D98
S11310C0F98BE88B1C82712C612CE12F110FFF0B23
S11310D095012E0F3F1F3B872A87AC0CB11CA5013D
S11310E04E0F5F1F5F8B4E8BC1018D0D911DD7FC81
S11310F09A95998F888F4C85641608F062C0862D66
S113110090E048855985480F591F489D9001499D95
S1131110300D589D300D1124D901A20DB31DBF8788
S1131120AE87AA84BB8448885988DC80BA85DB1AD8
S1131130E88DF98DE80FF91FFD8BEC8B8D2D8A0D51
S11311402E893F89A216B306B9F1877061F48A81AA
S11311509B810196EA89FB89AA81BB81EA0FFB1F67
S113116074909B838A8377FE20C0AB8DBC8DED91F8
S1131170FC91B981B13061F40484F585E02D2E81B0
S11311803F814C895D89B5018B8D9C8D19950DC06E
S11311900684F785E02DEE80FF80840194014E855E
S11311A05F85B2018B8D9C8D1995770C480C591C69
S11311B0EFEFAE1ABE0AC2CF3C813C0D3C83639470
S11311C09ACFAB8DBC8DED91FC9111970688F78970
S11311D0E02DCD016C960FB6F894DEBF0FBECDBFE7
S11311E0DF91CF911F910F91FF90EF90DF90CF90FF
S11311F0BF90AF909F908F907F906F905F904F9033
S11312003F902F9019946C960FB6F894DEBF0FBEE2
S1131210CDBFDF91CF911F910F91FF90EF90DF90A1
S1131220CF90BF90AF909F908F907F906F905F9082
S11312304F903F902F900895AF92BF92CF92EF922C
S1131240FF920F931F93CF93DF93EC01262F888D8A
S1131250998D009709F03FC06A3059F41D861C86A9
S11312602C898E859F8538E0239F800D911D112444
S113127040C06D3009F4A8C08E898823C1F03C8930
S11312808C859D8546E0349F800D911D11244885F1
S11312905985481759075CF41D861C868E859F85E1
S11312A048E0349F800D911D11249F878E87EA8822
S11312B0FB88088919894E855F856C857D85CC8876
S11312C0CE01A4DD2C898C859D8536E0239F800D7D
S11312D0911D112442C06A3079F41D861C862C8924
S11312E0FC013696E4918E859F852E9F800D911D7D
S11312F011249F878E8768C06D3009F465C0FC0196
S113130034963491631708F45FC03196E491E6177C
S113131008F45AC0FC013296A590B490462F50E0D0
S1131320431B510937E0349FB001359F700D1124E0
S1131330A60EB71EF501329634913196E49133230B
S113134011F0E1110DC0F5013496E4912C898C85DE
S11313509D85E29F800D911D11249D878C8734C04B
S1131360F501359644915E89552311F16C89E32F7B
S1131370F0E0E40FF11D47FDFA956E9FD0016F9FD9
S1131380B00D11244C855D854A0F5B1FE885F985F6
S1131390E417F5076CF41D861C86FC013696E4916F
S11313A08E859F856E9F800D911D11249F878E874A
S11313B0EA88FB88088919894E855F856C857D8557
S11313C0CC88CE0123DDBFCF81E090E0DF91CF91C7
S11313D01F910F91FF90EF90CF90BF90AF90089521
S11313E0FC0175876487578746870895611101C09A
S11313F061E0FC01648B0895FC01738B628B718B3B
S1131400608B0895FC0185890895FC018085918590
S11314100895FC018285938508950F931F93CF93BC
S1131420DF93DC01FB0155968C915597823089F04E
S1131430833021F1813009F0E6C014968D919C919E
S11314401597BC01641B750BAB0141505109BF01D9
S11314501DC014966D917C911597CB018E1B9F0B2B
S1131460FC0116968D919C911797BC01641B750B1A
S1131470AB0141505109E21BF30BC5C016966D91A7
S11314807C9117976E1B7F0B621B730B57FD1AC160
S113149014968D919C911597481759070CF012C119
S11314A077FF04C0260F371F60E070E016968D9119
S11314B09C911797FB01E20FF31F8E179F071CF4F3
S11314C09C01261B370B121613060CF0FBC0A22F2F
S11314D0862F86958695869590E8899F400D511DA7
S11314E01124FA01EA5EFD4F6770A9F198E0961B9A
S11314F0492F50E0EA01C25FDD4F8881291790F43B
S1131500421B51092FEF30E002C0359527954A95CB
S1131510E2F782230130110541F068F00230110531
S113152089F0D0C00130110519F42081822B0CC040
S11315300130110520F480952081822305C00230FA
S1131540110531F4208182278083A91708F4BAC0D9
S1131550A91BE058FF4FA83048F10230110559F497
S1131560EF018A2F988190959883C058DF4F885057
S11315708830C0F732C081E00130110509F080E005
S11315808195EF019A2F8883C058DF4F9850983087
S1131590D0F788EF8A0F86958695869560E8869FB2
S11315A0E00DF11D1124E058FF4FA770AA2309F4A0
S11315B089C0B0E0AA5FBD4F8C910130110529F0BC
S11315C038F002301105E1F07DC09081892B03C011
S11315D0809590818923808375C088EF8A0F8695D2
S11315E08695869570E8879FE00DF11D1124E058DB
S11315F0FF4FA77009F466C0B0E0AA5FBD4F8C919D
S113160090818927E8CF57FD5DC016968D919C91F6
S11316101797481759070CF055C0F7FF04C02E0F51
S11316203F1FE0E0F0E014968D919C911597BF0167
S1131630620F731F861797071CF49C012E1B3F0B28
S1131640121613060CF03EC0CA0157FD079663E05C
S1131650959587956A95E1F79695982F882797959C
S11316608795E80FF91FEA5EFD4F4770552781E023
S113167090E001C0880F4A95EAF7482F0130110520
S113168039F078F002301105E9F42E0F3F1F13C032
S11316902E0F3F1FE217F307A9F08081842B81935B
S11316A0F9CF80952E0F3F1FE217F30759F0908171
S11316B098239193F9CFE217F30721F080818427CF
S11316C08193F9CFDF91CF911F910F9108950F93DB
S11316D01F93CF93DF93DC0155968C9155978230FD
S11316E071F0833009F1813009F08CC01496ED91CA
S11316F0FC911597E41BF50BE21BF30B20C0149629
S1131700ED91FC911597CF01861B970BBC0161509D
S113171071091696ED91FC911797CF01841B950BD7
S1131720AC01421B530B6EC01696ED91FC911797BA
S1131730CF01861B970BBC0161507109FA0177FD3B
S11317401BC116968D919C911797681779070CF019
S113175013C1F7FF04C02E0F3F1FE0E0F0E0149622
S11317608D919C911597AF01420F531F84179507D4
S11317701CF49C012E1B3F0B121613060CF0FCC02C
S1131780CB0177FD079643E0959587954A95E1F758
S11317909695982F882797958795E80FF91FEA5E05
S11317A0FD4F6770772781E090E001C0880F6A954C
S11317B0EAF7482F0130110541F088F00230110595
S11317C009F0DAC02E0F3F1F15C02E0F3F1FE2177E
S11317D0F30709F4D1C08081842B8193F8CF8095DD
S11317E02E0F3F1FE217F30709F4C6C09081982318
S11317F09193F8CFE217F30709F4BEC080818427E0
S11318008193F8CF77FDB8C014968D919C9115976C
S1131810681779070CF0B0C057FF04C0240F351FB8
S113182040E050E016968D919C911797FA01E20FD3
S1131830F31F8E179F071CF49C01241B350B1216F3
S113184013060CF099C0A22F842F86958695869551
S113185090E8899F600D711D1124FB01EA5EFD4F24
S11318604770A9F198E0941B492F50E0EA01C25F48
S1131870DD4F8881291790F4421B51092FEF30E086
S113188002C0359527954A95E2F782230130110568
S113189041F068F00230110589F06EC00130110585
S11318A019F42081822B0CC00130110520F480959D
S11318B02081822305C00230110531F42081822762
S11318C08083A91708F458C0A91BE058FF4FA8301B
S11318D048F10230110559F4EF018A2F988190954F
S11318E09883C058DF4F88508830C0F730C081E0FB
S11318F00130110509F080E08195EF019A2F88836A
S1131900C058DF4F98509830D0F788EF8A0F8695EB
S11319108695869590E8899FE00DF11D1124E05885
S1131920FF4FA770AA2341F1B0E0AA5FBD4F8C918D
S11319300130110529F038F002301105D1F01CC036
S11319409081892B18C080959081892314C088EFD9
S11319508A0F86958695869590E8899FE00DF11DFE
S11319601124E058FF4FA77039F0B0E0AA5FBD4FD3
S11319708C91908189278083DF91CF911F910F9162
S11319800895CF92DF92EF92FF920F931F93CF931C
S1131990DF937C018B01EA01690177FD9DC035DD90
S11319A0081719070CF098C0D7FD96C0C70131DDA0
S11319B0C817D9070CF090C0C70124DD823009F0A4
S11319C07FC0F70164817581CB01801B910B8C0171
S11319D00150110946815781FA01EC1BFD0BEF01FF
S11319E021970BC0813049F4F701848195818C1BC8
S11319F09D0BE8018C0101501109F1E0CF16D104CF
S1131A0031F010F182E0C816D104E1F165C0FE01A5
S1131A10D7FD379643E0F595E7954A95E1F7F695B6
S1131A20FE2FEE27F795E7950E0F1F1FF801EA5ECC
S1131A30FD4FC770DD2781E090E001C0880FCA9593
S1131A40EAF79081892B3AC0FE01D7FD379623E04F
S1131A50F595E7952A95E1F7F695FE2FEE27F7958C
S1131A60E7950E0F1F1FF801EA5EFD4FC770DD27D3
S1131A7081E090E001C0880FCA95EAF780959081D3
S1131A8089231CC0FE01D7FD379683E0F595E795C1
S1131A908A95E1F7F695FE2FEE27F795E7950E0F59
S1131AA01F1FF801EA5EFD4FC770DD2781E090E05B
S1131AB001C0880FCA95EAF79081892780830CC0FA
S1131AC0833009F08FCFF70186819781801B910BBA
S1131AD08E01EC01219791CFDF91CF911F910F914E
S1131AE0FF90EF90DF90CF9008951F93CF93DF93F3
S1131AF0EC01162F40E450E060E870E066D987E816
S1131B0096E0998388838FEF8C8F88A38E8F8D8F37
S1131B101F8FDF91CF911F91089580E094E0E6E15B
S1131B20F2E0DF019C011D9221503040E1F708955D
S1131B30FC0181A1882339F06EBD00000DB407FEBD
S1131B40FDCF8EB5089528E030E090E8A4A1B5A1BA
S1131B504C9183A5809584238C93A2A1B3A182A5E3
S1131B60492F462319F04C91842B03C04C91809546
S1131B7084238C93A4A1B5A14C9183A5842B8C932D
S1131B8096952150310911F708951F93CF93DF9350
S1131B90EC01162F8C8D8F3F01F1EEA1FFA19081F6
S1131BA08CA5892B8083E8A5F9A590818DA58095C6
S1131BB089238083EEA1FFA190818CA58095892340
S1131BC08083CE01B5DFEEA1FFA190818CA5892B86
S1131BD08083DF91CF911F9108958A8D682F880F9C
S1131BE0770B84E49CE00E94BE2160E084E49CE0E6
S1131BF00E946D21612F84E49CE00E946D2184E4A5
S1131C009CE0DF91CF911F910C9433220F931F938B
S1131C10CF93DF93EC01162F022F6B8F4A8F8C8D9D
S1131C208F3F09F48CC061E08E8D0E94EC2F61E03F
S1131C3088A10E94EC2F88A1082E000C990BFC01AE
S1131C40EE5BF84FE491F0E0EE0FFF1FEE55F84F16
S1131C50259134913FA32EA3FC01E450F94FE49164
S1131C60ECA78E8D082E000C990BFC01EE5BF84F4F
S1131C70E491F0E0EE0FFF1FEE55F84F25913491FB
S1131C8039A728A7FC01E450F94FE491EDA789A1F5
S1131C90811134C061E08C8D0E94EC2F61E08D8D48
S1131CA00E94EC2F8D8D082E000C990BFC01EE5B2D
S1131CB0F84FE491F0E0EE0FFF1FEE55F84F259139
S1131CC034913DA32CA3FC01E450F94FE491EBA71C
S1131CD08C8D082E000C990BFC01EE5BF84FE491FF
S1131CE0F0E0EE0FFF1FEE55F84F259134913BA322
S1131CF02AA3FC01E450F94FE491EAA789A18823BF
S1131D0011F10E94BA1E8091D40B882399F02FB749
S1131D10F8948091D40B813059F48DB38093D20B15
S1131D209DB38091D30B809589238DBB2FBF02C0B7
S1131D302093D20B80E58CBD81E08DBD04C084E48A
S1131D409CE00E94AB210023F1F08F8D87FD1BC026
S1131D5061E00E94EC2F61E08F8D0E94283061E0E9
S1131D6070E080E090E00E94F12E60E08F8D0E9490
S1131D7028306AE070E080E090E00E94F12E61E09B
S1131D808F8D0E9428306EEACE01FFDE65EDCE0114
S1131D90FCDE60E8CE01F9DE68EACE01F6DE6FE330
S1131DA0CE01F3DE63EDCE01F0DE60E0CE01EDDEC8
S1131DB060E4CE01EADE6DE8CE01E7DE113011F415
S1131DC060E101C064E1CE01E0DE60E2CE01DDDE6F
S1131DD060E0CE01DADE61EACE01D7DE68ECCE0146
S1131DE0D4DE6AEDCE01D1DE62E1CE01CEDE61E861
S1131DF0CE01CBDE113011F46FE901C06FECCE01DE
S1131E00C4DE69EDCE01C1DE113011F462E201C01D
S1131E1061EFCE01BADE6BEDCE01B7DE60E4CE0138
S1131E20B4DE64EACE01B1DE66EACE01AEDE6EE275
S1131E30CE01ABDE6FEACE01DF91CF911F910F91FE
S1131E40A4CEDF92EF92FF920F931F93CF93DF9371
S1131E50EC0161E29ADE60E0CE0197DE6FE7CE012D
S1131E6094DE62E2CE0191DE60E0CE018EDE67E0B8
S1131E70CE018BDE8C8D8F3F29F1EEA1FFA19081E5
S1131E808CA5892B8083E8A5F9A590818DA5892B44
S1131E908083EEA1FFA190818CA580958923808306
S1131EA006E112E0F80161918F01CE0141DEF6E016
S1131EB006311F07B9F7EEA1FFA190818CA5892BEC
S1131EC0808331C0D090B8008CE08093B80006E1E4
S1131ED012E06A8D062E000C770B84E49CE00E94CD
S1131EE0BE2160E484E49CE00E946D21E12CF12C8D
S1131EF0F801EE0DFF1D608184E49CE00E946D21D9
S1131F008FEFE81AF80AE0E1EE16F10489F784E4A9
S1131F109CE00E943322005F1F4FF6E006311F074A
S1131F20C1F6D092B800DF91CF911F910F91FF902D
S1131F30EF90DF900895CF93DF93FC0188E0DF01F9
S1131F40C82F1D92CA95E9F7DF011896ED01199281
S1131F508A95E9F7148E158E168E178E10A280E0DE
S1131F6090E0A0E8BFE3808B918BA28BB38B848B32
S1131F70958BA68BB78B808F918FA28FB38FDF91B8
S1131F80CF910895CF93DF93EA0170E084E49CE05D
S1131F900E94BE216FEA76E084E49CE00E94E62A77
S1131FA04AE050E0BE0184E49CE00E94A02B84E45B
S1131FB09CE0DF91CF910C943322CF92DF92EF9289
S1131FC0FF920F931F93CF93DF93EC016A01790182
S1131FD0AB0161E0D7DFA60162E0CE01D3DFA70148
S1131FE063E0CE01CFDFA80164E0CE01DF91CF91A1
S1131FF01F910F91FF90EF90DF90CF90C3CF4F923E
S11320005F926F927F92AF92BF92CF92DF92EF92E4
S1132010FF920F931F93CF93DF9300D01F92CDB7FE
S1132020DEB729013A01E982FA820B831C8370E04E
S113203084E49CE00E94BE2162EB76E084E49CE0B0
S11320400E94E62A22E030E0B301A20184E49CE08D
S11320500E94992C66EB76E084E49CE00E94E62AD8
S113206022E030E049815A816B817C8184E49CE0E8
S11320700E94992C6AEB76E084E49CE00E94E62AB4
S113208022E030E0B601A50184E49CE00E94992C92
S113209084E49CE00E94EE2A84E49CE00F900F907C
S11320A00F900F90DF91CF911F910F91FF90EF90C0
S11320B0DF90CF90BF90AF907F906F905F904F90E4
S11320C00C943322AF92BF92CF92DF92EF92FF92A1
S11320D00F931F93CF93DF93EC01A88CB98CCA8C18
S11320E0DB8CEC88FD880E891F89288939894A8907
S11320F05B8961E084DFA88CB98CCA8CDB8CEC88AA
S1132100FD880E891F89288939894A895B8962E09B
S1132110CE0175DFA88CB98CCA8CDB8CEC88FD8869
S11321200E891F89288939894A895B8963E0CE0130
S113213066DFA88CB98CCA8CDB8CEC88FD880E8990
S11321401F89288939894A895B8964E0CE0157DF70
S1132150DF91CF911F910F91FF90EF90DF90CF907F
S1132160BF90AF900895CF93DF931F92CDB7DEB7A2
S113217084E49CE069830E94AB21698170E041E0C2
S113218050E084E49CE00E94312284E49CE00E94BC
S11321901221892B39F084E49CE00F90DF91CF91D8
S11321A00C941A210F90DF91CF910895AF92BF92B2
S11321B0CF92DF92EF92FF920F931F93CF93DF930F
S11321C0EC0184E49CE00E94AB216EEB76E086E9AE
S11321D09CE00E94F12A86E0A82EB12CC88CD98CF0
S11321E0EA8CFB8C0C891D892E893F894889598981
S11321F06A897B89CE0166DF61EC76E086E99CE042
S11322000E94F12A61E0CE01AEDF6C0162E0CE01F2
S1132210AADF7C0163E0CE01A6DF8C0164E0CE017D
S1132220A2DF9C0181E0C816D10469F482E0E816BB
S1132230F10449F40330110531F42430310519F463
S113224081E08C8F04C01C8ECA94CD2811F481E0E7
S11322508D8F82E0E816F10411F481E08E8F033053
S1132260110511F481E08F8F2430310511F481E0E0
S113227088A381E0A81AB10809F0B0CF65EC76E034
S113228086E99CE0DF91CF911F910F91FF90EF9031
S1132290DF90CF90BF90AF900C94F12A089526E080
S11322A083E39DE00E94752869EC76E083E39DE07A
S11322B00C94F12A4F925F926F927F928F929F9229
S11322C0AF92BF92CF92DF92EF92FF920F931F9340
S11322D02A013B01480159016FEA76E083E39DE05E
S11322E00E94E62A4AE050E060E070E083E39DE06B
S11322F00E949A2B65ED76E083E39DE00E94E62A36
S11323004AE050E060E070E083E39DE00E949A2B95
S113231068ED76E083E39DE00E94E62A22E030E067
S1132320B301A20183E39DE00E94992C6BED76E05A
S113233083E39DE00E94E62A22E030E0B501A40197
S113234083E39DE00E94992C63EB76E083E39DE0B8
S11323500E94E62A22E030E0B701A60183E39DE073
S11323601F910F91FF90EF90DF90CF90BF90AF90AF
S11323709F908F907F906F905F904F900C949A2CC9
S113238025E030E0FC0131832083128208954F92CE
S11323905F926F927F928F929F92AF92BF92CF92F1
S11323A0DF92EF92FF920F931F93CF93DF93EC0191
S11323B02A013B01480159016FEF76E086E99CE070
S11323C00E94E62A6BE077E086E99CE00E94E62A18
S11323D022E030E0B301A20186E99CE00E94992C3E
S11323E06EE077E086E99CE00E94E62A22E030E095
S11323F0B501A40186E99CE00E94992C68E177E08C
S113240086E99CE00E94E62A22E030E0B701A601BA
S113241086E99CE00E94992C61E177E086E99CE0E2
S11324200E94F12A6881798184E49CE00E94BE21A3
S113243066E177E084E49CE00E94E62A6BE077E0C2
S113244084E49CE00E94E62A22E030E0B301A20189
S113245084E49CE00E94992C6EE077E084E49CE0A4
S11324600E94E62A22E030E0B501A40184E49CE065
S11324700E94992C68E177E084E49CE00E94E62ABB
S113248022E030E0B701A60184E49CE00E94992C8C
S11324906BE177E084E49CE00E94F12A84E49CE010
S11324A0DF91CF911F910F91FF90EF90DF90CF902C
S11324B0BF90AF909F908F907F906F905F904F9060
S11324C00C943322FC011182108213821282158231
S11324D014822AE030E03783268380E490E09187F9
S11324E08087338722871586148622E130E0378778
S11324F02687918B808B338B228B158A148A2CE14F
S113250030E0378B268B918F808F338F228F158EFF
S1132510148E24E230E0378F268F11A210A22EE20F
S113252030E033A322A395A384A337A326A311A643
S113253010A686E390E093A782A7089521E04CE3D8
S113254062E08AE99AE062DB8AE99AE07ADC68EE82
S113255073E080E090E00E94F12E8AE99AE0DDCAFF
S11325602F923F924F925F926F927F928F929F929F
S1132570AF92BF92CF92DF92EF92FF920F931F938D
S1132580CF93DF9300D000D0CDB7DEB73C017A8380
S113259069832A0119018C8D9D8DAE8DBF8D8B832E
S11325A09C83AD83BE8361E08AE99AE00E94F609C8
S11325B061E070E08AE99AE00E94FC0940E050E0A2
S11325C060E070E08AE99AE00E94F0098AE99AE002
S11325D0A4DA63E377E08AE99AE00E94E62A0E949B
S11325E0C02EAB01BC012AE030E08AE99AE00E94E7
S11325F0B52BD30116964D915C91179714966D9156
S11326007C9115978AE99AE00E94F00969E377E0E2
S11326108AE99AE00E94E62A4AE050E069817A81D8
S11326208AE99AE00E949A2BF301428553856085DA
S113263071858AE99AE00E94F0096DE377E08AE9FE
S11326409AE00E94E62A4AE050E0B1018AE99AE061
S11326500E949A2BD3011E964D915C911F971C9654
S11326606D917C911D978AE99AE00E94F00961E4DA
S113267077E08AE99AE00E94E62A4AE050E0B20153
S11326808AE99AE00E949A2BF3014289538960896E
S113269071898AE99AE00E94F00965E477E08AE9A1
S11326A09AE00E94E62A4AE050E0B8018AE99AE0FA
S11326B00E949A2BD30156964D915C91579754964C
S11326C06D917C9155978AE99AE00E94F00969E43A
S11326D077E08AE99AE00E94E62A22E030E0B70136
S11326E0A6018AE99AE00E94992CF301428D538D48
S11326F0608D718D8AE99AE00E94F0096FE477E0B9
S11327008AE99AE00E94E62A22E030E0B501A401B9
S11327108AE99AE00E94992CD3015E964D915C91CE
S11327205F975C966D917C915D978AE99AE00E942F
S1132730F00965E577E08AE99AE00E94E62A22E05A
S113274030E04B815C816D817E818AE99AE00E9450
S1132750992C8AE99AE026960FB6F894DEBF0FBE4C
S1132760CDBFDF91CF911F910F91FF90EF90DF903C
S1132770CF90BF90AF909F908F907F906F905F901D
S11327804F903F902F905DCB64E08AE99AE0ADC909
S11327904F925F926F927F92AF92BF92CF92DF92ED
S11327A0EF92FF920F931F93CF93DF93EC015B01A2
S11327B0CA01B9012AA33BA34CA35DA32BED3FE0BF
S11327C049E450E40E94A3256C877D878E879F8708
S11327D0B9A2A8A2EEA2FFA208A719A7B601DD0C10
S11327E0880B990B0E945A249B01AC0160E070E0B5
S11327F080E090E40E94062620E030E040E85FE3B9
S11328000E9453236AA77BA78CA79DA7DF91CF9132
S11328101F910F91FF90EF90DF90CF90BF90AF90FA
S11328207F906F905F904F9008952F923F924F92B8
S11328305F926F927F928F929F92AF92BF92CF924C
S1132840DF92EF92FF920F931F93CF93DF93CDB755
S1132850DEB760970FB6F894DEBF0FBECDBF1C0184
S1132860CB01BA014801590120E030E040E752E4CD
S11328700E94A32569877A878B879C87D1016D93F2
S11328807D938D939C93139720E030E040E752E4CE
S1132890C501B4010E94A3252B013C01F10164830D
S11328A075838683978320E030E040E752E4C701D4
S11328B0B6010E94A325D10118966D937D938D9343
S11328C09C931B9796962D913D914D915C91999770
S11328D00E94A3256D877E878F87988BF101608B7B
S11328E0718B828B938B84849584A684B784A50191
S11328F0940169857A858B859C850E94BF236B0131
S11329007C01D10154966D937D938D939C9357973D
S1132910A5019401C301B2010E94BF232B013C0114
S1132920F101608F718F828F938FA50194016D8562
S11329307E858F8598890E94BF234B015C01D1015C
S11329405C966D937D938D939C935F97A301920105
S1132950C701B6010E94532369877A878B879C87B6
S1132960A3019201C701B6010E9454236B017C01AB
S1132970A501940169857A858B859C850E945323E2
S11329800E942724662E7A836983A5019401C701D6
S1132990B6010E9453230E942724762E7C836B83E6
S11329A0A5019401C701B6010E9454230E94272463
S11329B0F62E7E836D83A501940169857A858B85C6
S11329C09C850E9454230E942724862F262F372F6C
S11329D038872F83262D3A81472D5C816F2D7E8188
S11329E0988560960FB6F894DEBF0FBECDBFDF9119
S11329F0CF911F910F91FF90EF90DF90CF90BF90F8
S1132A00AF909F908F907F906F905F904F903F908A
S1132A102F900895CF92DF92EF92FF92CF93DF939E
S1132A20EC01072E000C880B990B0E945A246B01B1
S1132A307C0148A159A1BA01550F880B990B0E943A
S1132A405A249B01AC01C701B6010E94BF232AA5E9
S1132A503BA54CA55DA50E94A3250E942724CB017C
S1132A60DF91CF91FF90EF90DF90CF9008952F9258
S1132A703F924F925F926F927F928F929F92AF920A
S1132A80BF92CF92DF92EF92FF920F931F93CF9357
S1132A90DF93CDB7DEB766970FB6F894DEBF0FBEEF
S1132AA0CDBF1C014A015B01098B1A8B2B8B3C8B1C
S1132AB026013701BADE29873A874B875C876D8701
S1132AC07E878F87988BCB84DC840D851E85EF846D
S1132AD0F88869857A85C1019DDF382F292FB601D1
S1132AE0C1012E8B3D8B96DF6C01B801C10192DFD1
S1132AF08C01B701C1018EDF3D89432F2E89522FEE
S1132B0057FF03C05195419551094F3F510509F0B5
S1132B10F4F49601D7FE03C03195219531092F3F76
S1132B20310509F0A4F4980117FF03C031952195EC
S1132B3031092F3F310509F054F49C0197FF03C07C
S1132B403195219531092F3F310559F054F020E09A
S1132B5030E040E85EE3C501B4010E94A3254B01C7
S1132B605C017301620109891A892B893C89B501C9
S1132B70A401C1015ADE29873A874B875C876D8798
S1132B807E878F87988B0B851C858D849E84AF846C
S1132B90B88869857A85C1013DDFF82EC92EB80150
S1132BA0C10138DF082FD92EB401C10133DF182F3A
S1132BB0E92EB501C1012EDF2F2D3C2D402F5D2DB7
S1132BC0612F7E2D66960FB6F894DEBF0FBECDBF83
S1132BD0DF91CF911F910F91FF90EF90DF90CF90F5
S1132BE0BF90AF909F908F907F906F905F904F9029
S1132BF03F902F900895FC0182E0808383E08183DD
S1132C0084E0828385E083831582148281E090E0EE
S1132C109783868311861086938782870895CF933E
S1132C20DF93EC01198218821A821B821C821D8296
S1132C301E821F82188619861A868FE790E09C8769
S1132C408B879E878D87988B8F879A8B898B6CE86F
S1132C507AE0CE0143960E9425316CE87AE0CE01F9
S1132C604996DF91CF910C942531CF92EF920F9337
S1132C70CF93DF93EC0126E040E950ED63E070E090
S1132C8080ED9DE00E9475286CE271E080E090E0A8
S1132C900E94F12EC12CE12C0DE02AE04BE06CE007
S1132CA088EC9AE0E3D2282F30E039832883211579
S1132CB0310569F56BE577E086E99CE00E94E62A38
S1132CC064E877E086E99CE00E94E62A61E977E01F
S1132CD086E99CE00E94F12A67E977E086E99CE0B6
S1132CE00E94E62A61E977E086E99CE00E94F12AE5
S1132CF061EA77E086E99CE00E94F12A65EF77E0DB
S1132D0086E99CE00E94F12A6EE278E011C021304D
S1132D10310519F46EE678E00BC02230310519F460
S1132D2064EE78E005C02330310531F464E679E0DF
S1132D3086E99CE00E94F12A88EC9AE099D08A8383
S1132D40813059F038F0823059F08330A1F462EECA
S1132D5079E008C066EA79E005C060EF79E002C076
S1132D6065EC79E086E99CE0DF91CF910F91EF90DB
S1132D70CF900C94E62ADF91CF910F91EF90CF90F2
S1132D800895CF92DF92EF92FF920F931F93CF9308
S1132D90DF93CDB7DEB72C970FB6F894DEBF0FBE26
S1132DA0CDBF6C018C01075E1F4F80ED9DE00E943A
S1132DB07627181619060CF04CC080ED9DE00E9491
S1132DC090278A3009F040C06CE2C8010E94E131CA
S1132DD07C018FEFE816F80631F46CE87AE0C8015C
S1132DE00E94563136C0970140E050E0B801CE0150
S1132DF007960E94E431CE0107960E946A32F601DA
S1132E00708B6787A7014F5F5F4F60E070E0C80178
S1132E100E942832B801CE0101960E944E31CE01A3
S1132E2001960E946A32F601768765876CE87AE03B
S1132E30C8010E945631CE0101960E94BE30CE01D7
S1132E4007960E94BE30B1CF682FC8010E94973107
S1132E50ACCF2C960FB6F894DEBF0FBECDBFDF917A
S1132E60CF911F910F91FF90EF90DF90CF90089535
S1132E70FC0183A5833031F0813031F08C3031F0A6
S1132E8080E0089581E0089582E0089583E0089544
S1132E90DC019FB7F8945B96ED91FC915C972081DF
S1132EA05A968C91822B80839FBF0895DC019FB733
S1132EB0F8945E96ED91FC915F9720815D968C91DC
S1132EC0822B80839FBF08958F929F92AF92BF926F
S1132ED0CF92DF92EF92FF920F931F93CF93DF93E2
S1132EE0EC0100E010E0F12CC62ED12C812C912CA9
S1132EF054018394E02EC601002E02C09595879557
S1132F000A94E2F780FF03C0CE01D0DF0AC02FB7D6
S1132F10F894EE8DFF8D90818D8D8095892380832B
S1132F202FBF2FB7F894EB8DFC8D90818A8D8095FF
S1132F30892380832FBF84E090E00E942A2FECA194
S1132F40FDA190818BA1892351F0D501C40104C056
S1132F50880F991FAA1FBB1FEA94D2F7F82ACE0143
S1132F6097DF0F5F1F4F0830110509F0C3CFCE0163
S1132F709DDF83E090E00E942A2F8F2DDF91CF9177
S1132F801F910F91FF90EF90DF90CF90BF90AF9083
S1132F909F908F900895DC019FB7F8949196ED91DE
S1132FA0FC919297208190968C91822B80839FBF75
S1132FB00895DC012FB7F8949196ED91FC919297C6
S1132FC0908190968C918095892380832FBF08955A
S1132FD0CF92DF92EF92FF920F931F93CF93DF93E1
S1132FE0EC016B01042FE5DF760110E0C7018C19B9
S1132FF09D098017910734F4F70161917F01CE0197
S113300063DFF4CFCE01C7DF6AA570E080E090E013
S1133010DF91CF911F910F91FF90EF90DF90CF90B0
S11330200C94F12ECF93DF93EC0145E066E376E058
S1133030CFDF49E06DE276E0CE01CADF8CA58823BC
S113304029F045E066E176E0CE01C2DF8DA5882354
S113305029F049E064E276E0CE01BADF49E06BE1B1
S113306076E0CE01DF91CF91B3CF2F923F924F9272
S11330705F926F927F928F929F92AF92BF92CF9204
S1133080DF92EF92FF920F931F93CF93DF93CDB70D
S1133090DEB729970FB6F894DEBF0FBECDBF4C0143
S11330A0762E142F0E94C02EF401C6A0D7A0E0A44F
S11330B0F1A46C197D098E099F090E9458246B01A3
S11330C07C0120E030E84BEB54E40E949F25181665
S11330D014F4C401A7DFF40162A570E080E090E07D
S11330E00E945A241B012C019B01AC01C701B601AB
S11330F00E94B82387FF0AC0A7019601C201B1014B
S11331000E9453230E942C240E94F12E1123E1F0EB
S1133110612F70E080E090E01F921F921F922FEFCA
S11331202F9320E4A22EB12CC12CD12CE12CF12C14
S11331308701EA9420E030E0A9010E947F30162F35
S11331400F900F900F900F90CE0101967C0189E0B3
S1133150F70111928A95E9F781E0898382E48A83F1
S11331607C821D8385E0382E8E01065F1F4F64012B
S1133170F9E0CF0ED11C540185E1A80EB11CC401A5
S113318095DEC40185DEC40114DF83E090E00E9473
S11331902A2F27013401F20161912F01C40194DE29
S11331A0F30181933F0140165106A9F7F40181818F
S11331B0893741F0C401EFDEF4018181807F8037DB
S11331C061F417C0360160E0C4017EDEF30181932F
S11331D03F01EA15FB05B9F7EDCFC40123DFF40184
S11331E062A570E080E090E00E94F12E3A943110E4
S11331F0C6CFF4018181807F803731F0F40182A54C
S11332008A3010F48F5F82A7F401808D918D978BA3
S1133210868B83819481918F808F0E94C02EF401CC
S113322066A377A380A791A79181907F81E09037CF
S113323009F080E029960FB6F894DEBF0FBECDBF2B
S1133240DF91CF911F910F91FF90EF90DF90CF907E
S1133250BF90AF909F908F907F906F905F904F90B2
S11332603F902F90089540E060E0FFCE6F927F92F0
S11332708F929F92AF92BF92CF92EF92FF920F9351
S11332801F93CF93DF93CDB7DEB72B970FB6F89488
S1133290DEBF0FBECDBF5C01862F70E0FB01E450A2
S11332A0F94FE491D5015A96EC935A97FB01EE5BE2
S11332B0F84FE491F0E0EE0FFF1FEE55F84F6591E3
S11332C07491F501748F638F642F70E0FB01E450F7
S11332D0F94FE4915D96EC935D97FB01EE5BF84F3B
S11332E0E491F0E0EE0FFF1FEE55F84F65917491F5
S11332F0F501778F668F622F70E0FB01E450F94F80
S1133300E4919096EC93FB01EE5BF84FE491F0E0CE
S1133310EE0FFF1FEE55F84F65917491F50172A3FE
S113332061A3A02FB0E0FD01E450F94F9491F501A1
S113333093A3FD01EE5BF84FE491F0E0EE0FFF1F65
S1133340E857F84F65917491D50195967C936E93E7
S1133350949761E02A874B870E94EC2F61E02A85CD
S1133360822F0E94EC2F61E04B85842F0E94EC2F6A
S113337060E0802F0E94EC2F61E0802F0E942830B3
S1133380C50194DDC50184DDC5016DDFC5016BDFB9
S1133390F5018181813429F0833719F0893709F0E7
S11333A065C081E0D5019A968C938BE0882E912C90
S11333B0FF24F39445E066E376E0C50109DE83E08B
S11333C090E00E942A2FC50171DDC50161DDC501B0
S11333D0F0DD83E090E00E942A2F0CE01AE0CE0199
S11333E001963C01F80161918F01C5016DDDD301A6
S11333F08D933D01BAE005311B07A1F7C501CBDD73
S11334008C81F50183A749E06DE276E0C501E0DD3A
S1133410CC2041F045E066E176E0C501D9DDD50177
S11334209C96FC92EE2039F049E064E276E0C50116
S1133430CFDDF501F5A649E06BE176E0C501C8DD15
S1133440C50111DFD50111968C91EE2021F0893749
S113345089F0833769F0833769F0B1E08B1A9108FA
S113346059F0F50182A58F5F82A7A4CF81E005C042
S113347083E003C080E001C082E02B960FB6F8948D
S1133480DEBF0FBECDBFDF91CF911F910F91FF9093
S1133490EF90CF90BF90AF909F908F907F906F9060
S11334A008954F925F926F927F928F929F92AF9204
S11334B0BF92CF92DF92EF92FF92CF93DF93CDB77B
S11334C0DEB72C970FB6F894DEBF0FBECDBF609168
S11334D0C20B7091C30B8091C40B9091C50B0E94D9
S11334E05A2420E030E040E05BE30E94A3252BED6A
S11334F03FE049E450E40E94A32520E030E048E1A5
S113350052E40E94A3252DE73FE345E95FE30E94CF
S1133510A3254B015C016091BE0B7091BF0B8091A0
S1133520C00B9091C10B0E945A2420E030E040E08F
S11335305BE30E94A3252BED3FE049E450E40E94A5
S1133540A32520E030E048E152E40E94A3252DE7C2
S11335503FE345E95FE30E94A32569837A838B8374
S11335609C836091BA0B7091BB0B8091BC0B9091C2
S1133570BD0B0E945A2420E030E040E85BE30E9447
S1133580A3252BED3FE049E450E40E94A32520E06D
S113359030E048E152E40E94A3252DE73FE345E9EA
S11335A05FE30E94A3252B013C019B01AC01C501F3
S11335B0B4010E94532320E030E040E05FE30E9426
S11335C0A3256B017C01A3019201C501B4010E94F2
S11335D05423905820E030E04AE952E40E94BF238B
S11335E04B015C0165E17AE086E99CE00E94E62AF1
S11335F022E030E0B501A40186E99CE00E94992C08
S11336002BED3FE049E450E4C501B4010E949F253D
S113361087FD16C02BED3FE049E450E4C501B40139
S11336200E9454232BED3FE049EC50E40E949C247B
S11336302BED3FE049E450E40E9453234B015C012D
S11336402BED3FE049E450ECC501B4010E94B823DE
S11336501816B4F02BED3FE049E450E4C501B40181
S11336600E9453232BED3FE049EC50E40E949C243C
S11336702BED3FE049E450E40E9454234B015C01EC
S11336802091B60B3091B70B4091B80B5091B90B08
S1133690C701B6010E9453232B013C01C092B60B13
S11336A0D092B70BE092B80BF092B90B2091B20B09
S11336B03091B30B4091B40B5091B50B69817A8171
S11336C08B819C81F0D76D837E838F8398878981DA
S11336D09A81AB81BC818093B20B9093B30BA0937E
S11336E0B40BB093B50BC501B4010E94BC236B01AC
S11336F07C01C501B4010E94522669837A838B83BD
S11337009C83A7019601C301B2010E94A325698786
S11337107A878B879C8729813A814B815C816D8173
S11337207E818F8198850E94A3259B01AC016985C8
S11337307A858B859C85B8D79B01AC016091CE0BB3
S11337407091CF0B8091D00B9091D10BADD760933A
S1133750CE0B7093CF0B8093D00B9093D10BA7011A
S113376096016D817E818F8198850E94A3256B01CE
S11337707C0129813A814B815C81C301B2010E94A1
S1133780A3259B01AC01C701B6018DD79B01AC01F8
S11337906091CA0B7091CB0B8091CC0B9091CD0BA7
S11337A083D76093CA0B7093CB0B8093CC0B90930D
S11337B0CD0B2BED3FE049E450E4C501B401DFD764
S11337C020E030E044E353E40E94A3256093C60B59
S11337D07093C70B8093C80B9093C90B69E17AE08F
S11337E086E99CE00E94E62A22E030E0B301A201CF
S11337F086E99CE00E94992C60E27AE086E99CE0EC
S11338000E94E62A22E030E04D815E816F81788556
S113381086E99CE00E94992C67E27AE086E99CE0C4
S11338200E94E62A22E030E0B501A40186E99CE08A
S11338300E94992C6EE27AE086E99CE00E94E62AD6
S11338404091CE0B5091CF0B6091D00B7091D10B66
S113385022E030E086E99CE00E94992C66E37AE05D
S113386086E99CE00E94E62A4091CA0B5091CB0B5A
S11338706091CC0B7091CD0B22E030E086E99CE0A6
S11338800E94992C6EE37AE086E99CE00E94E62A85
S11338904091C60B5091C70B6091C80B7091C90B36
S11338A022E030E086E99CE02C960FB6F894DEBF67
S11338B00FBECDBFDF91CF91FF90EF90DF90CF90FF
S11338C0BF90AF909F908F907F906F905F904F903C
S11338D00C949A2C84E00E9457304091C20B509172
S11338E0C30B6091C40B7091C50B019729F441502F
S11338F051096109710904C04F5F5F4F6F4F7F4FDA
S11339004093C20B5093C30B6093C40B7093C50BCD
S1133910089585E00E9457304091BE0B5091BF0B33
S11339206091C00B7091C10B019729F44F5F5F4FF9
S11339306F4F7F4F04C04150510961097109409391
S1133940BE0B5093BF0B6093C00B7093C10B0895D3
S113395086E00E9457304091BA0B5091BB0B6091A6
S1133960BC0B7091BD0B019729F4415051096109B9
S1133970710904C04F5F5F4F6F4F7F4F4093BA0B85
S11339805093BB0B6093BC0B7093BD0B089562E026
S113399083E10E94EC2F62E082E00E94EC2F62E05F
S11339A083E00E94EC2F62E084E00E94EC2F62E04E
S11339B085E00E94EC2F62E086E00E94EC2F42E05A
S11339C050E06AE67CE184E00E94AB2C42E050E0E7
S11339D069E87CE180E00E94AB2C42E050E068EAB8
S11339E07CE181E00C94AB2CCF93DF9300D000D02A
S11339F0CDB7DEB726E040E052EC61E070E086E946
S1133A009CE00E94752840E052EC61E070E085E89B
S1133A109BE00E944F1186E89BE00E949E128CEF6F
S1133A209AE00E94D610B3DF66E47AE0CE010196F4
S1133A300E94253142E350E0BE016F5F7F4F8EE468
S1133A409BE090D5CE0101960E94BE3061E57AE1FB
S1133A508EE49BE0F6D58AE59BE007D926960FB65F
S1133A60F894DEBF0FBECDBFDF91CF9108952F92A2
S1133A703F924F925F926F927F928F929F92AF92FA
S1133A80BF92CF92DF92EF92FF920F931F93CF9347
S1133A90DF93CDB7DEB762970FB6F894DEBF0FBEE3
S1133AA0CDBF8AE59BE06DD98091640B882329F111
S1133AB0C090C60BD090C70BE090C80BF090C90B18
S1133AC00091CA0B1091CB0B2091CC0B3091CD0BF4
S1133AD04091CE0B5091CF0B6091D00B7091D10BD4
S1133AE08BE49BE00E94C7116AE47AE086EF9AE0D7
S1133AF00E9456311092640B06C064E57AE086EFAA
S1133B009AE00E9456316091690B70916A0B072EFE
S1133B10000C880B990B1F921F9223E02F9328EE21
S1133B202F9328E1A22E2CEFB22ECC24CA94DC2CA5
S1133B30E12CF12C8701EA9420E030E0A9010E94F5
S1133B407F302B013C018091670B9091680BBC0185
S1133B50990F880B990B1F921F922CE02F9324E44A
S1133B602F934CEBA42E43EFB42ECC24CA94DC2C1C
S1133B7010E8E12EF12C00E010E020E83FEF4FEFD9
S1133B805FEF0E947F3096D620E030E04AE755E4AC
S1133B90F6D56B017C01C301B2018CD620E030E084
S1133BA04AE754E4ECD5AB01BC0100E010E0980115
S1133BB08DE19BE00E94371529833A834B835C8314
S1133BC06D837E838F83988789819A819A8B898B71
S1133BD08B819C81988B8F872D803E804F80588469
S1133BE082019101AC0169897A898CEF9AE00E9483
S1133BF0DD0FC090C60BD090C70BE090C80BF090BF
S1133C00C90B0091CA0B1091CB0B2091CC0B3091B6
S1133C10CD0B4091CE0B5091CF0B6091D00B709196
S1133C20D10B85E89BE00E945A113E0199E0690E90
S1133C30711C6DE67BE0C3010E944E318090CA0B7B
S1133C409090CB0BA090CC0BB090CD0BC090CE0B32
S1133C50D090CF0BE090D00BF090D10B7F926F926D
S1133C608091C90B8F938091C80B8F938091C70B60
S1133C708F938091C60B8F93820191014F85588950
S1133C8069897A8986E89BE00E94B012C3010E9488
S1133C90BE306CE87AE08DE69BE00E9456310FB6A8
S1133CA0F894DEBF0FBECDBF62960FB6F894DEBFA8
S1133CB00FBECDBFDF91CF911F910F91FF90EF9079
S1133CC0DF90CF90BF90AF909F908F907F906F9038
S1133CD05F904F903F902F900895CF92DF92EF9294
S1133CE0FF920F931F9386E89BE00E94621285E87F
S1133CF09BE00E944E1189E79BE00E94FB158AE538
S1133D009BE00E940F168EE49BE017D48BE49BE0AB
S1133D100E94C01188E0C82ED12CE12CF12C00E0C7
S1133D201FE326E933E44BE85DE36CE271E08DE1E7
S1133D309BE00E94C8138CEF9AE00E949B0F60E600
S1133D407AE086EF9AE01F910F91FF90EF90DF9059
S1133D50CF900C94253186EF9AE00E94BE308EE419
S1133D609BE074D483E79BE00E94BE308DE69BE029
S1133D700C94BE30CF93CFB7F8948091D50B8111BA
S1133D8027C0E7E7F7E08491E1E3F7E09491E82FB7
S1133D90F0E0EE0FFF1FE454F84FA591B491EC91BD
S1133DA0E92321F461E085E30E94283061E085E3A2
S1133DB00E94EC2F8CB580618CBD8CB580648CBD69
S1133DC061E084E30E94EC2F61E083E30E94EC2F26
S1133DD08091D50B8F5F8093D50BCFBFCF91089582
S1133DE01092430C81E08093410C1092400C61E0EE
S1133DF084E10E94283061E085E10E942830E9EBEB
S1133E00F0E080818E7F808380818D7F808388E451
S1133E108093B80085E48093BC000895413208F093
S1133E2043C09091430C9111FCCF91E09093430CCB
S1133E302093410C2FEF2093D60B10921B0C240FD0
S1133E4020931A0C9093420C9091420C880F892B6A
S1133E508093420C8091400C813061F41092400CAC
S1133E608091420C8093BB008091BC0083FDF8CF0D
S1133E7085EC01C085EE8093BC008091430C8130B9
S1133E80E1F380911B0C841710F440911B0C2CE17E
S1133E903CE0FB01D9018A2F821B841718F48D9111
S1133EA08193F9CF842F089580E008950F934132D0
S1133EB008F04AC09091430C9111FCCF32E030934A
S1133EC0430C0093410C3FEF3093D60B10921B0C24
S1133ED040931A0CFB016CE17CE0DB013A2F361BAA
S1133EE0341718F431913D93F9CF1092420C30916C
S1133EF0420C880F832B8093420C8091400C8130BC
S1133F0061F41092400C8091420C8093BB0080912C
S1133F10BC0083FDF8CF85EC01C085EE8093BC0026
S1133F20222321F08091430C8230D1F38091D60B6F
S1133F308F3F79F08091D60B803241F08091D60B7F
S1133F40803331F094E005C091E003C092E001C0F9
S1133F5093E0892F0F9108954091F80B262F30E0BC
S1133F60240F311D21323105DCF42091430C24301F
S1133F70C9F4FC0180E090E0861758F43091F80B06
S1133F802191DC01A650B44FA30FB11D2C930196CF
S1133F90F3CF8091F80B680F6093F80B80E00895DD
S1133FA081E0089582E0089585ED8093BC008091BE
S1133FB0BC0084FDFCCF1092430C089585EC8093E3
S1133FC0BC001092430C08951F920F920FB60F92EB
S1133FD011240BB60F922F933F934F935F936F93DC
S1133FE07F938F939F93AF93BF93EF93FF938091AE
S1133FF0B900887F803609F49DC070F5883209F4D1
S11340005CC090F4803109F455C038F4882309F475
S1134010F3C0883009F44EC0F2C0883109F44DC0B1
S1134020803209F45EC0EBC0803409F469C050F4F6
S1134030803309F456C0883309F0E1C08093D60B6D
S1134040BDDFDDC0803509F44FC0883509F45DC09B
S1134050883409F0D4C0D2C0883909F4C3C0A8F4A4
S1134060883709F467C038F4883609F463C08037A8
S113407009F460C0C4C0883809F4B4C0803909F4B4
S11340805FC0803809F0BBC05BC0803B09F482C0CC
S113409038F4803A09F466C0883A09F47BC0AFC0AA
S11340A0803C09F4A3C0883C09F4A0C0883B09F40F
S11340B086C0A5C08091420C10C090911B0C8091C9
S11340C01A0C981770F5E0911B0C81E08E0F809309
S11340D01B0CF0E0E45EF34F80818093BB0085EC21
S11340E082C08093D60B8AC0E0911B0C81E08E0FB6
S11340F080931B0C8091BB00F0E0E45EF34F80835F
S113410090911B0C80911A0C6AC0E0911B0C81E009
S11341108E0F80931B0C8091BB00F0E0E45EF34FA4
S113412080838091410C811169C081E08093400CAF
S113413084EA5DC083E08093430C1092D70BCFCF09
S11341408091D70B803208F04DC0E091D70B81E00D
S11341508E0F8093D70B8091BB00F0E0E852F44FB0
S11341608083BDCF2BDF8091D70B803230F4E09178
S1134170D70BF0E0E852F44F10826091D70B70E057
S1134180E0913C0CF0913D0C88ED9BE01995109268
S1134190D70B35C084E08093430C1092F90B109236
S11341A0F80BE0913E0CF0913F0C19958091F80BBF
S11341B0811105C081E08093F80B1092FA0BE09115
S11341C0F90B81E08E0F8093F90BF0E0E650F44F89
S11341D080818093BB009091F90B8091F80B981724
S11341E008F47DCF85E88093BC0009C085EC8093FA
S11341F0BC001092430C03C01092D60BD5DEFF9185
S1134200EF91BF91AF919F918F917F916F915F914A
S11342104F913F912F910F900BBE0F900FBE0F90B7
S11342201F9018958091740C90E02091750C821B5E
S1134230910908959091750C8091740C981750F41D
S1134240E92FF0E0EA58F34F208130E09F5F90932C
S1134250750C02C02FEF3FEFC9010895E091750C72
S11342608091740CE81730F4F0E0EA58F34F808141
S113427090E008958FEF9FEF08950895CF92DF9215
S1134280EF92FF920F931F93CF93DF937C01262F1E
S1134290972F8A018091500C882391F0C62FD72F35
S11342A06E01C40ED51ECC15DD0569F06991D701E8
S11342B0ED91FC910190F081E02DC7011995F3CFA8
S11342C0642F822F49DEC801DF91CF911F910F9196
S11342D0FF90EF90DF90CF900895CF93DF931F92DC
S11342E0CDB7DEB769832091500C2223D1F0209101
S11342F0510C203240F021E030E0FC013383228372
S113430080E090E014C08091520CE82FF0E0ED5A68
S1134310F34F998190838F5F8093520C8093510C5B
S113432004C061E0CE01019617DE81E090E00F90B9
S1134330DF91CF910895FC011382128288EE93E0FD
S1134340A0E0B0E084839583A683B7838AE69AE0ED
S11343509183808308951092750C1092740C1092BE
S1134360520C1092510C3CCD81E08093500C609320
S1134370730C1092520C1092510C0895F5CF0F93B8
S1134380062F21E04091510C63E57CE08091730C91
S11343908DDD1092520C1092510C1092500C0F9112
S11343A008954F925F926F927F92AF92BF92CF9295
S11343B0EF92FF920F931F93CF93DF935C01F62E3E
S11343C0D42F28013901EE2011F1CEDFCE2DC430D7
S11343D008F0C3E0C150C0F0D501ED91FC91B8E004
S11343E0CB9FC0011124A301920104C056954795A7
S11343F0379527958A95D2F7CA01B9010190F081C2
S1134400E02DC5011995E6CF60E0C501B8DF4D2F59
S1134410D13208F040E22C2D66E77CE08F2DFEDCE3
S11344201092750C8093740CDF91CF911F910F91B2
S1134430FF90EF90CF90BF90AF907F906F905F9080
S11344404F900895CF92EF920F931F93C22EE12CB9
S113445000E010E09801A5DF1F910F91EF90CF903D
S1134460089521E0EFCF61E08ACF84E49CE063CF3C
S113447008954F925F926F927F92AF92BF92CF92C4
S1134480DF92EF92FF920F931F93CF93DF93CDB7F9
S1134490DEB72A970FB6F894DEBF0FBECDBF7C01FE
S11344A05B018AE0EDE4F6E0DE01119601900D92E5
S11344B08A95E1F7CE0101966C0100E010E030E846
S11344C0432E3EE3532E612C712CF60161917191C0
S11344D06F01CB01770FAA0BBB0B77276627A301CC
S11344E092010E94AB32A216B3062CF00F5F1F4F4D
S11344F00530110551F7F70131872087000F111F8F
S1134500E1E0F0E0EC0FFD1FE00FF11F80819181ED
S11345102A960FB6F894DEBF0FBECDBFDF91CF91C0
S11345201F910F91FF90EF90DF90CF90BF90AF90CD
S11345307F906F905F904F900895CF93DF93EC013D
S11345406CE87AE00E94253181E090E09F838E83BD
S1134550198618861B861A868FB780688FBFDF91ED
S1134560CF910895EF92FF920F931F93CF93DF9310
S1134570EC017B018A010E943931B801CE0179DF57
S11345809F838E83C7010E94593266E47AE0C70193
S11345900E94AA31882309F44DC010928000109221
S11345A0810088E0809381008E819F81019729F4A6
S11345B0809181008160809381008E819F81089722
S11345C029F4809181008260809381008E819F8193
S11345D08034910529F48091810083608093810067
S11345E08E819F818115914029F48091810084609E
S11345F0809381008E819F818115944029F480915C
S1134600810085608093810020E83EE3D8010E9408
S1134610DE322E813F81032E000C440B550B0E9489
S1134620AB323B872A87309389002093880082E04D
S113463080936F00DF91CF911F910F91FF90EF90C6
S1134640089570933C0660933B0608950C94BE3025
S11346501F920F920FB60F9211240BB60F922F9345
S11346603F934F935F936F937F938F939F93AF93F6
S1134670BF93EF93FF93E0913B06F0913C061995AD
S1134680FF91EF91BF91AF919F918F917F916F9126
S11346905F914F913F912F910F900BBE0F900FBEE2
S11346A00F901F9018955058BB27AA270ED0FCC115
S11346B0C5D130F0CAD120F031F49F3F11F41EF47B
S11346C0BAC10EF4E095E7FBA2C1E92F0FD280F343
S11346D0BA17620773078407950718F071F49EF5FB
S11346E027C20EF4E0950B2EBA2FA02D0B01B901B1
S11346F090010C01CA01A0011124FF27591B99F054
S1134700593F50F4503E68F11A16F040A22F232F5F
S1134710342F4427585FF3CF469537952795A795AF
S1134720F0405395C9F77EF41F16BA0B620B730B56
S1134730840BBAF09150A1F0FF0FBB1F661F771FC7
S1134740881FC2F70EC0BA0F621F731F841F48F47C
S1134750879577956795B795F7959E3F08F0B3CF02
S11347609395880F08F09927EE0F979587950895EC
S11347702AD108F481E0089570D1E395A6C10CD044
S113478093C163D140F05AD130F021F45F3F19F066
S11347903EC15111CEC14FC1A9D198F39923C9F398
S11347A05523B1F3951B550BBB27AA276217730733
S11347B0840738F09F5F5F4F220F331F441FAA1FE7
S11347C0A9F333D00E2E3AF0E0E830D091505040A7
S11347D0E695001CCAF729D0FE2F27D0660F771F55
S11347E0881FBB1F261737074807AB07B0E809F037
S11347F0BB0B802DBF01FF2793585F4F2AF09E3FCC
S1134800510568F004C195C15F3FECF3983EDCF3B9
S1134810869577956795B795F7959F5FC9F7880F44
S1134820911D9695879597F90895E1E0660F771F96
S1134830881FBB1F621773078407BA0720F0621B27
S1134840730B840BBA0BEE1F88F7E095089504D020
S11348506894B1116EC1089551D188F09F5790F0BA
S1134860B92F9927B751A0F0D1F0660F771F881F91
S1134870991F1AF0BA95C9F712C0B13081F058D116
S1134880B1E0089555C1672F782F8827B85F39F0B4
S1134890B93FCCF3869577956795B395D9F73EF4F0
S11348A090958095709561957F4F8F4F9F4F089598
S11348B0E89409C097FB3EF49095809570956195B6
S11348C07F4F8F4F9F4F9923A9F0F92F96E9BB276C
S11348D09395F695879577956795B795F111F8CFE8
S11348E0FAF4BB0F11F460FF1BC06F5F7F4F8F4F53
S11348F09F4F16C0882311F096E911C0772321F049
S11349009EE8872F762F05C0662371F096E8862FE0
S113491070E060E02AF09A95660F771F881FDAF737
S1134920880F9695879597F9089588D018F011F017
S11349308CD038F480C0FDC0E92FD8D0B0F3552313
S1134940C9F3E7FB6217730784079507A8F199F386
S1134950E92FFF2788232AF03197660F771F881FD6
S1134960DAF7952F5527442332F091505040220F07
S1134970331F441FD2F7BB27E91BF50B621B730BD4
S1134980840BB109C1F222F4620F731F841FB11D9D
S113499031972AF0660F771F881FBB1FEFCF915006
S11349A050405AF041F0882332F0660F771F881F79
S11349B091505040C1F7939530C08695779567958F
S11349C09F5FD9F7F8CF990F0008550FAA0BE0E8BD
S11349D0FEEF16161706E807F907C0F012161306BD
S11349E0E407F50798F0621B730B840B950B39F4FD
S11349F00A2661F0232B242B252B21F408950A2663
S1134A0009F4A140A6958FEF811D811D089597F9A2
S1134A109F6780E870E060E008959F3F31F0915017
S1134A2020F4879577956795B795880F911D96958E
S1134A30879597F908959FEF80EC089500240A94D0
S1134A401616170618060906089500240A94121665
S1134A501306140605060895EECF50D0E8F3E89443
S1134A60E0E0BB279F57F0F02AED3FE049EC06C099
S1134A70EE0FBB0F661F771F881F28F0B23A62073C
S1134A807307840728F0B25A620B730B840BE39507
S1134A909A9572F7803830F49A95BB0F661F771F8A
S1134AA0881FD2F79048BBCF092E0394000C11F451
S1134AB0882352F0BB0F40F4BF2B11F460FF04C0F5
S1134AC06F5F7F4F8F4F9F4F0895EF93E0FF06C0B6
S1134AD0A2EA2AED3FE049EC5FEBF7DDE5DF0F905A
S1134AE0039401FC9058E4EEF0E038C157FD90586F
S1134AF0440F551F59F05F3F71F04795880F97FB9E
S1134B00991F61F09F3F79F0879508951216130657
S1134B101406551FF2CF4695F1DF08C01616170686
S1134B201806991FF1CF86957105610508940895BB
S1134B30E894BB2766277727CB0197F9089543DFCD
S1134B4008F48FEF08950BD0AFCF78DF28F07DDF26
S1134B5018F0952309F05BCF6ECF1124EACFC6DF9E
S1134B60A0F3959FD1F3950F50E0551F629FF0017C
S1134B70729FBB27F00DB11D639FAA27F00DB11DD5
S1134B80AA1F649F6627B00DA11D661F829F22275E
S1134B90B00DA11D621F739FB00DA11D621F839FE5
S1134BA0A00D611D221F749F3327A00D611D231FBB
S1134BB0849F600D211D822F762F6A2F11249F5709
S1134BC050408AF0E1F088234AF0EE0FFF1FBB1F2C
S1134BD0661F771F881F91505040A9F79E3F5105CB
S1134BE070F015CFA6CF5F3FECF3983EDCF38695CB
S1134BF077956795B795F795E7959F5FC1F7FE2B76
S1134C00880F911D9695879597F90895FA01EE0FEF
S1134C10FF1F30962105310599F16115710561F485
S1134C208038BFE39B0749F168949038810561F0AF
S1134C308038BFEF9B0741F0992342F5FF3FE10520
S1134C403105210511F1E8940894E795D901AA23C7
S1134C5029F4AB2FBE2FF85FD0F310C0FF5F70F4C0
S1134C60A695E0F7F73950F019F0FF3A38F49F773A
S1134C709F930CD00F9007FC905808953EF0DBCE24
S1134C8060E070E080E89FE308954FE79F775F93CB
S1134C904F933F932F93B5D02F913F914F915F91B5
S1134CA052DF0BC09F93D9DE0F9007FCEE5F0DCF50
S1134CB019F40EF0ACCE3CCFBECE20DFC8F396384C
S1134CC0C0F707F80F92E8942BE33AEA48EB5FE762
S1134CD048DF0F920F920F924DB75EB70F92D1D06B
S1134CE0E2E0F1E016D04F915F91EF91FF91E595ED
S1134CF0EE1FFF1F49F0FE57E0684427EE0F441FE4
S1134D00FA95E1F74195550B43D00F9007FE37C054
S1134D100895DF93CF931F930F93FF92EF92DF9247
S1134D207B018C01689405C0DA2EEF0118DFFE01C7
S1134D30E894A5912591359145915591AEF3EF01F4
S1134D40C4DCFE019701A801DA9479F7DF90EF90B3
S1134D50FF900F911F91CF91DF9108959F938F93AF
S1134D607F936F93FF93EF939B01AC01ECDEEF9184
S1134D70FF91CFDF2F913F914F915F91E4CE9B0143
S1134D80AC0160E070E080E89FE3F9CC40CE45CE12
S1134D90B5DEE8F39923D9F3940F511DBBF3915079
S1134DA0504094F059F0882332F0660F771F881F23
S1134DB091505040C1F79E3F510544F7880F911D13
S1134DC09695879597F908955F3FACF0983E9CF0CF
S1134DD0BB27869577956795B79508F4B160939549
S1134DE0C1F7BB0F58F711F460FFE8CF6F5F7F4F37
S1134DF08F4F9F4FE3CF9DCE0EF00FCE1CCE689405
S1134E0006CE7CDEC8F39923D1F3C6F3DF93CF93A8
S1134E101F930F93FF92C92FDD2788232AF0219730
S1134E20660F771F881FDAF720E030E040E85FEB79
S1134E309FE3883920F0803E30F021968F7734DC70
S1134E40EAE2F1E003C030DCE7E5F1E062DF8B0188
S1134E50BE01EC01FB2E6F5771097595771F880B06
S1134E60990B28DD28E132E741E35FE378DEAF2DDB
S1134E709801AE01FF900F911F91CF91DF9125DC36
S1134E8013CEFA01DC01AA0FBB1F9B01AC01BF5773
S1134E9028F422273327442750781FC0B75188F4B9
S1134EA0AB2F0024469537952795011CA395D2F383
S1134EB0002069F0220F331F441FB395DAF30DD09D
S1134EC0F2CB61307105A0E88A07B94630F49B0142
S1134ED0AC016627772788279078309621F02083C5
S1134EE031834283538308950E94FF34FC01918DE2
S1134EF0228D892F90E0805C9F4F821B91098F73D4
S1134F0099270895FC01918D828D981731F0828D37
S1134F10E80FF11D858D90E008958FEF9FEF0895C0
S1134F20FC01918D828D981761F0828DDF01A80FAD
S1134F30B11D5D968C91928D9F5F9F73928F90E0CF
S1134F4008958FEF9FEF0895FC01538D448D252F15
S1134F5030E0842F90E0821B930B541710F0CF960F
S1134F6008950197089589E399E2892B39F080E047
S1134F7090E0892B19F07DD1811123C080E090E06D
S1134F80892B41F080E090E0892B21F00E94000001
S1134F9081111AC08EEC99E2892B39F080E090E0FF
S1134FA0892B19F0FBD1811112C083E69AE2892B77
S1134FB099F080E090E0892B79F085D281110AC0C4
S1134FC008950E940000DACF0E940000E3CF0E94FF
S1134FD00000EBCF0C9400000895FC01848DDF01E8
S1134FE0A80FB11DA35ABF4F2C91848D90E0019658
S1134FF08F739927848FA689B7892C93A089B18947
S11350008C9180648C93938D848D981306C0028850
S1135010F389E02D80818F7D80830895CF93DF9382
S1135020EC01888D8823C1F0EA89FB89808185FDA4
S113503005C0A889B9898C9186FD0EC00FB607FCFE
S1135040F5CF808185FFF2CFA889B9898C9185FF3E
S1135050EDCFCE01C2DFE8CFDF91CF910895EF927B
S1135060FF920F931F93CF93DF93EC0181E0888F1E
S11350709B8D8C8D981305C0E889F989808185FD05
S113508023C0F62E0B8D10E00F5F1F4F0F731127F7
S1135090E02E8C8DE8120BC00FB607FCFACFE8891E
S11350A0F989808185FFF5CFCE0197DFF2CF8B8D13
S11350B0FE01E80FF11DE35AFF4FF0820B8FEA89DE
S11350C0FB898081806207C0EE89FF896083E8895B
S11350D0F98980818064808381E090E0DF91CF91C1
S11350E01F910F91FF90EF900895CF92DF92EF926E
S11350F0FF921F93CF93DF93EC016A017B01122F80
S1135100E889F98982E080834115514E6105710572
S1135110B1F060E079E08DE390E0A70196010E9490
S11351208932DA01C9010197A109B109B695A79598
S113513097958795AC01411580E15807A8F0E88957
S1135140F989108260E874E88EE190E0A701960185
S11351500E948932BA01A9014150510961097109BA
S11351607695679557954795EC85FD855083EE8533
S1135170FF854083188EEC89FD891083EA89FB89B9
S1135180808180618083EA89FB8980818860808353
S1135190EA89FB89808180688083EA89FB89808130
S11351A08F7D8083DF91CF911F91FF90EF90DF90EF
S11351B0CF9008951F920F920FB60F9211240BB641
S11351C00F922F938F939F93EF93FF93E091A60CED
S11351D0F091A70C8081E091AC0CF091AD0C82FDB4
S11351E012C090818091AF0C8F5F8F732091B00CAF
S11351F0821751F0E091AF0CF0E0EA56F34F958F2F
S11352008093AF0C01C08081FF91EF919F918F91AA
S11352102F910F900BBE0F900FBE0F901F901895FB
S11352201F920F920FB60F9211240BB60F922F9369
S11352303F934F935F936F937F938F939F93AF931A
S1135240BF93EF93FF9386E99CE0C7DEFF91EF9154
S1135250BF91AF919F918F917F916F915F914F918A
S11352603F912F910F900BBE0F900FBE0F901F9088
S1135270189586E99CE03ADE21E0892B09F420E0C8
S1135280822F0895E6E9FCE01382128288EE93E00F
S1135290A0E0B0E084839583A683B7838CE79AE08B
S11352A09183808385EC90E09587848784EC90E0FB
S11352B09787868780EC90E0918B808B81EC90E0DF
S11352C0938B828B82EC90E0958B848B86EC90E0C0
S11352D0978B868B118E128E138E148E08951F92C7
S11352E00F920FB60F9211240BB60F922F938F9338
S11352F09F93EF93FF93E091430DF091440D8081D0
S1135300E091490DF0914A0D82FD12C09081809187
S11353104C0D8F5F8F7320914D0D821751F0E091EA
S11353204C0DF0E0ED5CF24F958F80934C0D01C075
S11353308081FF91EF919F918F912F910F900BBEE0
S11353400F900FBE0F901F9018951F920F920FB6DB
S11353500F9211240BB60F922F933F934F935F93A9
S11353606F937F938F939F93AF93BF93EF93FF9329
S113537083E39DE032DEFF91EF91BF91AF919F9166
S11353808F917F916F915F914F913F912F910F90EA
S11353900BBE0F900FBE0F901F90189583E39DE0F6
S11353A0A5DD21E0892B09F420E0822F0895E3E3B1
S11353B0FDE01382128288EE93E0A0E0B0E08483E3
S11353C09583A683B7838CE79AE09183808385EDE8
S11353D090E09587848784ED90E09787868780EDB9
S11353E090E0918B808B81ED90E0938B828B82EDAA
S11353F090E0958B848B86ED90E0978B868B118E55
S1135400128E138E148E08951F920F920FB60F9260
S113541011240BB60F922F938F939F93EF93FF93C7
S1135420E091E00DF091E10D8081E091E60DF091C5
S1135430E70D82FD12C090818091E90D8F5F8F731B
S11354402091EA0D821751F0E091E90DF0E0E0536C
S1135450F24F958F8093E90D01C08081FF91EF9108
S11354609F918F912F910F900BBE0F900FBE0F90B5
S11354701F9018951F920F920FB60F9211240BB61E
S11354800F922F933F934F935F936F937F938F93D9
S11354909F93AF93BF93EF93FF9380ED9DE09DDDCA
S11354A0FF91EF91BF91AF919F918F917F916F91F8
S11354B05F914F913F912F910F900BBE0F900FBEB4
S11354C00F901F90189580ED9DE010DD21E0892B51
S11354D009F420E0822F0895E0EDFDE013821282AA
S11354E088EE93E0A0E0B0E084839583A683B7833D
S11354F08CE79AE09183808385E391E095878487A4
S113550084E391E09787868780E391E0918B808B99
S113551081E391E0938B828B82E391E0958B848B82
S113552086E391E0978B868B118E128E138E148EE8
S1135530089508959AD4FDDF0E94F41CC3EBD7E2CA
S11355400E94371D2097E1F30EDDFACFCF92DF9250
S1135550EF92FF920F931F93CF93DF936C017A0125
S11355608B01C0E0D0E0CE15DF0589F0D8016D9144
S11355708D01D601ED91FC910190F081E02DC601E1
S11355801995892B11F47E0102C02196ECCFC70135
S1135590DF91CF911F910F91FF90EF90DF90CF900B
S11355A008956115710579F0FB0101900020E9F778
S11355B03197AF01461B570BDC01ED91FC91028042
S11355C0F381E02D199480E090E00895EACFDC01A6
S11355D0ED91FC910190F081E02D19946AE87AE054
S11355E0E0CF0F931F93CF93DF93EC01DADF8C01AD
S11355F0CE01F4DF800F911FDF91CF911F910F91A6
S113560008958F929F92AF92BF92CF92DF92EF92C2
S1135610FF920F931F93CF93DF93CDB7DEB7A1977C
S11356200FB6F894DEBF0FBECDBF7C01D42EC52EBD
S1135630DB0119A2223008F42AE08E010F5D1F4F0E
S1135640822E912CA12CB12C6D2D7C2DCD01A50188
S113565094015FD7D22EC32EDA01015011096A30AA
S113566071058105910510F4605D01C0695CF80164
S11356706083232B242B252B39F7B801C70191DF35
S1135680A1960FB6F894DEBF0FBECDBFDF91CF91C8
S11356901F910F91FF90EF90DF90CF90BF90AF904C
S11356A09F908F900895CF92DF92EF92FF920F9385
S11356B01F93CF93DF93EC016A017B012115310520
S11356C079F4E881F9810190F081E02D642FDF9174
S11356D0CF911F910F91FF90EF90DF90CF9019948D
S11356E02A303105D9F477FF18C06DE270DF8C01E0
S11356F044275527BA014C195D096E097F092AE030
S1135700CE017FDF800F911FDF91CF911F910F9109
S1135710FF90EF90DF90CF9008952AE0B701A601A3
S1135720CE01DF91CF911F910F91FF90EF90DF9009
S1135730CF9067CF9A01AB01770F660B770BB3CF8E
S11357400F931F93CF93DF93EC019A01AB01770F73
S1135750660B770BA8DF8C01CE0140DF800F911F11
S1135760DF91CF911F910F9108952115310541F4D7
S1135770DC01ED91FC910190F081E02D642F1994EE
S113578040CF4F925F926F927F928F929F92AF928F
S1135790BF92CF92DF92EF92FF92CF93DF93EC010F
S11357A06A017B01B22E9A01AB01C701B6019DD6F5
S11357B0882319F06DE87AE025C026013701E894C2
S11357C077F82FEF3FEF4FE75FE7C301B2018DD6C4
S11357D081110DC02FEF3FEF4FE75FE7C301B20127
S11357E00E94B82318161CF461E97AE00BC02FEF6D
S11357F03FEF4FE75FE4C701B601A1D9181694F44F
S113580065E97AE0CE01DF91CF91FF90EF90DF90D0
S1135810CF90BF90AF909F908F907F906F905F904C
S11358204F90BFCE2FEF3FEF4FE75FECC701B601BC
S11358300E94B82387FDE4CF20E030E0A901C7012E
S1135840B6010E94B82387FF09C06DE2CE01BFDE16
S11358504C01F7FAF094F7F8F09402C0812C912CE3
S1135860A12C60E070E080E09FE3AB1441F020E005
S113587030E040E251E40E94BF23A394F6CF9B01A1
S1135880AC01C701B6010E9454232B013C010E94C4
S11358902C246B017C010CD89B01AC01C301B20127
S11358A00E9453232B013C012AE0B701A601CE013B
S11358B0A8DE7C01E80CF91CBB2029F06EE2CE01C5
S11358C086DEE80EF91EDB2CDD2019F120E030E045
S11358D040E251E4C301B20136D92B013C010E94DC
S11358E02C244B01A12CB12C2AE0B501A401CE013A
S11358F088DEE80EF91EC501B4010E9458249B01FC
S1135900AC01C301B2010E9453232B013C01DA9480
S1135910DBCFC701DF91CF91FF90EF90DF90CF9065
S1135920BF90AF909F908F907F906F905F904F90BB
S1135930089527CF0F931F93CF93DF93EC0121DFBB
S11359408C01CE014BDE800F911FDF91CF911F910F
S11359500F9108950895883008F06FC0A82FB0E023
S1135960AA0FBB1FA35CB94F11967C936E9390E072
S1135970FC013197E730F10598F58827EE53FF4F86
S11359808F4F05C6809169008C7F482B4093690036
S1135990E89A089580916900440F551F440F551FDC
S11359A0837F482B40936900E99A089580916900A8
S11359B074E0440F551F7A95E1F78F7C482B409390
S11359C06900EA9A08958091690066E0440F551FC2
S11359D06A95E1F78F73482B40936900EB9A089519
S11359E080916A008C7F482B40936A00EC9A08955A
S11359F080916A00440F551F440F551F837F482B25
S1135A0040936A00ED9A089580916A0024E0440F5F
S1135A10551F2A95E1F78F7C482B40936A00EE9A34
S1135A20089580916A0096E0440F551F9A95E1F716
S1135A308F73482B40936A00EF9A08951F920F9238
S1135A400FB60F9211240BB60F922F933F934F93DF
S1135A505F936F937F938F939F93AF93BF93EF93D2
S1135A60FF93E0914106F09142061995FF91EF9161
S1135A70BF91AF919F918F917F916F915F914F9162
S1135A803F912F910F900BBE0F900FBE0F901F9060
S1135A9018951F920F920FB60F9211240BB60F9206
S1135AA02F933F934F935F936F937F938F939F9322
S1135AB0AF93BF93EF93FF93E0914306F0914406B5
S1135AC01995FF91EF91BF91AF919F918F917F9124
S1135AD06F915F914F913F912F910F900BBE0F905B
S1135AE00FBE0F901F9018951F920F920FB60F9232
S1135AF011240BB60F922F933F934F935F936F93A1
S1135B007F938F939F93AF93BF93EF93FF93E09112
S1135B104506F09146061995FF91EF91BF91AF911B
S1135B209F918F917F916F915F914F913F912F91B1
S1135B300F900BBE0F900FBE0F901F9018951F92E1
S1135B400F920FB60F9211240BB60F922F933F931F
S1135B504F935F936F937F938F939F93AF93BF9371
S1135B60EF93FF93E0914706F09148061995FF9152
S1135B70EF91BF91AF919F918F917F916F915F91C1
S1135B804F913F912F910F900BBE0F900FBE0F902E
S1135B901F9018951F920F920FB60F9211240BB6F7
S1135BA00F922F933F934F935F936F937F938F93B2
S1135BB09F93AF93BF93EF93FF93E0913D06F091D2
S1135BC03E061995FF91EF91BF91AF919F918F91EF
S1135BD07F916F915F914F913F912F910F900BBEE9
S1135BE00F900FBE0F901F9018951F920F920FB633
S1135BF00F9211240BB60F922F933F934F935F9301
S1135C006F937F938F939F93AF93BF93EF93FF9380
S1135C10E0913F06F09140061995FF91EF91BF91F5
S1135C20AF919F918F917F916F915F914F913F9130
S1135C302F910F900BBE0F900FBE0F901F901895D1
S1135C401F920F920FB60F9211240BB60F922F933F
S1135C503F934F935F936F937F938F939F93AF93F0
S1135C60BF93EF93FF93E0914906F0914A0619958B
S1135C70FF91EF91BF91AF919F918F917F916F9120
S1135C805F914F913F912F910F900BBE0F900FBEDC
S1135C900F901F9018951F920F920FB60F92112418
S1135CA00BB60F922F933F934F935F936F937F9312
S1135CB08F939F93AF93BF93EF93FF93E0914B0622
S1135CC0F0914C061995FF91EF91BF91AF919F917F
S1135CD08F917F916F915F914F913F912F910F9091
S1135CE00BBE0F900FBE0F901F9018951F920F922E
