S0150000736B657463685F6665623033612E737265633D
S11300000AC400000C94833D0C94AE3D0C94D93D7D
S11300100C94043E0C942F3E0C945A3E0C94853E52
S11300200C94B03E29C4000027C4000025C400007D
S113003023C4000021C400001FC400001DC400002C
S11300401BC400000C94173317C4000015C400002F
S113005013C4000011C400000FC400000C94DB3E64
S11300600BC400000C9429390C945F3905C40000BA
S113007003C4000001C40000FFC30000FDC300006E
S11300800C94F917F9C30000F7C30000F5C300008E
S1130090F3C30000F1C30000EFC300000C948B2FE6
S11300A0EBC30000E9C30000E7C30000E5C30000A0
S11300B0E3C30000E1C30000DFC30000DDC30000B0
S11300C0DBC30000D9C30000D7C300000C94BE39C1
S11300D00C94F439D1C300000C94533A0C94893A2B
S11300E0CBC30000084AD73B3BCE016E84BCBFFDA6
S11300F0C12F3D6C74319ABD56833DDA3D00C77FF4
S113010011BED9E4BB4C3E916BAAAABE000000808C
S11301103F05A84CCDB2D44EB93836A9020C50B91B
S1130120918688083CA6AAAA2ABE000000803F0740
S1130130634236B79BD8A71A39685618AEBAAB557E
S11301408C1D3CB7CC5763BD6DEDFD753EF6177243
S113015031BF000000803F08000000BE9224491215
S11301603EABAAAA2ABECDCCCC4C3E00000080BE39
S1130170ABAAAAAA3E00000000BF000000803F0016
S113018000000000084178D3BB4387D1133D190E0A
S11301903CC3BD4282AD2B3E68EC8276BED98FE172
S11301A0A93E4C80EFFFBE01C4FF7F3F000000006A
S11301B000005D3D273D2F3D3B3D483D693D763D7B
S11301C01640194008400C40124050401D40214048
S11301D027402B402F40354039403D40504043405C
S11301E047404B4000000000003E5B4F5B3E3E6BCF
S11301F04F6B3E1C3E7C3E1C183C7E3C181C577DBD
S1130200571C1C5E7F5E1C00183C1800FFE7C3E708
S1130210FF0018241800FFE7DBE7FF30483A060E1A
S11302202629792926407F050507407F05253F5A61
S11302303CE73C5A7F3E1C1C08081C1C3E7F1422D1
S11302407F22145F5F005F5F06097F017F0066897C
S1130250956A606060606094A2FFA29408047E04C2
S11302600810207E201008082A1C08081C2A0808E8
S11302701E101010100C1E0C1E0C30383E383006A8
S11302800E3E0E06000000000000005F00000007A4
S1130290000700147F147F14242A7F2A12231308D2
S11302A0646236495620500008070300001C2241AE
S11302B0000041221C002A1C7F1C2A08083E080852
S11302C00080703000080808080800006060002002
S11302D0100804023E5149453E00427F40007249E5
S11302E04949462141494D331814127F1027454589
S11302F045393C4A4949314121110907364949499F
S113030036464949291E000014000000403400000C
S11303100008142241141414141400412214080275
S1130320015909063E415D594E7C1211127C7F49E8
S11303304949363E414141227F4141413E7F49493D
S113034049417F090909013E414151737F08080869
S11303507F00417F41002040413F017F081422413A
S11303607F404040407F021C027F7F0408107F3E94
S11303704141413E7F090909063E4151215E7F0901
S1130380192946264949493203017F01033F404068
S1130390403F1F2040201F3F4038403F6314081453
S11303A06303047804036159494D43007F4141418B
S11303B00204081020004141417F0402010204406C
S11303C040404040000307080020545478407F28F0
S11303D04444383844444428384444287F385454E6
S11303E0541800087E090218A4A49C787F08040409
S11303F07800447D40002040403D007F10284400A8
S113040000417F40007C047804787C080404783838
S113041044444438FC1824241818242418FC7C0868
S1130420040408485454542404043F44243C4040E5
S1130430207C1C2040201C3C4030403C4428102898
S1130440444C9090907C4464544C440008364100E1
S11304500000770000004136080002010204023C5B
S11304602623263C1EA1A161123A4040207A38542A
S113047054555921555579412254547842215554A3
S1130480784020545579400C1E52721239555555F6
S113049059395454545939555454580000457C41E1
S11304A00002457D420001457C407D1211127DF021
S11304B0282528F07C545545002054547C547C0A4B
S11304C0097F4932494949323A4444443A324A4814
S11304D048303A4141217A3A42402078009DA0A018
S11304E07D3D4242423D3D4040403D3C24FF24246A
S11304F0487E4943662B2FFC2F2BFF0929F620C089
S1130500887E090320545479410000447D413048D9
S1130510484A32384040227A007A0A0A727D0D191C
S1130520317D2629292F28262929292630484D407E
S113053020380808080808080808382F10C8ACBA7A
S11305402F102834FA00007B000008142A142222F9
S1130550142A14085500550055AA55AA55AAFF5542
S1130560FF55FF000000FF00101010FF00141414CA
S1130570FF001010FF00FF1010F010F0141414FC12
S1130580001414F700FF0000FF00FF1414F404FC2F
S1130590141417101F10101F101F1414141F001010
S11305A01010F0000000001F101010101F10101089
S11305B010F010000000FF10101010101010101098
S11305C0FF10000000FF140000FF00FF00001F10D8
S11305D0170000FC04F414141710171414F404F492
S11305E00000FF00F714141414141414F700F71483
S11305F01414171410101F101F141414F4141010D2
S1130600F010F000001F101F0000001F1400000075
S1130610FC140000F010F01010FF10FF141414FF6D
S1130620141010101F00000000F010FFFFFFFFFF68
S1130630F0F0F0F0F0FFFFFF0000000000FFFF0FFC
S11306400F0F0F0F3844443844FC4A4A4A347E02A0
S1130650020606027E027E02635549416338444421
S11306603C04407E201E2006027E020299A5E7A5D6
S1130670991C2A492A1C4C7201724C304A4D4D3047
S11306803048784830BC625A463D3E494949007E6C
S11306900101017E2A2A2A2A2A44445F4444405103
S11306A04A444040444A51400000FF0103E080FFB7
S11306B0000008086B6B083612362436060F090F43
S11306C006000018180000001010003040FF01015F
S11306D0001F01011E00191D1712003C3C3C3C0088
S11306E00000000000000A0B02090C0D0E080703AD
S11306F004010000000000000000000000000000F1
S113070000000000000000000000000000000000E5
S113071012111000000000000000000000000000A2
S1130720000000000000000000000102102020086A
S11307300810204010204080020102010804020138
S113074001020408102040808040201008040201A7
S11307508004020180402010080402010804020100
S11307600102040810204080010204081020408087
S113077005050505070508080808020202020A0A19
S11307800808040404040101010101010101030337
S1130790030303030303040707070C0C0C0C0C0CE2
S11307A00C0C0202020206060606060606060B0BDF
S11307B00B0B0B0B0B0B0000200023002600290061
S11307C02C002F0032000001000003010601090182
S11307D000002200250028002B002E0031003400E8
S11307E002010000050108010B01000021002400A2
S11307F027002A002D00300033000101000004010D
S113080007010A01EF0F4E132F1585262432913963
S1130810263ABB3AD52611241FBECFEFD1E2DEBF64
S1130820CDBF00E00CBF1CE0A0E0B2E0E0E8F9E8D6
S113083000E00BBF02C007900D92A83FB107D9F7A3
S113084021E1A8EFBCE001C01D92AA3CB207E1F788
S113085014E0CAE0D4E000E006C021970109802F2B
S1130860FE010E945242C230D10780E00807A9F776
S11308700E94E93A0C94AF44C3CB80E090E0089521
S113088008952F923F924F925F926F927F928F9230
S11308909F92AF92BF92CF92DF92EF92FF920F930B
S11308A01F93CF93DF9300D0CDB7DEB74C017B838A
S11308B06A836A01590117019801241B350B37FF1C
S11308C003C0319521953109C5014A815B81841B9F
S11308D0950B97FF03C091958195910951E0598338
S11308E08217930714F019820BC09A2D8B2D58018F
S11308F0092F182F9A818B81DB82CA82C92ED82EA8
S11309008A819B81A816B9065CF49C2D8D2D680103
S1130910092F182F9A818B81BB82AA82A92EB82E07
S11309202501AA81BB814A1A5B0A38016C187D082B
S113093077FE03C0719461947108720157FE03C07D
S1130940BFEFEB1AFB0AF594E794C016D1061CF02E
S11309500FEF1FEF1FC001E010E01CC0D401ED91A8
S1130960FC91B9810484F585E02D9101BB23C1F08C
S11309704A815B81B601C4011995E618F708F7FEB0
S113098004C0C00ED11EE40CF51CEA81FB81319633
S1130990FB83EA834A815B81A416B506FCF604C096
S11309A0A6016A817B81E7CF0F900F900F90DF91B2
S11309B0CF911F910F91FF90EF90DF90CF90BF9058
S11309C0AF909F908F907F906F905F904F903F90EB
S11309D02F9008950895DC01ED91FC910084F18538
S11309E0E02D19940F931F93DC01ED91FC91048C7D
S11309F0F58DE02D19951F910F9108950F931F9375
S1130A00DC01ED91FC91068CF78DE02D19951F9179
S1130A100F910895EF92FF920F931F93DC01ED91D4
S1130A20FC9100A0F1A1E02D19951F910F91FF9069
S1130A30EF9008950895AF92BF92CF92DF92EF9214
S1130A40FF920F931F93CF93DF9300D01F92CDB7E4
S1130A50DEB75C016901DC01ED91FC910284F38550
S1130A60E02D4B835C8369837A831995D501ED91DD
S1130A70FC914B815C81C40ED51EB1E0CB1AD10828
S1130A800488F589E02D7801860169817A819B01CA
S1130A90C5011995D501ED91FC910688F789E02DE2
S1130AA0C5010F900F900F900F90DF91CF911F9180
S1130AB00F91FF90EF90DF90CF90BF90AF9019947B
S1130AC0AF92BF92CF92DF92EF92FF920F931F9358
S1130AD0CF93DF9300D01F92CDB7DEB75C016901DD
S1130AE0DC01ED91FC910284F385E02D4B835C8362
S1130AF069837A831995D501ED91FC9169817A8195
S1130B009B012C0D3D1D215031090488F589E02DF0
S1130B1078014B815C818A01C5011995D501ED915C
S1130B20FC910688F789E02DC5010F900F900F9076
S1130B300F90DF91CF911F910F91FF90EF90DF9075
S1130B40CF90BF90AF9019944F925F926F927F9223
S1130B508F929F92AF92BF92CF92DF92EF92FF92C9
S1130B600F931F93CF93DF931F921F92CDB7DEB7DE
S1130B706C015A0139014801DC01ED91FC910284B8
S1130B80F385E02D69837A8319956981462E7A81EC
S1130B90572E640C751CD601ED91FC914614570434
S1130BA06CF40088F189E02D87019401A501B2015C
S1130BB0C6011995BFEF4B1A5B0AEDCF0688F7897A
S1130BC0E02DC6010F900F90DF91CF911F910F91EF
S1130BD0FF90EF90DF90CF90BF90AF909F908F9059
S1130BE07F906F905F904F901994EF92FF920F93C4
S1130BF01F93DC01ED91FC9111971A960D911C91B4
S1130C001B9718962D913C91199700A0F1A1E02D06
S1130C107B0140E050E060E070E019951F910F9176
S1130C20FF90EF900895CF92DF92EF92FF920F938F
S1130C301F93CF93DF9300D000D0CDB7DEB76C0104
S1130C40DC01ED91FC916217730789F40417150711
S1130C502CF4942F852FA801092F182F041B150B92
S1130C6098012F5F3F4F048CF58DE02D12C0401783
S1130C70510709F5261737072CF4962F872FB9014A
S1130C80292F382F261B370B2F5F3F4F068CF78DEC
S1130C90E02D8701C601199526960FB6F894DEBF9C
S1130CA00FBECDBFDF91CF911F910F91FF90EF90B9
S1130CB0DF90CF9008950284F385E02D2D833E8349
S1130CC04B835C8369837A831995D601ED91FC91FA
S1130CD00488F589E02D2D813E814B815C816981F9
S1130CE07A81C6011995D601ED91FC910688F789A0
S1130CF0E02DC60126960FB6F894DEBF0FBECDBF19
S1130D00DF91CF911F910F91FF90EF90DF90CF90E3
S1130D1019946F927F928F929F92AF92BF92CF92CB
S1130D20DF92EF92FF920F931F93CF93DF93EC0127
S1130D304B015A0169013801E881F9810284F38584
S1130D40E02D1995E881F9810288F389E02D870166
S1130D509601A501B401CE011995E881F981A50197
S1130D60460D571D415051090288F389E02D960123
S1130D70B401CE011995E881F9810088F189E02D4B
S1130D809301A501B401CE011995E881F981C80C3C
S1130D90D91CB601615071090088F189E02D9301D5
S1130DA0A501CE011995E881F9810688F789E02D1E
S1130DB0CE01DF91CF911F910F91FF90EF90DF90C3
S1130DC0CF90BF90AF909F908F907F906F90199429
S1130DD00895FC016370658B848195812681378138
S1130DE0613039F0633029F0918780873387228717
S1130DF0089531872087938782870895FC011382A1
S1130E00128283E696E0918380837583648357839B
S1130E1046837187608753874287158A15861486AF
S1130E201786168681E0848B2FEF3FEF338B228B5E
S1130E30318B208B868B178A118E108E08952F92FA
S1130E403F924F925F926F927F928F929F92AF9256
S1130E50BF92CF92DF92EF92FF920F931F93CF93A3
S1130E60DF93CDB7DEB76C970FB6F894DEBF0FBE35
S1130E70CDBF9C8F8B8F5B011A011F830E833701BB
S1130E80C982DC0158964D915C91599741155105E1
S1130E9009F0E5C018968D919C9119976817790708
S1130EA00CF0CAC11A968D919C911B97281639068D
S1130EB00CF0C2C18C2C912CFB0136E0C39EE00DDA
S1130EC0F11D1124FB87EA871E161F060CF0B4C11E
S1130ED0C40133E0880F991F3A95E1F79D878C8709
S1130EE0820D931D181619060CF0A6C157968C9105
S1130EF0811103C0203B08F02F5FAB8DBC8DED91B9
S1130F00FC9111970284F385E02DCD012A8F199568
S1130F102A8DB5E02B9F90011124F5013596FF87AA
S1130F20EE872501BB82AA82A9014A195B09598B64
S1130F30488BC10108969B8B8A8BE889F989E40D5B
S1130F40F51DEC51FE4F949198873D822C826101EE
S1130F50A885A0FF13C0AB8DBC8DED91FC91B98128
S1130F60B13031F40484F585E02D2E813F8116C023
S1130F700684F785E02DEE80FF801AC0EE81FF81A4
S1130F806E167F06F1F0AB8DBC8DED91FC91B981AD
S1130F90B13051F40484F585E02D9301A601B2012A
S1130FA08B8D9C8D19950DC00684F785E02D7301FA
S1130FB0840194014C815D816A817B818B8D9C8D40
S1130FC01995E885E695E8872C813D81280D391D22
S1130FD03D832C833FEFC31AD30A4A895B89C41625
S1130FE0D50609F0B5CF8A819B81880D991D9B8315
S1130FF08A839FEF491A590AAE85BF854A165B0654
S113100009F09BCFEE81FF816E167F0609F4F2C0D2
S1131010EB8DFC8DA081B181F981F13079F4B501BA
S11310206B5F7F4F5096ED91FC915197830128E0BF
S113103030E0A1018B8D9C8D1995DCC06A857B8580
S1131040681979091E96ED91FC911F9773010C851F
S11310501D859401A1018B8D9C8D1995CBC0FA013E
S113106034969491329765917491291BCB01B7E022
S11310702B9F800D911D1124FA01259134913B8BF6
S11310802A8BFC01459154915B834A83FC0132967F
S1131090C490319654915C87329614913196D490D1
S11310A08981823058F0612E012E000C7708AD2D15
S11310B00D2C000CBB0BB987A88704C019861886B1
S11310C0612C712CAB8DBC8DED91FC911197028438
S11310D0F385E02DCD011995B9818B2E912C689C57
S11310E0C001699C900D789C900D1124FC01EA0DBF
S11310F0FB1DF98BE88B1C82712C612CE12F110FE5
S1131100FF0B95012E0F3F1F3B872A87AC0CB11CA8
S1131110A5014E0F5F1F5F8B4E8BC1018D0D911D7D
S1131120D7FC9A95998F888F4C85641608F062C015
S1131130862D90E048855985480F591F489D900198
S1131140499D300D589D300D1124D901A20DB31DB8
S1131150BF87AE87AA84BB8448885988DC80BA8557
S1131160DB1AE88DF98DE80FF91FFD8BEC8B8D2DC3
S11311708A0D2E893F89A216B306B9F1877061F4EE
S11311808A819B810196EA89FB89AA81BB81EA0F46
S1131190FB1F74909B838A8377FE20C0AB8DBC8D2C
S11311A0ED91FC91B981B13061F40484F585E02DB1
S11311B02E813F814C895D89B5018B8D9C8D19955C
S11311C00DC00684F785E02DEE80FF808401940134
S11311D04E855F85B2018B8D9C8D1995770C480CDB
S11311E0591CEFEFAE1ABE0AC2CF3C813C0D3C83C2
S11311F063949ACFAB8DBC8DED91FC9111970688C9
S1131200F789E02DCD016C960FB6F894DEBF0FBEC2
S1131210CDBFDF91CF911F910F91FF90EF90DF90A1
S1131220CF90BF90AF909F908F907F906F905F9082
S11312304F903F902F9019946C960FB6F894DEBFA0
S11312400FBECDBFDF91CF911F910F91FF90EF9013
S1131250DF90CF90BF90AF909F908F907F906F90D2
S11312605F904F903F902F900895AF92BF92CF928E
S1131270EF92FF920F931F93CF93DF93EC01262FEE
S1131280888D998D009709F03FC06A3059F41D8606
S11312901C862C898E859F8538E0239F800D911DA7
S11312A0112440C06D3009F4A8C08E898823C1F090
S11312B03C898C859D8546E0349F800D911D1124C9
S11312C048855985481759075CF41D861C868E8508
S11312D09F8548E0349F800D911D11249F878E8740
S11312E0EA88FB88088919894E855F856C857D8528
S11312F0CC88CE01A4DD2C898C859D8536E0239F86
S1131300800D911D112442C06A3079F41D861C861B
S11313102C89FC013696E4918E859F852E9F800D45
S1131320911D11249F878E8768C06D3009F465C0B4
S1131330FC0134963491631708F45FC03196E4914C
S1131340E61708F45AC0FC013296A590B490462FD3
S113135050E0431B510937E0349FB001359F700DB5
S11313601124A60EB71EF501329634913196E491FC
S1131370332311F0E1110DC0F5013496E4912C8969
S11313808C859D85E29F800D911D11249D878C87FE
S113139034C0F501359644915E89552311F16C8969
S11313A0E32FF0E0E40FF11D47FDFA956E9FD001A5
S11313B06F9FB00D11244C855D854A0F5B1FE88536
S11313C0F985E417F5076CF41D861C86FC01369636
S11313D0E4918E859F856E9F800D911D11249F87BA
S11313E08E87EA88FB88088919894E855F856C8514
S11313F07D85CC88CE0123DDBFCF81E090E0DF91F5
S1131400CF911F910F91FF90EF90CF90BF90AF902D
S11314100895FC017587648757874687089561118D
S113142001C061E0FC01648B0895FC01738B628B45
S1131430718B608B0895FC0185890895FC0180857A
S113144091850895FC018285938508950F931F93D8
S1131450CF93DF93DC01FB0155968C915597823035
S113146089F0833021F1813009F0E6C014968D9122
S11314709C911597BC01641B750BAB01415051093C
S1131480BF011DC014966D917C911597CB018E1BE5
S11314909F0BFC0116968D919C911797BC01641BC0
S11314A0750BAB0141505109E21BF30BC5C01696F5
S11314B06D917C9117976E1B7F0B621B730B57FD0D
S11314C01AC114968D919C911597481759070CF0E1
S11314D012C177FF04C0260F371F60E070E0169634
S11314E08D919C911797FB01E20FF31F8E179F07B5
S11314F01CF49C01261B370B121613060CF0FBC0C0
S1131500A22F862F86958695869590E8899F400D13
S1131510511D1124FA01EA5EFD4F6770A9F198E0AC
S1131520961B492F50E0EA01C25FDD4F88812917DD
S113153090F4421B51092FEF30E002C035952795F6
S11315404A95E2F782230130110541F068F0023038
S1131550110589F0D0C00130110519F42081822BC6
S11315600CC00130110520F480952081822305C030
S11315700230110531F4208182278083A91708F4F1
S1131580BAC0A91BE058FF4FA83048F1023011053A
S113159059F4EF018A2F988190959883C058DF4FB2
S11315A088508830C0F732C081E00130110509F05D
S11315B080E08195EF019A2F8883C058DF4F9850BF
S11315C09830D0F788EF8A0F86958695869560E8DF
S11315D0869FE00DF11D1124E058FF4FA770AA2348
S11315E009F489C0B0E0AA5FBD4F8C9101301105A8
S11315F029F038F002301105E1F07DC09081892B8B
S113160003C0809590818923808375C088EF8A0FF9
S113161086958695869570E8879FE00DF11D1124C7
S1131620E058FF4FA77009F466C0B0E0AA5FBD4F51
S11316308C9190818927E8CF57FD5DC016968D91D6
S11316409C911797481759070CF055C0F7FF04C031
S11316502E0F3F1FE0E0F0E014968D919C911597BA
S1131660BF01620F731F861797071CF49C012E1B82
S11316703F0B121613060CF03EC0CA0157FD079625
S113168063E0959587956A95E1F79695982F882755
S113169097958795E80FF91FEA5EFD4F4770552728
S11316A081E090E001C0880F4A95EAF7482F0130A5
S11316B0110539F078F002301105E9F42E0F3F1FBF
S11316C013C02E0F3F1FE217F307A9F08081842B6C
S11316D08193F9CF80952E0F3F1FE217F30759F03E
S11316E0908198239193F9CFE217F30721F0808139
S11316F084278193F9CFDF91CF911F910F910895A2
S11317000F931F93CF93DF93DC0155968C915597DC
S1131710823071F0833009F1813009F08CC0149665
S1131720ED91FC911597E41BF50BE21BF30B20C024
S11317301496ED91FC911597CF01861B970BBC0174
S1131740615071091696ED91FC911797CF01841B96
S1131750950BAC01421B530B6EC01696ED91FC9198
S11317601797CF01861B970BBC0161507109FA01D1
S113177077FD1BC116968D919C9117976817790771
S11317800CF013C1F7FF04C02E0F3F1FE0E0F0E0A0
S113179014968D919C911597AF01420F531F841796
S11317A095071CF49C012E1B3F0B121613060CF01C
S11317B0FCC0CB0177FD079643E0959587954A9544
S11317C0E1F79695982F882797958795E80FF91F45
S11317D0EA5EFD4F6770772781E090E001C0880FD3
S11317E06A95EAF7482F0130110541F088F002307C
S11317F0110509F0DAC02E0F3F1F15C02E0F3F1F31
S1131800E217F30709F4D1C08081842B8193F8CFC8
S113181080952E0F3F1FE217F30709F4C6C090818D
S113182098239193F8CFE217F30709F4BEC080819F
S113183084278193F8CF77FDB8C014968D919C913D
S11318401597681779070CF0B0C057FF04C0240F30
S1131850351F40E050E016968D919C911797FA0140
S1131860E20FF31F8E179F071CF49C01241B350BFA
S1131870121613060CF099C0A22F842F8695869514
S1131880869590E8899F600D711D1124FB01EA5E25
S1131890FD4F4770A9F198E0941B492F50E0EA01ED
S11318A0C25FDD4F8881291790F4421B51092FEF45
S11318B030E002C0359527954A95E2F7822301303E
S11318C0110541F068F00230110589F06EC0013055
S11318D0110519F42081822B0CC00130110520F46C
S11318E080952081822305C00230110531F42081C6
S11318F082278083A91708F458C0A91BE058FF4F1A
S1131900A83048F10230110559F4EF018A2F98816B
S113191090959883C058DF4F88508830C0F730C006
S113192081E00130110509F080E08195EF019A2FE3
S11319308883C058DF4F98509830D0F788EF8A0FCB
S113194086958695869590E8899FE00DF11D112472
S1131950E058FF4FA770AA2341F1B0E0AA5FBD4F42
S11319608C910130110529F038F002301105D1F0C5
S11319701CC09081892B18C080959081892314C044
S113198088EF8A0F86958695869590E8899FE00D65
S1131990F11D1124E058FF4FA77039F0B0E0AA5FA1
S11319A0BD4F8C91908189278083DF91CF911F91C6
S11319B00F910895CF92DF92EF92FF920F931F93AE
S11319C0CF93DF937C018B01EA01690177FD9DC010
S11319D035DD081719070CF098C0D7FD96C0C7016C
S11319E031DDC817D9070CF090C0C70124DD82305F
S11319F009F07FC0F70164817581CB01801B910BD5
S1131A008C010150110946815781FA01EC1BFD0B31
S1131A10EF0121970BC0813049F4F701848195814E
S1131A208C1B9D0BE8018C0101501109F1E0CF16CC
S1131A30D10431F010F182E0C816D104E1F165C09F
S1131A40FE01D7FD379643E0F595E7954A95E1F712
S1131A50F695FE2FEE27F795E7950E0F1F1FF80159
S1131A60EA5EFD4FC770DD2781E090E001C0880F7A
S1131A70CA95EAF79081892B3AC0FE01D7FD3796C3
S1131A8023E0F595E7952A95E1F7F695FE2FEE27E5
S1131A90F795E7950E0F1F1FF801EA5EFD4FC7701B
S1131AA0DD2781E090E001C0880FCA95EAF78095B0
S1131AB0908189231CC0FE01D7FD379683E0F595FC
S1131AC0E7958A95E1F7F695FE2FEE27F795E795CA
S1131AD00E0F1F1FF801EA5EFD4FC770DD2781E07E
S1131AE090E001C0880FCA95EAF790818927808326
S1131AF00CC0833009F08FCFF70186819781801B5A
S1131B00910B8E01EC01219791CFDF91CF911F9121
S1131B100F91FF90EF90DF90CF9008951F93CF9394
S1131B20DF93EC01162F40E450E060E870E066D9E2
S1131B308FE896E0998388838FEF8C8F88A38E8FAC
S1131B408D8F1F8FDF91CF911F91089580E094E0D6
S1131B50E6E1F2E0DF019C011D9221503040E1F703
S1131B600895FC0181A1882339F06EBD00000DB4F5
S1131B7007FEFDCF8EB5089528E030E090E8A4A1DB
S1131B80B5A14C9183A5809584238C93A2A1B3A184
S1131B9082A5492F462319F04C91842B03C04C9104
S1131BA0809584238C93A4A1B5A14C9183A5842B07
S1131BB08C9396952150310911F708951F93CF9373
S1131BC0DF93EC01162F8C8D8F3F01F1EEA1FFA165
S1131BD090818CA5892B8083E8A5F9A590818DA59A
S1131BE0809589238083EEA1FFA190818CA58095A7
S1131BF089238083CE01B5DFEEA1FFA190818CA55E
S1131C00892B8083DF91CF911F9108958A8D682F4E
S1131C10880F770B80E99FE00E94A83160E080E99B
S1131C209FE00E944431612F80E99FE00E9444318B
S1131C3080E99FE0DF91CF911F910C941D320F93A7
S1131C401F93CF93DF93EC01162F022F6B8F4A8FD4
S1131C508C8D8F3F09F48CC061E08E8D0E945140C1
S1131C6061E088A10E94514088A1082E000C990BC4
S1131C70FC01E059F84FE491F0E0EE0FFF1FE05350
S1131C80F84F259134913FA32EA3FC01E65DF84F54
S1131C90E491ECA78E8D082E000C990BFC01E05901
S1131CA0F84FE491F0E0EE0FFF1FE053F84F259159
S1131CB0349139A728A7FC01E65DF84FE491EDA71C
S1131CC089A1811134C061E08C8D0E94514061E092
S1131CD08D8D0E9451408D8D082E000C990BFC01B6
S1131CE0E059F84FE491F0E0EE0FFF1FE053F84F96
S1131CF0259134913DA32CA3FC01E65DF84FE491BA
S1131D00EBA78C8D082E000C990BFC01E059F84FC1
S1131D10E491F0E0EE0FFF1FE053F84F259134916A
S1131D203BA32AA3FC01E65DF84FE491EAA789A14D
S1131D30882311F10E943F2E8091200F882399F06F
S1131D402FB7F8948091200F813059F48DB380938C
S1131D501E0F9DB380911F0F809589238DBB2FBFCC
S1131D6002C020931E0F80E58CBD81E08DBD04C0B0
S1131D7080E99FE00E9482310023F1F08F8D87FD7E
S1131D801BC061E00E94514061E08F8D0E948D4034
S1131D9061E070E080E090E00E94563F60E08F8D4B
S1131DA00E948D406AE070E080E090E00E94563F1F
S1131DB061E08F8D0E948D406EEACE01FFDE65EDFD
S1131DC0CE01FCDE60E8CE01F9DE68EACE01F6DE83
S1131DD06FE3CE01F3DE63EDCE01F0DE60E0CE0111
S1131DE0EDDE60E4CE01EADE6DE8CE01E7DE11301F
S1131DF011F460E101C064E1CE01E0DE60E2CE01F5
S1131E00DDDE60E0CE01DADE61EACE01D7DE68EC29
S1131E10CE01D4DE6AEDCE01D1DE62E1CE01CEDEAA
S1131E2061E8CE01CBDE113011F46FE901C06FEC33
S1131E30CE01C4DE69EDCE01C1DE113011F462E2DF
S1131E4001C061EFCE01BADE6BEDCE01B7DE60E416
S1131E50CE01B4DE64EACE01B1DE66EACE01AEDEC6
S1131E606EE2CE01ABDE6FEACE01DF91CF911F911E
S1131E700F91A4CEDF92EF92FF920F931F93CF9313
S1131E80DF93EC0161E29ADE60E0CE0197DE6FE75A
S1131E90CE0194DE62E2CE0191DE60E0CE018EDE00
S1131EA067E0CE018BDE8C8D8F3F29F1EEA1FFA17F
S1131EB090818CA5892B8083E8A5F9A590818DA5B7
S1131EC0892B8083EEA1FFA190818CA58095892325
S1131ED0808306E112E0F80161918F01CE0141DEB9
S1131EE0F6E006311F07B9F7EEA1FFA190818CA59A
S1131EF0892B808331C0D090B8008CE08093B800E7
S1131F0006E112E06A8D062E000C770B80E99FE053
S1131F100E94A83160E480E99FE00E944431E12CF2
S1131F20F12CF801EE0DFF1D608180E99FE00E9415
S1131F3044318FEFE81AF80AE0E1EE16F10489F76C
S1131F4080E99FE00E941D32005F1F4FF6E00631DA
S1131F501F07C1F6D092B800DF91CF911F910F9166
S1131F60FF90EF90DF900895DC01ED91FC910190DA
S1131F70F081E02D199465EA70E080E291E1F4DFEC
S1131F8061E570E080E291E1EFCF65EA70E080E224
S1131F9091E1EADF65E570E080E291E1E5CFCF937E
S1131FA0DF93EC0126E040E052EC61E070E080E277
S1131FB091E10E94C43868EB7BE080E090E00E94ED
S1131FC0563FCE01E2DF65EA70E080E291E1CCDFCA
S1131FD062E570E080E291E1DF91CF91C5CFE8EF57
S1131FE0FCE0148A158A0895FF920F931F93CF93F0
S1131FF0DF93EC01FF24F39480E291E10E94C53762
S1132000892BC1F00C8910E080E291E10E94DF3756
S1132010FE01E00FF11F84878C89811104C09C8527
S11320209A3A09F056C08F5F8C8B883029F71C8A46
S1132030FD8AE2CF8D89813009F04BC08C858A3AC4
S113204009F046C08B89853509F042C06D8570E082
S1132050762F66278E85682B072E000C880B990B2C
S11320600E94AB3420E030E048EC52EC0E94103483
S1132070688379838A839B836F8570E0762F6627D4
S11320808889682B072E000C880B990B0E94AB34AF
S113209020E030E048EC52E40E9410346C837D83ED
S11320A08E839F83698970E0762F66278A89682BDF
S11320B0072E000C880B990B0E94AB3420E030E013
S11320C048EC52E40E941034688779878A879B879A
S11320D01D8ADF91CF911F910F91FF900895CF93A7
S11320E0DF93FC0188E0DF01C82F1D92CA95E9F750
S11320F0DF011896ED0119928A95E9F7148E158E71
S1132100168E178E10A280E090E0A0E8BFE3808BCB
S1132110918BA28BB38B848B958BA68BB78B808F83
S1132120918FA28FB38FDF91CF910895CF93DF93D7
S1132130EA0170E080E99FE00E94A83167EB76E055
S113214080E99FE00E94353B4AE050E0BE0180E90F
S11321509FE00E94EF3B80E99FE0DF91CF910C94D8
S11321601D32CF92DF92EF92FF920F931F93CF9382
S1132170DF93EC016A017901AB0161E0D7DFA601CD
S113218062E0CE01D3DFA70163E0CE01CFDFA80177
S113219064E0CE01DF91CF911F910F91FF90EF90FA
S11321A0DF90CF90C3CF4F925F926F927F92AF92A6
S11321B0BF92CF92DF92EF92FF920F931F93CF9330
S11321C0DF9300D01F92CDB7DEB729013A01E9822F
S11321D0FA820B831C8370E080E99FE00E94A8319F
S11321E06AEB76E080E99FE00E94353B22E030E034
S11321F0B301A20180E99FE00E94FE3C6EEB76E011
S113220080E99FE00E94353B22E030E049815A8119
S11322106B817C8180E99FE00E94FE3C62EC76E069
S113222080E99FE00E94353B22E030E0B601A50141
S113223080E99FE00E94FE3C80E99FE00E943D3BD4
S113224080E99FE00F900F900F900F90DF91CF9156
S11322501F910F91FF90EF90DF90CF90BF90AF90C0
S11322607F906F905F904F900C941D32AF92BF920D
S1132270CF92DF92EF92FF920F931F93CF93DF934E
S1132280EC01A88CB98CCA8CDB8CEC88FD880E8997
S11322901F89288939894A895B8961E084DFA88C90
S11322A0B98CCA8CDB8CEC88FD880E891F8928893F
S11322B039894A895B8962E0CE0175DFA88CB98CC3
S11322C0CA8CDB8CEC88FD880E891F8928893989A2
S11322D04A895B8963E0CE0166DFA88CB98CCA8C1D
S11322E0DB8CEC88FD880E891F89288939894A8905
S11322F05B8964E0CE0157DFDF91CF911F910F918D
S1132300FF90EF90DF90CF90BF90AF900895CF9360
S1132310DF931F92CDB7DEB780E99FE069830E9407
S11323208231698170E041E050E080E99FE00E94E1
S11323301B3280E99FE00E94B930892B39F080E993
S11323409FE00F90DF91CF910C94C1300F90DF91FB
S1132350CF910895AF92BF92CF92DF92EF92FF9206
S11323600F931F93CF93DF93EC0180E99FE00E94CA
S1132370823166EC76E086EE9FE00E94403B86E088
S1132380A82EB12CC88CD98CEA8CFB8C0C891D89A5
S11323902E893F89488959896A897B89CE0166DFFC
S11323A069EC76E086EE9FE00E94403B61E0CE015E
S11323B0AEDF6C0162E0CE01AADF7C0163E0CE01F6
S11323C0A6DF8C0164E0CE01A2DF9C0181E0C81687
S11323D0D10469F482E0E816F10449F403301105EC
S11323E031F42430310519F481E08C8F04C01C8E43
S11323F0CA94CD2811F481E08D8F82E0E816F104AF
S113240011F481E08E8F0330110511F481E08F8F78
S11324102430310511F481E088A381E0A81AB108C1
S113242009F0B0CF6DEC76E086EE9FE0DF91CF91BE
S11324301F910F91FF90EF90DF90CF90BF90AF90DE
S11324400C94403B089526E083E890E10E94C43850
S113245061ED76E083E890E10C94403B4F925F920B
S11324606F927F928F929F92AF92BF92CF92DF92A0
S1132470EF92FF920F931F932A013B0148015901E8
S113248067EB76E083E890E10E94353B4AE050E058
S113249060E070E083E890E10E94E93B6DED76E056
S11324A083E890E10E94353B4AE050E060E070E050
S11324B083E890E10E94E93B68E07CE083E890E1F6
S11324C00E94353B22E030E0B301A20183E890E1B1
S11324D00E94FE3C6CE07CE083E890E10E94353B86
S11324E022E030E0B501A40183E890E10E94FE3CC3
S11324F06BEB76E083E890E10E94353B22E030E02C
S1132500B701A60183E890E11F910F91FF90EF902E
S1132510DF90CF90BF90AF909F908F907F906F90FF
S11325205F904F900C94FF3CCF93DF93EC0180E9D4
S11325309FE00E94823167EE76E086EE9FE00E9483
S1132540403B6881798180E99FE00E94A8316AEF6D
S113255076E080E99FE00E94403B80E99FE0DF91C4
S1132560CF910C941D324F925F926F927F928F9213
S11325709F92AF92BF92CF92DF92EF92FF920F930E
S11325801F93CF93DF93EC012A013B0148015901CA
S113259061E077E086EE9FE00E94353B6DE077E0F6
S11325A086EE9FE00E94353B22E030E0B301A201B9
S11325B086EE9FE00E94FE3C60E177E086EE9FE0BD
S11325C00E94353B22E030E0B501A40186EE9FE095
S11325D00E94FE3C69E37CE086EE9FE00E94353B6E
S11325E022E030E0B701A60186EE9FE00E94FE3CA7
S11325F063E177E086EE9FE00E94403B6881798149
S113260080E99FE00E94A83168EF7BE080E99FE0C9
S11326100E94353B6DE077E080E99FE00E94353B06
S113262022E030E0B301A20180E99FE00E94FE3C79
S113263060E177E080E99FE00E94353B22E030E0F2
S1132640B501A40180E99FE00E94FE3C69E37CE0BF
S113265080E99FE00E94353B22E030E0B701A6010B
S113266080E99FE00E94FE3C66EA7CE080E99FE00E
S11326700E94403B80E99FE0DF91CF911F910F9131
S1132680FF90EF90DF90CF90BF90AF909F908F908E
S11326907F906F905F904F900C941D32EEE0FDE0C0
S11326A085E090E0918380831382128214820895DE
S11326B0FC011182108213821282158214822AE094
S11326C030E03783268380E490E0918780873387E6
S11326D022871586148622E130E037872687918B7E
S11326E0808B338B228B158A148A2CE130E0378B54
S11326F0268B918F808F338F228F158E148E24E238
S113270030E0378F268F11A210A22EE230E033A3DF
S113271022A395A384A337A326A311A610A646E358
S113272050E053A742A715A614A637A726A791AB36
S113273080AB33AB22AB15AA14AA57AB46AB0895B2
S113274021E04CE362E083E19DE079DA83E19DE0FE
S113275091DB68EE73E080E090E00E94563F83E1F5
S11327609DE0F4C92F923F924F925F926F927F92B5
S11327708F929F92AF92BF92CF92DF92EF92FF928D
S11327800F931F93CF93DF93CDB7DEB762970FB646
S1132790F894DEBF0FBECDBF1C017A8369835C83CE
S11327A04B833E832D8348A459A46AA47BA48EA59D
S11327B09FA5A8A9B9A98F839887A987BA878AA949
S11327C09BA9ACA9BDA98B879C87AD87BE878EA921
S11327D09FA9A8ADB9AD8F87988BA98BBA8B61E0FF
S11327E083E19DE00E940F0A61E070E083E19DE0D7
S11327F00E94150A40E050E060E070E083E19DE053
S11328000E94090A83E19DE0A1D96BE277E083E1AC
S11328109DE00E94353B0E94253FAB01BC012AE0AC
S113282030E083E19DE00E94043CD10116964D9175
S11328305C91179714966D917C91159783E19DE0B7
S11328400E94090A61E377E083E19DE00E94353B41
S11328504AE050E069817A8183E19DE00E94E93B8E
S1132860F101428553856085718583E19DE00E9475
S1132870090A65E377E083E19DE00E94353B4AE085
S113288050E06D817E8183E19DE00E94E93BD101AE
S11328901E964D915C911F971C966D917C911D978E
S11328A083E19DE00E94090A69E377E083E19DE00A
S11328B00E94353B4AE050E06B817C8183E19DE0DE
S11328C00E94E93BF101428953896089718983E15E
S11328D09DE00E94090A6DE377E083E19DE00E9498
S11328E0353B4AE050E0B80183E19DE00E94E93BBA
S11328F0D10156964D915C91579754966D917C9168
S1132900559783E19DE00E94090A61E477E083E141
S11329109DE00E94353B22E030E0B701A60183E14F
S11329209DE00E94FE3CF101428D538D608D718DBE
S113293083E19DE00E94090A67E477E083E19DE07A
S11329400E94353B22E030E0B501A40183E19DE023
S11329500E94FE3CD1015E964D915C915F975C961E
S11329606D917C915D9783E19DE00E94090A6DE47D
S113297077E083E19DE00E94353B22E030E0B30143
S1132980A20183E19DE00E94FE3CF10146A557A50A
S113299064A575A583E19DE00E94090A63E577E0DB
S11329A083E19DE00E94353B22E030E04F81588571
S11329B069857A8583E19DE00E94FE3CD101D2962F
S11329C04D915C91D397D0966D917C91D19783E191
S11329D09DE00E94090A68E577E083E19DE00E949A
S11329E0353B22E030E04B855C856D857E8583E157
S11329F09DE00E94FE3CF10146A957A964A975A96E
S1132A0083E19DE00E94090A6FE577E083E19DE0A0
S1132A100E94353B22E030E04F85588969897A89E4
S1132A2083E19DE00E94FE3C83E19DE062960FB647
S1132A30F894DEBF0FBECDBFDF91CF911F910F91F0
S1132A40FF90EF90DF90CF90BF90AF909F908F90CA
S1132A507F906F905F904F903F902F900BCA64E0EF
S1132A6083E19DE05BC84F925F926F927F92AF9239
S1132A70BF92CF92DF92EF92FF920F931F93CF9367
S1132A80DF93EC015B01CA01B9012AA33BA34CA368
S1132A905DA32BED3FE049E450E40E94C4356C870C
S1132AA07D878E879F87B9A2A8A2EEA2FFA208A75E
S1132AB019A7B601DD0C880B990B0E94AB349B015E
S1132AC0AC0160E070E080E090E40E94273620E0F2
S1132AD030E040E85FE30E9442336AA77BA78CA7FB
S1132AE09DA7DF91CF911F910F91FF90EF90DF9001
S1132AF0CF90BF90AF907F906F905F904F9008956C
S1132B002F923F924F925F926F927F928F929F92F9
S1132B10AF92BF92CF92DF92EF92FF920F931F93E7
S1132B20CF93DF93CDB7DEB760970FB6F894DEBFCF
S1132B300FBECDBF1C01CB01BA014801590120E0F1
S1132B4030E040E752E40E94C43569877A878B8776
S1132B509C87D1016D937D938D939C93139720E073
S1132B6030E040E752E4C501B4010E94C4352B01B2
S1132B703C01F101648375838683978320E030E010
S1132B8040E752E4C701B6010E94C435D10118964A
S1132B906D937D938D939C931B9796962D913D9168
S1132BA04D915C9199970E94C4356D877E878F877C
S1132BB0988BF101608B718B828B938B84849584C9
S1132BC0A684B784A501940169857A858B859C8543
S1132BD00E9410346B017C01D10154966D937D9356
S1132BE08D939C935797A5019401C301B2010E9450
S1132BF010342B013C01F101608F718F828F938F10
S1132C00A50194016D857E858F8598890E94103475
S1132C104B015C01D1015C966D937D938D939C93E4
S1132C205F97A3019201C701B6010E9442336987ED
S1132C307A878B879C87A3019201C701B6010E9402
S1132C4043336B017C01A501940169857A858B85E9
S1132C509C850E9443330E947834662E7A8369836C
S1132C60A5019401C701B6010E9443330E94783440
S1132C70762E7C836B83A5019401C701B6010E9463
S1132C8042330E947834F62E7E836D83A50194012D
S1132C9069857A858B859C850E9442330E947834AD
S1132CA0862F262F372F38872F83262D3A81472DBD
S1132CB05C816F2D7E81988560960FB6F894DEBF97
S1132CC00FBECDBFDF91CF911F910F91FF90EF9079
S1132CD0DF90CF90BF90AF909F908F907F906F9038
S1132CE05F904F903F902F900895CF92DF92EF9294
S1132CF0FF92CF93DF93EC01072E000C880B990B06
S1132D000E94AB346B017C0148A159A1BA01550F53
S1132D10880B990B0E94AB349B01AC01C701B6012F
S1132D200E9410342AA53BA54CA55DA50E94C4357C
S1132D300E947834CB01DF91CF91FF90EF90DF9028
S1132D40CF9008954F925F926F927F928F929F924D
S1132D50AF92BF92CF92DF92EF92FF920F931F93A5
S1132D60CF93DF93CDB7DEB760970FB6F894DEBF8D
S1132D700FBECDBF5C01C4DE29873A874B875C87D1
S1132D806D877E878F87988B69857A85C501ADDFCE
S1132D904C016B857C85C501A8DF6C016D857E8542
S1132DA0C501A3DF8C016F857889C5019EDF7C0195
S1132DB0B40197FE04C066277727681979096F3F25
S1132DC0710509F024F5C601D7FE04C088279927A8
S1132DD08C199D098F3F910509F0CCF4C80117FFA8
S1132DE004C088279927801B910B8F3F910511F010
S1132DF00CF051C0C701F7FE04C0882799278E192B
S1132E009F098F3F910511F00CF045C09FC0072E1C
S1132E10000C880B990B0E94AB349B01AC0160E061
S1132E2070E08FE793E40E9410342B013C01B80159
S1132E30110F880B990B0E94AB34A30192010E94DD
S1132E40C4350E9478348B01B701FF0C880B990BB1
S1132E500E94AB34A30192010E94C4350E947834CD
S1132E607B01B401990C880B990B0E94AB34A3012C
S1132E7092010E94C4350E9478344B01B601DD0CE6
S1132E80880B990B0E94AB34A30192010E94C435B4
S1132E900E9478346B01B80117FF04C066277727B6
S1132EA0601B710B6F3F710509F064F4C701F7FEF5
S1132EB004C0882799278E199F098F3F910509F02F
S1132EC00CF444C0072E000C880B990B0E94AB3401
S1132ED09B01AC0160E070E08FE793E40E94103442
S1132EE02B013C01B801110F880B990B0E94AB34E4
S1132EF0A30192010E94C4350E9478348B01B7016A
S1132F00FF0C880B990B0E94AB34A30192010E9421
S1132F10C4350E9478347B01B401990C880B990B59
S1132F200E94AB34A30192010E94C4350E947834FC
S1132F304B01B601DD0C880B990B0E94AB34A30145
S1132F4092010E94C4350E9478346B019A8289826E
S1132F50DC82CB821E830D83F886EF82282D3A8192
S1132F604C2D5C81602F7E818E2D988560960FB6E6
S1132F70F894DEBF0FBECDBFDF91CF911F910F91AB
S1132F80FF90EF90DF90CF90BF90AF909F908F9085
S1132F907F906F905F904F900895FC0182E0808352
S1132FA083E0818384E0828385E0838315821482B5
S1132FB081E090E0978386831186108693878287C9
S1132FC008950895CF93DF93EC0166EF7BE00E94B0
S1132FD08A4181E090E09F838E83198618861B8640
S1132FE01A868FB780688FBFDF91CF9108950C94B4
S1132FF023411F920F920FB60F9211240BB60F921A
S11330002F933F934F935F936F937F938F939F93EC
S1133010AF93BF93EF93FF93E0911606F0911706D9
S11330201995FF91EF91BF91AF919F918F917F91EE
S11330306F915F914F913F912F910F900BBE0F9025
S11330400FBE0F901F901895CF93DF93EC01198258
S113305018821A821B821C821D821E821F8218867D
S113306019861A868FE790E09C878B879E878D87C9
S1133070988B8F879A8B898B66EF7BE0CE01439682
S11330800E948A4181E0898FDF91CF910895CF9288
S1133090EF920F93CF93DF93EC0126E040E052ECE4
S11330A061E070E086EE9FE00E94C4386CE271E05B
S11330B080E090E00E94563FC12CE12C0DE02AE014
S11330C04BE06CE081E49DE00E94D921282F30E0A0
S11330D0398328832115310569F568E677E086EEA2
S11330E09FE00E94353B61E977E086EE9FE00E9415
S11330F0353B6EE977E086EE9FE00E94403B64EA50
S113310077E086EE9FE00E94353B6EE977E086EE3D
S11331109FE00E94403B6EEA77E086EE9FE00E94CB
S1133120403B62E078E086EE9FE00E94403B6BE328
S113313078E011C02130310519F46BE778E00BC059
S11331402230310519F461EF78E005C023303105F0
S113315031F461E779E086EE9FE00E94403B81E430
S11331609DE029D78A83813059F038F0823059F0B4
S11331708330A1F46FEE79E008C063EB79E005C019
S11331806DEF79E002C062ED79E086EE9FE0DF91B9
S1133190CF910F91EF90CF900C94353BDF91CF916D
S11331A00F91EF90CF9008951F93CF93DF93FC017D
S11331B02281223009F473C1EC01438160E081E48F
S11331C09DE0F6D768E070E081E49DE0E3D68823D3
S11331D061F069E17AE086EE9FE00E94403B69E19C
S11331E07AE0CE0143960E94BB4161E070E081E445
S11331F09DE0D0D6882361F06DE27AE086EE9FE010
S11332000E94403B6DE27AE0CE0143960E94BB41AE
S113321060E170E081E49DE0BDD68823C9F062E4FA
S11332207AE086EE9FE00E94353B6BE081E49DE00E
S1133230BDD64AE050E0682F86EE9FE00E94103C25
S113324081E08C8365E57AE0CE0143960E94BB4120
S113325060E270E081E49DE09DD68823C9F066E6D3
S11332607AE086EE9FE00E94353B69E081E49DE0D0
S11332709DD64AE050E0682F86EE9FE00E94103C05
S113328081E08F836DE77AE0CE0143960E94BB41D3
S113329060E870E081E49DE07DD68823C9F061E9AF
S11332A07AE086EE9FE00E94353B6AE081E49DE08F
S11332B07DD64AE050E0682F86EE9FE00E94103CE5
S11332C081E08E8367EA7AE0CE0143960E94BB4197
S11332D060E470E081E49DE05DD68823C9F06AEB88
S11332E07AE086EE9FE00E94353B6CE081E49DE04D
S11332F05DD64AE050E0682F86EE9FE00E94103CC5
S113330081E08D8360ED7AE0CE0143960E94BB415B
S11333106FE081E49DE04AD68B8381E49DE0E9D5AA
S1133320882309F45FC062E070E081E49DE032D656
S1133330882361F063EE7AE086EE9FE00E94403BD2
S11333406EEE7AE0CE0143960E94BB4164E070E0E9
S113335081E49DE01FD6882361F06FEF7AE086EE6A
S11333609FE00E94403B6AE07BE0CE0143960E94CE
S1133370BB4160E071E081E49DE00CD6882361F0FC
S11333806BE17BE086EE9FE00E94403B66E27BE0DF
S1133390CE0143960E94BB4160E072E081E49DE06F
S11333A0F9D5882361F067E37BE086EE9FE00E9415
S11333B0403B62E47BE0CE0143960E94BB4160E067
S11333C070E181E49DE0E6D5882361F063E57BE06C
S11333D086EE9FE00E94403B64E67BE0CE0143968C
S11333E00E94BB4160E070E281E49DE09BD58823AC
S11333F079F06BE77BE086EE9FE00E94403B11E0B2
S113340019876FE87BE0CE0143960E94BB41198F78
S113341060E070E481E49DE077D5882371F064EA8C
S11334207BE086EE9FE00E94403B81E08A8763EB6D
S11334307BE0CE0143960E94BB4160E070E881E4EA
S11334409DE08CD5882379F063EC7BE086EE9FE0E9
S11334500E94403B81E0898768ED7BE0CE01439682
S11334600E94BB41198E68E081E49DE09FD590E005
S11334709C878B8767E081E49DE098D590E09E87E8
S11334808D8766E081E49DE091D590E0988B8F87ED
S113349065E081E49DE08AD590E09A8B898BDF9189
S11334A0CF911F910895CF93DF93FC0180E5DF0155
S11334B01D928A95E9F76EE774E0758364838CEF57
S11334C098E0918780879587848777876687918B33
S11334D0808B938B828B958B848BCAE7DDE0D78BB3
S11334E0C68B918F808F48EF51E1538F428F758F38
S11334F0648F578F468F53A342A3A2E8BBEFB5A3B3
S1133500A4A357A346A324E037EF31A720A753A7CA
S113351042A735A724A7D7A7C6A731AB20AB93AB47
S113352082AB35AB24AB77AB66AB31AF20AFB5AF75
S1133530A4AFDF01A05BBF4F4FE852EC65E77CE32B
S11335404D935D936D937C93139714964AE057EDD6
S113355063EA7CE34D935D936D937C931397149688
S11335604AE057ED63EA7BE34D935D936D937C935F
S1133570139714961D921D921D921C9213971496E4
S11335801D921D921D921C92139714961D921D92CA
S11335901D921C92139714961D921D921D921C92BB
S11335A0139714961D921D921D921C9213971496B4
S11335B04DEC5CEC6CE47EE34D935D936D937C93F6
S11335C01397EC58FF4F81E090E091838083DF9163
S11335D0CF910895CF92DF92EF92FF920F931F93B2
S11335E0CB01BA01A90198010E9442336B017C010D
S11335F020E030E044E353E40E94B935181654F453
S113360020E030E044EB53E4C701B6010E944233AA
S11336106B017C0120E030E044E353ECC701B601C8
S11336200E94093487FF0AC020E030E044EB53E4F1
S1133630C701B6010E9443336B017C01C701B60187
S11336401F910F91FF90EF90DF90CF9008952F92EC
S11336503F924F925F926F927F928F929F92AF921E
S1133660BF92CF92DF92EF92FF920F931F93CF936B
S1133670DF93CDB7DEB76C970FB6F894DEBF0FBEFD
S1133680CDBF1C01498B5A8B6B8B7C8B0D8B1E8B96
S11336902F8B388FC98EDA8EEB8EFC8E9A01AB019C
S11336A0C501B4010E94423369837A838B839C836E
S11336B02D893E894F89588D6AA97BA98CA99DA91A
S11336C00E94423369877A878B879C8729813A8154
S11336D04B815C81CA01B9010E94C4356B017C0134
S11336E029853A854B855C85CA01B9010E94C43598
S11336F09B01AC01C701B6010E9443330E947D3691
S11337006D877E878F87988B29853A854B855C8565
S113371069817A818B819C810E94B6332BED3FE0D5
S113372049E450E40E94103420E030E044E353E4E0
S11337300E94C435AB01BC01F101E45AFF4F408340
S1133740518362837383098D1A8D2B8D3C8DC10146
S113375041DF6B017C01F101E05AFF4F608371830B
S11337608283938320E030E040EA50E46D857E85D7
S11337708F8598890E940934910120593F4F3E83D7
S11337802D8387FF16C06DEE7BE086EE9FE00E94DE
S1133790403BAD81BE811D921D921D921C921397D8
S11337A0F101E459FF4F108211821282138281E0E9
S11337B020C220E030E048EC52E46D857E858F85A0
S11337C098890E94093426013701E89477F8810129
S11337D008591F4F20E030E040EA51E487FF9FC0C2
S11337E0C301B2010E94B9351816ACF45101BCE60C
S11337F0AB0EB11CF101E05BFF4FA70196016081A4
S11338007181828193810E94C435F5016083718343
S11338108283938374C0D8012D913D914D915C9125
S1133820C701B6010E9442332B013C01F101EC595E
S1133830FF4F608371838283938320E030E0A9018A
S1133840C701B6010E94B935181644F5F101E459CF
S1133850FF4FFA83E9837897208131814281538134
S1133860C701B6010E94C4354B015C01F101E85A5D
S1133870FF4F2081318142815381C301B2010E94F3
S1133880C4359B01AC01C501B4010E944233A98136
S1133890BA816D937D938D939C93139720E030E0D0
S11338A0A901C701B6010E94093487FF28C0F101AC
S11338B0E459FF4FFA83E98378972081318142816B
S11338C05381C701B6010E94C4354B015C01F1016B
S11338D0E85AFF4F2081318142815381C301B201F3
S11338E00E94C4359B01AC01C501B4010E9443335D
S11338F0A981BA816D937D938D939C931397F8015D
S1133900C082D182E282F3828DEC9CECACE4BEE313
S1133910ED81FE8180839183A283B3836AC1C30155
S1133920B2010E94B9351816ACF4810104591F4F35
S1133930A7019601F101E05BFF4F608171818281F3
S113394093810E94C435D8016D937D938D939C938C
S1133950139777C0F8012081318142815381C701D7
S1133960B6010E9442336D837E838F839887F10171
S1133970EC59FF4F608371838283938320E030E0AE
S1133980A901C701B6010E94B93518164CF5810189
S113399004591F4FF101EC5AFF4F208131814281BC
S11339A05381C701B6010E94C4352B013C01F101CA
S11339B0E85AFF4F20813181428153816D817E819C
S11339C08F8198850E94C4359B01AC01C301B2016B
S11339D00E944233D8016D937D938D939C931397EA
S11339E020E030E0A901C701B6010E94093487FF35
S11339F028C0810104591F4FF101EC5AFF4F208167
S1133A00318142815381C701B6010E94C4352B0123
S1133A103C01F101E85AFF4F2081318142815381F9
S1133A206D817E818F8198850E94C4359B01AC0194
S1133A30C301B2010E944333F8016083718382831E
S1133A409383F101E859FF4FC082D182E282F3826D
S1133A50389680E090E0A0E8BFE380839183A2835E
S1133A60B38368EF7BE086EE9FE00E94353B22E063
S1133A7030E049895A896B897C8986EE9FE00E94EF
S1133A80FE3C65EF7BE086EE9FE00E94353B22E042
S1133A9030E04D895E896F89788D86EE9FE00E94C3
S1133AA0FE3C65EF7BE086EE9FE00E94353B22E022
S1133AB030E0498D5A8D6B8D7C8D86EE9FE00E949F
S1133AC0FE3C65EF7BE086EE9FE00E94353B67EFAE
S1133AD07BE086EE9FE00E94353B22E030E0B501BA
S1133AE0A40186EE9FE00E94FE3C65EF7BE086EE3B
S1133AF09FE00E94353B22E030E04AA95BA96CA913
S1133B007DA986EE9FE00E94FE3C65EF7BE086EE99
S1133B109FE00E94353B6DEF7BE086EE9FE00E94C4
S1133B20353B22E030E04D855E856F85788986EEF1
S1133B309FE00E94FE3C67E07CE086EE9FE00E94EE
S1133B40353B22E030E049815A816B817C8186EEED
S1133B509FE00E94FE3C6BE07CE086EE9FE00E94CA
S1133B60353B22E030E049855A856B857C8586EEBD
S1133B709FE00E94FE3C6FE07CE086EE9FE00E94A6
S1133B80353BF101E45AFF4F4081518162817381D9
S1133B9022E030E086EE9FE00E94FE3C6DE17CE096
S1133BA086EE9FE00E94353BF101E05AFF4F4081D1
S1133BB051816281738122E030E086EE9FE00E94B1
S1133BC0FE3C69E27CE086EE9FE00E94353BF10119
S1133BD0E459FF4F408151816281738122E030E0DA
S1133BE086EE9FE00E94FE3C86EE9FE00E943D3BF5
S1133BF080E06C960FB6F894DEBF0FBECDBFDF91A8
S1133C00CF911F910F91FF90EF90DF90CF90BF90D5
S1133C10AF909F908F907F906F905F904F903F9068
S1133C202F9008952F923F924F925F926F927F92BE
S1133C308F929F92AF92BF92CF92DF92EF92FF92B8
S1133C400F931F93CF93DF93CDB7DEB72C970FB6A7
S1133C50F894DEBF0FBECDBF9C878B8749835A8300
S1133C606B837C830D831E832F8338878A019B019A
S1133C704D815E816F817885ADDC6B017C012B8485
S1133C803C8420E6220E311CF1016083718382831F
S1133C9093834B015C01E894B7F820E030E040EAFC
S1133CA050E4C501B4010E94093487FD08C120E035
S1133CB030E040E751E4C501B4010E94B9350B85F9
S1133CC01C8504591F4F2B853C8528593F4F3A8743
S1133CD0298718166CF4A7019601EB85FC85E05B37
S1133CE0FF4F60817181828193810E94C4356FC0CE
S1133CF0E985FA852081318142815381C701B6016A
S1133D000E9442334B015C01EB85FC85EC59FF4F6B
S1133D10608371838283938320E030E0A901C7012B
S1133D20B6010E94B93518162CF5EB85FC85EC5AC2
S1133D30FF4F2081318142815381C701B6010E9426
S1133D40C4352B013C01EB85FC85E85AFF4F2081EB
S1133D50318142815381C501B4010E94C4359B0164
S1133D60AC01C301B2010E944233F8016083718344
S1133D708283938320E030E0A901C701B6010E9449
S1133D80093487FF29C00B851C8504591F4FEB8517
S1133D90FC85EC5AFF4F2081318142815381C70158
S1133DA0B6010E94C4352B013C01EB85FC85E85A21
S1133DB0FF4F2081318142815381C501B4010E94AA
S1133DC0C4359B01AC01C301B2010E944333F80125
S1133DD06083718382839383E985FA85C082D1826B
S1133DE0E282F382EB85FC85E059FF4F1082118259
S1133DF01282138222E030E049815A816B817C81F6
S1133E0086EE9FE00E94FE3C65EF7BE086EE9FE03D
S1133E100E94353B68E37CE086EE9FE00E94353BE0
S1133E2022E030E04D815E816F81788586EE9FE0EF
S1133E300E94FE3C65EF7BE086EE9FE00E94353BEE
S1133E406FE07CE086EE9FE00E94353BEB85FC85CD
S1133E50E45AFF4F408151816281738122E030E056
S1133E6086EE9FE00E94FE3C6DE17CE086EE9FE0E2
S1133E700E94353BF101408151816281738122E0CE
S1133E8030E086EE9FE00E94FE3C69E27CE086EE34
S1133E909FE00E94353BEB85FC85E459FF4F408150
S1133EA051816281738122E030E086EE9FE00E94BE
S1133EB0FE3C86EE9FE00E943D3B80E001C081E035
S1133EC02C960FB6F894DEBF0FBECDBFDF91CF9115
S1133ED01F910F91FF90EF90DF90CF90BF90AF9024
S1133EE09F908F907F906F905F904F903F902F9016
S1133EF00895FC0181E046895789208D318D421750
S1133F00530709F480E00895FC01208D318D8689E2
S1133F109789822793276823792381E0672B09F403
S1133F2080E00895DC015896ED91FC915997AF011A
S1133F30409550954623572391E0452B09F490E092
S1133F4056962D913C9157972E273F276223732332
S1133F5081E0672B09F480E089230895DC015696FB
S1133F60ED91FC915797AF01409550954623572307
S1133F7091E0452B09F490E058962D913C91599786
S1133F802E273F276223732381E0672B09F480E007
S1133F9089230895FC01808D918D809590956823E7
S1133FA0792381E0672B09F480E00895860F911D41
S1133FB0FC0180810895FC0183A5833031F08130B8
S1133FC031F08C3031F080E0089581E0089582E092
S1133FD0089583E00895DC019FB7F8945B96ED9112
S1133FE0FC915C9720815A968C91822B80839FBF91
S1133FF00895DC019FB7F8945E96ED91FC915F976C
S113400020815D968C91822B80839FBF08958F922F
S11340109F92AF92BF92CF92DF92EF92FF920F9353
S11340201F93CF93DF93EC0100E010E0F12CC62E38
S1134030D12C812C912C54018394E02EC601002EA6
S113404002C0959587950A94E2F780FF03C0CE01DC
S1134050D0DF0AC02FB7F894EE8DFF8D90818D8D3F
S11340608095892380832FBF2FB7F894EB8DFC8D27
S113407090818A8D8095892380832FBF84E090E08E
S11340800E948F3FECA1FDA190818BA1892351F067
S1134090D501C40104C0880F991FAA1FBB1FEA944D
S11340A0D2F7F82ACE0197DF0F5F1F4F08301105B2
S11340B009F0C3CFCE019DDF83E090E00E948F3FE3
S11340C08F2DDF91CF911F910F91FF90EF90DF9093
S11340D0CF90BF90AF909F908F900895DC019FB7D1
S11340E0F8949196ED91FC919297208190968C9101
S11340F0822B80839FBF0895DC012FB7F89491969B
S1134100ED91FC919297908190968C918095892362
S113411080832FBF0895CF92DF92EF92FF920F9387
S11341201F93CF93DF93EC016B01042FE5DF76013E
S113413010E0C7018C199D098017910734F4F70129
S113414061917F01CE0163DFF4CFCE01C7DF6AA5A1
S113415070E080E090E0DF91CF911F910F91FF908C
S1134160EF90DF90CF900C94563FCF93DF93EC0108
S113417045E068E376E0CFDF49E06FE276E0CE0128
S1134180CADF8CA5882329F045E068E176E0CE01FA
S1134190C2DF8DA5882329F049E066E276E0CE01EE
S11341A0BADF49E06DE176E0CE01DF91CF91B3CF84
S11341B02F923F924F925F926F927F928F929F9233
S11341C0AF92BF92CF92DF92EF92FF920F931F9321
S11341D0CF93DF93CDB7DEB729970FB6F894DEBF40
S11341E00FBECDBF4C01762E142F0E94253FF40143
S11341F0C6A0D7A0E0A4F1A46C197D098E099F097B
S11342000E94A9346B017C0120E030E84BEB54E4BC
S11342100E94B935181614F4C401A7DFF40162A58D
S113422070E080E090E00E94AB341B012C019B0104
S1134230AC01C701B6010E94093487FF0AC0A70177
S11342409601C201B1010E9442330E947D340E9452
S1134250563F1123E1F0612F70E080E090E01F925F
S11342601F921F922FEF2F9320E4A22EB12CC12C6A
S1134270D12CE12CF12C8701EA9420E030E0A90153
S11342800E94E440162F0F900F900F900F90CE01D4
S113429001967C0189E0F70111928A95E9F781E0A2
S11342A0898382E48A837C821D8385E0382E8E0193
S11342B0065F1F4F6401F9E0CF0ED11C540185E164
S11342C0A80EB11CC40195DEC40185DEC40114DF4F
S11342D083E090E00E948F3F27013401F201619155
S11342E02F01C40194DEF30181933F01401651066E
S11342F0A9F7F4018181893741F0C401EFDEF401AB
S11343008181807F803761F417C0360160E0C40189
S11343107EDEF30181933F01EA15FB05B9F7EDCF8A
S1134320C40123DFF40162A570E080E090E00E9404
S1134330563F3A943110C6CFF4018181807F803793
S113434031F0F40182A58A3010F48F5F82A7F40162
S1134350808D918D978B868B83819481918F808FB3
S11343600E94253FF40166A377A380A791A79181BA
S1134370907F81E0903709F080E029960FB6F89499
S1134380DEBF0FBECDBFDF91CF911F910F91FF9084
S1134390EF90DF90CF90BF90AF909F908F907F90E1
S11343A06F905F904F903F902F90089540E060E0B1
S11343B0FFCE6F927F928F929F92AF92BF92CF92D5
S11343C0EF92FF920F931F93CF93DF93CDB7DEB796
S11343D02B970FB6F894DEBF0FBECDBF5C01862FBE
S11343E070E0FB01E65DF84FE491D5015A96EC9339
S11343F05A97FB01E059F84FE491F0E0EE0FFF1FEC
S1134400E053F84F65917491F501748F638F642FB5
S113441070E0FB01E65DF84FE4915D96EC935D97E7
S1134420FB01E059F84FE491F0E0EE0FFF1FE05379
S1134430F84F65917491F501778F668F622F70E064
S1134440FB01E65DF84FE4919096EC93FB01E05993
S1134450F84FE491F0E0EE0FFF1FE053F84F659141
S11344607491F50172A361A3A02FB0E0FD01E65D94
S1134470F84F9491F50193A3FD01E059F84FE491AD
S1134480F0E0EE0FFF1FEA54F84F65917491D501E7
S113449095967C936E93949761E02A874B870E944C
S11344A0514061E02A85822F0E94514061E04B8592
S11344B0842F0E94514060E0802F0E94514061E0AF
S11344C0802F0E948D40C50194DDC50184DDC501A6
S11344D06DDFC5016BDFF5018181813429F08337FC
S11344E019F0893709F065C081E0D5019A968C935B
S11344F08BE0882E912CFF24F39445E068E376E06A
S1134500C50109DE83E090E00E948F3FC50171DDA3
S1134510C50161DDC501F0DD83E090E00E948F3FBD
S11345200CE31CE0CE0101963C01F80161918F017E
S1134530C5016DDDD3018D933D01BCE005341B073E
S1134540A1F7C501CBDD8C81F50183A749E06FE2BA
S113455076E0C501E0DDCC2041F045E068E176E09D
S1134560C501D9DDD5019C96FC92EE2039F049E0D5
S113457066E276E0C501CFDDF501F5A649E06DE11F
S113458076E0C501C8DDC50111DFD50111968C9116
S1134590EE2021F0893789F0833769F0833769F099
S11345A0B1E08B1A910859F0F50182A58F5F82A7BB
S11345B0A4CF81E005C083E003C080E001C082E0B5
S11345C02B960FB6F894DEBF0FBECDBFDF91CF910F
S11345D01F910F91FF90EF90CF90BF90AF909F905D
S11345E08F907F906F900895FC0110821182128247
S11345F013821482158216821782108611861286FF
S113460013861486158616861786108A118A128ACE
S1134610138A148A158A168A178A108E118E128E9E
S1134620138E148E158E168E178E10A211A212A23E
S113463013A214A215A216A217A210A611A68FEFF8
S113464082A783A714A615A686A780E887A710AA21
S113465011AA84E682AB13AA08951F93CF93DF9324
S1134660EC0180E99FE00E94823148E050E068E07C
S113467070E080E99FE00E941B3280E99FE00E9485
S1134680B930892B09F462C080E99FE00E94C130EF
S1134690898380E99FE00E94C1308A8380E99FE09A
S11346A00E94C1308B8380E99FE00E94C1308C83DB
S11346B080E99FE00E94C1308D8380E99FE00E94E1
S11346C0C1308E8380E99FE00E94C1308F8380E9EE
S11346D09FE00E94C130182F8887698170E0762F8F
S11346E066278A81682B072E000C880B990B0E9481
S11346F0AB3469877A878B879C876B8170E0762FD0
S113470066278C81682B072E000C880B990B0E945E
S1134710AB346D877E878F87988B6D8170E0762FA1
S113472066278E81682B072E000C880B990B0E943C
S1134730AB34698B7A8B8B8B9C8B8F81813021F48A
S1134740123011F4888399CF188297CFDF91CF91DB
S11347501F9108954F925F926F927F928F929F92D2
S1134760AF92BF92CF92DF92EF92FF92CF93DF93FB
S1134770CDB7DEB72C970FB6F894DEBF0FBECDBF12
S113478060910E0F70910F0F8091100F9091110F87
S11347900E94AB3421EE3AE744E95FE30E94C4355A
S11347A020E030E040E05BE30E94C4352BED3FE0C5
S11347B049E450E40E94C43520E030E048E152E48A
S11347C00E94C4356B017C016093020F7093030F48
S11347D08093040F9093050F10920E0F10920F0FF9
S11347E01092100F1092110F60910A0F70910B0F1D
S11347F080910C0F90910D0F0E94AB3421EE3AE79B
S113480044E95FE30E94C43520E030E040E05BE32C
S11348100E94C4352BED3FE049E450E40E94C435C6
S113482020E030E048E152E40E94C4354B015C01D1
S11348306093FE0E7093FF0E8093000F9093010F10
S113484010920A0F10920B0F10920C0F10920D0F72
S11348506091060F7091070F8091080F9091090FD6
S11348600E94AB3421EE3AE744E95FE30E94C43589
S113487020E030E040E05BE30E94C4352BED3FE0F4
S113488049E450E40E94C43520E030E048E152E4B9
S11348900E94C43569837A838B839C836093FA0E68
S11348A07093FB0E8093FC0E9093FD0E1092060FF6
S11348B01092070F1092080F1092090F20E030E0B9
S11348C044E353E46091F80C7091F90C8091FA0C74
S11348D09091FB0C0E9410342BED3FE049E450E42E
S11348E00E94C4352B013C016093EE0E7093EF0ED1
S11348F08093F00E9093F10E29813A814B815C8173
S1134900C501B4010E94423320E030E040E05FE39F
S11349100E94C43569837A838B839C832091EA0E39
S11349203091EB0E4091EC0E5091ED0EC301B201AB
S11349300E9442334B015C012BED3FE049EC5FE305
S11349400E94B935181654F42BED3FE049E450E4C5
S1134950C501B4010E9442334B015C012BED3FE0E1
S113496049EC5FEBC501B4010E94093487FF0AC01A
S11349702BED3FE049E450E4C501B4010E94433308
S11349804B015C0120E030E0A901C501B4010E94A3
S1134990C4359B01AC01C701B6010E94423369874B
S11349A07A878B879C874092EA0E5092EB0E609236
S11349B0EC0E7092ED0EC301B2010E940D344B0156
S11349C05C01C301B2010E9473366D837E838F83C1
S11349D09887A501940169857A858B859C850E94B9
S11349E0C4356B017C012D813E814F8158856981DD
S11349F07A818B819C810E94C4359B01AC01C701E3
S1134A00B6010E9443332091F60E3091F70E409187
S1134A10F80E5091F90E0E9443336B017C016093B0
S1134A20F60E7093F70E8093F80E9093F90EA5018D
S1134A30940169817A818B819C810E94C4354B01E8
S1134A405C012D813E814F81588569857A858B85EE
S1134A509C850E94C4359B01AC01C501B4010E9430
S1134A6042332091F20E3091F30E4091F40E5091A6
S1134A70F50E0E9443336093F20E7093F30E80930D
S1134A80F40E9093F50EC0921A0FD0921B0FE09281
S1134A901C0FF0921D0F6093160F7093170F8093E5
S1134AA0180F9093190F2BED3FE049E450E4C30134
S1134AB0B2010E94103420E030E044E353E40E9449
S1134AC0C4356093120F7093130F8093140F909357
S1134AD0150F2C960FB6F894DEBF0FBECDBFDF9135
S1134AE0CF91FF90EF90DF90CF90BF90AF909F90C9
S1134AF08F907F906F905F904F90089584E00E9414
S1134B00BC4040910E0F50910F0F6091100F7091A7
S1134B10110F019729F4415051096109710904C029
S1134B204F5F5F4F6F4F7F4F40930E0F50930F0FA8
S1134B306093100F7093110F089585E00E94BC409C
S1134B4040910A0F50910B0F60910C0F70910D0F53
S1134B50019729F44F5F5F4F6F4F7F4F04C041505F
S1134B6051096109710940930A0F50930B0F609327
S1134B700C0F70930D0F089586E00E94BC40409185
S1134B80060F5091070F6091080F7091090F01975C
S1134B9029F44F5F5F4F6F4F7F4F04C0415051095D
S1134BA0610971094093060F5093070F6093080F32
S1134BB07093090F089562E083E10E94514062E01E
S1134BC082E00E94514062E083E00E94514062E032
S1134BD084E00E94514062E085E00E94514062E01E
S1134BE086E00E94514042E050E06EE775E284E0C6
S1134BF00E94103D42E050E06DE975E280E00E94C1
S1134C00103D42E050E06CEB75E281E00C94103D05
S1134C1062E087E00E94514087E00E94BC4090938C
S1134C204106809340060895CF93DF9300D000D0CF
S1134C30CDB7DEB726E040E052EC61E070E086EEEE
S1134C409FE00E94C43840E052EC61E070E081EBE8
S1134C509EE00E94231282EB9EE00E94A01384E255
S1134C609EE00E94AA11A7DF64E677E0CE010196D8
S1134C700E948A4142E350E0BE016F5F7F4F8FE79D
S1134C809EE00E94A132CE0101960E9423416AEA6D
S1134C9073E28FE79EE00E94103388EF9CE00E944D
S1134CA0CF0F88EF9CE00E94BB0F88EF9CE00E942E
S1134CB0C50F8BE89EE00E9447188BE89EE00E9497
S1134CC0D41881E08093A40E68E070E080E99FE04E
S1134CD00E949A3140E85AE166E070E080E99FE082
S1134CE00E949B316BE077E280E99FE00E941F32D3
S1134CF026960FB6F894DEBF0FBECDBFDF91CF91DD
S1134D00089588EF9CE00C94F40FCF92DF92EF9219
S1134D10FF920F931F9382EB9EE00E94581381EB46
S1134D209EE00E94221285EA9EE00E94CD178BE845
S1134D309EE00E9424188FE79EE00E948C3283E755
S1134D409EE00E94E21788E0C82ED12CE12CF12CC1
S1134D5000E01FE326E933E44BE85DE36CE271E035
S1134D6085E49EE00E94331584E29EE00E946F1069
S1134D708EEA9DE00E94531A8AE79DE035DC65E4E3
S1134D807CE084E79DE00E948A41E091700DF091FF
S1134D90710DE35CF94F808180936F0D1F910F912A
S1134DA0FF90EF90DF90CF90089584E79DE00E94FC
S1134DB0234183E79EE00E94F7178FE79EE00E945D
S1134DC015338EE99EE00C942341CF93DF9341E0A9
S1134DD050E065E070E080E99FE00E941B3280E9CA
S1134DE09FE00E94B930892B99F080E99FE00E94EE
S1134DF0C130EC016BE47CE086EE9FE00E94353B21
S1134E004AE050E0BE0186EE9FE00E94EF3BE7CF10
S1134E10DF91CF91089580E99FE00E94B930029715
S1134E202CF080E99FE00E94C130F5CF0895F0DEB8
S1134E3065E070E080E99FE00E94A831609140063F
S1134E4080E99FE00E94443180E99FE00C941D3288
S1134E502F923F924F925F926F927F928F929F9286
S1134E60AF92BF92CF92DF92EF92FF920F931F9374
S1134E70CF93DF93CDB7DEB76E970FB6F894DEBF4E
S1134E800FBECDBF8BE89EE00E94D4188AE79DE058
S1134E90E4DB88EF9CE00E94BB0FC9DF96DF8091C2
S1134EA0A40E811112C580916F0D81114EC28091A3
S1134EB0720D9091730D892BA1F5C090120FD090B3
S1134EC0130FE090140FF090150F0091160F10912E
S1134ED0170F2091180F3091190F40911A0F50910C
S1134EE01B0F60911C0F70911D0F84E48F9383EC52
S1134EF08F931F921F92812C912C54018EEA9DE076
S1134F000E94271B0F900F900F900F90882349F059
S1134F108091720D9091730D01969093730D80930F
S1134F20720D8091720D9091730D0197D9F4409197
S1134F30120F5091130F6091140F7091150F00E030
S1134F4010E024EB32E48EEA9DE00E94121E8823D6
S1134F5049F08091720D9091730D01969093730DA9
S1134F608093720D8091720D9091730D0297B9F533
S1134F70C090120FD090130FE090140FF090150F03
S1134F800091160F1091170F2091180F3091190FDF
S1134F9040911A0F50911B0F60911C0F70911D0FBF
S1134FA084E48F9383EC8F931F921F92812C912C16
S1134FB0F6E1AF2EF4E4BF2E8EEA9DE00E94271B9B
S1134FC00F900F900F900F90882349F08091720DED
S1134FD09091730D01969093730D8093720D80914F
S1134FE0720D9091730D0397D1F44091120F50916B
S1134FF0130F6091140F7091150F00E010E09801E9
S11350008EEA9DE00E94121E882349F08091720D61
S11350109091730D01969093730D8093720D80910E
S1135020720D9091730D0497C1F5C090120FD0903A
S1135030130FE090140FF090150F0091160F1091BC
S1135040170F2091180F3091190F40911A0F50919A
S11350501B0F60911C0F70911D0F85E48F938BE2E1
S11350608F9380E48F931F92812C912CE6E1AE2ED6
S1135070E4E4BE2E8EEA9DE00E94271B0F900F9061
S11350800F900F90882349F08091720D9091730DC9
S113509001969093730D8093720D8091720D90918F
S11350A0730D0597D9F44091120F5091130F60912D
S11350B0140F7091150F00E010E024EB32EC8EEA2F
S11350C09DE00E94121E882349F08091720D9091F8
S11350D0730D01969093730D8093720D8091720DF0
S11350E09091730D0697C1F5C090120FD090130FD5
S11350F0E090140FF090150F0091160F1091170FF8
S11351002091180F3091190F40911A0F50911B0FD5
S113511060911C0F70911D0F85E48F938BE28F9328
S113512080E48F931F92812C912C96E1A92E94EC0C
S1135130B92E8EEA9DE00E94271B0F900F900F90CE
S11351400F90882349F08091720D9091730D019610
S11351509093730D8093720D8091720D9091730DE5
S11351600797D9F44091120F5091130F6091140FC7
S11351707091150F00E010E023E333EC8EEA9DE01C
S11351800E94121E882349F08091720D9091730D34
S113519001969093730D8093720D8091720D90918E
S11351A0730D0897B9F5C090120FD090130FE090CB
S11351B0140FF090150F0091160F1091170F2091F6
S11351C0180F3091190F40911A0F50911B0F6091D5
S11351D01C0F70911D0F84E48F9383EC8F931F92A7
S11351E01F92812C912C86E1A82E84ECB82E8EEA95
S11351F09DE00E94271B0F900F900F900F90882323
S113520049F08091720D9091730D01969093730DF6
S11352108093720D8091720D9091730D0997D9F45A
S11352204091120F5091130F6091140F7091150F4C
S113523000E010E024EB32E48EEA9DE00E94121EAE
S1135240882349F08091720D9091730D019690938B
S1135250730D8093720D8091720D9091730D0A9766
S1135260A1F5C090120FD090130FE090140FF0909E
S1135270150F0091160F1091170F2091180F3091F0
S1135280190F40911A0F50911B0F60911C0F7091D0
S11352901D0F84E48F9383EC8F931F921F92812CB4
S11352A0912C54018EEA9DE00E94271B0F900F90D1
S11352B00F900F90882349F08091720D9091730D97
S11352C001969093730D8093720D8091720D90915D
S11352D0730D0B97D9F44091120F5091130F6091F5
S11352E0140F7091150F00E010E023E333E48EEA0D
S11352F09DE00E94121E882349F08091720D9091C6
S1135300730D01969093730D8093720D63E57CE0A9
S113531086EE9FE00E94353B65EF7BE086EE9FE0E2
S11353200E94353B8091720D9091730D0C976CF037
S113533081E080936F0D1092730D1092720D67E6E9
S11353407CE086EE9FE00E94403B80916F0D8130AF
S113535009F043C069E87CE086EE9FE00E94353B9B
S113536065EF7BE086EE9FE00E94353B809142062C
S1135370813089F480917A0D882369F068EE73E0B6
S113538080E090E00E94563F80917A0D882319F0C6
S113539083E080934206809142068330F1F4409189
S11353A0870D5091880D6091890D70918A0D4093FD
S11353B0F60E5093F70E6093F80E7093F90E40E0DA
S11353C050E06AEF74E44093F20E5093F30E60934E
S11353D0F40E7093F50E80936F0D80916F0D8330F2
S11353E0A9F563EA7CE086EE9FE00E94353B65EF19
S11353F07BE086EE9FE00E94353B8EE09DE00E94BC
S11354009412C090120FD090130FE090140FF090EC
S1135410150F0091160F1091170F2091180F30914E
S1135420190F40911A0F50911B0F60911C0F70912E
S11354301D0F8EE09DE00E94B3120E94253F7093E1
S1135440110D6093100D84E080936F0D80916F0DAA
S1135450843021F56BEA7CE086EE9FE00E94353BC8
S113546065EF7BE086EE9FE00E94353B0E94253F7E
S11354704090100D5090110D052C000C6608770813
S1135480DC01CB0184199509A609B7098133954735
S1135490A105B10518F085E080936F0D80916F0D23
S11354A0853009F001C260EB7CE086EE9FE00E944B
S11354B0353B65EF7BE086EE9FE00E94353B8091B3
S11354C0720D9091730D892BD9F44091120F509164
S11354D0130F6091140F7091150F00E010E024EB8E
S11354E032E48EEA9DE00E94121E882349F08091E6
S11354F0720D9091730D01969093730D8093720DBC
S11355008091720D9091730D0197B9F5C090120FAF
S1135510D090130FE090140FF090150F0091160F18
S11355201091170F2091180F3091190F40911A0FF5
S113553050911B0F60911C0F70911D0F84E48F9389
S113554081E98F931F921F92812C912CBAE7AB2E85
S1135550B4E4BB2E8EEA9DE00E94271B0F900F90AF
S11355600F900F90882349F08091720D9091730DE4
S113557001969093730D8093720D8091720D9091AA
S1135580730D0297D1F44091120F5091130F609153
S1135590140F7091150F00E010E098018EEA9DE061
S11355A00E94121E882349F08091720D9091730D10
S11355B001969093730D8093720D8091720D90916A
S11355C0730D0397C1F5C090120FD090130FE090A4
S11355D0140FF090150F0091160F1091170F2091D2
S11355E0180F3091190F40911A0F50911B0F6091B1
S11355F01C0F70911D0F85E48F9384E48F9380E4D6
S11356008F931F92812C912CAAE7AA2EA4E4BA2E80
S11356108EEA9DE00E94271B0F900F900F900F9031
S1135620882349F08091720D9091730D01969093A7
S1135630730D8093720D8091720D9091730D049788
S1135640D9F44091120F5091130F6091140F70917F
S1135650150F00E010E024EB32EC8EEA9DE00E948E
S1135660121E882349F08091720D9091730D01965A
S11356709093730D8093720D8091720D9091730DC0
S11356800597C1F5C090120FD090130FE090140F3E
S1135690F090150F0091160F1091170F2091180F0D
S11356A03091190F40911A0F50911B0F60911C0FEC
S11356B070911D0F85E48F9384E48F9380E48F931E
S11356C01F92812C912CFAE7AF2EF4ECBF2E8EEAB8
S11356D09DE00E94271B0F900F900F900F9088233E
S11356E049F08091720D9091730D01969093730D12
S11356F08093720D8091720D9091730D0697D9F479
S11357004091120F5091130F6091140F7091150F67
S113571000E010E023E333EC8EEA9DE00E94121EC9
S1135720882349F08091720D9091730D01969093A6
S1135730730D8093720D8091720D9091730D079784
S1135740B9F5C090120FD090130FE090140FF090A1
S1135750150F0091160F1091170F2091180F30910B
S1135760190F40911A0F50911B0F60911C0F7091EB
S11357701D0F84E48F9381E98F931F921F92812CD4
S1135780912CEAE7AE2EE4ECBE2E8EEA9DE00E9458
S1135790271B0F900F900F900F90882349F0809152
S11357A0720D9091730D01969093730D8093720D09
S11357B08091720D9091730D0897D9F44091120F56
S11357C05091130F6091140F7091150F00E010E0C9
S11357D024EB32E48EEA9DE00E94121E882349F0F5
S11357E08091720D9091730D01969093730D809337
S11357F0720D8091720D9091730D0997A1F5C0906F
S1135800120FD090130FE090140FF090150F009129
S1135810160F1091170F2091180F3091190F409106
S11358201A0F50911B0F60911C0F70911D0F84E48F
S11358308F9381E98F931F921F92812C912C540195
S11358408EEA9DE00E94271B0F900F900F900F90FF
S1135850882349F08091720D9091730D0196909375
S1135860730D8093720D8091720D9091730D0A9750
S1135870D9F44091120F5091130F6091140F70914D
S1135880150F00E010E024EB32E48EEA9DE00E9464
S1135890121E882349F08091720D9091730D019628
S11358A09093730D8093720D60911E0E70911F0E74
S11358B08091200E9091210E40901A0E50901B0E54
S11358C060901C0E70901D0E01C160919A0E709133
S11358D09B0E072E000C880B990B2FEF2F932F9301
S11358E02CEF2F9328E12F93E8EEAE2EE3E0BE2EAB
S11358F0C12CD12CE12CF12C8701EA9420E030E07A
S1135900A9010E94E4406F87788B898B9A8B609100
S1135910980E7091990E072E000C880B990B1F920C
S11359201F92ACE06A2E6F92B4E47B2E7F922CEB34
S1135930A22E23EFB22ECC24CA94DC2C20E030E03B
S1135940A9010E94E4400FB6F894DEBF0FBECDBF9C
S11359502091910E211109C0FED720E030E84BEBD5
S113596054E45ED72B013C0126C01F921F926F9214
S11359707F926CEBA62E63EFB62ECC24CA94DC2C5B
S1135980E12CF12C8701EA9420E030E0A90164E4E1
S113599070E080E090E00E94E440DDD720E030E851
S11359A04BEB54E43DD72B013C011092910E0F9028
S11359B00F900F900F908091920E882341F11F92C7
S11359C01F928CE08F9384E48F934CEBA42E43EFCF
S11359D0B42ECC24CA94DC2CE12CF12C8701EA945B
S11359E020E030E0A9016CEB70E080E090E00E94E0
S11359F0E440B1D720E030E84BEB54E411D72B015D
S1135A003C011092920E0F900F900F900F90809186
S1135A108F0E81110BC06F85788989899A899BD7EC
S1135A2020E030E04AE754E4FBD626C08FEF8F93A2
S1135A308F938CEF8F9388E18F9328EEA22E23E02F
S1135A40B22EC12CD12CE12CF12C8701EA9420E058
S1135A5030E0A90164E470E080E090E00E94E4405A
S1135A607AD720E030E04AE754E4DAD610928F0E79
S1135A700F900F900F900F902091900E222331F1F0
S1135A808FEF8F938F938CEF8F9388E18F9388EEB2
S1135A90A82E83E0B82EC12CD12CE12CF12C870147
S1135AA0EA9420E030E0A9016CEB70E080E090E043
S1135AB00E94E44050D720E030E04AE754E4B0D6F6
S1135AC01092900E0F900F900F900F90730162013F
S1135AD000E010E09801AB01BC0185E49EE00E9467
S1135AE0A21629833A834B835C836D837E838F83E1
S1135AF0988729803A808B819C819C8B8B8B4D80ED
S1135B005E802F813885388B2F8789011195019507
S1135B101109AC015195419551099201B10184E2F9
S1135B209EE00E94B110C090120FD090130FE0902D
S1135B30140FF090150F0091160F1091170F20916C
S1135B40180F3091190F40911A0F50911B0F60914B
S1135B501C0F70911D0F81EB9EE00E942E1220916C
S1135B60000D3091010D4091020D5091030D809173
S1135B70FC0C8D8B9091FD0C9E8B8091FE0C8F8B79
S1135B809091FF0C988F1091F80C0091F90C809172
S1135B90FA0C898F9091FB0C9A8F3E0189E0680E74
S1135BA0711C6EE97EE0C3012B8F3C8F4D8F5E8F9D
S1135BB00E94B3418090160F9090170FA090180F79
S1135BC0B090190FC0901A0FD0901B0FE0901C0FCB
S1135BD0F0901D0F5E8D5F934D8D4F933C8D3F93E1
S1135BE02B8D2F93288D2F933F893F932E892F93AD
S1135BF03D893F932A8D2F93398D3F930F931F93A4
S1135C007F926F922091150F2F932091140F2F9351
S1135C102091130F2F932091120F2F930F85188922
S1135C2092014B895C89B10182EB9EE00E94B21320
S1135C30C3010E94234166EF7BE08EE99EE00E944F
S1135C40BB410FB6F894DEBF0FBECDBF6E960FB644
S1135C50F894DEBF0FBECDBFDF91CF911F910F919E
S1135C60FF90EF90DF90CF90BF90AF909F908F9078
S1135C707F906F905F904F903F902F900895CF93B7
S1135C80CFB7F8948091210F811127C0E5EAF7E09E
S1135C908491EFE5F7E09491E82FF0E0EE0FFF1F19
S1135CA0E651F84FA591B491EC91E92321F461E018
S1135CB085E30E948D4061E085E30E9451408CB5EC
S1135CC080618CBD8CB580648CBD61E084E30E94EE
S1135CD0514061E083E30E9451408091210F8F5F26
S1135CE08093210FCFBFCF91089510928F0F81E041
