:10000000F0C300000C949D2A0C94C82A0C94F32A87
:100010000C941E2B0C94492B0C94742B0C949F2B3A
:100020000C94CA2B0FC400000DC400000BC40000C8
:1000300009C4000007C4000005C4000003C4000098
:1000400001C400000C948221FDC30000FBC300002A
:10005000F9C30000F7C30000F5C300000C94F52BB2
:10006000F1C300000C94E7260C941D27EBC300009D
:10007000E9C30000E7C30000E5C30000E3C30000DC
:10008000E1C30000DFC30000DDC30000DBC30000EC
:10009000D9C30000D7C30000D5C300000C943E1E96
:1000A000D1C30000CFC30000CDC30000CBC300000C
:1000B000C9C30000C7C30000C5C30000C3C300001C
:1000C000C1C30000BFC30000BDC30000BBC300002C
:1000D000B9C30000B7C300000C947C270C94B2276E
:1000E000B1C3000005A84CCDB2D44EB93836A90230
:1000F0000C50B9918688083CA6AAAA2ABE00000026
:10010000803F07634236B79BD8A71A39685618AEA6
:10011000BAAB558C1D3CB7CC5763BD6DEDFD753E3C
:10012000F6177231BF000000803F08000000BE9249
:100130002449123EABAAAA2ABECDCCCC4C3E00002C
:100140000080BEABAAAAAA3E00000000BF000000CB
:10015000803F0000000000084178D3BB4387D113E3
:100160003D190E3CC3BD4282AD2B3E68EC8276BE8B
:10017000D98FE1A93E4C80EFFFBE01C4FF7F3F0055
:1001800000000000772A412A492A552A622A832A38
:10019000902A302D332D222D262D2C2D6A2D372DF2
:1001A0003B2D412D452D492D4F2D532D572D6A2D7A
:1001B0005D2D612D652D00000000003E5B4F5B3E14
:1001C0003E6B4F6B3E1C3E7C3E1C183C7E3C181C1C
:1001D000577D571C1C5E7F5E1C00183C1800FFE713
:1001E000C3E7FF0018241800FFE7DBE7FF30483AB9
:1001F000060E2629792926407F050507407F05251B
:100200003F5A3CE73C5A7F3E1C1C08081C1C3E7FA2
:1002100014227F22145F5F005F5F06097F017F0069
:100220006689956A606060606094A2FFA294080489
:100230007E040810207E201008082A1C08081C2AAA
:1002400008081E101010100C1E0C1E0C30383E3802
:1002500030060E3E0E06000000000000005F0000A9
:100260000007000700147F147F14242A7F2A12231A
:100270001308646236495620500008070300001C2A
:100280002241000041221C002A1C7F1C2A08083E33
:100290000808008070300008080808080000606046
:1002A0000020100804023E5149453E00427F4000B4
:1002B00072494949462141494D331814127F10278C
:1002C000454545393C4A49493141211109073649DB
:1002D000494936464949291E0000140000004034AF
:1002E00000000008142241141414141400412214B4
:1002F0000802015909063E415D594E7C1211127CDB
:100300007F494949363E414141227F4141413E7F3B
:10031000494949417F090909013E414151737F081B
:1003200008087F00417F41002040413F017F0814C1
:1003300022417F404040407F021C027F7F04081022
:100340007F3E4141413E7F090909063E4151215E00
:100350007F09192946264949493203017F01033F94
:100360004040403F1F2040201F3F4038403F631423
:1003700008146303047804036159494D43007F4125
:1003800041410204081020004141417F0402010262
:100390000440404040400003070800205454784087
:1003A0007F284444383844444428384444287F381B
:1003B0005454541800087E090218A4A49C787F089D
:1003C00004047800447D40002040403D007F102818
:1003D000440000417F40007C047804787C080404D9
:1003E000783844444438FC1824241818242418FC71
:1003F0007C08040408485454542404043F44243C16
:100400004040207C1C2040201C3C4030403C442884
:100410001028444C9090907C4464544C440008361E
:10042000410000007700000041360800020102048C
:10043000023C2623263C1EA1A161123A4040207AAC
:1004400038545455592155557941225454784221F4
:100450005554784020545579400C1E52721239552B
:100460005555593954545459395554545800004528
:100470007C410002457D420001457C407D12111205
:100480007DF0282528F07C545545002054547C5498
:100490007C0A097F4932494949323A4444443A3254
:1004A0004A4848303A4141217A3A42402078009DFA
:1004B000A0A07D3D4242423D3D4040403D3C24FFA6
:1004C0002424487E4943662B2FFC2F2BFF0929F655
:1004D00020C0887E090320545479410000447D41A6
:1004E0003048484A32384040227A007A0A0A727DFF
:1004F0000D19317D2629292F28262929292630481A
:100500004D4020380808080808080808382F10C887
:10051000ACBA2F102834FA00007B000008142A140B
:100520002222142A14085500550055AA55AA55AA86
:10053000FF55FF55FF000000FF00101010FF0014D2
:100540001414FF001010FF00FF1010F010F014142E
:1005500014FC001414F700FF0000FF00FF1414F453
:1005600004FC141417101F10101F101F1414141F54
:1005700000101010F0000000001F101010101F10CD
:10058000101010F010000000FF10101010101010CC
:100590001010FF10000000FF140000FF00FF00001B
:1005A0001F10170000FC04F414141710171414F48F
:1005B00004F40000FF00F714141414141414F700CA
:1005C000F7141414171410101F101F141414F4141B
:1005D0001010F010F000001F101F0000001F14008A
:1005E0000000FC140000F010F01010FF10FF1414B5
:1005F00014FF141010101F00000000F010FFFFFF88
:10060000FFFFF0F0F0F0F0FFFFFF0000000000FF40
:10061000FF0F0F0F0F0F3844443844FC4A4A4A3446
:100620007E02020606027E027E026355494163385D
:1006300044443C04407E201E2006027E020299A50E
:10064000E7A5991C2A492A1C4C7201724C304A4D6C
:100650004D303048784830BC625A463D3E494949A1
:10066000007E0101017E2A2A2A2A2A44445F44444A
:1006700040514A444040444A51400000FF0103E0D9
:1006800080FF000008086B6B083612362436060F10
:10069000090F06000018180000001010003040FF7D
:1006A0000101001F01011E00191D1712003C3C3CF6
:1006B0003C000000000000000A0B02090C0D0E08AF
:1006C000070304010000000000000000000000001B
:1006D000000000000000000000000000000000001A
:1006E00000001211100000000000000000000000D7
:1006F00000000000000000000000000001021020C7
:100700002008081020401020408002010201080447
:1007100002010102040810204080804020100804DB
:100720000201800402018040201008040201080434
:100730000201010204081020408001020408102078
:1007400040800505050507050808080802020202A1
:100750000A0A08080404040401010101010101015D
:100760000303030303030303040707070C0C0C0C28
:100770000C0C0C0C02020202060606060606060611
:100780000B0B0B0B0B0B0B0B0000200023002600A8
:1007900029002C002F003200000100000301060197
:1007A000090100002200250028002B002E00310046
:1007B000340002010000050108010B0100002100C6
:1007C000240027002A002D00300033000101000022
:1007D000040107010A01B212C91C8F204F27E42728
:1007E000051D11241FBECFEFD1E2DEBFCDBF00E05B
:1007F0000CBF1AE0A0E0B2E0E2E1F6E600E00BBFD9
:1008000002C007900D92A037B107D9F72DE0A0E7FD
:10081000BAE001C01D92A438B207E1F713E0C0EFBF
:10082000D3E000E006C021970109802FFE010E945D
:100830004630CB3ED10780E00807A9F70E94122876
:100840000C94F832DDCB80E090E0089508952F926B
:100850003F924F925F926F927F928F929F92AF9250
:10086000BF92CF92DF92EF92FF920F931F93CF939D
:10087000DF9300D0CDB7DEB74C017B836A836A017A
:10088000590117019801241B350B37FF03C031951F
:1008900021953109C5014A815B81841B950B97FF26
:1008A00003C091958195910951E05983821793076F
:1008B00014F019820BC09A2D8B2D5801092F182F77
:1008C0009A818B81DB82CA82C92ED82E8A819B8134
:1008D000A816B9065CF49C2D8D2D6801092F182FE0
:1008E0009A818B81BB82AA82A92EB82E2501AA816A
:1008F000BB814A1A5B0A38016C187D0877FE03C079
:10090000719461947108720157FE03C0BFEFEB1A36
:10091000FB0AF594E794C016D1061CF00FEF1FEF09
:100920001FC001E010E01CC0D401ED91FC91B98121
:100930000484F585E02D9101BB23C1F04A815B81E0
:10094000B601C4011995E618F708F7FE04C0C00EF9
:10095000D11EE40CF51CEA81FB813196FB83EA830E
:100960004A815B81A416B506FCF604C0A6016A8123
:100970007B81E7CF0F900F900F90DF91CF911F9168
:100980000F91FF90EF90DF90CF90BF90AF909F902E
:100990008F907F906F905F904F903F902F90089531
:1009A0000895DC01ED91FC910084F185E02D19940E
:1009B0000F931F93DC01ED91FC91048CF58DE02DDC
:1009C00019951F910F9108950F931F93DC01ED91DD
:1009D000FC91068CF78DE02D19951F910F910895CC
:1009E000EF92FF920F931F93DC01ED91FC9100A019
:1009F000F1A1E02D19951F910F91FF90EF900895AF
:100A00000895AF92BF92CF92DF92EF92FF920F9331
:100A10001F93CF93DF9300D01F92CDB7DEB75C0159
:100A20006901DC01ED91FC910284F385E02D4B839B
:100A30005C8369837A831995D501ED91FC914B8193
:100A40005C81C40ED51EB1E0CB1AD1080488F589AB
:100A5000E02D7801860169817A819B01C501199594
:100A6000D501ED91FC910688F789E02DC5010F9025
:100A70000F900F900F90DF91CF911F910F91FF90EA
:100A8000EF90DF90CF90BF90AF901994AF92BF924C
:100A9000CF92DF92EF92FF920F931F93CF93DF934A
:100AA00000D01F92CDB7DEB75C016901DC01ED918A
:100AB000FC910284F385E02D4B835C8369837A8308
:100AC0001995D501ED91FC9169817A819B012C0DDD
:100AD0003D1D215031090488F589E02D78014B81B5
:100AE0005C818A01C5011995D501ED91FC910688BB
:100AF000F789E02DC5010F900F900F900F90DF91B7
:100B0000CF911F910F91FF90EF90DF90CF90BF900A
:100B1000AF9019944F925F926F927F928F929F92B3
:100B2000AF92BF92CF92DF92EF92FF920F931F93FB
:100B3000CF93DF931F921F92CDB7DEB76C015A019E
:100B400039014801DC01ED91FC910284F385E02D2F
:100B500069837A8319956981462E7A81572E640CB0
:100B6000751CD601ED91FC91461457046CF4008875
:100B7000F189E02D87019401A501B201C601199503
:100B8000BFEF4B1A5B0AEDCF0688F789E02DC6014F
:100B90000F900F90DF91CF911F910F91FF90EF90E9
:100BA000DF90CF90BF90AF909F908F907F906F908D
:100BB0005F904F901994EF92FF920F931F93DC0177
:100BC000ED91FC9111971A960D911C911B97189617
:100BD0002D913C91199700A0F1A1E02D7B0140E0FF
:100BE00050E060E070E019951F910F91FF90EF9039
:100BF0000895CF92DF92EF92FF920F931F93CF93BE
:100C0000DF9300D000D0CDB7DEB76C01DC01ED91F1
:100C1000FC916217730789F4041715072CF4942FBD
:100C2000852FA801092F182F041B150B98012F5F82
:100C30003F4F048CF58DE02D12C04017510709F588
:100C4000261737072CF4962F872FB901292F382F15
:100C5000261B370B2F5F3F4F068CF78DE02D87014A
:100C6000C601199526960FB6F894DEBF0FBECDBF0C
:100C7000DF91CF911F910F91FF90EF90DF90CF9078
:100C800008950284F385E02D2D833E834B835C839E
:100C900069837A831995D601ED91FC910488F589D1
:100CA000E02D2D813E814B815C8169817A81C60175
:100CB0001995D601ED91FC910688F789E02DC601C2
:100CC00026960FB6F894DEBF0FBECDBFDF91CF9151
:100CD0001F910F91FF90EF90DF90CF9019946F923A
:100CE0007F928F929F92AF92BF92CF92DF92EF92BC
:100CF000FF920F931F93CF93DF93EC014B015A01A7
:100D000069013801E881F9810284F385E02D1995A4
:100D1000E881F9810288F389E02D87019601A50118
:100D2000B401CE011995E881F981A501460D571D41
:100D3000415051090288F389E02D9601B401CE019A
:100D40001995E881F9810088F189E02D9301A501C9
:100D5000B401CE011995E881F981C80CD91CB601FE
:100D6000615071090088F189E02D9301A501CE0140
:100D70001995E881F9810688F789E02DCE01DF9188
:100D8000CF911F910F91FF90EF90DF90CF90BF9088
:100D9000AF909F908F907F906F9019940895FC0171
:100DA0006370658B8481958126813781613039F04C
:100DB000633029F0918780873387228708953187B0
:100DC0002087938782870895FC01138212828FE522
:100DD00096E091838083758364835783468371870C
:100DE000608753874287158A15861486178616866C
:100DF00081E0848B2FEF3FEF338B228B318B208B65
:100E0000868B178A118E108E08952F923F924F92E3
:100E10005F926F927F928F929F92AF92BF92CF928A
:100E2000DF92EF92FF920F931F93CF93DF93CDB793
:100E3000DEB76C970FB6F894DEBF0FBECDBF9C8FA8
:100E40008B8F5B011A011F830E833701C982DC017E
:100E500058964D915C9159974115510509F0E5C09F
:100E600018968D919C911997681779070CF0CAC153
:100E70001A968D919C911B97281639060CF0C2C1C9
:100E80008C2C912CFB0136E0C39EE00DF11D11244A
:100E9000FB87EA871E161F060CF0B4C1C40133E0BD
:100EA000880F991F3A95E1F79D878C87820D931DD6
:100EB000181619060CF0A6C157968C91811103C023
:100EC000203B08F02F5FAB8DBC8DED91FC9111970D
:100ED0000284F385E02DCD012A8F19952A8DB5E086
:100EE0002B9F90011124F5013596FF87EE87250190
:100EF000BB82AA82A9014A195B09598B488BC1019F
:100F000008969B8B8A8BE889F989E40DF51DEA54D4
:100F1000FE4F949198873D822C826101A885A0FFA5
:100F200013C0AB8DBC8DED91FC91B981B13031F422
:100F30000484F585E02D2E813F8116C00684F78557
:100F4000E02DEE80FF801AC0EE81FF816E167F06D5
:100F5000F1F0AB8DBC8DED91FC91B981B13051F4C4
:100F60000484F585E02D9301A601B2018B8D9C8D43
:100F700019950DC00684F785E02D73018401940155
:100F80004C815D816A817B818B8D9C8D1995E88573
:100F9000E695E8872C813D81280D391D3D832C8302
:100FA0003FEFC31AD30A4A895B89C416D50609F0F4
:100FB000B5CF8A819B81880D991D9B838A839FEF82
:100FC000491A590AAE85BF854A165B0609F09BCFC0
:100FD000EE81FF816E167F0609F4F2C0EB8DFC8D69
:100FE000A081B181F981F13079F4B5016B5F7F4F58
:100FF0005096ED91FC915197830128E030E0A101DA
:101000008B8D9C8D1995DCC06A857B856819790963
:101010001E96ED91FC911F9773010C851D8594011F
:10102000A1018B8D9C8D1995CBC0FA0134969491BA
:10103000329765917491291BCB01B7E02B9F800DEE
:10104000911D1124FA01259134913B8B2A8BFC01CF
:10105000459154915B834A83FC013296C49031964A
:1010600054915C87329614913196D4908981823064
:1010700058F0612E012E000C7708AD2D0D2C000CC0
:10108000BB0BB987A88704C019861886612C712C00
:10109000AB8DBC8DED91FC9111970284F385E02D11
:1010A000CD011995B9818B2E912C689CC001699C4A
:1010B000900D789C900D1124FC01EA0DFB1DF98B1D
:1010C000E88B1C82712C612CE12F110FFF0B950115
:1010D0002E0F3F1F3B872A87AC0CB11CA5014E0F7A
:1010E0005F1F5F8B4E8BC1018D0D911DD7FC9A95B3
:1010F000998F888F4C85641608F062C0862D90E029
:1011000048855985480F591F489D9001499D300DCC
:10111000589D300D1124D901A20DB31DBF87AE8794
:10112000AA84BB8448885988DC80BA85DB1AE88D9C
:10113000F98DE80FF91FFD8BEC8B8D2D8A0D2E8913
:101140003F89A216B306B9F1877061F48A819B8149
:101150000196EA89FB89AA81BB81EA0FFB1F749083
:101160009B838A8377FE20C0AB8DBC8DED91FC9173
:10117000B981B13061F40484F585E02D2E813F8181
:101180004C895D89B5018B8D9C8D19950DC00684A8
:10119000F785E02DEE80FF80840194014E855F8508
:1011A000B2018B8D9C8D1995770C480C591CEFEF73
:1011B000AE1ABE0AC2CF3C813C0D3C8363949ACFE9
:1011C000AB8DBC8DED91FC9111970688F789E02DD0
:1011D000CD016C960FB6F894DEBF0FBECDBFDF9188
:1011E000CF911F910F91FF90EF90DF90CF90BF9024
:1011F000AF909F908F907F906F905F904F903F90B7
:101200002F9019946C960FB6F894DEBF0FBECDBF29
:10121000DF91CF911F910F91FF90EF90DF90CF90D2
:10122000BF90AF909F908F907F906F905F904F9006
:101230003F902F900895AF92BF92CF92EF92FF927E
:101240000F931F93CF93DF93EC01262F888D998DF9
:10125000009709F03FC06A3059F41D861C862C891E
:101260008E859F8538E0239F800D911D112440C0FD
:101270006D3009F4A8C08E898823C1F03C898C8523
:101280009D8546E0349F800D911D11244885598528
:10129000481759075CF41D861C868E859F8548E09B
:1012A000349F800D911D11249F878E87EA88FB88CB
:1012B000088919894E855F856C857D85CC88CE012E
:1012C000A4DD2C898C859D8536E0239F800D911DA2
:1012D000112442C06A3079F41D861C862C89FC01D9
:1012E0003696E4918E859F852E9F800D911D112449
:1012F0009F878E8768C06D3009F465C0FC01349605
:101300003491631708F45FC03196E491E61708F44E
:101310005AC0FC013296A590B490462F50E0431B72
:10132000510937E0349FB001359F700D1124A60E8E
:10133000B71EF501329634913196E491332311F0C2
:10134000E1110DC0F5013496E4912C898C859D85C1
:10135000E29F800D911D11249D878C8734C0F5017B
:10136000359644915E89552311F16C89E32FF0E0A5
:10137000E40FF11D47FDFA956E9FD0016F9FB00DF0
:1013800011244C855D854A0F5B1FE885F985E417BC
:10139000F5076CF41D861C86FC013696E4918E855B
:1013A0009F856E9F800D911D11249F878E87EA88EF
:1013B000FB88088919894E855F856C857D85CC8879
:1013C000CE0123DDBFCF81E090E0DF91CF911F916F
:1013D0000F91FF90EF90CF90BF90AF900895FC01D8
:1013E00075876487578746870895611101C061E05A
:1013F000FC01648B0895FC01738B628B718B608B95
:101400000895FC0185890895FC01808591850895E2
:10141000FC018285938508950F931F93CF93DF93EB
:10142000DC01FB0155968C915597823089F0833011
:1014300021F1813009F0E6C014968D919C911597A9
:10144000BC01641B750BAB0141505109BF011DC0AC
:1014500014966D917C911597CB018E1B9F0BFC010F
:1014600016968D919C911797BC01641B750BAB016F
:1014700041505109E21BF30BC5C016966D917C914A
:1014800017976E1B7F0B621B730B57FD1AC11496C7
:101490008D919C911597481759070CF012C177FF51
:1014A00004C0260F371F60E070E016968D919C9166
:1014B0001797FB01E20FF31F8E179F071CF49C0187
:1014C000261B370B121613060CF0FBC0A22F862F1B
:1014D00086958695869590E8899F400D511D11242B
:1014E000FA01EA5EFD4F6770A9F198E0961B492F5B
:1014F00050E0EA01C25FDD4F8881291790F4421B5A
:1015000051092FEF30E002C0359527954A95E2F753
:1015100082230130110541F068F00230110589F095
:10152000D0C00130110519F42081822B0CC001308C
:10153000110520F480952081822305C00230110519
:1015400031F4208182278083A91708F4BAC0A91B2F
:10155000E058FF4FA83048F10230110559F4EF016F
:101560008A2F988190959883C058DF4F8850883093
:10157000C0F732C081E00130110509F080E08195AB
:10158000EF019A2F8883C058DF4F98509830D0F7DA
:1015900088EF8A0F86958695869560E8869FE00D90
:1015A000F11D1124E058FF4FA770AA2309F489C048
:1015B000B0E0AA5FBD4F8C910130110529F038F0E1
:1015C00002301105E1F07DC09081892B03C0809528
:1015D00090818923808375C088EF8A0F86958695D0
:1015E000869570E8879FE00DF11D1124E058FF4FAC
:1015F000A77009F466C0B0E0AA5FBD4F8C919081DE
:101600008927E8CF57FD5DC016968D919C9117975D
:10161000481759070CF055C0F7FF04C02E0F3F1FA5
:10162000E0E0F0E014968D919C911597BF01620F58
:10163000731F861797071CF49C012E1B3F0B121675
:1016400013060CF03EC0CA0157FD079663E095955E
:1016500087956A95E1F79695982F882797958795AE
:10166000E80FF91FEA5EFD4F4770552781E090E0D3
:1016700001C0880F4A95EAF7482F0130110539F06B
:1016800078F002301105E9F42E0F3F1F13C02E0F22
:101690003F1FE217F307A9F08081842B8193F9CFD4
:1016A00080952E0F3F1FE217F30759F09081982382
:1016B0009193F9CFE217F30721F08081842781937A
:1016C000F9CFDF91CF911F910F9108950F931F9341
:1016D000CF93DF93DC0155968C915597823071F052
:1016E000833009F1813009F08CC01496ED91FC91A2
:1016F0001597E41BF50BE21BF30B20C01496ED913C
:10170000FC911597CF01861B970BBC0161507109A5
:101710001696ED91FC911797CF01841B950BAC01A8
:10172000421B530B6EC01696ED91FC911797CF019B
:10173000861B970BBC0161507109FA0177FD1BC133
:1017400016968D919C911797681779070CF013C125
:10175000F7FF04C02E0F3F1FE0E0F0E014968D91DC
:101760009C911597AF01420F531F841795071CF4E6
:101770009C012E1B3F0B121613060CF0FCC0CB0174
:1017800077FD079643E0959587954A95E1F79695FD
:10179000982F882797958795E80FF91FEA5EFD4FE8
:1017A0006770772781E090E001C0880F6A95EAF7BB
:1017B000482F0130110541F088F00230110509F081
:1017C000DAC02E0F3F1F15C02E0F3F1FE217F30781
:1017D00009F4D1C08081842B8193F8CF80952E0F9E
:1017E0003F1FE217F30709F4C6C090819823919335
:1017F000F8CFE217F30709F4BEC0808184278193F4
:10180000F8CF77FDB8C014968D919C911597681705
:1018100079070CF0B0C057FF04C0240F351F40E01B
:1018200050E016968D919C911797FA01E20FF31FE5
:101830008E179F071CF49C01241B350B12161306F0
:101840000CF099C0A22F842F86958695869590E8F6
:10185000899F600D711D1124FB01EA5EFD4F4770E9
:10186000A9F198E0941B492F50E0EA01C25FDD4FD7
:101870008881291790F4421B51092FEF30E002C0F4
:10188000359527954A95E2F782230130110541F0FD
:1018900068F00230110589F06EC00130110519F4AD
:1018A0002081822B0CC00130110520F4809520810D
:1018B000822305C00230110531F420818227808304
:1018C000A91708F458C0A91BE058FF4FA83048F1E9
:1018D0000230110559F4EF018A2F98819095988371
:1018E000C058DF4F88508830C0F730C081E00130E9
:1018F000110509F080E08195EF019A2F8883C05887
:10190000DF4F98509830D0F788EF8A0F86958695EC
:10191000869590E8899FE00DF11D1124E058FF4F56
:10192000A770AA2341F1B0E0AA5FBD4F8C910130AE
:10193000110529F038F002301105D1F01CC090815A
:10194000892B18C080959081892314C088EF8A0F55
:1019500086958695869590E8899FE00DF11D112466
:10196000E058FF4FA77039F0B0E0AA5FBD4F8C91EF
:10197000908189278083DF91CF911F910F910895E6
:10198000CF92DF92EF92FF920F931F93CF93DF934B
:101990007C018B01EA01690177FD9DC035DD0817E7
:1019A00019070CF098C0D7FD96C0C70131DDC817E4
:1019B000D9070CF090C0C70124DD823009F07FC048
:1019C000F70164817581CB01801B910B8C01015063
:1019D000110946815781FA01EC1BFD0BEF0121979C
:1019E0000BC0813049F4F701848195818C1B9D0BDC
:1019F000E8018C0101501109F1E0CF16D10431F05A
:101A000010F182E0C816D104E1F165C0FE01D7FDF6
:101A1000379643E0F595E7954A95E1F7F695FE2F61
:101A2000EE27F795E7950E0F1F1FF801EA5EFD4FB1
:101A3000C770DD2781E090E001C0880FCA95EAF702
:101A40009081892B3AC0FE01D7FD379623E0F595AA
:101A5000E7952A95E1F7F695FE2FEE27F795E7959E
:101A60000E0F1F1FF801EA5EFD4FC770DD2781E0F2
:101A700090E001C0880FCA95EAF78095908189238C
:101A80001CC0FE01D7FD379683E0F595E7958A9552
:101A9000E1F7F695FE2FEE27F795E7950E0F1F1F3E
:101AA000F801EA5EFD4FC770DD2781E090E001C0DC
:101AB000880FCA95EAF79081892780830CC083300C
:101AC00009F08FCFF70186819781801B910B8E01E2
:101AD000EC01219791CFDF91CF911F910F91FF9052
:101AE000EF90DF90CF9008951F93CF93DF93EC0199
:101AF000162F40E450E060E870E066D98BE896E08D
:101B0000998388838FEF8C8F88A38E8F8D8F1F8F03
:101B1000DF91CF911F91089580E094E0E6E1F2E03B
:101B2000DF019C011D9221503040E1F70895FC0136
:101B300081A1882339F06EBD00000DB407FEFDCFF2
:101B40008EB5089528E030E090E8A4A1B5A14C91AD
:101B500083A5809584238C93A2A1B3A182A5492F4C
:101B6000462319F04C91842B03C04C91809584231B
:101B70008C93A4A1B5A14C9183A5842B8C939695AD
:101B80002150310911F708951F93CF93DF93EC0192
:101B9000162F8C8D8F3F01F1EEA1FFA190818CA5B6
:101BA000892B8083E8A5F9A590818DA5809589234F
:101BB0008083EEA1FFA190818CA5809589238083ED
:101BC000CE01B5DFEEA1FFA190818CA5892B80838A
:101BD000DF91CF911F9108958A8D682F880F770B21
:101BE0008BEE9BE00E94182060E08BEE9BE00E9451
:101BF000C71F612F8BEE9BE00E94C71F8BEE9BE0FF
:101C0000DF91CF911F910C948D200F931F93CF9351
:101C1000DF93EC01162F022F6B8F4A8F8C8D8F3F35
:101C200009F48CC061E08E8D0E946B2D61E088A16B
:101C30000E946B2D88A1082E000C990BFC01EE5B15
:101C4000F84FE491F0E0EE0FFF1FEE55F84F2591AD
:101C500034913FA32EA3FC01E450F94FE491ECA78B
:101C60008E8D082E000C990BFC01EE5BF84FE49171
:101C7000F0E0EE0FFF1FEE55F84F2591349139A794
:101C800028A7FC01E450F94FE491EDA789A1811147
:101C900034C061E08C8D0E946B2D61E08D8D0E94BF
:101CA0006B2D8D8D082E000C990BFC01EE5BF84F0F
:101CB000E491F0E0EE0FFF1FEE55F84F25913491BF
:101CC0003DA32CA3FC01E450F94FE491EBA78C8DCC
:101CD000082E000C990BFC01EE5BF84FE491F0E04C
:101CE000EE0FFF1FEE55F84F259134913BA32AA329
:101CF000FC01E450F94FE491EAA789A1882311F18E
:101D00000E94141D80917B0B882399F02FB7F894C3
:101D100080917B0B813059F48DB38093790B9DB307
:101D200080917A0B809589238DBB2FBF02C02093B1
:101D3000790B80E58CBD81E08DBD04C08BEE9BE00E
:101D40000E9405200023F1F08F8D87FD1BC061E00C
:101D50000E946B2D61E08F8D0E94A72D61E070E0E5
:101D600080E090E00E94702C60E08F8D0E94A72D93
:101D70006AE070E080E090E00E94702C61E08F8D5E
:101D80000E94A72D6EEACE01FFDE65EDCE01FCDEDE
:101D900060E8CE01F9DE68EACE01F6DE6FE3CE013F
:101DA000F3DE63EDCE01F0DE60E0CE01EDDE60E457
:101DB000CE01EADE6DE8CE01E7DE113011F460E11C
:101DC00001C064E1CE01E0DE60E2CE01DDDE60E074
:101DD000CE01DADE61EACE01D7DE68ECCE01D4DED8
:101DE0006AEDCE01D1DE62E1CE01CEDE61E8CE0148
:101DF000CBDE113011F46FE901C06FECCE01C4DE0F
:101E000069EDCE01C1DE113011F462E201C061EF73
:101E1000CE01BADE6BEDCE01B7DE60E4CE01B4DEFA
:101E200064EACE01B1DE66EACE01AEDE6EE2CE013C
:101E3000ABDE6FEACE01DF91CF911F910F91A4CE5F
:101E4000DF92EF92FF920F931F93CF93DF93EC01FA
:101E500061E29ADE60E0CE0197DE6FE7CE0194DEAC
:101E600062E2CE0191DE60E0CE018EDE67E0CE015F
:101E70008BDE8C8D8F3F29F1EEA1FFA190818CA587
:101E8000892B8083E8A5F9A590818DA5892B808376
:101E9000EEA1FFA190818CA580958923808306E126
:101EA00012E0F80161918F01CE0141DEF6E00631CA
:101EB0001F07B9F7EEA1FFA190818CA5892B808324
:101EC00031C0D090B8008CE08093B80006E112E0F9
:101ED0006A8D062E000C770B8BEE9BE00E9418207B
:101EE00060E48BEE9BE00E94C71FE12CF12CF8010F
:101EF000EE0DFF1D60818BEE9BE00E94C71F8FEFF0
:101F0000E81AF80AE0E1EE16F10489F78BEE9BE09F
:101F10000E948D20005F1F4FF6E006311F07C1F6BB
:101F2000D092B800DF91CF911F910F91FF90EF9069
:101F3000DF900895CF93DF93FC0188E0DF01C82F85
:101F40001D92CA95E9F7DF011896ED0119928A955D
:101F5000E9F7148E158E168E178E10A280E090E091
:101F6000A0E8BFE3808B918BA28BB38B848B958B86
:101F7000A68BB78B808F918FA28FB38FDF91CF917C
:101F80000895CF93DF93EA0170E08BEE9BE00E940F
:101F9000182063EB76E08BEE9BE00E946C284AE011
:101FA00050E0BE018BEE9BE00E9426298BEE9BE069
:101FB000DF91CF910C948D20CF92DF92EF92FF9220
:101FC0000F931F93CF93DF93EC016A017901AB016B
:101FD00061E0D7DFA60162E0CE01D3DFA70163E0B5
:101FE000CE01CFDFA80164E0CE01DF91CF911F9138
:101FF0000F91FF90EF90DF90CF90C3CF4F925F9201
:102000006F927F92AF92BF92CF92DF92EF92FF9248
:102010000F931F93CF93DF9300D01F92CDB7DEB7FE
:1020200029013A01E982FA820B831C8370E08BEE6E
:102030009BE00E94182066EB76E08BEE9BE00E940E
:102040006C2822E030E0B301A2018BEE9BE00E94FD
:10205000182A6AEB76E08BEE9BE00E946C2822E067
:1020600030E049815A816B817C818BEE9BE00E943C
:10207000182A6EEB76E08BEE9BE00E946C2822E043
:1020800030E0B601A5018BEE9BE00E94182A8BEE92
:102090009BE00E9474288BEE9BE00F900F900F90B6
:1020A0000F90DF91CF911F910F91FF90EF90DF90F4
:1020B000CF90BF90AF907F906F905F904F900C94B7
:1020C0008D20AF92BF92CF92DF92EF92FF920F934B
:1020D0001F93CF93DF93EC01A88CB98CCA8CDB8C57
:1020E000EC88FD880E891F89288939894A895B898E
:1020F00061E084DFA88CB98CCA8CDB8CEC88FD880D
:102100000E891F89288939894A895B8962E0CE0155
:1021100075DFA88CB98CCA8CDB8CEC88FD880E89A5
:102120001F89288939894A895B8963E0CE0166DF86
:10213000A88CB98CCA8CDB8CEC88FD880E891F8931
:10214000288939894A895B8964E0CE0157DFDF91AC
:10215000CF911F910F91FF90EF90DF90CF90BF90A4
:10216000AF900895CF93DF931F92CDB7DEB78BEE7C
:102170009BE069830E940520698170E041E050E0A6
:102180008BEE9BE00E948B208BEE9BE00E946C1FED
:10219000892B39F08BEE9BE00F90DF91CF910C945F
:1021A000741F0F90DF91CF910895AF92BF92CF929D
:1021B000DF92EF92FF920F931F93CF93DF93EC0187
:1021C0008BEE9BE00E94052062EC76E08DE39CE0C4
:1021D0000E94772886E0A82EB12CC88CD98CEA8C76
:1021E000FB8C0C891D892E893F89488959896A8908
:1021F0007B89CE0166DF65EC76E08DE39CE00E9492
:10220000772861E0CE01AEDF6C0162E0CE01AADF8B
:102210007C0163E0CE01A6DF8C0164E0CE01A2DF89
:102220009C0181E0C816D10469F482E0E816F1044B
:1022300049F40330110531F42430310519F481E0FB
:102240008C8F04C01C8ECA94CD2811F481E08D8F30
:1022500082E0E816F10411F481E08E8F033011055D
:1022600011F481E08F8F2430310511F481E088A3CF
:1022700081E0A81AB10809F0B0CF69EC76E08DE3EF
:102280009CE0DF91CF911F910F91FF90EF90DF9035
:10229000CF90BF90AF900C947728089525E030E060
:1022A000FC0131832083128208954F925F926F92D6
:1022B0007F928F929F92AF92BF92CF92DF92EF92D6
:1022C000FF920F931F93CF93DF93EC012A013B0101
:1022D0004801590167EE76E08DE39CE00E946C288E
:1022E00063EF76E08DE39CE00E946C2822E030E012
:1022F000B301A2018DE39CE00E94182A66EF76E00C
:102300008DE39CE00E946C2822E030E0B501A4013E
:102310008DE39CE00E94182A60E077E08DE39CE06A
:102320000E946C2822E030E0B701A6018DE39CE01A
:102330000E94182A69EF76E08DE39CE00E947728DE
:10234000688179818BEE9BE00E9418206EEF76E029
:102350008BEE9BE00E946C2863EF76E08BEE9BE0B7
:102360000E946C2822E030E0B301A2018BEE9BE0DA
:102370000E94182A66EF76E08BEE9BE00E946C28A4
:1023800022E030E0B501A4018BEE9BE00E94182A08
:1023900060E077E08BEE9BE00E946C2822E030E06A
:1023A000B701A6018BEE9BE00E94182A63E077E05C
:1023B0008BEE9BE00E9477288BEE9BE0DF91CF9124
:1023C0001F910F91FF90EF90DF90CF90BF90AF9053
:1023D0009F908F907F906F905F904F900C948D2086
:1023E000089521E04CE362E080E79AE00EDC80E7AC
:1023F0009AE026DD68EE73E080E090E00E94702CA9
:1024000080E79AE089CB8F929F92AF92BF92CF9252
:10241000DF92EF92FF920F931F93CF93DF93CDB78D
:10242000DEB74B016A015901EC88FD8861E080E765
:102430009AE00E94F50961E070E080E79AE00E946E
:10244000FB0940E050E060E070E080E79AE00E9425
:10245000EF0980E79AE060DB6BE177E080E79AE0E4
:102460000E946C280E943F2CAB01BC012AE030E0A6
:1024700080E79AE00E943B2948E050E060E070E08D
:1024800080E79AE00E94EF0961E277E080E79AE056
:102490000E946C284AE050E0B40180E79AE00E9474
:1024A000202948E050E060E470E080E79AE00E9474
:1024B000EF0965E277E080E79AE00E946C284AE045
:1024C00050E0B50180E79AE00E94202940E150E009
:1024D00060E070E080E79AE00E94EF0969E277E04F
:1024E00080E79AE00E946C284AE050E0B60180E75D
:1024F0009AE00E94202940E150E060E470E080E72B
:102500009AE00E94EF096DE277E080E79AE00E948E
:102510006C284AE050E0B80180E79AE00E94202948
:102520004EE150E060E070E080E79AE00E94EF0941
:1025300061E377E080E79AE00E946C28B70180E7CA
:102540009AE00E945E2880E79AE0DF91CF911F9188
:102550000F91FF90EF90DF90CF90BF90AF909F9042
:102560008F906ECC64E080E79AE0BECA4F925F9293
:102570006F927F92AF92BF92CF92DF92EF92FF92D3
:102580000F931F93CF93DF93EC015B01CA01B90155
:102590002AA33BA34CA35DA32BED3FE049E450E409
:1025A0000E94A1236C877D878E879F87B9A2A8A2EE
:1025B000EEA2FFA208A719A7B601DD0C880B990BA4
:1025C0000E94B4229B01AC0160E070E080E090E4E6
:1025D0000E94042420E030E040E85FE30E94AD2147
:1025E0006AA77BA78CA79DA7DF91CF911F910F9121
:1025F000FF90EF90DF90CF90BF90AF907F906F9063
:102600005F904F9008952F923F924F925F926F92FA
:102610007F928F929F92AF92BF92CF92DF92EF9272
:10262000FF920F931F93CF93DF93CDB7DEB76097E1
:102630000FB6F894DEBF0FBECDBF1C01CB01BA01AF
:102640004801590120E030E040E752E40E94A12314
:1026500069877A878B879C87D1016D937D938D9352
:102660009C93139720E030E040E752E4C501B401A9
:102670000E94A1232B013C01F101648375838683B1
:10268000978320E030E040E752E4C701B6010E94A2
:10269000A123D10118966D937D938D939C931B97E5
:1026A00096962D913D914D915C9199970E94A12311
:1026B0006D877E878F87988BF101608B718B828B02
:1026C000938B84849584A684B784A501940169853D
:1026D0007A858B859C850E9419226B017C01D10132
:1026E00054966D937D938D939C935797A501940178
:1026F000C301B2010E9419222B013C01F101608F3C
:10270000718F828F938FA50194016D857E858F8552
:1027100098890E9419224B015C01D1015C966D934E
:102720007D938D939C935F97A3019201C701B6019E
:102730000E94AD2169877A878B879C87A3019201CC
:10274000C701B6010E94AE216B017C01A501940175
:1027500069857A858B859C850E94AD210E948122A6
:10276000662E7A836983A5019401C701B6010E9490
:10277000AD210E948122762E7C836B83A50194017A
:10278000C701B6010E94AE210E948122F62E7E83EF
:102790006D83A501940169857A858B859C850E944E
:1027A000AE210E948122862F262F372F38872F8334
:1027B000262D3A81472D5C816F2D7E81988560960C
:1027C0000FB6F894DEBF0FBECDBFDF91CF911F9142
:1027D0000F91FF90EF90DF90CF90BF90AF909F90C0
:1027E0008F907F906F905F904F903F902F900895C3
:1027F000CF92DF92EF92FF92CF93DF93EC01072EFF
:10280000000C880B990B0E94B4226B017C0148A13B
:1028100059A1BA01550F880B990B0E94B4229B0154
:10282000AC01C701B6010E9419222AA53BA54CA5FF
:102830005DA50E94A1230E948122CB01DF91CF914F
:10284000FF90EF90DF90CF9008952F923F924F929C
:102850005F926F927F928F929F92AF92BF92CF9230
:10286000DF92EF92FF920F931F93CF93DF93CDB739
:10287000DEB766970FB6F894DEBF0FBECDBF1C0162
:102880004A015B01098B1A8B2B8B3C8B260137018C
:10289000BADE29873A874B875C876D877E878F876B
:1028A000988BCB84DC840D851E85EF84F888698540
:1028B0007A85C1019DDF382F292FB601C1012E8BEA
:1028C0003D8B96DF6C01B801C10192DF8C01B7012D
:1028D000C1018EDF3D89432F2E89522F57FF03C040
:1028E0005195419551094F3F510509F0F4F4960176
:1028F000D7FE03C03195219531092F3F310509F0ED
:10290000A4F4980117FF03C03195219531092F3F99
:10291000310509F054F49C0197FF03C031952195CE
:1029200031092F3F310559F054F020E030E040E804
:102930005EE3C501B4010E94A1234B015C01730158
:10294000620109891A892B893C89B501A401C10159
:102950005ADE29873A874B875C876D877E878F870A
:10296000988B0B851C858D849E84AF84B88869857F
:102970007A85C1013DDFF82EC92EB801C10138DFCB
:10298000082FD92EB401C10133DF182FE92EB5016C
:10299000C1012EDF2F2D3C2D402F5D2D612F7E2D6F
:1029A00066960FB6F894DEBF0FBECDBFDF91CF9114
:1029B0001F910F91FF90EF90DF90CF90BF90AF905D
:1029C0009F908F907F906F905F904F903F902F904F
:1029D0000895FC0182E0808383E0818384E0828328
:1029E00085E083831582148281E090E0978386835B
:1029F00011861086938782870895CF93DF93EC0129
:102A0000198218821A821B821C821D821E821F82DA
:102A1000188619861A868FE790E09C878B879E8799
:102A20008D87988B8F879A8B898B62E67AE0CE01AF
:102A300043960E94A42E62E67AE0CE014996DF9189
:102A4000CF910C94A42ECF92EF920F93CF93DF935C
:102A5000EC0126E040E052EC61E070E08AED9CE0A1
:102A60000E9482266CE271E080E090E00E94702C6F
:102A7000C12CE12C0DE02AE04BE06CE08EE99AE0FD
:102A8000D8D2282F30E0398328832115310569F504
:102A900066E377E08DE39CE00E946C286FE577E0C9
:102AA0008DE39CE00E946C286CE677E08DE39CE06F
:102AB0000E94772862E777E08DE39CE00E946C2813
:102AC0006CE677E08DE39CE00E9477286CE777E086
:102AD0008DE39CE00E94772860ED77E08DE39CE039
:102AE0000E94772869E078E011C02130310519F49F
:102AF00069E478E00BC02230310519F46FEB78E01F
:102B000005C02330310531F46FE379E08DE39CE0BB
:102B10000E9477288EE99AE08ED08A83813059F01E
:102B200038F0823059F08330A1F46DEB79E008C0C1
:102B300061E879E005C06BEC79E002C060EA79E019
:102B40008DE39CE0DF91CF910F91EF90CF900C94AB
:102B50006C28DF91CF910F91EF90CF900895CF9295
:102B6000DF92EF92FF920F931F93CF93DF93CDB736
:102B7000DEB72C970FB6F894DEBF0FBECDBF6C0149
:102B80008C01075E1F4F8AED9CE00E94822518167B
:102B900019060CF041C08AED9CE00E949C258A3009
:102BA000B1F56CE2C8010E94602F7C019C0140E0FD
:102BB00050E0B801CE0107960E94632FCE01079620
:102BC0000E94E92FF601708B6787A7014F5F5F4F67
:102BD00060E070E0C8010E94A72FB801CE01019605
:102BE0000E94CD2ECE0101960E94E92FF601768734
:102BF000658762E67AE0C8010E94D52ECE01019673
:102C00000E943D2ECE0107960E943D2EBCCF682F1C
:102C1000C8010E94162FB7CF2C960FB6F894DEBFCE
:102C20000FBECDBFDF91CF911F910F91FF90EF901D
:102C3000DF90CF900895FC0183A5833031F081307F
:102C400031F08C3031F080E0089581E0089582E029
:102C5000089583E00895DC019FB7F8945B96ED91A9
:102C6000FC915C9720815A968C91822B80839FBF28
:102C70000895DC019FB7F8945E96ED91FC915F9703
:102C800020815D968C91822B80839FBF08958F92C7
:102C90009F92AF92BF92CF92DF92EF92FF920F93EB
:102CA0001F93CF93DF93EC0100E010E0F12CC62ED0
:102CB000D12C812C912C54018394E02EC601002E3E
:102CC00002C0959587950A94E2F780FF03C0CE0174
:102CD000D0DF0AC02FB7F894EE8DFF8D90818D8DD7
:102CE0008095892380832FBF2FB7F894EB8DFC8DBF
:102CF00090818A8D8095892380832FBF84E090E026
:102D00000E94A92CECA1FDA190818BA1892351F0F7
:102D1000D501C40104C0880F991FAA1FBB1FEA94E4
:102D2000D2F7F82ACE0197DF0F5F1F4F0830110549
:102D300009F0C3CFCE019DDF83E090E00E94A92C73
:102D40008F2DDF91CF911F910F91FF90EF90DF902A
:102D5000CF90BF90AF909F908F900895DC019FB768
:102D6000F8949196ED91FC919297208190968C9198
:102D7000822B80839FBF0895DC012FB7F894919632
:102D8000ED91FC919297908190968C9180958923FA
:102D900080832FBF0895CF92DF92EF92FF920F931F
:102DA0001F93CF93DF93EC016B01042FE5DF7601D6
:102DB00010E0C7018C199D098017910734F4F701C1
:102DC00061917F01CE0163DFF4CFCE01C7DF6AA539
:102DD00070E080E090E0DF91CF911F910F91FF9024
:102DE000EF90DF90CF900C94702CCF93DF93EC0199
:102DF00045E066E376E0CFDF49E06DE276E0CE01C4
:102E0000CADF8CA5882329F045E066E176E0CE0193
:102E1000C2DF8DA5882329F049E064E276E0CE0187
:102E2000BADF49E06BE176E0CE01DF91CF91B3CF1D
:102E30002F923F924F925F926F927F928F929F92CA
:102E4000AF92BF92CF92DF92EF92FF920F931F93B8
:102E5000CF93DF93CDB7DEB729970FB6F894DEBFD7
:102E60000FBECDBF4C01762E142F0E943F2CF401D3
:102E7000C6A0D7A0E0A4F1A46C197D098E099F0912
:102E80000E94B2226B017C0120E030E84BEB54E45D
:102E90000E949D23181614F4C401A7DFF40162A553
:102EA00070E080E090E00E94B4221B012C019B01A5
:102EB000AC01C701B6010E94122287FF0AC0A70118
:102EC0009601C201B1010E94AD210E9486220E949A
:102ED000702C1123E1F0612F70E080E090E01F92F0
:102EE0001F921F922FEF2F9320E4A22EB12CC12C02
:102EF000D12CE12CF12C8701EA9420E030E0A901EB
:102F00000E94FE2D162F0F900F900F900F90CE0164
:102F100001967C0189E0F70111928A95E9F781E039
:102F2000898382E48A837C821D8385E0382E8E012A
:102F3000065F1F4F6401F9E0CF0ED11C540185E1FB
:102F4000A80EB11CC40195DEC40185DEC40114DFE6
:102F500083E090E00E94A92C27013401F2016191E5
:102F60002F01C40194DEF30181933F014016510605
:102F7000A9F7F4018181893741F0C401EFDEF40142
:102F80008181807F803761F417C0360160E0C40121
:102F90007EDEF30181933F01EA15FB05B9F7EDCF22
:102FA000C40123DFF40162A570E080E090E00E949C
:102FB000702C3A943110C6CFF4018181807F803724
:102FC00031F0F40182A58A3010F48F5F82A7F401FA
:102FD000808D918D978B868B83819481918F808F4B
:102FE0000E943F2CF40166A377A380A791A791814B
:102FF000907F81E0903709F080E029960FB6F89431
:10300000DEBF0FBECDBFDF91CF911F910F91FF901B
:10301000EF90DF90CF90BF90AF909F908F907F9078
:103020006F905F904F903F902F90089540E060E048
:10303000FFCE6F927F928F929F92AF92BF92CF926C
:10304000EF92FF920F931F93CF93DF93CDB7DEB72D
:103050002B970FB6F894DEBF0FBECDBF5C01862F55
:1030600070E0FB01E450F94FE491D5015A96EC93DE
:103070005A97FB01EE5BF84FE491F0E0EE0FFF1F73
:10308000EE55F84F65917491F501748F638F642F3D
:1030900070E0FB01E450F94FE4915D96EC935D978D
:1030A000FB01EE5BF84FE491F0E0EE0FFF1FEE55F1
:1030B000F84F65917491F501778F668F622F70E0FC
:1030C000FB01E450F94FE4919096EC93FB01EE5B29
:1030D000F84FE491F0E0EE0FFF1FEE55F84F6591C9
:1030E0007491F50172A361A3A02FB0E0FD01E4503B
:1030F000F94F9491F50193A3FD01EE5BF84FE49134
:10310000F0E0EE0FFF1FE857F84F65917491D5017D
:1031100095967C936E93949761E02A874B870E94E3
:103120006B2D61E02A85822F0E946B2D61E04B851B
:10313000842F0E946B2D60E0802F0E946B2D61E038
:10314000802F0E94A72DC50194DDC50184DDC50136
:103150006DDFC5016BDFF5018181813429F0833793
:1031600019F0893709F065C081E0D5019A968C93F2
:103170008BE0882E912CFF24F39445E066E376E003
:10318000C50109DE83E090E00E94A92CC50171DD34
:10319000C50161DDC501F0DD83E090E00E94A92C4E
:1031A00007EE19E0CE0101963C01F80161918F0113
:1031B000C5016DDDD3018D933D01B9E0003F1B07D3
:1031C000A1F7C501CBDD8C81F50183A749E06DE254
:1031D00076E0C501E0DDCC2041F045E066E176E037
:1031E000C501D9DDD5019C96FC92EE2039F049E06D
:1031F00064E276E0C501CFDDF501F5A649E06BE1BB
:1032000076E0C501C8DDC50111DFD50111968C91AD
:10321000EE2021F0893789F0833769F0833769F030
:10322000B1E08B1A910859F0F50182A58F5F82A752
:10323000A4CF81E005C083E003C080E001C082E04C
:103240002B960FB6F894DEBF0FBECDBFDF91CF91A6
:103250001F910F91FF90EF90CF90BF90AF909F90F4
:103260008F907F906F9008954F925F926F927F92B0
:103270008F929F92AF92BF92CF92DF92EF92FF9286
:10328000CF93DF93CDB7DEB768970FB6F894DEBF64
:103290000FBECDBF20E030E040E05BE360916D0BFE
:1032A00070916E0B80916F0B9091700B0E94A12317
:1032B0002BED3FE049E450E40E94A12320E030E000
:1032C00048E152E40E94A1236D877E878F87988B07
:1032D00020E030E040E05BE36091690B70916A0BA5
:1032E00080916B0B90916C0B0E94A1232BED3FE022
:1032F00049E450E40E94A12320E030E048E152E498
:103300000E94A12369837A838B839C8320E030E031
:1033100040E05BE36091650B7091660B8091670BF9
:103320009091680B0E94A1232BED3FE049E450E40B
:103330000E94A12320E030E048E152E40E94A12352
:103340002B013C019B01AC0169817A818B819C81BD
:103350000E94AD2120E030E040E253E40E941922B7
:103360006B017C012091610B3091620B4091630BEA
:103370005091640B6D857E858F859889EED7698B1A
:103380007A8B8B8B9C8BA301920169817A818B81D3
:103390009C81E4D720E030E040E05FE30E94A1237D
:1033A00020915D0B30915E0B40915F0B5091600B53
:1033B000D4D74B015C01C701B6010E9416226D8370
:1033C0007E838F839887C701B6010E945024698746
:1033D0007A878B879C872D813E814F8158856989AB
:1033E0007A898B899C890E94A1236D8B7E8B8F8B20
:1033F000988F29853A854B855C85C501B4010E946B
:10340000A1239B01AC016D897E898F89988DA6D7F8
:103410009B01AC0160913B0670913C0680913D069A
:1034200090913E069BD760933B0670933C06809339
:103430003D0690933E062D813E814F815885C50102
:10344000B4010E94A1234B015C0129853A854B857B
:103450005C8569897A898B899C890E94A1239B015B
:10346000AC01C501B40179D79B01AC016091750B2A
:103470007091760B8091770B9091780B6FD760935A
:10348000750B7093760B8093770B9093780B2BEDE5
:103490003FE049E450E4C701B601CBD720E030E07B
:1034A00044E353E40E94A1236093710B7093720B69
:1034B0008093730B9093740B60EF79E08DE39CE045
:1034C0000E946C2840916D0B50916E0B60916F0BB8
:1034D0007091700B22E030E08DE39CE00E94182A8E
:1034E00068EF79E08DE39CE00E946C284091690BC5
:1034F00050916A0B60916B0B70916C0B22E030E085
:103500008DE39CE00E94182A61E07AE08DE39CE064
:103510000E946C284091650B5091660B6091670B7F
:103520007091680B22E030E08DE39CE00E94182A45
:103530006AE07AE08DE39CE00E946C2822E030E0B3
:103540004D855E856F8578898DE39CE00E94182A01
:1035500060E17AE08DE39CE00E946C2822E030E09C
:1035600049815A816B817C818DE39CE00E94182AFD
:1035700066E17AE08DE39CE00E946C2822E030E076
:10358000B301A2018DE39CE068960FB6F894DEBF0C
:103590000FBECDBFDF91CF91FF90EF90DF90CF9026
:1035A000BF90AF909F908F907F906F905F904F9063
:1035B0000C94192A84E00E94D62D20E030E040E8E7
:1035C0005FE3019751F460916D0B70916E0B8091E8
:1035D0006F0B9091700BC1D609C060916D0B70910B
:1035E0006E0B80916F0B9091700BB8D660936D0B42
:1035F00070936E0B80936F0B9093700B089585E022
:103600000E94D62D20E030E040E85FE3019751F4BE
:103610006091690B70916A0B80916B0B90916C0BB0
:103620009DD609C06091690B70916A0B80916B0BFC
:1036300090916C0B92D66093690B70936A0B809398
:103640006B0B90936C0B089586E00E94D62D20E0C2
:1036500030E040E85FE3019751F46091650B7091B1
:10366000660B8091670B9091680B77D609C06091CB
:10367000650B7091660B8091670B9091680B6ED60D
:103680006093650B7093660B8093670B9093680B48
:103690000895CF93DF9300D000D0CDB7DEB726E0FA
:1036A00040E855E260E070E08DE39CE00E948226F5
:1036B0008CE59BE00E94F11182ED9AE00E94D5100A
:1036C00062E083E10E946B2D62E082E00E946B2D3C
:1036D00062E083E00E946B2D60E084E00E946B2D2D
:1036E00060E085E00E946B2D60E086E00E946B2D1B
:1036F00042E050E06AED7AE184E00E942A2A42E04A
:1037000050E06FEF7AE180E00E942A2A42E050E028
:1037100064E27BE181E00E942A2A6CE17AE0CE013A
:1037200001960E94A42E44E650E0BE016F5F7F4FD9
:1037300084E29BE071D5CE0101960E943D2E64E3A8
:1037400079E184E29BE0D7D580E39BE07CD92696A3
:103750000FB6F894DEBF0FBECDBFDF91CF910895B5
:103760002F923F924F925F926F927F928F929F9291
:10377000AF92BF92CF92DF92EF92FF920F931F937F
:10378000CF93DF93CDB7DEB762970FB6F894DEBF65
:103790000FBECDBF80E39BE0E2D980913A0B882336
:1037A00029F1C090710BD090720BE090730BF090E8
:1037B000740B0091750B1091760B2091770B309163
:1037C000780B40913B0650913C0660913D0670910C
:1037D0003E0681E29BE00E94551160E27AE08CECAB
:1037E0009AE00E94D52E10923A0B06C06AE27AE067
:1037F0008CEC9AE00E94D52E60913F0B7091400BAB
:10380000072E000C880B990B1F921F9223E02F9319
:1038100028EE2F9328E1A22E2CEFB22ECC24CA94AE
:10382000DC2CE12CF12C8701EA9420E030E0A901A6
:103830000E94FE2D2B013C0180913D0B90913E0B8F
:10384000BC01990F880B990B1F921F922CE02F93AC
:1038500024E42F934CEBA42E43EFB42ECC24CA9433
:10386000DC2C10E8E12EF12C00E010E020E83FEF26
:103870004FEF5FEF0E94FE2D77D620E030E04AEF59
:1038800054E4D7D56B017C01C301B2016DD620E0B1
:1038900030E04AE754E4CDD5AB01BC0100E010E0D4
:1038A000980183EF9AE00E94251429833A834B8381
:1038B0005C836D837E838F83988789819A819A8BBD
:1038C000898B8B819C81988B8F872D803E804F8048
:1038D000588482019101AC0169897A8982ED9AE06C
:1038E0000E94DC0F3E0199E0690E711C63E47BE0ED
:1038F000C3010E94CD2E8090750B9090760BA09006
:10390000770BB090780BC0903B06D0903C06E090CF
:103910003D06F0903E067F926F928091740B8F93DC
:103920008091730B8F938091720B8F938091710BA9
:103930008F9391014F85588969897A898CE59BE03D
:103940000E940312C3010E943D2E62E67AE083E4E6
:103950009BE00E94D52E0FB6F894DEBF0FBECDBF00
:1039600062960FB6F894DEBF0FBECDBFDF91CF9148
:103970001F910F91FF90EF90DF90CF90BF90AF908D
:103980009F908F907F906F905F904F903F902F907F
:103990000895CF92DF92EF92FF920F931F938CE5E1
:1039A0009BE00E94F0118BE59BE00E944D118FE49B
:1039B0009BE00FD880E39BE020D884E29BE017D403
:1039C00081E29BE00E944E1188E0C82ED12CE12CB0
:1039D000F12C00E01FE326E933E44BE85DE36CE201
:1039E00071E083EF9AE00E94B61282ED9AE00E94A5
:1039F0009A0F66E37AE08CEC9AE01F910F91FF90AA
:103A0000EF90DF90CF900C94A42E8CEC9AE00E9463
:103A10003D2E84E29BE074D489E49BE00E943D2E1D
:103A200083E49BE00C943D2ECF93CFB7F894809124
:103A30007C0B811127C0E7E7F7E08491E1E3F7E031
:103A40009491E82FF0E0EE0FFF1FE454F84FA5919A
:103A5000B491EC91E92321F461E085E30E94A72D64
:103A600061E085E30E946B2D8CB580618CBD8CB5C7
:103A700080648CBD61E084E30E946B2D61E083E390
:103A80000E946B2D80917C0B8F5F80937C0BCFBF4E
:103A9000CF9108951092EA0B81E08093E80B109289
:103AA000E70B61E084E10E94A72D61E085E10E94BF
:103AB000A72DE9EBF0E080818E7F808380818D7F70
:103AC000808388E48093B80085E48093BC000895E7
:103AD000413208F043C09091EA0B9111FCCF91E084
:103AE0009093EA0B2093E80B2FEF20937D0B10921D
:103AF000C20B240F2093C10B9093E90B9091E90B1B
:103B0000880F892B8093E90B8091E70B813061F45A
:103B10001092E70B8091E90B8093BB008091BC0071
:103B200083FDF8CF85EC01C085EE8093BC008091C9
:103B3000EA0B8130E1F38091C20B841710F44091BD
:103B4000C20B23EC3BE0FB01D9018A2F821B8417B7
:103B500018F48D918193F9CF842F089580E0089512
:103B60000F93413208F04AC09091EA0B9111FCCFBB
:103B700032E03093EA0B0093E80B3FEF30937D0B7C
:103B80001092C20B4093C10BFB0163EC7BE0DB01A5
:103B90003A2F361B341718F431913D93F9CF109218
:103BA000E90B3091E90B880F832B8093E90B80910F
:103BB000E70B813061F41092E70B8091E90B809361
:103BC000BB008091BC0083FDF8CF85EC01C085EE81
:103BD0008093BC00222321F08091EA0B8230D1F344
:103BE00080917D0B8F3F79F080917D0B803241F089
:103BF00080917D0B803331F094E005C091E003C0EB
:103C000092E001C093E0892F0F91089540919F0B9E
:103C1000262F30E0240F311D21323105DCF42091B4
:103C2000EA0B2430C9F4FC0180E090E0861758F4D8
:103C300030919F0B2191DC01AF55B44FA30FB11D03
:103C40002C930196F3CF80919F0B680F60939F0B8D
:103C500080E0089581E0089582E0089585ED8093E5
:103C6000BC008091BC0084FDFCCF1092EA0B08954B
:103C700085EC8093BC001092EA0B08951F920F927E
:103C80000FB60F9211240BB60F922F933F934F93C1
:103C90005F936F937F938F939F93AF93BF93EF93B4
:103CA000FF938091B900887F803609F49DC070F53C
:103CB000883209F45CC090F4803109F455C038F4BE
:103CC000882309F4F3C0883009F44EC0F2C088316B
:103CD00009F44DC0803209F45EC0EBC0803409F4B1
:103CE00069C050F4803309F456C0883309F0E1C04C
:103CF00080937D0BBDDFDDC0803509F44FC0883572
:103D000009F45DC0883409F0D4C0D2C0883909F400
:103D1000C3C0A8F4883709F467C038F4883609F4BA
:103D200063C0803709F460C0C4C0883809F4B4C0E7
:103D3000803909F45FC0803809F0BBC05BC0803BAC
:103D400009F482C038F4803A09F466C0883A09F46C
:103D50007BC0AFC0803C09F4A3C0883C09F4A0C07C
:103D6000883B09F486C0A5C08091E90B10C09091F2
:103D7000C20B8091C10B981770F5E091C20B81E0E6
:103D80008E0F8093C20BF0E0ED53F44F808180934F
:103D9000BB0085EC82C080937D0B8AC0E091C20B92
:103DA00081E08E0F8093C20B8091BB00F0E0ED5359
:103DB000F44F80839091C20B8091C10B6AC0E09157
:103DC000C20B81E08E0F8093C20B8091BB00F0E0AC
:103DD000ED53F44F80838091E80B811169C081E03D
:103DE0008093E70B84EA5DC083E08093EA0B109236
:103DF0007E0BCFCF80917E0B803208F04DC0E091DA
:103E00007E0B81E08E0F80937E0B8091BB00F0E0F3
:103E1000E158F44F8083BDCF2BDF80917E0B803241
:103E200030F4E0917E0BF0E0E158F44F10826091A5
:103E30007E0B70E0E091E30BF091E40B8FE79BE0E9
:103E4000199510927E0B35C084E08093EA0B109296
:103E5000A00B10929F0BE091E50BF091E60B1995EA
:103E600080919F0B811105C081E080939F0B109280
:103E7000A10BE091A00B81E08E0F8093A00BF0E0EE
:103E8000EF55F44F80818093BB009091A00B8091FF
:103E90009F0B981708F47DCF85E88093BC0009C07C
:103EA00085EC8093BC001092EA0B03C010927D0B4E
:103EB000D5DEFF91EF91BF91AF919F918F917F914F
:103EC0006F915F914F913F912F910F900BBE0F908B
:103ED0000FBE0F901F90189580911B0C90E02091C1
:103EE0001C0C821B9109089590911C0C80911B0C55
:103EF000981750F4E92FF0E0E35EF34F208130E0B3
:103F00009F5F90931C0C02C02FEF3FEFC9010895F3
:103F1000E0911C0C80911B0CE81730F4F0E0E35E9C
:103F2000F34F808190E008958FEF9FEF08950895FB
:103F3000CF92DF92EF92FF920F931F93CF93DF9375
:103F40007C01262F972F8A018091F70B882391F00F
:103F5000C62FD72F6E01C40ED51ECC15DD0569F016
:103F60006991D701ED91FC910190F081E02DC7019D
:103F70001995F3CF642F822F49DEC801DF91CF91CD
:103F80001F910F91FF90EF90DF90CF900895CF9306
:103F9000DF931F92CDB7DEB769832091F70B222301
:103FA000D1F02091F80B203240F021E030E0FC010C
:103FB0003383228380E090E014C08091F90BE82FD6
:103FC000F0E0E650F44F998190838F5F8093F90B76
:103FD0008093F80B04C061E0CE01019617DE81E00A
:103FE00090E00F90DF91CF910895FC01138212822F
:103FF00088EE93E0A0E0B0E084839583A683B78346
:1040000080E49AE091838083089510921C0C1092B2
:104010001B0C1092F90B1092F80B3CCD81E08093B1
:10402000F70B60931A0C1092F90B1092F80B08958D
:10403000F5CF0F93062F21E04091F80B6AEF7BE05C
:1040400080911A0C8DDD1092F90B1092F80B1092E2
:10405000F70B0F9108954F925F926F927F92AF92FC
:10406000BF92CF92EF92FF920F931F93CF93DF9364
:104070005C01F62ED42F28013901EE2011F1CEDF9C
:10408000CE2DC43008F0C3E0C150C0F0D501ED9191
:10409000FC91B8E0CB9FC0011124A301920104C0A0
:1040A00056954795379527958A95D2F7CA01B90154
:1040B0000190F081E02DC5011995E6CF60E0C501C2
:1040C000B8DF4D2FD13208F040E22C2D6DE17CE0BD
:1040D0008F2DFEDC10921C0C80931B0CDF91CF9176
:1040E0001F910F91FF90EF90CF90BF90AF907F9076
:1040F0006F905F904F900895CF92EF920F931F9320
:10410000C22EE12C00E010E09801A5DF1F910F9175
:10411000EF90CF90089521E0EFCF61E08ACF8BEE52
:104120009BE063CF08954F925F926F927F92AF9220
:10413000BF92CF92DF92EF92FF920F931F93CF9394
:10414000DF93CDB7DEB72A970FB6F894DEBF0FBE68
:10415000CDBF7C015B018AE0E1E5F6E0DE0111966E
:1041600001900D928A95E1F7CE0101966C0100E075
:1041700010E030E8432E3EE3532E612C712CF60103
:10418000619171916F01CB01770FAA0BBB0B772760
:104190006627A30192010E942A30A216B3062CF0D2
:1041A0000F5F1F4F0530110551F7F7013187208749
:1041B000000F111FE1E0F0E0EC0FFD1FE00FF11F19
:1041C000808191812A960FB6F894DEBF0FBECDBFD5
:1041D000DF91CF911F910F91FF90EF90DF90CF90E3
:1041E000BF90AF907F906F905F904F900895CF9366
:1041F000DF93EC0162E67AE00E94A42E81E090E079
:104200009F838E83198618861B861A868FB78068CF
:104210008FBFDF91CF910895EF92FF920F931F937D
:10422000CF93DF93EC017B018A010E94B82EB80185
:10423000CE0179DF9F838E83C7010E94D82F6CE166
:104240007AE0C7010E94292F882309F44DC01092FB
:1042500080001092810088E0809381008E819F8190
:10426000019729F4809181008160809381008E8183
:104270009F81089729F4809181008260809381005A
:104280008E819F818034910529F480918100836023
:10429000809381008E819F818115914029F48091C6
:1042A00081008460809381008E819F81811594407C
:1042B00029F48091810085608093810020E83EE3AD
:1042C000D8010E945D302E813F81032E000C440BEB
:1042D000550B0E942A303B872A8730938900209310
:1042E000880082E080936F00DF91CF911F910F9142
:1042F000FF90EF9008957093400660933F060895F5
:104300000C943D2E1F920F920FB60F9211240BB6F4
:104310000F922F933F934F935F936F937F938F935E
:104320009F93AF93BF93EF93FF93E0913F06F0917C
:1043300040061995FF91EF91BF91AF919F918F9199
:104340007F916F915F914F913F912F910F900BBE95
:104350000F900FBE0F901F9018955058BB27AA279B
:104360000ED0A0C169D130F06ED120F031F49F3F62
:1043700011F41EF45EC10EF4E095E7FB54C1E92F81
:10438000B3D180F3BA17620773078407950718F053
:1043900071F49EF5CBC10EF4E0950B2EBA2FA02D33
:1043A0000B01B90190010C01CA01A0011124FF27E2
:1043B000591B99F0593F50F4503E68F11A16F040DD
:1043C000A22F232F342F4427585FF3CF46953795DC
:1043D0002795A795F0405395C9F77EF41F16BA0BA1
:1043E000620B730B840BBAF09150A1F0FF0FBB1F4F
:1043F000661F771F881FC2F70EC0BA0F621F731F98
:10440000841F48F4879577956795B795F7959E3FF4
:1044100008F0B3CF9395880F08F09927EE0F979582
:1044200087950895DCD008F481E0089514D1E395D0
:104430004AC10CD037C107D140F0FED030F021F492
:104440005F3F19F0F0C0511172C1F3C04DD198F324
:104450009923C9F35523B1F3951B550BBB27AA2705
:1044600062177307840738F09F5F5F4F220F331F77
:10447000441FAA1FA9F333D00E2E3AF0E0E830D043
:1044800091505040E695001CCAF729D0FE2F27D046
:10449000660F771F881FBB1F261737074807AB0714
:1044A000B0E809F0BB0B802DBF01FF2793585F4F89
:1044B0002AF09E3F510568F0B6C039C15F3FECF36A
:1044C000983EDCF3869577956795B795F7959F5F4E
:1044D000C9F7880F911D9695879597F90895E1E0A2
:1044E000660F771F881FBB1F621773078407BA0701
:1044F00020F0621B730B840BBA0BEE1F88F7E0955C
:10450000089504D06894B11112C10895F5D088F0CF
:104510009F5790F0B92F9927B751A0F0D1F0660FAF
:10452000771F881F991F1AF0BA95C9F712C0B130CA
:1045300081F0FCD0B1E00895F9C0672F782F88276B
:10454000B85F39F0B93FCCF3869577956795B39509
:10455000D9F73EF490958095709561957F4F8F4F78
:104560009F4F0895E89409C097FB3EF4909580957D
:10457000709561957F4F8F4F9F4F9923A9F0F92F29
:1045800096E9BB279395F695879577956795B795A7
:10459000F111F8CFFAF4BB0F11F460FF1BC06F5F8D
:1045A0007F4F8F4F9F4F16C0882311F096E911C09F
:1045B000772321F09EE8872F762F05C0662371F0C0
:1045C00096E8862F70E060E02AF09A95660F771FD4
:1045D000881FDAF7880F9695879597F90895990FB0
:1045E0000008550FAA0BE0E8FEEF16161706E807BD
:1045F000F907C0F012161306E407F50798F0621BDE
:10460000730B840B950B39F40A2661F0232B242BB2
:10461000252B21F408950A2609F4A140A6958FEFD1
:10462000811D811D089597F99F6780E870E060E023
:1046300008959FEF80EC089500240A94161617063B
:1046400018060906089500240A9412161306140683
:1046500005060895EECF50D0E8F3E894E0E0BB27DC
:104660009F57F0F02AED3FE049EC06C0EE0FBB0F7C
:10467000661F771F881F28F0B23A62077307840706
:1046800028F0B25A620B730B840BE3959A9572F77C
:10469000803830F49A95BB0F661F771F881FD2F7BA
:1046A000904837C1092E0394000C11F4882352F06E
:1046B000BB0F40F4BF2B11F460FF04C06F5F7F4F4E
:1046C0008F4F9F4F0895EF93E0FF06C0A2EA2AEDB7
:1046D0003FE049EC5FEB53DEE5DF0F90039401FC14
:1046E0009058E4EEF0E046C157FD9058440F551F36
:1046F00059F05F3F71F04795880F97FB991F61F064
:104700009F3F79F087950895121613061406551FDA
:10471000F2CF4695F1DF08C0161617061806991F46
:10472000F1CF86957105610508940895E894BB273B
:1047300066277727CB0197F9089551DF08F48FEFAB
:1047400008950BD0AFCF78DF28F07DDF18F09523E8
:1047500009F069CF6ECF1124EACFC6DFA0F3959F91
:10476000D1F3950F50E0551F629FF001729FBB2758
:10477000F00DB11D639FAA27F00DB11DAA1F649F04
:104780006627B00DA11D661F829F2227B00DA11DB7
:10479000621F739FB00DA11D621F839FA00D611D3D
:1047A000221F749F3327A00D611D231F849F600D5E
:1047B000211D822F762F6A2F11249F5750408AF097
:1047C000E1F088234AF0EE0FFF1FBB1F661F771F23
:1047D000881F91505040A9F79E3F510570F023CF9C
:1047E000A6CF5F3FECF3983EDCF38695779567950F
:1047F000B795F795E7959F5FC1F7FE2B880F911D41
:104800009695879597F90895FA01EE0FFF1F309658
:104810002105310599F16115710561F48038BFE317
:104820009B0749F168949038810561F08038BFEFAB
:104830009B0741F0992342F5FF3FE1053105210532
:1048400011F1E8940894E795D901AA2329F4AB2F34
:10485000BE2FF85FD0F310C0FF5F70F4A695E0F7AD
:10486000F73950F019F0FF3A38F49F779F930CD046
:104870000F9007FC905808953EF0DBCE60E070E0AA
:1048800080E89FE308954FE79F775F934F933F93AF
:104890002F93C3D02F913F914F915F9152DF0BC067
:1048A0009F93D9DE0F9007FCEE5F0DCF19F40EF049
:1048B000BACE3CCFBECE20DFC8F39638C0F707F89B
:1048C0000F92E8942BE33AEA48EB5FE748DF0F9258
:1048D0000F920F924DB75EB70F92DFD0E2E0F1E09A
:1048E00024D04F915F91EF91FF91E595EE1FFF1F4F
:1048F00049F0FE57E0684427EE0F441FFA95E1F7B0
:104900004195550B51D00F9007FE45C008959F3F2C
:1049100031F0915020F4879577956795B795880F7A
:10492000911D9695879597F90895DF93CF931F93DF
:104930000F93FF92EF92DF927B018C01689405C088
:10494000DA2EEF010ADFFE01E894A5912591359159
:1049500045915591AEF3EF0112DDFE019701A801DB
:10496000DA9479F7DF90EF90FF900F911F91CF913C
:10497000DF9108959F938F937F936F93FF93EF93AE
:104980009B01AC01DEDEEF91FF91CFDF2F913F91D4
:104990004F915F91D6CE9B01AC0160E070E080E862
:1049A0009FE347CD40CEB3CFA7DEE8F39923D9F3F9
:1049B000940F511DBBF39150504094F059F088234F
:1049C00032F0660F771F881F91505040C1F79E3F0D
:1049D000510544F7880F911D9695879597F908958D
:1049E0005F3FACF0983E9CF0BB2786957795679526
:1049F000B79508F4B1609395C1F7BB0F58F711F460
:104A000060FFE8CF6F5F7F4F8F4F9F4FE3CF8FCE19
:104A10000EF07DCF0ECE689406CE6EDEC8F39923DD
:104A2000D1F3C6F3DF93CF931F930F93FF92C92F58
:104A3000DD2788232AF02197660F771F881FDAF772
:104A400020E030E040E85FEB9FE3883920F0803ED3
:104A500030F021968F7782DCEAE2F1E003C07EDC61
:104A6000E7E5F1E062DF8B01BE01EC01FB2E6F5741
:104A700071097595771F880B990B76DD28E132E770
:104A800041E35FE36ADEAF2D9801AE01FF900F9125
:104A90001F91CF91DF9173DC05CEFA01DC01AA0FE3
:104AA000BB1F9B01AC01BF5728F4222733274427A3
:104AB00050781FC0B75188F4AB2F00244695379526
:104AC0002795011CA395D2F3002069F0220F331F14
:104AD000441FB395DAF30DD040CC61307105A0E8E6
:104AE0008A07B94630F49B01AC01662777278827EF
:104AF0009078309621F02083318342835383089548
:104B00000E947E32FC01918D228D892F90E0805C85
:104B10009F4F821B91098F7399270895FC01918DF6
:104B2000828D981731F0828DE80FF11D858D90E010
:104B300008958FEF9FEF0895FC01918D828D981756
:104B400061F0828DDF01A80FB11D5D968C91928D71
:104B50009F5F9F73928F90E008958FEF9FEF08956E
:104B6000FC01538D448D252F30E0842F90E0821B73
:104B7000930B541710F0CF9608950197089586E48B
:104B800097E2892B39F080E090E0892B19F07ED1F3
:104B9000811124C080E090E0892B41F080E090E01A
:104BA000892B21F00E94000081111BC080E090E061
:104BB000892B41F080E090E0892B21F00E940000D9
:104BC000811112C08BED97E2892B99F080E090E083
:104BD000892B79F0F0D181110AC008950E9400005C
:104BE000D9CF0E940000E2CF0E940000EBCF0C94CE
:104BF00000000895FC01848DDF01A80FB11DA35AA8
:104C0000BF4F2C91848D90E001968F739927848FEC
:104C1000A689B7892C93A089B1898C9180648C93E3
:104C2000938D848D981306C00288F389E02D8081CE
:104C30008F7D80830895CF93DF93EC01888D882347
:104C4000C1F0EA89FB89808185FD05C0A889B98901
:104C50008C9186FD0EC00FB607FCF5CF808185FFD5
:104C6000F2CFA889B9898C9185FFEDCFCE01C2DF43
:104C7000E8CFDF91CF910895EF92FF920F931F93AA
:104C8000CF93DF93EC0181E0888F9B8D8C8D9813FF
:104C900005C0E889F989808185FD23C0F62E0B8D3A
:104CA00010E00F5F1F4F0F731127E02E8C8DE8125D
:104CB0000BC00FB607FCFACFE889F989808185FF20
:104CC000F5CFCE0197DFF2CF8B8DFE01E80FF11DFE
:104CD000E35AFF4FF0820B8FEA89FB898081806263
:104CE00007C0EE89FF896083E889F9898081806443
:104CF000808381E090E0DF91CF911F910F91FF9031
:104D0000EF900895CF92DF92EF92FF921F93CF938F
:104D1000DF93EC016A017B01122FE889F98982E0B7
:104D200080834115514E61057105B1F060E079E075
:104D30008DE390E0A70196010E940830DA01C901D5
:104D40000197A109B109B695A79597958795AC01EB
:104D5000411580E15807A8F0E889F989108260E8D8
:104D600074E88EE190E0A70196010E940830BA0134
:104D7000A9014150510961097109769567955795C7
:104D80004795EC85FD855083EE85FF854083188E21
:104D9000EC89FD891083EA89FB89808180618083A9
:104DA000EA89FB89808188608083EA89FB89808128
:104DB00080688083EA89FB8980818F7D8083DF9191
:104DC000CF911F91FF90EF90DF90CF9008951F92A9
:104DD0000F920FB60F9211240BB60F922F938F9351
:104DE0009F93EF93FF93E0914D0CF0914E0C8081D7
:104DF000E091530CF091540C82FD12C0908180918F
:104E0000560C8F5F8F732091570C821751F0E091F1
:104E1000560CF0E0E35CF34F958F8093560C01C085
:104E20008081FF91EF919F918F912F910F900BBEF9
:104E30000F900FBE0F901F9018951F920F920FB6F4
:104E40000F9211240BB60F922F933F934F935F93C2
:104E50006F937F938F939F93AF93BF93EF93FF9342
:104E60008DE39CE0C7DEFF91EF91BF91AF919F91E1
:104E70008F917F916F915F914F913F912F910F9003
:104E80000BBE0F900FBE0F901F9018958DE39CE006
:104E900039DE21E0892B09F420E0822F0895EDE32B
:104EA000FCE01382128288EE93E0A0E0B0E08483FD
:104EB0009583A683B78382E59AE09183808385EC0E
:104EC00090E09587848784EC90E09787868780ECD4
:104ED00090E0918B808B81EC90E0938B828B82ECC5
:104EE00090E0958B848B86EC90E0978B868B118E6F
:104EF000128E138E148E08951F920F920FB60F927A
:104F000011240BB60F922F938F939F93EF93FF93E0
:104F1000E091EA0CF091EB0C8081E091F00CF091C3
:104F2000F10C82FD12C090818091F30C8F5F8F7322
:104F30002091F40C821751F0E091F30CF0E0E6526E
:104F4000F34F958F8093F30C01C08081FF91EF9117
:104F50009F918F912F910F900BBE0F900FBE0F90CE
:104F60001F9018951F920F920FB60F9211240BB637
:104F70000F922F933F934F935F936F937F938F93F2
:104F80009F93AF93BF93EF93FF938AED9CE032DE44
:104F9000FF91EF91BF91AF919F918F917F916F9111
:104FA0005F914F913F912F910F900BBE0F900FBECD
:104FB0000F901F9018958AED9CE0A4DD21E0892BCD
:104FC00009F420E0822F0895EAEDFCE013821282BA
:104FD00088EE93E0A0E0B0E084839583A683B78356
:104FE00082E59AE09183808385E391E095878487C9
:104FF00084E391E09787868780E391E0918B808BB3
:1050000081E391E0938B828B82E391E0958B848B9B
:1050100086E391E0978B868B118E128E138E148E01
:1050200008950895A1D4FDDF0E94491BCFEBD5E27E
:105030000E94B01B2097E1F3A2DDFACFCF92DF925E
:10504000EF92FF920F931F93CF93DF936C017A013E
:105050008B01C0E0D0E0CE15DF0589F0D8016D915D
:105060008D01D601ED91FC910190F081E02DC601FA
:105070001995892B11F47E0102C02196ECCFC7014E
:10508000DF91CF911F910F91FF90EF90DF90CF9024
:1050900008956115710579F0FB0101900020E9F791
:1050A0003197AF01461B570BDC01ED91FC9102805B
:1050B000F381E02D199480E090E00895DC01ED91FA
:1050C000FC91DB0114964D915C9115976D917C914B
:1050D0000280F381E02D1994DCCFDC01ED91FC918D
:1050E0000190F081E02D199460E67AE0D2CF0F9321
:1050F0001F93CF93DF93EC01CCDF8C01CE01F4DF63
:10510000800F911FDF91CF911F910F9108958F9282
:105110009F92AF92BF92CF92DF92EF92FF920F9346
:105120001F93CF93DF93CDB7DEB7A1970FB6F89457
:10513000DEBF0FBECDBF7C01D42EC52EDB0119A270
:10514000223008F42AE08E010F5D1F4F822E912C31
:10515000A12CB12C6D2D7C2DCD01A501940158D72A
:10516000D22EC32EDA01015011096A307105810572
:10517000910510F4605D01C0695CF8016083232B28
:10518000242B252B39F7B801C70183DFA1960FB671
:10519000F894DEBF0FBECDBFDF91CF911F910F916D
:1051A000FF90EF90DF90CF90BF90AF909F908F9047
:1051B0000895CF92DF92EF92FF920F931F93CF93B8
:1051C000DF93EC016A017B012115310579F4E88157
:1051D000F9810190F081E02D642FDF91CF911F9133
:1051E0000F91FF90EF90DF90CF9019942A30310506
:1051F000D9F477FF18C06DE270DF8C014427552782
:10520000BA014C195D096E097F092AE0CE017FDFE2
:10521000800F911FDF91CF911F910F91FF90EF9021
:10522000DF90CF9008952AE0B701A601CE01DF916B
:10523000CF911F910F91FF90EF90DF90CF9067CFAC
:105240009A01AB01770F660B770BB3CF0F931F93C8
:10525000CF93DF93EC019A01AB01770F660B770BCD
:10526000A8DF8C01CE0140DF800F911FDF91CF912D
:105270001F910F9108952115310541F4DC01ED9145
:10528000FC910190F081E02D642F199440CF4F9252
:105290005F926F927F928F929F92AF92BF92CF92C6
:1052A000DF92EF92FF92CF93DF93EC016A017B01D3
:1052B000B22E9A01AB01C701B60196D6882319F028
:1052C00063E67AE024C026013701E89477F82FEFEF
:1052D0003FEF4FE75FE7C301B20186D681110CC0F3
:1052E0002FEF3FEF4FE75FE7C301B2019BD81816DE
:1052F0001CF467E67AE00BC02FEF3FEF4FE75FE467
:10530000C701B6011ADA181694F46BE67AE0CE01FA
:10531000DF91CF91FF90EF90DF90CF90BF90AF9053
:105320009F908F907F906F905F904F90B2CE2FEFB5
:105330003FEF4FE75FECC701B60174D887FDE5CFBB
:1053400020E030E0A901C701B6016CD887FF09C091
:105350006DE2CE01C2DE4C01F7FAF094F7F8F0945A
:1053600002C0812C912CA12C60E070E080E09FE3D2
:10537000AB1439F020E030E040E251E45AD8A39475
:10538000F7CF9B01AC01C701B6010E94AE212B01F2
:105390003C01BCD86B017C01E5D89B01AC01C30189
:1053A000B2010E94AD212B013C012AE0B701A60108
:1053B000CE01ADDE7C01E80CF91CBB2029F06EE2C9
:1053C000CE018BDEE80EF91EDB2CDD2009F120E09A
:1053D00030E040E251E4C301B201B3D92B013C01FA
:1053E00095D84B01A12CB12C2AE0B501A401CE0126
:1053F0008EDEE80EF91EC501B401B4D89B01AC01E4
:10540000C301B2010E94AD212B013C01DA94DDCF32
:10541000C701DF91CF91FF90EF90DF90CF90BF90C9
:10542000AF909F908F907F906F905F904F90089576
:105430002ECF0F931F93CF93DF93EC0128DF8C01C6
:10544000CE0152DE800F911FDF91CF911F910F91FE
:1054500008950895883008F06FC0A82FB0E0AA0F13
:10546000BB1FAF5BB94F11967C936E9390E0FC012C
:105470003197E730F10598F58827EE53FF4F8F4FAE
:1054800005C6809169008C7F482B40936900E89A9B
:10549000089580916900440F551F440F551F837F65
:1054A000482B40936900E99A08958091690074E05F
:1054B000440F551F7A95E1F78F7C482B4093690084
:1054C000EA9A08958091690066E0440F551F6A9535
:1054D000E1F78F73482B40936900EB9A0895809110
:1054E0006A008C7F482B40936A00EC9A0895809163
:1054F0006A00440F551F440F551F837F482B40936C
:105500006A00ED9A089580916A0024E0440F551FC7
:105510002A95E1F78F7C482B40936A00EE9A089514
:1055200080916A0096E0440F551F9A95E1F78F73BA
:10553000482B40936A00EF9A08951F920F920FB67E
:105540000F9211240BB60F922F933F934F935F93BB
:105550006F937F938F939F93AF93BF93EF93FF933B
:10556000E0914506F09146061995FF91EF91BF91A4
:10557000AF919F918F917F916F915F914F913F91EB
:105580002F910F900BBE0F900FBE0F901F9018958C
:105590001F920F920FB60F9211240BB60F922F93FA
:1055A0003F934F935F936F937F938F939F93AF93AB
:1055B000BF93EF93FF93E0914706F091480619954A
:1055C000FF91EF91BF91AF919F918F917F916F91DB
:1055D0005F914F913F912F910F900BBE0F900FBE97
:1055E0000F901F9018951F920F920FB60F921124D3
:1055F0000BB60F922F933F934F935F936F937F93CD
:105600008F939F93AF93BF93EF93FF93E0914906DE
:10561000F0914A061995FF91EF91BF91AF919F913B
:105620008F917F916F915F914F913F912F910F904B
:105630000BBE0F900FBE0F901F9018951F920F92E8
:105640000FB60F9211240BB60F922F933F934F93E7
:105650005F936F937F938F939F93AF93BF93EF93DA
:10566000FF93E0914B06F0914C061995FF91EF9155
:10567000BF91AF919F918F917F916F915F914F916A
:105680003F912F910F900BBE0F900FBE0F901F9068
:1056900018951F920F920FB60F9211240BB60F920E
:1056A0002F933F934F935F936F937F938F939F932A
:1056B000AF93BF93EF93FF93E0914106F0914206C1
:1056C0001995FF91EF91BF91AF919F918F917F912C
:1056D0006F915F914F913F912F910F900BBE0F9063
:1056E0000FBE0F901F9018951F920F920FB60F923A
:1056F00011240BB60F922F933F934F935F936F93A9
:105700007F938F939F93AF93BF93EF93FF93E0911A
:105710004306F09144061995FF91EF91BF91AF9127
:105720009F918F917F916F915F914F913F912F91B9
:105730000F900BBE0F900FBE0F901F9018951F92E9
:105740000F920FB60F9211240BB60F922F933F9327
:105750004F935F936F937F938F939F93AF93BF9379
:10576000EF93FF93E0914D06F0914E061995FF914E
:10577000EF91BF91AF919F918F917F916F915F91C9
:105780004F913F912F910F900BBE0F900FBE0F9036
:105790001F9018951F920F920FB60F9211240BB6FF
:1057A0000F922F933F934F935F936F937F938F93BA
:1057B0009F93AF93BF93EF93FF93E0914F06F091C8
:1057C00050061995FF91EF91BF91AF919F918F91E5
:1057D0007F916F915F914F913F912F910F900BBEF1
:1057E0000F900FBE0F901F9018951F920F920FB63B
:1057F0000F9211242F933F938F939F93AF93BF9357
:105800008091780D9091790DA0917A0DB0917B0DDA
:105810003091770D23E0230F2D3720F40196A11D41
:10582000B11D05C026E8230F0296A11DB11D2093CE
:10583000770D8093780D9093790DA0937A0DB093A6
:105840007B0D80917C0D90917D0DA0917E0DB0918E
:105850007F0D0196A11DB11D80937C0D90937D0D50
:10586000A0937E0DB0937F0DBF91AF919F918F91CB
:105870003F912F910F900FBE0F901F9018952FB74B
:10588000F8946091780D7091790D80917A0D9091D6
:105890007B0D2FBF08953FB7F89480917C0D9091B8
:1058A0007D0DA0917E0DB0917F0D26B5A89B05C002
:1058B0002F3F19F00196A11DB11D3FBFBA2FA92F8F
:1058C000982F8827820F911DA11DB11DBC01CD010C
:1058D00042E0660F771F881F991F4A95D1F70895F8
:1058E0008F929F92AF92BF92CF92DF92EF92FF92F0
:1058F0006B017C01D0DF4B015C01C114D104E104D8
:10590000F104F1F070D3C7DFDC01CB0188199909EC
:10591000AA09BB09883E9340A105B10570F321E0B7
:10592000C21AD108E108F10888EE880E83E0981EBB
:10593000A11CB11CC114D104E104F10421F7DDCF95
:10594000FF90EF90DF90CF90BF90AF909F908F909F
:1059500008958230910538F0880F991F880F991F9C
:1059600005970197F1F70895789484B5826084BD16
:1059700084B5816084BD85B5826085BD85B5816053
:1059800085BDEEE6F0E0808181608083E1E8F0E0B3
:105990001082808182608083808181608083E0E8E2
:1059A000F0E0808181608083E1EBF0E080818460C1
:1059B0008083E0EBF0E0808181608083E1E9F0E0CA
:1059C000808182608083808181608083E0E9F0E073
:1059D000808181608083E1EAF0E080818260808361
:1059E000808181608083E0EAF0E080818160808353
:1059F000E1E2F1E080818260808380818160808348
:105A0000E0E2F1E0808181608083EAE7F0E080817C
:105A100084608083808182608083808181608083D4
:105A20008081806880831092C100089590E0FC011D
:105A30003197E231F10508F04DC08827E753FF4F59
:105A40008F4F24C3809180008F7703C080918000A6
:105A50008F7D80938000089580918000877FF9CFAB
:105A600084B58F7702C084B58F7D84BD0895809101
:105A7000B0008F7703C08091B0008F7D8093B0001D
:105A80000895809190008F7707C0809190008F7D5E
:105A900003C080919000877F80939000089580914B
:105AA000A0008F7707C08091A0008F7D03C08091F8
:105AB000A000877F8093A0000895809120018F77B8
:105AC00007C0809120018F7D03C080912001877FD6
:105AD000809320010895CF93DF9390E0FC01E45080
