:1000000007C400000C9426310C9451310C947C31BF
:100010000C94A7310C94D2310C94FD310C942832FD
:100020000C94533226C4000024C4000022C40000F3
:1000300020C400001EC400001CC400001AC400003C
:1000400018C400000C94E32614C4000012C400007D
:1000500010C400000EC400000CC400000C947E32DA
:1000600008C400000C94442D0C947A2D02C40000A6
:1000700000C40000FEC30000FCC30000FAC300007F
:10008000F8C30000F6C30000F4C30000F2C3000090
:10009000F0C30000EEC30000ECC300000C949F23EB
:1000A000E8C30000E6C30000E4C30000E2C30000B0
:1000B000E0C30000DEC30000DCC30000DAC30000C0
:1000C000D8C30000D6C30000D4C300000C94D92DBF
:1000D0000C940F2ECEC30000CCC30000CAC3000096
:1000E000C8C30000084AD73B3BCE016E84BCBFFDAD
:1000F000C12F3D6C74319ABD56833DDA3D00C77FF8
:1001000011BED9E4BB4C3E916BAAAABE0000008090
:100110003F05A84CCDB2D44EB93836A9020C50B91F
:10012000918688083CA6AAAA2ABE000000803F0744
:10013000634236B79BD8A71A39685618AEBAAB5582
:100140008C1D3CB7CC5763BD6DEDFD753EF6177247
:1001500031BF000000803F08000000BE9224491219
:100160003EABAAAA2ABECDCCCC4C3E00000080BE3D
:10017000ABAAAAAA3E00000000BF000000803F001A
:1001800000000000084178D3BB4387D1133D190E0E
:100190003CC3BD4282AD2B3E68EC8276BED98FE176
:1001A000A93E4C80EFFFBE01C4FF7F3F000000006E
:1001B00000000031CA30D230DE30EB300C31193162
:1001C000B933BC33AB33AF33B533F333C033C4339C
:1001D000CA33CE33D233D833DC33E033F333E633B0
:1001E000EA33EE3300000000003E5B4F5B3E3E6BA7
:1001F0004F6B3E1C3E7C3E1C183C7E3C181C577DC1
:10020000571C1C5E7F5E1C00183C1800FFE7C3E70C
:10021000FF0018241800FFE7DBE7FF30483A060E1E
:100220002629792926407F050507407F05253F5A65
:100230003CE73C5A7F3E1C1C08081C1C3E7F1422D5
:100240007F22145F5F005F5F06097F017F00668980
:10025000956A606060606094A2FFA29408047E04C6
:100260000810207E201008082A1C08081C2A0808EC
:100270001E101010100C1E0C1E0C30383E383006AC
:100280000E3E0E06000000000000005F00000007A8
:10029000000700147F147F14242A7F2A12231308D6
:1002A000646236495620500008070300001C2241B2
:1002B000000041221C002A1C7F1C2A08083E080856
:1002C0000080703000080808080800006060002006
:1002D000100804023E5149453E00427F40007249E9
:1002E0004949462141494D331814127F102745458D
:1002F00045393C4A494931412111090736494949A3
:1003000036464949291E0000140000004034000010
:100310000008142241141414141400412214080279
:10032000015909063E415D594E7C1211127C7F49EC
:100330004949363E414141227F4141413E7F494941
:1003400049417F090909013E414151737F0808086D
:100350007F00417F41002040413F017F081422413E
:100360007F404040407F021C027F7F0408107F3E98
:100370004141413E7F090909063E4151215E7F0905
:10038000192946264949493203017F01033F40406C
:10039000403F1F2040201F3F4038403F6314081457
:1003A0006303047804036159494D43007F4141418F
:1003B0000204081020004141417F04020102044070
:1003C00040404040000307080020545478407F28F4
:1003D0004444383844444428384444287F385454EA
:1003E000541800087E090218A4A49C787F0804040D
:1003F0007800447D40002040403D007F10284400AC
:1004000000417F40007C047804787C08040478383C
:1004100044444438FC1824241818242418FC7C086C
:10042000040408485454542404043F44243C4040E9
:10043000207C1C2040201C3C4030403C442810289C
:10044000444C9090907C4464544C440008364100E5
:100450000000770000004136080002010204023C5F
:100460002623263C1EA1A161123A4040207A38542E
:1004700054555921555579412254547842215554A7
:10048000784020545579400C1E52721239555555FA
:1004900059395454545939555454580000457C41E5
:1004A0000002457D420001457C407D1211127DF025
:1004B000282528F07C545545002054547C547C0A4F
:1004C000097F4932494949323A4444443A324A4818
:1004D00048303A4141217A3A42402078009DA0A01C
:1004E0007D3D4242423D3D4040403D3C24FF24246E
:1004F000487E4943662B2FFC2F2BFF0929F620C08D
:10050000887E090320545479410000447D413048DD
:10051000484A32384040227A007A0A0A727D0D1920
:10052000317D2629292F28262929292630484D4082
:1005300020380808080808080808382F10C8ACBA7E
:100540002F102834FA00007B000008142A142222FD
:10055000142A14085500550055AA55AA55AAFF5546
:10056000FF55FF000000FF00101010FF00141414CE
:10057000FF001010FF00FF1010F010F0141414FC16
:10058000001414F700FF0000FF00FF1414F404FC33
:10059000141417101F10101F101F1414141F001014
:1005A0001010F0000000001F101010101F1010108D
:1005B00010F010000000FF1010101010101010109C
:1005C000FF10000000FF140000FF00FF00001F10DC
:1005D000170000FC04F414141710171414F404F496
:1005E0000000FF00F714141414141414F700F71487
:1005F0001414171410101F101F141414F4141010D6
:10060000F010F000001F101F0000001F1400000079
:10061000FC140000F010F01010FF10FF141414FF71
:10062000141010101F00000000F010FFFFFFFFFF6C
:10063000F0F0F0F0F0FFFFFF0000000000FFFF0F00
:100640000F0F0F0F3844443844FC4A4A4A347E02A4
:10065000020606027E027E02635549416338444425
:100660003C04407E201E2006027E020299A5E7A5DA
:10067000991C2A492A1C4C7201724C304A4D4D304B
:100680003048784830BC625A463D3E494949007E70
:100690000101017E2A2A2A2A2A44445F4444405107
:1006A0004A444040444A51400000FF0103E080FFBB
:1006B000000008086B6B083612362436060F090F47
:1006C00006000018180000001010003040FF010163
:1006D000001F01011E00191D1712003C3C3C3C008C
:1006E0000000000000000A0B02090C0D0E080703B1
:1006F00004010000000000000000000000000000F5
:1007000000000000000000000000000000000000E9
:1007100012111000000000000000000000000000A6
:10072000000000000000000000000102102020086E
:10073000081020401020408002010201080402013C
:1007400001020408102040808040201008040201AB
:100750008004020180402010080402010804020104
:10076000010204081020408001020408102040808B
:1007700005050505070508080808020202020A0A1D
:10078000080804040404010101010101010103033B
:10079000030303030303040707070C0C0C0C0C0CE6
:1007A0000C0C0202020206060606060606060B0BE3
:1007B0000B0B0B0B0B0B0000200023002600290065
:1007C0002C002F0032000001000003010601090186
:1007D00000002200250028002B002E0031003400EC
:1007E00002010000050108010B01000021002400A6
:1007F00027002A002D003000330001010000040111
:1008000007010A014B142822F025AC2D412E6A2243
:1008100011241FBECFEFD1E2DEBFCDBF00E00CBF81
:100820001CE0A0E0B2E0E6ECF0E700E00BBF02C0A5
:1008300007900D92A637B107D9F720E1A6E7BCE0F3
:1008400001C01D92AE31B207E1F714E0C7E0D4E079
:1008500000E006C021970109802FFE010E94F535B6
:10086000C230D10780E00807A9F70E946F2E0C94D0
:100870005238C6CB80E090E0089508952F923F92C1
:100880004F925F926F927F928F929F92AF92BF92A0
:10089000CF92DF92EF92FF920F931F93CF93DF934C
:1008A00000D0CDB7DEB74C017B836A836A01590162
:1008B00017019801241B350B37FF03C03195219593
:1008C0003109C5014A815B81841B950B97FF03C0E9
:1008D00091958195910951E059838217930714F0FE
:1008E00019820BC09A2D8B2D5801092F182F9A8130
:1008F0008B81DB82CA82C92ED82E8A819B81A81661
:10090000B9065CF49C2D8D2D6801092F182F9A8152
:100910008B81BB82AA82A92EB82E2501AA81BB8118
:100920004A1A5B0A38016C187D0877FE03C071947F
:1009300061947108720157FE03C0BFEFEB1AFB0A06
:10094000F594E794C016D1061CF00FEF1FEF1FC0FF
:1009500001E010E01CC0D401ED91FC91B981048448
:10096000F585E02D9101BB23C1F04A815B81B60181
:10097000C4011995E618F708F7FE04C0C00ED11E91
:10098000E40CF51CEA81FB813196FB83EA834A8102
:100990005B81A416B506FCF604C0A6016A817B81C2
:1009A000E7CF0F900F900F90DF91CF911F910F9194
:1009B000FF90EF90DF90CF90BF90AF909F908F907F
:1009C0007F906F905F904F903F902F900895089583
:1009D000DC01ED91FC910084F185E02D19940F93D9
:1009E0001F93DC01ED91FC91048CF58DE02D1995A0
:1009F0001F910F9108950F931F93DC01ED91FC91CE
:100A0000068CF78DE02D19951F910F910895EF92A7
:100A1000FF920F931F93DC01ED91FC9100A0F1A1D7
:100A2000E02D19951F910F91FF90EF900895089573
:100A3000AF92BF92CF92DF92EF92FF920F931F93EC
:100A4000CF93DF9300D01F92CDB7DEB75C01690171
:100A5000DC01ED91FC910284F385E02D4B835C83F6
:100A600069837A831995D501ED91FC914B815C8165
:100A7000C40ED51EB1E0CB1AD1080488F589E02D4B
:100A80007801860169817A819B01C5011995D5019B
:100A9000ED91FC910688F789E02DC5010F900F902C
:100AA0000F900F90DF91CF911F910F91FF90EF90DA
:100AB000DF90CF90BF90AF901994AF92BF92CF923A
:100AC000DF92EF92FF920F931F93CF93DF9300D0AB
:100AD0001F92CDB7DEB75C016901DC01ED91FC919D
:100AE0000284F385E02D4B835C8369837A831995B7
:100AF000D501ED91FC9169817A819B012C0D3D1D01
:100B0000215031090488F589E02D78014B815C8101
:100B10008A01C5011995D501ED91FC910688F789E7
:100B2000E02DC5010F900F900F900F90DF91CF91A6
:100B30001F910F91FF90EF90DF90CF90BF90AF90FB
:100B400019944F925F926F927F928F929F92AF9281
:100B5000BF92CF92DF92EF92FF920F931F93CF93AA
:100B6000DF931F921F92CDB7DEB76C015A01390196
:100B70004801DC01ED91FC910284F385E02D69834D
:100B80007A8319956981462E7A81572E640C751CDB
:100B9000D601ED91FC91461457046CF40088F1895C
:100BA000E02D87019401A501B201C6011995BFEF9F
:100BB0004B1A5B0AEDCF0688F789E02DC6010F902E
:100BC0000F90DF91CF911F910F91FF90EF90DF90E9
:100BD000CF90BF90AF909F908F907F906F905F90DD
:100BE0004F901994EF92FF920F931F93DC01ED91B8
:100BF000FC9111971A960D911C911B9718962D91A7
:100C00003C91199700A0F1A1E02D7B0140E050E05C
:100C100060E070E019951F910F91FF90EF9008959B
:100C2000CF92DF92EF92FF920F931F93CF93DF93B8
:100C300000D000D0CDB7DEB76C01DC01ED91FC91A6
:100C40006217730789F4041715072CF4942F852F66
:100C5000A801092F182F041B150B98012F5F3F4F78
:100C6000048CF58DE02D12C04017510709F52617A9
:100C700037072CF4962F872FB901292F382F261BE1
:100C8000370B2F5F3F4F068CF78DE02D8701C60194
:100C9000199526960FB6F894DEBF0FBECDBFDF9133
:100CA000CF911F910F91FF90EF90DF90CF9008951B
:100CB0000284F385E02D2D833E834B835C8369831F
:100CC0007A831995D601ED91FC910488F589E02D80
:100CD0002D813E814B815C8169817A81C6011995A4
:100CE000D601ED91FC910688F789E02DC601269684
:100CF0000FB6F894DEBF0FBECDBFDF91CF911F912D
:100D00000F91FF90EF90DF90CF9019946F927F92A8
:100D10008F929F92AF92BF92CF92DF92EF92FF920B
:100D20000F931F93CF93DF93EC014B015A0169019D
:100D30003801E881F9810284F385E02D1995E88175
:100D4000F9810288F389E02D87019601A501B4019C
:100D5000CE011995E881F981A501460D571D415035
:100D600051090288F389E02D9601B401CE0119954D
:100D7000E881F9810088F189E02D9301A501B40192
:100D8000CE011995E881F981C80CD91CB6016150D2
:100D900071090088F189E02D9301A501CE01199513
:100DA000E881F9810688F789E02DCE01DF91CF91A6
:100DB0001F910F91FF90EF90DF90CF90BF90AF9079
:100DC0009F908F907F906F9019940895FC016370AD
:100DD000658B8481958126813781613039F063305C
:100DE00029F091878087338722870895318720876C
:100DF000938782870895FC01138212828BE596E027
:100E0000918380837583648357834683718760876A
:100E100053874287158A158614861786168681E0C1
:100E2000848B2FEF3FEF338B228B318B208B868B84
:100E3000178A118E108E08952F923F924F925F92D3
:100E40006F927F928F929F92AF92BF92CF92DF92DA
:100E5000EF92FF920F931F93CF93DF93CDB7DEB73F
:100E60006C970FB6F894DEBF0FBECDBF9C8F8B8FF3
:100E70005B011A011F830E833701C982DC0158967A
:100E80004D915C9159974115510509F0E5C01896AF
:100E90008D919C911997681779070CF0CAC11A9621
:100EA0008D919C911B97281639060CF0C2C18C2C91
:100EB000912CFB0136E0C39EE00DF11D1124FB8750
:100EC000EA871E161F060CF0B4C1C40133E0880F78
:100ED000991F3A95E1F79D878C87820D931D18160F
:100EE00019060CF0A6C157968C91811103C0203BC6
:100EF00008F02F5FAB8DBC8DED91FC9111970284B2
:100F0000F385E02DCD012A8F19952A8DB5E02B9F11
:100F100090011124F5013596FF87EE872501BB82EC
:100F2000AA82A9014A195B09598B488BC10108960D
:100F30009B8B8A8BE889F989E40DF51DEC51FE4FF6
:100F4000949198873D822C826101A885A0FF13C0EF
:100F5000AB8DBC8DED91FC91B981B13031F404843D
:100F6000F585E02D2E813F8116C00684F785E02DA2
:100F7000EE80FF801AC0EE81FF816E167F06F1F0D1
:100F8000AB8DBC8DED91FC91B981B13051F40484ED
:100F9000F585E02D9301A601B2018B8D9C8D1995ED
:100FA0000DC00684F785E02D7301840194014C8106
:100FB0005D816A817B818B8D9C8D1995E885E69595
:100FC000E8872C813D81280D391D3D832C833FEF1F
:100FD000C31AD30A4A895B89C416D50609F0B5CF6E
:100FE0008A819B81880D991D9B838A839FEF491A73
:100FF000590AAE85BF854A165B0609F09BCFEE8184
:10100000FF816E167F0609F4F2C0EB8DFC8DA08186
:10101000B181F981F13079F4B5016B5F7F4F509662
:10102000ED91FC915197830128E030E0A1018B8D77
:101030009C8D1995DCC06A857B85681979091E9697
:10104000ED91FC911F9773010C851D859401A10101
:101050008B8D9C8D1995CBC0FA0134969491329763
:1010600065917491291BCB01B7E02B9F800D911DD9
:101070001124FA01259134913B8B2A8BFC01459177
:1010800054915B834A83FC013296C490319654910B
:101090005C87329614913196D4908981823058F0D1
:1010A000612E012E000C7708AD2D0D2C000CBB0B12
:1010B000B987A88704C019861886612C712CAB8D5E
:1010C000BC8DED91FC9111970284F385E02DCD014B
:1010D0001995B9818B2E912C689CC001699C900D4B
:1010E000789C900D1124FC01EA0DFB1DF98BE88B17
:1010F0001C82712C612CE12F110FFF0B95012E0F1B
:101100003F1F3B872A87AC0CB11CA5014E0F5F1F08
:101110005F8B4E8BC1018D0D911DD7FC9A95998FD8
:10112000888F4C85641608F062C0862D90E0488553
:101130005985480F591F489D9001499D300D589D74
:10114000300D1124D901A20DB31DBF87AE87AA842B
:10115000BB8448885988DC80BA85DB1AE88DF98D14
:10116000E80FF91FFD8BEC8B8D2D8A0D2E893F89A1
:10117000A216B306B9F1877061F48A819B8101964A
:10118000EA89FB89AA81BB81EA0FFB1F74909B83CC
:101190008A8377FE20C0AB8DBC8DED91FC91B98127
:1011A000B13061F40484F585E02D2E813F814C89B6
:1011B0005D89B5018B8D9C8D19950DC00684F785D1
:1011C000E02DEE80FF80840194014E855F85B201A1
:1011D0008B8D9C8D1995770C480C591CEFEFAE1A2E
:1011E000BE0AC2CF3C813C0D3C8363949ACFAB8D49
:1011F000BC8DED91FC9111970688F789E02DCD010A
:101200006C960FB6F894DEBF0FBECDBFDF91CF91C5
:101210001F910F91FF90EF90DF90CF90BF90AF9014
:101220009F908F907F906F905F904F903F902F9006
:1012300019946C960FB6F894DEBF0FBECDBFDF9148
:10124000CF911F910F91FF90EF90DF90CF90BF90C3
:10125000AF909F908F907F906F905F904F903F9056
:101260002F900895AF92BF92CF92EF92FF920F937B
:101270001F93CF93DF93EC01262F888D998D0097D4
:1012800009F03FC06A3059F41D861C862C898E8572
:101290009F8538E0239F800D911D112440C06D3043
:1012A00009F4A8C08E898823C1F03C898C859D856E
:1012B00046E0349F800D911D1124488559854817BB
:1012C00059075CF41D861C868E859F8548E0349FF7
:1012D000800D911D11249F878E87EA88FB880889DD
:1012E00019894E855F856C857D85CC88CE01A4DD0E
:1012F0002C898C859D8536E0239F800D911D1124BE
:1013000042C06A3079F41D861C862C89FC01369611
:10131000E4918E859F852E9F800D911D11249F87BE
:101320008E8768C06D3009F465C0FC013496349135
:10133000631708F45FC03196E491E61708F45AC0C9
:10134000FC013296A590B490462F50E0431B510902
:1013500037E0349FB001359F700D1124A60EB71EE3
:10136000F501329634913196E491332311F0E11175
:101370000DC0F5013496E4912C898C859D85E29F02
:10138000800D911D11249D878C8734C0F501359601
:1013900044915E89552311F16C89E32FF0E0E40F4D
:1013A000F11D47FDFA956E9FD0016F9FB00D11247E
:1013B0004C855D854A0F5B1FE885F985E417F507C5
:1013C0006CF41D861C86FC013696E4918E859F8503
:1013D0006E9F800D911D11249F878E87EA88FB8860
:1013E000088919894E855F856C857D85CC88CE01FD
:1013F00023DDBFCF81E090E0DF91CF911F910F916E
:10140000FF90EF90CF90BF90AF900895FC0175874B
:101410006487578746870895611101C061E0FC0128
:10142000648B0895FC01738B628B718B608B0895C4
:10143000FC0185890895FC01808591850895FC0152
:101440008285938508950F931F93CF93DF93DC01DB
:10145000FB0155968C915597823089F0833021F1AC
:10146000813009F0E6C014968D919C911597BC01CE
:10147000641B750BAB0141505109BF011DC014968F
:101480006D917C911597CB018E1B9F0BFC011696DD
:101490008D919C911797BC01641B750BAB0141505A
:1014A0005109E21BF30BC5C016966D917C911797FD
:1014B0006E1B7F0B621B730B57FD1AC114968D9127
:1014C0009C911597481759070CF012C177FF04C07B
:1014D000260F371F60E070E016968D919C9117974C
:1014E000FB01E20FF31F8E179F071CF49C01261BC4
:1014F000370B121613060CF0FBC0A22F862F869511
:101500008695869590E8899F400D511D1124FA011A
:10151000EA5EFD4F6770A9F198E0961B492F50E0F5
:10152000EA01C25FDD4F8881291790F4421B5109FF
:101530002FEF30E002C0359527954A95E2F78223D8
:101540000130110541F068F00230110589F0D0C07A
:101550000130110519F42081822B0CC001301105D6
:1015600020F480952081822305C00230110531F4DA
:10157000208182278083A91708F4BAC0A91BE058EC
:10158000FF4FA83048F10230110559F4EF018A2FBE
:10159000988190959883C058DF4F88508830C0F765
:1015A00032C081E00130110509F080E08195EF0142
:1015B0009A2F8883C058DF4F98509830D0F788EF23
:1015C0008A0F86958695869560E8869FE00DF11DC9
:1015D0001124E058FF4FA770AA2309F489C0B0E096
:1015E000AA5FBD4F8C910130110529F038F002300F
:1015F0001105E1F07DC09081892B03C08095908119
:101600008923808375C088EF8A0F86958695869595
:1016100070E8879FE00DF11D1124E058FF4FA7707F
:1016200009F466C0B0E0AA5FBD4F8C919081892714
:10163000E8CF57FD5DC016968D919C91179748177E
:1016400059070CF055C0F7FF04C02E0F3F1FE0E014
:10165000F0E014968D919C911597BF01620F731F56
:10166000861797071CF49C012E1B3F0B12161306BE
:101670000CF03EC0CA0157FD079663E0959587952B
:101680006A95E1F79695982F882797958795E80FA3
:10169000F91FEA5EFD4F4770552781E090E001C0D9
:1016A000880F4A95EAF7482F0130110539F078F094
:1016B00002301105E9F42E0F3F1F13C02E0F3F1FFC
:1016C000E217F307A9F08081842B8193F9CF8095ED
:1016D0002E0F3F1FE217F30759F090819823919343
:1016E000F9CFE217F30721F0808184278193F9CFA6
:1016F000DF91CF911F910F9108950F931F93CF9377
:10170000DF93DC0155968C915597823071F08330D0
:1017100009F1813009F08CC01496ED91FC91159778
:10172000E41BF50BE21BF30B20C01496ED91FC912A
:101730001597CF01861B970BBC0161507109169656
:10174000ED91FC911797CF01841B950BAC01421BC7
:10175000530B6EC01696ED91FC911797CF01861B27
:10176000970BBC0161507109FA0177FD1BC11696F8
:101770008D919C911797681779070CF013C1F7FFAB
:1017800004C02E0F3F1FE0E0F0E014968D919C9175
:101790001597AF01420F531F841795071CF49C0146
:1017A0002E1B3F0B121613060CF0FCC0CB0177FD6D
:1017B000079643E0959587954A95E1F79695982F7A
:1017C000882797958795E80FF91FEA5EFD4F6770A8
:1017D000772781E090E001C0880F6A95EAF7482FEB
:1017E0000130110541F088F00230110509F0DAC02E
:1017F0002E0F3F1F15C02E0F3F1FE217F30709F4EE
:10180000D1C08081842B8193F8CF80952E0F3F1F0C
:10181000E217F30709F4C6C0908198239193F8CF9B
:10182000E217F30709F4BEC0808184278193F8CFC3
:1018300077FDB8C014968D919C911597681779071C
:101840000CF0B0C057FF04C0240F351F40E050E03B
:1018500016968D919C911797FA01E20FF31F8E1740
:101860009F071CF49C01241B350B121613060CF069
:1018700099C0A22F842F86958695869590E8899F9A
:10188000600D711D1124FB01EA5EFD4F4770A9F147
:1018900098E0941B492F50E0EA01C25FDD4F888138
:1018A000291790F4421B51092FEF30E002C0359503
:1018B00027954A95E2F782230130110541F068F03F
:1018C0000230110589F06EC00130110519F4208134
:1018D000822B0CC00130110520F4809520818223D9
:1018E00005C00230110531F4208182278083A917B9
:1018F00008F458C0A91BE058FF4FA83048F1023047
:10190000110559F4EF018A2F988190959883C0585A
:10191000DF4F88508830C0F730C081E001301105BA
:1019200009F080E08195EF019A2F8883C058DF4F3E
:1019300098509830D0F788EF8A0F869586958695CF
:1019400090E8899FE00DF11D1124E058FF4FA7702A
:10195000AA2341F1B0E0AA5FBD4F8C91013011057F
:1019600029F038F002301105D1F01CC09081892B8C
:1019700018C080959081892314C088EF8A0F8695BE
:101980008695869590E8899FE00DF11D1124E05819
:10199000FF4FA77039F0B0E0AA5FBD4F8C919081E6
:1019A00089278083DF91CF911F910F910895CF9266
:1019B000DF92EF92FF920F931F93CF93DF937C01FF
:1019C0008B01EA01690177FD9DC035DD0817190714
:1019D0000CF098C0D7FD96C0C70131DDC817D907F4
:1019E0000CF090C0C70124DD823009F07FC0F70100
:1019F00064817581CB01801B910B8C010150110911
:101A000046815781FA01EC1BFD0BEF0121970BC0BA
:101A1000813049F4F701848195818C1B9D0BE8018D
:101A20008C0101501109F1E0CF16D10431F010F111
:101A300082E0C816D104E1F165C0FE01D7FD3796FA
:101A400043E0F595E7954A95E1F7F695FE2FEE27E9
:101A5000F795E7950E0F1F1FF801EA5EFD4FC7705F
:101A6000DD2781E090E001C0880FCA95EAF79081F8
:101A7000892B3AC0FE01D7FD379623E0F595E7950F
:101A80002A95E1F7F695FE2FEE27F795E7950E0FCD
:101A90001F1FF801EA5EFD4FC770DD2781E090E06F
:101AA00001C0880FCA95EAF78095908189231CC0F0
:101AB000FE01D7FD379683E0F595E7958A95E1F726
:101AC000F695FE2FEE27F795E7950E0F1F1FF801ED
:101AD000EA5EFD4FC770DD2781E090E001C0880F0E
:101AE000CA95EAF79081892780830CC0833009F07A
:101AF0008FCFF70186819781801B910B8E01EC01BE
:101B0000219791CFDF91CF911F910F91FF90EF908F
:101B1000DF90CF9008951F93CF93DF93EC01162FA2
:101B200040E450E060E870E066D987E896E0998389
:101B300088838FEF8C8F88A38E8F8D8F1F8FDF917F
:101B4000CF911F91089580E094E0E6E1F2E0DF019B
:101B50009C011D9221503040E1F70895FC0181A1C4
:101B6000882339F06EBD00000DB407FEFDCF8EB5A1
:101B7000089528E030E090E8A4A1B5A14C9183A598
:101B8000809584238C93A2A1B3A182A5492F4623DB
:101B900019F04C91842B03C04C91809584238C9335
:101BA000A4A1B5A14C9183A5842B8C93969521502B
:101BB000310911F708951F93CF93DF93EC01162F8E
:101BC0008C8D8F3F01F1EEA1FFA190818CA5892B17
:101BD0008083E8A5F9A590818DA5809589238083D0
:101BE000EEA1FFA190818CA5809589238083CE01F1
:101BF000B5DFEEA1FFA190818CA5892B8083DF91B9
:101C0000CF911F9108958A8D682F880F770B85E8F3
:101C10009EE00E94792560E085E89EE00E942825EC
:101C2000612F85E89EE00E94282585E89EE0DF91EF
:101C3000CF911F910C94EE250F931F93CF93DF93B9
:101C4000EC01162F022F6B8F4A8F8C8D8F3F09F47A
:101C50008CC061E08E8D0E94F43361E088A10E9407
:101C6000F43388A1082E000C990BFC01E059F84FC1
:101C7000E491F0E0EE0FFF1FE053F84F259134910F
:101C80003FA32EA3FC01E65DF84FE491ECA78E8DF7
:101C9000082E000C990BFC01E059F84FE491F0E09C
:101CA000EE0FFF1FE053F84F2591349139A728A775
:101CB000FC01E65DF84FE491EDA789A1811134C0E4
:101CC00061E08C8D0E94F43361E08D8D0E94F433CD
:101CD0008D8D082E000C990BFC01E059F84FE49112
:101CE000F0E0EE0FFF1FE053F84F259134913DA334
:101CF0002CA3FC01E65DF84FE491EBA78C8D082E38
:101D0000000C990BFC01E059F84FE491F0E0EE0F64
:101D1000FF1FE053F84F259134913BA32AA3FC0108
:101D2000E65DF84FE491EAA789A1882311F10E94AA
:101D300075228091150E882399F02FB7F894809121
:101D4000150E813059F48DB38093130E9DB380919D
:101D5000140E809589238DBB2FBF02C02093130ED4
:101D600080E58CBD81E08DBD04C085E89EE00E94C9
:101D700066250023F1F08F8D87FD1BC061E00E9476
:101D8000F43361E08F8D0E94303461E070E080E0D8
:101D900090E00E94F93260E08F8D0E9430346AE05A
:101DA00070E080E090E00E94F93261E08F8D0E9447
:101DB00030346EEACE01FFDE65EDCE01FCDE60E878
:101DC000CE01F9DE68EACE01F6DE6FE3CE01F3DE86
:101DD00063EDCE01F0DE60E0CE01EDDE60E4CE0129
:101DE000EADE6DE8CE01E7DE113011F460E101C0FA
:101DF00064E1CE01E0DE60E2CE01DDDE60E0CE0136
:101E0000DADE61EACE01D7DE68ECCE01D4DE6AED1F
:101E1000CE01D1DE62E1CE01CEDE61E8CE01CBDEC5
:101E2000113011F46FE901C06FECCE01C4DE69ED31
:101E3000CE01C1DE113011F462E201C061EFCE01CA
:101E4000BADE6BEDCE01B7DE60E4CE01B4DE64EA4B
:101E5000CE01B1DE66EACE01AEDE6EE2CE01ABDED1
:101E60006FEACE01DF91CF911F910F91A4CEDF9247
:101E7000EF92FF920F931F93CF93DF93EC0161E2F8
:101E80009ADE60E0CE0197DE6FE7CE0194DE62E27B
:101E9000CE0191DE60E0CE018EDE67E0CE018BDE0A
:101EA0008C8D8F3F29F1EEA1FFA190818CA5892B0C
:101EB0008083E8A5F9A590818DA5892B8083EEA16B
:101EC000FFA190818CA580958923808306E112E093
:101ED000F80161918F01CE0141DEF6E006311F0766
:101EE000B9F7EEA1FFA190818CA5892B808331C029
:101EF000D090B8008CE08093B80006E112E06A8DC3
:101F0000062E000C770B85E89EE00E94792560E4A0
:101F100085E89EE00E942825E12CF12CF801EE0DC9
:101F2000FF1D608185E89EE00E9428258FEFE81A5A
:101F3000F80AE0E1EE16F10489F785E89EE00E94D8
:101F4000EE25005F1F4FF6E006311F07C1F6D09265
:101F5000B800DF91CF911F910F91FF90EF90DF902C
:101F60000895CF93DF93FC0188E0DF01C82F1D9215
:101F7000CA95E9F7DF011896ED0119928A95E9F7FC
:101F8000148E158E168E178E10A280E090E0A0E8B9
:101F9000BFE3808B918BA28BB38B848B958BA68BAD
:101FA000B78B808F918FA28FB38FDF91CF910895E0
:101FB000CF93DF93EA0170E085E89EE00E947925E7
:101FC0006FEA76E085E89EE00E94C92E4AE050E084
:101FD000BE0185E89EE00E94932F85E89EE0DF9198
:101FE000CF910C94EE25CF92DF92EF92FF920F9358
:101FF0001F93CF93DF93EC016A017901AB0161E09C
:10200000D7DFA60162E0CE01D3DFA70163E0CE01F6
:10201000CFDFA80164E0CE01DF91CF911F910F9136
:10202000FF90EF90DF90CF90C3CF4F925F926F926F
:102030007F92AF92BF92CF92DF92EF92FF920F9377
:102040001F93CF93DF9300D01F92CDB7DEB7290146
:102050003A01E982FA820B831C8370E085E89EE0F6
:102060000E94792562EB76E085E89EE00E94C92E09
:1020700022E030E0B301A20185E89EE00E94A13099
:1020800066EB76E085E89EE00E94C92E22E030E013
:1020900049815A816B817C8185E89EE00E94A13054
:1020A0006AEB76E085E89EE00E94C92E22E030E0EF
:1020B000B601A50185E89EE00E94A13085E89EE07A
:1020C0000E94D12E85E89EE00F900F900F900F9008
:1020D000DF91CF911F910F91FF90EF90DF90CF9004
:1020E000BF90AF907F906F905F904F900C94EE25D3
:1020F000AF92BF92CF92DF92EF92FF920F931F9316
:10210000CF93DF93EC01A88CB98CCA8CDB8CEC8864
:10211000FD880E891F89288939894A895B8961E090
:1021200084DFA88CB98CCA8CDB8CEC88FD880E8986
:102130001F89288939894A895B8962E0CE0175DF68
:10214000A88CB98CCA8CDB8CEC88FD880E891F8921
:10215000288939894A895B8963E0CE0166DFA88CCA
:10216000B98CCA8CDB8CEC88FD880E891F89288984
:1021700039894A895B8964E0CE0157DFDF91CF91CD
:102180001F910F91FF90EF90DF90CF90BF90AF9095
:102190000895CF93DF931F92CDB7DEB785E89EE019
:1021A00069830E946625698170E041E050E085E81E
:1021B0009EE00E94EC2585E89EE00E94CD24892BBC
:1021C00039F085E89EE00F90DF91CF910C94D524F3
:1021D0000F90DF91CF910895AF92BF92CF92DF928F
:1021E000EF92FF920F931F93CF93DF93EC0185E85B
:1021F0009EE00E9466256EEB76E087ED9EE00E94F1
:10220000E42E86E0A82EB12CC88CD98CEA8CFB8CED
:102210000C891D892E893F89488959896A897B895A
:10222000CE0166DF61EC76E087ED9EE00E94E42E51
:1022300061E0CE01AEDF6C0162E0CE01AADF7C017D
:1022400063E0CE01A6DF8C0164E0CE01A2DF9C0139
:1022500081E0C816D10469F482E0E816F10449F47B
:102260000330110531F42430310519F481E08C8FED
:1022700004C01C8ECA94CD2811F481E08D8F82E0B9
:10228000E816F10411F481E08E8F0330110511F48A
:1022900081E08F8F2430310511F481E088A381E043
:1022A000A81AB10809F0B0CF65EC76E087ED9EE0A2
:1022B000DF91CF911F910F91FF90EF90DF90CF9022
:1022C000BF90AF900C94E42E089526E084E79FE041
:1022D0000E94DF2C69EC76E084E79FE00C94E42E0A
:1022E000CF92DF92EF92FF920F931F93CF93DF93E2
:1022F0006B017A01E9016DEC76E084E79FE00E94D2
:10230000C92E4AE050E0B60184E79FE00E948D2F7D
:102310006CE284E79FE00E94CA2E4AE050E0B701D9
:1023200084E79FE00E948D2F6CE284E79FE00E948B
:10233000CA2E4AE050E0BE0184E79FE00E948D2F44
:102340006CE284E79FE00E94CA2E4AE050E0B801A8
:1023500084E79FE0DF91CF911F910F91FF90EF9065
:10236000DF90CF900C94932F4F925F926F927F9259
:102370008F929F92AF92BF92CF92DF92EF92FF9295
:102380000F931F932A013B01480159016FEA76E040
:1023900084E79FE00E94C92E4AE050E060E070E0D0
:1023A00084E79FE00E948D2F65ED76E084E79FE053
:1023B0000E94C92E4AE050E060E070E084E79FE0B0
:1023C0000E948D2F69EE7BE084E79FE00E94C92E7A
:1023D00022E030E0B301A20184E79FE00E94A13037
:1023E0006DEE7BE084E79FE00E94C92E22E030E0A2
:1023F000B501A40184E79FE00E94A13063EB76E081
:1024000084E79FE00E94C92E22E030E0B701A601D8
:1024100084E79FE01F910F91FF90EF90DF90CF90A6
:10242000BF90AF909F908F907F906F905F904F90F4
:102430000C94A230CF93DF93EB0168ED76E084E754
:102440009FE00E94C92EBE0184E79FE0DF91CF91FB
:102450000C94D42E25E030E0FC01318320831282DD
:1024600008954F925F926F927F928F929F92AF9258
:10247000BF92CF92DF92EF92FF920F931F93CF9371
:10248000DF93EC012A013B014801590169EF76E035
:1024900087ED9EE00E94C92E65E077E087ED9EE023
:1024A0000E94C92E22E030E0B301A20187ED9EE038
:1024B0000E94A13068E077E087ED9EE00E94C92E7F
:1024C00022E030E0B501A40187ED9EE00E94A1303A
:1024D00062E177E087ED9EE00E94C92E22E030E0C5
:1024E000B701A60187ED9EE00E94A1306BE077E086
:1024F00087ED9EE00E94E42E6881798185E89EE068
:102500000E94792560E177E085E89EE00E94C92E6F
:1025100065E077E085E89EE00E94C92E22E030E089
:10252000B301A20185E89EE00E94A13068E077E057
:1025300085E89EE00E94C92E22E030E0B501A401AA
:1025400085E89EE00E94A13062E177E085E89EE0A8
:102550000E94C92E22E030E0B701A60185E89EE086
:102560000E94A13065E177E085E89EE00E94E42EBC
:1025700085E89EE0DF91CF911F910F91FF90EF9042
:10258000DF90CF90BF90AF909F908F907F906F9093
:102590005F904F900C94EE25FC0111821082138203
:1025A0001282158214822AE030E03783268380E489
:1025B00090E091878087338722871586148622E1F1
:1025C00030E037872687918B808B338B228B158A5F
:1025D000148A2CE130E0378B268B918F808F338FDC
:1025E000228F158E148E24E230E0378F268F11A2B1
:1025F00010A22EE230E033A322A395A384A337A335
:1026000026A311A610A686E390E093A782A70895BB
:1026100021E04CE362E086E79CE00EDB86E79CE08D
:1026200026DC68EE73E080E090E00E94F93286E7F5
:102630009CE089CA2F923F924F925F926F927F9255
:102640008F929F92AF92BF92CF92DF92EF92FF92C2
:102650000F931F93CF93DF93CDB7DEB728970FB6B5
:10266000F894DEBF0FBECDBF3C017A8369832A0197
:1026700019018E8D9F8DA8A1B9A18B839C83AD83F9
:10268000BE83AAA1BBA1B887AF8361E086E79CE0C7
:102690000E940C0A61E070E086E79CE00E94120A4A
:1026A00040E050E060E070E086E79CE00E94060AAF
:1026B00086E79CE048DA6DE277E086E79CE00E94DE
:1026C000C92E0E94C832AB01BC012AE030E086E787
:1026D0009CE00E94A82FF301468157816481758197
:1026E00086E79CE00E94060A63E377E086E79CE0C9
:1026F0000E94C92E4AE050E069817A8186E79CE019
:102700000E948D2FD3011A964D915C911B971896BC
:102710006D917C91199786E79CE00E94060A67E319
:1027200077E086E79CE00E94C92E4AE050E0B101C4
:1027300086E79CE00E948D2FF301468557856485CE
:10274000758586E79CE00E94060A6BE377E086E7E2
:102750009CE00E94C92E4AE050E0B20186E79CE06E
:102760000E948D2FD30152964D915C9153975096B4
:102770006D917C91519786E79CE00E94060A6FE379
:1027800077E086E79CE00E94C92E4AE050E0B8015D
:1027900086E79CE00E948D2FF30146895789648962
:1027A000758986E79CE00E94060A63E477E086E785
:1027B0009CE00E94C92E22E030E0B701A60186E726
:1027C0009CE00E94A130D3015A964D915C915B9799
:1027D00058966D917C91599786E79CE00E94060A75
:1027E00069E477E086E79CE00E94C92E22E030E0B1
:1027F000B501A40186E79CE00E94A130F301468D5B
:10280000578D648D758D86E79CE00E94060A6FE403
:1028100077E086E79CE00E94C92E22E030E04B8101
:102820005C816D817E8186E79CE00E94A130D301AE
:1028300056964D915C91579790966D917C9191979A
:1028400086E79CE00E94060A65E577E086E79CE063
:102850000E94C92E6F81788586E79CE00E94BB2E7E
:1028600086E79CE028960FB6F894DEBF0FBECDBF7A
:10287000DF91CF911F910F91FF90EF90DF90CF905C
:10288000BF90AF909F908F907F906F905F904F9090
:102890003F902F90ECCA64E086E79CE03CC94F92E1
:1028A0005F926F927F92AF92BF92CF92DF92EF9240
:1028B000FF920F931F93CF93DF93EC015B01CA014B
:1028C000B9012AA33BA34CA35DA32BED3FE049E450
:1028D00050E40E94EC296C877D878E879F87B9A280
:1028E000A8A2EEA2FFA208A719A7B601DD0C880BCB
:1028F000990B0E9477289B01AC0160E070E080E0BA
:1029000090E40E944F2A20E030E040E85FE30E941C
:102910000E276AA77BA78CA79DA7DF91CF911F9158
:102920000F91FF90EF90DF90CF90BF90AF907F908E
:102930006F905F904F9008952F923F924F925F92C9
:102940006F927F928F929F92AF92BF92CF92DF92BF
:10295000EF92FF920F931F93CF93DF93CDB7DEB724
:1029600060970FB6F894DEBF0FBECDBF1C01CB0140
:10297000BA014801590120E030E040E752E40E94EA
:10298000EC2969877A878B879C87D1016D937D932A
:102990008D939C93139720E030E040E752E4C5010B
:1029A000B4010E94EC292B013C01F1016483758381
:1029B0008683978320E030E040E752E4C701B60108
:1029C0000E94EC29D10118966D937D938D939C9371
:1029D0001B9796962D913D914D915C9199970E94F0
:1029E000EC296D877E878F87988BF101608B718BC7
:1029F000828B938B84849584A684B784A5019401EB
:102A000069857A858B859C850E94DC276B017C011A
:102A1000D10154966D937D938D939C935797A50107
:102A20009401C301B2010E94DC272B013C01F1019A
:102A3000608F718F828F938FA50194016D857E8544
:102A40008F8598890E94DC274B015C01D1015C963F
:102A50006D937D938D939C935F97A3019201C70122
:102A6000B6010E940E2769877A878B879C87A3010E
:102A70009201C701B6010E940F276B017C01A501DD
:102A8000940169857A858B859C850E940E270E941A
:102A90004428662E7A836983A5019401C701B60193
:102AA0000E940E270E944428762E7C836B83A5010A
:102AB0009401C701B6010E940F270E944428F62EF8
:102AC0007E836D83A501940169857A858B859C85BC
:102AD0000E940F270E944428862F262F372F3887E1
:102AE0002F83262D3A81472D5C816F2D7E8198851D
:102AF00060960FB6F894DEBF0FBECDBFDF91CF91C9
:102B00001F910F91FF90EF90DF90CF90BF90AF900B
:102B10009F908F907F906F905F904F903F902F90FD
:102B20000895CF92DF92EF92FF92CF93DF93EC0163
:102B3000072E000C880B990B0E9477286B017C01F3
:102B400048A159A1BA01550F880B990B0E9477280B
:102B50009B01AC01C701B6010E94DC272AA53BA559
:102B60004CA55DA50E94EC290E944428CB01DF9171
:102B7000CF91FF90EF90DF90CF9008952F923F92EA
:102B80004F925F926F927F928F929F92AF92BF927D
:102B9000CF92DF92EF92FF920F931F93CF93DF9329
:102BA000CDB7DEB766970FB6F894DEBF0FBECDBFC8
:102BB0001C014A015B01098B1A8B2B8B3C8B260174
:102BC0003701BADE29873A874B875C876D877E8716
:102BD0008F87988BCB84DC840D851E85EF84F888E5
:102BE00069857A85C1019DDF382F292FB601C10182
:102BF0002E8B3D8B96DF6C01B801C10192DF8C01F9
:102C0000B701C1018EDF3D89432F2E89522F57FF17
:102C100003C05195419551094F3F510509F0F4F416
:102C20009601D7FE03C03195219531092F3F31051B
:102C300009F0A4F4980117FF03C0319521953109DB
:102C40002F3F310509F054F49C0197FF03C03195E3
:102C5000219531092F3F310559F054F020E030E043
:102C600040E85EE3C501B4010E94EC294B015C0120
:102C70007301620109891A892B893C89B501A40174
:102C8000C1015ADE29873A874B875C876D877E872B
:102C90008F87988B0B851C858D849E84AF84B88824
:102CA00069857A85C1013DDFF82EC92EB801C101C1
:102CB00038DF082FD92EB401C10133DF182FE92ED8
:102CC000B501C1012EDF2F2D3C2D402F5D2D612F31
:102CD0007E2D66960FB6F894DEBF0FBECDBFDF9196
:102CE000CF911F910F91FF90EF90DF90CF90BF9009
:102CF000AF909F908F907F906F905F904F903F909C
:102D00002F900895FC0182E0808383E0818384E03A
:102D1000828385E083831582148281E090E097832B
:102D2000868311861086938782870895CF93DF93D9
:102D3000EC01198218821A821B821C821D821E825B
:102D40001F82188619861A868FE790E09C878B87EA
:102D50009E878D87988B8F879A8B898B68E67CE01E
:102D6000CE0143960E942D3581E0898FDF91CF916E
:102D70000895CF92EF920F93CF93DF93EC0126E06B
:102D800040E052EC61E070E087ED9EE00E94DF2CB5
:102D90006CE271E080E090E00E94F932C12CE12CFD
:102DA0000DE02AE04BE06CE084EA9CE000D6282F9E
:102DB00030E0398328832115310569F56AE577E02C
:102DC00087ED9EE00E94C92E63E877E087ED9EE0E4
:102DD0000E94C92E60E977E087ED9EE00E94E42E14
:102DE00066E977E087ED9EE00E94C92E60E977E012
:102DF00087ED9EE00E94E42E60EA77E087ED9EE09A
:102E00000E94E42E64EF77E087ED9EE00E94E42EBE
:102E10006DE278E011C02130310519F46DE678E0FB
:102E20000BC02230310519F463EE78E005C0233081
:102E3000310531F463E679E087ED9EE00E94E42EEF
:102E400084EA9CE0B6D38A83813059F038F082302E
:102E500059F08330A1F461EE79E008C065EA79E0C9
:102E600005C06FEE79E002C064EC79E087ED9EE08A
:102E7000DF91CF910F91EF90CF900C94C92EDF91FD
:102E8000CF910F91EF90CF9008951F93CF93DF9341
:102E9000FC012281223009F473C1EC01438160E01E
:102EA00084EA9CE083D468E070E084EA9CE070D31C
:102EB000882361F06BE07AE087ED9EE00E94E42ECB
:102EC0006BE07AE0CE0143960E945E3561E070E0EF
:102ED00084EA9CE05DD3882361F06FE17AE087EDBE
:102EE0009EE00E94E42E6FE17AE0CE0143960E94BC
:102EF0005E3560E170E084EA9CE04AD38823C9F043
:102F000064E37AE087ED9EE00E94C92E6BE084EADC
:102F10009CE04AD34AE050E0682F87ED9EE00E9493
:102F2000B42F81E08C8368E47AE0CE0143960E945E
:102F30005E3560E270E084EA9CE02AD38823C9F021
:102F400069E57AE087ED9EE00E94C92E69E084EA97
:102F50009CE02AD34AE050E0682F87ED9EE00E9473
:102F6000B42F81E08F8360E77AE0CE0143960E9420
:102F70005E3560E870E084EA9CE00AD38823C9F0FB
:102F800064E87AE087ED9EE00E94C92E6AE084EA58
:102F90009CE00AD34AE050E0682F87ED9EE00E9453
:102FA000B42F81E08E836AE97AE0CE0143960E94D5
:102FB0005E3560E470E084EA9CE0EAD28823C9F0E0
:102FC0006DEA7AE087ED9EE00E94C92E6CE084EA0B
:102FD0009CE0EAD24AE050E0682F87ED9EE00E9434
:102FE000B42F81E08D8363EC7AE0CE0143960E949A
:102FF0005E356FE084EA9CE0D7D28B8384EA9CE064
:1030000076D2882309F45FC062E070E084EA9CE035
:10301000BFD2882361F066ED7AE087ED9EE00E94E2
:10302000E42E61EE7AE0CE0143960E945E3564E0C4
:1030300070E084EA9CE0ACD2882361F062EF7AE031
:1030400087ED9EE00E94E42E6DEF7AE0CE0143967C
:103050000E945E3560E071E084EA9CE099D28823AA
:1030600061F06EE07BE087ED9EE00E94E42E69E176
:103070007BE0CE0143960E945E3560E072E084EA18
:103080009CE086D2882361F06AE27BE087ED9EE0D7
:103090000E94E42E65E37BE0CE0143960E945E35FC
:1030A00060E070E184EA9CE073D2882361F066E41A
:1030B0007BE087ED9EE00E94E42E67E57BE0CE0199
:1030C00043960E945E3560E070E284EA9CE028D27C
:1030D000882379F06EE67BE087ED9EE00E94E42E87
:1030E00011E0198762E87BE0CE0143960E945E35CD
:1030F000198F60E070E484EA9CE004D2882371F0C8
:1031000067E97BE087ED9EE00E94E42E81E08A87FC
:1031100066EA7BE0CE0143960E945E3560E070E88F
:1031200084EA9CE019D2882379F066EB7BE087ED96
:103130009EE00E94E42E81E089876BEC7BE0CE016B
:1031400043960E945E35198E68E084EA9CE02CD29A
:1031500090E09C878B8767E084EA9CE025D290E032
:103160009E878D8766E084EA9CE01ED290E0988B73
:103170008F8765E084EA9CE017D290E09A8B898B78
:10318000DF91CF911F910895CF93DF93FC0180E5EC
:10319000DF011D928A95E9F76EE774E07583648319
:1031A0008CEF98E0918780879587848777876687FB
:1031B000918B808B938B828B958B848BCAE7DDE020
:1031C000D78BC68B918F808F48EF51E1538F428F01
:1031D000758F648F578F468F53A342A3A2E8BBEF2E
:1031E000B5A3A4A357A346A324E037EF31A720A794
:1031F00053A742A735A724A7D7A7C6A731AB20ABB3
:1032000093AB82AB35AB24AB77AB66AB31AF20AFC2
:10321000B5AFA4AFDF01A05BBF4F4DEC5CEC6CEC35
:103220007DEB4D935D936D937C93139714961D9254
:103230001D921D921C92139714961D921D921D9221
:103240001C92139714961D921D921D921C92139717
:1032500014964DEC5CEC6CE47EE34D935D936D93C2
:103260007C931397EC59FF4F81E090E0918380832A
:10327000DF91CF910895CF92DF92EF92FF920F935B
:103280001F93CB01BA01A90198010E940E276B017F
:103290007C0120E030E044E353E40E94E129181669
:1032A00054F420E030E044EB53E4C701B6010E943F
:1032B0000E276B017C0120E030E044E353ECC701B2
:1032C000B6010E94D52787FF0AC020E030E044EB1A
:1032D00053E4C701B6010E940F276B017C01C701AF
:1032E000B6011F910F91FF90EF90DF90CF9008955E
:1032F0002F923F924F925F926F927F928F929F9206
:10330000AF92BF92CF92DF92EF92FF920F931F93F3
:10331000CF93DF9300D01F92CDB7DEB71C012801F9
:1033200039019A01AB01C501B4010E940E274B017E
:103330005C01A30192016A8D7B8D8C8D9D8D0E9415
:103340000E2769837A838B839C83A5019401C50131
:10335000B4010E94EC292B013C0129813A814B8167
:103360005C81CA01B9010E94EC299B01AC01C30137
:10337000B2010E940F270E94A52A20E030E040EA17
:1033800051E40E94D52787FF08C060EE7BE087EDFF
:103390009EE00E94E42E81E093C0A5019401698122
:1033A0007A818B819C810E9482272BED3FE049E44A
:1033B00050E40E94DC2720E030E044E353E40E9424
:1033C000EC29AB01BC01310184E5680E711CF301ED
:1033D000408351836283738397018601C1014BDF70
:1033E0009B01AC012101F8E54F0E511CF2016083F5
:1033F0007183828393838101045A1F4F38976081C0
:103400007181828193810E94EC29F801608371832C
:103410008283938368EE7BE087ED9EE00E94C92E55
:1034200022E030E0B501A40187ED9EE00E94A130CA
:103430006CEE7BE087ED9EE00E94C92E22E030E03A
:1034400049815A816B817C8187ED9EE00E94A13089
:1034500060EF7BE087ED9EE00E94C92EF301408182
:1034600051816281738122E030E087ED9EE00E940D
:10347000A1306EEF7BE087ED9EE00E94C92EF20145
:10348000408151816281738122E030E087ED9EE0CE
:103490000E94A1306AE07CE087ED9EE00E94C92E88
:1034A000F801408151816281738122E030E087ED33
:1034B0009EE00E94A13087ED9EE00E94D12E80E028
:1034C0000F900F900F900F90DF91CF911F910F9160
:1034D000FF90EF90DF90CF90BF90AF909F908F9034
:1034E0007F906F905F904F903F902F900895FC01D8
:1034F00081E046895789208D318D4217530709F4A1
:1035000080E00895FC01208D318D8689978982277E
:1035100093276823792381E0672B09F480E00895DD
:10352000DC015896ED91FC915997AF01409550956B
:103530004623572391E0452B09F490E056962D91B0
:103540003C9157972E273F276223732381E0672BF7
:1035500009F480E089230895DC015696ED91FC91F1
:103560005797AF01409550954623572391E0452B3F
:1035700009F490E058962D913C9159972E273F27BA
:103580006223732381E0672B09F480E08923089587
:10359000FC01808D918D809590956823792381E041
:1035A000672B09F480E00895860F911DFC0180814E
:1035B0000895FC0183A5833031F0813031F08C30E7
:1035C00031F080E0089581E0089582E0089583E07D
:1035D0000895DC019FB7F8945B96ED91FC915C97A0
:1035E00020815A968C91822B80839FBF0895DC01A5
:1035F0009FB7F8945E96ED91FC915F9720815D9660
:103600008C91822B80839FBF08958F929F92AF925F
:10361000BF92CF92DF92EF92FF920F931F93CF93BF
:10362000DF93EC0100E010E0F12CC62ED12C812CB0
:10363000912C54018394E02EC601002E02C0959572
:1036400087950A94E2F780FF03C0CE01D0DF0AC05D
:103650002FB7F894EE8DFF8D90818D8D8095892305
:1036600080832FBF2FB7F894EB8DFC8D90818A8DCE
:103670008095892380832FBF84E090E00E943233BD
:10368000ECA1FDA190818BA1892351F0D501C4014A
:1036900004C0880F991FAA1FBB1FEA94D2F7F82A0B
:1036A000CE0197DF0F5F1F4F0830110509F0C3CF20
:1036B000CE019DDF83E090E00E9432338F2DDF91B9
:1036C000CF911F910F91FF90EF90DF90CF90BF901F
:1036D000AF909F908F900895DC019FB7F8949196DA
:1036E000ED91FC919297208190968C91822B808312
:1036F0009FBF0895DC012FB7F8949196ED91FC914E
:103700009297908190968C918095892380832FBF8A
:103710000895CF92DF92EF92FF920F931F93CF9372
:10372000DF93EC016B01042FE5DF760110E0C701A8
:103730008C199D098017910734F4F70161917F017D
:10374000CE0163DFF4CFCE01C7DF6AA570E080E071
:1037500090E0DF91CF911F910F91FF90EF90DF905C
:10376000CF900C94F932CF93DF93EC0145E066E300
:1037700076E0CFDF49E06DE276E0CE01CADF8CA5CE
:10378000882329F045E066E176E0CE01C2DF8DA511
:10379000882329F049E064E276E0CE01BADF49E00F
:1037A0006BE176E0CE01DF91CF91B3CF2F923F92C4
:1037B0004F925F926F927F928F929F92AF92BF9241
:1037C000CF92DF92EF92FF920F931F93CF93DF93ED
:1037D000CDB7DEB729970FB6F894DEBF0FBECDBFC9
:1037E0004C01762E142F0E94C832F401C6A0D7A037
:1037F000E0A4F1A46C197D098E099F090E94752827
:103800006B017C0120E030E84BEB54E40E94E1299D
:10381000181614F4C401A7DFF40162A570E080E07B
:1038200090E00E9477281B012C019B01AC01C7018D
:10383000B6010E94D52787FF0AC0A7019601C201E1
:10384000B1010E940E270E9449280E94F9321123DB
:10385000E1F0612F70E080E090E01F921F921F92D4
:103860002FEF2F9320E4A22EB12CC12CD12CE12CD0
:10387000F12C8701EA9420E030E0A9010E9487340E
:10388000162F0F900F900F900F90CE0101967C0194
:1038900089E0F70111928A95E9F781E0898382E452
:1038A0008A837C821D8385E0382E8E01065F1F4F40
:1038B0006401F9E0CF0ED11C540185E1A80EB11CC2
:1038C000C40195DEC40185DEC40114DF83E090E00D
:1038D0000E94323327013401F20161912F01C401AA
:1038E00094DEF30181933F0140165106A9F7F401DC
:1038F0008181893741F0C401EFDEF4018181807F4D
:10390000803761F417C0360160E0C4017EDEF30148
:1039100081933F01EA15FB05B9F7EDCFC40123DF21
:10392000F40162A570E080E090E00E94F9323A94E0
:103930003110C6CFF4018181807F803731F0F401EE
:1039400082A58A3010F48F5F82A7F401808D918D5B
:10395000978B868B83819481918F808F0E94C83250
:10396000F40166A377A380A791A79181907F81E05E
:10397000903709F080E029960FB6F894DEBF0FBEAD
:10398000CDBFDF91CF911F910F91FF90EF90DF900E
:10399000CF90BF90AF909F908F907F906F905F90EF
:1039A0004F903F902F90089540E060E0FFCE6F92DF
:1039B0007F928F929F92AF92BF92CF92EF92FF929F
:1039C0000F931F93CF93DF93CDB7DEB72B970FB62F
:1039D000F894DEBF0FBECDBF5C01862F70E0FB0107
:1039E000E65DF84FE491D5015A96EC935A97FB01A6
:1039F000E059F84FE491F0E0EE0FFF1FE053F84F6D
:103A000065917491F501748F638F642F70E0FB01F1
:103A1000E65DF84FE4915D96EC935D97FB01E0590C
:103A2000F84FE491F0E0EE0FFF1FE053F84F65917F
:103A30007491F501778F668F622F70E0FB01E65D70
:103A4000F84FE4919096EC93FB01E059F84FE49124
:103A5000F0E0EE0FFF1FE053F84F65917491F50110
:103A600072A361A3A02FB0E0FD01E65DF84F949131
:103A7000F50193A3FD01E059F84FE491F0E0EE0F5A
:103A8000FF1FEA54F84F65917491D50195967C9388
:103A90006E93949761E02A874B870E94F43361E02C
:103AA0002A85822F0E94F43361E04B85842F0E9487
:103AB000F43360E0802F0E94F43361E0802F0E9495
:103AC0003034C50194DDC50184DDC5016DDFC5015C
:103AD0006BDFF5018181813429F0833719F0893753
:103AE00009F065C081E0D5019A968C938BE0882E11
:103AF000912CFF24F39445E066E376E0C50109DEEE
:103B000083E090E00E943233C50171DDC50161DDC3
:103B1000C501F0DD83E090E00E94323309E11CE052
:103B2000CE0101963C01F80161918F01C5016DDD67
:103B3000D3018D933D01BCE002321B07A1F7C50103
:103B4000CBDD8C81F50183A749E06DE276E0C5010C
:103B5000E0DDCC2041F045E066E176E0C501D9DD4D
:103B6000D5019C96FC92EE2039F049E064E276E0C3
:103B7000C501CFDDF501F5A649E06BE176E0C501B1
:103B8000C8DDC50111DFD50111968C91EE2021F021
:103B9000893789F0833769F0833769F0B1E08B1A90
:103BA000910859F0F50182A58F5F82A7A4CF81E02B
:103BB00005C083E003C080E001C082E02B960FB611
:103BC000F894DEBF0FBECDBFDF91CF911F910F9153
:103BD000FF90EF90CF90BF90AF909F908F907F908D
:103BE0006F9008954F925F926F927F928F929F9203
:103BF000AF92BF92CF92DF92EF92FF92CF93DF937B
:103C0000CDB7DEB72C970FB6F894DEBF0FBECDBF91
:103C10006091FF0D7091000E8091010E9091020E47
:103C20000E94772820E030E040E05BE30E94EC292E
:103C30002BED3FE049E450E40E94EC2920E030E025
:103C400048E152E40E94EC2925E031E54FED5FE3C5
:103C50000E94EC296B017C016091FB0D7091FC0DC1
:103C60008091FD0D9091FE0D0E94772820E030E0BC
:103C700040E05BE30E94EC292BED3FE049E450E497
:103C80000E94EC2920E030E048E152E40E94EC2957
:103C900025E031E54FED5FE30E94EC294B015C012B
:103CA0009B01AC01C701B6010E940E2720E030E065
:103CB00040E05FE30E94EC292B013C01A501940147
:103CC000C701B6010E940F2720E030E048E453E42A
:103CD0000E94DC276B017C0120E030E040E752E4E9
:103CE0000E94EC294B015C016091030E7091040E5F
:103CF0008091050E9091060E0E94772820E030E01A
:103D000040E05BE30E94EC292BED3FE049E450E406
:103D10000E94EC2920E030E048E152E40E94EC29C6
:103D200025E031E54FED5FE30E94EC299B01AC01FA
:103D3000C501B4010E940F274B015C012BED3FE050
:103D400049E450E4C701B6010E94E12987FD16C08D
:103D50002BED3FE049E450E4C701B6010E940F2774
:103D60002BED3FE049EC50E40E94B9282BED3FE0F9
:103D700049E450E40E940E276B017C012BED3FE0EB
:103D800049E450ECC701B6010E94D5271816B4F0DB
:103D90002BED3FE049E450E4C701B6010E940E2735
:103DA0002BED3FE049EC50E40E94B9282BED3FE0B9
:103DB00049E450E40E940F276B017C018092F70DCB
:103DC0009092F80DA092F90DB092FA0D2091F30D9A
:103DD0003091F40D4091F50D5091F60DC301B201F3
:103DE0000E940E274B015C014092F30D5092F40D9E
:103DF0006092F50D7092F60D2091EF0D3091F00D5F
:103E00004091F10D5091F20DC701B6010E940E27AD
:103E1000C092EF0DD092F00DE092F10DF092F20D04
:103E200020E030E040E05FE30E94EC299B01AC0120
:103E30006BED7FE089EC9FE3F1D72B013C010E9401
:103E4000D9279B01AC01C501B4010E94EC296D8307
:103E50007E838F839887C301B2010E949B2A9B01B6
:103E6000AC01C501B4010E94EC294B015C01C70102
:103E7000B6010E94D92769837A838B839C83C7010B
:103E8000B6010E949B2A2B013C0129813A814B817A
:103E90005C816D817E818F8198850E94EC29698784
:103EA0007A878B879C87A3019201C501B4010E9488
:103EB000EC299B01AC0169857A858B859C85AFD700
:103EC0009B01AC0160910F0E7091100E8091110E4C
:103ED0009091120EA3D760930F0E7093100E8093E3
:103EE000110E9093120E29813A814B815C81C5019C
:103EF000B4010E94EC294B015C01A30192016D8188
:103F00007E818F8198850E94EC299B01AC01C501BF
:103F1000B40184D79B01AC0160910B0E70910C0E23
:103F200080910D0E90910E0E7AD760930B0E7093C8
:103F30000C0E80930D0E90930E0E2BED3FE049E496
:103F400050E4C701B6010E94DC2720E030E044E3E2
:103F500053E40E94EC296093070E7093080E80933F
:103F6000090E90930A0E2C960FB6F894DEBF0FBE82
:103F7000CDBFDF91CF91FF90EF90DF90CF90BF90BA
:103F8000AF909F908F907F906F905F904F9008952B
:103F900084E00E945F344091030E5091040E6091C2
:103FA000050E7091060E019729F44F5F5F4F6F4F1A
:103FB0007F4F04C041505109610971094093030EBC
:103FC0005093040E6093050E7093060E089585E0DD
:103FD0000E945F344091FF0D5091000E6091010EE0
:103FE0007091020E019729F441505109610971093C
:103FF00004C04F5F5F4F6F4F7F4F4093FF0D509353
:10400000000E6093010E7093020E089586E00E94E8
:104010005F344091FB0D5091FC0D6091FD0D70914E
:10402000FE0D019729F4415051096109710904C03D
:104030004F5F5F4F6F4F7F4F4093FB0D5093FC0DD1
:104040006093FD0D7093FE0D089562E083E10E9480
:10405000F43362E082E00E94F43362E083E00E9485
:10406000F43362E084E00E94F43362E085E00E9471
:10407000F43362E086E00E94F43342E050E068EC02
:104080007FE184E00E94B33042E050E067EE7FE1E0
:1040900080E00E94B33042E050E066E070E281E0F0
:1040A0000C94B330CF93DF9300D000D0CDB7DEB700
:1040B00026E040E052EC61E070E087ED9EE00E9477
:1040C000DF2C40E052EC61E070E082EC9DE00E9469
:1040D000651183EC9DE00E9408138EE39DE00E9431
:1040E000EC10B3DF62E27CE0CE0101960E942D3538
:1040F00044E150E0BE016F5F7F4F80E99DE0EDD568
:10410000CE0101960E94C63462EF7DE180E99DE018
:1041100053D68CE99DE00E94B9168CE99DE00E947F
:10412000451781E08093B50D26960FB6F894DEBF53
:104130000FBECDBFDF91CF9108952F923F924F9246
:104140005F926F927F928F929F92AF92BF92CF9227
:10415000DF92EF92FF920F931F93CF93DF93CDB730
:10416000DEB762970FB6F894DEBF0FBECDBF8CE905
:104170009DE00E9445178091A60D882329F1C090EB
:10418000070ED090080EE090090EF0900A0E0091F4
:104190000B0E10910C0E20910D0E30910E0E4091D1
:1041A0000F0E5091100E6091110E7091120E8DE84D
:1041B0009DE00E94311266E27CE082ED9CE00E946C
:1041C0005E351092A60D06C060E37CE082ED9CE0B7
:1041D0000E945E358091B50D81113CC0C090070EE4
:1041E000D090080EE090090EF0900A0E00910B0E90
:1041F00010910C0E20910D0E30910E0E40910F0E6D
:104200005091100E6091110E7091120E83E48F93F5
:104210008AEF8F931F921F92812C912CEAEFAE2E82
:10422000E3E4BE2E88ED9CE063D82090380D3090FA
:10423000390D40903A0D50903B0DC090340DD09008
:10424000350DE090360DF090370D0F900F900F90D8
:104250000F904DC06091AB0D7091AC0D072E000C0E
:10426000880B990B77247A947F927F922CEF2F936F
:1042700028E12F9328EEA22E23E0B22EC12CD12CC0
:10428000E12CF12C8701EA9420E030E0A9010E94A2
:1042900087342DD720E030E04AE754E48DD61B0167
:1042A0002C016091A90D7091AA0D072E000C880BAE
:1042B000990B7F927F9223EF2F932CEB2F9344E463
:1042C000A42E4CE0B42EC12CD12C20E030E0A9016A
:1042D0000E9487340CD720E030E84BEB54E46CD6D6
:1042E0006B017C010FB6F894DEBF0FBECDBF00E0BE
:1042F00010E09801B201A1018FE59DE00E94BE157A
:1043000029833A834B835C836D837E838F83988775
:1043100089819A819A8B898B8B819C81988B8F87DD
:104320002D803E804F80588482019101AC016989C3
:104330007A898EE39DE00E94F30F91014F855889A1
:1043400069897A8982EC9DE00E947011C090070E05
:10435000D090080EE090090EF0900A0E00910B0E1E
:1043600010910C0E20910D0E30910E0E40910F0EFB
:104370005091100E6091110E7091120E82EC9DE022
:104380000E94B4113E0199E0690E711C62ED7CE05F
:10439000C3010E945635B30182EC9DE00E941A12BF
:1043A000C3010E94C6346FEA7DE0C3010E94563506
:1043B00080900B0E90900C0EA0900D0EB0900E0EF3
:1043C000C0900F0ED090100EE090110EF090120ED3
:1043D0007F926F9280910A0E8F938091090E8F9336
:1043E0008091080E8F938091070E8F938201910127
:1043F0004F85588969897A8983EC9DE00E941A1358
:10440000C3010E94C63468E67CE08FEA9DE00E940A
:104410005E350F900F900F900F900F900F90629657
:104420000FB6F894DEBF0FBECDBFDF91CF911F91C5
:104430000F91FF90EF90DF90CF90BF90AF909F9043
:104440008F907F906F905F904F903F902F90089546
:10445000CF92DF92EF92FF920F931F9383EC9DE038
:104460000E94CC1282EC9DE00E94641186EB9DE0DC
:104470000E9482168CE99DE00E94961680E99DE0DC
:1044800017D48DE89DE00E942A1288E0C82ED12C16
:10449000E12CF12C00E01FE326E933E44BE85DE377
:1044A0006CE271E08FE59DE00E944F148EE39DE089
:1044B0000E94B10F88ED9CE00E94C4186CE37CE080
:1044C00082ED9CE01F910F91FF90EF90DF90CF90D5
:1044D0000C942D3582ED9CE00E94C63480E99DE06D
:1044E00070D48FEA9DE00C94C634CF93CFB7F89484
:1044F0008091160E811127C0E5EAF7E08491EFE57F
:10450000F7E09491E82FF0E0EE0FFF1FE651F84F2F
:10451000A591B491EC91E92321F461E085E30E9437
:10452000303461E085E30E94F4338CB580618CBD4A
:104530008CB580648CBD61E084E30E94F43361E05B
:1045400083E30E94F4338091160E8F5F8093160EE2
:10455000CFBFCF9108951092840E81E08093820E98
:104560001092810E61E084E10E94303461E085E1C7
:104570000E943034E9EBF0E080818E7F808380817F
:104580008D7F808388E48093B80085E48093BC00AD
:104590000895413208F043C09091840E9111FCCFF0
:1045A00091E09093840E2093820E2FEF2093170EAC
:1045B00010925C0E240F20935B0E9093830E9091CB
:1045C000830E880F892B8093830E8091810E81301A
:1045D00061F41092810E8091830E8093BB008091D4
:1045E000BC0083FDF8CF85EC01C085EE8093BC0054
:1045F0008091840E8130E1F380915C0E841710F479
:1046000040915C0E2DE53EE0FB01D9018A2F821B13
:10461000841718F48D918193F9CF842F089580E049
:1046200008950F93413208F04AC09091840E911181
:10463000FCCF32E03093840E0093820E3FEF309334
:10464000170E10925C0E40935B0EFB016DE57EE051
:10465000DB013A2F361B341718F431913D93F9CF13
:104660001092830E3091830E880F832B8093830EDC
:104670008091810E813061F41092810E8091830EC1
:104680008093BB008091BC0083FDF8CF85EC01C016
:1046900085EE8093BC00222321F08091840E82302D
:1046A000D1F38091170E8F3F79F08091170E8032F1
:1046B00041F08091170E803331F094E005C091E015
:1046C00003C092E001C093E0892F0F9108954091BB
:1046D000390E262F30E0240F311D21323105DCF454
:1046E0002091840E2430C9F4FC0180E090E086170C
:1046F00058F43091390E2191DC01A55CB14FA30F24
:10470000B11D2C930196F3CF8091390E680F609301
:10471000390E80E0089581E0089582E0089585EDE6
:104720008093BC008091BC0084FDFCCF1092840E6D
:10473000089585EC8093BC001092840E08951F921A
:104740000F920FB60F9211240BB60F922F933F9337
:104750004F935F936F937F938F939F93AF93BF9389
:10476000EF93FF938091B900887F803609F49DC054
:1047700070F5883209F45CC090F4803109F455C0BA
:1047800038F4882309F4F3C0883009F44EC0F2C02D
:10479000883109F44DC0803209F45EC0EBC080342A
:1047A00009F469C050F4803309F456C0883309F025
:1047B000E1C08093170EBDDFDDC0803509F44FC026
:1047C000883509F45DC0883409F0D4C0D2C0883976
:1047D00009F4C3C0A8F4883709F467C038F48836F0
:1047E00009F463C0803709F460C0C4C0883809F494
:1047F000B4C0803909F45FC0803809F0BBC05BC029
:10480000803B09F482C038F4803A09F466C0883AE3
:1048100009F47BC0AFC0803C09F4A3C0883C09F414
:10482000A0C0883B09F486C0A5C08091830E10C04B
:1048300090915C0E80915B0E981770F5E0915C0E84
:1048400081E08E0F80935C0EF0E0E35AF14F80819F
:104850008093BB0085EC82C08093170E8AC0E091E4
:104860005C0E81E08E0F80935C0E8091BB00F0E0C7
:10487000E35AF14F808390915C0E80915B0E6AC089
:10488000E0915C0E81E08E0F80935C0E8091BB0006
:10489000F0E0E35AF14F80838091820E811169C06C
:1048A00081E08093810E84EA5DC083E08093840E72
:1048B0001092180ECFCF8091180E803208F04DC0A4
:1048C000E091180E81E08E0F8093180E8091BB004E
:1048D000F0E0E75EF14F8083BDCF2BDF8091180EB3
:1048E000803230F4E091180EF0E0E75EF14F108274
:1048F0006091180E70E0E0917D0EF0917E0E89E1DE
:104900009EE019951092180E35C084E08093840EB5
:1049100010923A0E1092390EE0917F0EF091800EB7
:1049200019958091390E811105C081E08093390E6F
:1049300010923B0EE0913A0E81E08E0F80933A0E7A
:10494000F0E0E55CF14F80818093BB0090913A0EDE
:104950008091390E981708F47DCF85E88093BC00CC
:1049600009C085EC8093BC001092840E03C01092A5
:10497000170ED5DEFF91EF91BF91AF919F918F916F
:104980007F916F915F914F913F912F910F900BBE4F
:104990000F900FBE0F901F9018958091B50E90E06C
:1049A0002091B60E821B910908959091B60E8091C8
:1049B000B50E981750F4E92FF0E0E954F14F20813B
:1049C00030E09F5F9093B60E02C02FEF3FEFC9011A
:1049D0000895E091B60E8091B50EE81730F4F0E03E
:1049E000E954F14F808190E008958FEF9FEF089593
:1049F0000895CF92DF92EF92FF920F931F93CF9380
:104A0000DF937C01262F972F8A018091910E8823B6
:104A100091F0C62FD72F6E01C40ED51ECC15DD0523
:104A200069F06991D701ED91FC910190F081E02D41
:104A3000C7011995F3CF642F822F49DEC801DF919A
:104A4000CF911F910F91FF90EF90DF90CF9008953D
:104A5000CF93DF931F92CDB7DEB769832091910E7C
:104A60002223D1F02091920E203240F021E030E05C
:104A7000FC013383228380E090E014C08091930E88
:104A8000E82FF0E0EC56F14F998190838F5F80938F
:104A9000930E8093920E04C061E0CE01019617DE62
:104AA00081E090E00F90DF91CF910895FC01138297
:104AB000128288EE93E0A0E0B0E084839583A68321
:104AC000B78386E49CE09183808308951092B60EAC
:104AD0001092B50E1092930E1092920E3CCD81E082
:104AE0008093910E6093B40E1092930E1092920EDA
:104AF0000895F5CF0F93062F21E04091920E64E9BF
:104B00007EE08091B40E8DDD1092930E1092920E85
:104B10001092910E0F9108954F925F926F927F9233
:104B2000AF92BF92CF92EF92FF920F931F93CF93CA
:104B3000DF935C01F62ED42F28013901EE2011F10C
:104B4000CEDFCE2DC43008F0C3E0C150C0F0D50197
:104B5000ED91FC91B8E0CB9FC0011124A30192011B
:104B600004C056954795379527958A95D2F7CA017F
:104B7000B9010190F081E02DC5011995E6CF60E003
:104B8000C501B8DF4D2FD13208F040E22C2D67EB84
:104B90007EE08F2DFEDC1092B60E8093B50EDF9175
:104BA000CF911F910F91FF90EF90CF90BF90AF905A
:104BB0007F906F905F904F900895CF92EF920F93F8
:104BC0001F93C22EE12C00E010E09801A5DF1F9199
:104BD0000F91EF90CF90089521E0EFCF61E08ACF61
:104BE00085E89EE063CF08954F925F926F927F9227
:104BF000AF92BF92CF92DF92EF92FF920F931F93EB
:104C0000CF93DF93CDB7DEB72A970FB6F894DEBF08
:104C10000FBECDBF7C015B018AE0EDE4F6E0DE0172
:104C2000119601900D928A95E1F7CE0101966C01E3
:104C300000E010E030E8432E3EE3532E612C712C4F
:104C4000F601619171916F01CB01770FAA0BBB0B3C
:104C500077276627A30192010E94D935A216B306D1
:104C60002CF00F5F1F4F0530110551F7F701318709
:104C70002087000F111FE1E0F0E0EC0FFD1FE00FB7
:104C8000F11F808191812A960FB6F894DEBF0FBE86
:104C9000CDBFDF91CF911F910F91FF90EF90DF90EB
:104CA000CF90BF90AF907F906F905F904F9008959E
:104CB000CF93DF93EC0168E67CE00E942D3581E024
:104CC00090E09F838E83198618861B861A868FB77D
:104CD00080688FBFDF91CF910895EF92FF920F937D
:104CE0001F93CF93DF93EC017B018A010E94413532
:104CF000B801CE0179DF9F838E83C7010E94913571
:104D000062E27CE0C7010E947335882309F44DC03C
:104D1000109280001092810088E0809381008E8143
:104D20009F81019729F480918100816080938100A7
:104D30008E819F81089729F4809181008260809301
:104D400081008E819F818034910529F480918100BA
:104D50008360809381008E819F818115914029F429
:104D6000809181008460809381008E819F81811574
:104D7000944029F48091810085608093810020E82F
:104D80003EE3D8010E940C362E813F81032E000C99
:104D9000440B550B0E94D9353B872A8730938900F5
:104DA0002093880082E080936F00DF91CF911F9164
:104DB0000F91FF90EF90089570933C0660933B062F
:104DC00008950C94C6341F920F920FB60F921124BF
:104DD0000BB60F922F933F934F935F936F937F93F5
:104DE0008F939F93AF93BF93EF93FF93E0913B0615
:104DF000F0913C061995FF91EF91BF91AF919F9172
:104E00008F917F916F915F914F913F912F910F9073
:104E10000BBE0F900FBE0F901F9018955058BB27D8
:104E2000AA270ED083C24CD230F051D220F031F4F8
:104E30009F3F11F41EF41CC20EF4E095E7FB04C280
:104E4000E92F96D280F3BA17620773078407950794
:104E500018F071F49EF5AEC20EF4E0950B2EBA2F49
:104E6000A02D0B01B90190010C01CA01A001112470
:104E7000FF27591B99F0593F50F4503E68F11A161C
:104E8000F040A22F232F342F4427585FF3CF4695AD
:104E900037952795A795F0405395C9F77EF41F16CF
:104EA000BA0B620B730B840BBAF09150A1F0FF0F99
:104EB000BB1F661F771F881FC2F70EC0BA0F621F85
:104EC000731F841F48F4879577956795B795F79575
:104ED0009E3F08F0B3CF9395880F08F09927EE0F07
:104EE000979587950895ECD158F080E891E009F402
:104EF0009EEFEDD128F040E851E059F45EEF09C093
:104F0000B7C158C2E92FE07833D268F3092E052AD9
:104F1000C1F3261737074807590738F00E2E07F850
:104F2000E02569F0E025E0640AC0EF6307F800942B
:104F300007FADB01B9019D01DC01CA01AD01EF9364
:104F40004AD0F4D10AD05F91552331F02BED3FE0E8
:104F500049E450FD49EC63CF0895DF93DD27B92F75
:104F6000BF7740E85FE31616170648075B0710F4A3
:104F7000D92F2BD29F938F937F936F9324D3E4EEFB
:104F8000F0E079D1D3D12F913F914F915F9130D201
:104F9000DD2349F09058A2EA2AED3FE049EC5FE3B7
:104FA000D0785D274DDFDF91C1C12AD108F481E0BF
:104FB000089595D1E395CBC10CD0B8C188D140F00C
:104FC0007FD130F021F45F3F19F03EC15111F3C1A0
:104FD0004FC1CED198F39923C9F35523B1F3951B53
:104FE000550BBB27AA2762177307840738F09F5F0A
:104FF0005F4F220F331F441FAA1FA9F333D00E2E79
:105000003AF0E0E830D091505040E695001CCAF7E5
:1050100029D0FE2F27D0660F771F881FBB1F2617AA
:1050200037074807AB07B0E809F0BB0B802DBF017D
:10503000FF2793585F4F2AF09E3F510568F004C147
:10504000BAC15F3FECF3983EDCF3869577956795A0
:10505000B795F7959F5FC9F7880F911D969587952E
:1050600097F90895E1E0660F771F881FBB1F62174D
:1050700073078407BA0720F0621B730B840BBA0B0B
:10508000EE1F88F7E095089504D06894B11193C19C
:10509000089576D188F09F5790F0B92F9927B7518E
:1050A000A0F0D1F0660F771F881F991F1AF0BA95EC
:1050B000C9F712C0B13081F07DD1B1E008957AC155
:1050C000672F782F8827B85F39F0B93FCCF38695E2
:1050D00077956795B395D9F73EF49095809570953F
:1050E00061957F4F8F4F9F4F0895E89409C097FBBC
:1050F0003EF490958095709561957F4F8F4F9F4FAF
:105100009923A9F0F92F96E9BB279395F6958795F2
:1051100077956795B795F111F8CFFAF4BB0F11F4B5
:1051200060FF1BC06F5F7F4F8F4F9F4F16C088235C
:1051300011F096E911C0772321F09EE8872F762F92
:1051400005C0662371F096E8862F70E060E02AF0D3
:105150009A95660F771F881FDAF7880F96958795BF
:1051600097F90895ADD018F011F0B1D038F480C09F
:1051700022C1E92FFDD0B0F35523C9F3E7FB621735
:10518000730784079507A8F199F3E92FFF27882370
:105190002AF03197660F771F881FDAF7952F55276A
:1051A000442332F091505040220F331F441FD2F756
:1051B000BB27E91BF50B621B730B840BB109C1F212
:1051C00022F4620F731F841FB11D31972AF0660FFE
:1051D000771F881FBB1FEFCF915050405AF041F00E
:1051E000882332F0660F771F881F91505040C1F717
:1051F000939530C08695779567959F5FD9F7F8CFDF
:10520000990F0008550FAA0BE0E8FEEF16161706D7
:10521000E807F907C0F012161306E407F50798F03F
:10522000621B730B840B950B39F40A2661F0232B58
:10523000242B252B21F408950A2609F4A140A695D4
:105240008FEF811D811D089597F99F6780E870E0B9
:1052500060E008959F3F31F0915020F48795779555
:105260006795B795880F911D9695879597F908953D
:105270009FEF80EC0895DF93CF931F930F93FF92DE
:10528000EF92DF927B018C01689405C0DA2EEF016A
:10529000AFD0FE01E894A5912591359145915591A6
:1052A000AEF3EF01CDDDFE019701A801DA9479F7A5
:1052B000DF90EF90FF900F911F91CF91DF910895B4
:1052C00000240A94161617061806090608950024E5
:1052D0000A9412161306140605060895C9CF50D075
:1052E000E8F3E894E0E0BB279F57F0F02AED3FE0B9
:1052F00049EC06C0EE0FBB0F661F771F881F28F012
:10530000B23A62077307840728F0B25A620B730B34
:10531000840BE3959A9572F7803830F49A95BB0F19
:10532000661F771F881FD2F7904896CF092E0394E7
:10533000000C11F4882352F0BB0F40F4BF2B11F482
:1053400060FF04C06F5F7F4F8F4F9F4F0895EF93B3
:10535000E0FF06C0A2EA2AED3FE049EC5FEB70DD1A
:10536000E5DF0F90039401FC9058E1E1F1E066C1A4
:1053700057FD9058440F551F59F05F3F71F0479506
:10538000880F97FB991F61F09F3F79F087950895EB
:10539000121613061406551FF2CF4695F1DF08C00A
:1053A000161617061806991FF1CF86957105610527
:1053B00008940895E894BB2766277727CB0197F9CF
:1053C00008951EDF08F48FEF08959B01AC0160E0A3
:1053D00070E080E89FE3F0CD0BD0A8CF71DF28F01C
:1053E00076DF18F0952309F02FCF42CF1124E3CFB9
:1053F000BFDFA0F3959FD1F3950F50E0551F629F3B
:10540000F001729FBB27F00DB11D639FAA27F00D1D
:10541000B11DAA1F649F6627B00DA11D661F829F44
:105420002227B00DA11D621F739FB00DA11D621F29
:10543000839FA00D611D221F749F3327A00D611D46
:10544000231F849F600D211D822F762F6A2F112428
:105450009F5750408AF0E1F088234AF0EE0FFF1F7B
:10546000BB1F661F771F881F91505040A9F79E3FB2
:10547000510570F0E9CE9FCF5F3FECF3983EDCF32F
:10548000869577956795B795F795E7959F5FC1F7EF
:10549000FE2B880F911D9695879597F90895FA012F
:1054A000EE0FFF1F30962105310599F16115710549
:1054B00061F48038BFE39B0749F168949038810517
:1054C00061F08038BFEF9B0741F0992342F5FF3F21
:1054D000E1053105210511F1E8940894E795D9011A
:1054E000AA2329F4AB2FBE2FF85FD0F310C0FF5FC3
:1054F00070F4A695E0F7F73950F019F0FF3A38F458
:105500009F779F930CD00F9007FC905808953EF022
:10551000AFCE60E070E080E89FE308954FE79F77AB
:105520005F934F933F932F93D5D02F913F914F91FE
:105530005F9152DF50C09F93D2DE0F9007FCEE5F69
:1055400006CF11F40EF494CE85CE1ADFD0F3992352
:10555000D9F3CEF39F57550B87FF69D00024A0E6FF
:1055600040EA900180585695979528F4805C660F24
:10557000771F881F20F026173707480730F4621B73
:10558000730B840B202931294A2BA6951794079475
:10559000202531254A2758F7660F771F881F20F0EE
:1055A00026173707480730F4620B730B840B200D66
:1055B000311D411DA09581F7B901842F9158880FA5
:1055C0009695879508959B01AC0106CF19F40EF0CE
:1055D0003BCEF0CE4DCED4DEC8F39638C0F707F8F8
:1055E0000F92E8942BE33AEA48EB5FE703DF0F9270
:1055F0000F920F924DB75EB70F92ACD0EFE2F1E091
:105600003ADE4F915F91EF91FF91E595EE1FFF1FFD
:1056100049F0FE57E0684427EE0F441FFA95E1F782
:105620004195550B1ED00F9007FECFCE0895915097
:105630005040660F771F881FD2F708959F938F936E
:105640007F936F93FF93EF939B01AC01C5DEEF91C6
:10565000FF9111DE2F913F914F915F91BDCEF4CD1F
:10566000F9CD8EDEE8F39923D9F3940F511DBBF3E6
:105670009150504094F059F0882332F0660F771F14
:10568000881F91505040C1F79E3F510544F7880F45
:10569000911D9695879597F908955F3FACF0983ED8
:1056A0009CF0BB27869577956795B79508F4B16010
:1056B0009395C1F7BB0F58F711F460FFE8CF6F5F08
:1056C0007F4F8F4F9F4FE3CF76CE0EF0C3CDD0CD1F
:1056D0006894BACD55DEC8F39923D1F3C6F3DF93AE
:1056E000CF931F930F93FF92C92FDD2788232AF0B2
:1056F0002197660F771F881FDAF720E030E040E837
:105700005FEB9FE3883920F0803E30F021968F7761
:1057100086DBE7E5F1E003C082DBE4E8F1E0ABDD46
:105720008B01BE01EC01FB2E6F5771097595771F38
:10573000880B990BDCDC28E132E741E35FE358DEBC
:10574000AF2D9801AE01FF900F911F91CF91DF9186
:1057500077DBECCDFA01DC01AA0FBB1F9B01AC018A
:10576000BF5728F422273327442750781FC0B7514A
:1057700088F4AB2F0024469537952795011CA395F7
:10578000D2F3002069F0220F331F441FB395DAF3E0
:105790000DD044CB61307105A0E88A07B94630F4DA
:1057A0009B01AC016627772788279078309621F0F7
:1057B000208331834283538308950E942D38FC0156
:1057C000918D228D892F90E0805C9F4F821B9109E3
:1057D0008F7399270895FC01918D828D981731F070
:1057E000828DE80FF11D858D90E008958FEF9FEF7A
:1057F0000895FC01918D828D981761F0828DDF01F3
:10580000A80FB11D5D968C91928D9F5F9F73928FB3
:1058100090E008958FEF9FEF0895FC01538D448D24
:10582000252F30E0842F90E0821B930B541710F04B
:10583000CF9608950197089583EA9DE2892B39F068
:1058400080E090E0892B19F07ED1811124C080E0A6
:1058500090E0892B41F080E090E0892B21F00E94BC
:10586000000081111BC088E39EE2892B39F080E0A3
:1058700090E0892B19F0FCD1811113C080E090E0F9
:10588000892BA1F080E090E0892B81F00E9400003C
:1058900081110AC008950E940000D9CF0E94000023
:1058A000E2CF0E940000EACF0C9400000895FC01B2
:1058B000848DDF01A80FB11DA35ABF4F2C91848D99
:1058C00090E001968F739927848FA689B7892C93CE
:1058D000A089B1898C9180648C93938D848D981369
:1058E00006C00288F389E02D80818F7D8083089532
:1058F000CF93DF93EC01888D8823C1F0EA89FB897F
:10590000808185FD05C0A889B9898C9186FD0EC06E
:105910000FB607FCF5CF808185FFF2CFA889B98942
:105920008C9185FFEDCFCE01C2DFE8CFDF91CF9123
:105930000895EF92FF920F931F93CF93DF93EC01A3
:1059400081E0888F9B8D8C8D981305C0E889F9893B
:10595000808185FD23C0F62E0B8D10E00F5F1F4F59
:105960000F731127E02E8C8DE8120BC00FB607FCC9
:10597000FACFE889F989808185FFF5CFCE0197DFDD
:10598000F2CF8B8DFE01E80FF11DE35AFF4FF0823D
:105990000B8FEA89FB898081806207C0EE89FF89CD
:1059A0006083E889F98980818064808381E090E068
:1059B000DF91CF911F910F91FF90EF900895CF92BB
:1059C000DF92EF92FF921F93CF93DF93EC016A0176
:1059D0007B01122FE889F98982E080834115514EBD
:1059E00061057105B1F060E079E08DE390E0A70119
:1059F00096010E94B735DA01C9010197A109B109E1
:105A0000B695A79597958795AC01411580E1580704
:105A1000A8F0E889F989108260E874E88EE190E0E6
:105A2000A70196010E94B735BA01A9014150510959
:105A3000610971097695679557954795EC85FD85C0
:105A40005083EE85FF854083188EEC89FD89108395
:105A5000EA89FB89808180618083EA89FB89808172
:105A600088608083EA89FB89808180688083EA89F5
:105A7000FB8980818F7D8083DF91CF911F91FF9083
:105A8000EF90DF90CF9008951F920F920FB60F9274
:105A900011240BB60F922F938F939F93EF93FF9345
:105AA000E091E70EF091E80E8081E091ED0EF0912B
:105AB000EE0E82FD12C090818091F00E8F5F8F7389
:105AC0002091F10E821751F0E091F00EF0E0E952D2
:105AD000F14F958F8093F00E01C08081FF91EF917F
