S0150000736B657463685F6665623033612E737265633D
S113000007C400000C9435320C9460320C948B328B
S11300100C94B6320C94E1320C940C330C943733B8
S11300200C94623326C4000024C4000022C40000DF
S113003020C400001EC400001CC400001AC4000038
S113004018C400000C94F22714C4000012C4000069
S113005010C400000EC400000CC400000C948D33C6
S113006008C400000C94532E0C94892E02C4000082
S113007000C40000FEC30000FCC30000FAC300007B
S1130080F8C30000F6C30000F4C30000F2C300008C
S1130090F0C30000EEC30000ECC300000C94AE24D7
S11300A0E8C30000E6C30000E4C30000E2C30000AC
S11300B0E0C30000DEC30000DCC30000DAC30000BC
S11300C0D8C30000D6C30000D4C300000C94E82EAB
S11300D00C941E2FCEC30000CCC30000CAC3000082
S11300E0C8C30000084AD73B3BCE016E84BCBFFDA9
S11300F0C12F3D6C74319ABD56833DDA3D00C77FF4
S113010011BED9E4BB4C3E916BAAAABE000000808C
S11301103F05A84CCDB2D44EB93836A9020C50B91B
S1130120918688083CA6AAAA2ABE000000803F0740
S1130130634236B79BD8A71A39685618AEBAAB557E
S11301408C1D3CB7CC5763BD6DEDFD753EF6177243
S113015031BF000000803F08000000BE9224491215
S11301603EABAAAA2ABECDCCCC4C3E00000080BE39
S1130170ABAAAAAA3E00000000BF000000803F0016
S113018000000000084178D3BB4387D1133D190E0A
S11301903CC3BD4282AD2B3E68EC8276BED98FE172
S11301A0A93E4C80EFFFBE01C4FF7F3F000000006A
S11301B000000F32D931E131ED31FA311B322832EE
S11301C0C834CB34BA34BE34C4340235CF34D33417
S11301D0D934DD34E134E734EB34EF340235F5342B
S11301E0F934FD3400000000003E5B4F5B3E3E6B83
S11301F04F6B3E1C3E7C3E1C183C7E3C181C577DBD
S1130200571C1C5E7F5E1C00183C1800FFE7C3E708
S1130210FF0018241800FFE7DBE7FF30483A060E1A
S11302202629792926407F050507407F05253F5A61
S11302303CE73C5A7F3E1C1C08081C1C3E7F1422D1
S11302407F22145F5F005F5F06097F017F0066897C
S1130250956A606060606094A2FFA29408047E04C2
S11302600810207E201008082A1C08081C2A0808E8
S11302701E101010100C1E0C1E0C30383E383006A8
S11302800E3E0E06000000000000005F00000007A4
S1130290000700147F147F14242A7F2A12231308D2
S11302A0646236495620500008070300001C2241AE
S11302B0000041221C002A1C7F1C2A08083E080852
S11302C00080703000080808080800006060002002
S11302D0100804023E5149453E00427F40007249E5
S11302E04949462141494D331814127F1027454589
S11302F045393C4A4949314121110907364949499F
S113030036464949291E000014000000403400000C
S11303100008142241141414141400412214080275
S1130320015909063E415D594E7C1211127C7F49E8
S11303304949363E414141227F4141413E7F49493D
S113034049417F090909013E414151737F08080869
S11303507F00417F41002040413F017F081422413A
S11303607F404040407F021C027F7F0408107F3E94
S11303704141413E7F090909063E4151215E7F0901
S1130380192946264949493203017F01033F404068
S1130390403F1F2040201F3F4038403F6314081453
S11303A06303047804036159494D43007F4141418B
S11303B00204081020004141417F0402010204406C
S11303C040404040000307080020545478407F28F0
S11303D04444383844444428384444287F385454E6
S11303E0541800087E090218A4A49C787F08040409
S11303F07800447D40002040403D007F10284400A8
S113040000417F40007C047804787C080404783838
S113041044444438FC1824241818242418FC7C0868
S1130420040408485454542404043F44243C4040E5
S1130430207C1C2040201C3C4030403C4428102898
S1130440444C9090907C4464544C440008364100E1
S11304500000770000004136080002010204023C5B
S11304602623263C1EA1A161123A4040207A38542A
S113047054555921555579412254547842215554A3
S1130480784020545579400C1E52721239555555F6
S113049059395454545939555454580000457C41E1
S11304A00002457D420001457C407D1211127DF021
S11304B0282528F07C545545002054547C547C0A4B
S11304C0097F4932494949323A4444443A324A4814
S11304D048303A4141217A3A42402078009DA0A018
S11304E07D3D4242423D3D4040403D3C24FF24246A
S11304F0487E4943662B2FFC2F2BFF0929F620C089
S1130500887E090320545479410000447D413048D9
S1130510484A32384040227A007A0A0A727D0D191C
S1130520317D2629292F28262929292630484D407E
S113053020380808080808080808382F10C8ACBA7A
S11305402F102834FA00007B000008142A142222F9
S1130550142A14085500550055AA55AA55AAFF5542
S1130560FF55FF000000FF00101010FF00141414CA
S1130570FF001010FF00FF1010F010F0141414FC12
S1130580001414F700FF0000FF00FF1414F404FC2F
S1130590141417101F10101F101F1414141F001010
S11305A01010F0000000001F101010101F10101089
S11305B010F010000000FF10101010101010101098
S11305C0FF10000000FF140000FF00FF00001F10D8
S11305D0170000FC04F414141710171414F404F492
S11305E00000FF00F714141414141414F700F71483
S11305F01414171410101F101F141414F4141010D2
S1130600F010F000001F101F0000001F1400000075
S1130610FC140000F010F01010FF10FF141414FF6D
S1130620141010101F00000000F010FFFFFFFFFF68
S1130630F0F0F0F0F0FFFFFF0000000000FFFF0FFC
S11306400F0F0F0F3844443844FC4A4A4A347E02A0
S1130650020606027E027E02635549416338444421
S11306603C04407E201E2006027E020299A5E7A5D6
S1130670991C2A492A1C4C7201724C304A4D4D3047
S11306803048784830BC625A463D3E494949007E6C
S11306900101017E2A2A2A2A2A44445F4444405103
S11306A04A444040444A51400000FF0103E080FFB7
S11306B0000008086B6B083612362436060F090F43
S11306C006000018180000001010003040FF01015F
S11306D0001F01011E00191D1712003C3C3C3C0088
S11306E00000000000000A0B02090C0D0E080703AD
S11306F004010000000000000000000000000000F1
S113070000000000000000000000000000000000E5
S113071012111000000000000000000000000000A2
S1130720000000000000000000000102102020086A
S11307300810204010204080020102010804020138
S113074001020408102040808040201008040201A7
S11307508004020180402010080402010804020100
S11307600102040810204080010204081020408087
S113077005050505070508080808020202020A0A19
S11307800808040404040101010101010101030337
S1130790030303030303040707070C0C0C0C0C0CE2
S11307A00C0C0202020206060606060606060B0BDF
S11307B00B0B0B0B0B0B0000200023002600290061
S11307C02C002F0032000001000003010601090182
S11307D000002200250028002B002E0031003400E8
S11307E002010000050108010B01000021002400A2
S11307F027002A002D00300033000101000004010D
S113080007010A014B143723FF26BB2E502F7923EF
S113081011241FBECFEFD1E2DEBFCDBF00E00CBF7D
S11308201CE0A0E0B2E0E4EEF2E700E00BBF02C09F
S113083007900D92A239B107D9F720E1A2E9BCE0F3
S113084001C01D92AA33B207E1F714E0C7E0D4E077
S113085000E006C021970109802FFE010E940437A1
S1130860C230D10780E00807A9F70E947E2F0C94BC
S11308706139C6CB80E090E0089508952F923F92AD
S11308804F925F926F927F928F929F92AF92BF929C
S1130890CF92DF92EF92FF920F931F93CF93DF9348
S11308A000D0CDB7DEB74C017B836A836A0159015E
S11308B017019801241B350B37FF03C0319521958F
S11308C03109C5014A815B81841B950B97FF03C0E5
S11308D091958195910951E059838217930714F0FA
S11308E019820BC09A2D8B2D5801092F182F9A812C
S11308F08B81DB82CA82C92ED82E8A819B81A8165D
S1130900B9065CF49C2D8D2D6801092F182F9A814E
S11309108B81BB82AA82A92EB82E2501AA81BB8114
S11309204A1A5B0A38016C187D0877FE03C071947B
S113093061947108720157FE03C0BFEFEB1AFB0A02
S1130940F594E794C016D1061CF00FEF1FEF1FC0FB
S113095001E010E01CC0D401ED91FC91B981048444
S1130960F585E02D9101BB23C1F04A815B81B6017D
S1130970C4011995E618F708F7FE04C0C00ED11E8D
S1130980E40CF51CEA81FB813196FB83EA834A81FE
S11309905B81A416B506FCF604C0A6016A817B81BE
S11309A0E7CF0F900F900F90DF91CF911F910F9190
S11309B0FF90EF90DF90CF90BF90AF909F908F907B
S11309C07F906F905F904F903F902F90089508957F
S11309D0DC01ED91FC910084F185E02D19940F93D5
S11309E01F93DC01ED91FC91048CF58DE02D19959C
S11309F01F910F9108950F931F93DC01ED91FC91CA
S1130A00068CF78DE02D19951F910F910895EF92A3
S1130A10FF920F931F93DC01ED91FC9100A0F1A1D3
S1130A20E02D19951F910F91FF90EF90089508956F
S1130A30AF92BF92CF92DF92EF92FF920F931F93E8
S1130A40CF93DF9300D01F92CDB7DEB75C0169016D
S1130A50DC01ED91FC910284F385E02D4B835C83F2
S1130A6069837A831995D501ED91FC914B815C8161
S1130A70C40ED51EB1E0CB1AD1080488F589E02D47
S1130A807801860169817A819B01C5011995D50197
S1130A90ED91FC910688F789E02DC5010F900F9028
S1130AA00F900F90DF91CF911F910F91FF90EF90D6
S1130AB0DF90CF90BF90AF901994AF92BF92CF9236
S1130AC0DF92EF92FF920F931F93CF93DF9300D0A7
S1130AD01F92CDB7DEB75C016901DC01ED91FC9199
S1130AE00284F385E02D4B835C8369837A831995B3
S1130AF0D501ED91FC9169817A819B012C0D3D1DFD
S1130B00215031090488F589E02D78014B815C81FD
S1130B108A01C5011995D501ED91FC910688F789E3
S1130B20E02DC5010F900F900F900F90DF91CF91A2
S1130B301F910F91FF90EF90DF90CF90BF90AF90F7
S1130B4019944F925F926F927F928F929F92AF927D
S1130B50BF92CF92DF92EF92FF920F931F93CF93A6
S1130B60DF931F921F92CDB7DEB76C015A01390192
S1130B704801DC01ED91FC910284F385E02D698349
S1130B807A8319956981462E7A81572E640C751CD7
S1130B90D601ED91FC91461457046CF40088F18958
S1130BA0E02D87019401A501B201C6011995BFEF9B
S1130BB04B1A5B0AEDCF0688F789E02DC6010F902A
S1130BC00F90DF91CF911F910F91FF90EF90DF90E5
S1130BD0CF90BF90AF909F908F907F906F905F90D9
S1130BE04F901994EF92FF920F931F93DC01ED91B4
S1130BF0FC9111971A960D911C911B9718962D91A3
S1130C003C91199700A0F1A1E02D7B0140E050E058
S1130C1060E070E019951F910F91FF90EF90089597
S1130C20CF92DF92EF92FF920F931F93CF93DF93B4
S1130C3000D000D0CDB7DEB76C01DC01ED91FC91A2
S1130C406217730789F4041715072CF4942F852F62
S1130C50A801092F182F041B150B98012F5F3F4F74
S1130C60048CF58DE02D12C04017510709F52617A5
S1130C7037072CF4962F872FB901292F382F261BDD
S1130C80370B2F5F3F4F068CF78DE02D8701C60190
S1130C90199526960FB6F894DEBF0FBECDBFDF912F
S1130CA0CF911F910F91FF90EF90DF90CF90089517
S1130CB00284F385E02D2D833E834B835C8369831B
S1130CC07A831995D601ED91FC910488F589E02D7C
S1130CD02D813E814B815C8169817A81C6011995A0
S1130CE0D601ED91FC910688F789E02DC601269680
S1130CF00FB6F894DEBF0FBECDBFDF91CF911F9129
S1130D000F91FF90EF90DF90CF9019946F927F92A4
S1130D108F929F92AF92BF92CF92DF92EF92FF9207
S1130D200F931F93CF93DF93EC014B015A01690199
S1130D303801E881F9810284F385E02D1995E88171
S1130D40F9810288F389E02D87019601A501B40198
S1130D50CE011995E881F981A501460D571D415031
S1130D6051090288F389E02D9601B401CE01199549
S1130D70E881F9810088F189E02D9301A501B4018E
S1130D80CE011995E881F981C80CD91CB6016150CE
S1130D9071090088F189E02D9301A501CE0119950F
S1130DA0E881F9810688F789E02DCE01DF91CF91A2
S1130DB01F910F91FF90EF90DF90CF90BF90AF9075
S1130DC09F908F907F906F9019940895FC016370A9
S1130DD0658B8481958126813781613039F0633058
S1130DE029F0918780873387228708953187208768
S1130DF0938782870895FC01138212828BE596E023
S1130E009183808375836483578346837187608766
S1130E1053874287158A158614861786168681E0BD
S1130E20848B2FEF3FEF338B228B318B208B868B80
S1130E30178A118E108E08952F923F924F925F92CF
S1130E406F927F928F929F92AF92BF92CF92DF92D6
S1130E50EF92FF920F931F93CF93DF93CDB7DEB73B
S1130E606C970FB6F894DEBF0FBECDBF9C8F8B8FEF
S1130E705B011A011F830E833701C982DC01589676
S1130E804D915C9159974115510509F0E5C01896AB
S1130E908D919C911997681779070CF0CAC11A961D
S1130EA08D919C911B97281639060CF0C2C18C2C8D
S1130EB0912CFB0136E0C39EE00DF11D1124FB874C
S1130EC0EA871E161F060CF0B4C1C40133E0880F74
S1130ED0991F3A95E1F79D878C87820D931D18160B
S1130EE019060CF0A6C157968C91811103C0203BC2
S1130EF008F02F5FAB8DBC8DED91FC9111970284AE
S1130F00F385E02DCD012A8F19952A8DB5E02B9F0D
S1130F1090011124F5013596FF87EE872501BB82E8
S1130F20AA82A9014A195B09598B488BC101089609
S1130F309B8B8A8BE889F989E40DF51DEC51FE4FF2
S1130F40949198873D822C826101A885A0FF13C0EB
S1130F50AB8DBC8DED91FC91B981B13031F4048439
S1130F60F585E02D2E813F8116C00684F785E02D9E
S1130F70EE80FF801AC0EE81FF816E167F06F1F0CD
S1130F80AB8DBC8DED91FC91B981B13051F40484E9
S1130F90F585E02D9301A601B2018B8D9C8D1995E9
S1130FA00DC00684F785E02D7301840194014C8102
S1130FB05D816A817B818B8D9C8D1995E885E69591
S1130FC0E8872C813D81280D391D3D832C833FEF1B
S1130FD0C31AD30A4A895B89C416D50609F0B5CF6A
S1130FE08A819B81880D991D9B838A839FEF491A6F
S1130FF0590AAE85BF854A165B0609F09BCFEE8180
S1131000FF816E167F0609F4F2C0EB8DFC8DA08182
S1131010B181F981F13079F4B5016B5F7F4F50965E
S1131020ED91FC915197830128E030E0A1018B8D73
S11310309C8D1995DCC06A857B85681979091E9693
S1131040ED91FC911F9773010C851D859401A101FD
S11310508B8D9C8D1995CBC0FA013496949132975F
S113106065917491291BCB01B7E02B9F800D911DD5
S11310701124FA01259134913B8B2A8BFC01459173
S113108054915B834A83FC013296C4903196549107
S11310905C87329614913196D4908981823058F0CD
S11310A0612E012E000C7708AD2D0D2C000CBB0B0E
S11310B0B987A88704C019861886612C712CAB8D5A
S11310C0BC8DED91FC9111970284F385E02DCD0147
S11310D01995B9818B2E912C689CC001699C900D47
S11310E0789C900D1124FC01EA0DFB1DF98BE88B13
S11310F01C82712C612CE12F110FFF0B95012E0F17
S11311003F1F3B872A87AC0CB11CA5014E0F5F1F04
S11311105F8B4E8BC1018D0D911DD7FC9A95998FD4
S1131120888F4C85641608F062C0862D90E048854F
S11311305985480F591F489D9001499D300D589D70
S1131140300D1124D901A20DB31DBF87AE87AA8427
S1131150BB8448885988DC80BA85DB1AE88DF98D10
S1131160E80FF91FFD8BEC8B8D2D8A0D2E893F899D
S1131170A216B306B9F1877061F48A819B81019646
S1131180EA89FB89AA81BB81EA0FFB1F74909B83C8
S11311908A8377FE20C0AB8DBC8DED91FC91B98123
S11311A0B13061F40484F585E02D2E813F814C89B2
S11311B05D89B5018B8D9C8D19950DC00684F785CD
S11311C0E02DEE80FF80840194014E855F85B2019D
S11311D08B8D9C8D1995770C480C591CEFEFAE1A2A
S11311E0BE0AC2CF3C813C0D3C8363949ACFAB8D45
S11311F0BC8DED91FC9111970688F789E02DCD0106
S11312006C960FB6F894DEBF0FBECDBFDF91CF91C1
S11312101F910F91FF90EF90DF90CF90BF90AF9010
S11312209F908F907F906F905F904F903F902F9002
S113123019946C960FB6F894DEBF0FBECDBFDF9144
S1131240CF911F910F91FF90EF90DF90CF90BF90BF
S1131250AF909F908F907F906F905F904F903F9052
S11312602F900895AF92BF92CF92EF92FF920F9377
S11312701F93CF93DF93EC01262F888D998D0097D0
S113128009F03FC06A3059F41D861C862C898E856E
S11312909F8538E0239F800D911D112440C06D303F
S11312A009F4A8C08E898823C1F03C898C859D856A
S11312B046E0349F800D911D1124488559854817B7
S11312C059075CF41D861C868E859F8548E0349FF3
S11312D0800D911D11249F878E87EA88FB880889D9
S11312E019894E855F856C857D85CC88CE01A4DD0A
S11312F02C898C859D8536E0239F800D911D1124BA
S113130042C06A3079F41D861C862C89FC0136960D
S1131310E4918E859F852E9F800D911D11249F87BA
S11313208E8768C06D3009F465C0FC013496349131
S1131330631708F45FC03196E491E61708F45AC0C5
S1131340FC013296A590B490462F50E0431B5109FE
S113135037E0349FB001359F700D1124A60EB71EDF
S1131360F501329634913196E491332311F0E11171
S11313700DC0F5013496E4912C898C859D85E29FFE
S1131380800D911D11249D878C8734C0F5013596FD
S113139044915E89552311F16C89E32FF0E0E40F49
S11313A0F11D47FDFA956E9FD0016F9FB00D11247A
S11313B04C855D854A0F5B1FE885F985E417F507C1
S11313C06CF41D861C86FC013696E4918E859F85FF
S11313D06E9F800D911D11249F878E87EA88FB885C
S11313E0088919894E855F856C857D85CC88CE01F9
S11313F023DDBFCF81E090E0DF91CF911F910F916A
S1131400FF90EF90CF90BF90AF900895FC01758747
S11314106487578746870895611101C061E0FC0124
S1131420648B0895FC01738B628B718B608B0895C0
S1131430FC0185890895FC01808591850895FC014E
S11314408285938508950F931F93CF93DF93DC01D7
S1131450FB0155968C915597823089F0833021F1A8
S1131460813009F0E6C014968D919C911597BC01CA
S1131470641B750BAB0141505109BF011DC014968B
S11314806D917C911597CB018E1B9F0BFC011696D9
S11314908D919C911797BC01641B750BAB01415056
S11314A05109E21BF30BC5C016966D917C911797F9
S11314B06E1B7F0B621B730B57FD1AC114968D9123
S11314C09C911597481759070CF012C177FF04C077
S11314D0260F371F60E070E016968D919C91179748
S11314E0FB01E20FF31F8E179F071CF49C01261BC0
S11314F0370B121613060CF0FBC0A22F862F86950D
S11315008695869590E8899F400D511D1124FA0116
S1131510EA5EFD4F6770A9F198E0961B492F50E0F1
S1131520EA01C25FDD4F8881291790F4421B5109FB
S11315302FEF30E002C0359527954A95E2F78223D4
S11315400130110541F068F00230110589F0D0C076
S11315500130110519F42081822B0CC001301105D2
S113156020F480952081822305C00230110531F4D6
S1131570208182278083A91708F4BAC0A91BE058E8
S1131580FF4FA83048F10230110559F4EF018A2FBA
S1131590988190959883C058DF4F88508830C0F761
S11315A032C081E00130110509F080E08195EF013E
S11315B09A2F8883C058DF4F98509830D0F788EF1F
S11315C08A0F86958695869560E8869FE00DF11DC5
S11315D01124E058FF4FA770AA2309F489C0B0E092
S11315E0AA5FBD4F8C910130110529F038F002300B
S11315F01105E1F07DC09081892B03C08095908115
S11316008923808375C088EF8A0F86958695869591
S113161070E8879FE00DF11D1124E058FF4FA7707B
S113162009F466C0B0E0AA5FBD4F8C919081892710
S1131630E8CF57FD5DC016968D919C91179748177A
S113164059070CF055C0F7FF04C02E0F3F1FE0E010
S1131650F0E014968D919C911597BF01620F731F52
S1131660861797071CF49C012E1B3F0B12161306BA
S11316700CF03EC0CA0157FD079663E09595879527
S11316806A95E1F79695982F882797958795E80F9F
S1131690F91FEA5EFD4F4770552781E090E001C0D5
S11316A0880F4A95EAF7482F0130110539F078F090
S11316B002301105E9F42E0F3F1F13C02E0F3F1FF8
S11316C0E217F307A9F08081842B8193F9CF8095E9
S11316D02E0F3F1FE217F30759F09081982391933F
S11316E0F9CFE217F30721F0808184278193F9CFA2
S11316F0DF91CF911F910F9108950F931F93CF9373
S1131700DF93DC0155968C915597823071F08330CC
S113171009F1813009F08CC01496ED91FC91159774
S1131720E41BF50BE21BF30B20C01496ED91FC9126
S11317301597CF01861B970BBC0161507109169652
S1131740ED91FC911797CF01841B950BAC01421BC3
S1131750530B6EC01696ED91FC911797CF01861B23
S1131760970BBC0161507109FA0177FD1BC11696F4
S11317708D919C911797681779070CF013C1F7FFA7
S113178004C02E0F3F1FE0E0F0E014968D919C9171
S11317901597AF01420F531F841795071CF49C0142
S11317A02E1B3F0B121613060CF0FCC0CB0177FD69
S11317B0079643E0959587954A95E1F79695982F76
S11317C0882797958795E80FF91FEA5EFD4F6770A4
S11317D0772781E090E001C0880F6A95EAF7482FE7
S11317E00130110541F088F00230110509F0DAC02A
S11317F02E0F3F1F15C02E0F3F1FE217F30709F4EA
S1131800D1C08081842B8193F8CF80952E0F3F1F08
S1131810E217F30709F4C6C0908198239193F8CF97
S1131820E217F30709F4BEC0808184278193F8CFBF
S113183077FDB8C014968D919C9115976817790718
S11318400CF0B0C057FF04C0240F351F40E050E037
S113185016968D919C911797FA01E20FF31F8E173C
S11318609F071CF49C01241B350B121613060CF065
S113187099C0A22F842F86958695869590E8899F96
S1131880600D711D1124FB01EA5EFD4F4770A9F143
S113189098E0941B492F50E0EA01C25FDD4F888134
S11318A0291790F4421B51092FEF30E002C03595FF
S11318B027954A95E2F782230130110541F068F03B
S11318C00230110589F06EC00130110519F4208130
S11318D0822B0CC00130110520F4809520818223D5
S11318E005C00230110531F4208182278083A917B5
S11318F008F458C0A91BE058FF4FA83048F1023043
S1131900110559F4EF018A2F988190959883C05856
S1131910DF4F88508830C0F730C081E001301105B6
S113192009F080E08195EF019A2F8883C058DF4F3A
S113193098509830D0F788EF8A0F869586958695CB
S113194090E8899FE00DF11D1124E058FF4FA77026
S1131950AA2341F1B0E0AA5FBD4F8C91013011057B
S113196029F038F002301105D1F01CC09081892B88
S113197018C080959081892314C088EF8A0F8695BA
S11319808695869590E8899FE00DF11D1124E05815
S1131990FF4FA77039F0B0E0AA5FBD4F8C919081E2
S11319A089278083DF91CF911F910F910895CF9262
S11319B0DF92EF92FF920F931F93CF93DF937C01FB
S11319C08B01EA01690177FD9DC035DD0817190710
S11319D00CF098C0D7FD96C0C70131DDC817D907F0
S11319E00CF090C0C70124DD823009F07FC0F701FC
S11319F064817581CB01801B910B8C01015011090D
S1131A0046815781FA01EC1BFD0BEF0121970BC0B6
S1131A10813049F4F701848195818C1B9D0BE80189
S1131A208C0101501109F1E0CF16D10431F010F10D
S1131A3082E0C816D104E1F165C0FE01D7FD3796F6
S1131A4043E0F595E7954A95E1F7F695FE2FEE27E5
S1131A50F795E7950E0F1F1FF801EA5EFD4FC7705B
S1131A60DD2781E090E001C0880FCA95EAF79081F4
S1131A70892B3AC0FE01D7FD379623E0F595E7950B
S1131A802A95E1F7F695FE2FEE27F795E7950E0FC9
S1131A901F1FF801EA5EFD4FC770DD2781E090E06B
S1131AA001C0880FCA95EAF78095908189231CC0EC
S1131AB0FE01D7FD379683E0F595E7958A95E1F722
S1131AC0F695FE2FEE27F795E7950E0F1F1FF801E9
S1131AD0EA5EFD4FC770DD2781E090E001C0880F0A
S1131AE0CA95EAF79081892780830CC0833009F076
S1131AF08FCFF70186819781801B910B8E01EC01BA
S1131B00219791CFDF91CF911F910F91FF90EF908B
S1131B10DF90CF9008951F93CF93DF93EC01162F9E
S1131B2040E450E060E870E066D987E896E0998385
S1131B3088838FEF8C8F88A38E8F8D8F1F8FDF917B
S1131B40CF911F91089580E094E0E6E1F2E0DF0197
S1131B509C011D9221503040E1F70895FC0181A1C0
S1131B60882339F06EBD00000DB407FEFDCF8EB59D
S1131B70089528E030E090E8A4A1B5A14C9183A594
S1131B80809584238C93A2A1B3A182A5492F4623D7
S1131B9019F04C91842B03C04C91809584238C9331
S1131BA0A4A1B5A14C9183A5842B8C939695215027
S1131BB0310911F708951F93CF93DF93EC01162F8A
S1131BC08C8D8F3F01F1EEA1FFA190818CA5892B13
S1131BD08083E8A5F9A590818DA5809589238083CC
S1131BE0EEA1FFA190818CA5809589238083CE01ED
S1131BF0B5DFEEA1FFA190818CA5892B8083DF91B5
S1131C00CF911F9108958A8D682F880F770B81EAF1
S1131C109EE00E94882660E081EA9EE00E943726CA
S1131C20612F81EA9EE00E94372681EA9EE0DF91DF
S1131C30CF911F910C94FD260F931F93CF93DF93A5
S1131C40EC01162F022F6B8F4A8F8C8D8F3F09F476
S1131C508CC061E08E8D0E94033561E088A10E94F2
S1131C60033588A1082E000C990BFC01E059F84FAC
S1131C70E491F0E0EE0FFF1FE053F84F259134910B
S1131C803FA32EA3FC01E65DF84FE491ECA78E8DF3
S1131C90082E000C990BFC01E059F84FE491F0E098
S1131CA0EE0FFF1FE053F84F2591349139A728A771
S1131CB0FC01E65DF84FE491EDA789A1811134C0E0
S1131CC061E08C8D0E94033561E08D8D0E940335A7
S1131CD08D8D082E000C990BFC01E059F84FE4910E
S1131CE0F0E0EE0FFF1FE053F84F259134913DA330
S1131CF02CA3FC01E65DF84FE491EBA78C8D082E34
S1131D00000C990BFC01E059F84FE491F0E0EE0F60
S1131D10FF1FE053F84F259134913BA32AA3FC0104
S1131D20E65DF84FE491EAA789A1882311F10E94A6
S1131D3084238091310E882399F02FB7F8948091F1
S1131D40310E813059F48DB380932F0E9DB3809161
S1131D50300E809589238DBB2FBF02C020932F0E98
S1131D6080E58CBD81E08DBD04C081EA9EE00E94C7
S1131D7075260023F1F08F8D87FD1BC061E00E9462
S1131D80033561E08F8D0E943F3561E070E080E0B3
S1131D9090E00E94083460E08F8D0E943F356AE035
S1131DA070E080E090E00E94083461E08F8D0E9432
S1131DB03F356EEACE01FFDE65EDCE01FCDE60E864
S1131DC0CE01F9DE68EACE01F6DE6FE3CE01F3DE82
S1131DD063EDCE01F0DE60E0CE01EDDE60E4CE0125
S1131DE0EADE6DE8CE01E7DE113011F460E101C0F6
S1131DF064E1CE01E0DE60E2CE01DDDE60E0CE0132
S1131E00DADE61EACE01D7DE68ECCE01D4DE6AED1B
S1131E10CE01D1DE62E1CE01CEDE61E8CE01CBDEC1
S1131E20113011F46FE901C06FECCE01C4DE69ED2D
S1131E30CE01C1DE113011F462E201C061EFCE01C6
S1131E40BADE6BEDCE01B7DE60E4CE01B4DE64EA47
S1131E50CE01B1DE66EACE01AEDE6EE2CE01ABDECD
S1131E606FEACE01DF91CF911F910F91A4CEDF9243
S1131E70EF92FF920F931F93CF93DF93EC0161E2F4
S1131E809ADE60E0CE0197DE6FE7CE0194DE62E277
S1131E90CE0191DE60E0CE018EDE67E0CE018BDE06
S1131EA08C8D8F3F29F1EEA1FFA190818CA5892B08
S1131EB08083E8A5F9A590818DA5892B8083EEA167
S1131EC0FFA190818CA580958923808306E112E08F
S1131ED0F80161918F01CE0141DEF6E006311F0762
S1131EE0B9F7EEA1FFA190818CA5892B808331C025
S1131EF0D090B8008CE08093B80006E112E06A8DBF
S1131F00062E000C770B81EA9EE00E94882660E48E
S1131F1081EA9EE00E943726E12CF12CF801EE0DB7
S1131F20FF1D608181EA9EE00E9437268FEFE81A48
S1131F30F80AE0E1EE16F10489F781EA9EE00E94D6
S1131F40FD26005F1F4FF6E006311F07C1F6D09251
S1131F50B800DF91CF911F910F91FF90EF90DF9028
S1131F600895CF93DF93FC0188E0DF01C82F1D9211
S1131F70CA95E9F7DF011896ED0119928A95E9F7F8
S1131F80148E158E168E178E10A280E090E0A0E8B5
S1131F90BFE3808B918BA28BB38B848B958BA68BA9
S1131FA0B78B808F918FA28FB38FDF91CF910895DC
S1131FB0CF93DF93EA0170E081EA9EE00E948826D5
S1131FC06FEA76E081EA9EE00E94D82F4AE050E072
S1131FD0BE0181EA9EE00E94A23081EA9EE0DF9188
S1131FE0CF910C94FD26CF92DF92EF92FF920F9344
S1131FF01F93CF93DF93EC016A017901AB0161E098
S1132000D7DFA60162E0CE01D3DFA70163E0CE01F2
S1132010CFDFA80164E0CE01DF91CF911F910F9132
S1132020FF90EF90DF90CF90C3CF4F925F926F926B
S11320307F92AF92BF92CF92DF92EF92FF920F9373
S11320401F93CF93DF9300D01F92CDB7DEB7290142
S11320503A01E982FA820B831C8370E081EA9EE0F4
S11320600E94882662EB76E081EA9EE00E94D82FE7
S113207022E030E0B301A20181EA9EE00E94B03187
S113208066EB76E081EA9EE00E94D82F22E030E001
S113209049815A816B817C8181EA9EE00E94B03142
S11320A06AEB76E081EA9EE00E94D82F22E030E0DD
S11320B0B601A50181EA9EE00E94B03181EA9EE06A
S11320C00E94E02F81EA9EE00F900F900F900F90F6
S11320D0DF91CF911F910F91FF90EF90DF90CF9000
S11320E0BF90AF907F906F905F904F900C94FD26BF
S11320F0AF92BF92CF92DF92EF92FF920F931F9312
S1132100CF93DF93EC01A88CB98CCA8CDB8CEC8860
S1132110FD880E891F89288939894A895B8961E08C
S113212084DFA88CB98CCA8CDB8CEC88FD880E8982
S11321301F89288939894A895B8962E0CE0175DF64
S1132140A88CB98CCA8CDB8CEC88FD880E891F891D
S1132150288939894A895B8963E0CE0166DFA88CC6
S1132160B98CCA8CDB8CEC88FD880E891F89288980
S113217039894A895B8964E0CE0157DFDF91CF91C9
S11321801F910F91FF90EF90DF90CF90BF90AF9091
S11321900895CF93DF931F92CDB7DEB781EA9EE017
S11321A069830E947526698170E041E050E081EA0C
S11321B09EE00E94FB2681EA9EE00E94DC25892B9A
S11321C039F081EA9EE00F90DF91CF910C94E425E1
S11321D00F90DF91CF910895AF92BF92CF92DF928B
S11321E0EF92FF920F931F93CF93DF93EC0181EA59
S11321F09EE00E9475266EEB76E083EF9EE00E94DF
S1132200F32F86E0A82EB12CC88CD98CEA8CFB8CD9
S11322100C891D892E893F89488959896A897B8956
S1132220CE0166DF61EC76E083EF9EE00E94F32F3F
S113223061E0CE01AEDF6C0162E0CE01AADF7C0179
S113224063E0CE01A6DF8C0164E0CE01A2DF9C0135
S113225081E0C816D10469F482E0E816F10449F477
S11322600330110531F42430310519F481E08C8FE9
S113227004C01C8ECA94CD2811F481E08D8F82E0B5
S1132280E816F10411F481E08E8F0330110511F486
S113229081E08F8F2430310511F481E088A381E03F
S11322A0A81AB10809F0B0CF65EC76E083EF9EE0A0
S11322B0DF91CF911F910F91FF90EF90DF90CF901E
S11322C0BF90AF900C94F32F089526E080E99FE02F
S11322D00E94EE2D69EC76E080E99FE00C94F32FE8
S11322E0CF92DF92EF92FF920F931F93CF93DF93DE
S11322F06B017A01E9016DEC76E080E99FE00E94D0
S1132300D82F4AE050E0B60180E99FE00E949C305B
S11323106CE280E99FE00E94D92F4AE050E0B701C7
S113232080E99FE00E949C306CE280E99FE00E947B
S1132330D92F4AE050E0BE0180E99FE00E949C3022
S11323406CE280E99FE00E94D92F4AE050E0B80196
S113235080E99FE0DF91CF911F910F91FF90EF9063
S1132360DF90CF900C94A2304F925F926F927F9245
S11323708F929F92AF92BF92CF92DF92EF92FF9291
S11323800F931F932A013B01480159016FEA76E03C
S113239080E99FE00E94D82F4AE050E060E070E0BE
S11323A080E99FE00E949C3065ED76E080E99FE043
S11323B00E94D82F4AE050E060E070E080E99FE09E
S11323C00E949C3068ED76E080E99FE00E94D82F5F
S11323D022E030E0B301A20180E99FE00E94B03125
S11323E06BED76E080E99FE00E94D82F22E030E098
S11323F0B501A40180E99FE00E94B0316EE07CE069
S113240080E99FE00E94D82F22E030E0B701A601C6
S113241080E99FE01F910F91FF90EF90DF90CF90A4
S1132420BF90AF909F908F907F906F905F904F90F0
S11324300C94B131CF93DF93EB016EED76E080E93C
S11324409FE00E94D82FBE0180E99FE0DF91CF91E9
S11324500C94E32F25E030E0FC01318320831282C9
S113246008954F925F926F927F928F929F92AF9254
S1132470BF92CF92DF92EF92FF920F931F93CF936D
S1132480DF93EC012A013B01480159016FEF76E02B
S113249083EF9EE00E94D82F6BE077E083EF9EE00D
S11324A00E94D82F22E030E0B301A20183EF9EE026
S11324B00E94B0316EE077E083EF9EE00E94D82F57
S11324C022E030E0B501A40183EF9EE00E94B03128
S11324D068E177E083EF9EE00E94D82F22E030E0AD
S11324E0B701A60183EF9EE00E94B03161E177E07D
S11324F083EF9EE00E94F32F6881798181EA9EE058
S11325000E94882666E177E081EA9EE00E94D82F47
S11325106BE077E081EA9EE00E94D82F22E030E071
S1132520B301A20181EA9EE00E94B0316EE077E03F
S113253081EA9EE00E94D82F22E030E0B501A40198
S113254081EA9EE00E94B03168E177E081EA9EE092
S11325500E94D82F22E030E0B701A60181EA9EE074
S11325600E94B0316BE177E081EA9EE00E94F32F94
S113257081EA9EE0DF91CF911F910F91FF90EF9040
S1132580DF90CF90BF90AF909F908F907F906F908F
S11325905F904F900C94FD26FC01118210821382EF
S11325A01282158214822AE030E03783268380E485
S11325B090E091878087338722871586148622E1ED
S11325C030E037872687918B808B338B228B158A5B
S11325D0148A2CE130E0378B268B918F808F338FD8
S11325E0228F158E148E24E230E0378F268F11A2AD
S11325F010A22EE230E033A322A395A384A337A331
S113260026A311A610A686E390E093A782A70895B7
S113261021E04CE362E082E99CE00EDB82E99CE08D
S113262026DC68EE73E080E090E00E94083482E9E2
S11326309CE089CA2F923F924F925F926F927F9251
S11326408F929F92AF92BF92CF92DF92EF92FF92BE
S11326500F931F93CF93DF93CDB7DEB728970FB6B1
S1132660F894DEBF0FBECDBF3C017A8369832A0193
S113267019018E8D9F8DA8A1B9A18B839C83AD83F5
S1132680BE83AAA1BBA1B887AF8361E082E99CE0C5
S11326900E940C0A61E070E082E99CE00E94120A48
S11326A040E050E060E070E082E99CE00E94060AAD
S11326B082E99CE048DA63E377E082E99CE00E94E7
S11326C0D82F0E94D733AB01BC012AE030E082E965
S11326D09CE00E94B730F301468157816481758183
S11326E082E99CE00E94060A69E377E082E99CE0C3
S11326F00E94D82F4AE050E069817A8182E99CE007
S11327000E949C30D3011A964D915C911B971896A8
S11327106D917C91199782E99CE00E94060A6DE311
S113272077E082E99CE00E94D82F4AE050E0B101B2
S113273082E99CE00E949C30F301468557856485BC
S1132740758582E99CE00E94060A61E477E082E9EB
S11327509CE00E94D82F4AE050E0B20182E99CE05C
S11327600E949C30D30152964D915C9153975096A0
S11327706D917C91519782E99CE00E94060A65E480
S113278077E082E99CE00E94D82F4AE050E0B8014B
S113279082E99CE00E949C30F30146895789648950
S11327A0758982E99CE00E94060A69E477E082E97F
S11327B09CE00E94D82F22E030E0B701A60182E914
S11327C09CE00E94B031D3015A964D915C915B9785
S11327D058966D917C91599782E99CE00E94060A73
S11327E06FE477E082E99CE00E94D82F22E030E099
S11327F0B501A40182E99CE00E94B031F301468D49
S1132800578D648D758D82E99CE00E94060A65E50A
S113281077E082E99CE00E94D82F22E030E04B81EF
S11328205C816D817E8182E99CE00E94B031D3019C
S113283056964D915C91579790966D917C91919796
S113284082E99CE00E94060A6BE577E082E99CE05D
S11328500E94D82F6F81788582E99CE00E94CA2F5C
S113286082E99CE028960FB6F894DEBF0FBECDBF78
S1132870DF91CF911F910F91FF90EF90DF90CF9058
S1132880BF90AF909F908F907F906F905F904F908C
S11328903F902F90ECCA64E082E99CE03CC94F92DF
S11328A05F926F927F92AF92BF92CF92DF92EF923C
S11328B0FF920F931F93CF93DF93EC015B01CA0147
S11328C0B9012AA33BA34CA35DA32BED3FE049E44C
S11328D050E40E94FB2A6C877D878E879F87B9A26C
S11328E0A8A2EEA2FFA208A719A7B601DD0C880BC7
S11328F0990B0E9486299B01AC0160E070E080E0A6
S113290090E40E945E2B20E030E040E85FE30E9408
S11329101D286AA77BA78CA79DA7DF91CF911F9144
S11329200F91FF90EF90DF90CF90BF90AF907F908A
S11329306F905F904F9008952F923F924F925F92C5
S11329406F927F928F929F92AF92BF92CF92DF92BB
S1132950EF92FF920F931F93CF93DF93CDB7DEB720
S113296060970FB6F894DEBF0FBECDBF1C01CB013C
S1132970BA014801590120E030E040E752E40E94E6
S1132980FB2A69877A878B879C87D1016D937D9316
S11329908D939C93139720E030E040E752E4C50107
S11329A0B4010E94FB2A2B013C01F101648375836D
S11329B08683978320E030E040E752E4C701B60104
S11329C00E94FB2AD10118966D937D938D939C935D
S11329D01B9796962D913D914D915C9199970E94EC
S11329E0FB2A6D877E878F87988BF101608B718BB3
S11329F0828B938B84849584A684B784A5019401E7
S1132A0069857A858B859C850E94EB286B017C0106
S1132A10D10154966D937D938D939C935797A50103
S1132A209401C301B2010E94EB282B013C01F10186
S1132A30608F718F828F938FA50194016D857E8540
S1132A408F8598890E94EB284B015C01D1015C962B
S1132A506D937D938D939C935F97A3019201C7011E
S1132A60B6010E941D2869877A878B879C87A301FA
S1132A709201C701B6010E941E286B017C01A501C9
S1132A80940169857A858B859C850E941D280E9406
S1132A905329662E7A836983A5019401C701B6017F
S1132AA00E941D280E945329762E7C836B83A501E6
S1132AB09401C701B6010E941E280E945329F62ED4
S1132AC07E836D83A501940169857A858B859C85B8
S1132AD00E941E280E945329862F262F372F3887BD
S1132AE02F83262D3A81472D5C816F2D7E81988519
S1132AF060960FB6F894DEBF0FBECDBFDF91CF91C5
S1132B001F910F91FF90EF90DF90CF90BF90AF9007
S1132B109F908F907F906F905F904F903F902F90F9
S1132B200895CF92DF92EF92FF92CF93DF93EC015F
S1132B30072E000C880B990B0E9486296B017C01DF
S1132B4048A159A1BA01550F880B990B0E948629F7
S1132B509B01AC01C701B6010E94EB282AA53BA545
S1132B604CA55DA50E94FB2A0E945329CB01DF914D
S1132B70CF91FF90EF90DF90CF9008954F925F92A6
S1132B806F927F928F929F92AF92BF92CF92DF9279
S1132B90EF92FF920F931F93CF93DF93CDB7DEB7DE
S1132BA060970FB6F894DEBF0FBECDBF5C01C4DEE4
S1132BB029873A874B875C876D877E878F87988BB9
S1132BC069857A85C501ADDF4C016B857C85C501BE
S1132BD0A8DF6C016D857E85C501A3DF8C016F853F
S1132BE07889C5019EDF7C01B40197FE04C0662785
S1132BF07727681979096F3F710509F024F5C60133
S1132C00D7FE04C0882799278C199D098F3F910509
S1132C1009F0CCF4C80117FF04C088279927801B4A
S1132C20910B8F3F910511F00CF051C0C701F7FED5
S1132C3004C0882799278E199F098F3F910511F0A9
S1132C400CF045C09FC0072E000C880B990B0E9406
S1132C5086299B01AC0160E070E08FE793E40E9459
S1132C60EB282B013C01B801110F880B990B0E9432
S1132C708629A30192010E94FB2A0E9453298B01F9
S1132C80B701FF0C880B990B0E948629A3019201BE
S1132C900E94FB2A0E9453297B01B401990C880BE2
S1132CA0990B0E948629A30192010E94FB2A0E948B
S1132CB053294B01B601DD0C880B990B0E94862920
S1132CC0A30192010E94FB2A0E9453296B01B801BF
S1132CD017FF04C066277727601B710B6F3F7105D0
S1132CE009F064F4C701F7FE04C0882799278E19F8
S1132CF09F098F3F910509F00CF444C0072E000C86
S1132D00880B990B0E9486299B01AC0160E070E05E
S1132D108FE793E40E94EB282B013C01B801110FCB
S1132D20880B990B0E948629A30192010E94FB2A19
S1132D300E9453298B01B701FF0C880B990B0E9449
S1132D408629A30192010E94FB2A0E9453297B0138
S1132D50B401990C880B990B0E948629A301920156
S1132D600E94FB2A0E9453294B01B601DD0C880BFB
S1132D70990B0E948629A30192010E94FB2A0E94BA
S1132D8053296B019A828982DC82CB821E830D8354
S1132D90F886EF82282D3A814C2D5C81602F7E814C
S1132DA08E2D988560960FB6F894DEBF0FBECDBF0A
S1132DB0DF91CF911F910F91FF90EF90DF90CF9013
S1132DC0BF90AF909F908F907F906F905F904F9047
S1132DD00895FC0182E0808383E0818384E0828320
S1132DE085E083831582148281E090E09783868353
S1132DF011861086938782870895CF93DF93EC0121
S1132E00198218821A821B821C821D821E821F82D2
S1132E10188619861A868FE790E09C878B879E8791
S1132E208D87988B8F879A8B898B64E87CE0CE01A1
S1132E3043960E943C3681E0898FDF91CF910895BB
S1132E40CF92EF920F93CF93DF93EC0126E040E013
S1132E5052EC61E070E083EF9EE00E94EE2D6CE2A4
S1132E6071E080E090E00E940834C12CE12C0DE078
S1132E702AE04BE06CE080EC9CE0C5D5282F30E0E4
S1132E80398328832115310569F560E677E083EFFE
S1132E909EE00E94D82F69E877E083EF9EE00E94CD
S1132EA0D82F66E977E083EF9EE00E94F32F6CE968
S1132EB077E083EF9EE00E94D82F66E977E083EF06
S1132EC09EE00E94F32F66EA77E083EF9EE00E9483
S1132ED0F32F6AEF77E083EF9EE00E94F32F63E322
S1132EE078E011C02130310519F463E778E00BC0B4
S1132EF02230310519F469EE78E005C0233031053C
S1132F0031F469E679E083EF9EE00E94F32F80ECD0
S1132F109CE07BD38A83813059F038F0823059F0B9
S1132F208330A1F467EE79E008C06BEA79E005C06C
S1132F3065EF79E002C06AEC79E083EF9EE0DF910F
S1132F40CF910F91EF90CF900C94D82FDF91CF9128
S1132F500F91EF90CF9008951F93CF93DF93FC01CF
S1132F602281223009F473C1EC01438160E080ECDA
S1132F709CE048D468E070E080EC9CE035D3882382
S1132F8061F061E17AE083EF9EE00E94F32F61E15A
S1132F907AE0CE0143960E946D3661E070E080ECE9
S1132FA09CE022D3882361F065E27AE083EF9EE01F
S1132FB00E94F32F65E27AE0CE0143960E946D36BB
S1132FC060E170E080EC9CE00FD38823C9F06AE3F1
S1132FD07AE083EF9EE00E94D82F6BE080EC9CE0C7
S1132FE00FD34AE050E0682F83EF9EE00E94C33085
S1132FF081E08C836EE47AE0CE0143960E946D36C4
S113300060E270E080EC9CE0EFD28823C9F06FE5C9
S11330107AE083EF9EE00E94D82F69E080EC9CE088
S1133020EFD24AE050E0682F83EF9EE00E94C33065
S113303081E08F8366E77AE0CE0143960E946D3685
S113304060E870E080EC9CE0CFD28823C9F06AE8A5
S11330507AE083EF9EE00E94D82F6AE080EC9CE047
S1133060CFD24AE050E0682F83EF9EE00E94C33045
S113307081E08E8360EA7AE0CE0143960E946D3649
S113308060E470E080EC9CE0AFD28823C9F063EB8D
S11330907AE083EF9EE00E94D82F6CE080EC9CE005
S11330A0AFD24AE050E0682F83EF9EE00E94C33025
S11330B081E08D8369EC7AE0CE0143960E946D36FF
S11330C06FE080EC9CE09CD28B8380EC9CE03BD254
S11330D0882309F45FC062E070E080EC9CE084D255
S11330E0882361F06CED7AE083EF9EE00E94F32F79
S11330F067EE7AE0CE0143960E946D3664E070E09C
S113310080EC9CE071D2882361F068EF7AE083EF71
S11331109EE00E94F32F63E07BE0CE0143960E9481
S11331206D3660E071E080EC9CE05ED2882361F053
S113313064E17BE083EF9EE00E94F32F6FE17BE08C
S1133140CE0143960E946D3660E072E080EC9CE014
S11331504BD2882361F060E37BE083EF9EE00E9422
S1133160F32F6BE37BE0CE0143960E946D3660E063
S113317070E180EC9CE038D2882361F06CE47BE061
S113318083EF9EE00E94F32F6DE57BE0CE01439632
S11331900E946D3660E070E280EC9CE0EDD1882303
S11331A079F064E77BE083EF9EE00E94F32F11E067
S11331B0198768E87BE0CE0143960E946D36198F2B
S11331C060E070E480EC9CE0C9D1882371F06DE983
S11331D07BE083EF9EE00E94F32F81E08A876CEA14
S11331E07BE0CE0143960E946D3660E070E880EC8F
S11331F09CE0DED1882379F06CEB7BE083EF9EE0EA
S11332000E94F32F81E0898761ED7BE0CE01439634
S11332100E946D36198E68E080EC9CE0F1D190E05C
S11332209C878B8767E080EC9CE0EAD190E09E87E6
S11332308D8766E080EC9CE0E3D190E0988B8F87EB
S113324065E080EC9CE0DCD190E09A8B898BDF9187
S1133250CF911F910895CF93DF93FC0180E5DF01A7
S11332601D928A95E9F76EE774E0758364838CEFA9
S113327098E0918780879587848777876687918B85
S1133280808B938B828B958B848BCAE7DDE0D78B05
S1133290C68B918F808F48EF51E1538F428F758F8A
S11332A0648F578F468F53A342A3A2E8BBEFB5A305
S11332B0A4A357A346A324E037EF31A720A753A71D
S11332C042A735A724A7D7A7C6A731AB20AB93AB9A
S11332D082AB35AB24AB77AB66AB31AF20AFB5AFC8
S11332E0A4AFDF01A05BBF4F4DEC5CEC6CEC7DEB5D
S11332F04D935D936D937C93139714961D921D9239
S11333001D921C92139714961D921D921D921C924D
S1133310139714961D921D921D921C921397149646
S11333204DEC5CEC6CE47EE34D935D936D937C9388
S11333301397EC59FF4F81E090E091838083DF91F4
S1133340CF910895CF92DF92EF92FF920F931F9344
S1133350CB01BA01A90198010E941D286B017C01CF
S113336020E030E044E353E40E94F02A181654F4B9
S113337020E030E044EB53E4C701B6010E941D286D
S11333806B017C0120E030E044E353ECC701B6015B
S11333900E94E42887FF0AC020E030E044EB53E4B5
S11333A0C701B6010E941E286B017C01C701B6014A
S11333B01F910F91FF90EF90DF90CF9008952F927F
S11333C03F924F925F926F927F928F929F92AF92B1
S11333D0BF92CF92DF92EF92FF920F931F93CF93FE
S11333E0DF9300D000D0CDB7DEB71C01280139012E
S11333F09A01AB01C501B4010E941D284B015C0177
S1133400A30192016C8D7D8D8E8D9F8D0E941D2850
S11334102B013C01A5019401C501B4010E94FB2AC2
S113342069837A838B839C83A3019201C301B201D4
S11334300E94FB2A9B01AC0169817A818B819C816A
S11334400E941E280E94B42B20E030E040EA51E4A0
S11334500E94E4289101205A3F4F3A832983F101C5
S1133460E45AFF4FFE83ED8387FF14C066EE7BE0D2
S113347083EF9EE00E94F32FE981FA81108211828A
S113348012821382ED81FE811082118212821382D4
S113349081E040C0A5019401C301B2010E949128BA
S11334A02BED3FE049E450E40E94EB2820E030E0BB
S11334B044E353E40E94FB2AAB01BC01F101EC5A42
S11334C0FF4F408351836283738397018601C10157
S11334D039DF9B01AC01F101E85AFF4F608371832E
S11334E082839383389760817181828193810E9462
S11334F0FB2AED81FE8160837183828393838DEC4B
S11335009CECACE4BEE3E981FA8180839183A283DD
S1133510B38380E026960FB6F894DEBF0FBECDBF0E
S1133520DF91CF911F910F91FF90EF90DF90CF909B
S1133530BF90AF909F908F907F906F905F904F90CF
S11335403F902F900895FC0181E046895789208D92
S1133550318D4217530709F480E00895FC01208D52
S1133560318D86899789822793276823792381E07F
S1133570672B09F480E00895DC015896ED91FC91E5
S11335805997AF01409550954623572391E0452B19
S113359009F490E056962D913C9157972E273F279A
S11335A06223732381E0672B09F480E08923089563
S11335B0DC015696ED91FC915797AF0140955095DB
S11335C04623572391E0452B09F490E058962D911A
S11335D03C9159972E273F276223732381E0672B61
S11335E009F480E089230895FC01808D918D8095F4
S11335F090956823792381E0672B09F480E008958E
S1133600860F911DFC0180810895FC0183A5833000
S113361031F0813031F08C3031F080E0089581E078
S1133620089582E0089583E00895DC019FB7F8943B
S11336305B96ED91FC915C9720815A968C91822B3C
S113364080839FBF0895DC019FB7F8945E96ED9147
S1133650FC915F9720815D968C91822B80839FBF24
S113366008958F929F92AF92BF92CF92DF92EF9282
S1133670FF920F931F93CF93DF93EC0100E010E0D0
S1133680F12CC62ED12C812C912C54018394E02E44
S1133690C601002E02C0959587950A94E2F780FF33
S11336A003C0CE01D0DF0AC02FB7F894EE8DFF8D92
S11336B090818D8D8095892380832FBF2FB7F894B7
S11336C0EB8DFC8D90818A8D8095892380832FBF1B
S11336D084E090E00E944134ECA1FDA190818BA193
S11336E0892351F0D501C40104C0880F991FAA1F72
S11336F0BB1FEA94D2F7F82ACE0197DF0F5F1F4F62
S11337000830110509F0C3CFCE019DDF83E090E0BE
S11337100E9441348F2DDF91CF911F910F91FF9023
S1133720EF90DF90CF90BF90AF909F908F900895CF
S1133730DC019FB7F8949196ED91FC9192972081CA
S113374090968C91822B80839FBF0895DC012FB7C4
S1133750F8949196ED91FC919297908190968C912A
S11337608095892380832FBF0895CF92DF92EF92B3
S1133770FF920F931F93CF93DF93EC016B01042F00
S1133780E5DF760110E0C7018C199D0980179107C8
S113379034F4F70161917F01CE0163DFF4CFCE01F0
S11337A0C7DF6AA570E080E090E0DF91CF911F91C0
S11337B00F91FF90EF90DF90CF900C940834CF934B
S11337C0DF93EC0145E066E376E0CFDF49E06DE2AC
S11337D076E0CE01CADF8CA5882329F045E066E1B6
S11337E076E0CE01C2DF8DA5882329F049E064E2AA
S11337F076E0CE01BADF49E06BE176E0CE01DF91FD
S1133800CF91B3CF2F923F924F925F926F927F925C
S11338108F929F92AF92BF92CF92DF92EF92FF92DC
S11338200F931F93CF93DF93CDB7DEB729970FB6CE
S1133830F894DEBF0FBECDBF4C01762E142F0E942C
S1133840D733F401C6A0D7A0E0A4F1A46C197D0974
S11338508E099F090E9484296B017C0120E030E8D5
S11338604BEB54E40E94F02A181614F4C401A7DFA9
S1133870F40162A570E080E090E00E9486291B01BB
S11338802C019B01AC01C701B6010E94E42887FF0B
S11338900AC0A7019601C201B1010E941D280E941D
S11338A058290E9408341123E1F0612F70E080E070
S11338B090E01F921F921F922FEF2F9320E4A22ECD
S11338C0B12CC12CD12CE12CF12C8701EA9420E0FD
S11338D030E0A9010E949635162F0F900F900F909B
S11338E00F90CE0101967C0189E0F70111928A952F
S11338F0E9F781E0898382E48A837C821D8385E001
S1133900382E8E01065F1F4F6401F9E0CF0ED11CE3
S1133910540185E1A80EB11CC40195DEC40185DE05
S1133920C40114DF83E090E00E9441342701340194
S1133930F20161912F01C40194DEF30181933F01EF
S113394040165106A9F7F4018181893741F0C40179
S1133950EFDEF4018181807F803761F417C0360186
S113396060E0C4017EDEF30181933F01EA15FB05AB
S1133970B9F7EDCFC40123DFF40162A570E080E064
S113398090E00E9408343A943110C6CFF40181814A
S1133990807F803731F0F40182A58A3010F48F5F84
S11339A082A7F401808D918D978B868B838194817E
S11339B0918F808F0E94D733F40166A377A380A7E9
S11339C091A79181907F81E0903709F080E029965A
S11339D00FB6F894DEBF0FBECDBFDF91CF911F911C
S11339E00F91FF90EF90DF90CF90BF90AF909F909A
S11339F08F907F906F905F904F903F902F9008959D
S1133A0040E060E0FFCE6F927F928F929F92AF92E0
S1133A10BF92CF92EF92FF920F931F93CF93DF93B6
S1133A20CDB7DEB72B970FB6F894DEBF0FBECDBF70
S1133A305C01862F70E0FB01E65DF84FE491D5014F
S1133A405A96EC935A97FB01E059F84FE491F0E051
S1133A50EE0FFF1FE053F84F65917491F501748FD9
S1133A60638F642F70E0FB01E65DF84FE4915D968F
S1133A70EC935D97FB01E059F84FE491F0E0EE0F11
S1133A80FF1FE053F84F65917491F501778F668FAE
S1133A90622F70E0FB01E65DF84FE4919096EC93A1
S1133AA0FB01E059F84FE491F0E0EE0FFF1FE05303
S1133AB0F84F65917491F50172A361A3A02FB0E052
S1133AC0FD01E65DF84F9491F50193A3FD01E059E2
S1133AD0F84FE491F0E0EE0FFF1FEA54F84F6591C0
S1133AE07491D50195967C936E93949761E02A879F
S1133AF04B870E94033561E02A85822F0E9403359B
S1133B0061E04B85842F0E94033560E0802F0E9482
S1133B10033561E0802F0E943F35C50194DDC50166
S1133B2084DDC5016DDFC5016BDFF5018181813461
S1133B3029F0833719F0893709F065C081E0D50190
S1133B409A968C938BE0882E912CFF24F39445E075
S1133B5066E376E0C50109DE83E090E00E9441342B
S1133B60C50171DDC50161DDC501F0DD83E090E0D3
S1133B700E9441340EEE1BE0CE0101963C01F80197
S1133B8061918F01C5016DDDD3018D933D01BBE0D2
S1133B90073F1B07A1F7C501CBDD8C81F50183A786
S1133BA049E06DE276E0C501E0DDCC2041F045E07E
S1133BB066E176E0C501D9DDD5019C96FC92EE2044
S1133BC039F049E064E276E0C501CFDDF501F5A600
S1133BD049E06BE176E0C501C8DDC50111DFD5011F
S1133BE011968C91EE2021F0893789F0833769F0A2
S1133BF0833769F0B1E08B1A910859F0F50182A579
S1133C008F5F82A7A4CF81E005C083E003C080E07A
S1133C1001C082E02B960FB6F894DEBF0FBECDBF75
S1133C20DF91CF911F910F91FF90EF90CF90BF90B4
S1133C30AF909F908F907F906F9008954F925F9276
S1133C406F927F928F929F92AF92BF92CF92DF92A8
S1133C50EF92FF92CF93DF93CDB7DEB7A0970FB665
S1133C60F894DEBF0FBECDBF60911F0E7091200E81
S1133C708091210E9091220E0E94862920E030E04E
S1133C8040E05BE30E94FB2A2BED3FE049E450E473
S1133C900E94FB2A20E030E048E152E40E94FB2A23
S1133CA06D877E878F87988B60911B0E70911C0E99
S1133CB080911D0E90911E0E0E94862920E030E016
S1133CC040E05BE30E94FB2A2BED3FE049E450E433
S1133CD00E94FB2A20E030E048E152E40E94FB2AE3
S1133CE069837A838B839C836091170E7091180E7D
S1133CF08091190E90911A0E0E94862920E030E0DE
S1133D0040E05BE30E94FB2A2BED3FE049E450E4F2
S1133D100E94FB2A20E030E048E152E40E94FB2AA2
S1133D206D837E838F8398879B01AC0169817A813F
S1133D308B819C810E941D2820E030E040E05FE3FD
S1133D400E94FB2A69877A878B879C872D813E8115
S1133D504F81588569817A818B819C810E941E28BC
S1133D6020E030E048E453E40E94EB286B017C013E
S1133D7020E030E040E752E40E94FB2A2D853E8596
S1133D804F8558890E941E28698B7A8B8B8B9C8B5C
S1133D902BED3FE049E450E4C701B6010E94F02A4C
S1133DA087FD16C02BED3FE049E450E4C701B6019E
S1133DB00E941E282BED3FE049EC50E40E94C829E4
S1133DC02BED3FE049E450E40E941D286B017C0187
S1133DD02BED3FE049E450ECC701B6010E94E42812
S1133DE01816B4F02BED3FE049E450E4C701B601E6
S1133DF00E941D282BED3FE049EC50E40E94C829A5
S1133E002BED3FE049E450E40E941E286B017C0145
S1133E1089899A89AB89BC898093130E9093140E77
S1133E20A093150EB093160E20910F0E3091100E24
S1133E304091110E5091120E69857A858B859C856F
S1133E400E941D284B015C0189859A85AB85BC8540
S1133E5080930F0E9093100EA093110EB093120E38
S1133E6020910B0E30910C0E40910D0E50910E0EC0
S1133E70C701B6010E941D28C0920B0ED0920C0EF1
S1133E80E0920D0EF0920E0E20E030E040E05FE391
S1133E900E94FB2A9B01AC016BED7FE089EC9FE360
S1133EA00E941D282B013C010E94E8289B01AC01C3
S1133EB0C501B4010E94FB2A698F7A8F8B8F9C8F76
S1133EC0C301B2010E94AA2B9B01AC01C501B4013C
S1133ED00E94FB2A4B015C01C701B6010E94E8283D
S1133EE06D8B7E8B8F8B988FC701B6010E94AA2B96
S1133EF02B013C012D893E894F89588D698D7A8D1E
S1133F008B8D9C8D0E94FB2A6D8F7E8F8F8F98A343
S1133F10A3019201C501B4010E94FB2A9B01AC01DB
S1133F206D8D7E8D8F8D98A10E941E289B01AC0102
S1133F3060912B0E70912C0E80912D0E90912E0E6F
S1133F400E941E2860932B0E70932C0E80932D0ECE
S1133F5090932E0E2D893E894F89588DC501B40149
S1133F600E94FB2A4B015C01A3019201698D7A8DA9
S1133F708B8D9C8D0E94FB2A9B01AC01C501B40171
S1133F800E941D289B01AC016091270E7091280EA0
S1133F908091290E90912A0E0E941E286093270E6C
S1133FA07093280E8093290E90932A0E2BED3FE0F8
S1133FB049E450E4C701B6010E94EB2820E030E058
S1133FC044E353E40E94FB2A6093230E7093240E6F
S1133FD08093250E9093260E67EF7BE083EF9EE09F
S1133FE00E94D82F40911F0E5091200E6091210EF7
S1133FF07091220E2AE030E083EF9EE00E9455305B
S11340006FEF7BE083EF9EE00E94D82F40911B0E60
S113401050911C0E60911D0E70911E0E2AE030E02E
S113402083EF9EE00E94553068E07CE083EF9EE0E1
S11340300E94D82F4091170E5091180E6091190EBE
S113404070911A0E2AE030E083EF9EE00E94553012
S113405069E477E083EF9EE00E94D82F22E030E00D
S11340604D855E856F85788983EF9EE00E94B0312F
S11340706FE477E083EF9EE00E94D82F22E030E0E7
S113408049815A816B817C8183EF9EE00E94B0312B
S113409065E577E083EF9EE00E94D82F22E030E0D0
S11340A04D815E816F81788583EF9EE00E94B031FF
S11340B061E17CE083EF9EE00E94D82F22E030E0B3
S11340C049895A896B897C8983EF9EE00E94B031CB
S11340D068E17CE083EF9EE00E94D82F22E030E08C
S11340E049855A856B857C8583EF9EE00E94B031BB
S11340F06FE17CE083EF9EE00E94D82F22E030E065
S1134100B701A60183EF9EE00E94B03166E27CE035
S113411083EF9EE00E94D82F40912B0E50912C0EDD
S113412060912D0E70912E0E22E030E083EF9EE020
S11341300E94B0316EE27CE083EF9EE00E94D82FB3
S11341404091270E5091280E6091290E70912A0EED
S113415022E030E083EF9EE00E94B03166E37CE031
S113416083EF9EE00E94D82F4091230E5091240E9D
S11341706091250E7091260E22E030E083EF9EE0E0
S1134180A0960FB6F894DEBF0FBECDBFDF91CF91DE
S1134190FF90EF90DF90CF90BF90AF909F908F9063
S11341A07F906F905F904F900C94B13184E00E94A7
S11341B06E3540911F0E5091200E6091210E70912A
S11341C0220E019729F44F5F5F4F6F4F7F4F04C05A
S11341D0415051096109710940931F0E5093200EFB
S11341E06093210E7093220E089585E00E946E352F
S11341F040911B0E50911C0E60911D0E70911E0E6D
S1134200019729F4415051096109710904C04F5FB4
S11342105F4F6F4F7F4F40931B0E50931C0E609364
S11342201D0E70931E0E089586E00E946E35409117
S1134230170E5091180E6091190E70911A0E019775
S113424029F4415051096109710904C04F5F5F4F5E
S11342506F4F7F4F4093170E5093180E6093190EB3
S113426070931A0E089562E083E10E94033562E0C0
S113427082E00E94033562E083E00E94033562E03D
S113428084E00E94033562E085E00E94033562E029
S113429086E00E94033542E050E066ED70E284E07F
S11342A00E94C23142E050E065EF70E280E00E947B
S11342B0C23142E050E064E171E281E00C94C23129
S11342C0CF93DF9300D000D0CDB7DEB726E040E037
S11342D052EC61E070E083EF9EE00E94EE2D40E03E
S11342E052EC61E070E08EED9DE00E9465118FED6F
S11342F09DE00E9408138AE59DE00E94EC10B3DF64
S11343006EE37CE0CE0101960E943C3644E150E02D
S1134310BE016F5F7F4F8CEA9DE0EED5CE01019622
S11343200E94D5356EE17EE18CEA9DE054D688EB9F
S11343309DE00E94201788EB9DE00E94AC1781E06D
S11343408093D10D26960FB6F894DEBF0FBECDBF75
S1134350DF91CF9108952F923F924F925F926F9287
S11343607F928F929F92AF92BF92CF92DF92EF9201
S1134370FF920F931F93CF93DF93CDB7DEB762976E
S11343800FB6F894DEBF0FBECDBF88EB9DE00E9450
S1134390AC178091C20D882329F1C090230ED090D0
S11343A0240EE090250EF090260E0091270E109119
S11343B0280E2091290E30912A0E40912B0E5091F7
S11343C02C0E60912D0E70912E0E89EA9DE00E94B4
S11343D0311262E47CE08EEE9CE00E946D36109215
S11343E0C20D06C06CE47CE08EEE9CE00E946D364B
S11343F08091D10D81113DC0C090230ED090240E28
S1134400E090250EF090260E0091270E1091280EB4
S11344102091290E30912A0E40912B0E50912C0E92
S113442060912D0E70912E0E83E48F938AEF8F93FB
S11344301F921F92812C912CEAEFAE2EE3E4BE2E44
S113444084EF9CE00E94DF192090540D3090550DAC
S11344504090560D5090570DC090500DD090510D76
S1134460E090520DF090530D0F900F900F900F901D
S11344704DC06091C70D7091C80D072E000C880BBC
S1134480990B77247A947F927F922CEF2F9328E1D3
S11344902F9328EEA22E23E0B22EC12CD12CE12C96
S11344A0F12C8701EA9420E030E0A9010E949635BE
S11344B02DD720E030E04AE754E48DD61B012C01CF
S11344C06091C50D7091C60D072E000C880B990BD9
S11344D07F927F9223EF2F932CEB2F9344E4A42E0F
S11344E04CE0B42EC12CD12C20E030E0A9010E9474
S11344F096350CD720E030E84BEB54E46CD66B01D6
S11345007C010FB6F894DEBF0FBECDBF00E010E013
S11345109801B201A1018BE79DE00E94BE15298399
S11345203A834B835C836D837E838F8398878981F1
S11345309A819A8B898B8B819C81988B8F872D8014
S11345403E804F80588482019101AC0169897A8947
S11345508AE59DE00E94F30F91014F85588969898E
S11345607A898EED9DE00E947011C090230ED09048
S1134570240EE090250EF090260E0091270E109147
S1134580280E2091290E30912A0E40912B0E509125
S11345902C0E60912D0E70912E0E8EED9DE00E94DA
S11345A0B4113E0199E0690E711C6EEE7CE0C3010A
S11345B00E946536B3018EED9DE00E941A12C3017C
S11345C00E94D5356BEC7DE0C3010E946536809076
S11345D0270E9090280EA090290EB0902A0EC0901D
S11345E02B0ED0902C0EE0902D0EF0902E0E7F927C
S11345F06F928091260E8F938091250E8F938091D8
S1134600240E8F938091230E8F93820191014F8505
S1134610588969897A898FED9DE00E941A13C30134
S11346200E94D53564E87CE08BEC9DE00E946D36F9
S11346300F900F900F900F900F900F9062960FB6FF
S1134640F894DEBF0FBECDBFDF91CF911F910F91C4
S1134650FF90EF90DF90CF90BF90AF909F908F909E
S11346607F906F905F904F903F902F900895CF92DE
S1134670DF92EF92FF920F931F938FED9DE00E94C4
S1134680CC128EED9DE00E94641182ED9DE00E94AB
S1134690E91688EB9DE00E94FD168CEA9DE017D494
S11346A089EA9DE00E942A1288E0C82ED12CE12CD0
S11346B0F12C00E01FE326E933E44BE85DE36CE210
S11346C071E08BE79DE00E944F148AE59DE00E9413
S11346D0B10F84EF9CE00E942B1968E57CE08EEE1C
S11346E09CE01F910F91FF90EF90DF90CF900C947E
S11346F03C368EEE9CE00E94D5358CEA9DE070D469
S11347008BEC9DE00C94D535CF93CFB7F894809182
S1134710320E811127C0E5EAF7E08491EFE5F7E076
S11347209491E82FF0E0EE0FFF1FE651F84FA591AA
S1134730B491EC91E92321F461E085E30E943F35D3
S113474061E085E30E9403358CB580618CBD8CB536
S113475080648CBD61E084E30E94033561E083E3FF
S11347600E9403358091320E8F5F8093320ECFBF4B
S1134770CF9108951092A00E81E080939E0E109226
S11347809D0E61E084E10E943F3561E085E10E9475
S11347903F35E9EBF0E080818E7F808380818D7FDF
S11347A0808388E48093B80085E48093BC000895F6
S11347B0413208F043C09091A00E9111FCCF91E0DA
S11347C09093A00E20939E0E2FEF2093330E109201
S11347D0780E240F2093770E90939F0E90919F0E46
S11347E0880F892B80939F0E80919D0E813061F4F8
S11347F010929D0E80919F0E8093BB008091BC000F
S113480083FDF8CF85EC01C085EE8093BC008091D8
S1134810A00E8130E1F38091780E841710F440915A
S1134820780E29E73EE0FB01D9018A2F821B841709
S113483018F48D918193F9CF842F089580E0089521
S11348400F93413208F04AC09091A00E9111FCCF11
S113485032E03093A00E00939E0E3FEF3093330E60
S11348601092780E4093770EFB0169E77EE0DB013E
S11348703A2F361B341718F431913D93F9CF109227
S11348809F0E30919F0E880F832B80939F0E8091F3
S11348909D0E813061F410929D0E80919F0E809345
S11348A0BB008091BC0083FDF8CF85EC01C085EE90
S11348B08093BC00222321F08091A00E8230D1F39A
S11348C08091330E8F3F79F08091330E803241F026
S11348D08091330E803331F094E005C091E003C041
S11348E092E001C093E0892F0F9108954091550EF5
S11348F0262F30E0240F311D21323105DCF42091C4
S1134900A00E2430C9F4FC0180E090E0861758F42E
S11349103091550E2191DC01A95AB14FA30FB11D5D
S11349202C930196F3CF8091550E680F6093550E2A
S113493080E0089581E0089582E0089585ED8093F4
S1134940BC008091BC0084FDFCCF1092A00E0895A1
S113495085EC8093BC001092A00E08951F920F92D4
S11349600FB60F9211240BB60F922F933F934F93D0
S11349705F936F937F938F939F93AF93BF93EF93C3
S1134980FF938091B900887F803609F49DC070F54B
S1134990883209F45CC090F4803109F455C038F4CD
S11349A0882309F4F3C0883009F44EC0F2C088317A
S11349B009F44DC0803209F45EC0EBC0803409F4C0
S11349C069C050F4803309F456C0883309F0E1C05B
S11349D08093330EBDDFDDC0803509F44FC08835C8
S11349E009F45DC0883409F0D4C0D2C0883909F410
S11349F0C3C0A8F4883709F467C038F4883609F4CA
S1134A0063C0803709F460C0C4C0883809F4B4C0F6
S1134A10803909F45FC0803809F0BBC05BC0803BBB
S1134A2009F482C038F4803A09F466C0883A09F47B
S1134A307BC0AFC0803C09F4A3C0883C09F4A0C08B
S1134A40883B09F486C0A5C080919F0E10C0909148
S1134A50780E8091770E981770F5E091780E81E0CA
S1134A608E0F8093780EF0E0E758F14F80818093A9
S1134A70BB0085EC82C08093330E8AC0E091780E2F
S1134A8081E08E0F8093780E8091BB00F0E0E758B0
S1134A90F14F80839091780E8091770E6AC0E091F7
S1134AA0780E81E08E0F8093780E8091BB00F0E049
S1134AB0E758F14F808380919E0E811169C081E097
S1134AC080939D0E84EA5DC083E08093A00E1092D3
S1134AD0340ECFCF8091340E803208F04DC0E09177
S1134AE0340E81E08E0F8093340E8091BB00F0E091
S1134AF0EB5CF14F8083BDCF2BDF8091340E80328D
S1134B0030F4E091340EF0E0EB5CF14F10826091F0
S1134B10340E70E0E091990EF0919A0E85E39EE0D8
S1134B2019951092340E35C084E08093A00E109233
S1134B30560E1092550EE0919B0EF0919C0E199515
S1134B408091550E811105C081E08093550E10921D
S1134B50570EE091560E81E08E0F8093560EF0E0D2
S1134B60E95AF14F80818093BB009091560E809159
S1134B70550E981708F47DCF85E88093BC0009C0D2
S1134B8085EC8093BC001092A00E03C01092330EEB
S1134B90D5DEFF91EF91BF91AF919F918F917F915E
S1134BA06F915F914F913F912F910F900BBE0F909A
S1134BB00FBE0F901F9018958091D10E90E0209118
S1134BC0D20E821B910908959091D20E8091D10E3C
S1134BD0981750F4E92FF0E0ED52F14F208130E0C6
S1134BE09F5F9093D20E02C02FEF3FEFC90108954B
S1134BF0E091D20E8091D10EE81730F4F0E0ED523E
S1134C00F14F808190E008958FEF9FEF089508950C
S1134C10CF92DF92EF92FF920F931F93CF93DF9384
S1134C207C01262F972F8A018091AD0E882391F065
S1134C30C62FD72F6E01C40ED51ECC15DD0569F025
S1134C406991D701ED91FC910190F081E02DC701AC
S1134C501995F3CF642F822F49DEC801DF91CF91DC
S1134C601F910F91FF90EF90DF90CF900895CF9315
S1134C70DF931F92CDB7DEB769832091AD0E222357
S1134C80D1F02091AE0E203240F021E030E0FC0162
S1134C903383228380E090E014C08091AF0EE82F2C
S1134CA0F0E0E055F14F998190838F5F8093AF0ED0
S1134CB08093AE0E04C061E0CE01019617DE81E060
S1134CC090E00F90DF91CF910895FC01138212823E
S1134CD088EE93E0A0E0B0E084839583A683B78355
S1134CE082E69CE09183808308951092D20E109204
S1134CF0D10E1092AF0E1092AE0E3CCD81E0809397
S1134D00AD0E6093D00E1092AF0E1092AE0E0895B9
S1134D10F5CF0F93062F21E04091AE0E60EB7EE0BD
S1134D208091D00E8DDD1092AF0E1092AE0E1092C7
S1134D30AD0E0F9108954F925F926F927F92AF9252
S1134D40BF92CF92EF92FF920F931F93CF93DF9373
S1134D505C01F62ED42F28013901EE2011F1CEDFAB
S1134D60CE2DC43008F0C3E0C150C0F0D501ED91A0
S1134D70FC91B8E0CB9FC0011124A301920104C0AF
S1134D8056954795379527958A95D2F7CA01B90163
S1134D900190F081E02DC5011995E6CF60E0C501D1
S1134DA0B8DF4D2FD13208F040E22C2D63ED7EE0C8
S1134DB08F2DFEDC1092D20E8093D10EDF91CF9115
S1134DC01F910F91FF90EF90CF90BF90AF907F9085
S1134DD06F905F904F900895CF92EF920F931F932F
S1134DE0C22EE12C00E010E09801A5DF1F910F9185
S1134DF0EF90CF90089521E0EFCF61E08ACF81EA70
S1134E009EE063CF08954F925F926F927F92AF922C
S1134E10BF92CF92DF92EF92FF920F931F93CF93A3
S1134E20DF93CDB7DEB72A970FB6F894DEBF0FBE77
S1134E30CDBF7C015B018AE0EDE4F6E0DE01119672
S1134E4001900D928A95E1F7CE0101966C0100E084
S1134E5010E030E8432E3EE3532E612C712CF60112
S1134E60619171916F01CB01770FAA0BBB0B77276F
S1134E706627A30192010E94E836A216B3062CF01D
S1134E800F5F1F4F0530110551F7F7013187208758
S1134E90000F111FE1E0F0E0EC0FFD1FE00FF11F28
S1134EA0808191812A960FB6F894DEBF0FBECDBFE4
S1134EB0DF91CF911F910F91FF90EF90DF90CF90F2
S1134EC0BF90AF907F906F905F904F900895CF9375
S1134ED0DF93EC0164E87CE00E943C3681E090E0E2
S1134EE09F838E83198618861B861A868FB78068DF
S1134EF08FBFDF91CF910895EF92FF920F931F938D
S1134F00CF93DF93EC017B018A010E945036B801F4
S1134F10CE0179DF9F838E83C7010E94A0366EE3A2
S1134F207CE0C7010E948236882309F44DC01092A8
S1134F3080001092810088E0809381008E819F819F
S1134F40019729F4809181008160809381008E8192
S1134F509F81089729F48091810082608093810069
S1134F608E819F818034910529F480918100836032
S1134F70809381008E819F818115914029F48091D5
S1134F8081008460809381008E819F81811594408B
S1134F9029F48091810085608093810020E83EE3BC
S1134FA0D8010E941B372E813F81032E000C440B35
S1134FB0550B0E94E8363B872A873093890020935B
S1134FC0880082E080936F00DF91CF911F910F9151
S1134FD0FF90EF90089570933C0660933B0608950C
S1134FE00C94D5351F920F920FB60F9211240BB665
S1134FF00F922F933F934F935F936F937F938F936E
S11350009F93AF93BF93EF93FF93E0913B06F0918F
S11350103C061995FF91EF91BF91AF919F918F91AC
S11350207F916F915F914F913F912F910F900BBEA4
S11350300F900FBE0F901F9018955058BB27AA27AA
S11350400ED083C24CD230F051D220F031F49F3FC5
S113505011F41EF41CC20EF4E095E7FB04C2E92F20
S113506096D280F3BA17620773078407950718F07E
S113507071F49EF5AEC20EF4E0950B2EBA2FA02D5E
S11350800B01B90190010C01CA01A0011124FF27F1
S1135090591B99F0593F50F4503E68F11A16F040EC
S11350A0A22F232F342F4427585FF3CF46953795EB
S11350B02795A795F0405395C9F77EF41F16BA0BB0
S11350C0620B730B840BBAF09150A1F0FF0FBB1F5E
S11350D0661F771F881FC2F70EC0BA0F621F731FA7
S11350E0841F48F4879577956795B795F7959E3F04
S11350F008F0B3CF9395880F08F09927EE0F979592
S113510087950895ECD158F080E891E009F49EEF7A
S1135110EDD128F040E851E059F45EEF09C0B7C181
S113512058C2E92FE07833D268F3092E052AC1F377
S1135130261737074807590738F00E2E07F8E025D9
S113514069F0E025E0640AC0EF6307F8009407FA09
S1135150DB01B9019D01DC01CA01AD01EF934AD025
S1135160F4D10AD05F91552331F02BED3FE049E4AF
S113517050FD49EC63CF0895DF93DD27B92FBF7746
S113518040E85FE31616170648075B0710F4D92FAB
S11351902BD29F938F937F936F9324D3E4EEF0E00D
S11351A079D1D3D12F913F914F915F9130D2DD23AB
S11351B049F09058A2EA2AED3FE049EC5FE3D07849
S11351C05D274DDFDF91C1C12AD108F481E0089544
S11351D095D1E395CBC10CD0B8C188D140F07FD133
S11351E030F021F45F3F19F03EC15111F3C14FC1BA
S11351F0CED198F39923C9F35523B1F3951B550BDD
S1135200BB27AA2762177307840738F09F5F5F4F95
S1135210220F331F441FAA1FA9F333D00E2E3AF0D6
S1135220E0E830D091505040E695001CCAF729D0F0
S1135230FE2F27D0660F771F881FBB1F261737073F
S11352404807AB07B0E809F0BB0B802DBF01FF276F
S113525093585F4F2AF09E3F510568F004C1BAC1CC
S11352605F3FECF3983EDCF3869577956795B795A9
S1135270F7959F5FC9F7880F911D9695879597F9C4
S11352800895E1E0660F771F881FBB1F621773073D
S11352908407BA0720F0621B730B840BBA0BEE1F52
S11352A088F7E095089504D06894B11193C10895E6
S11352B076D188F09F5790F0B92F9927B751A0F075
S11352C0D1F0660F771F881F991F1AF0BA95C9F796
S11352D012C0B13081F07DD1B1E008957AC1672F59
S11352E0782F8827B85F39F0B93FCCF38695779546
S11352F06795B395D9F73EF490958095709561952F
S11353007F4F8F4F9F4F0895E89409C097FB3EF459
S113531090958095709561957F4F8F4F9F4F9923FE
S1135320A9F0F92F96E9BB279395F695879577957C
S11353306795B795F111F8CFFAF4BB0F11F460FF3C
S11353401BC06F5F7F4F8F4F9F4F16C0882311F094
S113535096E911C0772321F09EE8872F762F05C0A8
S1135360662371F096E8862F70E060E02AF09A9543
S1135370660F771F881FDAF7880F9695879597F938
S11353800895ADD018F011F0B1D038F480C022C126
S1135390E92FFDD0B0F35523C9F3E7FB6217730778
S11353A084079507A8F199F3E92FFF2788232AF0AA
S11353B03197660F771F881FDAF7952F55274423F7
S11353C032F091505040220F331F441FD2F7BB27B5
S11353D0E91BF50B621B730B840BB109C1F222F4B8
S11353E0620F731F841FB11D31972AF0660F771F58
S11353F0881FBB1FEFCF915050405AF041F08823D3
S113540032F0660F771F881F91505040C1F7939573
S113541030C08695779567959F5FD9F7F8CF990F38
S11354200008550FAA0BE0E8FEEF16161706E8076A
S1135430F907C0F012161306E407F50798F0621B8B
S1135440730B840B950B39F40A2661F0232B242B60
S1135450252B21F408950A2609F4A140A6958FEF7F
S1135460811D811D089597F99F6780E870E060E0D1
S113547008959F3F31F0915020F487957795679573
S1135480B795880F911D9695879597F908959FEF85
S113549080EC0895DF93CF931F930F93FF92EF92C5
S11354A0DF927B018C01689405C0DA2EEF01AFD046
S11354B0FE01E894A5912591359145915591AEF35E
S11354C0EF01CDDDFE019701A801DA9479F7DF90B1
S11354D0EF90FF900F911F91CF91DF9108950024D9
S11354E00A941616170618060906089500240A9445
S11354F012161306140605060895C9CF50D0E8F312
S1135500E894E0E0BB279F57F0F02AED3FE049EC38
S113551006C0EE0FBB0F661F771F881F28F0B23A34
S113552062077307840728F0B25A620B730B840B6B
S1135530E3959A9572F7803830F49A95BB0F661FFD
S1135540771F881FD2F7904896CF092E0394000C3A
S113555011F4882352F0BB0F40F4BF2B11F460FF09
S113556004C06F5F7F4F8F4F9F4F0895EF93E0FF0D
S113557006C0A2EA2AED3FE049EC5FEB70DDE5DF0F
S11355800F90039401FC9058E1E1F1E066C157FDEE
S11355909058440F551F59F05F3F71F04795880F9D
S11355A097FB991F61F09F3F79F087950895121634
S11355B013061406551FF2CF4695F1DF08C01616E0
S11355C017061806991FF1CF869571056105089491
S11355D00895E894BB2766277727CB0197F90895A8
S11355E01EDF08F48FEF08959B01AC0160E070E0CA
S11355F080E89FE3F0CD0BD0A8CF71DF28F076DFF1
S113560018F0952309F02FCF42CF1124E3CFBFDF49
S1135610A0F3959FD1F3950F50E0551F629FF001C1
S1135620729FBB27F00DB11D639FAA27F00DB11D1A
S1135630AA1F649F6627B00DA11D661F829F2227A3
S1135640B00DA11D621F739FB00DA11D621F839F2A
S1135650A00D611D221F749F3327A00D611D231F00
S1135660849F600D211D822F762F6A2F11249F574E
S113567050408AF0E1F088234AF0EE0FFF1FBB1F71
S1135680661F771F881F91505040A9F79E3F510510
S113569070F0E9CE9FCF5F3FECF3983EDCF3869544
S11356A077956795B795F795E7959F5FC1F7FE2BBB
S11356B0880F911D9695879597F90895FA01EE0F35
S11356C0FF1F30962105310599F16115710561F4CB
S11356D08038BFE39B0749F168949038810561F0F5
S11356E08038BFEF9B0741F0992342F5FF3FE10566
S11356F03105210511F1E8940894E795D901AA230D
S113570029F4AB2FBE2FF85FD0F310C0FF5F70F405
S1135710A695E0F7F73950F019F0FF3A38F49F777F
S11357209F930CD00F9007FC905808953EF0AFCE95
S113573060E070E080E89FE308954FE79F775F9310
S11357404F933F932F93D5D02F913F914F915F91DA
S113575052DF50C09F93D2DE0F9007FCEE5F06CF5E
S113576011F40EF494CE85CE1ADFD0F39923D9F335
S1135770CEF39F57550B87FF69D00024A0E640EA7B
S1135780900180585695979528F4805C660F771F92
S1135790881F20F026173707480730F4621B730B65
S11357A0840B202931294A2BA69517940794202588
S11357B031254A2758F7660F771F881F20F02617D0
S11357C03707480730F4620B730B840B200D311D2F
S11357D0411DA09581F7B901842F9158880F9695A2
S11357E0879508959B01AC0106CF19F40EF03BCECA
S11357F0F0CE4DCED4DEC8F39638C0F707F80F923A
S1135800E8942BE33AEA48EB5FE703DF0F920F9249
S11358100F924DB75EB70F92ACD0EFE2F1E03ADEF3
S11358204F915F91EF91FF91E595EE1FFF1F49F0B6
S1135830FE57E0684427EE0F441FFA95E1F74195BF
S1135840550B1ED00F9007FECFCE089591505040B7
S1135850660F771F881FD2F708959F938F937F93C6
S11358606F93FF93EF939B01AC01C5DEEF91FF9122
S113587011DE2F913F914F915F91BDCEF4CDF9CDC3
S11358808EDEE8F39923D9F3940F511DBBF39150A5
S1135890504094F059F0882332F0660F771F881F28
S11358A091505040C1F79E3F510544F7880F911D18
S11358B09695879597F908955F3FACF0983E9CF0D4
S11358C0BB27869577956795B79508F4B16093954E
S11358D0C1F7BB0F58F711F460FFE8CF6F5F7F4F3C
S11358E08F4F9F4FE3CF76CE0EF0C3CDD0CD6894CB
S11358F0BACD55DEC8F39923D1F3C6F3DF93CF9322
S11359001F930F93FF92C92FDD2788232AF0219735
S1135910660F771F881FDAF720E030E040E85FEB7E
S11359209FE3883920F0803E30F021968F7786DB24
S1135930E7E5F1E003C082DBE4E8F1E0ABDD8B01F5
S1135940BE01EC01FB2E6F5771097595771F880B0B
S1135950990BDCDC28E132E741E35FE358DEAF2D4D
S11359609801AE01FF900F911F91CF91DF9177DBEA
S1135970ECCDFA01DC01AA0FBB1F9B01AC01BF57A0
S113598028F422273327442750781FC0B75188F4BE
S1135990AB2F0024469537952795011CA395D2F388
S11359A0002069F0220F331F441FB395DAF30DD0A2
S11359B044CB61307105A0E88A07B94630F49B01F5
S11359C0AC016627772788279078309621F02083CA
S11359D031834283538308950E943C39FC01918DA5
S11359E0228D892F90E0805C9F4F821B91098F73D9
S11359F099270895FC01918D828D981731F0828D3D
S1135A00E80FF11D858D90E008958FEF9FEF0895C5
S1135A10FC01918D828D981761F0828DDF01A80FB2
S1135A20B11D5D968C91928D9F5F9F73928F90E0D4
S1135A3008958FEF9FEF0895FC01538D448D252F1A
S1135A4030E0842F90E0821B930B541710F0CF9614
S1135A5008950197089582EB9EE2892B39F080E046
S1135A6090E0892B19F07ED1811124C080E090E070
S1135A70892B41F080E090E0892B21F00E94000006
S1135A8081111BC087E49FE2892B39F080E090E00C
S1135A90892B19F0FCD1811113C080E090E0892B8F
S1135AA0A1F080E090E0892B81F00E940000811138
S1135AB00AC008950E940000D9CF0E940000E2CFDE
S1135AC00E940000EACF0C9400000895FC01848D2C
S1135AD0DF01A80FB11DA35ABF4F2C91848D90E014
S1135AE001968F739927848FA689B7892C93A089EF
S1135AF0B1898C9180648C93938D848D981306C0A6
S1135B000288F389E02D80818F7D80830895CF936F
S1135B10DF93EC01888D8823C1F0EA89FB898081B9
S1135B2085FD05C0A889B9898C9186FD0EC00FB684
S1135B3007FCF5CF808185FFF2CFA889B9898C91C4
S1135B4085FFEDCFCE01C2DFE8CFDF91CF9108957D
S1135B50EF92FF920F931F93CF93DF93EC0181E0B9
S1135B60888F9B8D8C8D981305C0E889F989808175
S1135B7085FD23C0F62E0B8D10E00F5F1F4F0F73B2
S1135B801127E02E8C8DE8120BC00FB607FCFACF5C
S1135B90E889F989808185FFF5CFCE0197DFF2CFBF
S1135BA08B8DFE01E80FF11DE35AFF4FF0820B8F3E
S1135BB0EA89FB898081806207C0EE89FF8960835E
S1135BC0E889F98980818064808381E090E0DF91B5
S1135BD0CF911F910F91FF90EF900895CF92DF9294
S1135BE0EF92FF921F93CF93DF93EC016A017B0145
S1135BF0122FE889F98982E080834115514E6105AD
S1135C007105B1F060E079E08DE390E0A7019601C1
S1135C100E94C636DA01C9010197A109B109B695F6
S1135C20A79597958795AC01411580E15807A8F091
S1135C30E889F989108260E874E88EE190E0A701B0
S1135C4096010E94C636BA01A90141505109610961
S1135C5071097695679557954795EC85FD85508331
S1135C60EE85FF854083188EEC89FD891083EA89CF
S1135C70FB89808180618083EA89FB8980818860D7
S1135C808083EA89FB89808180688083EA89FB8933
S1135C9080818F7D8083DF91CF911F91FF90EF9062
S1135CA0DF90CF9008951F920F920FB60F92112498
S1135CB00BB60F922F938F939F93EF93FF93E091E3
S1135CC0030FF091040F8081E091090FF0910A0F06
S1135CD082FD12C0908180910C0F8F5F8F73209191
S1135CE00D0F821751F0E0910C0FF0E0ED50F14FE1
