S0150000736B657463685F6665623033612E737265633D
S1130000F0C300000C94BA2E0C94E52E0C94102F1F
S11300100C943B2F0C94662F0C94912F0C94BC2FB2
S11300200C94E72F0FC400000DC400000BC40000A3
S113003009C4000007C4000005C4000003C4000094
S113004001C400000C943B25FDC30000FBC3000069
S1130050F9C30000F7C30000F5C300000C9412308C
S1130060F1C300000C94EE2A0C94242BEBC3000083
S1130070E9C30000E7C30000E5C30000E3C30000D8
S1130080E1C30000DFC30000DDC30000DBC30000E8
S1130090D9C30000D7C30000D5C300000C94F721D6
S11300A0D1C30000CFC30000CDC30000CBC3000008
S11300B0C9C30000C7C30000C5C30000C3C3000018
S11300C0C1C30000BFC30000BDC300000C94832B58
S11300D00C94B92BB7C30000B5C30000B3C3000030
S11300E0B1C3000005A84CCDB2D44EB93836A9022C
S11300F00C50B9918688083CA6AAAA2ABE00000022
S1130100803F07634236B79BD8A71A39685618AEA2
S1130110BAAB558C1D3CB7CC5763BD6DEDFD753E38
S1130120F6177231BF000000803F08000000BE9245
S11301302449123EABAAAA2ABECDCCCC4C3E000028
S11301400080BEABAAAAAA3E00000000BF000000C7
S1130150803F0000000000084178D3BB4387D113DF
S11301603D190E3CC3BD4282AD2B3E68EC8276BE87
S1130170D98FE1A93E4C80EFFFBE01C4FF7F3F0051
S113018000000000942E5E2E662E722E7F2EA02E6E
S1130190AD2E4D3150313F314331493187315431E6
S11301A058315E31623166316C317031743187316E
S11301B07A317E31823100000000003E5B4F5B3EAD
S11301C03E6B4F6B3E1C3E7C3E1C183C7E3C181C18
S11301D0577D571C1C5E7F5E1C00183C1800FFE70F
S11301E0C3E7FF0018241800FFE7DBE7FF30483AB5
S11301F0060E2629792926407F050507407F052517
S11302003F5A3CE73C5A7F3E1C1C08081C1C3E7F9E
S113021014227F22145F5F005F5F06097F017F0065
S11302206689956A606060606094A2FFA294080485
S11302307E040810207E201008082A1C08081C2AA6
S113024008081E101010100C1E0C1E0C30383E38FE
S113025030060E3E0E06000000000000005F0000A5
S11302600007000700147F147F14242A7F2A122316
S11302701308646236495620500008070300001C26
S11302802241000041221C002A1C7F1C2A08083E2F
S11302900808008070300008080808080000606042
S11302A00020100804023E5149453E00427F4000B0
S11302B072494949462141494D331814127F102788
S11302C0454545393C4A49493141211109073649D7
S11302D0494936464949291E0000140000004034AB
S11302E000000008142241141414141400412214B0
S11302F00802015909063E415D594E7C1211127CD7
S11303007F494949363E414141227F4141413E7F37
S1130310494949417F090909013E414151737F0817
S113032008087F00417F41002040413F017F0814BD
S113033022417F404040407F021C027F7F0408101E
S11303407F3E4141413E7F090909063E4151215EFC
S11303507F09192946264949493203017F01033F90
S11303604040403F1F2040201F3F4038403F63141F
S113037008146303047804036159494D43007F4121
S113038041410204081020004141417F040201025E
S11303900440404040400003070800205454784083
S11303A07F284444383844444428384444287F3817
S11303B05454541800087E090218A4A49C787F0899
S11303C004047800447D40002040403D007F102814
S11303D0440000417F40007C047804787C080404D5
S11303E0783844444438FC1824241818242418FC6D
S11303F07C08040408485454542404043F44243C12
S11304004040207C1C2040201C3C4030403C442880
S11304101028444C9090907C4464544C440008361A
S11304204100000077000000413608000201020488
S1130430023C2623263C1EA1A161123A4040207AA8
S113044038545455592155557941225454784221F0
S11304505554784020545579400C1E527212395527
S11304605555593954545459395554545800004524
S11304707C410002457D420001457C407D12111201
S11304807DF0282528F07C545545002054547C5494
S11304907C0A097F4932494949323A4444443A3250
S11304A04A4848303A4141217A3A42402078009DF6
S11304B0A0A07D3D4242423D3D4040403D3C24FFA2
S11304C02424487E4943662B2FFC2F2BFF0929F651
S11304D020C0887E090320545479410000447D41A2
S11304E03048484A32384040227A007A0A0A727DFB
S11304F00D19317D2629292F282629292926304816
S11305004D4020380808080808080808382F10C883
S1130510ACBA2F102834FA00007B000008142A1407
S11305202222142A14085500550055AA55AA55AA82
S1130530FF55FF55FF000000FF00101010FF0014CE
S11305401414FF001010FF00FF1010F010F014142A
S113055014FC001414F700FF0000FF00FF1414F44F
S113056004FC141417101F10101F101F1414141F50
S113057000101010F0000000001F101010101F10C9
S1130580101010F010000000FF10101010101010C8
S11305901010FF10000000FF140000FF00FF000017
S11305A01F10170000FC04F414141710171414F48B
S11305B004F40000FF00F714141414141414F700C6
S11305C0F7141414171410101F101F141414F41417
S11305D01010F010F000001F101F0000001F140086
S11305E00000FC140000F010F01010FF10FF1414B1
S11305F014FF141010101F00000000F010FFFFFF84
S1130600FFFFF0F0F0F0F0FFFFFF0000000000FF3C
S1130610FF0F0F0F0F0F3844443844FC4A4A4A3442
S11306207E02020606027E027E0263554941633859
S113063044443C04407E201E2006027E020299A50A
S1130640E7A5991C2A492A1C4C7201724C304A4D68
S11306504D303048784830BC625A463D3E4949499D
S1130660007E0101017E2A2A2A2A2A44445F444446
S113067040514A444040444A51400000FF0103E0D5
S113068080FF000008086B6B083612362436060F0C
S1130690090F06000018180000001010003040FF79
S11306A00101001F01011E00191D1712003C3C3CF2
S11306B03C000000000000000A0B02090C0D0E08AB
S11306C00703040100000000000000000000000017
S11306D00000000000000000000000000000000016
S11306E000001211100000000000000000000000D3
S11306F000000000000000000000000001021020C3
S11307002008081020401020408002010201080443
S113071002010102040810204080804020100804D7
S11307200201800402018040201008040201080430
S11307300201010204081020408001020408102074
S1130740408005050505070508080808020202029D
S11307500A0A080804040404010101010101010159
S11307600303030303030303040707070C0C0C0C24
S11307700C0C0C0C0202020206060606060606060D
S11307800B0B0B0B0B0B0B0B0000200023002600A4
S113079029002C002F003200000100000301060193
S11307A0090100002200250028002B002E00310042
S11307B0340002010000050108010B0100002100C2
S11307C0240027002A002D0030003300010100001E
S11307D0040107010A01E01384204824562BEB2B63
S11307E0C22011241FBECFEFD1E2DEBFCDBF00E097
S11307F00CBF1CE0A0E0B2E0EEEEFBE600E00BBFB5
S113080002C007900D92AA38B107D9F72FE0AAE8E1
S1130810BCE001C01D92AB3CB207E1F713E0C0EFAE
S1130820D3E000E006C021970109802FFE010E9459
S11308308933CB3ED10780E00807A9F70E94192C21
S11308400C94E635DDCB80E090E0089508952F9276
S11308503F924F925F926F927F928F929F92AF924C
S1130860BF92CF92DF92EF92FF920F931F93CF9399
S1130870DF9300D0CDB7DEB74C017B836A836A0176
S1130880590117019801241B350B37FF03C031951B
S113089021953109C5014A815B81841B950B97FF22
S11308A003C091958195910951E05983821793076B
S11308B014F019820BC09A2D8B2D5801092F182F73
S11308C09A818B81DB82CA82C92ED82E8A819B8130
S11308D0A816B9065CF49C2D8D2D6801092F182FDC
S11308E09A818B81BB82AA82A92EB82E2501AA8166
S11308F0BB814A1A5B0A38016C187D0877FE03C075
S1130900719461947108720157FE03C0BFEFEB1A32
S1130910FB0AF594E794C016D1061CF00FEF1FEF05
S11309201FC001E010E01CC0D401ED91FC91B9811D
S11309300484F585E02D9101BB23C1F04A815B81DC
S1130940B601C4011995E618F708F7FE04C0C00EF5
S1130950D11EE40CF51CEA81FB813196FB83EA830A
S11309604A815B81A416B506FCF604C0A6016A811F
S11309707B81E7CF0F900F900F90DF91CF911F9164
S11309800F91FF90EF90DF90CF90BF90AF909F902A
S11309908F907F906F905F904F903F902F9008952D
S11309A00895DC01ED91FC910084F185E02D19940A
S11309B00F931F93DC01ED91FC91048CF58DE02DD8
S11309C019951F910F9108950F931F93DC01ED91D9
S11309D0FC91068CF78DE02D19951F910F910895C8
S11309E0EF92FF920F931F93DC01ED91FC9100A015
S11309F0F1A1E02D19951F910F91FF90EF900895AB
S1130A000895AF92BF92CF92DF92EF92FF920F932D
S1130A101F93CF93DF9300D01F92CDB7DEB75C0155
S1130A206901DC01ED91FC910284F385E02D4B8397
S1130A305C8369837A831995D501ED91FC914B818F
S1130A405C81C40ED51EB1E0CB1AD1080488F589A7
S1130A50E02D7801860169817A819B01C501199590
S1130A60D501ED91FC910688F789E02DC5010F9021
S1130A700F900F900F90DF91CF911F910F91FF90E6
S1130A80EF90DF90CF90BF90AF901994AF92BF9248
S1130A90CF92DF92EF92FF920F931F93CF93DF9346
S1130AA000D01F92CDB7DEB75C016901DC01ED9186
S1130AB0FC910284F385E02D4B835C8369837A8304
S1130AC01995D501ED91FC9169817A819B012C0DD9
S1130AD03D1D215031090488F589E02D78014B81B1
S1130AE05C818A01C5011995D501ED91FC910688B7
S1130AF0F789E02DC5010F900F900F900F90DF91B3
S1130B00CF911F910F91FF90EF90DF90CF90BF9006
S1130B10AF9019944F925F926F927F928F929F92AF
S1130B20AF92BF92CF92DF92EF92FF920F931F93F7
S1130B30CF93DF931F921F92CDB7DEB76C015A019A
S1130B4039014801DC01ED91FC910284F385E02D2B
S1130B5069837A8319956981462E7A81572E640CAC
S1130B60751CD601ED91FC91461457046CF4008871
S1130B70F189E02D87019401A501B201C6011995FF
S1130B80BFEF4B1A5B0AEDCF0688F789E02DC6014B
S1130B900F900F90DF91CF911F910F91FF90EF90E5
S1130BA0DF90CF90BF90AF909F908F907F906F9089
S1130BB05F904F901994EF92FF920F931F93DC0173
S1130BC0ED91FC9111971A960D911C911B97189613
S1130BD02D913C91199700A0F1A1E02D7B0140E0FB
S1130BE050E060E070E019951F910F91FF90EF9035
S1130BF00895CF92DF92EF92FF920F931F93CF93BA
S1130C00DF9300D000D0CDB7DEB76C01DC01ED91ED
S1130C10FC916217730789F4041715072CF4942FB9
S1130C20852FA801092F182F041B150B98012F5F7E
S1130C303F4F048CF58DE02D12C04017510709F584
S1130C40261737072CF4962F872FB901292F382F11
S1130C50261B370B2F5F3F4F068CF78DE02D870146
S1130C60C601199526960FB6F894DEBF0FBECDBF08
S1130C70DF91CF911F910F91FF90EF90DF90CF9074
S1130C8008950284F385E02D2D833E834B835C839A
S1130C9069837A831995D601ED91FC910488F589CD
S1130CA0E02D2D813E814B815C8169817A81C60171
S1130CB01995D601ED91FC910688F789E02DC601BE
S1130CC026960FB6F894DEBF0FBECDBFDF91CF914D
S1130CD01F910F91FF90EF90DF90CF9019946F9236
S1130CE07F928F929F92AF92BF92CF92DF92EF92B8
S1130CF0FF920F931F93CF93DF93EC014B015A01A3
S1130D0069013801E881F9810284F385E02D1995A0
S1130D10E881F9810288F389E02D87019601A50114
S1130D20B401CE011995E881F981A501460D571D3D
S1130D30415051090288F389E02D9601B401CE0196
S1130D401995E881F9810088F189E02D9301A501C5
S1130D50B401CE011995E881F981C80CD91CB601FA
S1130D60615071090088F189E02D9301A501CE013C
S1130D701995E881F9810688F789E02DCE01DF9184
S1130D80CF911F910F91FF90EF90DF90CF90BF9084
S1130D90AF909F908F907F906F9019940895FC016D
S1130DA06370658B8481958126813781613039F048
S1130DB0633029F0918780873387228708953187AC
S1130DC02087938782870895FC01138212828BE522
S1130DD096E0918380837583648357834683718708
S1130DE0608753874287158A158614861786168668
S1130DF081E0848B2FEF3FEF338B228B318B208B61
S1130E00868B178A118E108E08952F923F924F92DF
S1130E105F926F927F928F929F92AF92BF92CF9286
S1130E20DF92EF92FF920F931F93CF93DF93CDB78F
S1130E30DEB76C970FB6F894DEBF0FBECDBF9C8FA4
S1130E408B8F5B011A011F830E833701C982DC017A
S1130E5058964D915C9159974115510509F0E5C09B
S1130E6018968D919C911997681779070CF0CAC14F
S1130E701A968D919C911B97281639060CF0C2C1C5
S1130E808C2C912CFB0136E0C39EE00DF11D112446
S1130E90FB87EA871E161F060CF0B4C1C40133E0B9
S1130EA0880F991F3A95E1F79D878C87820D931DD2
S1130EB0181619060CF0A6C157968C91811103C01F
S1130EC0203B08F02F5FAB8DBC8DED91FC91119709
S1130ED00284F385E02DCD012A8F19952A8DB5E082
S1130EE02B9F90011124F5013596FF87EE8725018C
S1130EF0BB82AA82A9014A195B09598B488BC1019B
S1130F0008969B8B8A8BE889F989E40DF51DEA54D0
S1130F10FE4F949198873D822C826101A885A0FFA1
S1130F2013C0AB8DBC8DED91FC91B981B13031F41E
S1130F300484F585E02D2E813F8116C00684F78553
S1130F40E02DEE80FF801AC0EE81FF816E167F06D1
S1130F50F1F0AB8DBC8DED91FC91B981B13051F4C0
S1130F600484F585E02D9301A601B2018B8D9C8D3F
S1130F7019950DC00684F785E02D73018401940151
S1130F804C815D816A817B818B8D9C8D1995E8856F
S1130F90E695E8872C813D81280D391D3D832C83FE
S1130FA03FEFC31AD30A4A895B89C416D50609F0F0
S1130FB0B5CF8A819B81880D991D9B838A839FEF7E
S1130FC0491A590AAE85BF854A165B0609F09BCFBC
S1130FD0EE81FF816E167F0609F4F2C0EB8DFC8D65
S1130FE0A081B181F981F13079F4B5016B5F7F4F54
S1130FF05096ED91FC915197830128E030E0A101D6
S11310008B8D9C8D1995DCC06A857B85681979095F
S11310101E96ED91FC911F9773010C851D8594011B
S1131020A1018B8D9C8D1995CBC0FA0134969491B6
S1131030329765917491291BCB01B7E02B9F800DEA
S1131040911D1124FA01259134913B8B2A8BFC01CB
S1131050459154915B834A83FC013296C490319646
S113106054915C87329614913196D4908981823060
S113107058F0612E012E000C7708AD2D0D2C000CBC
S1131080BB0BB987A88704C019861886612C712CFC
S1131090AB8DBC8DED91FC9111970284F385E02D0D
S11310A0CD011995B9818B2E912C689CC001699C46
S11310B0900D789C900D1124FC01EA0DFB1DF98B19
S11310C0E88B1C82712C612CE12F110FFF0B950111
S11310D02E0F3F1F3B872A87AC0CB11CA5014E0F76
S11310E05F1F5F8B4E8BC1018D0D911DD7FC9A95AF
S11310F0998F888F4C85641608F062C0862D90E025
S113110048855985480F591F489D9001499D300DC8
S1131110589D300D1124D901A20DB31DBF87AE8790
S1131120AA84BB8448885988DC80BA85DB1AE88D98
S1131130F98DE80FF91FFD8BEC8B8D2D8A0D2E890F
S11311403F89A216B306B9F1877061F48A819B8145
S11311500196EA89FB89AA81BB81EA0FFB1F74907F
S11311609B838A8377FE20C0AB8DBC8DED91FC916F
S1131170B981B13061F40484F585E02D2E813F817D
S11311804C895D89B5018B8D9C8D19950DC00684A4
S1131190F785E02DEE80FF80840194014E855F8504
S11311A0B2018B8D9C8D1995770C480C591CEFEF6F
S11311B0AE1ABE0AC2CF3C813C0D3C8363949ACFE5
S11311C0AB8DBC8DED91FC9111970688F789E02DCC
S11311D0CD016C960FB6F894DEBF0FBECDBFDF9184
S11311E0CF911F910F91FF90EF90DF90CF90BF9020
S11311F0AF909F908F907F906F905F904F903F90B3
S11312002F9019946C960FB6F894DEBF0FBECDBF25
S1131210DF91CF911F910F91FF90EF90DF90CF90CE
S1131220BF90AF909F908F907F906F905F904F9002
S11312303F902F900895AF92BF92CF92EF92FF927A
S11312400F931F93CF93DF93EC01262F888D998DF5
S1131250009709F03FC06A3059F41D861C862C891A
S11312608E859F8538E0239F800D911D112440C0F9
S11312706D3009F4A8C08E898823C1F03C898C851F
S11312809D8546E0349F800D911D11244885598524
S1131290481759075CF41D861C868E859F8548E097
S11312A0349F800D911D11249F878E87EA88FB88C7
S11312B0088919894E855F856C857D85CC88CE012A
S11312C0A4DD2C898C859D8536E0239F800D911D9E
S11312D0112442C06A3079F41D861C862C89FC01D5
S11312E03696E4918E859F852E9F800D911D112445
S11312F09F878E8768C06D3009F465C0FC01349601
S11313003491631708F45FC03196E491E61708F44A
S11313105AC0FC013296A590B490462F50E0431B6E
S1131320510937E0349FB001359F700D1124A60E8A
S1131330B71EF501329634913196E491332311F0BE
S1131340E1110DC0F5013496E4912C898C859D85BD
S1131350E29F800D911D11249D878C8734C0F50177
S1131360359644915E89552311F16C89E32FF0E0A1
S1131370E40FF11D47FDFA956E9FD0016F9FB00DEC
S113138011244C855D854A0F5B1FE885F985E417B8
S1131390F5076CF41D861C86FC013696E4918E8557
S11313A09F856E9F800D911D11249F878E87EA88EB
S11313B0FB88088919894E855F856C857D85CC8875
S11313C0CE0123DDBFCF81E090E0DF91CF911F916B
S11313D00F91FF90EF90CF90BF90AF900895FC01D4
S11313E075876487578746870895611101C061E056
S11313F0FC01648B0895FC01738B628B718B608B91
S11314000895FC0185890895FC01808591850895DE
S1131410FC018285938508950F931F93CF93DF93E7
S1131420DC01FB0155968C915597823089F083300D
S113143021F1813009F0E6C014968D919C911597A5
S1131440BC01641B750BAB0141505109BF011DC0A8
S113145014966D917C911597CB018E1B9F0BFC010B
S113146016968D919C911797BC01641B750BAB016B
S113147041505109E21BF30BC5C016966D917C9146
S113148017976E1B7F0B621B730B57FD1AC11496C3
S11314908D919C911597481759070CF012C177FF4D
S11314A004C0260F371F60E070E016968D919C9162
S11314B01797FB01E20FF31F8E179F071CF49C0183
S11314C0261B370B121613060CF0FBC0A22F862F17
S11314D086958695869590E8899F400D511D112427
S11314E0FA01EA5EFD4F6770A9F198E0961B492F57
S11314F050E0EA01C25FDD4F8881291790F4421B56
S113150051092FEF30E002C0359527954A95E2F74F
S113151082230130110541F068F00230110589F091
S1131520D0C00130110519F42081822B0CC0013088
S1131530110520F480952081822305C00230110515
S113154031F4208182278083A91708F4BAC0A91B2B
S1131550E058FF4FA83048F10230110559F4EF016B
S11315608A2F988190959883C058DF4F885088308F
S1131570C0F732C081E00130110509F080E08195A7
S1131580EF019A2F8883C058DF4F98509830D0F7D6
S113159088EF8A0F86958695869560E8869FE00D8C
S11315A0F11D1124E058FF4FA770AA2309F489C044
S11315B0B0E0AA5FBD4F8C910130110529F038F0DD
S11315C002301105E1F07DC09081892B03C0809524
S11315D090818923808375C088EF8A0F86958695CC
S11315E0869570E8879FE00DF11D1124E058FF4FA8
S11315F0A77009F466C0B0E0AA5FBD4F8C919081DA
S11316008927E8CF57FD5DC016968D919C91179759
S1131610481759070CF055C0F7FF04C02E0F3F1FA1
S1131620E0E0F0E014968D919C911597BF01620F54
S1131630731F861797071CF49C012E1B3F0B121671
S113164013060CF03EC0CA0157FD079663E095955A
S113165087956A95E1F79695982F882797958795AA
S1131660E80FF91FEA5EFD4F4770552781E090E0CF
S113167001C0880F4A95EAF7482F0130110539F067
S113168078F002301105E9F42E0F3F1F13C02E0F1E
S11316903F1FE217F307A9F08081842B8193F9CFD0
S11316A080952E0F3F1FE217F30759F0908198237E
S11316B09193F9CFE217F30721F080818427819376
S11316C0F9CFDF91CF911F910F9108950F931F933D
S11316D0CF93DF93DC0155968C915597823071F04E
S11316E0833009F1813009F08CC01496ED91FC919E
S11316F01597E41BF50BE21BF30B20C01496ED9138
S1131700FC911597CF01861B970BBC0161507109A1
S11317101696ED91FC911797CF01841B950BAC01A4
S1131720421B530B6EC01696ED91FC911797CF0197
S1131730861B970BBC0161507109FA0177FD1BC12F
S113174016968D919C911797681779070CF013C121
S1131750F7FF04C02E0F3F1FE0E0F0E014968D91D8
S11317609C911597AF01420F531F841795071CF4E2
S11317709C012E1B3F0B121613060CF0FCC0CB0170
S113178077FD079643E0959587954A95E1F79695F9
S1131790982F882797958795E80FF91FEA5EFD4FE4
S11317A06770772781E090E001C0880F6A95EAF7B7
S11317B0482F0130110541F088F00230110509F07D
S11317C0DAC02E0F3F1F15C02E0F3F1FE217F3077D
S11317D009F4D1C08081842B8193F8CF80952E0F9A
S11317E03F1FE217F30709F4C6C090819823919331
S11317F0F8CFE217F30709F4BEC0808184278193F0
S1131800F8CF77FDB8C014968D919C911597681701
S113181079070CF0B0C057FF04C0240F351F40E017
S113182050E016968D919C911797FA01E20FF31FE1
S11318308E179F071CF49C01241B350B12161306EC
S11318400CF099C0A22F842F86958695869590E8F2
S1131850899F600D711D1124FB01EA5EFD4F4770E5
S1131860A9F198E0941B492F50E0EA01C25FDD4FD3
S11318708881291790F4421B51092FEF30E002C0F0
S1131880359527954A95E2F782230130110541F0F9
S113189068F00230110589F06EC00130110519F4A9
S11318A02081822B0CC00130110520F48095208109
S11318B0822305C00230110531F420818227808300
S11318C0A91708F458C0A91BE058FF4FA83048F1E5
S11318D00230110559F4EF018A2F9881909598836D
S11318E0C058DF4F88508830C0F730C081E00130E5
S11318F0110509F080E08195EF019A2F8883C05883
S1131900DF4F98509830D0F788EF8A0F86958695E8
S1131910869590E8899FE00DF11D1124E058FF4F52
S1131920A770AA2341F1B0E0AA5FBD4F8C910130AA
S1131930110529F038F002301105D1F01CC0908156
S1131940892B18C080959081892314C088EF8A0F51
S113195086958695869590E8899FE00DF11D112462
S1131960E058FF4FA77039F0B0E0AA5FBD4F8C91EB
S1131970908189278083DF91CF911F910F910895E2
S1131980CF92DF92EF92FF920F931F93CF93DF9347
S11319907C018B01EA01690177FD9DC035DD0817E3
S11319A019070CF098C0D7FD96C0C70131DDC817E0
S11319B0D9070CF090C0C70124DD823009F07FC044
S11319C0F70164817581CB01801B910B8C0101505F
S11319D0110946815781FA01EC1BFD0BEF01219798
S11319E00BC0813049F4F701848195818C1B9D0BD8
S11319F0E8018C0101501109F1E0CF16D10431F056
S1131A0010F182E0C816D104E1F165C0FE01D7FDF2
S1131A10379643E0F595E7954A95E1F7F695FE2F5D
S1131A20EE27F795E7950E0F1F1FF801EA5EFD4FAD
S1131A30C770DD2781E090E001C0880FCA95EAF7FE
S1131A409081892B3AC0FE01D7FD379623E0F595A6
S1131A50E7952A95E1F7F695FE2FEE27F795E7959A
S1131A600E0F1F1FF801EA5EFD4FC770DD2781E0EE
S1131A7090E001C0880FCA95EAF780959081892388
S1131A801CC0FE01D7FD379683E0F595E7958A954E
S1131A90E1F7F695FE2FEE27F795E7950E0F1F1F3A
S1131AA0F801EA5EFD4FC770DD2781E090E001C0D8
S1131AB0880FCA95EAF79081892780830CC0833008
S1131AC009F08FCFF70186819781801B910B8E01DE
S1131AD0EC01219791CFDF91CF911F910F91FF904E
S1131AE0EF90DF90CF9008951F93CF93DF93EC0195
S1131AF0162F40E450E060E870E066D987E896E08D
S1131B00998388838FEF8C8F88A38E8F8D8F1F8FFF
S1131B10DF91CF911F91089580E094E0E6E1F2E037
S1131B20DF019C011D9221503040E1F70895FC0132
S1131B3081A1882339F06EBD00000DB407FEFDCFEE
S1131B408EB5089528E030E090E8A4A1B5A14C91A9
S1131B5083A5809584238C93A2A1B3A182A5492F48
S1131B60462319F04C91842B03C04C918095842317
S1131B708C93A4A1B5A14C9183A5842B8C939695A9
S1131B802150310911F708951F93CF93DF93EC018E
S1131B90162F8C8D8F3F01F1EEA1FFA190818CA5B2
S1131BA0892B8083E8A5F9A590818DA5809589234B
S1131BB08083EEA1FFA190818CA5809589238083E9
S1131BC0CE01B5DFEEA1FFA190818CA5892B808386
S1131BD0DF91CF911F9108958A8D682F880F770B1D
S1131BE082E39EE00E94D12360E082E39EE00E94B3
S1131BF08023612F82E39EE00E94802382E39EE0A3
S1131C00DF91CF911F910C9446240F931F93CF9390
S1131C10DF93EC01162F022F6B8F4A8F8C8D8F3F31
S1131C2009F48CC061E08E8D0E94883161E088A146
S1131C300E94883188A1082E000C990BFC01EE5BF0
S1131C40F84FE491F0E0EE0FFF1FEE55F84F2591A9
S1131C5034913FA32EA3FC01E450F94FE491ECA787
S1131C608E8D082E000C990BFC01EE5BF84FE4916D
S1131C70F0E0EE0FFF1FEE55F84F2591349139A790
S1131C8028A7FC01E450F94FE491EDA789A1811143
S1131C9034C061E08C8D0E94883161E08D8D0E949A
S1131CA088318D8D082E000C990BFC01EE5BF84FEA
S1131CB0E491F0E0EE0FFF1FEE55F84F25913491BB
S1131CC03DA32CA3FC01E450F94FE491EBA78C8DC8
S1131CD0082E000C990BFC01EE5BF84FE491F0E048
S1131CE0EE0FFF1FEE55F84F259134913BA32AA325
S1131CF0FC01E450F94FE491EAA789A1882311F18A
S1131D000E94CD208091C20D882399F02FB7F894BA
S1131D108091C20D813059F48DB38093C00D9DB371
S1131D208091C10D809589238DBB2FBF02C0209364
S1131D30C00D80E58CBD81E08DBD04C082E39EE0D2
S1131D400E94BE230023F1F08F8D87FD1BC061E04C
S1131D500E94883161E08F8D0E94C43161E070E09F
S1131D6080E090E00E948D3060E08F8D0E94C4314D
S1131D706AE070E080E090E00E948D3061E08F8D39
S1131D800E94C4316EEACE01FFDE65EDCE01FCDEB9
S1131D9060E8CE01F9DE68EACE01F6DE6FE3CE013B
S1131DA0F3DE63EDCE01F0DE60E0CE01EDDE60E453
S1131DB0CE01EADE6DE8CE01E7DE113011F460E118
S1131DC001C064E1CE01E0DE60E2CE01DDDE60E070
S1131DD0CE01DADE61EACE01D7DE68ECCE01D4DED4
S1131DE06AEDCE01D1DE62E1CE01CEDE61E8CE0144
S1131DF0CBDE113011F46FE901C06FECCE01C4DE0B
S1131E0069EDCE01C1DE113011F462E201C061EF6F
S1131E10CE01BADE6BEDCE01B7DE60E4CE01B4DEF6
S1131E2064EACE01B1DE66EACE01AEDE6EE2CE0138
S1131E30ABDE6FEACE01DF91CF911F910F91A4CE5B
S1131E40DF92EF92FF920F931F93CF93DF93EC01F6
S1131E5061E29ADE60E0CE0197DE6FE7CE0194DEA8
S1131E6062E2CE0191DE60E0CE018EDE67E0CE015B
S1131E708BDE8C8D8F3F29F1EEA1FFA190818CA583
S1131E80892B8083E8A5F9A590818DA5892B808372
S1131E90EEA1FFA190818CA580958923808306E122
S1131EA012E0F80161918F01CE0141DEF6E00631C6
S1131EB01F07B9F7EEA1FFA190818CA5892B808320
S1131EC031C0D090B8008CE08093B80006E112E0F5
S1131ED06A8D062E000C770B82E39EE00E94D123CC
S1131EE060E482E39EE00E948023E12CF12CF8015F
S1131EF0EE0DFF1D608182E39EE00E9480238FEF40
S1131F00E81AF80AE0E1EE16F10489F782E39EE0AC
S1131F100E944624005F1F4FF6E006311F07C1F6FA
S1131F20D092B800DF91CF911F910F91FF90EF9065
S1131F30DF900895CF93DF93FC0188E0DF01C82F81
S1131F401D92CA95E9F7DF011896ED0119928A9559
S1131F50E9F7148E158E168E178E10A280E090E08D
S1131F60A0E8BFE3808B918BA28BB38B848B958B82
S1131F70A68BB78B808F918FA28FB38FDF91CF9178
S1131F800895CF93DF93EA0170E082E39EE00E941C
S1131F90D1236FEA76E082E39EE00E94732C4AE04C
S1131FA050E0BE0182E39EE00E942D2D82E39EE07C
S1131FB0DF91CF910C944624CF92DF92EF92FF925F
S1131FC00F931F93CF93DF93EC016A017901AB0167
S1131FD061E0D7DFA60162E0CE01D3DFA70163E0B1
S1131FE0CE01CFDFA80164E0CE01DF91CF911F9134
S1131FF00F91FF90EF90DF90CF90C3CF4F925F92FD
S11320006F927F92AF92BF92CF92DF92EF92FF9244
S11320100F931F93CF93DF9300D01F92CDB7DEB7FA
S113202029013A01E982FA820B831C8370E082E37E
S11320309EE00E94D12362EB76E082E39EE00E9460
S1132040732C22E030E0B301A20182E39EE00E94FF
S1132050352E66EB76E082E39EE00E94732C22E04C
S113206030E049815A816B817C8182E39EE00E9449
S1132070352E6AEB76E082E39EE00E94732C22E028
S113208030E0B601A50182E39EE00E94352E82E392
S11320909EE00E947B2C82E39EE00F900F900F90B5
S11320A00F90DF91CF911F910F91FF90EF90DF90F0
S11320B0CF90BF90AF907F906F905F904F900C94B3
S11320C04624AF92BF92CF92DF92EF92FF920F938A
S11320D01F93CF93DF93EC01A88CB98CCA8CDB8C53
S11320E0EC88FD880E891F89288939894A895B898A
S11320F061E084DFA88CB98CCA8CDB8CEC88FD8809
S11321000E891F89288939894A895B8962E0CE0151
S113211075DFA88CB98CCA8CDB8CEC88FD880E89A1
S11321201F89288939894A895B8963E0CE0166DF82
S1132130A88CB98CCA8CDB8CEC88FD880E891F892D
S1132140288939894A895B8964E0CE0157DFDF91A8
S1132150CF911F910F91FF90EF90DF90CF90BF90A0
S1132160AF900895CF93DF931F92CDB7DEB782E38C
S11321709EE069830E94BE23698170E041E050E0E3
S113218082E39EE00E94442482E39EE00E94252391
S1132190892B39F082E39EE00F90DF91CF910C946C
S11321A02D230F90DF91CF910895AF92BF92CF92DC
S11321B0DF92EF92FF920F931F93CF93DF93EC0183
S11321C082E39EE00E94BE236EEB76E084E89EE00C
S11321D00E947E2C86E0A82EB12CC88CD98CEA8C67
S11321E0FB8C0C891D892E893F89488959896A8904
S11321F07B89CE0166DF61EC76E084E89EE00E9494
S11322007E2C61E0CE01AEDF6C0162E0CE01AADF7C
S11322107C0163E0CE01A6DF8C0164E0CE01A2DF85
S11322209C0181E0C816D10469F482E0E816F10447
S113223049F40330110531F42430310519F481E0F7
S11322408C8F04C01C8ECA94CD2811F481E08D8F2C
S113225082E0E816F10411F481E08E8F0330110559
S113226011F481E08F8F2430310511F481E088A3CB
S113227081E0A81AB10809F0B0CF65EC76E084E8F3
S11322809EE0DF91CF911F910F91FF90EF90DF902F
S1132290CF90BF90AF900C947E2C089526E081E2FD
S11322A09FE00E94892A69EC76E081E29FE00C9429
S11322B07E2C4F925F926F927F928F929F92AF92F9
S11322C0BF92CF92DF92EF92FF920F931F932A0156
S11322D03B01480159016FEA76E081E29FE00E94E8
S11322E0732C4AE050E060E070E081E29FE00E94DD
S11322F0272D65ED76E081E29FE00E94732C4AE091
S113230050E060E070E081E29FE00E94272D68EDDC
S113231076E081E29FE00E94732C22E030E0B3017A
S1132320A20181E29FE00E94352E6BED76E081E20E
S11323309FE00E94732C22E030E0B501A40181E209
S11323409FE00E94352E66E07CE081E29FE00E94DF
S1132350732C22E030E0B701A60181E29FE01F91D7
S11323600F91FF90EF90DF90CF90BF90AF909F9030
S11323708F907F906F905F904F900C94362E25E055
S113238030E0FC0131832083128208954F925F92E2
S11323906F927F928F929F92AF92BF92CF92DF9271
S11323A0EF92FF920F931F93CF93DF93EC012A01D7
S11323B03B01480159016FEF76E084E89EE00E94FA
S11323C0732C6BE077E084E89EE00E94732C22E09B
S11323D030E0B301A20184E89EE00E94352E6EE055
S11323E077E084E89EE00E94732C22E030E0B5019F
S11323F0A40184E89EE00E94352E68E177E084E839
S11324009EE00E94732C22E030E0B701A60184E82C
S11324109EE00E94352E61E177E084E89EE00E9410
S11324207E2C6881798182E39EE00E94D12366E15B
S113243077E082E39EE00E94732C6BE077E082E316
S11324409EE00E94732C22E030E0B301A20182E3FB
S11324509EE00E94352E6EE077E082E39EE00E94CB
S1132460732C22E030E0B501A40182E39EE00E94D7
S1132470352E68E177E082E39EE00E94732C22E02F
S113248030E0B701A60182E39EE00E94352E6BE1A5
S113249077E082E39EE00E947E2C82E39EE0DF915F
S11324A0CF911F910F91FF90EF90DF90CF90BF904D
S11324B0AF909F908F907F906F905F904F900C940F
S11324C04624FC0111821082138212821582148226
S11324D02AE030E03783268380E490E09187808788
S11324E0338722871586148622E130E037872687D2
S11324F0918B808B338B228B158A148A2CE130E0EC
S1132500378B268B918F808F338F228F158E148E6D
S113251024E230E0378F268F11A210A22EE230E0A1
S113252033A322A395A384A337A326A311A610A69D
S113253086E390E093A782A7089521E04CE362E04C
S11325408AE89CE062DB8AE89CE07ADC68EE73E06F
S113255080E090E00E948D308AE89CE0DDCA2F92F2
S11325603F924F925F926F927F928F929F92AF921F
S1132570BF92CF92DF92EF92FF920F931F93CF936C
S1132580DF93CDB7DEB728970FB6F894DEBF0FBE42
S1132590CDBF3C017A8369832A0119018E8D9F8DF9
S11325A0A8A1B9A18B839C83AD83BE83AAA1BBA13F
S11325B0B887AF8361E08AE89CE00E94F50961E096
S11325C070E08AE89CE00E94FB0940E050E060E093
S11325D070E08AE89CE00E94EF098AE89CE09CDABB
S11325E063E377E08AE89CE00E94732C0E945C30ED
S11325F0AB01BC012AE030E08AE89CE00E94422D55
S1132600F30146815781648175818AE89CE00E94C8
S1132610EF0969E377E08AE89CE00E94732C4AE0C2
S113262050E069817A818AE89CE00E94272DD301D9
S11326301A964D915C911B9718966D917C91199700
S11326408AE89CE00E94EF096DE377E08AE89CE069
S11326500E94732C4AE050E0B1018AE89CE00E9499
S1132660272DF30146855785648575858AE89CE0A6
S11326700E94EF0961E477E08AE89CE00E94732CF1
S11326804AE050E0B2018AE89CE00E94272DD30181
S113269052964D915C91539750966D917C915197C0
S11326A08AE89CE00E94EF0965E477E08AE89CE010
S11326B00E94732C4AE050E0B8018AE89CE00E9432
S11326C0272DF30146895789648975898AE89CE036
S11326D00E94EF0969E477E08AE89CE00E94732C89
S11326E022E030E0B701A6018AE89CE00E94352E82
S11326F0D3015A964D915C915B9758966D917C915C
S113270059978AE89CE00E94EF096FE477E08AE831
S11327109CE00E94732C22E030E0B501A4018AE819
S11327209CE00E94352EF301468D578D648D758D86
S11327308AE89CE00E94EF0965E577E08AE89CE07E
S11327400E94732C22E030E04B815C816D817E819C
S11327508AE89CE00E94352ED30156964D915C91F7
S1132760579790966D917C9191978AE89CE00E948E
S1132770EF096BE577E08AE89CE00E94732C6F8197
S113278078858AE89CE00E94652C8AE89CE028967B
S11327900FB6F894DEBF0FBECDBFDF91CF911F916E
S11327A00F91FF90EF90DF90CF90BF90AF909F90EC
S11327B08F907F906F905F904F903F902F9040CB81
S11327C064E08AE89CE090C94F925F926F927F9296
S11327D0AF92BF92CF92DF92EF92FF920F931F932B
S11327E0CF93DF93EC015B01CA01B9012AA33BA398
S11327F04CA35DA32BED3FE049E450E40E94B627CF
S11328006C877D878E879F87B9A2A8A2EEA2FFA2BC
S113281008A719A7B601DD0C880B990B0E946D2639
S11328209B01AC0160E070E080E090E40E94192814
S113283020E030E040E85FE30E9466256AA77BA7BA
S11328408CA79DA7DF91CF911F910F91FF90EF90DF
S1132850DF90CF90BF90AF907F906F905F904F903C
S113286008952F923F924F925F926F927F928F9230
S11328709F92AF92BF92CF92DF92EF92FF920F930B
S11328801F93CF93DF93CDB7DEB760970FB6F8945D
S1132890DEBF0FBECDBF1C01CB01BA0148015901F7
S11328A020E030E040E752E40E94B62769877A8747
S11328B08B879C87D1016D937D938D939C93139704
S11328C020E030E040E752E4C501B4010E94B6279D
S11328D02B013C01F101648375838683978320E097
S11328E030E040E752E4C701B6010E94B627D101A7
S11328F018966D937D938D939C931B9796962D912B
S11329003D914D915C9199970E94B6276D877E8782
S11329108F87988BF101608B718B828B938B84846E
S11329209584A684B784A501940169857A858B85ED
S11329309C850E94D2256B017C01D10154966D9334
S11329407D938D939C935797A5019401C301B20184
S11329500E94D2252B013C01F101608F718F828F7F
S1132960938FA50194016D857E858F8598890E943A
S1132970D2254B015C01D1015C966D937D938D93BF
S11329809C935F97A3019201C701B6010E9466253B
S113299069877A878B879C87A3019201C701B60157
S11329A00E9467256B017C01A501940169857A85E4
S11329B08B859C850E9466250E943A26662E7A8322
S11329C06983A5019401C701B6010E9466250E948E
S11329D03A26762E7C836B83A5019401C701B60148
S11329E00E9467250E943A26F62E7E836D83A501F8
S11329F0940169857A858B859C850E9467250E9450
S1132A003A26862F262F372F38872F83262D3A8173
S1132A10472D5C816F2D7E81988560960FB6F89462
S1132A20DEBF0FBECDBFDF91CF911F910F91FF90FD
S1132A30EF90DF90CF90BF90AF909F908F907F905A
S1132A406F905F904F903F902F900895CF92DF92B8
S1132A50EF92FF92CF93DF93EC01072E000C880BCB
S1132A60990B0E946D266B017C0148A159A1BA0102
S1132A70550F880B990B0E946D269B01AC01C70171
S1132A80B6010E94D2252AA53BA54CA55DA50E94AE
S1132A90B6270E943A26CB01DF91CF91FF90EF90A9
S1132AA0DF90CF9008952F923F924F925F926F9252
S1132AB07F928F929F92AF92BF92CF92DF92EF92CA
S1132AC0FF920F931F93CF93DF93CDB7DEB7669733
S1132AD00FB6F894DEBF0FBECDBF1C014A015B01E7
S1132AE0098B1A8B2B8B3C8B26013701BADE298785
S1132AF03A874B875C876D877E878F87988BCB84DB
S1132B00DC840D851E85EF84F88869857A85C1018A
S1132B109DDF382F292FB601C1012E8B3D8B96DF07
S1132B206C01B801C10192DF8C01B701C1018EDFD4
S1132B303D89432F2E89522F57FF03C0519541954C
S1132B4051094F3F510509F0F4F49601D7FE03C033
S1132B503195219531092F3F310509F0A4F49801ED
S1132B6017FF03C03195219531092F3F310509F035
S1132B7054F49C0197FF03C03195219531092F3FEF
S1132B80310559F054F020E030E040E85EE3C5013F
S1132B90B4010E94B6274B015C01730162010989EB
S1132BA01A892B893C89B501A401C1015ADE298700
S1132BB03A874B875C876D877E878F87988B0B85D9
S1132BC01C858D849E84AF84B88869857A85C1010B
S1132BD03DDFF82EC92EB801C10138DF082FD92EE8
S1132BE0B401C10133DF182FE92EB501C1012EDF75
S1132BF02F2D3C2D402F5D2D612F7E2D66960FB617
S1132C00F894DEBF0FBECDBFDF91CF911F910F911E
S1132C10FF90EF90DF90CF90BF90AF909F908F90F8
S1132C207F906F905F904F903F902F900895FC019C
S1132C3082E0808383E0818384E0828385E08383F0
S1132C401582148281E090E0978386831186108632
S1132C50938782870895FC01118210821282138265
S1132C6014821582168217821086118612868FE7C7
S1132C7090E09487838796878587908B8787928B4C
S1132C80818B6CE77CE0CF0143960C94C132CF92E8
S1132C90EF920F93CF93DF93EC0126E040E052ECE8
S1132CA061E070E084E89EE00E94892A6CE271E0B1
S1132CB080E090E00E948D30C12CE12C0DE02AE0F0
S1132CC04BE06CE088EB9CE049D4282F30E039835A
S1132CD028832115310569F560E677E084E89EE0F4
S1132CE00E94732C69E877E084E89EE00E94732CCC
S1132CF066E977E084E89EE00E947E2C6CE977E048
S1132D0084E89EE00E94732C66E977E084E89EE004
S1132D100E947E2C66EA77E084E89EE00E947E2C86
S1132D206AEF77E084E89EE00E947E2C63E378E01B
S1132D3011C02130310519F463E778E00BC022306B
S1132D40310519F469EE78E005C02330310531F41A
S1132D5069E679E084E89EE00E947E2C88EB9CE0A2
S1132D60FFD18A83813059F038F0823059F08330B2
S1132D70A1F467EE79E008C06BEA79E005C065EF7D
S1132D8079E002C06AEC79E084E89EE0DF91CF91BB
S1132D900F91EF90CF900C94732CDF91CF910F9102
S1132DA0EF90CF900895CF93DF93FC0122812230DE
S1132DB009F471C1EC01438160E088EB9CE0CDD261
S1132DC068E070E088EB9CE0BAD1882361F061E1AF
S1132DD07AE084E89EE00E947E2C61E17AE0CE01F4
S1132DE043960E94F23261E070E088EB9CE0A7D148
S1132DF0882361F065E27AE084E89EE00E947E2CFC
S1132E0065E27AE0CE0143960E94F23260E170E01E
S1132E1088EB9CE094D18823C9F06AE37AE084E8E3
S1132E209EE00E94732C6BE088EB9CE094D14AE016
S1132E3050E0682F84E89EE00E944E2D81E08C8350
S1132E406EE47AE0CE0143960E94F23260E270E0D2
S1132E5088EB9CE074D18823C9F06FE57AE084E8BC
S1132E609EE00E94732C69E088EB9CE074D14AE0F8
S1132E7050E0682F84E89EE00E944E2D81E08F830D
S1132E8066E77AE0CE0143960E94F23260E870E091
S1132E9088EB9CE054D18823C9F06AE87AE084E89E
S1132EA09EE00E94732C6AE088EB9CE054D14AE0D7
S1132EB050E0682F84E89EE00E944E2D81E08E83CE
S1132EC060EA7AE0CE0143960E94F23260E470E058
S1132ED088EB9CE034D18823C9F063EB7AE084E882
S1132EE09EE00E94732C6CE088EB9CE034D14AE0B5
S1132EF050E0682F84E89EE00E944E2D81E08D838F
S1132F0069EC7AE0CE0143960E94F2326FE088EBDE
S1132F109CE021D18B8388EB9CE0C0D0882309F40A
S1132F205FC062E070E088EB9CE009D1882361F027
S1132F306CED7AE084E89EE00E947E2C67EE7AE0F5
S1132F40CE0143960E94F23264E070E088EB9CE08C
S1132F50F6D0882361F068EF7AE084E89EE00E946E
S1132F607E2C63E07BE0CE0143960E94F23260E067
S1132F7071E088EB9CE0E3D0882361F064E17BE0BE
S1132F8084E89EE00E947E2C6FE17BE0CE014396B4
S1132F900E94F23260E072E088EB9CE0D0D088239B
S1132FA061F060E37BE084E89EE00E947E2C6BE3AA
S1132FB07BE0CE0143960E94F23260E070E188EB40
S1132FC09CE0BDD0882361F06CE47BE084E89EE063
S1132FD00E947E2C6DE57BE0CE0143960E94F23286
S1132FE060E070E288EB9CE072D0882371F064E7C3
S1132FF07BE084E89EE00E947E2C81E0898768E87B
S11330007BE0CE0143960E94F23260E070E488EBEC
S11330109CE04FD0882371F06DE97BE084E89EE06A
S11330200E947E2C81E08A876CEA7BE0CE01439685
S11330300E94F23260E070E888EB9CE064D0882360
S113304071F06CEB7BE084E89EE00E947E2C81E0D2
S1133050898761ED7BE0CE0143960E94F23268E0FD
S113306088EB9CE078D090E09C878B8767E088EBC6
S11330709CE071D090E09E878D8766E088EB9CE0B1
S11330806AD090E0988B8F8765E088EB9CE063D0F2
S113309090E09A8B898BDF91CF910895FC0181E0B8
S11330A046895789208D318D4217530709F480E0F2
S11330B00895FC01208D318D868997898227932775
S11330C06823792381E0672B09F480E00895DC010B
S11330D05896ED91FC915997AF0140955095462330
S11330E0572391E0452B09F490E056962D913C919D
S11330F057972E273F276223732381E0672B09F418
S113310080E089230895DC015696ED91FC91579750
S1133110AF01409550954623572391E0452B09F480
S113312090E058962D913C9159972E273F27622382
S1133130732381E0672B09F480E089230895FC015F
S1133140808D918D809590956823792381E0672BFC
S113315009F480E00895860F911DFC018081089593
S1133160FC0183A5833031F0813031F08C3031F0B3
S113317080E0089581E0089582E0089583E0089551
S1133180DC019FB7F8945B96ED91FC915C972081EC
S11331905A968C91822B80839FBF0895DC019FB740
S11331A0F8945E96ED91FC915F9720815D968C91E9
S11331B0822B80839FBF08958F929F92AF92BF927C
S11331C0CF92DF92EF92FF920F931F93CF93DF93EF
S11331D0EC0100E010E0F12CC62ED12C812C912CB6
S11331E054018394E02EC601002E02C09595879564
S11331F00A94E2F780FF03C0CE01D0DF0AC02FB7E4
S1133200F894EE8DFF8D90818D8D80958923808338
S11332102FBF2FB7F894EB8DFC8D90818A8D80950C
S1133220892380832FBF84E090E00E94C630ECA104
S1133230FDA190818BA1892351F0D501C40104C063
S1133240880F991FAA1FBB1FEA94D2F7F82ACE0150
S113325097DF0F5F1F4F0830110509F0C3CFCE0170
S11332609DDF83E090E00E94C6308F2DDF91CF91E7
S11332701F910F91FF90EF90DF90CF90BF90AF9090
S11332809F908F900895DC019FB7F8949196ED91EB
S1133290FC919297208190968C91822B80839FBF82
S11332A00895DC012FB7F8949196ED91FC919297D3
S11332B0908190968C918095892380832FBF089567
S11332C0CF92DF92EF92FF920F931F93CF93DF93EE
S11332D0EC016B01042FE5DF760110E0C7018C19C6
S11332E09D098017910734F4F70161917F01CE01A4
S11332F063DFF4CFCE01C7DF6AA570E080E090E021
S1133300DF91CF911F910F91FF90EF90DF90CF90BD
S11333100C948D30CF93DF93EC0145E066E376E0C7
S1133320CFDF49E06DE276E0CE01CADF8CA58823C9
S113333029F045E066E176E0CE01C2DF8DA5882361
S113334029F049E064E276E0CE01BADF49E06BE1BE
S113335076E0CE01DF91CF91B3CF2F923F924F927F
S11333605F926F927F928F929F92AF92BF92CF9211
S1133370DF92EF92FF920F931F93CF93DF93CDB71A
S1133380DEB729970FB6F894DEBF0FBECDBF4C0150
S1133390762E142F0E945C30F401C6A0D7A0E0A4BE
S11333A0F1A46C197D098E099F090E946B266B019B
S11333B07C0120E030E84BEB54E40E94B22718165D
S11333C014F4C401A7DFF40162A570E080E090E08A
S11333D00E946D261B012C019B01AC01C701B601A3
S11333E00E94CB2587FF0AC0A7019601C201B10143
S11333F00E9466250E943F260E948D301123E1F031
S1133400612F70E080E090E01F921F921F922FEFD7
S11334102F9320E4A22EB12CC12CD12CE12CF12C21
S11334208701EA9420E030E0A9010E941B32162FA4
S11334300F900F900F900F90CE0101967C0189E0C0
S1133440F70111928A95E9F781E0898382E48A83FE
S11334507C821D8385E0382E8E01065F1F4F640138
S1133460F9E0CF0ED11C540185E1A80EB11CC401B2
S113347095DEC40185DEC40114DF83E090E00E9480
S1133480C63027013401F20161912F01C40194DE99
S1133490F30181933F0140165106A9F7F40181819C
S11334A0893741F0C401EFDEF4018181807F8037E8
S11334B061F417C0360160E0C4017EDEF30181933C
S11334C03F01EA15FB05B9F7EDCFC40123DFF40191
S11334D062A570E080E090E00E948D303A94311053
S11334E0C6CFF4018181807F803731F0F40182A559
S11334F08A3010F48F5F82A7F401808D918D978BB1
S1133500868B83819481918F808F0E945C30F4013B
S113351066A377A380A791A79181907F81E09037DC
S113352009F080E029960FB6F894DEBF0FBECDBF38
S1133530DF91CF911F910F91FF90EF90DF90CF908B
S1133540BF90AF909F908F907F906F905F904F90BF
S11335503F902F90089540E060E0FFCE6F927F92FD
S11335608F929F92AF92BF92CF92EF92FF920F935E
S11335701F93CF93DF93CDB7DEB72B970FB6F89495
S1133580DEBF0FBECDBF5C01862F70E0FB01E450AF
S1133590F94FE491D5015A96EC935A97FB01EE5BEF
S11335A0F84FE491F0E0EE0FFF1FEE55F84F6591F0
S11335B07491F501748F638F642F70E0FB01E45004
S11335C0F94FE4915D96EC935D97FB01EE5BF84F48
S11335D0E491F0E0EE0FFF1FEE55F84F6591749102
S11335E0F501778F668F622F70E0FB01E450F94F8D
S11335F0E4919096EC93FB01EE5BF84FE491F0E0DC
S1133600EE0FFF1FEE55F84F65917491F50172A30B
S113361061A3A02FB0E0FD01E450F94F9491F501AE
S113362093A3FD01EE5BF84FE491F0E0EE0FFF1F72
S1133630E857F84F65917491D50195967C936E93F4
S1133640949761E02A874B870E94883161E02A853C
S1133650822F0E94883161E04B85842F0E9488313B
S113366060E0802F0E94883161E0802F0E94C43185
S1133670C50194DDC50184DDC5016DDFC5016BDFC6
S1133680F5018181813429F0833719F0893709F0F4
S113369065C081E0D5019A968C938BE0882E912C9D
S11336A0FF24F39445E066E376E0C50109DE83E098
S11336B090E00E94C630C50171DDC50161DDC50120
S11336C0F0DD83E090E00E94C63006EE1BE0CE0100
S11336D001963C01F80161918F01C5016DDDD301B3
S11336E08D933D01BBE00F3E1B07A1F7C501CBDD68
S11336F08C81F50183A749E06DE276E0C501E0DD48
S1133700CC2041F045E066E176E0C501D9DDD50184
S11337109C96FC92EE2039F049E064E276E0C50123
S1133720CFDDF501F5A649E06BE176E0C501C8DD22
S1133730C50111DFD50111968C91EE2021F0893756
S113374089F0833769F0833769F0B1E08B1A910807
S113375059F0F50182A58F5F82A7A4CF81E005C04F
S113376083E003C080E001C082E02B960FB6F8949A
S1133770DEBF0FBECDBFDF91CF911F910F91FF90A0
S1133780EF90CF90BF90AF909F908F907F906F906D
S113379008954F925F926F927F928F929F92AF9211
S11337A0BF92CF92DF92EF92FF92CF93DF93CDB788
S11337B0DEB7A0970FB6F894DEBF0FBECDBF609101
S11337C0B00D7091B10D8091B20D9091B30D0E9426
S11337D06D2620E030E040E85BE30E94B6272BED45
S11337E03FE049E450E40E94B62720E030E048E19D
S11337F052E40E94B62769877A878B879C876091F9
S1133800AC0D7091AD0D8091AE0D9091AF0D0E94F5
S11338106D2620E030E040E05BE30E94B6272BED0C
S11338203FE049E450E40E94B62720E030E048E15C
S113383052E40E94B62769837A838B839C836091C8
S1133840A80D7091A90D8091AA0D9091AB0D0E94C5
S11338506D2620E030E040E05BE30E94B6272BEDCC
S11338603FE049E450E40E94B62720E030E048E11C
S113387052E40E94B6276D837E838F8398879B01D1
S1133880AC0169817A818B819C810E94662520E04C
S113389030E040E05FE30E94B6274B015C012D81DC
S11338A03E814F81588569817A818B819C810E94F8
S11338B0672520E030E046EE52E40E94D2256B01F9
S11338C07C0120E030E040E752E40E94B6272985DD
S11338D03A854B855C850E9467252B013C012BEDC5
S11338E03FE049E450E4C701B6010E94B22787FDD6
S11338F016C02BED3FE049E450E4C701B6010E9435
S113390067252BED3FE049EC50E40E94AF262BEDF8
S11339103FE049E450E40E9466256B017C012BEDF5
S11339203FE049E450ECC701B6010E94CB251816CC
S1133930B4F02BED3FE049E450E4C701B6010E9426
S113394066252BED3FE049EC50E40E94AF262BEDB9
S11339503FE049E450E40E9467256B017C0120911B
S1133960A40D3091A50D4091A60D5091A70DC30152
S1133970B2010E946625698F7A8F8B8F9C8F40924B
S1133980A40D5092A50D6092A60D7092A70D2091E2
S1133990A00D3091A10D4091A20D5091A30DC50130
S11339A0B4010E9466252B013C018092A00D9092E7
S11339B0A10DA092A20DB092A30D20919C0D309167
S11339C09D0D40919E0D50919F0DC701B6010E941F
S11339D06625C0929C0DD0929D0DE0929E0DF092B2
S11339E09F0D20E030E040E05FE30E94B6279B019A
S11339F0AC016BED7FE089EC9FE30E9466254B01EF
S1133A005C010E94CF259B01AC01C301B2010E945D
S1133A10B6276D8B7E8B8F8B988FC501B4010E9466
S1133A2065289B01AC01C301B2010E94B6274B017A
S1133A305C01C701B6010E94CF256D877E878F8701
S1133A40988BC701B6010E946528698B7A8B8B8B92
S1133A509C8B2D853E854F8558896D897E898F89FC
S1133A60988D0E94B6276D8F7E8F8F8F98A329899A
S1133A703A894B895C89C501B4010E94B6279B0130
S1133A80AC016D8D7E8D8F8D98A10E9467259B0161
S1133A90AC016091BC0D7091BD0D8091BE0D9091F3
S1133AA0BF0D0E9466256093BC0D7093BD0D80937D
S1133AB0BE0D9093BF0D2D853E854F855889C50158
S1133AC0B4010E94B6274B015C0129893A894B89CC
S1133AD05C896D897E898F89988D0E94B6279B01A8
S1133AE0AC01C501B401F2D79B01AC016091B80DE2
S1133AF07091B90D8091BA0D9091BB0DE8D7609388
S1133B00B80D7093B90D8093BA0D9093BB0D2BED46
S1133B103FE049E450E4C701B6010E94D22520E009
S1133B2030E044E353E40E94B6276093B40D7093ED
S1133B30B50D8093B60D9093B70D6FEE7BE084E8DE
S1133B409EE00E94732C4091B00D5091B10D609194
S1133B50B20D7091B30D2AE030E084E89EE00E943B
S1133B60E02C67EF7BE084E89EE00E94732C409198
S1133B70AC0D5091AD0D6091AE0D7091AF0D2AE07A
S1133B8030E084E89EE00E94E02C60E07CE084E881
S1133B909EE00E94732C4091A80D5091A90D609154
S1133BA0AA0D7091AB0D2AE030E084E89EE00E94FB
S1133BB0E02C69E477E084E89EE00E94732C22E024
S1133BC030E049855A856B857C8584E89EE00E94B7
S1133BD0352E6FE477E084E89EE00E94732C22E0A7
S1133BE030E049815A816B817C8184E89EE00E94A7
S1133BF0352E65E577E084E89EE00E94732C22E090
S1133C0030E04D815E816F81788584E89EE00E947A
S1133C10352E69E07CE084E89EE00E94732C22E06B
S1133C2030E0498D5A8D6B8D7C8D84E89EE00E9436
S1133C30352E60E17CE084E89EE00E94732C22E053
S1133C4030E0B301A20184E89EE00E94352E67E1D2
S1133C507CE084E89EE00E94732C22E030E0B7010F
S1133C60A60184E89EE00E94352E6EE17CE084E8A3
S1133C709EE00E94732C4091BC0D5091BD0D60914B
S1133C80BE0D7091BF0D22E030E084E89EE00E94FA
S1133C90352E66E27CE084E89EE00E94732C40911D
S1133CA0B80D5091B90D6091BA0D7091BB0D22E021
S1133CB030E084E89EE00E94352E6EE27CE084E8E9
S1133CC09EE00E94732C4091B40D5091B50D60910B
S1133CD0B60D7091B70D22E030E084E89EE0A09626
S1133CE00FB6F894DEBF0FBECDBFDF91CF91FF902A
S1133CF0EF90DF90CF90BF90AF909F908F907F9088
S1133D006F905F904F900C94362E84E00E94F331B4
S1133D104091B00D5091B10D6091B20D7091B30D01
S1133D20019729F44F5F5F4F6F4F7F4F04C041509D
S1133D305109610971094093B00D5093B10D60931D
S1133D40B20D7093B30D089585E00E94F331409154
S1133D50AC0D5091AD0D6091AE0D7091AF0D01970A
S1133D6029F4415051096109710904C04F5F5F4F43
S1133D706F4F7F4F4093AC0D5093AD0D6093AE0DDC
S1133D807093AF0D089586E00E94F3314091A80D21
S1133D905091A90D6091AA0D7091AB0D019729F472
S1133DA0415051096109710904C04F5F5F4F6F4F62
S1133DB07F4F4093A80D5093A90D6093AA0D709363
S1133DC0AB0D089562E083E10E94883162E082E0F5
S1133DD00E94883162E083E00E94883162E084E0DE
S1133DE00E94883162E085E00E94883162E086E0CA
S1133DF00E94883142E050E065E87EE184E00E9460
S1133E00472E42E050E064EA7EE180E00E94472EC3
S1133E1042E050E063EC7EE181E00C94472ECF93C6
S1133E20DF9300D000D0CDB7DEB726E040E052ECFF
S1133E3061E070E084E89EE00E94892A40E052EC50
S1133E4061E070E08FE69DE00E944E1180E79DE006
S1133E500E949D128CEE9CE00E94D510B3DF66E3B5
S1133E607CE0CE0101960E94C13242E350E0BE01E3
S1133E706F5F7F4F8EE39DE088D5CE0101960E944F
S1133E805A3269EC7BE18EE39DE0EED58AE49DE055
S1133E900E94471626960FB6F894DEBF0FBECDBF1C
S1133EA0DF91CF9108952F923F924F925F926F923C
S1133EB07F928F929F92AF92BF92CF92DF92EF92B6
S1133EC0FF920F931F93CF93DF93CDB7DEB7629723
S1133ED00FB6F894DEBF0FBECDBF8AE49DE00E940A
S1133EE0D3168091540D882329F1C090B40DD0903D
S1133EF0B50DE090B60DF090B70D0091B80D10918E
S1133F00B90D2091BA0D3091BB0D4091BC0D50916B
S1133F10BD0D6091BE0D7091BF0D8BE39DE00E94BD
S1133F20C6116AE37CE086EE9CE00E94F2321092B5
S1133F30540D06C064E47CE086EE9CE00E94F232FC
S1133F406091590D70915A0D072E000C880B990B36
S1133F5077247A947F927F922CEF2F9328E12F93EA
S1133F6028EEA22E23E0B22EC12CD12CE12CF12C70
S1133F708701EA9420E030E0A9010E941B321B0172
S1133F802C016091570D7091580D072E000C880B71
S1133F90990B7F927F9223EF2F932CEB2F9344E482
S1133FA0A42E4CE0B42EC12CD12C20E030E0A90189
S1133FB00E941B3292D620E030E84BEB54E4F2D559
S1133FC06B017C01C201B10188D620E030E04AE7F0
S1133FD054E4E8D5AB01BC0100E010E098018DE0A9
S1133FE09DE00E94531529833A834B835C836D8340
S1133FF07E838F83988789819A819A8B898B8B8121
S11340009C81988B8F872D803E804F8058848201BD
S11340109101AC0169897A898CEE9CE00E94DC0FE5
S1134020C090B40DD090B50DE090B60DF090B70DE2
S11340300091B80D1091B90D2091BA0D3091BB0DBE
S11340404091BC0D5091BD0D6091BE0D7091BF0D9E
S11340508FE69DE00E9459113E0199E0690E711CA2
S11340606DE57DE0C3010E94EA328090B80D909026
S1134070B90DA090BA0DB090BB0DC090BC0DD090FE
S1134080BD0DE090BE0DF090BF0D7F926F928091B8
S1134090B70D8F938091B60D8F938091B50D8F934B
S11340A08091B40D8F93820191014F85588969895C
S11340B07A8980E79DE00E94AF12C3010E945A32C0
S11340C06CE77CE08DE59DE00E94F2320FB6F89437
S11340D0DEBF0FBECDBF62960FB6F894DEBF0FBE33
S11340E0CDBFDF91CF911F910F91FF90EF90DF90A3
S11340F0CF90BF90AF909F908F907F906F905F9084
S11341004F903F902F900895CF92DF92EF92FF92BD
S11341100F931F9380E79DE00E9461128FE69DE05C
S11341200E944D1183E69DE00E9417168AE49DE0EB
S11341300E942B168EE39DE013D48BE39DE00E9436
S1134140BF1188E0C82ED12CE12CF12C00E01FE334
S113415026E933E44BE85DE36CE271E08DE09DE039
S11341600E94E4138CEE9CE00E949A0F60E57CE0D0
S113417086EE9CE01F910F91FF90EF90DF90CF901F
S11341800C94C13286EE9CE00E945A328EE39DE08C
S113419070D48DE59DE00C945A32CF93CFB7F89448
S11341A08091C30D811127C0E7E7F7E08491E1E333
S11341B0F7E09491E82FF0E0EE0FFF1FE454F84F7E
S11341C0A591B491EC91E92321F461E085E30E9487
S11341D0C43161E085E30E9488318CB580618CBD77
S11341E08CB580648CBD61E084E30E94883161E019
S11341F083E30E9488318091C30D8F5F8093C30D48
S1134200CFBFCF9108951092310E81E080932F0E8D
S113421010922E0E61E084E10E94C43161E085E1D8
S11342200E94C431E9EBF0E080818E7F808380813D
S11342308D7F808388E48093B80085E48093BC00FC
S11342400895413208F043C09091310E9111FCCF92
S113425091E09093310E20932F0E2FEF2093C40DF5
S11342601092090E240F2093080E9093300E909113
S1134270300E880F892B8093300E80912E0E813062
S113428061F410922E0E8091300E8093BB008091C9
S1134290BC0083FDF8CF85EC01C085EE8093BC00A3
S11342A08091310E8130E1F38091090E841710F46E
S11342B04091090E2AE03EE0FB01D9018A2F821BBE
S11342C0841718F48D918193F9CF842F089580E099
S11342D008950F93413208F04AC09091310E911124
S11342E0FCCF32E03093310E00932F0E3FEF30932A
S11342F0C40D1092090E4093080EFB016AE07EE0A3
S1134300DB013A2F361B341718F431913D93F9CF62
S11343101092300E3091300E880F832B8093300E24
S113432080912E0E813061F410922E0E8091300E09
S11343308093BB008091BC0083FDF8CF85EC01C065
S113434085EE8093BC00222321F08091310E8230CF
S1134350D1F38091C40D8F3F79F08091C40D8032E8
S113436041F08091C40D803331F094E005C091E0B8
S113437003C092E001C093E0892F0F91089540910A
S1134380E60D262F30E0240F311D21323105DCF4F7
S11343902091310E2430C9F4FC0180E090E08617AE
S11343A058F43091E60D2191DC01A851B24FA30FCE
S11343B0B11D2C930196F3CF8091E60D680F6093A5
S11343C0E60D80E0089581E0089582E0089585ED8A
S11343D08093BC008091BC0084FDFCCF1092310E10
S11343E0089585EC8093BC001092310E08951F92BD
S11343F00F920FB60F9211240BB60F922F933F9387
S11344004F935F936F937F938F939F93AF93BF93D8
S1134410EF93FF938091B900887F803609F49DC0A3
S113442070F5883209F45CC090F4803109F455C009
S113443038F4882309F4F3C0883009F44EC0F2C07C
S1134440883109F44DC0803209F45EC0EBC0803479
S113445009F469C050F4803309F456C0883309F074
S1134460E1C08093C40DBDDFDDC0803509F44FC0C9
S1134470883509F45DC0883409F0D4C0D2C08839C5
S113448009F4C3C0A8F4883709F467C038F488363F
S113449009F463C0803709F460C0C4C0883809F4E3
S11344A0B4C0803909F45FC0803809F0BBC05BC078
S11344B0803B09F482C038F4803A09F466C0883A33
S11344C009F47BC0AFC0803C09F4A3C0883C09F464
S11344D0A0C0883B09F486C0A5C08091300E10C0EE
S11344E09091090E8091080E981770F5E091090ECD
S11344F081E08E0F8093090EF0E0E65FF14F80813A
S11345008093BB0085EC82C08093C40D8AC0E09187
S1134510090E81E08E0F8093090E8091BB00F0E0BC
S1134520E65FF14F80839091090E8091080E6AC076
S1134530E091090E81E08E0F8093090E8091BB00FB
S1134540F0E0E65FF14F808380912F0E811169C006
S113455081E080932E0E84EA5DC083E08093310E67
S11345601092C50DCFCF8091C50D803208F04DC09B
S1134570E091C50D81E08E0F8093C50D8091BB0045
S1134580F0E0EA53F24F8083BDCF2BDF8091C50D5D
S1134590803230F4E091C50DF0E0EA53F24F10821E
S11345A06091C50D70E0E0912A0EF0912B0E86EC1F
S11345B09DE019951092C50D35C084E08093310EAD
S11345C01092E70D1092E60DE0912C0EF0912D0E55
S11345D019958091E60D811105C081E08093E60D67
S11345E01092E80DE091E70D81E08E0F8093E70DC6
S11345F0F0E0E851F24F80818093BB009091E70D89
S11346008091E60D981708F47DCF85E88093BC006F
S113461009C085EC8093BC001092310E03C0109247
S1134620C40DD5DEFF91EF91BF91AF919F918F9112
S11346307F916F915F914F913F912F910F900BBE9E
S11346400F900FBE0F901F9018958091620E90E00E
S11346502091630E821B910908959091630E8091BD
S1134660620E981750F4E92FF0E0EC59F14F2081D5
S113467030E09F5F9093630E02C02FEF3FEFC901BC
S11346800895E091630E8091620EE81730F4F0E033
S1134690EC59F14F808190E008958FEF9FEF0895DA
S11346A00895CF92DF92EF92FF920F931F93CF93CF
S11346B0DF937C01262F972F8A0180913E0E882359
S11346C091F0C62FD72F6E01C40ED51ECC15DD0573
S11346D069F06991D701ED91FC910190F081E02D91
S11346E0C7011995F3CF642F822F49DEC801DF91EA
S11346F0CF911F910F91FF90EF90DF90CF9008958D
S1134700CF93DF931F92CDB7DEB7698320913E0E1E
S11347102223D1F020913F0E203240F021E030E0FE
S1134720FC013383228380E090E014C08091400E2A
S1134730E82FF0E0EF5BF14F998190838F5F8093D6
S1134740400E80933F0E04C061E0CE01019617DE57
S113475081E090E00F90DF91CF910895FC011382E6
S1134760128288EE93E0A0E0B0E084839583A68370
S1134770B7838AE59CE09183808308951092630E49
S11347801092620E1092400E10923F0E3CCD81E0CA
S113479080933E0E6093610E1092400E10923F0E75
S11347A00895F5CF0F93062F21E040913F0E61E469
S11347B07EE08091610E8DDD1092400E10923F0ECE
S11347C010923E0E0F9108954F925F926F927F92D6
S11347D0AF92BF92CF92EF92FF920F931F93CF931A
S11347E0DF935C01F62ED42F28013901EE2011F15C
S11347F0CEDFCE2DC43008F0C3E0C150C0F0D501E7
S1134800ED91FC91B8E0CB9FC0011124A30192016A
S113481004C056954795379527958A95D2F7CA01CE
S1134820B9010190F081E02DC5011995E6CF60E052
S1134830C501B8DF4D2FD13208F040E22C2D64E6DB
S11348407EE08F2DFEDC1092630E8093620EDF916A
S1134850CF911F910F91FF90EF90CF90BF90AF90A9
S11348607F906F905F904F900895CF92EF920F9347
S11348701F93C22EE12C00E010E09801A5DF1F91E8
S11348800F91EF90CF90089521E0EFCF61E08ACFB0
S113489082E39EE063CF08954F925F926F927F927E
S11348A0AF92BF92CF92DF92EF92FF920F931F933A
S11348B0CF93DF93CDB7DEB72A970FB6F894DEBF58
S11348C00FBECDBF7C015B018AE0EDE4F6E0DE01C2
S11348D0119601900D928A95E1F7CE0101966C0133
S11348E000E010E030E8432E3EE3532E612C712C9F
S11348F0F601619171916F01CB01770FAA0BBB0B8C
S113490077276627A30192010E946D33A216B3068E
S11349102CF00F5F1F4F0530110551F7F701318758
S11349202087000F111FE1E0F0E0EC0FFD1FE00F06
S1134930F11F808191812A960FB6F894DEBF0FBED5
S1134940CDBFDF91CF911F910F91FF90EF90DF903A
S1134950CF90BF90AF907F906F905F904F900895ED
S1134960CF93DF93EC016CE77CE00E94C13281E0DD
S113497090E09F838E83198618861B861A868FB7CC
S113498080688FBFDF91CF910895EF92FF920F93CC
S11349901F93CF93DF93EC017B018A010E94D532F0
S11349A0B801CE0179DF9F838E83C7010E9425332E
S11349B066E37CE0C7010E940733882309F44DC0F5
S11349C0109280001092810088E0809381008E8193
S11349D09F81019729F480918100816080938100F7
S11349E08E819F81089729F4809181008260809351
S11349F081008E819F818034910529F4809181000A
S1134A008360809381008E819F818115914029F478
S1134A10809181008460809381008E819F818115C3
S1134A20944029F48091810085608093810020E87E
S1134A303EE3D8010E94A0332E813F81032E000C57
S1134A40440B550B0E946D333B872A8730938900B2
S1134A502093880082E080936F00DF91CF911F91B3
S1134A600F91FF90EF90089570933C0660933B067E
S1134A7008950C945A321F920F920FB60F9211247C
S1134A800BB60F922F933F934F935F936F937F9344
S1134A908F939F93AF93BF93EF93FF93E0913B0664
S1134AA0F0913C061995FF91EF91BF91AF919F91C1
S1134AB08F917F916F915F914F913F912F910F90C3
S1134AC00BBE0F900FBE0F901F9018955058BB2728
S1134AD0AA270ED0FCC1C5D130F0CAD120F031F4E0
S1134AE09F3F11F41EF4BAC10EF4E095E7FBA2C196
S1134AF0E92F0FD280F3BA1762077307840795076B
S1134B0018F071F49EF527C20EF4E0950B2EBA2F1F
S1134B10A02D0B01B90190010C01CA01A0011124BF
S1134B20FF27591B99F0593F50F4503E68F11A166B
S1134B30F040A22F232F342F4427585FF3CF4695FC
S1134B4037952795A795F0405395C9F77EF41F161E
S1134B50BA0B620B730B840BBAF09150A1F0FF0FE8
S1134B60BB1F661F771F881FC2F70EC0BA0F621FD4
S1134B70731F841F48F4879577956795B795F795C4
S1134B809E3F08F0B3CF9395880F08F09927EE0F56
S1134B909795879508952AD108F481E0089570D1F6
S1134BA0E395A6C10CD093C163D140F05AD130F043
S1134BB021F45F3F19F03EC15111CEC14FC1A9D1BB
S1134BC098F39923C9F35523B1F3951B550BBB27D0
S1134BD0AA2762177307840738F09F5F5F4F220F7D
S1134BE0331F441FAA1FA9F333D00E2E3AF0E0E876
S1134BF030D091505040E695001CCAF729D0FE2FC2
S1134C0027D0660F771F881FBB1F26173707480753
S1134C10AB07B0E809F0BB0B802DBF01FF27935809
S1134C205F4F2AF09E3F510568F004C195C15F3F74
S1134C30ECF3983EDCF3869577956795B795F795F1
S1134C409F5FC9F7880F911D9695879597F90895E9
S1134C50E1E0660F771F881FBB1F62177307840785
S1134C60BA0720F0621B730B840BBA0BEE1F88F794
S1134C70E095089504D06894B1116EC1089551D19E
S1134C8088F09F5790F0B92F9927B751A0F0D1F031
S1134C90660F771F881F991F1AF0BA95C9F712C0BB
S1134CA0B13081F058D1B1E0089555C1672F782F04
S1134CB08827B85F39F0B93FCCF386957795679527
S1134CC0B395D9F73EF490958095709561957F4F93
S1134CD08F4F9F4F0895E89409C097FB3EF4909539
S1134CE08095709561957F4F8F4F9F4F9923A9F0C1
S1134CF0F92F96E9BB279395F69587957795679550
S1134D00B795F111F8CFFAF4BB0F11F460FF1BC093
S1134D106F5F7F4F8F4F9F4F16C0882311F096E926
S1134D2011C0772321F09EE8872F762F05C06623D4
S1134D3071F096E8862F70E060E02AF09A95660F8D
S1134D40771F881FDAF7880F9695879597F9089546
S1134D5088D018F011F08CD038F480C0FDC0E92F51
S1134D60D8D0B0F35523C9F3E7FB62177307840760
S1134D709507A8F199F3E92FFF2788232AF03197A3
S1134D80660F771F881FDAF7952F5527442332F0D3
S1134D9091505040220F331F441FD2F7BB27E91B09
S1134DA0F50B621B730B840BB109C1F222F4620F81
S1134DB0731F841FB11D31972AF0660F771F881F58
S1134DC0BB1FEFCF915050405AF041F0882332F08E
S1134DD0660F771F881F91505040C1F7939530C0DC
S1134DE08695779567959F5FD9F7F8CF990F000857
S1134DF0550FAA0BE0E8FEEF16161706E807F907A9
S1134E00C0F012161306E407F50798F0621B730B43
S1134E10840B950B39F40A2661F0232B242B252BC4
S1134E2021F408950A2609F4A140A6958FEF811D67
S1134E30811D089597F99F6780E870E060E0089508
S1134E409F3F31F0915020F4879577956795B795FA
S1134E50880F911D9695879597F908959FEF80EC9B
S1134E60089500240A9416161706180609060895CC
S1134E7000240A9412161306140605060895EECFAC
S1134E8050D0E8F3E894E0E0BB279F57F0F02AED18
S1134E903FE049EC06C0EE0FBB0F661F771F881F6B
S1134EA028F0B23A62077307840728F0B25A620BFB
S1134EB0730B840BE3959A9572F7803830F49A95C6
S1134EC0BB0F661F771F881FD2F79048BBCF092EF0
S1134ED00394000C11F4882352F0BB0F40F4BF2B51
S1134EE011F460FF04C06F5F7F4F8F4F9F4F089591
S1134EF0EF93E0FF06C0A2EA2AED3FE049EC5FEB46
S1134F00F7DDE5DF0F90039401FC9058E4EEF0E048
S1134F1038C157FD9058440F551F59F05F3F71F049
S1134F204795880F97FB991F61F09F3F79F087950C
S1134F300895121613061406551FF2CF4695F1DF95
S1134F4008C0161617061806991FF1CF8695710525
S1134F50610508940895E894BB2766277727CB0159
S1134F6097F9089543DF08F48FEF08950BD0AFCF7E
S1134F7078DF28F07DDF18F0952309F05BCF6ECF42
S1134F801124EACFC6DFA0F3959FD1F3950F50E02B
S1134F90551F629FF001729FBB27F00DB11D639FE7
S1134FA0AA27F00DB11DAA1F649F6627B00DA11D8D
S1134FB0661F829F2227B00DA11D621F739FB00D33
S1134FC0A11D621F839FA00D611D221F749F3327A3
S1134FD0A00D611D231F849F600D211D822F762F3C
S1134FE06A2F11249F5750408AF0E1F088234AF039
S1134FF0EE0FFF1FBB1F661F771F881F9150504085
S1135000A9F79E3F510570F015CFA6CF5F3FECF393
S1135010983EDCF3869577956795B795F795E79570
S11350209F5FC1F7FE2B880F911D9695879597F981
S11350300895FA01EE0FFF1F30962105310599F10D
S11350406115710561F48038BFE39B0749F16894E9
S11350509038810561F08038BFEF9B0741F09923B8
S113506042F5FF3FE1053105210511F1E89408946B
S1135070E795D901AA2329F4AB2FBE2FF85FD0F30B
S113508010C0FF5F70F4A695E0F7F73950F019F0FF
S1135090FF3A38F49F779F930CD00F9007FC9058F9
S11350A008953EF0DBCE60E070E080E89FE3089571
S11350B04FE79F775F934F933F932F93B5D02F91F3
S11350C03F914F915F9152DF0BC09F93D9DE0F90B8
S11350D007FCEE5F0DCF19F40EF0ACCE3CCFBECE84
S11350E020DFC8F39638C0F707F80F92E8942BE353
S11350F03AEA48EB5FE748DF0F920F920F924DB701
S11351005EB70F92D1D0E2E0F1E016D04F915F91FB
S1135110EF91FF91E595EE1FFF1F49F0FE57E06800
S11351204427EE0F441FFA95E1F74195550B43D000
S11351300F9007FE37C00895DF93CF931F930F930B
S1135140FF92EF92DF927B018C01689405C0DA2E06
S1135150EF0118DFFE01E894A59125913591459161
S11351605591AEF3EF01C4DCFE019701A801DA9476
S113517079F7DF90EF90FF900F911F91CF91DF911E
S113518008959F938F937F936F93FF93EF939B0166
S1135190AC01ECDEEF91FF91CFDF2F913F914F9166
S11351A05F91E4CE9B01AC0160E070E080E89FE396
S11351B0F9CC40CE45CEB5DEE8F39923D9F3940F6C
S11351C0511DBBF39150504094F059F0882332F0B4
S11351D0660F771F881F91505040C1F79E3F5105BD
S11351E044F7880F911D9695879597F908955F3F29
S11351F0ACF0983E9CF0BB27869577956795B7955C
S113520008F4B1609395C1F7BB0F58F711F460FF30
S1135210E8CF6F5F7F4F8F4F9F4FE3CF9DCE0EF050
S11352200FCE1CCE689406CE7CDEC8F39923D1F34E
S1135230C6F3DF93CF931F930F93FF92C92FDD27FC
S113524088232AF02197660F771F881FDAF720E05A
S113525030E040E85FEB9FE3883920F0803E30F097
S113526021968F7734DCEAE2F1E003C030DCE7E535
S1135270F1E062DF8B01BE01EC01FB2E6F57710977
S11352807595771F880B990B28DD28E132E741E3F8
S11352905FE378DEAF2D9801AE01FF900F911F916F
S11352A0CF91DF9125DC13CEFA01DC01AA0FBB1FDD
S11352B09B01AC01BF5728F4222733274427507899
S11352C01FC0B75188F4AB2F002446953795279516
S11352D0011CA395D2F3002069F0220F331F441F51
S11352E0B395DAF30DD0F2CB61307105A0E88A07EB
S11352F0B94630F49B01AC0166277727882790785C
S1135300309621F0208331834283538308950E9491
S1135310C135FC01918D228D892F90E0805C9F4FD7
S1135320821B91098F7399270895FC01918D828DB9
S1135330981731F0828DE80FF11D858D90E0089566
S11353408FEF9FEF0895FC01918D828D981761F086
S1135350828DDF01A80FB11D5D968C91928D9F5FA8
S11353609F73928F90E008958FEF9FEF0895FC0153
S1135370538D448D252F30E0842F90E0821B930BB6
S1135380541710F0CF960895019708958DE49BE289
S1135390892B39F080E090E0892B19F07ED18111BE
S11353A024C080E090E0892B41F080E090E0892BDC
S11353B021F00E94000081111BC082EE9BE2892B28
S11353C039F080E090E0892B19F0FCD1811113C0F1
S11353D080E090E0892BA1F080E090E0892B81F0BF
S11353E00E94000081110AC008950E940000D9CFD4
S11353F00E940000E2CF0E940000EACF0C9400005B
S11354000895FC01848DDF01A80FB11DA35ABF4F7D
S11354102C91848D90E001968F739927848FA689AF
S1135420B7892C93A089B1898C9180648C93938DD6
S1135430848D981306C00288F389E02D80818F7DC6
S113544080830895CF93DF93EC01888D8823C1F086
S1135450EA89FB89808185FD05C0A889B9898C9179
S113546086FD0EC00FB607FCF5CF808185FFF2CF15
S1135470A889B9898C9185FFEDCFCE01C2DFE8CF31
S1135480DF91CF910895EF92FF920F931F93CF93E3
S1135490DF93EC0181E0888F9B8D8C8D981305C080
S11354A0E889F989808185FD23C0F62E0B8D10E0F3
S11354B00F5F1F4F0F731127E02E8C8DE8120BC066
S11354C00FB607FCFACFE889F989808185FFF5CF0B
S11354D0CE0197DFF2CF8B8DFE01E80FF11DE35A69
S11354E0FF4FF0820B8FEA89FB898081806207C0BD
S11354F0EE89FF896083E889F989808180648083EB
S113550081E090E0DF91CF911F910F91FF90EF9098
S11355100895CF92DF92EF92FF921F93CF93DF9380
S1135520EC016A017B01122FE889F98982E080830A
S11355304115514E61057105B1F060E079E08DE3EC
S113554090E0A70196010E944B33DA01C90101974B
S1135550A109B109B695A79597958795AC01411511
S113556080E15807A8F0E889F989108260E874E8B6
S11355708EE190E0A70196010E944B33BA01A90184
S11355804150510961097109769567955795479579
S1135590EC85FD855083EE85FF854083188EEC896C
S11355A0FD891083EA89FB89808180618083EA898F
S11355B0FB89808188608083EA89FB898081806897
S11355C08083EA89FB8980818F7D8083DF91CF91FD
S11355D01F91FF90EF90DF90CF9008951F920F924C
S11355E00FB60F9211240BB60F922F938F939F93A4
S11355F0EF93FF93E091940EF091950E8081E091EA
S11356009A0EF0919B0E82FD12C0908180919D0EA6
S11356108F5F8F7320919E0E821751F0E0919D0E43
S1135620F0E0EC57F14F958F80939D0E01C080817F
S1135630FF91EF919F918F912F910F900BBE0F903F
S11356400FBE0F901F9018951F920F920FB60F92D6
S113565011240BB60F922F933F934F935F936F9345
S11356607F938F939F93AF93BF93EF93FF9384E8BC
S11356709EE0C7DEFF91EF91BF91AF919F918F9113
S11356807F916F915F914F913F912F910F900BBE3E
S11356900F900FBE0F901F90189584E89EE039DE9E
S11356A021E0892B09F420E0822F0895E4E8FEE04C
S11356B01382128288EE93E0A0E0B0E084839583A5
S11356C0A683B7838CE69CE09183808385EC90E08D
S11356D09587848784EC90E09787868780EC90E0B8
S11356E0918B808B81EC90E0938B828B82EC90E0A9
S11356F0958B848B86EC90E0978B868B118E128E23
S1135700138E148E08951F920F920FB60F921124C8
S11357100BB60F922F938F939F93EF93FF93E09188
S1135720310FF091320F8081E091370FF091380FF3
S113573082FD12C0908180913A0F8F5F8F73209108
S11357403B0F821751F0E0913A0FF0E0EF5DF04F1C
S1135750958F80933A0F01C08081FF91EF919F91C3
S11357608F912F910F900BBE0F900FBE0F901F9033
S113577018951F920F920FB60F9211240BB60F9229
S11357802F933F934F935F936F937F938F939F9345
S1135790AF93BF93EF93FF9381E29FE032DEFF91DB
S11357A0EF91BF91AF919F918F917F916F915F9195
S11357B04F913F912F910F900BBE0F900FBE0F9002
S11357C01F90189581E29FE0A4DD21E0892B09F464
S11357D020E0822F0895E1E2FFE01382128288EE36
S11357E093E0A0E0B0E084839583A683B7838CE63E
S11357F09CE09183808385ED90E09587848784ED98
S113580090E09787868780ED90E0918B808B81ED87
S113581090E0938B828B82ED90E0958B848B86ED68
S113582090E0978B868B118E128E138E148E0895B2
S11358300895B7D4FDDF0E940F1FC6ECD9E20E9481
S1135840531F2097E1F3A2DDFACFCF92DF92EF92BC
S1135850FF920F931F93CF93DF936C017A018B0117
S1135860C0E0D0E0CE15DF0589F0D8016D918D013F
S1135870D601ED91FC910190F081E02DC6011995BE
S1135880892B11F47E0102C02196ECCFC701DF9170
S1135890CF911F910F91FF90EF90DF90CF900895DB
S11358A06115710579F0FB0101900020E9F731974A
S11358B0AF01461B570BDC01ED91FC910280F38193
S11358C0E02D199480E090E00895DC01ED91FC91C5
S11358D0DB0114964D915C9115976D917C9102803A
S11358E0F381E02D1994DCCFDC01ED91FC91019062
S11358F0F081E02D19946AE77CE0D2CF0F931F93D7
S1135900CF93DF93EC01CCDF8C01CE01F4DF800F69
S1135910911FDF91CF911F910F9108958F929F92C4
S1135920AF92BF92CF92DF92EF92FF920F931F93A9
S1135930CF93DF93CDB7DEB7A1970FB6F894DEBF50
S11359400FBECDBF7C01D42EC52EDB0119A222309F
S113595008F42AE08E010F5D1F4F822E912CA12C9A
S1135960B12C6D2D7C2DCD01A501940194D6D22EA0
S1135970C32EDA01015011096A30710581059105C0
S113598010F4605D01C0695CF8016083232B242B53
S1135990252B39F7B801C70183DFA1960FB6F89418
S11359A0DEBF0FBECDBFDF91CF911F910F91FF904E
S11359B0EF90DF90CF90BF90AF909F908F9008951D
S11359C0CF92DF92EF92FF920F931F93CF93DF93C7
S11359D0EC016A017B012115310579F4E881F98133
S11359E00190F081E02D642FDF91CF911F910F91F1
S11359F0FF90EF90DF90CF9019942A303105D9F4BD
S1135A0077FF18C06DE270DF8C0144275527BA0177
S1135A104C195D096E097F092AE0CE017FDF800FF2
S1135A20911FDF91CF911F910F91FF90EF90DF9025
S1135A30CF9008952AE0B701A601CE01DF91CF915E
S1135A401F910F91FF90EF90DF90CF9067CF9A0155
S1135A50AB01770F660B770BB3CF0F931F93CF93E5
S1135A60DF93EC019A01AB01770F660B770BA8DF8C
S1135A708C01CE0140DF800F911FDF91CF911F91E8
S1135A800F9108952115310541F4DC01ED91FC914C
S1135A900190F081E02D642F199440CF0F931F9350
S1135AA0CF93DF93EC019A01462F50E060E070E061
S1135AB0E9DF8C01CE011FDF800F911FDF91CF91B1
S1135AC01F910F9108954F925F926F927F928F92E0
S1135AD09F92AF92BF92CF92DF92EF92FF92CF93B9
S1135AE0DF93EC016A017B01B22E9A01AB01C7017D
S1135AF0B601BDD5882319F06DE77CE024C02601EA
S1135B003701E89477F82FEF3FEF4FE75FE7C301E2
S1135B10B201ADD581110CC02FEF3FEF4FE75FE726
S1135B20C301B20138D818161CF461E87CE00BC03C
S1135B302FEF3FEF4FE75FE4C701B60113DA181602
S1135B4094F465E87CE0CE01DF91CF91FF90EF9073
S1135B50DF90CF90BF90AF909F908F907F906F9089
S1135B605F904F909DCE2FEF3FEF4FE75FECC70163
S1135B70B60111D887FDE5CF20E030E0A901C701C7
S1135B80B60109D887FF09C06DE2CE01ADDE4C0134
S1135B90F7FAF094F7F8F09402C0812C912CA12C20
S1135BA060E070E080E09FE3AB1441F020E030E07F
S1135BB040E251E40E94D225A394F6CF9B01AC01AC
S1135BC0C701B6010E9467252B013C0158D86B011F
S1135BD07C0181D89B01AC01C301B2010E946625FE
S1135BE02B013C012AE0B701A601CE0197DE7C011E
S1135BF0E80CF91CBB2029F06EE2CE0175DEE80E3C
S1135C00F91EDB2CDD2009F120E030E040E251E414
S1135C10C301B201ABD92B013C0131D84B01A12CFA
S1135C20B12C2AE0B501A401CE0178DEE80EF91EFC
S1135C30C501B40150D89B01AC01C301B2010E945B
S1135C4066252B013C01DA94DDCFC701DF91CF91AA
S1135C50FF90EF90DF90CF90BF90AF909F908F9088
S1135C607F906F905F904F9008952DCF0F931F9367
S1135C70CF93DF93EC0127DF8C01CE013CDE800F54
S1135C80911FDF91CF911F910F910895089588304E
S1135C9008F06FC0A82FB0E0AA0FBB1FA35CB94FD8
S1135CA011967C936E9390E0FC013197E730F105F7
S1135CB098F58827EE53FF4F8F4F2BC580916900CD
S1135CC08C7F482B40936900E89A0895809169007D
S1135CD0440F551F440F551F837F482B4093690081
S1135CE0E99A08958091690074E0440F551F7A95EC
