S0150000736B657463685F6665623033612E737265633D
S11300000BC400000C9447430C9472430C949D431E
S11300100C94C8430C94F3430C941E440C9449442C
S11300200C9474442AC4000028C4000026C40000B0
S113003024C4000022C4000020C400001EC4000028
S11300401CC400000C94B53818C4000016C4000089
S113005014C4000012C4000010C400000C949F4497
S11300600CC400000C94C73E0C94FD3E06C4000072
S113007004C4000002C4000000C40000FEC3000069
S11300800C94A518FAC30000F8C30000F6C30000DE
S1130090F4C30000F2C30000F0C300000C94E73482
S11300A0ECC30000EAC30000E8C30000E6C300009C
S11300B0E4C30000E2C30000E0C30000DEC30000AC
S11300C0DCC30000DAC30000D8C300000C945C3F1A
S11300D00C94923FD2C300000C94F13F0C9427403F
S11300E0CCC30000084AD73B3BCE016E84BCBFFDA5
S11300F0C12F3D6C74319ABD56833DDA3D00C77FF4
S113010011BED9E4BB4C3E916BAAAABE000000808C
S11301103F05A84CCDB2D44EB93836A9020C50B91B
S1130120918688083CA6AAAA2ABE000000803F0740
S1130130634236B79BD8A71A39685618AEBAAB557E
S11301408C1D3CB7CC5763BD6DEDFD753EF6177243
S113015031BF000000803F08000000BE9224491215
S11301603EABAAAA2ABECDCCCC4C3E00000080BE39
S1130170ABAAAAAA3E00000000BF000000803F0016
S113018000000000084178D3BB4387D1133D190E0A
S11301903CC3BD4282AD2B3E68EC8276BED98FE172
S11301A0A93E4C80EFFFBE01C4FF7F3F000000006A
S11301B000002143EB42F342FF420C432D433A43F8
S11301C0DA45DD45CC45D045D6451446E145E545FF
S11301D0EB45EF45F345F945FD4501461446074611
S11301E00B460F4600000000003E5B4F5B3E3E6B3B
S11301F04F6B3E1C3E7C3E1C183C7E3C181C577DBD
S1130200571C1C5E7F5E1C00183C1800FFE7C3E708
S1130210FF0018241800FFE7DBE7FF30483A060E1A
S11302202629792926407F050507407F05253F5A61
S11302303CE73C5A7F3E1C1C08081C1C3E7F1422D1
S11302407F22145F5F005F5F06097F017F0066897C
S1130250956A606060606094A2FFA29408047E04C2
S11302600810207E201008082A1C08081C2A0808E8
S11302701E101010100C1E0C1E0C30383E383006A8
S11302800E3E0E06000000000000005F00000007A4
S1130290000700147F147F14242A7F2A12231308D2
S11302A0646236495620500008070300001C2241AE
S11302B0000041221C002A1C7F1C2A08083E080852
S11302C00080703000080808080800006060002002
S11302D0100804023E5149453E00427F40007249E5
S11302E04949462141494D331814127F1027454589
S11302F045393C4A4949314121110907364949499F
S113030036464949291E000014000000403400000C
S11303100008142241141414141400412214080275
S1130320015909063E415D594E7C1211127C7F49E8
S11303304949363E414141227F4141413E7F49493D
S113034049417F090909013E414151737F08080869
S11303507F00417F41002040413F017F081422413A
S11303607F404040407F021C027F7F0408107F3E94
S11303704141413E7F090909063E4151215E7F0901
S1130380192946264949493203017F01033F404068
S1130390403F1F2040201F3F4038403F6314081453
S11303A06303047804036159494D43007F4141418B
S11303B00204081020004141417F0402010204406C
S11303C040404040000307080020545478407F28F0
S11303D04444383844444428384444287F385454E6
S11303E0541800087E090218A4A49C787F08040409
S11303F07800447D40002040403D007F10284400A8
S113040000417F40007C047804787C080404783838
S113041044444438FC1824241818242418FC7C0868
S1130420040408485454542404043F44243C4040E5
S1130430207C1C2040201C3C4030403C4428102898
S1130440444C9090907C4464544C440008364100E1
S11304500000770000004136080002010204023C5B
S11304602623263C1EA1A161123A4040207A38542A
S113047054555921555579412254547842215554A3
S1130480784020545579400C1E52721239555555F6
S113049059395454545939555454580000457C41E1
S11304A00002457D420001457C407D1211127DF021
S11304B0282528F07C545545002054547C547C0A4B
S11304C0097F4932494949323A4444443A324A4814
S11304D048303A4141217A3A42402078009DA0A018
S11304E07D3D4242423D3D4040403D3C24FF24246A
S11304F0487E4943662B2FFC2F2BFF0929F620C089
S1130500887E090320545479410000447D413048D9
S1130510484A32384040227A007A0A0A727D0D191C
S1130520317D2629292F28262929292630484D407E
S113053020380808080808080808382F10C8ACBA7A
S11305402F102834FA00007B000008142A142222F9
S1130550142A14085500550055AA55AA55AAFF5542
S1130560FF55FF000000FF00101010FF00141414CA
S1130570FF001010FF00FF1010F010F0141414FC12
S1130580001414F700FF0000FF00FF1414F404FC2F
S1130590141417101F10101F101F1414141F001010
S11305A01010F0000000001F101010101F10101089
S11305B010F010000000FF10101010101010101098
S11305C0FF10000000FF140000FF00FF00001F10D8
S11305D0170000FC04F414141710171414F404F492
S11305E00000FF00F714141414141414F700F71483
S11305F01414171410101F101F141414F4141010D2
S1130600F010F000001F101F0000001F1400000075
S1130610FC140000F010F01010FF10FF141414FF6D
S1130620141010101F00000000F010FFFFFFFFFF68
S1130630F0F0F0F0F0FFFFFF0000000000FFFF0FFC
S11306400F0F0F0F3844443844FC4A4A4A347E02A0
S1130650020606027E027E02635549416338444421
S11306603C04407E201E2006027E020299A5E7A5D6
S1130670991C2A492A1C4C7201724C304A4D4D3047
S11306803048784830BC625A463D3E494949007E6C
S11306900101017E2A2A2A2A2A44445F4444405103
S11306A04A444040444A51400000FF0103E080FFB7
S11306B0000008086B6B083612362436060F090F43
S11306C006000018180000001010003040FF01015F
S11306D0001F01011E00191D1712003C3C3C3C0088
S11306E00000000000000A0B02090C0D0E080703AD
S11306F004010000000000000000000000000000F1
S113070000000000000000000000000000000000E5
S113071012111000000000000000000000000000A2
S1130720000000000000000000000102102020086A
S11307300810204010204080020102010804020138
S113074001020408102040808040201008040201A7
S11307508004020180402010080402010804020100
S11307600102040810204080010204081020408087
S113077005050505070508080808020202020A0A19
S11307800808040404040101010101010101030337
S1130790030303030303040707070C0C0C0C0C0CE2
S11307A00C0C0202020206060606060606060B0BDF
S11307B00B0B0B0B0B0B0000200023002600290061
S11307C02C002F0032000001000003010601090182
S11307D000002200250028002B002E0031003400E8
S11307E002010000050108010B01000021002400A2
S11307F027002A002D00300033000101000004010D
S113080007010A01F00FB412011522224033803788
S11308102F3FC43F5940823311241FBECFEFD1E292
S1130820DEBFCDBF00E00CBF1EE0A0E0B2E0E4E319
S1130830F5E900E00BBF02C007900D92A830B107A4
S1130840D9F722E1A8E0BEE001C01D92A63EB2079E
S1130850E1F714E0CBE0D4E000E006C02197010901
S1130860802FFE010E941648C230D10780E008079D
S1130870A9F70E9487400C94894AC2CB80E090E09B
S1130880089508952F923F924F925F926F927F92B4
S11308908F929F92AF92BF92CF92DF92EF92FF928C
S11308A00F931F93CF93DF9300D0CDB7DEB74C01E6
S11308B07B836A836A01590117019801241B350B54
S11308C037FF03C0319521953109C5014A815B8108
S11308D0841B950B97FF03C091958195910951E075
S11308E059838217930714F019820BC09A2D8B2D0C
S11308F05801092F182F9A818B81DB82CA82C92E55
S1130900D82E8A819B81A816B9065CF49C2D8D2D66
S11309106801092F182F9A818B81BB82AA82A92E84
S1130920B82E2501AA81BB814A1A5B0A38016C18CA
S11309307D0877FE03C0719461947108720157FEBB
S113094003C0BFEFEB1AFB0AF594E794C016D10677
S11309501CF00FEF1FEF1FC001E010E01CC0D4011A
S1130960ED91FC91B9810484F585E02D9101BB23BF
S1130970C1F04A815B81B601C4011995E618F708F4
S1130980F7FE04C0C00ED11EE40CF51CEA81FB8105
S11309903196FB83EA834A815B81A416B506FCF693
S11309A004C0A6016A817B81E7CF0F900F900F905E
S11309B0DF91CF911F910F91FF90EF90DF90CF9037
S11309C0BF90AF909F908F907F906F905F904F906B
S11309D03F902F9008950895DC01ED91FC910084DF
S11309E0F185E02D19940F931F93DC01ED91FC9197
S11309F0048CF58DE02D19951F910F9108950F9397
S1130A001F93DC01ED91FC91068CF78DE02D199577
S1130A101F910F910895EF92FF920F931F93DC01A2
S1130A20ED91FC9100A0F1A1E02D19951F910F917A
S1130A30FF90EF9008950895AF92BF92CF92DF9206
S1130A40EF92FF920F931F93CF93DF9300D01F92E7
S1130A50CDB7DEB75C016901DC01ED91FC91028444
S1130A60F385E02D4B835C8369837A831995D501E3
S1130A70ED91FC914B815C81C40ED51EB1E0CB1A83
S1130A80D1080488F589E02D7801860169817A818D
S1130A909B01C5011995D501ED91FC910688F78953
S1130AA0E02DC5010F900F900F900F90DF91CF9123
S1130AB01F910F91FF90EF90DF90CF90BF90AF9078
S1130AC01994AF92BF92CF92DF92EF92FF920F935D
S1130AD01F93CF93DF9300D01F92CDB7DEB75C0195
S1130AE06901DC01ED91FC910284F385E02D4B83D7
S1130AF05C8369837A831995D501ED91FC916981B1
S1130B007A819B012C0D3D1D215031090488F58902
S1130B10E02D78014B815C818A01C5011995D501CD
S1130B20ED91FC910688F789E02DC5010F900F9097
S1130B300F900F90DF91CF911F910F91FF90EF9045
S1130B40DF90CF90BF90AF9019944F925F926F92C5
S1130B507F928F929F92AF92BF92CF92DF92EF9249
S1130B60FF920F931F93CF93DF931F921F92CDB7E2
S1130B70DEB76C015A0139014801DC01ED91FC91A9
S1130B800284F385E02D69837A8319956981462E61
S1130B907A81572E640C751CD601ED91FC91461494
S1130BA057046CF40088F189E02D87019401A501B4
S1130BB0B201C6011995BFEF4B1A5B0AEDCF068847
S1130BC0F789E02DC6010F900F90DF91CF911F910F
S1130BD00F91FF90EF90DF90CF90BF90AF909F90D8
S1130BE08F907F906F905F904F901994EF92FF9247
S1130BF00F931F93DC01ED91FC9111971A960D91BF
S1130C001C911B9718962D913C91199700A0F1A166
S1130C10E02D7B0140E050E060E070E019951F9109
S1130C200F91FF90EF900895CF92DF92EF92FF9291
S1130C300F931F93CF93DF9300D000D0CDB7DEB7CF
S1130C406C01DC01ED91FC916217730789F40417C0
S1130C5015072CF4942F852FA801092F182F041B96
S1130C60150B98012F5F3F4F048CF58DE02D12C0BA
S1130C704017510709F5261737072CF4962F872FAD
S1130C80B901292F382F261B370B2F5F3F4F068CB6
S1130C90F78DE02D8701C601199526960FB6F894B5
S1130CA0DEBF0FBECDBFDF91CF911F910F91FF909B
S1130CB0EF90DF90CF9008950284F385E02D2D838B
S1130CC03E834B835C8369837A831995D601ED91C6
S1130CD0FC910488F589E02D2D813E814B815C8156
S1130CE069817A81C6011995D601ED91FC91068836
S1130CF0F789E02DC60126960FB6F894DEBF0FBE25
S1130D00CDBFDF91CF911F910F91FF90EF90DF90B6
S1130D10CF9019946F927F928F929F92AF92BF92CD
S1130D20CF92DF92EF92FF920F931F93CF93DF93B3
S1130D30EC014B015A0169013801E881F98102840F
S1130D40F385E02D1995E881F9810288F389E02D76
S1130D5087019601A501B401CE011995E881F981B5
S1130D60A501460D571D415051090288F389E02D14
S1130D709601B401CE011995E881F9810088F189C1
S1130D80E02D9301A501B401CE011995E881F98103
S1130D90C80CD91CB601615071090088F189E02D95
S1130DA09301A501CE011995E881F9810688F78997
S1130DB0E02DCE01DF91CF911F910F91FF90EF9025
S1130DC0DF90CF90BF90AF909F908F907F906F9067
S1130DD019940895FC016370658B84819581268143
S1130DE03781613039F0633029F091878087338708
S1130DF02287089531872087938782870895FC018D
S1130E00138212828AE696E09183808375836483D9
S1130E10578346837187608753874287158A15866F
S1130E2014861786168681E0848B2FEF3FEF338B71
S1130E30228B318B208B868B178A118E108E08950E
S1130E402F923F924F925F926F927F928F929F92D6
S1130E50AF92BF92CF92DF92EF92FF920F931F93C4
S1130E60CF93DF93CDB7DEB76C970FB6F894DEBFA0
S1130E700FBECDBF9C8F8B8F5B011A011F830E8326
S1130E803701C982DC0158964D915C9159974115FF
S1130E90510509F0E5C018968D919C911997681732
S1130EA079070CF0CAC11A968D919C911B9728164C
S1130EB039060CF0C2C18C2C912CFB0136E0C39E88
S1130EC0E00DF11D1124FB87EA871E161F060CF0A6
S1130ED0B4C1C40133E0880F991F3A95E1F79D87A7
S1130EE08C87820D931D181619060CF0A6C157960F
S1130EF08C91811103C0203B08F02F5FAB8DBC8D1A
S1130F00ED91FC9111970284F385E02DCD012A8F98
S1130F1019952A8DB5E02B9F90011124F501359682
S1130F20FF87EE872501BB82AA82A9014A195B09C2
S1130F30598B488BC10108969B8B8A8BE889F98968
S1130F40E40DF51DEC51FE4F949198873D822C825F
S1130F506101A885A0FF13C0AB8DBC8DED91FC9100
S1130F60B981B13031F40484F585E02D2E813F81BF
S1130F7016C00684F785E02DEE80FF801AC0EE814E
S1130F80FF816E167F06F1F0AB8DBC8DED91FC9167
S1130F90B981B13051F40484F585E02D9301A601A3
S1130FA0B2018B8D9C8D19950DC00684F785E02DBB
S1130FB07301840194014C815D816A817B818B8DF5
S1130FC09C8D1995E885E695E8872C813D81280D4F
S1130FD0391D3D832C833FEFC31AD30A4A895B89A9
S1130FE0C416D50609F0B5CF8A819B81880D991D59
S1130FF09B838A839FEF491A590AAE85BF854A1697
S11310005B0609F09BCFEE81FF816E167F0609F423
S1131010F2C0EB8DFC8DA081B181F981F13079F4BE
S1131020B5016B5F7F4F5096ED91FC915197830111
S113103028E030E0A1018B8D9C8D1995DCC06A8578
S11310407B85681979091E96ED91FC911F977301B0
S11310500C851D859401A1018B8D9C8D1995CBC0A8
S1131060FA0134969491329765917491291BCB01BE
S1131070B7E02B9F800D911D1124FA012591349125
S11310803B8B2A8BFC01459154915B834A83FC0181
S11310903296C490319654915C873296149131966D
S11310A0D4908981823058F0612E012E000C77088B
S11310B0AD2D0D2C000CBB0BB987A88704C0198675
S11310C01886612C712CAB8DBC8DED91FC91119720
S11310D00284F385E02DCD011995B9818B2E912CD5
S11310E0689CC001699C900D789C900D1124FC01B2
S11310F0EA0DFB1DF98BE88B1C82712C612CE12F0E
S1131100110FFF0B95012E0F3F1F3B872A87AC0C55
S1131110B11CA5014E0F5F1F5F8B4E8BC1018D0D5E
S1131120911DD7FC9A95998F888F4C85641608F089
S113113062C0862D90E048855985480F591F489D07
S11311409001499D300D589D300D1124D901A20DF7
S1131150B31DBF87AE87AA84BB8448885988DC80C6
S1131160BA85DB1AE88DF98DE80FF91FFD8BEC8B3E
S11311708D2D8A0D2E893F89A216B306B9F1877089
S113118061F48A819B810196EA89FB89AA81BB81EA
S1131190EA0FFB1F74909B838A8377FE20C0AB8D7C
S11311A0BC8DED91FC91B981B13061F40484F58575
S11311B0E02D2E813F814C895D89B5018B8D9C8DFD
S11311C019950DC00684F785E02DEE80FF8084011B
S11311D094014E855F85B2018B8D9C8D1995770C9A
S11311E0480C591CEFEFAE1ABE0AC2CF3C813C0D2D
S11311F03C8363949ACFAB8DBC8DED91FC91119798
S11312000688F789E02DCD016C960FB6F894DEBF01
S11312100FBECDBFDF91CF911F910F91FF90EF9043
S1131220DF90CF90BF90AF909F908F907F906F9002
S11312305F904F903F902F9019946C960FB6F8944E
S1131240DEBF0FBECDBFDF91CF911F910F91FF90F5
S1131250EF90DF90CF90BF90AF909F908F907F9052
S11312606F905F904F903F902F900895AF92BF92F0
S1131270CF92EF92FF920F931F93CF93DF93EC01E2
S1131280262F888D998D009709F03FC06A3059F454
S11312901D861C862C898E859F8538E0239F800DB2
S11312A0911D112440C06D3009F4A8C08E89882393
S11312B0C1F03C898C859D8546E0349F800D911D4D
S11312C0112448855985481759075CF41D861C86E6
S11312D08E859F8548E0349F800D911D11249F8742
S11312E08E87EA88FB88088919894E855F856C8515
S11312F07D85CC88CE01A4DD2C898C859D8536E046
S1131300239F800D911D112442C06A3079F41D86FB
S11313101C862C89FC013696E4918E859F852E9F30
S1131320800D911D11249F878E8768C06D3009F44C
S113133065C0FC0134963491631708F45FC031969C
S1131340E491E61708F45AC0FC013296A590B490D3
S1131350462F50E0431B510937E0349FB001359FBD
S1131360700D1124A60EB71EF501329634913196F4
S1131370E491332311F0E1110DC0F5013496E491A9
S11313802C898C859D85E29F800D911D11249D875C
S11313908C8734C0F501359644915E89552311F14B
S11313A06C89E32FF0E0E40FF11D47FDFA956E9F81
S11313B0D0016F9FB00D11244C855D854A0F5B1FD2
S11313C0E885F985E417F5076CF41D861C86FC0195
S11313D03696E4918E859F856E9F800D911D112414
S11313E09F878E87EA88FB88088919894E855F85DF
S11313F06C857D85CC88CE0123DDBFCF81E090E074
S1131400DF91CF911F910F91FF90EF90CF90BF90FC
S1131410AF900895FC0175876487578746870895C0
S1131420611101C061E0FC01648B0895FC01738BC0
S1131430628B718B608B0895FC0185890895FC0192
S1131440808591850895FC018285938508950F9385
S11314501F93CF93DF93DC01FB0155968C91559735
S1131460823089F0833021F1813009F0E6C014968E
S11314708D919C911597BC01641B750BAB01415078
S11314805109BF011DC014966D917C911597CB0134
S11314908E1B9F0BFC0116968D919C911797BC0196
S11314A0641B750BAB0141505109E21BF30BC5C022
S11314B016966D917C9117976E1B7F0B621B730BB5
S11314C057FD1AC114968D919C9115974817590789
S11314D00CF012C177FF04C0260F371F60E070E0E4
S11314E016968D919C911797FB01E20FF31F8E17AF
S11314F09F071CF49C01261B370B121613060CF0D5
S1131500FBC0A22F862F86958695869590E8899FA5
S1131510400D511D1124FA01EA5EFD4F6770A9F1D7
S113152098E0961B492F50E0EA01C25FDD4F8881A5
S1131530291790F4421B51092FEF30E002C0359572
S113154027954A95E2F782230130110541F068F0AE
S11315500230110589F0D0C00130110519F4208141
S1131560822B0CC00130110520F480952081822348
S113157005C00230110531F4208182278083A91728
S113158008F4BAC0A91BE058FF4FA83048F1023054
S1131590110559F4EF018A2F988190959883C058CA
S11315A0DF4F88508830C0F732C081E00130110528
S11315B009F080E08195EF019A2F8883C058DF4FAE
S11315C098509830D0F788EF8A0F8695869586953F
S11315D060E8869FE00DF11D1124E058FF4FA770CD
S11315E0AA2309F489C0B0E0AA5FBD4F8C910130F1
S11315F0110529F038F002301105E1F07DC0908129
S1131600892B03C0809590818923808375C088EFDE
S11316108A0F86958695869570E8879FE00DF11D63
S11316201124E058FF4FA77009F466C0B0E0AA5F28
S1131630BD4F8C9190818927E8CF57FD5DC01696E8
S11316408D919C911797481759070CF055C0F7FFD7
S113165004C02E0F3F1FE0E0F0E014968D919C91A2
S11316601597BF01620F731F861797071CF49C011F
S11316702E1B3F0B121613060CF03EC0CA0157FD79
S1131680079663E0959587956A95E1F79695982F67
S1131690882797958795E80FF91FEA5EFD4F4770F5
S11316A0552781E090E001C0880F4A95EAF7482F5A
S11316B00130110539F078F002301105E9F42E0FEC
S11316C03F1F13C02E0F3F1FE217F307A9F08081BD
S11316D0842B8193F9CF80952E0F3F1FE217F307D8
S11316E059F0908198239193F9CFE217F30721F0F1
S11316F0808184278193F9CFDF91CF911F910F913E
S113170008950F931F93CF93DF93DC0155968C912B
S11317105597823071F0833009F1813009F08CC023
S11317201496ED91FC911597E41BF50BE21BF30B5A
S113173020C01496ED91FC911597CF01861B970B51
S1131740BC01615071091696ED91FC911797CF0178
S1131750841B950BAC01421B530B6EC01696ED9186
S1131760FC911797CF01861B970BBC01615071093F
S1131770FA0177FD1BC116968D919C9117976817F6
S113178079070CF013C1F7FF04C02E0F3F1FE0E0F0
S1131790F0E014968D919C911597AF01420F531F61
S11317A0841795071CF49C012E1B3F0B121613067D
S11317B00CF0FCC0CB0177FD079643E09595879527
S11317C04A95E1F79695982F882797958795E80F7E
S11317D0F91FEA5EFD4F6770772781E090E001C052
S11317E0880F6A95EAF7482F0130110541F088F017
S11317F00230110509F0DAC02E0F3F1F15C02E0F5D
S11318003F1FE217F30709F4D1C08081842B819331
S1131810F8CF80952E0F3F1FE217F30709F4C6C0D7
S1131820908198239193F8CFE217F30709F4BEC08F
S1131830808184278193F8CF77FDB8C014968D9169
S11318409C911597681779070CF0B0C057FF04C036
S1131850240F351F40E050E016968D919C91179708
S1131860FA01E20FF31F8E179F071CF49C01241B3F
S1131870350B121613060CF099C0A22F842F8695EF
S11318808695869590E8899F600D711D1124FB0152
S1131890EA5EFD4F4770A9F198E0941B492F50E090
S11318A0EA01C25FDD4F8881291790F4421B510978
S11318B02FEF30E002C0359527954A95E2F7822351
S11318C00130110541F068F00230110589F06EC055
S11318D00130110519F42081822B0CC0013011054F
S11318E020F480952081822305C00230110531F453
S11318F0208182278083A91708F458C0A91BE058C7
S1131900FF4FA83048F10230110559F4EF018A2F36
S1131910988190959883C058DF4F88508830C0F7DD
S113192030C081E00130110509F080E08195EF01BC
S11319309A2F8883C058DF4F98509830D0F788EF9B
S11319408A0F86958695869590E8899FE00DF11D0E
S11319501124E058FF4FA770AA2341F1B0E0AA5F19
S1131960BD4F8C910130110529F038F0023011057A
S1131970D1F01CC09081892B18C080959081892357
S113198014C088EF8A0F86958695869590E8899F7E
S1131990E00DF11D1124E058FF4FA77039F0B0E0BD
S11319A0AA5FBD4F8C91908189278083DF91CF916D
S11319B01F910F910895CF92DF92EF92FF920F93B0
S11319C01F93CF93DF937C018B01EA01690177FDBB
S11319D09DC035DD081719070CF098C0D7FD96C0D7
S11319E0C70131DDC817D9070CF090C0C70124DD49
S11319F0823009F07FC0F70164817581CB01801BBF
S1131A00910B8C010150110946815781FA01EC1B9D
S1131A10FD0BEF0121970BC0813049F4F70184815C
S1131A2095818C1B9D0BE8018C0101501109F1E09B
S1131A30CF16D10431F010F182E0C816D104E1F1DF
S1131A4065C0FE01D7FD379643E0F595E7954A95C5
S1131A50E1F7F695FE2FEE27F795E7950E0F1F1F7A
S1131A60F801EA5EFD4FC770DD2781E090E001C018
S1131A70880FCA95EAF79081892B3AC0FE01D7FDF9
S1131A80379623E0F595E7952A95E1F7F695FE2F2D
S1131A90EE27F795E7950E0F1F1FF801EA5EFD4F3D
S1131AA0C770DD2781E090E001C0880FCA95EAF78E
S1131AB08095908189231CC0FE01D7FD379683E071
S1131AC0F595E7958A95E1F7F695FE2FEE27F795BC
S1131AD0E7950E0F1F1FF801EA5EFD4FC770DD2763
S1131AE081E090E001C0880FCA95EAF790818927C8
S1131AF080830CC0833009F08FCFF70186819781F2
S1131B00801B910B8E01EC01219791CFDF91CF9136
S1131B101F910F91FF90EF90DF90CF9008951F9346
S1131B20CF93DF93EC01162F40E450E060E870E0BF
S1131B3066D986E996E0998388838FEF8C8F88A392
S1131B408E8F8D8F1F8FDF91CF911F91089580E02D
S1131B5094E0E6E1F2E0DF019C011D922150304067
S1131B60E1F70895FC0181A1882339F06EBD0000DE
S1131B700DB407FEFDCF8EB5089528E030E090E85F
S1131B80A4A1B5A14C9183A5809584238C93A2A193
S1131B90B3A182A5492F462319F04C91842B03C08D
S1131BA04C91809584238C93A4A1B5A14C9183A5D9
S1131BB0842B8C9396952150310911F708951F9326
S1131BC0CF93DF93EC01162F8C8D8F3F01F1EEA1A3
S1131BD0FFA190818CA5892B8083E8A5F9A590812C
S1131BE08DA5809589238083EEA1FFA190818CA58A
S1131BF0809589238083CE01B5DFEEA1FFA190817A
S1131C008CA5892B8083DF91CF911F9108958A8DB4
S1131C10682F880F770B87EA90E10E94043760E011
S1131C2087EA90E10E94A036612F87EA90E10E9442
S1131C30A03687EA90E1DF91CF911F910C94793718
S1131C400F931F93CF93DF93EC01162F022F6B8F0B
S1131C504A8F8C8D8F3F09F48CC061E08E8D0E9479
S1131C60154661E088A10E94154688A1082E000C43
S1131C70990BFC01E059F84FE491F0E0EE0FFF1FDF
S1131C80E053F84F259134913FA32EA3FC01E65D68
S1131C90F84FE491ECA78E8D082E000C990BFC01F3
S1131CA0E059F84FE491F0E0EE0FFF1FE053F84FD6
S1131CB02591349139A728A7FC01E65DF84FE491FA
S1131CC0EDA789A1811134C061E08C8D0E94154675
S1131CD061E08D8D0E9415468D8D082E000C990BA8
S1131CE0FC01E059F84FE491F0E0EE0FFF1FE053E0
S1131CF0F84F259134913DA32CA3FC01E65DF84FE8
S1131D00E491EBA78C8D082E000C990BFC01E05993
S1131D10F84FE491F0E0EE0FFF1FE053F84F2591E8
S1131D2034913BA32AA3FC01E65DF84FE491EAA7B2
S1131D3089A1882311F10E949B3380913710882355
S1131D4099F02FB7F89480913710813059F48DB3FE
S1131D50809335109DB380913610809589238DBB77
S1131D602FBF02C02093351080E58CBD81E08DBD6E
S1131D7004C087EA90E10E94DE360023F1F08F8DE3
S1131D8087FD1BC061E00E94154661E08F8D0E94B3
S1131D90514661E070E080E090E00E941A4560E006
S1131DA08F8D0E9451466AE070E080E090E00E94CE
S1131DB01A4561E08F8D0E9451466EEACE01FFDE26
S1131DC065EDCE01FCDE60E8CE01F9DE68EACE0105
S1131DD0F6DE6FE3CE01F3DE63EDCE01F0DE60E00C
S1131DE0CE01EDDE60E4CE01EADE6DE8CE01E7DE91
S1131DF0113011F460E101C064E1CE01E0DE60E283
S1131E00CE01DDDE60E0CE01DADE61EACE01D7DEAE
S1131E1068ECCE01D4DE6AEDCE01D1DE62E1CE0102
S1131E20CEDE61E8CE01CBDE113011F46FE901C0E2
S1131E306FECCE01C4DE69EDCE01C1DE113011F4C8
S1131E4062E201C061EFCE01BADE6BEDCE01B7DE16
S1131E5060E4CE01B4DE64EACE01B1DE66EACE010E
S1131E60AEDE6EE2CE01ABDE6FEACE01DF91CF9142
S1131E701F910F91A4CEDF92EF92FF920F931F93C5
S1131E80CF93DF93EC0161E29ADE60E0CE0197DE4E
S1131E906FE7CE0194DE62E2CE0191DE60E0CE0116
S1131EA08EDE67E0CE018BDE8C8D8F3F29F1EEA1B3
S1131EB0FFA190818CA5892B8083E8A5F9A5908149
S1131EC08DA5892B8083EEA1FFA190818CA580959F
S1131ED08923808306E112E0F80161918F01CE012C
S1131EE041DEF6E006311F07B9F7EEA1FFA19081AC
S1131EF08CA5892B808331C0D090B8008CE080936E
S1131F00B80006E112E06A8D062E000C770B87EA12
S1131F1090E10E94043760E487EA90E10E94A036D1
S1131F20E12CF12CF801EE0DFF1D608187EA90E1B0
S1131F300E94A0368FEFE81AF80AE0E1EE16F104E9
S1131F4089F787EA90E10E947937005F1F4FF6E036
S1131F5006311F07C1F6D092B800DF91CF911F91CF
S1131F600F91FF90EF90DF900895DC01ED91FC91CB
S1131F700190F081E02D199465EA70E08CE392E120
S1131F80F4DF61E570E08CE392E1EFCF65EA70E0A5
S1131F908CE392E1EADF65E570E08CE392E1E5CF62
S1131FA0CF93DF93EC0126E040E052EC61E070E077
S1131FB08CE392E10E94623E68EB7BE080E090E07B
S1131FC00E941A45CE01E2DF65EA70E08CE392E1FB
S1131FD0CCDF62E570E08CE392E1DF91CF91C5CF75
S1131FE0E8E0FEE0148A158A0895FF920F931F9388
S1131FF0CF93DF93EC01FF24F3948CE392E10E94EE
S1132000633D892BC1F00C8910E08CE392E10E94BE
S11320107D3DFE01E00FF11F84878C89811104C08E
S11320209C859A3A09F056C08F5F8C8B883029F7CB
S11320301C8AFD8AE2CF8D89813009F04BC08C85E2
S11320408A3A09F046C08B89853509F042C06D850E
S113205070E0762F66278E85682B072E000C880B80
S1132060990B0E94493A20E030E048EC52EC0E947F
S1132070AE39688379838A839B836F8570E0762F7A
S113208066278889682B072E000C880B990B0E9401
S1132090493A20E030E048EC52E40E94AE396C83C7
S11320A07D838E839F83698970E0762F66278A8972
S11320B0682B072E000C880B990B0E94493A20E0EC
S11320C030E048EC52E40E94AE39688779878A8709
S11320D09B871D8ADF91CF911F910F91FF900895E7
S11320E0CF93DF93FC0188E0DF01C82F1D92CA95CE
S11320F0E9F7DF011896ED0119928A95E9F7148E34
S1132100158E168E178E10A280E090E0A0E8BFE333
S1132110808B918BA28BB38B848B958BA68BB78B87
S1132120808F918FA28FB38FDF91CF910895CF933A
S1132130DF93EA0170E087EA90E10E9404376EEBD6
S113214076E087EA90E10E94D3404AE050E0BE0185
S113215087EA90E10E948D4187EA90E1DF91CF9177
S11321600C947937CF92DF92EF92FF920F931F93E3
S1132170CF93DF93EC016A017901AB0161E0D7DF12
S1132180A60162E0CE01D3DFA70163E0CE01CFDF79
S1132190A80164E0CE01DF91CF911F910F91FF90D0
S11321A0EF90DF90CF90C3CF4F925F926F927F9268
S11321B0AF92BF92CF92DF92EF92FF920F931F9351
S11321C0CF93DF9300D01F92CDB7DEB729013A0138
S11321D0E982FA820B831C8370E087EA90E10E9413
S11321E0043761EC76E087EA90E10E94D34022E074
S11321F030E0B301A20187EA90E10E94C24265EC9B
S113220076E087EA90E10E94D34022E030E0498101
S11322105A816B817C8187EA90E10E94C24269EC19
S113222076E087EA90E10E94D34022E030E0B601F4
S1132230A50187EA90E10E94C24287EA90E10E94E8
S1132240DB4087EA90E10F900F900F900F90DF91A1
S1132250CF911F910F91FF90EF90DF90CF90BF909F
S1132260AF907F906F905F904F900C947937AF92BE
S1132270BF92CF92DF92EF92FF920F931F93CF936F
S1132280DF93EC01A88CB98CCA8CDB8CEC88FD88BC
S11322900E891F89288939894A895B8961E084DF2D
S11322A0A88CB98CCA8CDB8CEC88FD880E891F89BC
S11322B0288939894A895B8962E0CE0175DFA88C57
S11322C0B98CCA8CDB8CEC88FD880E891F8928891F
S11322D039894A895B8963E0CE0166DFA88CB98CB1
S11322E0CA8CDB8CEC88FD880E891F892889398982
S11322F04A895B8964E0CE0157DFDF91CF911F915A
S11323000F91FF90EF90DF90CF90BF90AF90089522
S1132310CF93DF931F92CDB7DEB787EA90E169834D
S11323200E94DE36698170E041E050E087EA90E186
S11323300E94773787EA90E10E941536892B39F09D
S113234087EA90E10F90DF91CF910C941D360F90A6
S1132350DF91CF910895AF92BF92CF92DF92EF9227
S1132360FF920F931F93CF93DF93EC0187EA90E1E1
S11323700E94DE366DEC76E082E091E10E94DE4060
S113238086E0A82EB12CC88CD98CEA8CFB8C0C89E5
S11323901D892E893F89488959896A897B89CE019B
S11323A066DF60ED76E082E091E10E94DE4061E06C
S11323B0CE01AEDF6C0162E0CE01AADF7C0163E0F6
S11323C0CE01A6DF8C0164E0CE01A2DF9C0181E096
S11323D0C816D10469F482E0E816F10449F4033024
S11323E0110531F42430310519F481E08C8F04C0D7
S11323F01C8ECA94CD2811F481E08D8F82E0E816FA
S1132400F10411F481E08E8F0330110511F481E0A1
S11324108F8F2430310511F481E088A381E0A81A5C
S1132420B10809F0B0CF64ED76E082E091E1DF918C
S1132430CF911F910F91FF90EF90DF90CF90BF90BD
S1132440AF900C94DE40089526E08FE991E10E945C
S1132450623E68ED76E08FE991E10C94DE404F92A4
S11324605F926F927F928F929F92AF92BF92CF9220
S1132470DF92EF92FF920F931F932A013B014801D1
S113248059016EEB76E08FE991E10E94D3404AE076
S113249050E060E070E08FE991E10E94874164EED2
S11324A076E08FE991E10E94D3404AE050E060E099
S11324B070E08FE991E10E9487416FE07CE08FE951
S11324C091E10E94D34022E030E0B301A2018FE900
S11324D091E10E94C24263E17CE08FE991E10E94B4
S11324E0D34022E030E0B501A4018FE991E10E94DC
S11324F0C24262EC76E08FE991E10E94D34022E08F
S113250030E0B701A6018FE991E11F910F91FF908F
S1132510EF90DF90CF90BF90AF909F908F907F907F
S11325206F905F904F900C94C342CF93DF93EC0174
S113253087EA90E10E94DE366EEE76E082E091E179
S11325400E94DE406881798187EA90E10E94043725
S113255061E077E087EA90E10E94DE4087EA90E15B
S1132560DF91CF910C947937EEE1FEE089E090E0C1
S113257091838083128213821482158216820895B5
S11325804F925F926F927F928F929F92AF92BF927F
S1132590CF92DF92EF92FF920F931F93CF93DF932B
S11325A0EC012A013B01480159016BE177E082E02B
S11325B091E10E94D34067E277E082E091E10E94DA
S11325C0D34022E030E0B301A20182E091E10E9415
S11325D0C2426AE277E082E091E10E94D34022E0C5
S11325E030E0B501A40182E091E10E94C24260E4BE
S11325F07CE082E091E10E94D34022E030E0B70128
S1132600A60182E091E10E94C2426DE277E082E09D
S113261091E10E94DE406881798187EA90E10E941D
S1132620043761E087EA90E10E94A03687EA90E1EE
S1132630DF91CF911F910F91FF90EF90DF90CF909A
S1132640BF90AF909F908F907F906F905F904F90CE
S11326500C947937FC011182108213821282158244
S113266014822AE030E03783268380E490E0918767
S11326708087338722871586148622E130E03787E6
S11326802687918B808B338B228B158A148A2CE1BD
S113269030E0378B268B918F808F338F228F158E6E
S11326A0148E24E230E0378F268F11A210A22EE27E
S11326B030E033A322A395A384A337A326A311A6B2
S11326C010A646E350E053A742A715A614A637A7C1
S11326D026A791AB80AB33AB22AB15AA14AA57AB98
S11326E046AB089521E04CE362E085E29EE0A8DA7F
S11326F085E29EE0C0DB68EE73E080E090E00E943B
S11327001A4585E29EE023CA2F923F924F925F9230
S11327106F927F928F929F92AF92BF92CF92DF92ED
S1132720EF92FF920F931F93CF93DF93CDB7DEB752
S113273062970FB6F894DEBF0FBECDBF1C017A833B
S113274069835C834B833E832D8348A459A46AA484
S11327507BA48EA59FA5A8A9B9A98F839887A987CB
S1132760BA878AA99BA9ACA9BDA98B879C87AD8789
S1132770BE878EA99FA9A8ADB9AD8F87988BA98B69
S1132780BA8B61E085E29EE00E94100A61E070E08D
S113279085E29EE00E94160A40E050E060E070E0AE
S11327A085E29EE00E940A0A85E29EE0D0D962E3B7
S11327B077E085E29EE00E94D3400E94E944AB01A9
S11327C0BC012AE030E085E29EE00E94B241D101E2
S11327D016964D915C91179714966D917C9115976F
S11327E085E29EE00E940A0A68E377E085E29EE0C3
S11327F00E94D3404AE050E069817A8185E29EE0FC
S11328000E948741F101428553856085718585E287
S11328109EE00E940A0A6CE377E085E29EE00E9453
S1132820D3404AE050E06D817E8185E29EE00E94C3
S11328308741D1011E964D915C911F971C966D9115
S11328407C911D9785E29EE00E940A0A60E477E08D
S113285085E29EE00E94D3404AE050E06B817C8197
S113286085E29EE00E948741F10142895389608993
S1132870718985E29EE00E940A0A64E477E085E2B9
S11328809EE00E94D3404AE050E0B80185E29EE019
S11328900E948741D10156964D915C915797549669
S11328A06D917C91559785E29EE00E940A0A68E446
S11328B077E085E29EE00E94D34022E030E0B70159
S11328C0A60185E29EE00E94C242F101428D538D31
S11328D0608D718D85E29EE00E940A0A6EE477E0C5
S11328E085E29EE00E94D34022E030E0B501A401DD
S11328F085E29EE00E94C242D1015E964D915C91B8
S11329005F975C966D917C915D9785E29EE00E9455
S11329100A0A64E577E085E29EE00E94D34022E063
S113292030E0B301A20185E29EE00E94C242F101BF
S113293046A557A564A575A585E29EE00E940A0AEE
S11329406AE577E085E29EE00E94D34022E030E031
S11329504F81588569857A8585E29EE00E94C2424E
S1132960D101D2964D915C91D397D0966D917C9183
S1132970D19785E29EE00E940A0A6FE577E085E23E
S11329809EE00E94D34022E030E04B855C856D855B
S11329907E8585E29EE00E94C242F10146A957A9C4
S11329A064A975A985E29EE00E940A0A66E677E0BA
S11329B085E29EE00E94D34022E030E04F855889B2
S11329C069897A8985E29EE00E94C24285E29EE09E
S11329D062960FB6F894DEBF0FBECDBFDF91CF91E4
S11329E01F910F91FF90EF90DF90CF90BF90AF9029
S11329F09F908F907F906F905F904F903F902F901B
S1132A003ACA64E085E29EE08AC84F925F926F9270
S1132A107F92AF92BF92CF92DF92EF92FF920F9389
S1132A201F93CF93DF93EC015B01CA01B9012AA381
S1132A303BA34CA35DA32BED3FE049E450E40E948B
S1132A40623B6C877D878E879F87B9A2A8A2EEA27E
S1132A50FFA208A719A7B601DD0C880B990B0E94E9
S1132A60493A9B01AC0160E070E080E090E40E9490
S1132A70C53B20E030E040E85FE30E94E0386AA70D
S1132A807BA78CA79DA7DF91CF911F910F91FF90FA
S1132A90EF90DF90CF90BF90AF907F906F905F905A
S1132AA04F9008952F923F924F925F926F927F9230
S1132AB08F929F92AF92BF92CF92DF92EF92FF924A
S1132AC00F931F93CF93DF93CDB7DEB760970FB605
S1132AD0F894DEBF0FBECDBF1C01CB01BA01480183
S1132AE0590120E030E040E752E40E94623B6987EC
S1132AF07A878B879C87D1016D937D938D939C936B
S1132B00139720E030E040E752E4C501B4010E948D
S1132B10623B2B013C01F1016483758386839783B7
S1132B2020E030E040E752E4C701B6010E94623B76
S1132B30D10118966D937D938D939C931B979696D4
S1132B402D913D914D915C9199970E94623B6D87C7
S1132B507E878F87988BF101608B718B828B938B2F
S1132B6084849584A684B784A501940169857A85B3
S1132B708B859C850E94AE396B017C01D1015496F2
S1132B806D937D938D939C935797A5019401C301F5
S1132B90B2010E94AE392B013C01F101608F718FAB
S1132BA0828F938FA50194016D857E858F85988989
S1132BB00E94AE394B015C01D1015C966D937D930B
S1132BC08D939C935F97A3019201C701B6010E9464
S1132BD0E03869877A878B879C87A3019201C701B4
S1132BE0B6010E94E1386B017C01A501940169855D
S1132BF07A858B859C850E94E0380E94163A662E61
S1132C007A836983A5019401C701B6010E94E03863
S1132C100E94163A762E7C836B83A5019401C7012A
S1132C20B6010E94E1380E94163AF62E7E836D8327
S1132C30A501940169857A858B859C850E94E1387C
S1132C400E94163A862F262F372F38872F83262D5A
S1132C503A81472D5C816F2D7E81988560960FB6F1
S1132C60F894DEBF0FBECDBFDF91CF911F910F91BE
S1132C70FF90EF90DF90CF90BF90AF909F908F9098
S1132C807F906F905F904F903F902F900895CF92D8
S1132C90DF92EF92FF92CF93DF93EC01072E000CAB
S1132CA0880B990B0E94493A6B017C0148A159A1F8
S1132CB0BA01550F880B990B0E94493A9B01AC014C
S1132CC0C701B6010E94AE392AA53BA54CA55DA556
S1132CD00E94623B0E94163ACB01DF91CF91FF9094
S1132CE0EF90DF90CF9008954F925F926F927F9212
S1132CF08F929F92AF92BF92CF92DF92EF92FF9208
S1132D000F931F93CF93DF93CDB7DEB760970FB6C2
S1132D10F894DEBF0FBECDBF5C01C4DE29873A87BD
S1132D204B875C876D877E878F87988B69857A85CB
S1132D30C501ADDF4C016B857C85C501A8DF6C0145
S1132D406D857E85C501A3DF8C016F857889C501FA
S1132D509EDF7C01B40197FE04C0662777276819BB
S1132D6079096F3F710509F024F5C601D7FE04C047
S1132D70882799278C199D098F3F910509F0CCF478
S1132D80C80117FF04C088279927801B910B8F3F28
S1132D90910511F00CF051C0C701F7FE04C088275B
S1132DA099278E199F098F3F910511F00CF045C0AA
S1132DB09FC0072E000C880B990B0E94493A9B0177
S1132DC0AC0160E070E08FE793E40E94AE392B0120
S1132DD03C01B801110F880B990B0E94493AA301D9
S1132DE092010E94623B0E94163A8B01B701FF0CCC
S1132DF0880B990B0E94493AA30192010E94623BFD
S1132E000E94163A7B01B401990C880B990B0E941D
S1132E10493AA30192010E94623B0E94163A4B0177
S1132E20B601DD0C880B990B0E94493AA30192016B
S1132E300E94623B0E94163A6B01B80117FF04C05E
S1132E4066277727601B710B6F3F710509F064F4E7
S1132E50C701F7FE04C0882799278E199F098F3F61
S1132E60910509F00CF444C0072E000C880B990B53
S1132E700E94493A9B01AC0160E070E08FE793E463
S1132E800E94AE392B013C01B801110F880B990B3C
S1132E900E94493AA30192010E94623B0E94163AA1
S1132EA08B01B701FF0C880B990B0E94493AA301CF
S1132EB092010E94623B0E94163A7B01B401990C74
S1132EC0880B990B0E94493AA30192010E94623B2C
S1132ED00E94163A4B01B601DD0C880B990B0E9437
S1132EE0493AA30192010E94623B0E94163A6B0187
S1132EF09A828982DC82CB821E830D83F886EF82DC
S1132F00282D3A814C2D5C81602F7E818E2D9885F1
S1132F1060960FB6F894DEBF0FBECDBFDF91CF91A0
S1132F201F910F91FF90EF90DF90CF90BF90AF90E3
S1132F309F908F907F906F905F904F900895FC01C9
S1132F4082E0808383E0818384E0828385E08383DD
S1132F501582148281E090E097838683118610861F
S1132F6093878287089508954F925F926F927F921C
S1132F70AF92BF92CF92DF92EF92FF920F931F9383
S1132F80CF93DF93CDB7DEB72A970FB6F894DEBFA1
S1132F900FBECDBF7C015B018AE0E2E5F6E0DE0115
S1132FA0119601900D928A95E1F7CE0101966C017C
S1132FB000E010E030E8432E3EE3532E612C712CE8
S1132FC0F601619171916F01CB01770FAA0BBB0BD5
S1132FD077276627A30192010E94FA47A216B30637
S1132FE02CF00F5F1F4F0530110551F7F7013187A2
S1132FF02087000F111FE1E0F0E0EC0FFD1FE00F50
S1133000F11F808191812A960FB6F894DEBF0FBE1E
S1133010CDBFDF91CF911F910F91FF90EF90DF9083
S1133020CF90BF90AF907F906F905F904F90089536
S1133030CF93DF93EC016DEF7BE00E944E4781E07C
S113304090E09F838E83198618861B861A861D86B8
S11330501C868FB780688FBFDF91CF910895EF9260
S1133060FF920F931F93CF93DF93EC017B018A01AF
S11330700E946247B801CE0177DF9F838E83C70128
S11330800E94B2476BE677E0C7010E949447882309
S113309009F44DC0109290001092910088E0809342
S11330A091008E819F81019729F480919100816024
S11330B0809391008E819F81089729F480919100DB
S11330C08260809391008E819F818034910529F4E0
S11330D0809191008360809391008E819F818115FE
S11330E0914029F4809191008460809391008E81B5
S11330F09F818115944029F480919100856080938B
S1133100910020E83EE3D8010E942D482E813F81A2
S1133110032E000C440B550B0E94FA473B872A8769
S1133120309399002093980082E080937100DF919E
S1133130CF911F910F91FF90EF9008957093170610
S11331406093160608950C94E7461F920F920FB6EB
S11331500F9211240BB60F922F933F934F935F93CB
S11331606F937F938F939F93AF93BF93EF93FF934B
S1133170E0911606F09117061995FF91EF91BF9112
S1133180AF919F918F917F916F915F914F913F91FB
S11331902F910F900BBE0F900FBE0F901F9018959C
S11331A0CF93DF93EC01198218821A821B821C824E
S11331B01D821E821F82188619861A868FE790E068
S11331C09C878B879E878D87988B8F879A8B898B1B
S11331D06DEF7BE0CE0143960E944E4781E0898FDC
S11331E0DF91CF910895CF92EF920F93CF93DF9316
S11331F0EC0126E040E052EC61E070E082E091E115
S11332000E94623E6CE271E080E090E00E941A4508
S1133210C12CE12C0DE02AE04BE06CE083E59EE05C
S11332200E948524282F30E0398328832115310515
S113323069F56FE677E082E091E10E94D34068E9A6
S113324077E082E091E10E94D34065EA77E082E092
S113325091E10E94DE406BEA77E082E091E10E9416
S1133260D34065EA77E082E091E10E94DE4065EBBD
S113327077E082E091E10E94DE4069E078E082E05C
S113328091E10E94DE4062E478E011C02130310512
S113329019F462E878E00BC02230310519F468EFC4
S11332A078E005C02330310531F468E779E082E045
S11332B091E10E94DE4083E59EE00E9487228A839A
S11332C0813059F038F0823059F08330A1F466EF40
S11332D079E008C06AEB79E005C064E07AE002C0F6
S11332E069ED79E082E091E1DF91CF910F91EF9068
S11332F0CF900C94D340DF91CF910F91EF90CF906A
S113330008951F93CF93DF93FC012281223009F4A7
S113331093C1EC01438160E083E59EE00E94842335
S113332068E070E083E59EE00E947622882361F0E5
S113333060E27AE082E091E10E94DE4060E27AE0BD
S1133340CE0143960E947F4761E070E083E59EE0F2
S11333500E947622882361F064E37AE082E091E1BE
S11333600E94DE4064E37AE0CE0143960E947F47E8
S113337060E170E083E59EE00E9476228823E9F014
S113338069E47AE082E091E10E94D3406BE083E556
S11333909EE00E9482224AE050E0682F82E091E1A0
S11333A00E94C44181E08C836CE57AE0CE014396AF
S11333B00E947F4781E89EE004D260E270E083E5EA
S11333C09EE00E9476228823D1F06DE67AE082E0C6
S11333D091E10E94D34069E083E59EE00E9482224D
S11333E04AE050E0682F82E091E10E94C44181E00C
S11333F08F8364E87AE0CE0143960E947F4760E8B9
S113340070E083E59EE00E9476228823D1F068E98B
S11334107AE082E091E10E94D3406AE083E59EE095
S11334200E9482224AE050E0682F82E091E10E94EB
S1133430C44181E08E836EEA7AE0CE0143960E9415
S11334407F4760E470E083E59EE00E947622882353
S1133450E9F061EC7AE082E091E10E94D3406CE013
S113346083E59EE00E9482224AE050E0682F82E0D9
S113347091E10E94C44181E08D8367ED7AE0CE0141
S113348043960E947F4781E89EE0B1D16FE083E5D7
S11334909EE00E9482228B8383E59EE0D6D7882318
S11334A009F46AC062E070E083E59EE00E9476223F
S11334B0882361F06AEE7AE082E091E10E94DE40C6
S11334C065EF7AE0CE0143960E947F4764E070E0A6
S11334D083E59EE00E947622882361F066E07BE02B
S11334E082E091E10E94DE4061E17BE0CE014396FF
S11334F00E947F4760E071E083E59EE0F7D7882370
S113350079F062E27BE082E091E10E94DE406DE2CC
S11335107BE0CE0143960E947F4781E89EE03BD149
S113352060E072E083E59EE0E1D7882379F06EE302
S11335307BE082E091E10E94DE4069E47BE0CE0121
S113354043960E947F4781E89EE00FD160E070E1DE
S113355083E59EE0CBD7882379F06AE57BE082E0BF
S113356091E10E94DE406BE67BE0CE0143960E942F
S11335707F4781E89EE051D160E070E283E59EE000
S11335807DD7882379F062E87BE082E091E10E94B4
S1133590DE4011E0198766E97BE0CE0143960E9484
S11335A07F47198F60E070E483E59EE059D7882354
S11335B089F06BEA7BE082E091E10E94DE4081E0E9
S11335C08A876AEB7BE0CE0143960E947F4781E8BD
S11335D09EE053D160E070E883E59EE06BD78823DA
S11335E079F06AEC7BE082E091E10E94DE4081E0C8
S11335F089876FED7BE0CE0143960E947F47198E49
S113360068E083E59EE07ED790E09C878B8767E047
S113361083E59EE077D790E09E878D8766E083E51B
S11336209EE070D790E0988B8F8765E083E59EE0FD
S113363069D790E09A8B898BDF91CF911F91089580
S1133640CF93DF93FC0180E5DF011D928A95E9F7B2
S11336506EE774E0758364838CEF98E091878087CC
S11336609587848777876687918B808B938B828BF2
S1133670958B848BCAE7DDE0D78BC68B918F808FC7
S113368048EF51E1538F428F758F648F578F468F68
S113369053A342A3A2E8BBEFB5A3A4A357A346A395
S11336A024E037EF31A720A753A742A735A724A7C3
S11336B0D7A7C6A731AB20AB93AB82AB35AB24AB5A
S11336C077AB66AB31AF20AFB5AFA4AFDF01A05B82
S11336D0BF4F11961C921E92129681E090E01196B3
S11336E09C938E93129640E050E060E07FE34D930C
S11336F05D936D937C93139714964AE057ED63EAB8
S11337007BE34D935D936D937C93139714961D9275
S11337101D921D921C92139714961D921D921D9238
S11337201C92139714961D921D921D921C9213972E
S113373014961D921D921D921C92139714961D921D
S11337401D921D921C92139714964DEC5CEC6CE444
S11337507EE34D935D936D937C931397EC58FF4FE9
S113376091838083DF91CF910895CF93DF93EC0110
S1133770CC5ADF4F2AE037ED43E25CE3688179817C
S11337808A819B810E94E138688379838A839B8341
S1133790DF91CF910895CF93DF93EC01CC5ADF4FA3
S11337A02AE037ED43E25CE3688179818A819B8179
S11337B00E94E038688379838A839B83DF91CF9169
S11337C00895CF93DF93EC01C85ADF4F2FE632E11F
S11337D043E85AE3688179818A819B810E94E138B8
S11337E0688379838A839B83DF91CF910895CF93F4
S11337F0DF93EC01C85ADF4F2FE632E143E85AE386
S1133800688179818A819B810E94E0386883798309
S11338108A839B83DF91CF910895CF93DF93EC014B
S1133820FC01EC5AFF4F20E030E048EC52E46081A8
S11338307181828193810E94623B0E941B3AFE0146
S1133840E05BFF4F808191810E947B4AFE01E85A30
S1133850FF4F20E030E04AE754E4608171818281C7
S113386093810E94623B0E941B3ACE5ADF4F8881AB
S11338709981DF91CF910C947B4A0F931F93CF933F
S1133880DF93EC01FC01E05BFF4F808191810E949A
S1133890734A8E010C5A1F4F682F70E080E090E04D
S11338A00E94493A20E030E048EC52E40E94AE39EC
S11338B0F80160837183828393833297808191813D
S11338C00E94734AC85ADF4F682F70E080E090E08E
S11338D00E94493A20E030E04AE754E40E94AE39BD
S11338E0688379838A839B83DF91CF911F910F91A2
S11338F00895CF92DF92EF92FF920F931F93CB0123
S1133900BA01A90198010E94E0386B017C0120E012
S113391030E044E353E40E94573B181654F420E08B
S113392030E044EB53E4C701B6010E94E0386B0178
S11339307C0120E030E044E353ECC701B6010E946F
S1133940A73987FF0AC020E030E044EB53E4C70105
S1133950B6010E94E1386B017C01C701B6011F91D9
S11339600F91FF90EF90DF90CF9008952F923F92A8
S11339704F925F926F927F928F929F92AF92BF927B
S1133980CF92DF92EF92FF920F931F93CF93DF9327
S1133990CDB7DEB76E970FB6F894DEBF0FBECDBFBE
S11339A01C01498B5A8B6B8B7C8B0D8B1E8B2F8B45
S11339B0388FC98EDA8EEB8EFC8E9A01AB01C5016D
S11339C0B4010E94E0386D837E838F8398872D89AC
S11339D03E894F89588D6CA97DA98EA99FA90E9403
S11339E0E03869877A878B879C872D813E814F8158
S11339F05885CA01B9010E94623B6B017C0129858B
S1133A003A854B855C85CA01B9010E94623B9B01E2
S1133A10AC01C701B6010E94E1380E941B3C6D87CE
S1133A207E878F87988B29853A854B855C856D8148
S1133A307E818F8198850E9454392BED3FE049E4C3
S1133A4050E40E94AE3920E030E044E353E40E94A5
S1133A50623BAB01BC01F101E45AFF4F4083518347
S1133A6062837383098D1A8D2B8D3C8DC10141DFD7
S1133A706B017C018101005A1F4FD8016D937D9326
S1133A808D939C93139720E030E040EA50E46D85D9
S1133A907E858F8598890E94A739F101E059FF4FEF
S1133AA0FE8FED8F87FF16C064EF7BE082E091E12B
S1133AB00E94DE40AD8DBE8D1D921D921D921C9202
S1133AC01397F101E459FF4F10821182128213827D
S1133AD081E050C220E030E048E453E46D857E8507
S1133AE08F8598890E94A73926013701E89477F8D1
S1133AF0F101E859FF4FFA83E98320E030E048E41C
S1133B0052E487FFB8C0C301B2010E94573B1816A4
S1133B1044F520E030E0A901C701B6010E94573BFB
S1133B2018164CF480E090E0A0E8B0E4F80180833B
S1133B309183A283B38320E030E0A901D8016D9181
S1133B407D918D919C910E94A73987FF7EC080E072
S1133B5090E0A0E8B0ECF80180839183A283B38362
S1133B6074C0A981BA812D913D914D915C91C70199
S1133B70B6010E94E0382B013C01F101EC59FF4FE2
S1133B80608371838283938320E030E0A901C701BD
S1133B90B6010E94573B181644F5F101E459FF4F52
S1133BA0FE83ED8378972081318142815381C7015F
S1133BB0B6010E94623B4B015C01F101E85AFF4FE0
S1133BC02081318142815381C301B2010E94623B51
S1133BD09B01AC01C501B4010E94E038AD81BE81F6
S1133BE06D937D938D939C93139720E030E0A9010E
S1133BF0C701B6010E94A73987FF27C05101BCE65F
S1133C00AB0EB11CF101EC5AFF4F2081318142818E
S1133C105381C701B6010E94623B6B017C01F10133
S1133C20E85AFF4F2081318142815381C301B2019F
S1133C300E94623B9B01AC01C701B6010E94E138BE
S1133C40F5016083718382839383F801808191817C
S1133C50A281B381E981FA8180839183A283B383B2
S1133C608DEC9CECACE4BEE3ED8DFE8D8083918302
S1133C70A283B3837FC1C301B2010E94573B1816CC
S1133C804CF520E030E0A901C701B6010E94573B82
S1133C9018165CF480E090E0A0E8B0E4F101E45987
S1133CA0FF4F80839183A283B38320E030E0A90196
S1133CB0C701B6010E94A73987FF84C080E090E065
S1133CC0A0E8B0ECF101E459FF4F80839183A28313
S1133CD0B38378C0A981BA812D913D914D915C91B6
S1133CE0C701B6010E94E03869837A838B839C8381
S1133CF0F101EC59FF4F608371838283938320E049
S1133D0030E0A901C701B6010E94573B181644F5DB
S1133D10810104591F4FF101EC5AFF4F2081318179
S1133D2042815381C701B6010E94623B2B013C01D1
S1133D30F101E85AFF4F2081318142815381698129
S1133D407A818B819C810E94623B9B01AC01C301FF
S1133D50B2010E94E038F801608371838283938307
S1133D6020E030E0A901C701B6010E94A73987FF0E
S1133D7029C0810104591F4FF101EC5AFF4F2081E2
S1133D80318142815381C701B6010E94623B2B01FC
S1133D903C01F101E85AFF4F208131814281538176
S1133DA069817A818B819C810E94623B9B01AC0179
S1133DB0C301B2010E94E138D8016D937D938D93C4
S1133DC09C931397F101E859FF4FC082D182E2829C
S1133DD0F382389680E090E0A0E8BFE3808391838B
S1133DE0A283B3836FEF7BE082E091E10E94D34032
S1133DF022E030E049895A896B897C8982E091E12B
S1133E000E94C2426CEF7BE082E091E10E94D340C9
S1133E1022E030E04D895E896F89788D82E091E1FE
S1133E200E94C2426CEF7BE082E091E10E94D340A9
S1133E3022E030E0498D5A8D6B8D7C8D82E091E1DA
S1133E400E94C2426CEF7BE082E091E10E94D34089
S1133E506EEF7BE082E091E10E94D34022E030E00B
S1133E60B501A40182E091E10E94C2426CEF7BE0C3
S1133E7082E091E10E94D34022E030E04CA95DA9A8
S1133E806EA97FA982E091E10E94C2426CEF7BE0BF
S1133E9082E091E10E94D34064E07CE082E091E121
S1133EA00E94D34022E030E04D855E856F8578899D
S1133EB082E091E10E94C2426EE07CE082E091E106
S1133EC00E94D34022E030E04D815E816F8178858D
S1133ED082E091E10E94C24262E17CE082E091E1F1
S1133EE00E94D34022E030E049855A856B857C8569
S1133EF082E091E10E94C24266E17CE082E091E1CD
S1133F000E94D340F101E45AFF4F40815181628104
S1133F10738122E030E082E091E10E94C24264E2D7
S1133F207CE082E091E10E94D340F101E05AFF4F2E
S1133F30408151816281738122E030E082E091E12D
S1133F400E94C24260E37CE082E091E10E94D3409F
S1133F50F101E459FF4F408151816281738122E074
S1133F6030E082E091E10E94C24282E091E10E944D
S1133F70DB4080E06E960FB6F894DEBF0FBECDBF77
S1133F80DF91CF911F910F91FF90EF90DF90CF9031
S1133F90BF90AF909F908F907F906F905F904F9065
S1133FA03F902F9008952F923F924F925F926F927D
S1133FB07F928F929F92AF92BF92CF92DF92EF92B5
S1133FC0FF920F931F93CF93DF93CDB7DEB72C9758
S1133FD00FB6F894DEBF0FBECDBF9C878B87498395
S1133FE05A836B837C830D831E832F8338878A01D6
S1133FF09B014D815E816F8178857BDC6B017C0147
S11340002B843C8420E6220E311CF10160837183F1
S1134010828393834B015C01E894B7F820E030E09D
S113402040EA50E4C501B4010E94A73987FD20C1CC
S113403020E030E048E452E4C501B4010E94573B5B
S11340400B851C8504591F4F2B853C8528593F4FF0
S11340503A87298718162CF520E030E0A901C7011A
S1134060B6010E94573B18164CF480E090E0A0E0A3
S1134070B0E4F80180839183A283B38320E030E02D
S1134080A901C701B6010E94A73987FF7EC080E05D
S113409090E0A0E0B0ECF80180839183A283B38325
S11340A074C0E985FA852081318142815381C70139
S11340B0B6010E94E0384B015C01EB85FC85EC59AC
S11340C0FF4F608371838283938320E030E0A901F2
S11340D0C701B6010E94573B18162CF5EB85FC85E9
S11340E0EC5AFF4F2081318142815381C701B601CF
S11340F00E94623B2B013C01EB85FC85E85AFF4F93
S11341002081318142815381C501B4010E94623B07
S11341109B01AC01C301B2010E94E038F801608345
S113412071838283938320E030E0A901C701B60143
S11341300E94A73987FF29C00B851C8504591F4F8E
S1134140EB85FC85EC5AFF4F2081318142815381FC
S1134150C701B6010E94623B2B013C01EB85FC8543
S1134160E85AFF4F2081318142815381C501B40156
S11341700E94623B9B01AC01C301B2010E94E13881
S1134180F8016083718382839383E985FA85C08211
S1134190D182E282F382EB85FC85E059FF4F1082E5
S11341A011821282138222E030E049815A816B81AC
S11341B07C8182E091E10E94C2426CEF7BE082E06C
S11341C091E10E94D3406FE37CE082E091E10E94A0
S11341D0D34022E030E04D815E816F81788582E0BA
S11341E091E10E94C2426CEF7BE082E091E10E9487
S11341F0D34066E17CE082E091E10E94D340EB850C
S1134200FC85E45AFF4F408151816281738122E031
S113421030E082E091E10E94C24264E27CE082E00C
S113422091E10E94D340F101408151816281738107
S113423022E030E082E091E10E94C24260E37CE04F
S113424082E091E10E94D340EB85FC85E459FF4F65
S1134250408151816281738122E030E082E091E10A
S11342600E94C24282E091E10E94DB4080E001C0F2
S113427081E02C960FB6F894DEBF0FBECDBFDF9160
S1134280CF911F910F91FF90EF90DF90CF90BF904F
S1134290AF909F908F907F906F905F904F903F90E2
S11342A02F9008952F923F924F925F926F927F9238
S11342B08F929F92AF92BF92CF92DF92EF92FF9232
S11342C00F931F93CF93DF93EC012A013B01480125
S11342D059018A019B01B501A4010BDB6B017C012F
S11342E01E0180E6280E311CF101C082D182E282D7
S11342F0F382C701B6019F7720E030E040E85FE336
S11343000E94A73987FD8AC020E030E0A901C701D7
S1134310B6010E94573B8E0104591F4F18164CF4E6
S113432080E090E0A0E8BFE3F80180839183A2835A
S1134330B38320E030E0A901C701B6010E94A73988
S113434087FF09C080E090E0A0E8BFEBF80180831C
S11343509183A283B383FE01E059FF4F108211823F
S11343601282138222E030E0B301A20182E091E1E3
S11343700E94C2426CEF7BE082E091E10E94D34054
S11343806FE37CE082E091E10E94D34022E030E0E0
S1134390B501A40182E091E10E94C2426CEF7BE08E
S11343A082E091E10E94D34066E17CE082E091E109
S11343B00E94D340C45ADF4F488159816A817B816E
S11343C022E030E082E091E10E94C24264E27CE0BB
S11343D082E091E10E94D340F101408151816281E8
S11343E0738122E030E082E091E10E94C24260E306
S11343F07CE082E091E10E94D340F8014081518148
S11344006281738122E030E082E091E10E94C24245
S113441082E091E10E94DB4080E001C081E0DF9115
S1134420CF911F910F91FF90EF90DF90CF90BF90AD
S1134430AF909F908F907F906F905F904F903F9040
S11344402F90089581E89EE0FBC8FC0181E0468935
S11344505789208D318D4217530709F480E0089560
S1134460FC01208D318D86899789822793276823C3
S1134470792381E0672B09F480E00895DC015896E4
S1134480ED91FC915997AF014095509546235723E0
S113449091E0452B09F490E056962D913C91579765
S11344A02E273F276223732381E0672B09F480E0E2
S11344B089230895DC015696ED91FC915797AF013D
S11344C0409550954623572391E0452B09F490E0FD
S11344D058962D913C9159972E273F276223732399
S11344E081E0672B09F480E089230895FC01808D25
S11344F0918D809590956823792381E0672B09F449
S113450080E00895860F911DFC0180810895FC01CF
S113451083A5833031F0813031F08C3031F080E08C
S1134520089581E0089582E0089583E00895DC0110
S11345309FB7F8945B96ED91FC915C9720815A9615
S11345408C91822B80839FBF0895DC019FB7F894E0
S11345505E96ED91FC915F9720815D968C91822B04
S113456080839FBF08958F929F92AF92BF92CF9204
S1134570DF92EF92FF920F931F93CF93DF93EC019F
S113458000E010E0F12CC62ED12C812C912C54018A
S11345908394E02EC601002E02C0959587950A9457
S11345A0E2F780FF03C0CE01D0DF0AC02FB7F89432
S11345B0EE8DFF8D90818D8D8095892380832FBF13
S11345C02FB7F894EB8DFC8D90818A8D809589238B
S11345D080832FBF84E090E00E945345ECA1FDA1AD
S11345E090818BA1892351F0D501C40104C0880FA7
S11345F0991FAA1FBB1FEA94D2F7F82ACE0197DFAE
S11346000F5F1F4F0830110509F0C3CFCE019DDFA6
S113461083E090E00E9453458F2DDF91CF911F914D
S11346200F91FF90EF90DF90CF90BF90AF909F904D
S11346308F900895DC019FB7F8949196ED91FC91C9
S11346409297208190968C91822B80839FBF0895AE
S1134650DC012FB7F8949196ED91FC91929790819B
S113466090968C918095892380832FBF0895CF9253
S1134670DF92EF92FF920F931F93CF93DF93EC019E
S11346806B01042FE5DF760110E0C7018C199D0949
S11346908017910734F4F70161917F01CE0163DF44
S11346A0F4CFCE01C7DF6AA570E080E090E0DF912F
S11346B0CF911F910F91FF90EF90DF90CF900C94CA
S11346C01A45CF93DF93EC0145E068E376E0CFDF52
S11346D049E06FE276E0CE01CADF8CA5882329F099
S11346E045E068E176E0CE01C2DF8DA5882329F09C
S11346F049E066E276E0CE01BADF49E06DE176E0BA
S1134700CE01DF91CF91B3CF2F923F924F925F9220
S11347106F927F928F929F92AF92BF92CF92DF92CD
S1134720EF92FF920F931F93CF93DF93CDB7DEB732
S113473029970FB6F894DEBF0FBECDBF4C01762E7D
S1134740142F0E94E944F401C6A0D7A0E0A4F1A468
S11347506C197D098E099F090E94473A6B017C01FF
S113476020E030E84BEB54E40E94573B181614F455
S1134770C401A7DFF40162A570E080E090E00E942C
S1134780493A1B012C019B01AC01C701B6010E94EF
S1134790A73987FF0AC0A7019601C201B1010E948F
S11347A0E0380E941B3A0E941A451123E1F0612F60
S11347B070E080E090E01F921F921F922FEF2F93E2
S11347C020E4A22EB12CC12CD12CE12CF12C870198
S11347D0EA9420E030E0A9010E94A846162F0F9029
S11347E00F900F900F90CE0101967C0189E0F701A4
S11347F011928A95E9F781E0898382E48A837C8235
S11348001D8385E0382E8E01065F1F4F6401F9E099
S1134810CF0ED11C540185E1A80EB11CC40195DE54
S1134820C40185DEC40114DF83E090E00E94534597
S113483027013401F20161912F01C40194DEF301D7
S113484081933F0140165106A9F7F401818189370C
S113485041F0C401EFDEF4018181807F803761F48F
S113486017C0360160E0C4017EDEF30181933F018D
S1134870EA15FB05B9F7EDCFC40123DFF40162A506
S113488070E080E090E00E941A453A943110C6CF5F
S1134890F4018181807F803731F0F40182A58A3070
S11348A010F48F5F82A7F401808D918D978B868B96
S11348B083819481918F808F0E94E944F40166A3DF
S11348C077A380A791A79181907F81E0903709F029
S11348D080E029960FB6F894DEBF0FBECDBFDF91FE
S11348E0CF911F910F91FF90EF90DF90CF90BF90E9
S11348F0AF909F908F907F906F905F904F903F907C
S11349002F90089540E060E0FFCE6F927F928F92E7
S11349109F92AF92BF92CF92EF92FF920F931F9309
S1134920CF93DF93CDB7DEB72B970FB6F894DEBFE6
S11349300FBECDBF5C01862F70E0FB01E65DF84F32
S1134940E491D5015A96EC935A97FB01E059F84F3C
S1134950E491F0E0EE0FFF1FE053F84F659174917E
S1134960F501748F638F642F70E0FB01E65DF84FEF
S1134970E4915D96EC935D97FB01E059F84FE49167
S1134980F0E0EE0FFF1FE053F84F65917491F501CD
S1134990778F668F622F70E0FB01E65DF84FE4913C
S11349A09096EC93FB01E059F84FE491F0E0EE0FA0
S11349B0FF1FE053F84F65917491F50172A361A351
S11349C0A02FB0E0FD01E65DF84F9491F50193A3AB
S11349D0FD01E059F84FE491F0E0EE0FFF1FEA54B7
S11349E0F84F65917491D50195967C936E93949745
S11349F061E02A874B870E94154661E02A85822F51
S1134A000E94154661E04B85842F0E94154660E0A4
S1134A10802F0E94154661E0802F0E945146C501F7
S1134A2094DDC50184DDC5016DDFC5016BDFF501D2
S1134A3081818134D9F08337C9F08937B9F063E4CF
S1134A407CE082E091E10E94DE4066E77CE082E067
S1134A5091E10E94D34040E150E0D50111966C9160
S1134A6082E091E10E94C44181E07EC081E0F501D1
S1134A7082A78BE0882E912CFF24F39445E068E311
S1134A8076E0C501F4DD83E090E00E945345C50162
S1134A905CDDC5014CDDC501DBDD83E090E00E94F7
S1134AA053450FEC1CE0CE0101963C01D8016D91F9
S1134AB08D01C50158DDF30181933F01FCE0083D00
S1134AC01F07A1F7C501B6DD8C81D5019B968C9398
S1134AD049E06FE276E0C501CADDCC2039F045E05B
S1134AE068E176E0C501C3DDF501F4A6EE2041F0EE
S1134AF049E066E276E0C501BADDD5019D96FC92F7
S1134B0049E06DE176E0C501B2DDC501FBDEF501EA
S1134B108181EE2021F0893731F1833711F1833718
S1134B2011F1F1E08F1A9108B9F46CE97CE082E0AC
S1134B3091E10E94DE406EEB7CE082E091E10E9414
S1134B40D34040E150E0D50111966C9182E091E1AF
S1134B500E94C44182E008C0F50182A58F5F82A74C
S1134B608DCF83E001C080E02B960FB6F894DEBFB2
S1134B700FBECDBFDF91CF911F910F91FF90EF90AA
S1134B80CF90BF90AF909F908F907F906F9008953B
S1134B90FC01108211821282138214821582168201
S1134BA01782108611861286138614861586168639
S1134BB01786108A118A128A138A148A158A168A09
S1134BC0178A108E118E128E138E148E158E168ED9
S1134BD0178E10A211A212A213A28FEF84A385A391
S1134BE016A217A280A780E881A712A613A684E6BE
S1134BF084A715A608951F93CF93DF93EC0187EA4A
S1134C0090E10E94DE3649E050E068E070E087EA17
S1134C1090E10E94773711E087EA90E10E9415360F
S1134C20892B09F464C087EA90E10E941D368983C8
S1134C3087EA90E10E941D368A8387EA90E10E9408
S1134C401D368B8387EA90E10E941D368C8387EAA8
S1134C5090E10E941D368D8387EA90E10E941D3603
S1134C608E8387EA90E10E941D368F8387EA90E164
S1134C700E941D36888787EA90E10E941D3689A329
S1134C80698170E0762F66278A81682B072E000CD5
S1134C90880B990B0E94493A69877A878B879C878E
S1134CA06B8170E0762F66278C81682B072E000CB1
S1134CB0880B990B0E94493A6D877E878F87988B62
S1134CC06D8170E0762F66278E81682B072E000C8D
S1134CD0880B990B0E94493A698B7A8B8B8B9C8B3E
S1134CE08885811102C0188397CF188295CF68ED0B
S1134CF07CE082E091E10E94D3404AE050E06F8181
S1134D0082E091E10E94BE4160EE7CE082E091E1AC
S1134D100E94D3404AE050E0688582E091E10E941D
S1134D20BE4168EE7CE082E091E10E94D34068815C
S1134D3070E04AE050E082E091E1DF91CF911F9171
S1134D400C948D414F925F926F927F928F929F92BB
S1134D50AF92BF92CF92DF92EF92FF92CF93DF9305
S1134D60CDB7DEB728970FB6F894DEBF0FBECDBF20
S1134D706091251070912610809127109091281031
S1134D800E94493A21EE3AE744E95FE30E94623B1C
S1134D9020E030E040E05BE30E94623B2BED3FE02B
S1134DA049E450E40E94623B20E030E048E152E4F0
S1134DB00E94623B6093191070931A1080931B1029
S1134DC090931C1010922510109226101092271008
S1134DD0109228106091211070912210809123105C
S1134DE0909124100E94493A21EE3AE744E95FE3A6
S1134DF00E94623B20E030E040E05BE30E94623BC3
S1134E002BED3FE049E450E40E94623B20E030E0B7
S1134E1048E152E40E94623B4B015C01609315102F
S1134E2070931610809317109093181010922110FD
S1134E3010922210109223101092241060911D10D1
S1134E4070911E1080911F10909120100E94493A79
S1134E5021EE3AE744E95FE30E94623B20E030E060
S1134E6040E85BE30E94623B2BED3FE049E450E401
S1134E700E94623B20E030E048E152E40E94623B41
S1134E802B013C0160931110709312108093131046
S1134E909093141010921D1010921E1010921F1057
S1134EA01092201020E030E044E353E46091080EB7
S1134EB07091090E80910A0E90910B0E0E94AE39EA
S1134EC02BED3FE049E450E40E94623B6B017C011E
S1134ED06093051070930610809307109093081048
S1134EE0A3019201C501B4010E94E03820E030E042
S1134EF040E05FE30E94623B2B013C01C092011041
S1134F00D0920210E0920310F0920410C701B6018F
S1134F100E94AB396D837E838F839887C701B60166
S1134F200E94113C4B015C0120E030E0A9016D813D
S1134F307E818F8198850E94623B69837A838B830B
S1134F409C83A5019401C301B2010E94623B9B01B1
S1134F50AC0169817A818B819C810E94E138209126
S1134F600D1030910E1040910F10509110100E94AE
S1134F70E13869837A838B839C8360930D107093EB
S1134F800E1080930F10909310102D813E814F814D
S1134F905885C301B2010E94623B2B013C0120E011
S1134FA030E0A901C501B4010E94623B9B01AC0140
S1134FB0C301B2010E94E0382091091030910A1017
S1134FC040910B1050910C100E94E138609309102D
S1134FD070930A1080930B1090930C1029813A81DE
S1134FE04B815C8120933110309332104093331005
S1134FF05093341060932D1070932E1080932F10C3
S1135000909330102BED3FE049E450E4C701B60122
S11350100E94AE3920E030E044E353E40E94623B56
S11350206093291070932A1080932B1090932C1066
S113503028960FB6F894DEBF0FBECDBFDF91CF9197
S1135040FF90EF90DF90CF90BF90AF909F908F90A4
S11350507F906F905F904F900895E2EAFFE0918D0A
S113506081E08927818F88E09EE00E94C60F68EC6A
S113507070E080E090E00C941A4584E00E94804641
S1135080409125105091261060912710709128109E
S1135090019729F4415051096109710904C04F5F16
S11350A05F4F6F4F7F4F40932510509326106093AE
S11350B0271070932810089585E00E94804640913F
S11350C021105091221060912310709124100197A7
S11350D029F44F5F5F4F6F4F7F4F04C04150510918
S11350E06109710940932110509322106093231099
S11350F070932410089586E00E94804640911D100C
S113510050911E1060911F1070912010019729F486
S11351104F5F5F4F6F4F7F4F04C04150510961098A
S1135120710940931D1050931E1060931F107093CB
S1135130201008958F929F92AF92BF92CF92DF92E8
S1135140EF92FF920F931F938091BB0F811130C791
S11351508091011181119EC28091030F9091040FDF
S1135160892BA1F5C0902910D0902A10E0902B1023
S1135170F0902C1000912D1010912E1020912F10D2
S113518030913010409131105091321060913310B1
S11351907091341084E48F938FEA8F931F921F923F
S11351A0812C912C540181E89EE00E94B61C0F9042
S11351B00F900F900F90882349F08091030F9091E6
S11351C0040F01969093040F8093030F8091030FB3
S11351D09091040F0197D9F44091291050912A100D
S11351E060912B1070912C1000E010E024EB32E45D
S11351F081E89EE00E94D31F882349F08091030F29
S11352009091040F01969093040F8093030F809163
S1135210030F9091040F0297C9F5C0902910D09004
S11352202A10E0902B10F0902C1000912D1010916A
S11352302E1020912F103091301040913110509148
S11352403210609133107091341084E48F938CEC9D
S11352508F9380EA8F931F92812C90E4992E9FE084
S1135260A92E94E4B92E81E89EE00E94B61C0F900A
S11352700F900F900F90882349F08091030F909125
S1135280040F01969093040F8093030F8091030FF2
S11352909091040F0397C9F5C0902910D0902A105B
S11352A0E0902B10F0902C1000912D1010912E10E6
S11352B020912F10309130104091311050913210C4
S11352C0609133107091341085E48F938AE08F934A
S11352D080E28F931F92812C80E8982E8AE4A82E76
S11352E084E4B82E81E89EE00E94B61C0F900F90D3
S11352F00F900F90882349F08091030F9091040F31
S113530001969093040F8093030F8091030F909163
S1135310040F0497C9F5C0902910D0902A10E0908A
S11353202B10F0902C1000912D1010912E10209124
S11353302F10309130104091311050913210609103
S113534033107091341085E48F938DE28F9380EE47
S11353508F931F92812CB0E49B2EBFE0AB2EB4E45C
S1135360BB2E81E89EE00E94B61C0F900F900F9018
S11353700F90882349F08091030F9091040F0196B8
S11353809093040F8093030F8091030F9091040F67
S11353900597A9F5C0902910D0902A10E0902B1001
S11353A0F0902C1000912D1010912E1020912F10A0
S11353B0309130104091311050913210609133107F
S11353C07091341085E48F938CE38F9380EC8F93EA
S11353D01F92812C912C540181E89EE00E94B61CFE
S11353E00F900F900F900F90882349F08091030F36
S11353F09091040F01969093040F8093030F809172
S1135400030F9091040F0697C9F5C0902910D0900E
S11354102A10E0902B10F0902C1000912D10109178
S11354202E1020912F103091301040913110509156
S11354303210609133107091341085E48F938DE2B3
S11354408F9380EE8F931F92812CA0E49A2EAFE06D
S1135450AA2EA4ECBA2E81E89EE00E94B61C0F90FE
S11354600F900F900F90882349F08091030F909133
S1135470040F01969093040F8093030F8091030F00
S11354809091040F0797C9F5C0902910D0902A1065
S1135490E0902B10F0902C1000912D1010912E10F4
S11354A020912F10309130104091311050913210D2
S11354B0609133107091341085E48F938AE08F9358
S11354C080E28F931F92812CF0E89F2EFAE4AF2E96
S11354D0F4ECBF2E81E89EE00E94B61C0F900F9062
S11354E00F900F90882349F08091030F9091040F3F
S11354F001969093040F8093030F8091030F909172
S1135500040F0897C9F5C0902910D0902A10E09094
S11355102B10F0902C1000912D1010912E10209132
S11355202F10309130104091311050913210609111
S113553033107091341084E48F938CEC8F9380EA51
S11355408F931F92812CE0E49E2EEFE0AE2EE4ECCC
S1135550BE2E81E89EE00E94B61C0F900F900F9023
S11355600F90882349F08091030F9091040F0196C6
S11355709093040F8093030F8091030F9091040F75
S11355800997C1F5C0902910D0902A10E0902B10F3
S1135590F0902C1000912D1010912E1020912F10AE
S11355A0309130104091311050913210609133108D
S11355B07091341084E48F9388EA8F9380EC8F93F6
S11355C01F92812C912C98ECA92E92ECB92E81E893
S11355D09EE00E94B61C0F900F900F900F908823AE
S11355E049F08091030F9091040F01969093040F5A
S11355F08093030F8091030F9091040F0A97D9F4BD
S11356004091291050912A1060912B1070912C1008
S113561000E010E023E333EC81E89EE00E94D31F16
S1135620882349F08091030F9091040F0196909381
S1135630040F8093030F8091030F9091040F0B9735
S113564031F48CE090E09093040F8093030F67EFA4
S11356507CE082E091E10E94D3406CEF7BE082E049
S113566091E10E94D3408091030F9091040F0C9715
S11356708CF081E0809301111092040F1092030FBB
S11356806BE07DE082E091E10E94DE401092950F94
S11356901092940F80910111813009F09BC06DE24A
S11356A07DE082E091E10E94DE406CEF7BE082E0ED
S11356B091E10E94D34080913F06813061F567E417
S11356C07DE082E091E10E94D3406CEF7BE082E0D8
S11356D091E10E94D3404091291050912A10609189
S11356E02B1070912C1000E010E023E333E481E8E8
S11356F09EE00E945221882371F08091940F909132
S1135700950F01969093950F8093940F04971CF036
S113571082E080933F0680913F06823009F043C0C7
S113572063E57DE082E091E10E94D3406CEF7BE091
S113573082E091E10E94D34080E090E0A0E8BFEBDA
S11357408093F10E9093F20EA093F30EB093F40EA7
S11357501092ED0E1092EE0E1092EF0E1092F00ECB
S113576080910B0F8823F9F06DE57DE082E091E1F3
S11357700E94D3406CEF7BE082E091E10E94D34031
S11357801092F10E1092F20E1092F30E1092F40E8B
S11357901092ED0E1092EE0E1092EF0E1092F00E8B
S11357A084E080933F0680913F06843099F420E0A2
S11357B030E04AEF54E460912D1070912E108091E6
S11357C02F10909130100E94A73918161CF083E016
S11357D08093011180910111853009F09BC267E625
S11357E07DE082E091E10E94D3406CEF7BE082E0B7
S11357F091E10E94D3408091030F9091040F892B73
S1135800A1F5C0902910D0902A10E0902B10F090B0
S11358102C1000912D1010912E1020912F103091EA
S113582030104091311050913210609133107091CA
S1135830341084E48F9386E98F931F921F92812CF6
S1135840912C540181E89EE00E94B61C0F900F90A9
S11358500F900F90882349F08091030F9091040FCB
S113586001969093040F8093030F8091030F9091FE
S1135870040F0197D9F44091291050912A10609196
S11358802B1070912C1000E010E024EB32E481E83E
S11358909EE00E94D31F882349F08091030F9091CA
S11358A0040F01969093040F8093030F8091030FCC
S11358B09091040F0297C1F5C0902910D0902A103E
S11358C0E0902B10F0902C1000912D1010912E10C0
S11358D020912F103091301040913110509132109E
S11358E0609133107091341084E48F938BEB8F9319
S11358F01F921F92812C80E8982E82E3A82E84E4C4
S1135900B82E81E89EE00E94B61C0F900F900F9075
S11359100F90882349F08091030F9091040F019612
S11359209093040F8093030F8091030F9091040FC1
S11359300397C9F5C0902910D0902A10E0902B103D
S1135940F0902C1000912D1010912E1020912F10FA
S113595030913010409131105091321060913310D9
S11359607091341085E48F938AE08F9380E28F9353
S11359701F92812CB0E89B2EBCE7AB2EB4E4BB2E67
S113598081E89EE00E94B61C0F900F900F900F903C
S1135990882349F08091030F9091040F019690930E
S11359A0040F8093030F8091030F9091040F0497C9
S11359B0C9F5C0902910D0902A10E0902B10F090D7
S11359C02C1000912D1010912E1020912F10309139
S11359D03010409131105091321060913310709119
S11359E0341085E48F9386E38F9380EC8F931F921A
S11359F0812CA0E89A2EA2E3AA2EA4E4BA2E81E870
S1135A009EE00E94B61C0F900F900F900F90882379
S1135A1049F08091030F9091040F01969093040F25
S1135A208093030F8091030F9091040F0597A9F5BC
S1135A30C0902910D0902A10E0902B10F0902C10D8
S1135A4000912D1010912E1020912F1030913010B4
S1135A504091311050913210609133107091341094
S1135A6085E48F9389E48F9380E48F931F92812C34
S1135A70912C540181E89EE00E94B61C0F900F9077
S1135A800F900F90882349F08091030F9091040F99
S1135A9001969093040F8093030F8091030F9091CC
S1135AA0040F0697C9F5C0902910D0902A10E090F1
S1135AB02B10F0902C1000912D1010912E1020918D
S1135AC02F1030913010409131105091321060916C
S1135AD033107091341085E48F9386E38F9380ECB8
S1135AE08F931F92812CF0E89F2EF2E3AF2EF4ECFB
S1135AF0BF2E81E89EE00E94B61C0F900F900F907D
S1135B000F90882349F08091030F9091040F019620
S1135B109093040F8093030F8091030F9091040FCF
S1135B200797C9F5C0902910D0902A10E0902B1047
S1135B30F0902C1000912D1010912E1020912F1008
S1135B4030913010409131105091321060913310E7
S1135B507091341085E48F938AE08F9380E28F9361
S1135B601F92812CE0E89E2EECE7AE2EE4ECBE2ED4
S1135B7081E89EE00E94B61C0F900F900F900F904A
S1135B80882349F08091030F9091040F019690931C
S1135B90040F8093030F8091030F9091040F0897D3
S1135BA0C1F5C0902910D0902A10E0902B10F090ED
S1135BB02C1000912D1010912E1020912F10309147
S1135BC03010409131105091321060913310709127
S1135BD0341084E48F938BEB8F931F921F92812C4C
S1135BE090E8992E92E3A92E94ECB92E81E89EE0D8
S1135BF00E94B61C0F900F900F900F90882349F0CD
S1135C008091030F9091040F01969093040F809359
S1135C10030F8091030F9091040F0997C1F5C09071
S1135C202910D0902A10E0902B10F0902C100091A5
S1135C302D1010912E1020912F1030913010409182
S1135C40311050913210609133107091341084E40B
S1135C508F938CE98F9380E48F931F92812C912CE6
S1135C6086E9A82E82ECB82E81E89EE00E94B61C3C
S1135C700F900F900F900F90882349F08091030F9D
S1135C809091040F01969093040F8093030F8091D9
S1135C90030F9091040F0A97D9F440912910509161
S1135CA02A1060912B1070912C1000E010E023E377
S1135CB033EC81E89EE00E94D31F882349F0809151
S1135CC0030F9091040F01969093040F8093030F98
S1135CD08091030F9091040F0B9731F48CE090E0C6
S1135CE09093040F8093030F8091030F9091040FFE
