S0150000736B657463685F6665623033612E737265633D
S113000008C400000C9442390C946D390C9498394E
S11300100C94C3390C94EE390C94193A0C94443A68
S11300200C946F3A27C4000025C4000023C40000C8
S113003021C400001FC400001DC400001BC4000034
S113004019C400000C94D62E15C4000013C400007B
S113005011C400000FC400000DC400000C949A3AAF
S113006009C400000C94E8340C941E3503C4000049
S113007001C40000FFC30000FDC30000FBC3000077
S11300800C943917F7C30000F5C30000F3C3000054
S1130090F1C30000EFC30000EDC300000C944D2B2E
S11300A0E9C30000E7C30000E5C30000E3C30000A8
S11300B0E1C30000DFC30000DDC30000DBC30000B8
S11300C0D9C30000D7C30000D5C300000C947D350C
S11300D00C94B335CFC300000C9412360C944836FC
S11300E0C9C30000084AD73B3BCE016E84BCBFFDA8
S11300F0C12F3D6C74319ABD56833DDA3D00C77FF4
S113010011BED9E4BB4C3E916BAAAABE000000808C
S11301103F05A84CCDB2D44EB93836A9020C50B91B
S1130120918688083CA6AAAA2ABE000000803F0740
S1130130634236B79BD8A71A39685618AEBAAB557E
S11301408C1D3CB7CC5763BD6DEDFD753EF6177243
S113015031BF000000803F08000000BE9224491215
S11301603EABAAAA2ABECDCCCC4C3E00000080BE39
S1130170ABAAAAAA3E00000000BF000000803F0016
S113018000000000084178D3BB4387D1133D190E0A
S11301903CC3BD4282AD2B3E68EC8276BED98FE172
S11301A0A93E4C80EFFFBE01C4FF7F3F000000006A
S11301B000001C39E638EE38FA3807392839353961
S11301C0D53BD83BC73BCB3BD13B0F3CDC3BE03B77
S11301D0E63BEA3BEE3BF43BF83BFC3B0F3C023C8A
S11301E0063C0A3C00000000003E5B4F5B3E3E6B59
S11301F04F6B3E1C3E7C3E1C183C7E3C181C577DBD
S1130200571C1C5E7F5E1C00183C1800FFE7C3E708
S1130210FF0018241800FFE7DBE7FF30483A060E1A
S11302202629792926407F050507407F05253F5A61
S11302303CE73C5A7F3E1C1C08081C1C3E7F1422D1
S11302407F22145F5F005F5F06097F017F0066897C
S1130250956A606060606094A2FFA29408047E04C2
S11302600810207E201008082A1C08081C2A0808E8
S11302701E101010100C1E0C1E0C30383E383006A8
S11302800E3E0E06000000000000005F00000007A4
S1130290000700147F147F14242A7F2A12231308D2
S11302A0646236495620500008070300001C2241AE
S11302B0000041221C002A1C7F1C2A08083E080852
S11302C00080703000080808080800006060002002
S11302D0100804023E5149453E00427F40007249E5
S11302E04949462141494D331814127F1027454589
S11302F045393C4A4949314121110907364949499F
S113030036464949291E000014000000403400000C
S11303100008142241141414141400412214080275
S1130320015909063E415D594E7C1211127C7F49E8
S11303304949363E414141227F4141413E7F49493D
S113034049417F090909013E414151737F08080869
S11303507F00417F41002040413F017F081422413A
S11303607F404040407F021C027F7F0408107F3E94
S11303704141413E7F090909063E4151215E7F0901
S1130380192946264949493203017F01033F404068
S1130390403F1F2040201F3F4038403F6314081453
S11303A06303047804036159494D43007F4141418B
S11303B00204081020004141417F0402010204406C
S11303C040404040000307080020545478407F28F0
S11303D04444383844444428384444287F385454E6
S11303E0541800087E090218A4A49C787F08040409
S11303F07800447D40002040403D007F10284400A8
S113040000417F40007C047804787C080404783838
S113041044444438FC1824241818242418FC7C0868
S1130420040408485454542404043F44243C4040E5
S1130430207C1C2040201C3C4030403C4428102898
S1130440444C9090907C4464544C440008364100E1
S11304500000770000004136080002010204023C5B
S11304602623263C1EA1A161123A4040207A38542A
S113047054555921555579412254547842215554A3
S1130480784020545579400C1E52721239555555F6
S113049059395454545939555454580000457C41E1
S11304A00002457D420001457C407D1211127DF021
S11304B0282528F07C545545002054547C547C0A4B
S11304C0097F4932494949323A4444443A324A4814
S11304D048303A4141217A3A42402078009DA0A018
S11304E07D3D4242423D3D4040403D3C24FF24246A
S11304F0487E4943662B2FFC2F2BFF0929F620C089
S1130500887E090320545479410000447D413048D9
S1130510484A32384040227A007A0A0A727D0D191C
S1130520317D2629292F28262929292630484D407E
S113053020380808080808080808382F10C8ACBA7A
S11305402F102834FA00007B000008142A142222F9
S1130550142A14085500550055AA55AA55AAFF5542
S1130560FF55FF000000FF00101010FF00141414CA
S1130570FF001010FF00FF1010F010F0141414FC12
S1130580001414F700FF0000FF00FF1414F404FC2F
S1130590141417101F10101F101F1414141F001010
S11305A01010F0000000001F101010101F10101089
S11305B010F010000000FF10101010101010101098
S11305C0FF10000000FF140000FF00FF00001F10D8
S11305D0170000FC04F414141710171414F404F492
S11305E00000FF00F714141414141414F700F71483
S11305F01414171410101F101F141414F4141010D2
S1130600F010F000001F101F0000001F1400000075
S1130610FC140000F010F01010FF10FF141414FF6D
S1130620141010101F00000000F010FFFFFFFFFF68
S1130630F0F0F0F0F0FFFFFF0000000000FFFF0FFC
S11306400F0F0F0F3844443844FC4A4A4A347E02A0
S1130650020606027E027E02635549416338444421
S11306603C04407E201E2006027E020299A5E7A5D6
S1130670991C2A492A1C4C7201724C304A4D4D3047
S11306803048784830BC625A463D3E494949007E6C
S11306900101017E2A2A2A2A2A44445F4444405103
S11306A04A444040444A51400000FF0103E080FFB7
S11306B0000008086B6B083612362436060F090F43
S11306C006000018180000001010003040FF01015F
S11306D0001F01011E00191D1712003C3C3C3C0088
S11306E00000000000000A0B02090C0D0E080703AD
S11306F004010000000000000000000000000000F1
S113070000000000000000000000000000000000E5
S113071012111000000000000000000000000000A2
S1130720000000000000000000000102102020086A
S11307300810204010204080020102010804020138
S113074001020408102040808040201008040201A7
S11307508004020180402010080402010804020100
S11307600102040810204080010204081020408087
S113077005050505070508080808020202020A0A19
S11307800808040404040101010101010101030337
S1130790030303030303040707070C0C0C0C0C0CE2
S11307A00C0C0202020206060606060606060B0BDF
S11307B00B0B0B0B0B0B0000200023002600290061
S11307C02C002F0032000001000003010601090182
S11307D000002200250028002B002E0031003400E8
S11307E002010000050108010B01000021002400A2
S11307F027002A002D00300033000101000004010D
S113080007010A016F144D25E32D5035E5357A367D
S1130810A52511241FBECFEFD1E2DEBFCDBF00E07E
S11308200CBF1CE0A0E0B2E0EEEFF0E800E00BBF8C
S113083002C007900D92AA36B107D9F721E1AAE6C2
S1130840BCE001C01D92A634B207E1F714E0C8E091
S1130850D4E000E006C021970109802FFE010E9428
S1130860113EC230D10780E00807A9F70E94A836DC
S11308700C946E40C5CB80E090E0089508952F92CB
S11308803F924F925F926F927F928F929F92AF921C
S1130890BF92CF92DF92EF92FF920F931F93CF9369
S11308A0DF9300D0CDB7DEB74C017B836A836A0146
S11308B0590117019801241B350B37FF03C03195EB
S11308C021953109C5014A815B81841B950B97FFF2
S11308D003C091958195910951E05983821793073B
S11308E014F019820BC09A2D8B2D5801092F182F43
S11308F09A818B81DB82CA82C92ED82E8A819B8100
S1130900A816B9065CF49C2D8D2D6801092F182FAB
S11309109A818B81BB82AA82A92EB82E2501AA8135
S1130920BB814A1A5B0A38016C187D0877FE03C044
S1130930719461947108720157FE03C0BFEFEB1A02
S1130940FB0AF594E794C016D1061CF00FEF1FEFD5
S11309501FC001E010E01CC0D401ED91FC91B981ED
S11309600484F585E02D9101BB23C1F04A815B81AC
S1130970B601C4011995E618F708F7FE04C0C00EC5
S1130980D11EE40CF51CEA81FB813196FB83EA83DA
S11309904A815B81A416B506FCF604C0A6016A81EF
S11309A07B81E7CF0F900F900F90DF91CF911F9134
S11309B00F91FF90EF90DF90CF90BF90AF909F90FA
S11309C08F907F906F905F904F903F902F900895FD
S11309D00895DC01ED91FC910084F185E02D1994DA
S11309E00F931F93DC01ED91FC91048CF58DE02DA8
S11309F019951F910F9108950F931F93DC01ED91A9
S1130A00FC91068CF78DE02D19951F910F91089597
S1130A10EF92FF920F931F93DC01ED91FC9100A0E4
S1130A20F1A1E02D19951F910F91FF90EF9008957A
S1130A300895AF92BF92CF92DF92EF92FF920F93FD
S1130A401F93CF93DF9300D01F92CDB7DEB75C0125
S1130A506901DC01ED91FC910284F385E02D4B8367
S1130A605C8369837A831995D501ED91FC914B815F
S1130A705C81C40ED51EB1E0CB1AD1080488F58977
S1130A80E02D7801860169817A819B01C501199560
S1130A90D501ED91FC910688F789E02DC5010F90F1
S1130AA00F900F900F90DF91CF911F910F91FF90B6
S1130AB0EF90DF90CF90BF90AF901994AF92BF9218
S1130AC0CF92DF92EF92FF920F931F93CF93DF9316
S1130AD000D01F92CDB7DEB75C016901DC01ED9156
S1130AE0FC910284F385E02D4B835C8369837A83D4
S1130AF01995D501ED91FC9169817A819B012C0DA9
S1130B003D1D215031090488F589E02D78014B8180
S1130B105C818A01C5011995D501ED91FC91068886
S1130B20F789E02DC5010F900F900F900F90DF9182
S1130B30CF911F910F91FF90EF90DF90CF90BF90D6
S1130B40AF9019944F925F926F927F928F929F927F
S1130B50AF92BF92CF92DF92EF92FF920F931F93C7
S1130B60CF93DF931F921F92CDB7DEB76C015A016A
S1130B7039014801DC01ED91FC910284F385E02DFB
S1130B8069837A8319956981462E7A81572E640C7C
S1130B90751CD601ED91FC91461457046CF4008841
S1130BA0F189E02D87019401A501B201C6011995CF
S1130BB0BFEF4B1A5B0AEDCF0688F789E02DC6011B
S1130BC00F900F90DF91CF911F910F91FF90EF90B5
S1130BD0DF90CF90BF90AF909F908F907F906F9059
S1130BE05F904F901994EF92FF920F931F93DC0143
S1130BF0ED91FC9111971A960D911C911B971896E3
S1130C002D913C91199700A0F1A1E02D7B0140E0CA
S1130C1050E060E070E019951F910F91FF90EF9004
S1130C200895CF92DF92EF92FF920F931F93CF9389
S1130C30DF9300D000D0CDB7DEB76C01DC01ED91BD
S1130C40FC916217730789F4041715072CF4942F89
S1130C50852FA801092F182F041B150B98012F5F4E
S1130C603F4F048CF58DE02D12C04017510709F554
S1130C70261737072CF4962F872FB901292F382FE1
S1130C80261B370B2F5F3F4F068CF78DE02D870116
S1130C90C601199526960FB6F894DEBF0FBECDBFD8
S1130CA0DF91CF911F910F91FF90EF90DF90CF9044
S1130CB008950284F385E02D2D833E834B835C836A
S1130CC069837A831995D601ED91FC910488F5899D
S1130CD0E02D2D813E814B815C8169817A81C60141
S1130CE01995D601ED91FC910688F789E02DC6018E
S1130CF026960FB6F894DEBF0FBECDBFDF91CF911D
S1130D001F910F91FF90EF90DF90CF9019946F9205
S1130D107F928F929F92AF92BF92CF92DF92EF9287
S1130D20FF920F931F93CF93DF93EC014B015A0172
S1130D3069013801E881F9810284F385E02D199570
S1130D40E881F9810288F389E02D87019601A501E4
S1130D50B401CE011995E881F981A501460D571D0D
S1130D60415051090288F389E02D9601B401CE0166
S1130D701995E881F9810088F189E02D9301A50195
S1130D80B401CE011995E881F981C80CD91CB601CA
S1130D90615071090088F189E02D9301A501CE010C
S1130DA01995E881F9810688F789E02DCE01DF9154
S1130DB0CF911F910F91FF90EF90DF90CF90BF9054
S1130DC0AF909F908F907F906F9019940895FC013D
S1130DD06370658B8481958126813781613039F018
S1130DE0633029F09187808733872287089531877C
S1130DF02087938782870895FC011382128283E6F9
S1130E0096E09183808375836483578346837187D7
S1130E10608753874287158A158614861786168637
S1130E2081E0848B2FEF3FEF338B228B318B208B30
S1130E30868B178A118E108E08952F923F924F92AF
S1130E405F926F927F928F929F92AF92BF92CF9256
S1130E50DF92EF92FF920F931F93CF93DF93CDB75F
S1130E60DEB76C970FB6F894DEBF0FBECDBF9C8F74
S1130E708B8F5B011A011F830E833701C982DC014A
S1130E8058964D915C9159974115510509F0E5C06B
S1130E9018968D919C911997681779070CF0CAC11F
S1130EA01A968D919C911B97281639060CF0C2C195
S1130EB08C2C912CFB0136E0C39EE00DF11D112416
S1130EC0FB87EA871E161F060CF0B4C1C40133E089
S1130ED0880F991F3A95E1F79D878C87820D931DA2
S1130EE0181619060CF0A6C157968C91811103C0EF
S1130EF0203B08F02F5FAB8DBC8DED91FC911197D9
S1130F000284F385E02DCD012A8F19952A8DB5E051
S1130F102B9F90011124F5013596FF87EE8725015B
S1130F20BB82AA82A9014A195B09598B488BC1016A
S1130F3008969B8B8A8BE889F989E40DF51DEC51A1
S1130F40FE4F949198873D822C826101A885A0FF71
S1130F5013C0AB8DBC8DED91FC91B981B13031F4EE
S1130F600484F585E02D2E813F8116C00684F78523
S1130F70E02DEE80FF801AC0EE81FF816E167F06A1
S1130F80F1F0AB8DBC8DED91FC91B981B13051F490
S1130F900484F585E02D9301A601B2018B8D9C8D0F
S1130FA019950DC00684F785E02D73018401940121
S1130FB04C815D816A817B818B8D9C8D1995E8853F
S1130FC0E695E8872C813D81280D391D3D832C83CE
S1130FD03FEFC31AD30A4A895B89C416D50609F0C0
S1130FE0B5CF8A819B81880D991D9B838A839FEF4E
S1130FF0491A590AAE85BF854A165B0609F09BCF8C
S1131000EE81FF816E167F0609F4F2C0EB8DFC8D34
S1131010A081B181F981F13079F4B5016B5F7F4F23
S11310205096ED91FC915197830128E030E0A101A5
S11310308B8D9C8D1995DCC06A857B85681979092F
S11310401E96ED91FC911F9773010C851D859401EB
S1131050A1018B8D9C8D1995CBC0FA013496949186
S1131060329765917491291BCB01B7E02B9F800DBA
S1131070911D1124FA01259134913B8B2A8BFC019B
S1131080459154915B834A83FC013296C490319616
S113109054915C87329614913196D4908981823030
S11310A058F0612E012E000C7708AD2D0D2C000C8C
S11310B0BB0BB987A88704C019861886612C712CCC
S11310C0AB8DBC8DED91FC9111970284F385E02DDD
S11310D0CD011995B9818B2E912C689CC001699C16
S11310E0900D789C900D1124FC01EA0DFB1DF98BE9
S11310F0E88B1C82712C612CE12F110FFF0B9501E1
S11311002E0F3F1F3B872A87AC0CB11CA5014E0F45
S11311105F1F5F8B4E8BC1018D0D911DD7FC9A957E
S1131120998F888F4C85641608F062C0862D90E0F4
S113113048855985480F591F489D9001499D300D98
S1131140589D300D1124D901A20DB31DBF87AE8760
S1131150AA84BB8448885988DC80BA85DB1AE88D68
S1131160F98DE80FF91FFD8BEC8B8D2D8A0D2E89DF
S11311703F89A216B306B9F1877061F48A819B8115
S11311800196EA89FB89AA81BB81EA0FFB1F74904F
S11311909B838A8377FE20C0AB8DBC8DED91FC913F
S11311A0B981B13061F40484F585E02D2E813F814D
S11311B04C895D89B5018B8D9C8D19950DC0068474
S11311C0F785E02DEE80FF80840194014E855F85D4
S11311D0B2018B8D9C8D1995770C480C591CEFEF3F
S11311E0AE1ABE0AC2CF3C813C0D3C8363949ACFB5
S11311F0AB8DBC8DED91FC9111970688F789E02D9C
S1131200CD016C960FB6F894DEBF0FBECDBFDF9153
S1131210CF911F910F91FF90EF90DF90CF90BF90EF
S1131220AF909F908F907F906F905F904F903F9082
S11312302F9019946C960FB6F894DEBF0FBECDBFF5
S1131240DF91CF911F910F91FF90EF90DF90CF909E
S1131250BF90AF909F908F907F906F905F904F90D2
S11312603F902F900895AF92BF92CF92EF92FF924A
S11312700F931F93CF93DF93EC01262F888D998DC5
S1131280009709F03FC06A3059F41D861C862C89EA
S11312908E859F8538E0239F800D911D112440C0C9
S11312A06D3009F4A8C08E898823C1F03C898C85EF
S11312B09D8546E0349F800D911D112448855985F4
S11312C0481759075CF41D861C868E859F8548E067
S11312D0349F800D911D11249F878E87EA88FB8897
S11312E0088919894E855F856C857D85CC88CE01FA
S11312F0A4DD2C898C859D8536E0239F800D911D6E
S1131300112442C06A3079F41D861C862C89FC01A4
S11313103696E4918E859F852E9F800D911D112414
S11313209F878E8768C06D3009F465C0FC013496D0
S11313303491631708F45FC03196E491E61708F41A
S11313405AC0FC013296A590B490462F50E0431B3E
S1131350510937E0349FB001359F700D1124A60E5A
S1131360B71EF501329634913196E491332311F08E
S1131370E1110DC0F5013496E4912C898C859D858D
S1131380E29F800D911D11249D878C8734C0F50147
S1131390359644915E89552311F16C89E32FF0E071
S11313A0E40FF11D47FDFA956E9FD0016F9FB00DBC
S11313B011244C855D854A0F5B1FE885F985E41788
S11313C0F5076CF41D861C86FC013696E4918E8527
S11313D09F856E9F800D911D11249F878E87EA88BB
S11313E0FB88088919894E855F856C857D85CC8845
S11313F0CE0123DDBFCF81E090E0DF91CF911F913B
S11314000F91FF90EF90CF90BF90AF900895FC01A3
S113141075876487578746870895611101C061E025
S1131420FC01648B0895FC01738B628B718B608B60
S11314300895FC0185890895FC01808591850895AE
S1131440FC018285938508950F931F93CF93DF93B7
S1131450DC01FB0155968C915597823089F08330DD
S113146021F1813009F0E6C014968D919C91159775
S1131470BC01641B750BAB0141505109BF011DC078
S113148014966D917C911597CB018E1B9F0BFC01DB
S113149016968D919C911797BC01641B750BAB013B
S11314A041505109E21BF30BC5C016966D917C9116
S11314B017976E1B7F0B621B730B57FD1AC1149693
S11314C08D919C911597481759070CF012C177FF1D
S11314D004C0260F371F60E070E016968D919C9132
S11314E01797FB01E20FF31F8E179F071CF49C0153
S11314F0261B370B121613060CF0FBC0A22F862FE7
S113150086958695869590E8899F400D511D1124F6
S1131510FA01EA5EFD4F6770A9F198E0961B492F26
S113152050E0EA01C25FDD4F8881291790F4421B25
S113153051092FEF30E002C0359527954A95E2F71F
S113154082230130110541F068F00230110589F061
S1131550D0C00130110519F42081822B0CC0013058
S1131560110520F480952081822305C002301105E5
S113157031F4208182278083A91708F4BAC0A91BFB
S1131580E058FF4FA83048F10230110559F4EF013B
S11315908A2F988190959883C058DF4F885088305F
S11315A0C0F732C081E00130110509F080E0819577
S11315B0EF019A2F8883C058DF4F98509830D0F7A6
S11315C088EF8A0F86958695869560E8869FE00D5C
S11315D0F11D1124E058FF4FA770AA2309F489C014
S11315E0B0E0AA5FBD4F8C910130110529F038F0AD
S11315F002301105E1F07DC09081892B03C08095F4
S113160090818923808375C088EF8A0F869586959B
S1131610869570E8879FE00DF11D1124E058FF4F77
S1131620A77009F466C0B0E0AA5FBD4F8C919081A9
S11316308927E8CF57FD5DC016968D919C91179729
S1131640481759070CF055C0F7FF04C02E0F3F1F71
S1131650E0E0F0E014968D919C911597BF01620F24
S1131660731F861797071CF49C012E1B3F0B121641
S113167013060CF03EC0CA0157FD079663E095952A
S113168087956A95E1F79695982F8827979587957A
S1131690E80FF91FEA5EFD4F4770552781E090E09F
S11316A001C0880F4A95EAF7482F0130110539F037
S11316B078F002301105E9F42E0F3F1F13C02E0FEE
S11316C03F1FE217F307A9F08081842B8193F9CFA0
S11316D080952E0F3F1FE217F30759F0908198234E
S11316E09193F9CFE217F30721F080818427819346
S11316F0F9CFDF91CF911F910F9108950F931F930D
S1131700CF93DF93DC0155968C915597823071F01D
S1131710833009F1813009F08CC01496ED91FC916D
S11317201597E41BF50BE21BF30B20C01496ED9107
S1131730FC911597CF01861B970BBC016150710971
S11317401696ED91FC911797CF01841B950BAC0174
S1131750421B530B6EC01696ED91FC911797CF0167
S1131760861B970BBC0161507109FA0177FD1BC1FF
S113177016968D919C911797681779070CF013C1F1
S1131780F7FF04C02E0F3F1FE0E0F0E014968D91A8
S11317909C911597AF01420F531F841795071CF4B2
S11317A09C012E1B3F0B121613060CF0FCC0CB0140
S11317B077FD079643E0959587954A95E1F79695C9
S11317C0982F882797958795E80FF91FEA5EFD4FB4
S11317D06770772781E090E001C0880F6A95EAF787
S11317E0482F0130110541F088F00230110509F04D
S11317F0DAC02E0F3F1F15C02E0F3F1FE217F3074D
S113180009F4D1C08081842B8193F8CF80952E0F69
S11318103F1FE217F30709F4C6C090819823919300
S1131820F8CFE217F30709F4BEC0808184278193BF
S1131830F8CF77FDB8C014968D919C9115976817D1
S113184079070CF0B0C057FF04C0240F351F40E0E7
S113185050E016968D919C911797FA01E20FF31FB1
S11318608E179F071CF49C01241B350B12161306BC
S11318700CF099C0A22F842F86958695869590E8C2
S1131880899F600D711D1124FB01EA5EFD4F4770B5
S1131890A9F198E0941B492F50E0EA01C25FDD4FA3
S11318A08881291790F4421B51092FEF30E002C0C0
S11318B0359527954A95E2F782230130110541F0C9
S11318C068F00230110589F06EC00130110519F479
S11318D02081822B0CC00130110520F480952081D9
S11318E0822305C00230110531F4208182278083D0
S11318F0A91708F458C0A91BE058FF4FA83048F1B5
S11319000230110559F4EF018A2F9881909598833C
S1131910C058DF4F88508830C0F730C081E00130B4
S1131920110509F080E08195EF019A2F8883C05852
S1131930DF4F98509830D0F788EF8A0F86958695B8
S1131940869590E8899FE00DF11D1124E058FF4F22
S1131950A770AA2341F1B0E0AA5FBD4F8C9101307A
S1131960110529F038F002301105D1F01CC0908126
S1131970892B18C080959081892314C088EF8A0F21
S113198086958695869590E8899FE00DF11D112432
S1131990E058FF4FA77039F0B0E0AA5FBD4F8C91BB
S11319A0908189278083DF91CF911F910F910895B2
S11319B0CF92DF92EF92FF920F931F93CF93DF9317
S11319C07C018B01EA01690177FD9DC035DD0817B3
S11319D019070CF098C0D7FD96C0C70131DDC817B0
S11319E0D9070CF090C0C70124DD823009F07FC014
S11319F0F70164817581CB01801B910B8C0101502F
S1131A00110946815781FA01EC1BFD0BEF01219767
S1131A100BC0813049F4F701848195818C1B9D0BA7
S1131A20E8018C0101501109F1E0CF16D10431F025
S1131A3010F182E0C816D104E1F165C0FE01D7FDC2
S1131A40379643E0F595E7954A95E1F7F695FE2F2D
S1131A50EE27F795E7950E0F1F1FF801EA5EFD4F7D
S1131A60C770DD2781E090E001C0880FCA95EAF7CE
S1131A709081892B3AC0FE01D7FD379623E0F59576
S1131A80E7952A95E1F7F695FE2FEE27F795E7956A
S1131A900E0F1F1FF801EA5EFD4FC770DD2781E0BE
S1131AA090E001C0880FCA95EAF780959081892358
S1131AB01CC0FE01D7FD379683E0F595E7958A951E
S1131AC0E1F7F695FE2FEE27F795E7950E0F1F1F0A
S1131AD0F801EA5EFD4FC770DD2781E090E001C0A8
S1131AE0880FCA95EAF79081892780830CC08330D8
S1131AF009F08FCFF70186819781801B910B8E01AE
S1131B00EC01219791CFDF91CF911F910F91FF901D
S1131B10EF90DF90CF9008951F93CF93DF93EC0164
S1131B20162F40E450E060E870E066D98FE896E054
S1131B30998388838FEF8C8F88A38E8F8D8F1F8FCF
S1131B40DF91CF911F91089580E094E0E6E1F2E007
S1131B50DF019C011D9221503040E1F70895FC0102
S1131B6081A1882339F06EBD00000DB407FEFDCFBE
S1131B708EB5089528E030E090E8A4A1B5A14C9179
S1131B8083A5809584238C93A2A1B3A182A5492F18
S1131B90462319F04C91842B03C04C9180958423E7
S1131BA08C93A4A1B5A14C9183A5842B8C93969579
S1131BB02150310911F708951F93CF93DF93EC015E
S1131BC0162F8C8D8F3F01F1EEA1FFA190818CA582
S1131BD0892B8083E8A5F9A590818DA5809589231B
S1131BE08083EEA1FFA190818CA5809589238083B9
S1131BF0CE01B5DFEEA1FFA190818CA5892B808356
S1131C00DF91CF911F9108958A8D682F880F770BEC
S1131C108CE09FE00E94672D60E08CE09FE00E94D2
S1131C20062D612F8CE09FE00E94062D8CE09FE042
S1131C30DF91CF911F910C94DC2D0F931F93CF93C1
S1131C40DF93EC01162F022F6B8F4A8F8C8D8F3F01
S1131C5009F48CC061E08E8D0E94103C61E088A183
S1131C600E94103C88A1082E000C990BFC01E0593D
S1131C70F84FE491F0E0EE0FFF1FE053F84F259189
S1131C8034913FA32EA3FC01E65DF84FE491ECA749
S1131C908E8D082E000C990BFC01E059F84FE4914D
S1131CA0F0E0EE0FFF1FE053F84F2591349139A770
S1131CB028A7FC01E65DF84FE491EDA789A1811105
S1131CC034C061E08C8D0E94103C61E08D8D0E94D7
S1131CD0103C8D8D082E000C990BFC01E059F84F37
S1131CE0E491F0E0EE0FFF1FE053F84F259134919B
S1131CF03DA32CA3FC01E65DF84FE491EBA78C8D8A
S1131D00082E000C990BFC01E059F84FE491F0E027
S1131D10EE0FFF1FE053F84F259134913BA32AA304
S1131D20FC01E65DF84FE491EAA789A1882311F14B
S1131D300E94152A80919C0E882399F02FB7F8945D
S1131D4080919C0E813059F48DB380939A0E9DB38B
S1131D5080919B0E809589238DBB2FBF02C0209359
S1131D609A0E80E58CBD81E08DBD04C08CE09FE0BF
S1131D700E94442D0023F1F08F8D87FD1BC061E08C
S1131D800E94103C61E08F8D0E944C3C61E070E049
S1131D9080E090E00E94153B60E08F8D0E944C3CF7
S1131DA06AE070E080E090E00E94153B61E08F8D76
S1131DB00E944C3C6EEACE01FFDE65EDCE01FCDEF6
S1131DC060E8CE01F9DE68EACE01F6DE6FE3CE010B
S1131DD0F3DE63EDCE01F0DE60E0CE01EDDE60E423
S1131DE0CE01EADE6DE8CE01E7DE113011F460E1E8
S1131DF001C064E1CE01E0DE60E2CE01DDDE60E040
S1131E00CE01DADE61EACE01D7DE68ECCE01D4DEA3
S1131E106AEDCE01D1DE62E1CE01CEDE61E8CE0113
S1131E20CBDE113011F46FE901C06FECCE01C4DEDA
S1131E3069EDCE01C1DE113011F462E201C061EF3F
S1131E40CE01BADE6BEDCE01B7DE60E4CE01B4DEC6
S1131E5064EACE01B1DE66EACE01AEDE6EE2CE0108
S1131E60ABDE6FEACE01DF91CF911F910F91A4CE2B
S1131E70DF92EF92FF920F931F93CF93DF93EC01C6
S1131E8061E29ADE60E0CE0197DE6FE7CE0194DE78
S1131E9062E2CE0191DE60E0CE018EDE67E0CE012B
S1131EA08BDE8C8D8F3F29F1EEA1FFA190818CA553
S1131EB0892B8083E8A5F9A590818DA5892B808342
S1131EC0EEA1FFA190818CA580958923808306E1F2
S1131ED012E0F80161918F01CE0141DEF6E0063196
S1131EE01F07B9F7EEA1FFA190818CA5892B8083F0
S1131EF031C0D090B8008CE08093B80006E112E0C5
S1131F006A8D062E000C770B8CE09FE00E94672DF3
S1131F1060E48CE09FE00E94062DE12CF12CF80196
S1131F20EE0DFF1D60818CE09FE00E94062D8FEF77
S1131F30E81AF80AE0E1EE16F10489F78CE09FE074
S1131F400E94DC2D005F1F4FF6E006311F07C1F62B
S1131F50D092B800DF91CF911F910F91FF90EF9035
S1131F60DF900895DC01ED91FC910190F081E02D6A
S1131F701994FC01148A158A089565EA70E08CE9C5
S1131F8090E1F0DF61E570E08CE990E1EBCF65EA88
S1131F9070E08CE990E1E6DF65E570E08CE990E1C2
S1131FA0E1CFCF93DF93EC0126E040E052EC61E017
S1131FB070E08CE990E10E94833468EB7BE080E080
S1131FC090E00E94153BCE01E2DF65EA70E08CE907
S1131FD090E1C8DF62E570E08CE990E1DF91CF9198
S1131FE0C1CFFF920F931F93CF93DF93EC01FF2494
S1131FF0F3948CE990E10E948433892BC1F00C891D
S113200010E08CE990E10E949E33FE01E00FF11F85
S113201084878C89811104C09C859A3A09F056C042
S11320208F5F8C8B883029F71C8AFD8AE2CF8D89DB
S1132030813009F04BC08C858A3A09F046C08B89FF
S1132040853509F042C06D8570E0762F66278E8550
S1132050682B072E000C880B990B0E946A3020E035
S113206030E048EC52EC0E94CF2F688379838A8356
S11320709B836F8570E0762F66278889682B072EEF
S1132080000C880B990B0E946A3020E030E048EC89
S113209052E40E94CF2F6C837D838E839F83698952
S11320A070E0762F66278A89682B072E000C880B30
S11320B0990B0E946A3020E030E048EC52E40E9420
S11320C0CF2F688779878A879B871D8ADF91CF9175
S11320D01F910F91FF900895CF93DF93FC0188E047
S11320E0DF01C82F1D92CA95E9F7DF011896ED01AB
S11320F019928A95E9F7148E158E168E178E10A2F2
S113210080E090E0A0E8BFE3808B918BA28BB38B3F
S1132110848B958BA68BB78B808F918FA28FB38F77
S1132120DF91CF910895CF93DF93EA0170E08CE0C3
S11321309FE00E94672D67EB76E08CE09FE00E94B1
S1132140F4364AE050E0BE018CE09FE00E94AE37D6
S11321508CE09FE0DF91CF910C94DC2DCF92DF9245
S1132160EF92FF920F931F93CF93DF93EC016A01D9
S11321707901AB0161E0D7DFA60162E0CE01D3DFD4
S1132180A70163E0CE01CFDFA80164E0CE01DF91B7
S1132190CF911F910F91FF90EF90DF90CF90C3CF1D
S11321A04F925F926F927F92AF92BF92CF92DF92E3
S11321B0EF92FF920F931F93CF93DF9300D01F9260
S11321C0CDB7DEB729013A01E982FA820B831C8379
S11321D070E08CE09FE00E94672D6AEB76E08CE073
S11321E09FE00E94F43622E030E0B301A2018CE0CB
S11321F09FE00E94BD386EEB76E08CE09FE00E9489
S1132200F43622E030E049815A816B817C818CE094
S11322109FE00E94BD3862EC76E08CE09FE00E9473
S1132220F43622E030E0B601A5018CE09FE00E9484
S1132230BD388CE09FE00E94FC368CE09FE00F905C
S11322400F900F900F90DF91CF911F910F91FF90FE
S1132250EF90DF90CF90BF90AF907F906F905F90A2
S11322604F900C94DC2DAF92BF92CF92DF92EF92FD
S1132270FF920F931F93CF93DF93EC01A88CB98C3B
S1132280CA8CDB8CEC88FD880E891F8928893989E2
S11322904A895B8961E084DFA88CB98CCA8CDB8CA9
S11322A0EC88FD880E891F89288939894A895B89C8
S11322B062E0CE0175DFA88CB98CCA8CDB8CEC880B
S11322C0FD880E891F89288939894A895B8963E0D9
S11322D0CE0166DFA88CB98CCA8CDB8CEC88FD88B7
S11322E00E891F89288939894A895B8964E0CE016E
S11322F057DFDF91CF911F910F91FF90EF90DF9007
S1132300CF90BF90AF900895CF93DF931F92CDB736
S1132310DEB78CE09FE069830E94442D698170E000
S113232041E050E08CE09FE00E94DA2D8CE09FE0D9
S11323300E947B2C892B39F08CE09FE00F90DF9179
S1132340CF910C94832C0F90DF91CF910895AF928D
S1132350BF92CF92DF92EF92FF920F931F93CF938E
S1132360DF93EC018CE09FE00E94442D66EC76E064
S113237082E69FE00E94FF3686E0A82EB12CC88C2E
S1132380D98CEA8CFB8C0C891D892E893F8948895C
S113239059896A897B89CE0166DF69EC76E082E639
S11323A09FE00E94FF3661E0CE01AEDF6C0162E087
S11323B0CE01AADF7C0163E0CE01A6DF8C0164E0DC
S11323C0CE01A2DF9C0181E0C816D10469F482E049
S11323D0E816F10449F40330110531F424303105D1
S11323E019F481E08C8F04C01C8ECA94CD2811F49A
S11323F081E08D8F82E0E816F10411F481E08E8F84
S11324000330110511F481E08F8F2430310511F46C
S113241081E088A381E0A81AB10809F0B0CF6DEC7F
S113242076E082E69FE0DF91CF911F910F91FF90BC
S1132430EF90DF90CF90BF90AF900C94FF3608954B
S113244026E08FEF9FE00E94833461ED76E08FEF0A
S11324509FE00C94FF364F925F926F927F928F921F
S11324609F92AF92BF92CF92DF92EF92FF920F931F
S11324701F932A013B014801590167EB76E08FEF76
S11324809FE00E94F4364AE050E060E070E08FEF95
S11324909FE00E94A8376DED76E08FEF9FE00E94E9
S11324A0F4364AE050E060E070E08FEF9FE00E9475
S11324B0A83764EC7BE08FEF9FE00E94F43622E0C3
S11324C030E0B301A2018FEF9FE00E94BD3868ECB9
S11324D07BE08FEF9FE00E94F43622E030E0B5010C
S11324E0A4018FEF9FE00E94BD386BEB76E08FEF85
S11324F09FE00E94F43622E030E0B701A6018FEF9E
S11325009FE01F910F91FF90EF90DF90CF90BF90CD
S1132510AF909F908F907F906F905F904F900C94AE
S1132520BE3825E030E0FC01318320831282089517
S1132530FC011182108213821282158214822AE015
S113254030E03783268380E490E091878087338767
S113255022871586148622E130E037872687918BFF
S1132560808B338B228B158A148A2CE130E0378BD5
S1132570268B918F808F338F228F158E148E24E2B9
S113258030E0378F268F11A210A22EE230E033A361
S113259022A395A384A337A326A311A610A646E3DA
S11325A050E053A742A715A614A637A726A791ABB8
S11325B080AB33AB22AB15AA14AA57AB46AB089534
S11325C021E04CE362E08AE69CE037DB8AE69CE0AB
S11325D04FDC68EE73E080E090E00E94153B8AE6F1
S11325E09CE0B2CA2F923F924F925F926F927F9279
S11325F08F929F92AF92BF92CF92DF92EF92FF920F
S11326000F931F93CF93DF93CDB7DEB762970FB6C7
S1132610F894DEBF0FBECDBF1C017A8369835C834F
S11326204B833E832D8348A459A46AA47BA48EA51E
S11326309FA5A8A9B9A98F839887A987BA878AA9CA
S11326409BA9ACA9BDA98B879C87AD87BE878EA9A2
S11326509FA9A8ADB9AD8F87988BA98BBA8B61E080
S11326608AE69CE00E940D0A61E070E08AE69CE044
S11326700E94130A40E050E060E070E08AE69CE0CB
S11326800E94070A8AE69CE05FDA67EE76E08AE653
S11326909CE00E94F4360E94E43AAB01BC012AE0BB
S11326A030E08AE69CE00E94C337D10116964D9132
S11326B05C91179714966D917C9115978AE69CE02E
S11326C00E94070A6DEE76E08AE69CE00E94F436EA
S11326D04AE050E069817A818AE69CE00E94A8374A
S11326E0F10142855385608571858AE69CE00E94EC
S11326F0070A61EF76E08AE69CE00E94F4364AE03D
S113270050E06D817E818AE69CE00E94A837D10169
S11327101E964D915C911F971C966D917C911D970F
S11327208AE69CE00E94070A65EF76E08AE69CE070
S11327300E94F4364AE050E06B817C818AE69CE09A
S11327400E94A837F10142895389608971898AE618
S11327509CE00E94070A69EF76E08AE69CE00E940A
S1132760F4364AE050E0B8018AE69CE00E94A837BB
S1132770D10156964D915C91579754966D917C91E9
S113278055978AE69CE00E94070A6DEF76E08AE698
S11327909CE00E94F43622E030E0B701A6018AE60C
S11327A09CE00E94BD38F101428D538D608D718D86
S11327B08AE69CE00E94070A63E077E08AE69CE0F0
S11327C00E94F43622E030E0B501A4018AE69CE0E0
S11327D00E94BD38D1015E964D915C915F975C96E5
S11327E06D917C915D978AE69CE00E94070A69E0FE
S11327F077E08AE69CE00E94F43622E030E0B30100
S1132800A2018AE69CE00E94BD38F10146A557A5C5
S113281064A575A58AE69CE00E94070A6FE077E04C
S11328208AE69CE00E94F43622E030E04F8158852D
S113283069857A858AE69CE00E94BD38D101D296EA
S11328404D915C91D397D0966D917C91D1978AE606
S11328509CE00E94070A64E177E08AE69CE00E941B
S1132860F43622E030E04B855C856D857E858AE612
S11328709CE00E94BD38F10146A957A964A975A935
S11328808AE69CE00E94070A6BE177E08AE69CE016
S11328900E94F43622E030E04F85588969897A89AC
S11328A08AE69CE00E94BD388AE69CE062960FB6F8
S11328B0F894DEBF0FBECDBFDF91CF911F910F9172
S11328C0FF90EF90DF90CF90BF90AF909F908F904C
S11328D07F906F905F904F903F902F90C9CA64E0B3
S11328E08AE69CE019C94F925F926F927F92AF92F1
S11328F0BF92CF92DF92EF92FF920F931F93CF93E9
S1132900DF93EC015B01CA01B9012AA33BA34CA3E9
S11329105DA32BED3FE049E450E40E9483316C87D2
S11329207D878E879F87B9A2A8A2EEA2FFA208A7DF
S113293019A7B601DD0C880B990B0E946A309B0124
S1132940AC0160E070E080E090E40E94E63120E0B9
S113295030E040E85FE30E94012F6AA77BA78CA7C1
S11329609DA7DF91CF911F910F91FF90EF90DF9082
S1132970CF90BF90AF907F906F905F904F900895ED
S11329802F923F924F925F926F927F928F929F927B
S1132990AF92BF92CF92DF92EF92FF920F931F9369
S11329A0CF93DF93CDB7DEB760970FB6F894DEBF51
S11329B00FBECDBF1C01CB01BA014801590120E073
S11329C030E040E752E40E94833169877A878B873D
S11329D09C87D1016D937D938D939C93139720E0F5
S11329E030E040E752E4C501B4010E9483312B0179
S11329F03C01F101648375838683978320E030E092
S1132A0040E752E4C701B6010E948331D101189610
S1132A106D937D938D939C931B9796962D913D91E9
S1132A204D915C9199970E9483316D877E878F8742
S1132A30988BF101608B718B828B938B848495844A
S1132A40A684B784A501940169857A858B859C85C4
S1132A500E94CF2F6B017C01D10154966D937D931D
S1132A608D939C935797A5019401C301B2010E94D1
S1132A70CF2F2B013C01F101608F718F828F938FD7
S1132A80A50194016D857E858F8598890E94CF2F3D
S1132A904B015C01D1015C966D937D938D939C9366
S1132AA05F97A3019201C701B6010E94012F6987B4
S1132AB07A878B879C87A3019201C701B6010E9484
S1132AC0022F6B017C01A501940169857A858B85B0
S1132AD09C850E94022F0E943730662E7A83698378
S1132AE0A5019401C701B6010E94022F0E9437304C
S1132AF0762E7C836B83A5019401C701B6010E94E5
S1132B00012F0E943730F62E7E836D83A501940138
S1132B1069857A858B859C850E94012F0E943730B8
S1132B20862F262F372F38872F83262D3A81472D3E
S1132B305C816F2D7E81988560960FB6F894DEBF18
S1132B400FBECDBFDF91CF911F910F91FF90EF90FA
S1132B50DF90CF90BF90AF909F908F907F906F90B9
S1132B605F904F903F902F900895CF92DF92EF9215
S1132B70FF92CF93DF93EC01072E000C880B990B87
S1132B800E946A306B017C0148A159A1BA01550F1A
S1132B90880B990B0E946A309B01AC01C701B601F6
S1132BA00E94CF2F2AA53BA54CA55DA50E94833189
S1132BB00E943730CB01DF91CF91FF90EF90DF90EF
S1132BC0CF9008954F925F926F927F928F929F92CF
S1132BD0AF92BF92CF92DF92EF92FF920F931F9327
S1132BE0CF93DF93CDB7DEB760970FB6F894DEBF0F
S1132BF00FBECDBF5C01C4DE29873A874B875C8753
S1132C006D877E878F87988B69857A85C501ADDF4F
S1132C104C016B857C85C501A8DF6C016D857E85C3
S1132C20C501A3DF8C016F857889C5019EDF7C0116
S1132C30B40197FE04C066277727681979096F3FA6
S1132C40710509F024F5C601D7FE04C08827992729
S1132C508C199D098F3F910509F0CCF4C80117FF29
S1132C6004C088279927801B910B8F3F910511F091
S1132C700CF051C0C701F7FE04C0882799278E19AC
S1132C809F098F3F910511F00CF045C09FC0072E9E
S1132C90000C880B990B0E946A309B01AC0160E028
S1132CA070E08FE793E40E94CF2F2B013C01B80121
S1132CB0110F880B990B0E946A30A30192010E94A4
S1132CC083310E9437308B01B701FF0C880B990BBD
S1132CD00E946A30A30192010E9483310E9437301E
S1132CE07B01B401990C880B990B0E946A30A301F3
S1132CF092010E9483310E9437304B01B601DD0CF2
S1132D00880B990B0E946A30A30192010E948331BF
S1132D100E9437306B01B80117FF04C0662777277C
S1132D20601B710B6F3F710509F064F4C701F7FE76
S1132D3004C0882799278E199F098F3F910509F0B0
S1132D400CF444C0072E000C880B990B0E946A30C7
S1132D509B01AC0160E070E08FE793E40E94CF2F09
S1132D602B013C01B801110F880B990B0E946A30AA
S1132D70A30192010E9483310E9437308B01B70175
S1132D80FF0C880B990B0E946A30A30192010E94E8
S1132D9083310E9437307B01B401990C880B990B65
S1132DA00E946A30A30192010E9483310E9437304D
S1132DB04B01B601DD0C880B990B0E946A30A3010C
S1132DC092010E9483310E9437306B019A8289827A
S1132DD0DC82CB821E830D83F886EF82282D3A8114
S1132DE04C2D5C81602F7E818E2D988560960FB668
S1132DF0F894DEBF0FBECDBFDF91CF911F910F912D
S1132E00FF90EF90DF90CF90BF90AF909F908F9006
S1132E107F906F905F904F900895FC0182E08083D3
S1132E2083E0818384E0828385E083831582148236
S1132E3081E090E09783868311861086938782874A
S1132E4008950895CF93DF93EC0162EB7BE00E9439
S1132E50493D81E090E09F838E83198618861B8606
S1132E601A868FB780688FBFDF91CF9108950C9435
S1132E70E23C1F920F920FB60F9211240BB60F92E1
S1132E802F933F934F935F936F937F938F939F936E
S1132E90AF93BF93EF93FF93E0911606F09117065B
S1132EA01995FF91EF91BF91AF919F918F917F9170
S1132EB06F915F914F913F912F910F900BBE0F90A7
S1132EC00FBE0F901F901895CF93DF93EC011982DA
S1132ED018821A821B821C821D821E821F821886FF
S1132EE019861A868FE790E09C878B879E878D874B
S1132EF0988B8F879A8B898B62EB7BE0CE0143960C
S1132F000E94493D81E0898FDF91CF910895CF924E
S1132F10EF920F93CF93DF93EC0126E040E052EC65
S1132F2061E070E082E69FE00E9483346CE271E02D
S1132F3080E090E00E94153BC12CE12C0DE02AE0DA
S1132F404BE06CE088E99CE00E941921282F30E0D6
S1132F50398328832115310569F564E277E082E637
S1132F609FE00E94F4366DE477E082E69FE00E94E1
S1132F70F4366AE577E082E69FE00E94FF3660E679
S1132F8077E082E69FE00E94F4366AE577E082E625
S1132F909FE00E94FF366AE677E082E69FE00E94A7
S1132FA0FF366EEB77E082E69FE00E94FF3667EF24
S1132FB077E011C02130310519F467E378E00BC0E4
S1132FC02230310519F46DEA78E005C0233031056B
S1132FD031F46DE279E082E69FE00E94FF3688E9F1
S1132FE09CE029D78A83813059F038F0823059F037
S1132FF08330A1F46BEA79E008C06FE679E005C09C
S113300069EB79E002C06EE879E082E69FE0DF9147
S1133010CF910F91EF90CF900C94F436DF91CF9134
S11330200F91EF90CF9008951F93CF93DF93FC01FE
S11330302281223009F473C1EC01438160E088E904
S11330409CE0F6D768E070E088E99CE0E3D688234A
S113305061F065ED79E082E69FE00E94FF3665ED60
S113306079E0CE0143960E947A3D61E070E088E900
S11330709CE0D0D6882361F069EE79E082E69FE097
S11330800E94FF3669EE79E0CE0143960E947A3DB4
S113309060E170E088E99CE0BDD68823C9F06EEF5A
S11330A079E082E69FE00E94F4366BE088E99CE0D8
S11330B0BDD64AE050E0682F82E69FE00E94CF37F9
S11330C081E08C8361E17AE0CE0143960E947A3DEF
S11330D060E270E088E99CE09DD68823C9F062E252
S11330E07AE082E69FE00E94F43669E088E99CE099
S11330F09DD64AE050E0682F82E69FE00E94CF37D9
S113310081E08F8369E37AE0CE0143960E947A3DA1
S113311060E870E088E99CE07DD68823C9F06DE41E
S11331207AE082E69FE00E94F4366AE088E99CE057
S11331307DD64AE050E0682F82E69FE00E94CF37B8
S113314081E08E8363E67AE0CE0143960E947A3D65
S113315060E470E088E99CE05DD68823C9F066E706
S11331607AE082E69FE00E94F4366CE088E99CE015
S11331705DD64AE050E0682F82E69FE00E94CF3798
S113318081E08D836CE87AE0CE0143960E947A3D1B
S11331906FE088E99CE04AD68B8388E99CE0E9D516
S11331A0882309F45FC062E070E088E99CE032D6CD
S11331B0882361F06FE97AE082E69FE00E94FF369F
S11331C06AEA7AE0CE0143960E947A3D64E070E0B8
S11331D088E99CE01FD6882361F06BEB7AE082E6F5
S11331E09FE00E94FF3666EC7AE0CE0143960E948F
S11331F07A3D60E071E088E99CE00CD6882361F0B8
S113320067ED7AE082E69FE00E94FF3662EE7AE0A4
S1133210CE0143960E947A3D60E072E088E99CE02A
S1133220F9D5882361F063EF7AE082E69FE00E949B
S1133230FF366EEF7AE0CE0143960E947A3D60E05D
S113324070E188E99CE0E6D5882361F06FE07BE0DB
S113325082E69FE00E94FF3660E27BE0CE01439667
S11332600E947A3D60E070E288E99CE09BD5882367
S113327079F067E37BE082E69FE00E94FF3611E08D
S113328019876BE47BE0CE0143960E947A3D198F47
S113329060E070E488E99CE077D5882371F060E60B
S11332A07BE082E69FE00E94FF3681E08A876FE63A
S11332B07BE0CE0143960E947A3D60E070E888E9A5
S11332C09CE08CD5882379F06FE77BE082E69FE071
S11332D00E94FF3681E0898764E97BE0CE01439652
S11332E00E947A3D198E68E088E99CE09FD590E0C1
S11332F09C878B8767E088E99CE098D590E09E875F
S11333008D8766E088E99CE091D590E0988B8F8763
S113331065E088E99CE08AD590E09A8B898BDF91FF
S1133320CF911F910895CF93DF93FC0180E5DF01D6
S11333301D928A95E9F76EE774E0758364838CEFD8
S113334098E0918780879587848777876687918BB4
S1133350808B938B828B958B848BCAE7DDE0D78B34
S1133360C68B918F808F48EF51E1538F428F758FB9
S1133370648F578F468F53A342A3A2E8BBEFB5A334
S1133380A4A357A346A324E037EF31A720A753A74C
S113339042A735A724A7D7A7C6A731AB20AB93ABC9
S11333A082AB35AB24AB77AB66AB31AF20AFB5AFF7
S11333B0A4AFDF01A05BBF4F4FE852EC65E77CE3AD
S11333C04D935D936D937C93139714964AE057ED58
S11333D063EA7CE34D935D936D937C93139714960A
S11333E04AE057ED63EA7BE34D935D936D937C93E1
S11333F0139714961D921D921D921C921397149666
S11334001D921D921D921C92139714961D921D924B
S11334101D921C92139714961D921D921D921C923C
S1133420139714961D921D921D921C921397149635
S11334304DEC5CEC6CE47EE34D935D936D937C9377
S11334401397EC58FF4F81E090E091838083DF91E4
S1133450CF910895CF92DF92EF92FF920F931F9333
S1133460CB01BA01A90198010E94012F6B017C01D3
S113347020E030E044E353E40E947831181654F419
S113348020E030E044EB53E4C701B6010E94012F71
S11334906B017C0120E030E044E353ECC701B6014A
S11334A00E94C82F87FF0AC020E030E044EB53E4B9
S11334B0C701B6010E94022F6B017C01C701B6014E
S11334C01F910F91FF90EF90DF90CF9008952F926E
S11334D03F924F925F926F927F928F929F92AF92A0
S11334E0BF92CF92DF92EF92FF920F931F93CF93ED
S11334F0DF93CDB7DEB76C970FB6F894DEBF0FBE7F
S1133500CDBF1C01498B5A8B6B8B7C8B0D8B1E8B17
S11335102F8B388FC98EDA8EEB8EFC8E9A01AB011D
S1133520C501B4010E94012F69837A838B839C8334
S11335302D893E894F89588D6AA97BA98CA99DA99B
S11335400E94012F69877A878B879C8729813A811A
S11335504B815C81CA01B9010E9483316B017C01FA
S113356029853A854B855C85CA01B9010E9483315E
S11335709B01AC01C701B6010E94022F0E943C329C
S11335806D877E878F87988B29853A854B855C85E7
S113359069817A818B819C810E94752F2BED3FE09C
S11335A049E450E40E94CF2F20E030E044E353E4A8
S11335B00E948331AB01BC01F101E45AFF4F408307
S11335C0518362837383098D1A8D2B8D3C8DC101C8
S11335D041DF6B017C01F101E05AFF4F608371838D
S11335E08283938320E030E040EA50E46D857E8559
S11335F08F8598890E94C82F910120593F4F3E839F
S11336002D8387FF16C069EA7BE082E69FE00E9473
S1133610FF36AD81BE811D921D921D921C9213979F
S1133620F101E459FF4F108211821282138281E06A
S113363020C220E030E048EC52E46D857E858F8521
S113364098890E94C82F26013701E89477F88101F0
S113365008591F4F20E030E040EA51E487FF9FC043
S1133660C301B2010E9478311816ACF45101BCE6D2
S1133670AB0EB11CF101E05BFF4FA7019601608125
S11336807181828193810E948331F501608371830A
S11336908283938374C0D8012D913D914D915C91A7
S11336A0C701B6010E94012F2B013C01F101EC5925
S11336B0FF4F608371838283938320E030E0A9010C
S11336C0C701B6010E947831181644F5F101E45996
S11336D0FF4FFA83E98378972081318142815381B6
S11336E0C701B6010E9483314B015C01F101E85A24
S11336F0FF4F2081318142815381C301B2010E9475
S113370083319B01AC01C501B4010E94012FA98141
S1133710BA816D937D938D939C93139720E030E051
S1133720A901C701B6010E94C82F87FF28C0F10173
S1133730E459FF4FFA83E9837897208131814281EC
S11337405381C701B6010E9483314B015C01F10131
S1133750E85AFF4F2081318142815381C301B20174
S11337600E9483319B01AC01C501B4010E94022F68
S1133770A981BA816D937D938D939C931397F801DE
S1133780C082D182E282F3828DEC9CECACE4BEE395
S1133790ED81FE8180839183A283B3836AC1C301D7
S11337A0B2010E9478311816ACF4810104591F4FFC
S11337B0A7019601F101E05BFF4F60817181828175
S11337C093810E948331D8016D937D938D939C9353
S11337D0139777C0F8012081318142815381C70159
S11337E0B6010E94012F6D837E838F839887F10138
S11337F0EC59FF4F608371838283938320E030E030
S1133800A901C701B6010E94783118164CF581014F
S113381004591F4FF101EC5AFF4F2081318142813D
S11338205381C701B6010E9483312B013C01F10190
S1133830E85AFF4F20813181428153816D817E811D
S11338408F8198850E9483319B01AC01C301B20131
S11338500E94012FD8016D937D938D939C931397B0
S113386020E030E0A901C701B6010E94C82F87FFFC
S113387028C0810104591F4FF101EC5AFF4F2081E8
S1133880318142815381C701B6010E9483312B01EA
S11338903C01F101E85AFF4F20813181428153817B
S11338A06D817E818F8198850E9483319B01AC015B
S11338B0C301B2010E94022FF801608371838283E5
S11338C09383F101E859FF4FC082D182E282F382EF
S11338D0389680E090E0A0E8BFE380839183A283E0
S11338E0B38364EB7BE082E69FE00E94F43622E03F
S11338F030E049895A896B897C8982E69FE00E947D
S1133900BD3861EB7BE082E69FE00E94F43622E062
S113391030E04D895E896F89788D82E69FE00E9450
S1133920BD3861EB7BE082E69FE00E94F43622E042
S113393030E0498D5A8D6B8D7C8D82E69FE00E942C
S1133940BD3861EB7BE082E69FE00E94F43663EBD6
S11339507BE082E69FE00E94F43622E030E0B5018D
S1133960A40182E69FE00E94BD3861EB7BE082E621
S11339709FE00E94F43622E030E04AA95BA96CA9DA
S11339807DA982E69FE00E94BD3861EB7BE082E680
S11339909FE00E94F43669EB7BE082E69FE00E94A0
S11339A0F43622E030E04D855E856F85788982E6C5
S11339B09FE00E94BD3863EC7BE082E69FE00E94BA
S11339C0F43622E030E049815A816B817C8182E6C1
S11339D09FE00E94BD3867EC7BE082E69FE00E9496
S11339E0F43622E030E049855A856B857C8582E691
S11339F09FE00E94BD386BEC7BE082E69FE00E9472
S1133A00F436F101E45AFF4F4081518162817381A0
S1133A1022E030E082E69FE00E94BD3869ED7BE061
S1133A2082E69FE00E94F436F101E05AFF4F4081A4
S1133A3051816281738122E030E082E69FE00E943E
S1133A40BD3865EE7BE082E69FE00E94F436F1012A
S1133A50E459FF4F408151816281738122E030E05B
S1133A6082E69FE00E94BD3882E69FE00E94FC3619
S1133A7080E06C960FB6F894DEBF0FBECDBFDF9129
S1133A80CF911F910F91FF90EF90DF90CF90BF9057
S1133A90AF909F908F907F906F905F904F903F90EA
S1133AA02F9008952F923F924F925F926F927F9240
S1133AB08F929F92AF92BF92CF92DF92EF92FF923A
S1133AC00F931F93CF93DF93CDB7DEB72C970FB629
S1133AD0F894DEBF0FBECDBF9C878B8749835A8382
S1133AE06B837C830D831E832F8338878A019B011C
S1133AF04D815E816F817885ADDC6B017C012B8407
S1133B003C8420E6220E311CF101608371838283A0
S1133B1093834B015C01E894B7F820E030E040EA7D
S1133B2050E4C501B4010E94C82F87FD08C120E0FC
S1133B3030E040E751E4C501B4010E9478310B85BF
S1133B401C8504591F4F2B853C8528593F4F3A87C4
S1133B50298718166CF4A7019601EB85FC85E05BB8
S1133B60FF4F60817181828193810E9483316FC094
S1133B70E985FA852081318142815381C701B601EB
S1133B800E94012F4B015C01EB85FC85EC59FF4F32
S1133B90608371838283938320E030E0A901C701AD
S1133BA0B6010E94783118162CF5EB85FC85EC5A89
S1133BB0FF4F2081318142815381C701B6010E94A8
S1133BC083312B013C01EB85FC85E85AFF4F2081B2
S1133BD0318142815381C501B4010E9483319B012B
S1133BE0AC01C301B2010E94012FF801608371830B
S1133BF08283938320E030E0A901C701B6010E94CB
S1133C00C82F87FF29C00B851C8504591F4FEB85DE
S1133C10FC85EC5AFF4F2081318142815381C701D9
S1133C20B6010E9483312B013C01EB85FC85E85AE7
S1133C30FF4F2081318142815381C501B4010E942B
S1133C4083319B01AC01C301B2010E94022FF80130
S1133C506083718382839383E985FA85C082D182EC
S1133C60E282F382EB85FC85E059FF4F10821182DA
S1133C701282138222E030E049815A816B817C8177
S1133C8082E69FE00E94BD3861EB7BE082E69FE024
S1133C900E94F43664EF7BE082E69FE00E94F436F3
S1133CA022E030E04D815E816F81788582E69FE07D
S1133CB00E94BD3861EB7BE082E69FE00E94F4360F
S1133CC06BEC7BE082E69FE00E94F436EB85FC859A
S1133CD0E45AFF4F408151816281738122E030E0D8
S1133CE082E69FE00E94BD3869ED7BE082E69FE0BA
S1133CF00E94F436F101408151816281738122E096
S1133D0030E082E69FE00E94BD3865EE7BE082E60B
S1133D109FE00E94F436EB85FC85E459FF4F408117
S1133D2051816281738122E030E082E69FE00E944B
S1133D30BD3882E69FE00E94FC3680E001C081E04D
S1133D402C960FB6F894DEBF0FBECDBFDF91CF9196
S1133D501F910F91FF90EF90DF90CF90BF90AF90A5
S1133D609F908F907F906F905F904F903F902F9097
S1133D700895FC0181E046895789208D318D4217D1
S1133D80530709F480E00895FC01208D318D868964
S1133D909789822793276823792381E0672B09F485
S1133DA080E00895DC015896ED91FC915997AF019C
S1133DB0409550954623572391E0452B09F490E014
S1133DC056962D913C9157972E273F2762237323B4
S1133DD081E0672B09F480E089230895DC0156967D
S1133DE0ED91FC915797AF01409550954623572389
S1133DF091E0452B09F490E058962D913C91599708
S1133E002E273F276223732381E0672B09F480E088
S1133E1089230895FC01808D918D80959095682368
S1133E20792381E0672B09F480E00895860F911DC2
S1133E30FC0180810895FC0183A5833031F0813039
S1133E4031F08C3031F080E0089581E0089582E013
S1133E50089583E00895DC019FB7F8945B96ED9193
S1133E60FC915C9720815A968C91822B80839FBF12
S1133E700895DC019FB7F8945E96ED91FC915F97ED
S1133E8020815D968C91822B80839FBF08958F92B1
S1133E909F92AF92BF92CF92DF92EF92FF920F93D5
S1133EA01F93CF93DF93EC0100E010E0F12CC62EBA
S1133EB0D12C812C912C54018394E02EC601002E28
S1133EC002C0959587950A94E2F780FF03C0CE015E
S1133ED0D0DF0AC02FB7F894EE8DFF8D90818D8DC1
S1133EE08095892380832FBF2FB7F894EB8DFC8DA9
S1133EF090818A8D8095892380832FBF84E090E010
S1133F000E944E3BECA1FDA190818BA1892351F02D
S1133F10D501C40104C0880F991FAA1FBB1FEA94CE
S1133F20D2F7F82ACE0197DF0F5F1F4F0830110533
S1133F3009F0C3CFCE019DDF83E090E00E944E3BA9
S1133F408F2DDF91CF911F910F91FF90EF90DF9014
S1133F50CF90BF90AF909F908F900895DC019FB752
S1133F60F8949196ED91FC919297208190968C9182
S1133F70822B80839FBF0895DC012FB7F89491961C
S1133F80ED91FC919297908190968C9180958923E4
S1133F9080832FBF0895CF92DF92EF92FF920F9309
S1133FA01F93CF93DF93EC016B01042FE5DF7601C0
S1133FB010E0C7018C199D098017910734F4F701AB
S1133FC061917F01CE0163DFF4CFCE01C7DF6AA523
S1133FD070E080E090E0DF91CF911F910F91FF900E
S1133FE0EF90DF90CF900C94153BCF93DF93EC01CF
S1133FF045E068E376E0CFDF49E06FE276E0CE01AA
S1134000CADF8CA5882329F045E068E176E0CE017B
S1134010C2DF8DA5882329F049E066E276E0CE016F
S1134020BADF49E06DE176E0CE01DF91CF91B3CF05
S11340302F923F924F925F926F927F928F929F92B4
S1134040AF92BF92CF92DF92EF92FF920F931F93A2
S1134050CF93DF93CDB7DEB729970FB6F894DEBFC1
S11340600FBECDBF4C01762E142F0E94E43AF4010A
S1134070C6A0D7A0E0A4F1A46C197D098E099F09FC
S11340800E9468306B017C0120E030E84BEB54E483
S11340900E947831181614F4C401A7DFF40162A554
S11340A070E080E090E00E946A301B012C019B01CB
S11340B0AC01C701B6010E94C82F87FF0AC0A7013F
S11340C09601C201B1010E94012F0E943C300E945E
S11340D0153B1123E1F0612F70E080E090E01F9226
S11340E01F921F922FEF2F9320E4A22EB12CC12CEC
S11340F0D12CE12CF12C8701EA9420E030E0A901D5
S11341000E94A33C162F0F900F900F900F90CE019A
S113411001967C0189E0F70111928A95E9F781E023
S1134120898382E48A837C821D8385E0382E8E0114
S1134130065F1F4F6401F9E0CF0ED11C540185E1E5
S1134140A80EB11CC40195DEC40185DEC40114DFD0
S113415083E090E00E944E3B27013401F20161911B
S11341602F01C40194DEF30181933F0140165106EF
S1134170A9F7F4018181893741F0C401EFDEF4012C
S11341808181807F803761F417C0360160E0C4010B
S11341907EDEF30181933F01EA15FB05B9F7EDCF0C
S11341A0C40123DFF40162A570E080E090E00E9486
S11341B0153B3A943110C6CFF4018181807F80375A
S11341C031F0F40182A58A3010F48F5F82A7F401E4
S11341D0808D918D978B868B83819481918F808F35
S11341E00E94E43AF40166A377A380A791A7918182
S11341F0907F81E0903709F080E029960FB6F8941B
S1134200DEBF0FBECDBFDF91CF911F910F91FF9005
S1134210EF90DF90CF90BF90AF909F908F907F9062
S11342206F905F904F903F902F90089540E060E032
S1134230FFCE6F927F928F929F92AF92BF92CF9256
S1134240EF92FF920F931F93CF93DF93CDB7DEB717
S11342502B970FB6F894DEBF0FBECDBF5C01862F3F
S113426070E0FB01E65DF84FE491D5015A96EC93BA
S11342705A97FB01E059F84FE491F0E0EE0FFF1F6D
S1134280E053F84F65917491F501748F638F642F37
S113429070E0FB01E65DF84FE4915D96EC935D9769
S11342A0FB01E059F84FE491F0E0EE0FFF1FE053FB
S11342B0F84F65917491F501778F668F622F70E0E6
S11342C0FB01E65DF84FE4919096EC93FB01E05915
S11342D0F84FE491F0E0EE0FFF1FE053F84F6591C3
S11342E07491F50172A361A3A02FB0E0FD01E65D16
S11342F0F84F9491F50193A3FD01E059F84FE4912F
S1134300F0E0EE0FFF1FEA54F84F65917491D50168
S113431095967C936E93949761E02A874B870E94CD
S1134320103C61E02A85822F0E94103C61E04B859D
S1134330842F0E94103C60E0802F0E94103C61E0BA
S1134340802F0E944C3CC50194DDC50184DDC5016C
S11343506DDFC5016BDFF5018181813429F083377D
S113436019F0893709F065C081E0D5019A968C93DC
S11343708BE0882E912CFF24F39445E068E376E0EB
S1134380C50109DE83E090E00E944E3BC50171DD6A
S1134390C50161DDC501F0DD83E090E00E944E3B84
S11343A008EF1BE0CE0101963C01F80161918F01F9
S11343B0C5016DDDD3018D933D01BCE001301B07C8
S11343C0A1F7C501CBDD8C81F50183A749E06FE23C
S11343D076E0C501E0DDCC2041F045E068E176E01F
S11343E0C501D9DDD5019C96FC92EE2039F049E057
S11343F066E276E0C501CFDDF501F5A649E06DE1A1
S113440076E0C501C8DDC50111DFD50111968C9197
S1134410EE2021F0893789F0833769F0833769F01A
S1134420B1E08B1A910859F0F50182A58F5F82A73C
S1134430A4CF81E005C083E003C080E001C082E036
S11344402B960FB6F894DEBF0FBECDBFDF91CF9190
S11344501F910F91FF90EF90CF90BF90AF909F90DE
S11344608F907F906F900895FC01108211821282C8
S11344701382148215821682178210861186128680
S113448013861486158616861786108A118A128A50
S1134490138A148A158A168A178A108E118E128E20
S11344A0138E148E158E168E178E10A211A212A2C0
S11344B013A214A215A216A217A210A611A612A640
S11344C013A614A615A616A617A610AA11AA12AA10
S11344D013AA14AA15AA8FEF86AB87AB10AE11AE40
S11344E082AF80E883AF14AE15AE84E686AF17AE14
S11344F0089508954F925F926F927F928F929F9248
S1134500AF92BF92CF92DF92EF92FF92CF93DF935D
S1134510CDB7DEB72C970FB6F894DEBF0FBECDBF74
S113452060918A0E70918B0E80918C0E90918D0EFD
S11345300E946A3021EE3AE744E95FE30E94833146
S113454020E030E040E05BE30E9483312BED3FE06C
S113455049E450E40E94833120E030E048E152E431
S11345600E9483316B017C0160937E0E70937F0EF9
S11345708093800E9093810E10928A0E10928B0E6F
S113458010928C0E10928D0E6091860E7091870E93
S11345908091880E9091890E0E946A3021EE3AE74C
S11345A044E95FE30E94833120E030E040E05BE3D4
S11345B00E9483312BED3FE049E450E40E948331B3
S11345C020E030E048E152E40E9483314B015C0179
S11345D060937A0E70937B0E80937C0E90937D0E85
S11345E01092860E1092870E1092880E1092890EE9
S11345F06091820E7091830E8091840E9091850E4D
S11346000E946A3021EE3AE744E95FE30E94833175
S113461020E030E040E05BE30E9483312BED3FE09B
S113462049E450E40E94833120E030E048E152E460
S11346300E94833169837A838B839C836093760E93
S11346407093770E8093780E9093790E1092820E69
S11346501092830E1092840E1092850E20E030E0AA
S113466044E353E46091D50C7091D60C8091D70C3F
S11346709091D80C0E94CF2F2BED3FE049E450E4F9
S11346800E9483312B013C0160936A0E70936B0E80
S113469080936C0E90936D0E29813A814B815C81DD
S11346A0C501B4010E94012F20E030E040E05FE347
S11346B00E94833169837A838B839C832091C60C07
S11346C03091C70C4091C80C5091C90CC301B20180
S11346D00E94012F4B015C012BED3FE049EC5FE3AD
S11346E00E947831181654F42BED3FE049E450E46D
S11346F0C501B4010E94012F4B015C012BED3FE089
S113470049EC5FEBC501B4010E94C82F87FF0AC0C2
S11347102BED3FE049E450E4C501B4010E94022FAF
S11347204B015C0120E030E0A901C501B4010E9405
S113473083319B01AC01C701B6010E94012F698737
S11347407A878B879C874092C60C5092C70C6092E4
S1134750C80C7092C90CC301B2010E94CC2F4B014A
S11347605C01C301B2010E9432326D837E838F8368
S11347709887A501940169857A858B859C850E941B
S113478083316B017C012D813E814F815885698184
S11347907A818B819C810E9483319B01AC01C7018A
S11347A0B6010E94022F2091720E3091730E409137
S11347B0740E5091750E0E94022F6B017C01609360
S11347C0720E7093730E8093740E9093750EA50100
S11347D0940169817A818B819C810E9483314B0190
S11347E05C012D813E814F81588569857A858B8551
S11347F09C850E9483319B01AC01C501B4010E94D8
S1134800012F20916E0E30916F0E4091700E5091D9
S1134810710E0E94022F60936E0E70936F0E809340
S1134820700E9093710EC092960ED092970EE092F5
S1134830980EF092990E6093920E7093930E80935B
S1134840940E9093950E2BED3FE049E450E4C301A0
S1134850B2010E94CF2F20E030E044E353E40E94F1
S1134860833160938E0E70938F0E8093900E90938D
S1134870910E2C960FB6F894DEBF0FBECDBFDF911C
S1134880CF91FF90EF90DF90CF90BF90AF909F902B
S11348908F907F906F905F904F90089584E00E9476
S11348A07B3C40918A0E50918B0E60918C0E7091DE
S11348B08D0E019729F4415051096109710904C011
S11348C04F5F5F4F6F4F7F4F40938A0E50938B0E15
S11348D060938C0E70938D0E089585E00E947B3C4E
S11348E04091860E5091870E6091880E7091890ECA
S11348F0019729F44F5F5F4F6F4F7F4F04C04150C2
S11349005109610971094093860E5093870E609393
S1134910880E7093890E089586E00E947B3C409136
S1134920820E5091830E6091840E7091850E0197D2
S113493029F44F5F5F4F6F4F7F4F04C041505109BF
S1134940610971094093820E5093830E6093840E23
S11349507093850E089562E083E10E94103C62E04A
S113496082E00E94103C62E083E00E94103C62E01E
S113497084E00E94103C62E085E00E94103C62E00A
S113498086E00E94103C42E050E06EE474E284E071
S11349900E94CF3842E050E06DE674E280E00E946D
S11349A0CF3842E050E06CE874E281E00C94CF38F8
S11349B062E087E00E94103C87E00E947B3C909379
S11349C04106809340060895CF93DF9300D000D032
S11349D0CDB7DEB726E040E052EC61E070E082E65D
S11349E09FE00E94833440E052EC61E070E081E398
S11349F09EE00E94201282E39EE00E94E01281EA7F
S1134A009DE00E94A711A7DF60E277E0CE01019646
S1134A100E94493D42E350E0BE016F5F7F4F8FEF3C
S1134A209DE00E94602ECE0101960E94E23C6AE75E
S1134A3072E28FEF9DE00E94CF2E85ED9CE00E94F4
S1134A40D10F85ED9CE00E94BD0F85ED9CE00E9496
S1134A50C70F8BE09EE00E9487178BE09EE00E94C8
S1134A60141881E08093240E68E070E08CE09FE0ED
S1134A700E945C2D69ED75E28CE09FE00E94DE2DC2
S1134A8026960FB6F894DEBF0FBECDBFDF91CF914F
S1134A90089585ED9CE00C94F10FCF92DF92EF9294
S1134AA0FF920F931F9382E39EE00E94981281E38A
S1134AB09EE00E941F1285E29EE00E940D178BE08B
S1134AC09EE00E9464178FEF9DE00E944B2E83EFBF
S1134AD09DE00E94221780EF9DE00E94911288E0E1
S1134AE0C82ED12CE12CF12C00E01FE326E933E49D
S1134AF04BE85DE36CE271E082EC9DE00E9473148C
S1134B0081EA9DE00E946C108BE29DE00E94931963
S1134B108BEE9CE0A9DC85ED9CE00E94B90F61E07E
S1134B207CE08FEC9CE00E94493DE091CB0CF0913D
S1134B30CC0CE35CF94F80818093CA0C1F910F91D8
S1134B40FF90EF90DF90CF9008958FEC9CE00E944F
S1134B50E23C83EF9DE00E9437178FEF9DE00E94B7
S1134B60D42E8EE19EE00C94E23CCF93DF9341E09F
S1134B7050E065E070E08CE09FE00E94DA2D8CE06C
S1134B809FE0B9D6892B91F08CE09FE0BCD6EC0174
S1134B9067E07CE082E69FE00E94F4364AE050E061
S1134BA0BE0182E69FE00E94AE37E9CFDF91CF914C
S1134BB008958CE09FE09FD6029724F08CE09FE05C
S1134BC0A2D6F7CF0895F4DE65E070E08CE09FE0B4
S1134BD07ED7609140068CE09FE018D78CE09FE080
S1134BE0EBC72F923F924F925F926F927F928F9278
S1134BF09F92AF92BF92CF92DF92EF92FF920F9368
S1134C001F93CF93DF93CDB7DEB76E970FB6F894AB
S1134C10DEBF0FBECDBF8BE09EE00E9414188BEE6A
S1134C209CE067DC85ED9CE00E94BD0FCCDF9DDF3E
S1134C308091240E81111FC28091CA0C8111F1C18F
S1134C408091CD0C9091CE0C892BA1F5C0908E0E45
S1134C50D0908F0EE090900EF090910E0091920EF5
S1134C601091930E2091940E3091950E4091960ED2
S1134C705091970E6091980E7091990E84E48F93E1
S1134C808FEA8F931F921F92812C912C54018BE2F7
S1134C909DE00E94671A0F900F900F900F90882349
S1134CA049F08091CD0C9091CE0C01969093CE0C4E
S1134CB08093CD0C8091CD0C9091CE0C0197D9F4BA
S1134CC040918E0E50918F0E6091900E7091910EC6
S1134CD000E010E024EB32E48BE29DE00E94521DE0
S1134CE0882349F08091CD0C9091CE0C019690933D
S1134CF0CE0C8093CD0C8091CD0C9091CE0C02976C
S1134D00B9F5C0908E0ED0908F0EE090900EF0907A
S1134D10910E0091920E1091930E2091940E309169
S1134D20950E4091960E5091970E6091980E709149
S1134D30990E84E48F938FEA8F931F921F92812C94
S1134D40912CB6E1AB2EB4E4BB2E8BE29DE00E9425
S1134D50671A0F900F900F900F90882349F080915D
S1134D60CD0C9091CE0C01969093CE0C8093CD0CEB
S1134D708091CD0C9091CE0C0397D1F440918E0E7E
S1134D8050918F0E6091900E7091910E00E010E0A2
S1134D9098018BE29DE00E94521D882349F0809186
S1134DA0CD0C9091CE0C01969093CE0C8093CD0CAB
S1134DB08091CD0C9091CE0C0497B9F5C0908E0ED5
S1134DC0D0908F0EE090900EF090910E0091920E84
S1134DD01091930E2091940E3091950E4091960E61
S1134DE05091970E6091980E7091990E85E48F936F
S1134DF086E18F931F921F92812C912CA6E1AA2EFB
S1134E00A4E4BA2E8BE29DE00E94671A0F900F90E3
S1134E100F900F90882349F08091CD0C9091CE0C87
S1134E2001969093CE0C8093CD0C8091CD0C9091F3
S1134E30CE0C0597D9F440918E0E50918F0E60914F
S1134E40900E7091910E00E010E024EB32EC8BE2B6
S1134E509DE00E94521D882349F08091CD0C9091D1
S1134E60CE0C01969093CE0C8093CD0C8091CD0CFA
S1134E709091CE0C0697B9F5C0908E0ED0908F0EFF
S1134E80E090900EF090910E0091920E1091930E7E
S1134E902091940E3091950E4091960E5091970E5C
S1134EA06091980E7091990E85E48F9386E18F93AB
S1134EB01F921F92812C912CF6E1AF2EF4ECBF2EA1
S1134EC08BE29DE00E94671A0F900F900F900F9055
S1134ED0882349F08091CD0C9091CE0C019690934B
S1134EE0CE0C8093CD0C8091CD0C9091CE0C079775
S1134EF0D9F440918E0E50918F0E6091900E709166
S1134F00910E00E010E024E333EC8BE29DE00E947C
S1134F10521D882349F08091CD0C9091CE0C0196BE
S1134F209093CE0C8093CD0C8091CD0C9091CE0CAF
S1134F300897B9F5C0908E0ED0908F0EE090900E29
S1134F40F090910E0091920E1091930E2091940E78
S1134F503091950E4091960E5091970E6091980E57
S1134F607091990E84E48F938FEA8F931F921F920E
S1134F70812C912CE6E1AE2EE4ECBE2E8BE29DE07A
S1134F800E94671A0F900F900F900F90882349F09A
S1134F908091CD0C9091CE0C01969093CE0C809381
S1134FA0CD0C8091CD0C9091CE0C0997D9F4409101
S1134FB08E0E50918F0E6091900E7091910E00E0C4
S1134FC010E024E333EC8BE29DE00E94521D882321
S1134FD049F08091CD0C9091CE0C01969093CE0C1B
S1134FE08093CD0C8091CD0C9091CE0C0A9731F426
S1134FF06FE07CE082E69FE00E94F4368091CD0C65
S11350009091CE0C82976CF081E08093CA0C109240
S1135010CE0C1092CD0C64E17CE082E69FE00E940D
S1135020FF368091CA0C8130A9F480914206813008
S113503089F48091EB0C882369F068EE73E080E0DA
S113504090E00E94153B8091EB0C882319F083E0DB
S11350508093420660919B0D70919C0D80919D0DF3
S113506090919E0D4090970D5090980D6090990DE1
S113507070909A0D01C160911A0E70911B0E072E4B
S1135080000C880B990B2FEF2F932F932CEF2F935A
S113509028E12F93E8EEAE2EE3E0BE2EC12CD12CF6
S11350A0E12CF12C8701EA9420E030E0A9010E9470
S11350B0A33C6F87788B898B9A8B6091180E7091C3
S11350C0190E072E000C880B990B1F921F92ACE04F
S11350D06A2E6F92B4E47B2E7F922CEBA22E23EFE8
S11350E0B22ECC24CA94DC2C20E030E0A9010E942A
S11350F0A33C0FB6F894DEBF0FBECDBF2091110EB6
S1135100211109C0E7D720E030E84BEB54E447D73E
S11351102B013C0126C01F921F926F927F926CEB71
S1135120A62E63EFB62ECC24CA94DC2CE12CF12CF1
S11351308701EA9420E030E0A90164E470E080E0B3
S113514090E00E94A33CC6D720E030E84BEB54E447
S113515026D72B013C011092110E0F900F900F9047
S11351600F908091120E882341F11F921F928CE0C0
S11351708F9384E48F934CEBA42E43EFB42ECC2472
S1135180CA94DC2CE12CF12C8701EA9420E030E075
S1135190A9016CEB70E080E090E00E94A33C9AD7F8
S11351A020E030E84BEB54E4FAD62B013C0110929A
S11351B0120E0F900F900F900F9080910F0E81118F
S11351C00BC06F85788989899A8984D720E030E07B
S11351D04AE754E4E4D626C08FEF8F938F938CEF85
S11351E08F9388E18F9328EEA22E23E0B22EC12C58
S11351F0D12CE12CF12C8701EA9420E030E0A901C4
S113520064E470E080E090E00E94A33C63D720E077
S113521030E04AE754E4C3D610920F0E0F900F907B
S11352200F900F902091100E222331F18FEF8F9366
S11352308F938CEF8F9388E18F9388EEA82E83E071
S1135240B82EC12CD12CE12CF12C8701EA9420E05A
S113525030E0A9016CEB70E080E090E00E94A33C98
S113526039D720E030E04AE754E499D61092100E82
S11352700F900F900F900F907301620100E010E007
S11352809801AB01BC0182EC9DE00E94E2152983E8
S11352903A834B835C836D837E838F8398872980D5
S11352A03A808B819C81988B8F874D805E802F8183
S11352B038853C8B2B8B8901119501951109AC0123
S11352C05195419551099201B10181EA9DE00E94F5
S11352D0AE10C0908E0ED0908F0EE090900EF09095
S11352E0910E0091920E1091930E2091940E309194
S11352F0950E4091960E5091970E6091980E709174
S1135300990E81E39EE00E942B122091DD0C3091D6
S1135310DE0C4091DF0C5091E00C8091D90C8D8B08
S11353209091DA0C9E8B8091DB0C8F8B9091DC0C2E
S1135330988F1091D50C0091D60C8091D70C898F41
S11353409091D80C9A8F3E0189E0680E711C6EE131
S11353507EE0C3012B8F3C8F4D8F5E8F0E94723D88
S11353608090920E9090930EA090940EB090950E13
S1135370C090960ED090970EE090980EF090990EF3
S11353805E8D5F934D8D4F933C8D3F932B8D2F936B
S1135390288D2F933F893F932E892F933D893F93E7
S11353A02A8D2F93398D3F930F931F937F926F9282
S11353B02091910E2F932091900E2F9320918F0E78
S11353C02F9320918E0E2F930B891C8992014F8568
S11353D05889B10182E39EE00E94F212C3010E9447
S11353E0E23C62EB7BE08EE19EE00E947A3D0FB6E8
S11353F0F894DEBF0FBECDBF6E960FB6F894DEBF35
S11354000FBECDBFDF91CF911F910F91FF90EF9011
S1135410DF90CF90BF90AF909F908F907F906F90D0
S11354205F904F903F902F900895CF93CFB7F8940B
S113543080919D0E811127C0E5EAF7E08491EFE5A4
S1135440F7E09491E82FF0E0EE0FFF1FE651F84FDC
S1135450A591B491EC91E92321F461E085E30E94E4
S11354604C3C61E085E30E94103C8CB580618CBDAE
S11354708CB580648CBD61E084E30E94103C61E0E3
S113548083E30E94103C80919D0E8F5F80939D0E5C
S1135490CFBFCF91089510920B0F81E08093090F35
S11354A01092080F61E084E10E944C3C61E085E1C8
S11354B00E944C3CE9EBF0E080818E7F8083808108
S11354C08D7F808388E48093B80085E48093BC005A
S11354D00895880F8093BA000895413208F043C0BC
S11354E090910B0F9111FCCF91E090930B0F2093AF
S11354F0090F2FEF20939E0E1092E30E240F20939A
S1135500E20E90930A0F90910A0F880F892B8093D3
S11355100A0F8091080F813061F41092080F809176
S11355200A0F8093BB008091BC0083FDF8CF85EC0B
S113553001C085EE8093BC0080910B0F8130E1F3B4
S11355408091E30E841710F44091E30E24EE3EE0C4
S1135550FB01D9018A2F821B841718F48D91819342
S1135560F9CF842F089580E008950F93413208F015
S11355704AC090910B0F9111FCCF32E030930B0F86
S11355800093090F3FEF30939E0E1092E30E409369
S1135590E20EFB0164EE7EE0DB013A2F361B34178A
S11355A018F431913D93F9CF10920A0F30910A0FFC
S11355B0880F832B80930A0F8091080F813061F448
S11355C01092080F80910A0F8093BB008091BC0059
S11355D083FDF8CF85EC01C085EE8093BC002223C7
S11355E021F080910B0F8230D1F380919E0E8F3F7A
S11355F079F080919E0E803241F080919E0E80332E
S113560031F094E005C091E003C092E001C093E062
S1135610892F0F9108954091C00E262F30E0240F5A
S1135620311D21323105DCF420910B0F2430C9F4F3
S1135630FC0180E090E0861758F43091C00E21916F
S1135640DC01AE53B14FA30FB11D2C930196F3CFE0
S11356508091C00E680F6093C00E80E0089581E0D1
S1135660089582E008959093050F8093040F0895A0
S11356709093070F8093060F089585ED8093BC00E7
S11356808091BC0084FDFCCF10920B0F089585EC33
S11356908093BC0010920B0F08951F920F920FB6C7
S11356A00F9211240BB60F922F933F934F935F9356
S11356B06F937F938F939F93AF93BF93EF93FF93D6
S11356C08091B900887F803609F49DC070F58832D6
S11356D009F45CC090F4803109F455C038F488238F
S11356E009F4F3C0883009F44EC0F2C0883109F4DB
S11356F04DC0803209F45EC0EBC0803409F469C047
S113570050F4803309F456C0883309F0E1C0809323
S11357109E0EBDDFDDC0803509F44FC0883509F425
S11357205DC0883409F0D4C0D2C0883909F4C3C03C
S1135730A8F4883709F467C038F4883609F463C0DC
S1135740803709F460C0C4C0883809F4B4C0803913
S113575009F45FC0803809F0BBC05BC0803B09F42A
S113576082C038F4803A09F466C0883A09F47BC0F0
S1135770AFC0803C09F4A3C0883C09F4A0C0883BB6
S113578009F486C0A5C080910A0F10C09091E30E61
S11357908091E20E981770F5E091E30E81E08E0F90
S11357A08093E30EF0E0EC51F14F80818093BB00D5
S11357B085EC82C080939E0E8AC0E091E30E81E066
S11357C08E0F8093E30E8091BB00F0E0EC51F14F1B
S11357D080839091E30E8091E20E6AC0E091E30E23
S11357E081E08E0F8093E30E8091BB00F0E0EC51DA
S11357F0F14F80838091090F811169C081E080930A
S1135800080F84EA5DC083E080930B0F10929F0E13
S1135810CFCF80919F0E803208F04DC0E0919F0E53
S113582081E08E0F80939F0E8091BB00F0E0E056E4
S1135830F14F8083BDCF2BDF80919F0E803230F4F7
S1135840E0919F0EF0E0E056F14F108260919F0EC0
S113585070E0E091040FF091050F80EA9EE0199545
S113586010929F0E35C084E080930B0F1092C10EEE
S11358701092C00EE091060FF091070F19958091D8
S1135880C00E811105C081E08093C00E1092C20E3B
S1135890E091C10E81E08E0F8093C10EF0E0EE53D3
S11358A0F14F80818093BB009091C10E8091C00E16
S11358B0981708F47DCF85E88093BC0009C085EC77
S11358C08093BC0010920B0F03C010929E0ED5DE85
S11358D0FF91EF91BF91AF919F918F917F916F91C4
S11358E05F914F913F912F910F900BBE0F900FBE80
S11358F00F901F9018958091400F90E02091410FD8
S1135900821B910908959091410F8091400F98173F
S113591050F4E92FF0E0EE5BF04F208130E09F5F20
S11359209093410F02C02FEF3FEFC9010895E0911A
S1135930410F8091400FE81730F4F0E0EE5BF04F38
S1135940808190E008958FEF9FEF08950895AC0152
S1135950E091180FF091190F3097E1F09091410FF9
S11359608091400F9817B0F090E0292F30E026176F
S1135970370754F4DA01A20FB31F8C91D901AE5B3F
S1135980B04F8C939F5FF1CF1092410F6093400F03
S1135990CB0119940895E0911A0FF0911B0F3097E1
S11359A029F010921E0F10921D0F19940895CF9292
S11359B0DF92EF92FF920F931F93CF93DF937C01BB
S11359C0262F972F8A0180911C0F882391F0C62FD0
S11359D0D72F6E01C40ED51ECC15DD0569F0699173
S11359E0D701ED91FC910190F081E02DC70119954B
S11359F0F3CF642F822F0FDEC801DF91CF911F9167
S1135A000F91FF90EF90DF90CF900895CF93DF93A5
S1135A101F92CDB7DEB7698320911C0F2223D1F0EA
S1135A2020911D0F203240F021E030E0FC0133834F
S1135A30228380E090E014C080911E0FE82FF0E0F4
S1135A40E15EF04F998190838F5F80931E0F809366
S1135A501D0F04C061E0CE010196DDDD81E090E020
S1135A600F90DF91CF910895FC011382128288EE8A
S1135A7093E0A0E0B0E084839583A683B7838AE3B0
S1135A809CE09183808308951092410F1092400FFF
S1135A9010921E0F10921D0FFECCCF93DF93EC01DA
S1135AA0862F17DD8BEC9CE2E3DD87EA9CE2DBDDED
S1135AB0CE01DF91CF91E8CFF0CF81E080931C0F2E
S1135AC060933F0F10921E0F10921D0F0895F5CF93
S1135AD00F93062F21E040911D0F6FE17FE080912D
S1135AE03F0F43DD10921E0F10921D0F10921C0FDA
S1135AF00F9108954F925F926F927F92AF92BF92EF
S1135B00CF92EF92FF920F931F93CF93DF935C0199
S1135B10F62ED42F28013901EE2011F1CEDFCE2D3F
S1135B20C43008F0C3E0C150C0F0D501ED91FC9140
S1135B30B8E0CB9FC0011124A301920104C0569583
S1135B404795379527958A95D2F7CA01B9010190EF
S1135B50F081E02DC5011995E6CF60E0C501B8DFFD
S1135B604D2FD13208F040E22C2D62E47FE08F2DDE
S1135B70B4DC1092410F8093400FDF91CF911F91BD
S1135B800F91FF90EF90CF90BF90AF907F906F9068
S1135B905F904F900895CF92EF920F931F93C22E70
S1135BA0E12C00E010E09801A5DF1F910F91EF9028
S1135BB0CF90089521E0EFCF61E08ACF7093190F61
S1135BC06093180F08958CE09FE04ECF08954F9294
S1135BD05F926F927F92AF92BF92CF92DF92EF92D9
S1135BE0FF920F931F93CF93DF93CDB7DEB72A971E
S1135BF00FB6F894DEBF0FBECDBF7C015B018AE017
S1135C00E5E5F6E0DE01119601900D928A95E1F743
S1135C10CE0101966C0100E010E030E8432E3EE333
S1135C20532E612C712CF601619171916F01CB019E
S1135C30770FAA0BBB0B77276627A30192010E945B
S1135C40F53DA216B3062CF00F5F1F4F053011056A
S1135C5051F7F70131872087000F111FE1E0F0E0D1
S1135C60EC0FFD1FE00FF11F808191812A960FB682
S1135C70F894DEBF0FBECDBFDF91CF911F910F917E
S1135C80FF90EF90DF90CF90BF90AF907F906F9098
S1135C905F904F900895CF93DF93EC0162EB7BE02C
S1135CA00E94493D81E090E09F838E831986188687
S1135CB01B861A868FB780688FBFDF91CF910895B6
S1135CC0EF92FF920F931F93CF93DF93EC017B012D
S1135CD08A010E945D3DB801CE0179DF9F838E83E6
S1135CE0C7010E94AD3D60E277E0C7010E948F3D8D
