:100000000BC400000C94953F0C94C03F0C94EB3F44
:100010000C9416400C9441400C946C400C94974006
:100020000C94C2402AC4000028C4000026C400006A
:1000300024C4000022C4000020C400001EC400002C
:100040001CC400000C94293518C4000016C400001C
:1000500014C4000012C4000010C400000C94ED4051
:100060000CC400000C943B3B0C94713B06C4000094
:1000700004C4000002C4000000C40000FEC300006D
:100080000C94FA17FAC30000F8C30000F6C300008E
:10009000F4C30000F2C30000F0C300000C94603110
:1000A000ECC30000EAC30000E8C30000E6C30000A0
:1000B000E4C30000E2C30000E0C30000DEC30000B0
:1000C000DCC30000DAC30000D8C300000C94D03BAE
:1000D0000C94063CD2C300000C94653C0C949B3CF1
:1000E000CCC30000084AD73B3BCE016E84BCBFFDA9
:1000F000C12F3D6C74319ABD56833DDA3D00C77FF8
:1001000011BED9E4BB4C3E916BAAAABE0000008090
:100110003F05A84CCDB2D44EB93836A9020C50B91F
:10012000918688083CA6AAAA2ABE000000803F0744
:10013000634236B79BD8A71A39685618AEBAAB5582
:100140008C1D3CB7CC5763BD6DEDFD753EF6177247
:1001500031BF000000803F08000000BE9224491219
:100160003EABAAAA2ABECDCCCC4C3E00000080BE3D
:10017000ABAAAAAA3E00000000BF000000803F001A
:1001800000000000084178D3BB4387D1133D190E0E
:100190003CC3BD4282AD2B3E68EC8276BED98FE176
:1001A000A93E4C80EFFFBE01C4FF7F3F000000006E
:1001B00000006F3F393F413F4D3F5A3F7B3F883FF3
:1001C00028422B421A421E42244262422F423342AC
:1001D00039423D42414247424B424F4262425542C0
:1001E00059425D4200000000003E5B4F5B3E3E6BAB
:1001F0004F6B3E1C3E7C3E1C183C7E3C181C577DC1
:10020000571C1C5E7F5E1C00183C1800FFE7C3E70C
:10021000FF0018241800FFE7DBE7FF30483A060E1E
:100220002629792926407F050507407F05253F5A65
:100230003CE73C5A7F3E1C1C08081C1C3E7F1422D5
:100240007F22145F5F005F5F06097F017F00668980
:10025000956A606060606094A2FFA29408047E04C6
:100260000810207E201008082A1C08081C2A0808EC
:100270001E101010100C1E0C1E0C30383E383006AC
:100280000E3E0E06000000000000005F00000007A8
:10029000000700147F147F14242A7F2A12231308D6
:1002A000646236495620500008070300001C2241B2
:1002B000000041221C002A1C7F1C2A08083E080856
:1002C0000080703000080808080800006060002006
:1002D000100804023E5149453E00427F40007249E9
:1002E0004949462141494D331814127F102745458D
:1002F00045393C4A494931412111090736494949A3
:1003000036464949291E0000140000004034000010
:100310000008142241141414141400412214080279
:10032000015909063E415D594E7C1211127C7F49EC
:100330004949363E414141227F4141413E7F494941
:1003400049417F090909013E414151737F0808086D
:100350007F00417F41002040413F017F081422413E
:100360007F404040407F021C027F7F0408107F3E98
:100370004141413E7F090909063E4151215E7F0905
:10038000192946264949493203017F01033F40406C
:10039000403F1F2040201F3F4038403F6314081457
:1003A0006303047804036159494D43007F4141418F
:1003B0000204081020004141417F04020102044070
:1003C00040404040000307080020545478407F28F4
:1003D0004444383844444428384444287F385454EA
:1003E000541800087E090218A4A49C787F0804040D
:1003F0007800447D40002040403D007F10284400AC
:1004000000417F40007C047804787C08040478383C
:1004100044444438FC1824241818242418FC7C086C
:10042000040408485454542404043F44243C4040E9
:10043000207C1C2040201C3C4030403C442810289C
:10044000444C9090907C4464544C440008364100E5
:100450000000770000004136080002010204023C5F
:100460002623263C1EA1A161123A4040207A38542E
:1004700054555921555579412254547842215554A7
:10048000784020545579400C1E52721239555555FA
:1004900059395454545939555454580000457C41E5
:1004A0000002457D420001457C407D1211127DF025
:1004B000282528F07C545545002054547C547C0A4F
:1004C000097F4932494949323A4444443A324A4818
:1004D00048303A4141217A3A42402078009DA0A01C
:1004E0007D3D4242423D3D4040403D3C24FF24246E
:1004F000487E4943662B2FFC2F2BFF0929F620C08D
:10050000887E090320545479410000447D413048DD
:10051000484A32384040227A007A0A0A727D0D1920
:10052000317D2629292F28262929292630484D4082
:1005300020380808080808080808382F10C8ACBA7E
:100540002F102834FA00007B000008142A142222FD
:10055000142A14085500550055AA55AA55AAFF5546
:10056000FF55FF000000FF00101010FF00141414CE
:10057000FF001010FF00FF1010F010F0141414FC16
:10058000001414F700FF0000FF00FF1414F404FC33
:10059000141417101F10101F101F1414141F001014
:1005A0001010F0000000001F101010101F1010108D
:1005B00010F010000000FF1010101010101010109C
:1005C000FF10000000FF140000FF00FF00001F10DC
:1005D000170000FC04F414141710171414F404F496
:1005E0000000FF00F714141414141414F700F71487
:1005F0001414171410101F101F141414F4141010D6
:10060000F010F000001F101F0000001F1400000079
:10061000FC140000F010F01010FF10FF141414FF71
:10062000141010101F00000000F010FFFFFFFFFF6C
:10063000F0F0F0F0F0FFFFFF0000000000FFFF0F00
:100640000F0F0F0F3844443844FC4A4A4A347E02A4
:10065000020606027E027E02635549416338444425
:100660003C04407E201E2006027E020299A5E7A5DA
:10067000991C2A492A1C4C7201724C304A4D4D304B
:100680003048784830BC625A463D3E494949007E70
:100690000101017E2A2A2A2A2A44445F4444405107
:1006A0004A444040444A51400000FF0103E080FFBB
:1006B000000008086B6B083612362436060F090F47
:1006C00006000018180000001010003040FF010163
:1006D000001F01011E00191D1712003C3C3C3C008C
:1006E0000000000000000A0B02090C0D0E080703B1
:1006F00004010000000000000000000000000000F5
:1007000000000000000000000000000000000000E9
:1007100012111000000000000000000000000000A6
:10072000000000000000000000000102102020086E
:10073000081020401020408002010201080402013C
:1007400001020408102040808040201008040201AB
:100750008004020180402010080402010804020104
:10076000010204081020408001020408102040808B
:1007700005050505070508080808020202020A0A1D
:10078000080804040404010101010101010103033B
:10079000030303030303040707070C0C0C0C0C0CE6
:1007A0000C0C0202020206060606060606060B0BE3
:1007B0000B0B0B0B0B0B0000200023002600290065
:1007C0002C002F0032000001000003010601090186
:1007D00000002200250028002B002E0031003400EC
:1007E00002010000050108010B01000021002400A6
:1007F00027002A002D003000330001010000040111
:1008000007010A01F00F4F1330156820B92FF93393
:10081000A33B383CCD3CFB2F11241FBECFEFD1E2D0
:10082000DEBFCDBF00E00CBF1DE0A0E0B2E0E0ED18
:10083000FDE800E00BBF02C007900D92AE33B10798
:10084000D9F722E1AEE3BDE001C01D92AC30B207A2
:10085000E1F714E0CBE0D4E000E006C02197010905
:10086000802FFE010E946444C230D10780E0080757
:10087000A9F70E94FB3C0C94D746C2CB80E090E0E5
:10088000089508952F923F924F925F926F927F92B8
:100890008F929F92AF92BF92CF92DF92EF92FF9290
:1008A0000F931F93CF93DF9300D0CDB7DEB74C01EA
:1008B0007B836A836A01590117019801241B350B58
:1008C00037FF03C0319521953109C5014A815B810C
:1008D000841B950B97FF03C091958195910951E079
:1008E00059838217930714F019820BC09A2D8B2D10
:1008F0005801092F182F9A818B81DB82CA82C92E59
:10090000D82E8A819B81A816B9065CF49C2D8D2D6A
:100910006801092F182F9A818B81BB82AA82A92E88
:10092000B82E2501AA81BB814A1A5B0A38016C18CE
:100930007D0877FE03C0719461947108720157FEBF
:1009400003C0BFEFEB1AFB0AF594E794C016D1067B
:100950001CF00FEF1FEF1FC001E010E01CC0D4011E
:10096000ED91FC91B9810484F585E02D9101BB23C3
:10097000C1F04A815B81B601C4011995E618F708F8
:10098000F7FE04C0C00ED11EE40CF51CEA81FB8109
:100990003196FB83EA834A815B81A416B506FCF697
:1009A00004C0A6016A817B81E7CF0F900F900F9062
:1009B000DF91CF911F910F91FF90EF90DF90CF903B
:1009C000BF90AF909F908F907F906F905F904F906F
:1009D0003F902F9008950895DC01ED91FC910084E3
:1009E000F185E02D19940F931F93DC01ED91FC919B
:1009F000048CF58DE02D19951F910F9108950F939B
:100A00001F93DC01ED91FC91068CF78DE02D19957B
:100A10001F910F910895EF92FF920F931F93DC01A6
:100A2000ED91FC9100A0F1A1E02D19951F910F917E
:100A3000FF90EF9008950895AF92BF92CF92DF920A
:100A4000EF92FF920F931F93CF93DF9300D01F92EB
:100A5000CDB7DEB75C016901DC01ED91FC91028448
:100A6000F385E02D4B835C8369837A831995D501E7
:100A7000ED91FC914B815C81C40ED51EB1E0CB1A87
:100A8000D1080488F589E02D7801860169817A8191
:100A90009B01C5011995D501ED91FC910688F78957
:100AA000E02DC5010F900F900F900F90DF91CF9127
:100AB0001F910F91FF90EF90DF90CF90BF90AF907C
:100AC0001994AF92BF92CF92DF92EF92FF920F9361
:100AD0001F93CF93DF9300D01F92CDB7DEB75C0199
:100AE0006901DC01ED91FC910284F385E02D4B83DB
:100AF0005C8369837A831995D501ED91FC916981B5
:100B00007A819B012C0D3D1D215031090488F58906
:100B1000E02D78014B815C818A01C5011995D501D1
:100B2000ED91FC910688F789E02DC5010F900F909B
:100B30000F900F90DF91CF911F910F91FF90EF9049
:100B4000DF90CF90BF90AF9019944F925F926F92C9
:100B50007F928F929F92AF92BF92CF92DF92EF924D
:100B6000FF920F931F93CF93DF931F921F92CDB7E6
:100B7000DEB76C015A0139014801DC01ED91FC91AD
:100B80000284F385E02D69837A8319956981462E65
:100B90007A81572E640C751CD601ED91FC91461498
:100BA00057046CF40088F189E02D87019401A501B8
:100BB000B201C6011995BFEF4B1A5B0AEDCF06884B
:100BC000F789E02DC6010F900F90DF91CF911F9113
:100BD0000F91FF90EF90DF90CF90BF90AF909F90DC
:100BE0008F907F906F905F904F901994EF92FF924B
:100BF0000F931F93DC01ED91FC9111971A960D91C3
:100C00001C911B9718962D913C91199700A0F1A16A
:100C1000E02D7B0140E050E060E070E019951F910D
:100C20000F91FF90EF900895CF92DF92EF92FF9295
:100C30000F931F93CF93DF9300D000D0CDB7DEB7D3
:100C40006C01DC01ED91FC916217730789F40417C4
:100C500015072CF4942F852FA801092F182F041B9A
:100C6000150B98012F5F3F4F048CF58DE02D12C0BE
:100C70004017510709F5261737072CF4962F872FB1
:100C8000B901292F382F261B370B2F5F3F4F068CBA
:100C9000F78DE02D8701C601199526960FB6F894B9
:100CA000DEBF0FBECDBFDF91CF911F910F91FF909F
:100CB000EF90DF90CF9008950284F385E02D2D838F
:100CC0003E834B835C8369837A831995D601ED91CA
:100CD000FC910488F589E02D2D813E814B815C815A
:100CE00069817A81C6011995D601ED91FC9106883A
:100CF000F789E02DC60126960FB6F894DEBF0FBE29
:100D0000CDBFDF91CF911F910F91FF90EF90DF90BA
:100D1000CF9019946F927F928F929F92AF92BF92D1
:100D2000CF92DF92EF92FF920F931F93CF93DF93B7
:100D3000EC014B015A0169013801E881F981028413
:100D4000F385E02D1995E881F9810288F389E02D7A
:100D500087019601A501B401CE011995E881F981B9
:100D6000A501460D571D415051090288F389E02D18
:100D70009601B401CE011995E881F9810088F189C5
:100D8000E02D9301A501B401CE011995E881F98107
:100D9000C80CD91CB601615071090088F189E02D99
:100DA0009301A501CE011995E881F9810688F7899B
:100DB000E02DCE01DF91CF911F910F91FF90EF9029
:100DC000DF90CF90BF90AF909F908F907F906F906B
:100DD00019940895FC016370658B84819581268147
:100DE0003781613039F0633029F09187808733870C
:100DF0002287089531872087938782870895FC0191
:100E00001382128280E696E09183808375836483E7
:100E1000578346837187608753874287158A158673
:100E200014861786168681E0848B2FEF3FEF338B75
:100E3000228B318B208B868B178A118E108E089512
:100E40002F923F924F925F926F927F928F929F92DA
:100E5000AF92BF92CF92DF92EF92FF920F931F93C8
:100E6000CF93DF93CDB7DEB76C970FB6F894DEBFA4
:100E70000FBECDBF9C8F8B8F5B011A011F830E832A
:100E80003701C982DC0158964D915C915997411503
:100E9000510509F0E5C018968D919C911997681736
:100EA00079070CF0CAC11A968D919C911B97281650
:100EB00039060CF0C2C18C2C912CFB0136E0C39E8C
:100EC000E00DF11D1124FB87EA871E161F060CF0AA
:100ED000B4C1C40133E0880F991F3A95E1F79D87AB
:100EE0008C87820D931D181619060CF0A6C1579613
:100EF0008C91811103C0203B08F02F5FAB8DBC8D1E
:100F0000ED91FC9111970284F385E02DCD012A8F9C
:100F100019952A8DB5E02B9F90011124F501359686
:100F2000FF87EE872501BB82AA82A9014A195B09C6
:100F3000598B488BC10108969B8B8A8BE889F9896C
:100F4000E40DF51DEC51FE4F949198873D822C8263
:100F50006101A885A0FF13C0AB8DBC8DED91FC9104
:100F6000B981B13031F40484F585E02D2E813F81C3
:100F700016C00684F785E02DEE80FF801AC0EE8152
:100F8000FF816E167F06F1F0AB8DBC8DED91FC916B
:100F9000B981B13051F40484F585E02D9301A601A7
:100FA000B2018B8D9C8D19950DC00684F785E02DBF
:100FB0007301840194014C815D816A817B818B8DF9
:100FC0009C8D1995E885E695E8872C813D81280D53
:100FD000391D3D832C833FEFC31AD30A4A895B89AD
:100FE000C416D50609F0B5CF8A819B81880D991D5D
:100FF0009B838A839FEF491A590AAE85BF854A169B
:101000005B0609F09BCFEE81FF816E167F0609F427
:10101000F2C0EB8DFC8DA081B181F981F13079F4C2
:10102000B5016B5F7F4F5096ED91FC915197830115
:1010300028E030E0A1018B8D9C8D1995DCC06A857C
:101040007B85681979091E96ED91FC911F977301B4
:101050000C851D859401A1018B8D9C8D1995CBC0AC
:10106000FA0134969491329765917491291BCB01C2
:10107000B7E02B9F800D911D1124FA012591349129
:101080003B8B2A8BFC01459154915B834A83FC0185
:101090003296C490319654915C8732961491319671
:1010A000D4908981823058F0612E012E000C77088F
:1010B000AD2D0D2C000CBB0BB987A88704C0198679
:1010C0001886612C712CAB8DBC8DED91FC91119724
:1010D0000284F385E02DCD011995B9818B2E912CD9
:1010E000689CC001699C900D789C900D1124FC01B6
:1010F000EA0DFB1DF98BE88B1C82712C612CE12F12
:10110000110FFF0B95012E0F3F1F3B872A87AC0C59
:10111000B11CA5014E0F5F1F5F8B4E8BC1018D0D62
:10112000911DD7FC9A95998F888F4C85641608F08D
:1011300062C0862D90E048855985480F591F489D0B
:101140009001499D300D589D300D1124D901A20DFB
:10115000B31DBF87AE87AA84BB8448885988DC80CA
:10116000BA85DB1AE88DF98DE80FF91FFD8BEC8B42
:101170008D2D8A0D2E893F89A216B306B9F187708D
:1011800061F48A819B810196EA89FB89AA81BB81EE
:10119000EA0FFB1F74909B838A8377FE20C0AB8D80
:1011A000BC8DED91FC91B981B13061F40484F58579
:1011B000E02D2E813F814C895D89B5018B8D9C8D01
:1011C00019950DC00684F785E02DEE80FF8084011F
:1011D00094014E855F85B2018B8D9C8D1995770C9E
:1011E000480C591CEFEFAE1ABE0AC2CF3C813C0D31
:1011F0003C8363949ACFAB8DBC8DED91FC9111979C
:101200000688F789E02DCD016C960FB6F894DEBF05
:101210000FBECDBFDF91CF911F910F91FF90EF9047
:10122000DF90CF90BF90AF909F908F907F906F9006
:101230005F904F903F902F9019946C960FB6F89452
:10124000DEBF0FBECDBFDF91CF911F910F91FF90F9
:10125000EF90DF90CF90BF90AF909F908F907F9056
:101260006F905F904F903F902F900895AF92BF92F4
:10127000CF92EF92FF920F931F93CF93DF93EC01E6
:10128000262F888D998D009709F03FC06A3059F458
:101290001D861C862C898E859F8538E0239F800DB6
:1012A000911D112440C06D3009F4A8C08E89882397
:1012B000C1F03C898C859D8546E0349F800D911D51
:1012C000112448855985481759075CF41D861C86EA
:1012D0008E859F8548E0349F800D911D11249F8746
:1012E0008E87EA88FB88088919894E855F856C8519
:1012F0007D85CC88CE01A4DD2C898C859D8536E04A
:10130000239F800D911D112442C06A3079F41D86FF
:101310001C862C89FC013696E4918E859F852E9F34
:10132000800D911D11249F878E8768C06D3009F450
:1013300065C0FC0134963491631708F45FC03196A0
:10134000E491E61708F45AC0FC013296A590B490D7
:10135000462F50E0431B510937E0349FB001359FC1
:10136000700D1124A60EB71EF501329634913196F8
:10137000E491332311F0E1110DC0F5013496E491AD
:101380002C898C859D85E29F800D911D11249D8760
:101390008C8734C0F501359644915E89552311F14F
:1013A0006C89E32FF0E0E40FF11D47FDFA956E9F85
:1013B000D0016F9FB00D11244C855D854A0F5B1FD6
:1013C000E885F985E417F5076CF41D861C86FC0199
:1013D0003696E4918E859F856E9F800D911D112418
:1013E0009F878E87EA88FB88088919894E855F85E3
:1013F0006C857D85CC88CE0123DDBFCF81E090E078
:10140000DF91CF911F910F91FF90EF90CF90BF9000
:10141000AF900895FC0175876487578746870895C4
:10142000611101C061E0FC01648B0895FC01738BC4
:10143000628B718B608B0895FC0185890895FC0196
:10144000808591850895FC018285938508950F9389
:101450001F93CF93DF93DC01FB0155968C91559739
:10146000823089F0833021F1813009F0E6C0149692
:101470008D919C911597BC01641B750BAB0141507C
:101480005109BF011DC014966D917C911597CB0138
:101490008E1B9F0BFC0116968D919C911797BC019A
:1014A000641B750BAB0141505109E21BF30BC5C026
:1014B00016966D917C9117976E1B7F0B621B730BB9
:1014C00057FD1AC114968D919C911597481759078D
:1014D0000CF012C177FF04C0260F371F60E070E0E8
:1014E00016968D919C911797FB01E20FF31F8E17B3
:1014F0009F071CF49C01261B370B121613060CF0D9
:10150000FBC0A22F862F86958695869590E8899FA9
:10151000400D511D1124FA01EA5EFD4F6770A9F1DB
:1015200098E0961B492F50E0EA01C25FDD4F8881A9
:10153000291790F4421B51092FEF30E002C0359576
:1015400027954A95E2F782230130110541F068F0B2
:101550000230110589F0D0C00130110519F4208145
:10156000822B0CC00130110520F48095208182234C
:1015700005C00230110531F4208182278083A9172C
:1015800008F4BAC0A91BE058FF4FA83048F1023058
:10159000110559F4EF018A2F988190959883C058CE
:1015A000DF4F88508830C0F732C081E0013011052C
:1015B00009F080E08195EF019A2F8883C058DF4FB2
:1015C00098509830D0F788EF8A0F86958695869543
:1015D00060E8869FE00DF11D1124E058FF4FA770D1
:1015E000AA2309F489C0B0E0AA5FBD4F8C910130F5
:1015F000110529F038F002301105E1F07DC090812D
:10160000892B03C0809590818923808375C088EFE2
:101610008A0F86958695869570E8879FE00DF11D67
:101620001124E058FF4FA77009F466C0B0E0AA5F2C
:10163000BD4F8C9190818927E8CF57FD5DC01696EC
:101640008D919C911797481759070CF055C0F7FFDB
:1016500004C02E0F3F1FE0E0F0E014968D919C91A6
:101660001597BF01620F731F861797071CF49C0123
:101670002E1B3F0B121613060CF03EC0CA0157FD7D
:10168000079663E0959587956A95E1F79695982F6B
:10169000882797958795E80FF91FEA5EFD4F4770F9
:1016A000552781E090E001C0880F4A95EAF7482F5E
:1016B0000130110539F078F002301105E9F42E0FF0
:1016C0003F1F13C02E0F3F1FE217F307A9F08081C1
:1016D000842B8193F9CF80952E0F3F1FE217F307DC
:1016E00059F0908198239193F9CFE217F30721F0F5
:1016F000808184278193F9CFDF91CF911F910F9142
:1017000008950F931F93CF93DF93DC0155968C912F
:101710005597823071F0833009F1813009F08CC027
:101720001496ED91FC911597E41BF50BE21BF30B5E
:1017300020C01496ED91FC911597CF01861B970B55
:10174000BC01615071091696ED91FC911797CF017C
:10175000841B950BAC01421B530B6EC01696ED918A
:10176000FC911797CF01861B970BBC016150710943
:10177000FA0177FD1BC116968D919C9117976817FA
:1017800079070CF013C1F7FF04C02E0F3F1FE0E0F4
:10179000F0E014968D919C911597AF01420F531F65
:1017A000841795071CF49C012E1B3F0B1216130681
:1017B0000CF0FCC0CB0177FD079643E0959587952B
:1017C0004A95E1F79695982F882797958795E80F82
:1017D000F91FEA5EFD4F6770772781E090E001C056
:1017E000880F6A95EAF7482F0130110541F088F01B
:1017F0000230110509F0DAC02E0F3F1F15C02E0F61
:101800003F1FE217F30709F4D1C08081842B819335
:10181000F8CF80952E0F3F1FE217F30709F4C6C0DB
:10182000908198239193F8CFE217F30709F4BEC093
:10183000808184278193F8CF77FDB8C014968D916D
:101840009C911597681779070CF0B0C057FF04C03A
:10185000240F351F40E050E016968D919C9117970C
:10186000FA01E20FF31F8E179F071CF49C01241B43
:10187000350B121613060CF099C0A22F842F8695F3
:101880008695869590E8899F600D711D1124FB0156
:10189000EA5EFD4F4770A9F198E0941B492F50E094
:1018A000EA01C25FDD4F8881291790F4421B51097C
:1018B0002FEF30E002C0359527954A95E2F7822355
:1018C0000130110541F068F00230110589F06EC059
:1018D0000130110519F42081822B0CC00130110553
:1018E00020F480952081822305C00230110531F457
:1018F000208182278083A91708F458C0A91BE058CB
:10190000FF4FA83048F10230110559F4EF018A2F3A
:10191000988190959883C058DF4F88508830C0F7E1
:1019200030C081E00130110509F080E08195EF01C0
:101930009A2F8883C058DF4F98509830D0F788EF9F
:101940008A0F86958695869590E8899FE00DF11D12
:101950001124E058FF4FA770AA2341F1B0E0AA5F1D
:10196000BD4F8C910130110529F038F0023011057E
:10197000D1F01CC09081892B18C08095908189235B
:1019800014C088EF8A0F86958695869590E8899F82
:10199000E00DF11D1124E058FF4FA77039F0B0E0C1
:1019A000AA5FBD4F8C91908189278083DF91CF9171
:1019B0001F910F910895CF92DF92EF92FF920F93B4
:1019C0001F93CF93DF937C018B01EA01690177FDBF
:1019D0009DC035DD081719070CF098C0D7FD96C0DB
:1019E000C70131DDC817D9070CF090C0C70124DD4D
:1019F000823009F07FC0F70164817581CB01801BC3
:101A0000910B8C010150110946815781FA01EC1BA1
:101A1000FD0BEF0121970BC0813049F4F701848160
:101A200095818C1B9D0BE8018C0101501109F1E09F
:101A3000CF16D10431F010F182E0C816D104E1F1E3
:101A400065C0FE01D7FD379643E0F595E7954A95C9
:101A5000E1F7F695FE2FEE27F795E7950E0F1F1F7E
:101A6000F801EA5EFD4FC770DD2781E090E001C01C
:101A7000880FCA95EAF79081892B3AC0FE01D7FDFD
:101A8000379623E0F595E7952A95E1F7F695FE2F31
:101A9000EE27F795E7950E0F1F1FF801EA5EFD4F41
:101AA000C770DD2781E090E001C0880FCA95EAF792
:101AB0008095908189231CC0FE01D7FD379683E075
:101AC000F595E7958A95E1F7F695FE2FEE27F795C0
:101AD000E7950E0F1F1FF801EA5EFD4FC770DD2767
:101AE00081E090E001C0880FCA95EAF790818927CC
:101AF00080830CC0833009F08FCFF70186819781F6
:101B0000801B910B8E01EC01219791CFDF91CF913A
:101B10001F910F91FF90EF90DF90CF9008951F934A
:101B2000CF93DF93EC01162F40E450E060E870E0C3
:101B300066D98CE896E0998388838FEF8C8F88A391
:101B40008E8F8D8F1F8FDF91CF911F91089580E031
:101B500094E0E6E1F2E0DF019C011D92215030406B
:101B6000E1F70895FC0181A1882339F06EBD0000E2
:101B70000DB407FEFDCF8EB5089528E030E090E863
:101B8000A4A1B5A14C9183A5809584238C93A2A197
:101B9000B3A182A5492F462319F04C91842B03C091
:101BA0004C91809584238C93A4A1B5A14C9183A5DD
:101BB000842B8C9396952150310911F708951F932A
:101BC000CF93DF93EC01162F8C8D8F3F01F1EEA1A7
:101BD000FFA190818CA5892B8083E8A5F9A5908130
:101BE0008DA5809589238083EEA1FFA190818CA58E
:101BF000809589238083CE01B5DFEEA1FFA190817E
:101C00008CA5892B8083DF91CF911F9108958A8DB8
:101C1000682F880F770B8DEC9FE00E947D3360E08A
:101C20008DEC9FE00E941933612F8DEC9FE00E94A4
:101C300019338DEC9FE0DF91CF911F910C94F2331B
:101C40000F931F93CF93DF93EC01162F022F6B8F0F
:101C50004A8F8C8D8F3F09F48CC061E08E8D0E947D
:101C6000634261E088A10E94634288A1082E000CB3
:101C7000990BFC01E059F84FE491F0E0EE0FFF1FE3
:101C8000E053F84F259134913FA32EA3FC01E65D6C
:101C9000F84FE491ECA78E8D082E000C990BFC01F7
:101CA000E059F84FE491F0E0EE0FFF1FE053F84FDA
:101CB0002591349139A728A7FC01E65DF84FE491FE
:101CC000EDA789A1811134C061E08C8D0E9463422F
:101CD00061E08D8D0E9463428D8D082E000C990B62
:101CE000FC01E059F84FE491F0E0EE0FFF1FE053E4
:101CF000F84F259134913DA32CA3FC01E65DF84FEC
:101D0000E491EBA78C8D082E000C990BFC01E05997
:101D1000F84FE491F0E0EE0FFF1FE053F84F2591EC
:101D200034913BA32AA3FC01E65DF84FE491EAA7B6
:101D300089A1882311F10E94143080915D0F8823BE
:101D400099F02FB7F89480915D0F813059F48DB3DD
:101D500080935B0F9DB380915C0F809589238DBB31
:101D60002FBF02C020935B0F80E58CBD81E08DBD4D
:101D700004C08DEC9FE00E9457330023F1F08F8D5B
:101D800087FD1BC061E00E94634261E08F8D0E946D
:101D90009F4261E070E080E090E00E94684160E076
:101DA0008F8D0E949F426AE070E080E090E00E9488
:101DB000684161E08F8D0E949F426EEACE01FFDE96
:101DC00065EDCE01FCDE60E8CE01F9DE68EACE0109
:101DD000F6DE6FE3CE01F3DE63EDCE01F0DE60E010
:101DE000CE01EDDE60E4CE01EADE6DE8CE01E7DE95
:101DF000113011F460E101C064E1CE01E0DE60E287
:101E0000CE01DDDE60E0CE01DADE61EACE01D7DEB2
:101E100068ECCE01D4DE6AEDCE01D1DE62E1CE0106
:101E2000CEDE61E8CE01CBDE113011F46FE901C0E6
:101E30006FECCE01C4DE69EDCE01C1DE113011F4CC
:101E400062E201C061EFCE01BADE6BEDCE01B7DE1A
:101E500060E4CE01B4DE64EACE01B1DE66EACE0112
:101E6000AEDE6EE2CE01ABDE6FEACE01DF91CF9146
:101E70001F910F91A4CEDF92EF92FF920F931F93C9
:101E8000CF93DF93EC0161E29ADE60E0CE0197DE52
:101E90006FE7CE0194DE62E2CE0191DE60E0CE011A
:101EA0008EDE67E0CE018BDE8C8D8F3F29F1EEA1B7
:101EB000FFA190818CA5892B8083E8A5F9A590814D
:101EC0008DA5892B8083EEA1FFA190818CA58095A3
:101ED0008923808306E112E0F80161918F01CE0130
:101EE00041DEF6E006311F07B9F7EEA1FFA19081B0
:101EF0008CA5892B808331C0D090B8008CE0809372
:101F0000B80006E112E06A8D062E000C770B8DEC0E
:101F10009FE00E947D3360E48DEC9FE00E941933C6
:101F2000E12CF12CF801EE0DFF1D60818DEC9FE09E
:101F30000E9419338FEFE81AF80AE0E1EE16F10477
:101F400089F78DEC9FE00E94F233005F1F4FF6E0AF
:101F500006311F07C1F6D092B800DF91CF911F91D3
:101F60000F91FF90EF90DF900895DC01ED91FC91CF
:101F70000190F081E02D199465EA70E082E691E12C
:101F8000F4DF61E570E082E691E1EFCF65EA70E0B1
:101F900082E691E1EADF65E570E082E691E1E5CF76
:101FA000CF93DF93EC0126E040E052EC61E070E07B
:101FB00082E691E10E94D63A68EB7BE080E090E017
:101FC0000E946841CE01E2DF65EA70E082E691E1BD
:101FD000CCDF62E570E082E691E1DF91CF91C5CF81
:101FE000EEE3FDE0148A158A0895FF920F931F9384
:101FF000CF93DF93EC01FF24F39482E691E10E94FA
:10200000D739892BC1F00C8910E082E691E10E945A
:10201000F139FE01E00FF11F84878C89811104C022
:102020009C859A3A09F056C08F5F8C8B883029F7CF
:102030001C8AFD8AE2CF8D89813009F04BC08C85E6
:102040008A3A09F046C08B89853509F042C06D8512
:1020500070E0762F66278E85682B072E000C880B84
:10206000990B0E94BD3620E030E048EC52EC0E9413
:102070002236688379838A839B836F8570E0762F0D
:1020800066278889682B072E000C880B990B0E9405
:10209000BD3620E030E048EC52E40E9422366C83EA
:1020A0007D838E839F83698970E0762F66278A8976
:1020B000682B072E000C880B990B0E94BD3620E080
:1020C00030E048EC52E40E942236688779878A879C
:1020D0009B871D8ADF91CF911F910F91FF900895EB
:1020E000CF93DF93FC0188E0DF01C82F1D92CA95D2
:1020F000E9F7DF011896ED0119928A95E9F7148E38
:10210000158E168E178E10A280E090E0A0E8BFE337
:10211000808B918BA28BB38B848B958BA68BB78B8B
:10212000808F918FA28FB38FDF91CF910895CF933E
:10213000DF93EA0170E08DEC9FE00E947D3364EB59
:1021400076E08DEC9FE00E94473D4AE050E0BE0102
:102150008DEC9FE00E94013E8DEC9FE0DF91CF91DE
:102160000C94F233CF92DF92EF92FF920F931F9372
:10217000CF93DF93EC016A017901AB0161E0D7DF16
:10218000A60162E0CE01D3DFA70163E0CE01CFDF7D
:10219000A80164E0CE01DF91CF911F910F91FF90D4
:1021A000EF90DF90CF90C3CF4F925F926F927F926C
:1021B000AF92BF92CF92DF92EF92FF920F931F9355
:1021C000CF93DF9300D01F92CDB7DEB729013A013C
:1021D000E982FA820B831C8370E08DEC9FE00E9401
:1021E0007D3367EB76E08DEC9FE00E94473D22E077
:1021F00030E0B301A2018DEC9FE00E94103F6BEB39
:1022000076E08DEC9FE00E94473D22E030E049817E
:102210005A816B817C818DEC9FE00E94103F6FEBB7
:1022200076E08DEC9FE00E94473D22E030E0B60171
:10223000A5018DEC9FE00E94103F8DEC9FE00E9475
:102240004F3D8DEC9FE00F900F900F900F90DF911E
:10225000CF911F910F91FF90EF90DF90CF90BF90A3
:10226000AF907F906F905F904F900C94F233AF924D
:10227000BF92CF92DF92EF92FF920F931F93CF9373
:10228000DF93EC01A88CB98CCA8CDB8CEC88FD88C0
:102290000E891F89288939894A895B8961E084DF31
:1022A000A88CB98CCA8CDB8CEC88FD880E891F89C0
:1022B000288939894A895B8962E0CE0175DFA88C5B
:1022C000B98CCA8CDB8CEC88FD880E891F89288923
:1022D00039894A895B8963E0CE0166DFA88CB98CB5
:1022E000CA8CDB8CEC88FD880E891F892889398986
:1022F0004A895B8964E0CE0157DFDF91CF911F915E
:102300000F91FF90EF90DF90CF90BF90AF90089526
:10231000CF93DF931F92CDB7DEB78DEC9FE069833B
:102320000E945733698170E041E050E08DEC9FE0FE
:102330000E94F0338DEC9FE00E948E32892B39F0A1
:102340008DEC9FE00F90DF91CF910C9496320F901F
:10235000DF91CF910895AF92BF92CF92DF92EF922B
:10236000FF920F931F93CF93DF93EC018DEC9FE0CF
:102370000E94573363EC76E088E290E10E94523D80
:1023800086E0A82EB12CC88CD98CEA8CFB8C0C89E9
:102390001D892E893F89488959896A897B89CE019F
:1023A00066DF66EC76E088E290E10E94523D61E0F3
:1023B000CE01AEDF6C0162E0CE01AADF7C0163E0FA
:1023C000CE01A6DF8C0164E0CE01A2DF9C0181E09A
:1023D000C816D10469F482E0E816F10449F4033028
:1023E000110531F42430310519F481E08C8F04C0DB
:1023F0001C8ECA94CD2811F481E08D8F82E0E816FE
:10240000F10411F481E08E8F0330110511F481E0A5
:102410008F8F2430310511F481E088A381E0A81A60
:10242000B10809F0B0CF6AEC76E088E290E1DF9184
:10243000CF911F910F91FF90EF90DF90CF90BF90C1
:10244000AF900C94523D089526E085EC90E10E94F7
:10245000D63A6EEC76E085EC90E10C94523D4F92CA
:102460005F926F927F928F929F92AF92BF92CF9224
:10247000DF92EF92FF920F931F932A013B014801D5
:10248000590164EB76E085EC90E10E94473D4AE01B
:1024900050E060E070E085EC90E10E94FB3D6AED69
:1024A00076E085EC90E10E94473D4AE050E060E034
:1024B00070E085EC90E10E94FB3D6AE07CE085ECF9
:1024C00090E10E94473D22E030E0B301A20185EC9B
:1024D00090E10E94103F6EE07CE085EC90E10E946C
:1024E000473D22E030E0B501A40185EC90E10E9477
:1024F000103F68EB76E085EC90E10E94473D22E0DA
:1025000030E0B701A60185EC90E11F910F91FF909B
:10251000EF90DF90CF90BF90AF909F908F907F9083
:102520006F905F904F900C94113FCF93DF93EC012D
:102530008DEC9FE00E94573364EE76E088E290E1F4
:102540000E94523D688179818DEC9FE00E947D332D
:1025500067EF76E08DEC9FE00E94523D8DEC9FE0AE
:10256000DF91CF910C94F2334F925F926F927F92F2
:102570008F929F92AF92BF92CF92DF92EF92FF9293
:102580000F931F93CF93DF93EC012A013B01480186
:1025900059016EEF76E088E290E10E94473D6AE0E3
:1025A00077E088E290E10E94473D22E030E0B3010D
:1025B000A20188E290E10E94103F6DE077E088E29E
:1025C00090E10E94473D22E030E0B501A40188E29D
:1025D00090E10E94103F66EF7CE088E290E10E946B
:1025E000473D22E030E0B701A60188E290E10E9479
:1025F000103F60E177E088E290E10E94523D6881FF
:1026000079818DEC9FE00E947D336AEF7BE08DEC59
:102610009FE00E94473D6AE077E08DEC9FE00E94DA
:10262000473D22E030E0B301A2018DEC9FE00E9423
:10263000103F6DE077E08DEC9FE00E94473D22E087
:1026400030E0B501A4018DEC9FE00E94103F66EFE1
:102650007CE08DEC9FE00E94473D22E030E0B70136
:10266000A6018DEC9FE00E94103F65E177E08DECC4
:102670009FE00E94523D8DEC9FE0DF91CF911F9132
:102680000F91FF90EF90DF90CF90BF90AF909F9011
:102690008F907F906F905F904F900C94F233E4E5B1
:1026A000FDE085E090E091838083138212821482A2
:1026B0000895FC0111821082138212821582148205
:1026C0002AE030E03783268380E490E0918780879A
:1026D000338722871586148622E130E037872687E4
:1026E000918B808B338B228B158A148A2CE130E0FE
:1026F000378B268B918F808F338F228F158E148E80
:1027000024E230E0378F268F11A210A22EE230E0B3
:1027100033A322A395A384A337A326A311A610A6AF
:1027200046E350E053A742A715A614A637A726A74D
:1027300091AB80AB33AB22AB15AA14AA57AB46AB17
:10274000089521E04CE362E089E59DE079DA89E5CE
:102750009DE091DB68EE73E080E090E00E946841CC
:1027600089E59DE0F4C92F923F924F925F926F925C
:102770007F928F929F92AF92BF92CF92DF92EF9211
:10278000FF920F931F93CF93DF93CDB7DEB762977E
:102790000FB6F894DEBF0FBECDBF1C017A836983EC
:1027A0005C834B833E832D8348A459A46AA47BA4F5
:1027B0008EA59FA5A8A9B9A98F839887A987BA874D
:1027C0008AA99BA9ACA9BDA98B879C87AD87BE8729
:1027D0008EA99FA9A8ADB9AD8F87988BA98BBA8B0D
:1027E00061E089E59DE00E94100A61E070E089E502
:1027F0009DE00E94160A40E050E060E070E089E54C
:102800009DE00E940A0A89E59DE0A1D96DE277E08A
:1028100089E59DE00E94473D0E943741AB01BC0124
:102820002AE030E089E59DE00E94163ED10116962F
:102830004D915C91179714966D917C91159789E550
:102840009DE00E940A0A63E377E089E59DE00E942B
:10285000473D4AE050E069817A8189E59DE00E9428
:10286000FB3DF101428553856085718589E59DE0D9
:102870000E940A0A67E377E089E59DE00E94473DF0
:102880004AE050E06D817E8189E59DE00E94FB3D3C
:10289000D1011E964D915C911F971C966D917C9174
:1028A0001D9789E59DE00E940A0A6BE377E089E5C0
:1028B0009DE00E94473D4AE050E06B817C8189E5C4
:1028C0009DE00E94FB3DF101428953896089718935
:1028D00089E59DE00E940A0A6FE377E089E59DE0C3
:1028E0000E94473D4AE050E0B80189E59DE00E9422
:1028F000FB3DD10156964D915C91579754966D9141
:102900007C91559789E59DE00E940A0A63E477E08F
:1029100089E59DE00E94473D22E030E0B701A60135
:1029200089E59DE00E94103FF101428D538D608D3D
:10293000718D89E59DE00E940A0A69E477E089E5E6
:102940009DE00E94473D22E030E0B501A40189E509
:102950009DE00E94103FD1015E964D915C915F9782
:102960005C966D917C915D9789E59DE00E940A0AD5
:102970006FE477E089E59DE00E94473D22E030E08A
:10298000B301A20189E59DE00E94103FF10146A537
:1029900057A564A575A589E59DE00E940A0A65E52D
:1029A00077E089E59DE00E94473D22E030E04F81DD
:1029B000588569857A8589E59DE00E94103FD1019F
:1029C000D2964D915C91D397D0966D917C91D19791
:1029D00089E59DE00E940A0A6AE577E089E59DE0C5
:1029E0000E94473D22E030E04B855C856D857E8509
:1029F00089E59DE00E94103FF10146A957A964A90D
:102A000075A989E59DE00E940A0A61E677E089E5FB
:102A10009DE00E94473D22E030E04F85588969895A
:102A20007A8989E59DE00E94103F89E59DE06296E4
:102A30000FB6F894DEBF0FBECDBFDF91CF911F91CF
:102A40000F91FF90EF90DF90CF90BF90AF909F904D
:102A50008F907F906F905F904F903F902F900BCA18
:102A600064E089E59DE05BC84F925F926F927F9230
:102A7000AF92BF92CF92DF92EF92FF920F931F938C
:102A8000CF93DF93EC015B01CA01B9012AA33BA3F9
:102A90004CA35DA32BED3FE049E450E40E94D63700
:102AA0006C877D878E879F87B9A2A8A2EEA2FFA21E
:102AB00008A719A7B601DD0C880B990B0E94BD363B
:102AC0009B01AC0160E070E080E090E40E94393846
:102AD00020E030E040E85FE30E9454356AA77BA71E
:102AE0008CA79DA7DF91CF911F910F91FF90EF9041
:102AF000DF90CF90BF90AF907F906F905F904F909E
:102B000008952F923F924F925F926F927F928F9291
:102B10009F92AF92BF92CF92DF92EF92FF920F936C
:102B20001F93CF93DF93CDB7DEB760970FB6F894BE
:102B3000DEBF0FBECDBF1C01CB01BA014801590158
:102B400020E030E040E752E40E94D63769877A8778
:102B50008B879C87D1016D937D938D939C93139765
:102B600020E030E040E752E4C501B4010E94D637CE
:102B70002B013C01F101648375838683978320E0F8
:102B800030E040E752E4C701B6010E94D637D101D8
:102B900018966D937D938D939C931B9796962D918C
:102BA0003D914D915C9199970E94D6376D877E87B4
:102BB0008F87988BF101608B718B828B938B8484D0
:102BC0009584A684B784A501940169857A858B854F
:102BD0009C850E9422366B017C01D10154966D9335
:102BE0007D938D939C935797A5019401C301B201E6
:102BF0000E9422362B013C01F101608F718F828F80
:102C0000938FA50194016D857E858F8598890E949B
:102C100022364B015C01D1015C966D937D938D93BF
:102C20009C935F97A3019201C701B6010E9454359E
:102C300069877A878B879C87A3019201C701B601B8
:102C40000E9455356B017C01A501940169857A8547
:102C50008B859C850E9454350E948A36662E7A8325
:102C60006983A5019401C701B6010E9454350E94F1
:102C70008A36762E7C836B83A5019401C701B60149
:102C80000E9455350E948A36F62E7E836D83A501FB
:102C9000940169857A858B859C850E9455350E94B3
:102CA0008A36862F262F372F38872F83262D3A8175
:102CB000472D5C816F2D7E81988560960FB6F894C4
:102CC000DEBF0FBECDBFDF91CF911F910F91FF905F
:102CD000EF90DF90CF90BF90AF909F908F907F90BC
:102CE0006F905F904F903F902F900895CF92DF921A
:102CF000EF92FF92CF93DF93EC01072E000C880B2D
:102D0000990B0E94BD366B017C0148A159A1BA0103
:102D1000550F880B990B0E94BD369B01AC01C70172
:102D2000B6010E9422362AA53BA54CA55DA50E94AE
:102D3000D6370E948A36CB01DF91CF91FF90EF907A
:102D4000DF90CF9008954F925F926F927F928F9213
:102D50009F92AF92BF92CF92DF92EF92FF920F932A
:102D60001F93CF93DF93CDB7DEB760970FB6F8947C
:102D7000DEBF0FBECDBF5C01C4DE29873A874B871B
:102D80005C876D877E878F87988B69857A85C5017B
:102D9000ADDF4C016B857C85C501A8DF6C016D85BD
:102DA0007E85C501A3DF8C016F857889C5019EDF13
:102DB0007C01B40197FE04C066277727681979095A
:102DC0006F3F710509F024F5C601D7FE04C08827BE
:102DD00099278C199D098F3F910509F0CCF4C80102
:102DE00017FF04C088279927801B910B8F3F9105FF
:102DF00011F00CF051C0C701F7FE04C088279927D5
:102E00008E199F098F3F910511F00CF045C09FC0AE
:102E1000072E000C880B990B0E94BD369B01AC015C
:102E200060E070E08FE793E40E9422362B013C01C2
:102E3000B801110F880B990B0E94BD36A3019201B6
:102E40000E94D6370E948A368B01B701FF0C880B8F
:102E5000990B0E94BD36A30192010E94D6370E94B1
:102E60008A367B01B401990C880B990B0E94BD3600
:102E7000A30192010E94D6370E948A364B01B60107
:102E8000DD0C880B990B0E94BD36A30192010E94B4
:102E9000D6370E948A366B01B80117FF04C0662737
:102EA0007727601B710B6F3F710509F064F4C70150
:102EB000F7FE04C0882799278E199F098F3F910537
:102EC00009F00CF444C0072E000C880B990B0E94EB
:102ED000BD369B01AC0160E070E08FE793E40E9497
:102EE00022362B013C01B801110F880B990B0E946F
:102EF000BD36A30192010E94D6370E948A368B010B
:102F0000B701FF0C880B990B0E94BD36A3019201FB
:102F10000E94D6370E948A367B01B401990C880B37
:102F2000990B0E94BD36A30192010E94D6370E94E0
:102F30008A364B01B601DD0C880B990B0E94BD3619
:102F4000A30192010E94D6370E948A366B019A82B1
:102F50008982DC82CB821E830D83F886EF82282D46
:102F60003A814C2D5C81602F7E818E2D98856096F4
:102F70000FB6F894DEBF0FBECDBFDF91CF911F918A
:102F80000F91FF90EF90DF90CF90BF90AF909F9008
:102F90008F907F906F905F904F900895FC0182E03A
:102FA000808383E0818384E0828385E0838315824C
:102FB000148281E090E09783868311861086938740
:102FC000828708950895CF93DF93EC0168EF7BE04B
:102FD0000E949C4381E090E09F838E83198618862F
:102FE0001B861A868FB780688FBFDF91CF910895B7
:102FF0000C9435431F920F920FB60F9211240BB60B
:103000000F922F933F934F935F936F937F938F9381
:103010009F93AF93BF93EF93FF93E0911606F091C8
:1030200017061995FF91EF91BF91AF919F918F91E5
:103030007F916F915F914F913F912F910F900BBEB8
:103040000F900FBE0F901F901895CF93DF93EC0158
:10305000198218821A821B821C821D821E821F8284
:10306000188619861A868FE790E09C878B879E8743
:103070008D87988B8F879A8B898B68EF7BE0CE0149
:1030800043960E949C4381E0898FDF91CF91089500
:10309000CF92EF920F93CF93DF93EC0126E040E0C5
:1030A00052EC61E070E088E290E10E94D63A6CE276
:1030B00071E080E090E00E946841C12CE12C0DE0BD
:1030C0002AE04BE06CE087E89DE00E94CB22282FAD
:1030D00030E0398328832115310569F56AE677E008
:1030E00088E290E10E94473D63E977E088E290E161
:1030F0000E94473D60EA77E088E290E10E94523DFD
:1031000066EA77E088E290E10E94473D60EA77E076
:1031100088E290E10E94523D60EB77E088E290E126
:103120000E94523D64E078E088E290E10E94523DC6
:103130006DE378E011C02130310519F46DE778E0D6
:103140000BC02230310519F463EF78E005C023305D
:10315000310531F463E779E088E290E10E94523D65
:1031600087E89DE00E94CD208A83813059F038F0B5
:10317000823059F08330A1F461EF79E008C065EB4B
:1031800079E005C06FEF79E002C064ED79E088E294
:1031900090E1DF91CF910F91EF90CF900C94473D4C
:1031A000DF91CF910F91EF90CF9008951F93CF9320
:1031B000DF93FC012281223009F480C1EC014381BC
:1031C00060E087E89DE00E94CA2168E070E087E83F
:1031D0009DE0D2D7882361F06BE17AE088E290E14C
:1031E0000E94523D6BE17AE0CE0143960E94CD43AE
:1031F00061E070E087E89DE0BFD7882361F06FE26F
:103200007AE088E290E10E94523D6FE27AE0CE01DE
:1032100043960E94CD4360E170E087E89DE0ACD723
:103220008823C9F064E47AE088E290E10E94473D97
:103230006BE087E89DE0ACD74AE050E0682F88E279
:1032400090E10E94223E81E08C8367E57AE0CE0126
:1032500043960E94CD4360E270E087E89DE08CD702
:103260008823C9F068E67AE088E290E10E94473D51
:1032700069E087E89DE08CD74AE050E0682F88E25B
:1032800090E10E94223E81E08F836FE77AE0CE01D9
:1032900043960E94CD4360E870E087E89DE06CD7DC
:1032A0008823C9F063E97AE088E290E10E94473D13
:1032B0006AE087E89DE06CD74AE050E0682F88E23A
:1032C00090E10E94223E81E08E8369EA7AE0CE019D
:1032D00043960E94CD4360E470E087E89DE04CD7C0
:1032E0008823C9F06CEB7AE088E290E10E94473DC8
:1032F0006CE087E89DE04CD74AE050E0682F88E218
:1033000090E10E94223E81E08D8362ED7AE0CE0161
:1033100043960E94CD436FE087E89DE039D78B83C9
:1033200087E89DE0D8D6882309F468C062E070E0A1
:1033300087E89DE021D7882361F065EE7AE088E296
:1033400090E10E94523D60EF7AE0CE0143960E94E8
:10335000CD4364E070E087E89DE00ED7882361F0FC
:1033600061E07BE088E290E10E94523D6CE07BE00E
:10337000CE0143960E94CD4360E071E087E89DE076
:10338000FBD6882379F06DE17BE088E290E10E9432
:10339000523D68E27BE0CE0143960E94CD4385EB2F
:1033A0009DE03BD160E072E087E89DE0E5D68823B0
:1033B00079F069E37BE088E290E10E94523D64E4A9
:1033C0007BE0CE0143960E94CD4385EB9DE00FD17B
:1033D00060E070E187E89DE0CFD6882379F065E56D
:1033E0007BE088E290E10E94523D66E67BE0CE0100
:1033F00043960E94CD4385EB9DE025D160E070E2CD
:1034000087E89DE081D6882379F06DE77BE088E24C
:1034100090E10E94523D11E0198761E97BE0CE0105
:1034200043960E94CD43198F60E070E487E89DE0E9
:103430005DD6882389F066EA7BE088E290E10E940D
:10344000523D81E08A8765EB7BE0CE0143960E9486
:10345000CD4385EB9DE027D160E070E887E89DE0F3
:103460006FD6882379F065EC7BE088E290E10E94DA
:10347000523D81E089876AED7BE0CE0143960E9450
:10348000CD43198E68E087E89DE082D690E09C8766
:103490008B8767E087E89DE07BD690E09E878D87ED
:1034A00066E087E89DE074D690E0988B8F8765E0B2
:1034B00087E89DE06DD690E09A8B898BDF91CF9164
:1034C0001F910895CF93DF93FC0180E5DF011D92EA
:1034D0008A95E9F76EE774E0758364838CEF98E072
:1034E000918780879587848777876687918B808B84
:1034F000938B828B958B848BCAE7DDE0D78BC68B51
:10350000918F808F48EF51E1538F428F758F648F79
:10351000578F468F53A342A3A2E8BBEFB5A3A4A342
:1035200057A346A324E037EF31A720A753A742A70C
:1035300035A724A7D7A7C6A731AB20AB93AB82ABE7
:1035400035AB24AB77AB66AB31AF20AFB5AFA4AF33
:10355000DF01A05BBF4F11961C921E92129681E074
:1035600090E011969C938E93129640E050E060E0BC
:103570007FE34D935D936D937C93139714964AE08C
:1035800057ED63EA7BE34D935D936D937C931397C3
:1035900014961D921D921D921C92139714961D92C3
:1035A0001D921D921C92139714961D921D921D92AE
:1035B0001C92139714961D921D921D921C921397A4
:1035C00014961D921D921D921C92139714964DEC09
:1035D0005CEC6CE47EE34D935D936D937C93139769
:1035E000EC58FF4F91838083DF91CF910895CF9363
:1035F000DF93EC01CC5ADF4F2AE037ED43E25CE386
:10360000688179818A819B810E945535688379839D
:103610008A839B83DF91CF910895CF93DF93EC0151
:10362000CC5ADF4F2AE037ED43E25CE368817981D1
:103630008A819B810E945435688379838A839B8326
:10364000DF91CF910895CF93DF93EC01FC01EC5A09
:10365000FF4F20E030E048EC52E4608171818281CC
:1036600093810E94D6370E948F36FE01E05BFF4FA8
:10367000808191810E94C946FE01E85AFF4F20E0F7
:1036800030E04AE754E460817181828193810E9435
:10369000D6370E948F36CE5ADF4F88819981DF91CD
:1036A000CF910C94C9460F931F93CF93DF93EC01F6
:1036B000FC01E05BFF4F808191810E94C1468E0139
:1036C0000C5A1F4F682F70E080E090E00E94BD36DA
:1036D00020E030E048EC52E40E942236F80160839A
:1036E0007183828393833297808191810E94C14646
:1036F000C85ADF4F682F70E080E090E00E94BD362E
:1037000020E030E04AE754E40E942236688379835F
:103710008A839B83DF91CF911F910F910895CF9260
:10372000DF92EF92FF920F931F93CB01BA01A90191
:1037300098010E9454356B017C0120E030E044E3A5
:1037400053E40E94CB37181654F420E030E044EBE9
:1037500053E4C701B6010E9454356B017C0120E09F
:1037600030E044E353ECC701B6010E941B3687FFEB
:103770000AC020E030E044EB53E4C701B6010E94E8
:1037800055356B017C01C701B6011F910F91FF9068
:10379000EF90DF90CF9008952F923F924F925F92DB
:1037A0006F927F928F929F92AF92BF92CF92DF9251
:1037B000EF92FF920F931F93CF93DF93CDB7DEB7B6
:1037C0006E970FB6F894DEBF0FBECDBF1C01498BBC
:1037D0005A8B6B8B7C8B0D8B1E8B2F8B388FC98EEE
:1037E000DA8EEB8EFC8E9A01AB01C501B4010E940A
:1037F00054356D837E838F8398872D893E894F89C9
:10380000588D6CA97DA98EA99FA90E9454356987FE
:103810007A878B879C872D813E814F815885CA018D
:10382000B9010E94D6376B017C0129853A854B8509
:103830005C85CA01B9010E94D6379B01AC01C70162
:10384000B6010E9455350E948F386D877E878F871D
:10385000988B29853A854B855C856D817E818F812A
:1038600098850E94C8352BED3FE049E450E40E9462
:10387000223620E030E044E353E40E94D637AB0127
:10388000BC01F101E45AFF4F40835183628373838B
:10389000098D1A8D2B8D3C8DC10141DF6B017C019F
:1038A0008101005A1F4FD8016D937D938D939C9396
:1038B000139720E030E040EA50E46D857E858F85E7
:1038C00098890E941B36F101E059FF4FFE8FED8F62
:1038D00087FF16C06FEE7BE088E290E10E94523DC8
:1038E000AD8DBE8D1D921D921D921C921397F101FC
:1038F000E459FF4F108211821282138281E050C27C
:1039000020E030E048EC52E46D857E858F85988913
:103910000E941B3626013701E89477F8F101E85937
:10392000FF4FFA83E98320E030E040EF51E487FF66
:10393000B8C0C301B2010E94CB37181644F520E08D
:1039400030E0A901C701B6010E94CB3718164CF42C
:1039500080E090E0A0E8B0E4F80180839183A28346
:10396000B38320E030E0A901D8016D917D918D9164
:103970009C910E941B3687FF7EC080E090E0A0E80B
:10398000B0ECF80180839183A283B38374C0A981D2
:10399000BA812D913D914D915C91C701B6010E9474
:1039A00054352B013C01F101EC59FF4F60837183C9
:1039B0008283938320E030E0A901C701B6010E9411
:1039C000CB37181644F5F101E459FF4FFE83ED8320
:1039D00078972081318142815381C701B6010E94CD
:1039E000D6374B015C01F101E85AFF4F208131814C
:1039F00042815381C301B2010E94D6379B01AC01C1
:103A0000C501B4010E945435AD81BE816D937D9393
:103A10008D939C93139720E030E0A901C701B60174
:103A20000E941B3687FF27C05101BCE6AB0EB11CBC
:103A3000F101EC5AFF4F2081318142815381C7014E
:103A4000B6010E94D6376B017C01F101E85AFF4FA5
:103A50002081318142815381C301B2010E94D63756
:103A60009B01AC01C701B6010E945535F501608389
:103A7000718382839383F80180819181A281B381D4
:103A8000E981FA8180839183A283B3838DEC9CECDE
:103A9000ACE4BEE3ED8DFE8D80839183A283B3837E
:103AA0007FC1C301B2010E94CB3718164CF520E04C
:103AB00030E0A901C701B6010E94CB3718165CF4AB
:103AC00080E090E0A0E8B0E4F101E459FF4F80838A
:103AD0009183A283B38320E030E0A901C701B6013E
:103AE0000E941B3687FF84C080E090E0A0E8B0EC25
:103AF000F101E459FF4F80839183A283B38378C09F
:103B0000A981BA812D913D914D915C91C701B6017A
:103B10000E94543569837A838B839C83F101EC592D
:103B2000FF4F608371838283938320E030E0A9019B
:103B3000C701B6010E94CB37181644F5810104591C
:103B40001F4FF101EC5AFF4F208131814281538197
:103B5000C701B6010E94D6372B013C01F101E85A9A
:103B6000FF4F208131814281538169817A818B812C
:103B70009C810E94D6379B01AC01C301B2010E9417
:103B80005435F801608371838283938320E030E0B1
:103B9000A901C701B6010E941B3687FF29C0810118
:103BA00004591F4FF101EC5AFF4F208131814281AE
:103BB0005381C701B6010E94D6372B013C01F101A8
:103BC000E85AFF4F208131814281538169817A8196
:103BD0008B819C810E94D6379B01AC01C301B2014D
:103BE0000E945535D8016D937D938D939C931397C7
:103BF000F101E859FF4FC082D182E282F382389608
:103C000080E090E0A0E8BFE380839183A283B38348
:103C10006AEF7BE088E290E10E94473D22E030E0DD
:103C200049895A896B897C8988E290E10E94103F1A
:103C300067EF7BE088E290E10E94473D22E030E0C0
:103C40004D895E896F89788D88E290E10E94103FEE
:103C500067EF7BE088E290E10E94473D22E030E0A0
:103C6000498D5A8D6B8D7C8D88E290E10E94103FCA
:103C700067EF7BE088E290E10E94473D69EF7BE0DF
:103C800088E290E10E94473D22E030E0B501A401C6
:103C900088E290E10E94103F67EF7BE088E290E1CC
:103CA0000E94473D22E030E04CA95DA96EA97FA9A2
:103CB00088E290E10E94103F67EF7BE088E290E1AC
:103CC0000E94473D6FEF7BE088E290E10E94473D14
:103CD00022E030E04D855E856F85788988E290E14D
:103CE0000E94103F69E07CE088E290E10E94473D3D
:103CF00022E030E04D815E816F81788588E290E13D
:103D00000E94103F6DE07CE088E290E10E94473D18
:103D100022E030E049855A856B857C8588E290E118
:103D20000E94103F61E17CE088E290E10E94473D03
:103D3000F101E45AFF4F408151816281738122E099
:103D400030E088E290E10E94103F6FE17CE088E281
:103D500090E10E94473DF101E05AFF4F40815181BF
:103D60006281738122E030E088E290E10E94103F9E
:103D70006BE27CE088E290E10E94473DF101E4596A
:103D8000FF4F408151816281738122E030E088E2FF
:103D900090E10E94103F88E290E10E944F3D80E058
:103DA0006E960FB6F894DEBF0FBECDBFDF91CF91F8
:103DB0001F910F91FF90EF90DF90CF90BF90AF9049
:103DC0009F908F907F906F905F904F903F902F903B
:103DD00008952F923F924F925F926F927F928F92AF
:103DE0009F92AF92BF92CF92DF92EF92FF920F938A
:103DF0001F93CF93DF93CDB7DEB72C970FB6F89410
:103E0000DEBF0FBECDBF9C878B8749835A836B83F0
:103E10007C830D831E832F8338878A019B014D810C
:103E20005E816F8178857BDC6B017C012B843C8417
:103E300020E6220E311CF10160837183828393831B
:103E40004B015C01E894B7F820E030E040EA50E430
:103E5000C501B4010E941B3687FD20C120E030E07F
:103E600040EF51E4C501B4010E94CB370B851C859E
:103E700004591F4F2B853C8528593F4F3A87298786
:103E800018162CF520E030E0A901C701B6010E9408
:103E9000CB3718164CF480E090E0A0E0B0E4F801D5
:103EA00080839183A283B38320E030E0A901C7011E
:103EB000B6010E941B3687FF7EC080E090E0A0E044
:103EC000B0ECF80180839183A283B38374C0E98549
:103ED000FA852081318142815381C701B6010E9458
:103EE00054354B015C01EB85FC85EC59FF4F608339
:103EF00071838283938320E030E0A901C701B6017A
:103F00000E94CB3718162CF5EB85FC85EC5AFF4F39
:103F10002081318142815381C701B6010E94D63789
:103F20002B013C01EB85FC85E85AFF4F2081318154
:103F300042815381C501B4010E94D6379B01AC0177
:103F4000C301B2010E945435F801608371838283FA
:103F5000938320E030E0A901C701B6010E941B361F
:103F600087FF29C00B851C8504591F4FEB85FC85F5
:103F7000EC5AFF4F2081318142815381C701B60144
:103F80000E94D6372B013C01EB85FC85E85AFF4F98
:103F90002081318142815381C501B4010E94D6370D
:103FA0009B01AC01C301B2010E945535F801608349
:103FB000718382839383E985FA85C082D182E2820C
:103FC000F382EB85FC85E059FF4F1082118212824B
:103FD000138222E030E049815A816B817C8188E242
:103FE00090E10E94103F67EF7BE088E290E10E9441
:103FF000473D6AE37CE088E290E10E94473D22E091
:1040000030E04D815E816F81788588E290E10E9489
:10401000103F67EF7BE088E290E10E94473D61E15D
:104020007CE088E290E10E94473DEB85FC85E45A04
:10403000FF4F408151816281738122E030E088E24C
:1040400090E10E94103F6FE17CE088E290E10E94E5
:10405000473DF101408151816281738122E030E06E
:1040600088E290E10E94103F6BE27CE088E290E100
:104070000E94473DEB85FC85E459FF4F408151810B
:104080006281738122E030E088E290E10E94103F7B
:1040900088E290E10E944F3D80E001C081E02C96D3
:1040A0000FB6F894DEBF0FBECDBFDF91CF911F9149
:1040B0000F91FF90EF90DF90CF90BF90AF909F90C7
:1040C0008F907F906F905F904F903F902F900895CA
:1040D00085EB9DE0F7C9FC0181E046895789208D79
:1040E000318D4217530709F480E00895FC01208DBB
:1040F000318D86899789822793276823792381E0E8
:10410000672B09F480E00895DC015896ED91FC914D
:104110005997AF01409550954623572391E0452B81
:1041200009F490E056962D913C9157972E273F2702
:104130006223732381E0672B09F480E089230895CB
:10414000DC015696ED91FC915797AF014095509543
:104150004623572391E0452B09F490E058962D9182
:104160003C9159972E273F276223732381E0672BC9
:1041700009F480E089230895FC01808D918D80955C
:1041800090956823792381E0672B09F480E00895F6
:10419000860F911DFC0180810895FC0183A5833069
:1041A00031F0813031F08C3031F080E0089581E0E1
:1041B000089582E0089583E00895DC019FB7F894A4
:1041C0005B96ED91FC915C9720815A968C91822BA5
:1041D00080839FBF0895DC019FB7F8945E96ED91B0
:1041E000FC915F9720815D968C91822B80839FBF8D
:1041F00008958F929F92AF92BF92CF92DF92EF92EB
:10420000FF920F931F93CF93DF93EC0100E010E038
:10421000F12CC62ED12C812C912C54018394E02EAC
:10422000C601002E02C0959587950A94E2F780FF9B
:1042300003C0CE01D0DF0AC02FB7F894EE8DFF8DFA
:1042400090818D8D8095892380832FBF2FB7F8941F
:10425000EB8DFC8D90818A8D8095892380832FBF83
:1042600084E090E00E94A141ECA1FDA190818BA18E
:10427000892351F0D501C40104C0880F991FAA1FDA
:10428000BB1FEA94D2F7F82ACE0197DF0F5F1F4FCA
:104290000830110509F0C3CFCE019DDF83E090E027
:1042A0000E94A1418F2DDF91CF911F910F91FF901F
:1042B000EF90DF90CF90BF90AF909F908F90089538
:1042C000DC019FB7F8949196ED91FC919297208133
:1042D00090968C91822B80839FBF0895DC012FB72D
:1042E000F8949196ED91FC919297908190968C9193
:1042F0008095892380832FBF0895CF92DF92EF921C
:10430000FF920F931F93CF93DF93EC016B01042F68
:10431000E5DF760110E0C7018C199D098017910730
:1043200034F4F70161917F01CE0163DFF4CFCE0158
:10433000C7DF6AA570E080E090E0DF91CF911F9128
:104340000F91FF90EF90DF90CF900C946841CF9346
:10435000DF93EC0145E068E376E0CFDF49E06FE210
:1043600076E0CE01CADF8CA5882329F045E068E11C
:1043700076E0CE01C2DF8DA5882329F049E066E210
:1043800076E0CE01BADF49E06DE176E0CE01DF9163
:10439000CF91B3CF2F923F924F925F926F927F92C5
:1043A0008F929F92AF92BF92CF92DF92EF92FF9245
:1043B0000F931F93CF93DF93CDB7DEB729970FB637
:1043C000F894DEBF0FBECDBF4C01762E142F0E9495
:1043D0003741F401C6A0D7A0E0A4F1A46C197D096F
:1043E0008E099F090E94BB366B017C0120E030E8FA
:1043F0004BEB54E40E94CB37181614F4C401A7DF2A
:10440000F40162A570E080E090E00E94BD361B01DF
:104410002C019B01AC01C701B6010E941B3687FF2E
:104420000AC0A7019601C201B1010E9454350E9441
:104430008F360E9468411123E1F0612F70E080E027
:1044400090E01F921F921F922FEF2F9320E4A22E35
:10445000B12CC12CD12CE12CF12C8701EA9420E065
:1044600030E0A9010E94F642162F0F900F900F9096
:104470000F90CE0101967C0189E0F70111928A9597
:10448000E9F781E0898382E48A837C821D8385E069
:10449000382E8E01065F1F4F6401F9E0CF0ED11C4C
:1044A000540185E1A80EB11CC40195DEC40185DE6E
:1044B000C40114DF83E090E00E94A1412701340190
:1044C000F20161912F01C40194DEF30181933F0158
:1044D00040165106A9F7F4018181893741F0C401E2
:1044E000EFDEF4018181807F803761F417C03601EF
:1044F00060E0C4017EDEF30181933F01EA15FB0514
:10450000B9F7EDCFC40123DFF40162A570E080E0CC
:1045100090E00E9468413A943110C6CFF401818145
:10452000807F803731F0F40182A58A3010F48F5FEC
:1045300082A7F401808D918D978B868B83819481E6
:10454000918F808F0E943741F40166A377A380A7E3
:1045500091A79181907F81E0903709F080E02996C2
:104560000FB6F894DEBF0FBECDBFDF91CF911F9184
:104570000F91FF90EF90DF90CF90BF90AF909F9002
:104580008F907F906F905F904F903F902F90089505
:1045900040E060E0FFCE6F927F928F929F92AF9249
:1045A000BF92CF92EF92FF920F931F93CF93DF931F
:1045B000CDB7DEB72B970FB6F894DEBF0FBECDBFD9
:1045C0005C01862F70E0FB01E65DF84FE491D501B8
:1045D0005A96EC935A97FB01E059F84FE491F0E0BA
:1045E000EE0FFF1FE053F84F65917491F501748F42
:1045F000638F642F70E0FB01E65DF84FE4915D96F8
:10460000EC935D97FB01E059F84FE491F0E0EE0F79
:10461000FF1FE053F84F65917491F501778F668F16
:10462000622F70E0FB01E65DF84FE4919096EC9309
:10463000FB01E059F84FE491F0E0EE0FFF1FE0536B
:10464000F84F65917491F50172A361A3A02FB0E0BA
:10465000FD01E65DF84F9491F50193A3FD01E0594A
:10466000F84FE491F0E0EE0FFF1FEA54F84F659128
:104670007491D50195967C936E93949761E02A8707
:104680004B870E94634261E02A85822F0E94634229
:1046900061E04B85842F0E94634260E0802F0E947E
:1046A000634261E0802F0E949F42C50194DDC501F5
:1046B00084DDC5016DDFC5016BDFF50181818134CA
:1046C000D9F08337C9F08937B9F06EE37CE088E22E
:1046D00090E10E94523D61E77CE088E290E10E9417
:1046E000473D40E150E0D50111966C9188E290E1A0
:1046F0000E94223E81E07EC081E0F50182A78BE02E
:10470000882E912CFF24F39445E068E376E0C50100
:10471000F4DD83E090E00E94A141C5015CDDC501AC
:104720004CDDC501DBDD83E090E00E94A1410AEC95
:104730001CE0CE0101963C01D8016D918D01C501AF
:1047400058DDF30181933F01FCE0033D1F07A1F712
:10475000C501B6DD8C81D5019B968C9349E06FE253
:1047600076E0C501CADDCC2039F045E068E176E0AD
:10477000C501C3DDF501F4A6EE2041F049E066E293
:1047800076E0C501BADDD5019D96FC9249E06DE168
:1047900076E0C501B2DDC501FBDEF5018181EE20C9
:1047A00021F0893731F1833711F1833711F1F1E0CD
:1047B0008F1A9108B9F467E97CE088E290E10E94E1
:1047C000523D69EB7CE088E290E10E94473D40E188
:1047D00050E0D50111966C9188E290E10E94223E52
:1047E00082E008C0F50182A58F5F82A78DCF83E0AC
:1047F00001C080E02B960FB6F894DEBF0FBECDBF90
:10480000DF91CF911F910F91FF90EF90CF90BF90CC
:10481000AF909F908F907F906F900895FC011082D1
:1048200011821282138214821582168217821086D8
:104830001186128613861486158616861786108AA8
:10484000118A128A138A148A158A168A178A108E78
:10485000118E128E138E148E158E168E178E10A238
:1048600011A212A213A28FEF84A385A316A217A2EE
:1048700080A780E881A712A613A684E684A715A6C0
:1048800008951F93CF93DF93EC018DEC9FE00E947E
:10489000573349E050E068E070E08DEC9FE00E9403
:1048A000F03311E08DEC9FE00E948E32892B09F4E9
:1048B00067C08DEC9FE00E94963289838DEC9FE06B
:1048C0000E9496328A838DEC9FE00E9496328B8301
:1048D0008DEC9FE00E9496328C838DEC9FE00E94CD
:1048E00096328D838DEC9FE00E9496328E838DEC04
:1048F0009FE00E9496328F838DEC9FE00E9496325B
:1049000088878DEC9FE00E94963289A3698170E0D0
:10491000762F66278A81682B072E000C880B990B4F
:104920000E94BD3669877A878B879C876B8170E090
:10493000762F66278C81682B072E000C880B990B2D
:104940000E94BD366D877E878F87988B6D8170E062
:10495000762F66278E81682B072E000C880B990B0B
:104960000E94BD36698B7A8B8B8B9C8B8F818111DA
:1049700005C08885811102C0188394CF188292CF18
:10498000DF91CF911F9108954F925F926F927F9226
:104990008F929F92AF92BF92CF92DF92EF92FF924F
:1049A000CF93DF93CDB7DEB728970FB6F894DEBF6D
:1049B0000FBECDBF60914B0F70914C0F80914D0F8A
:1049C00090914E0F0E94BD3621EE3AE744E95FE335
:1049D0000E94D63720E030E040E05BE30E94D6370B
:1049E0002BED3FE049E450E40E94D63720E030E070
:1049F00048E152E40E94D63760933F0F7093400F16
:104A00008093410F9093420F10924B0F10924C0FD6
:104A100010924D0F10924E0F6091470F7091480FFA
:104A20008091490F90914A0F0E94BD3621EE3AE7DE
:104A300044E95FE30E94D63720E030E040E05BE3EA
:104A40000E94D6372BED3FE049E450E40E94D63770
:104A500020E030E048E152E40E94D6374B015C018F
:104A600060933B0F70933C0F80933D0F90933E0FEC
:104A70001092470F1092480F1092490F10924A0F50
:104A80006091430F7091440F8091450F9091460FB4
:104A90000E94BD3621EE3AE744E95FE30E94D63733
:104AA00020E030E040E05BE30E94D6372BED3FE0B2
:104AB00049E450E40E94D63720E030E048E152E477
:104AC0000E94D6372B013C016093370F7093380F4B
:104AD0008093390F90933A0F1092430F1092440F26
:104AE0001092450F1092460F20E030E044E353E46B
:104AF00060913E0D70913F0D8091400D9091410D60
:104B00000E9422362BED3FE049E450E40E94D63764
:104B10006B017C0160932B0F70932C0F80932D0FF2
:104B200090932E0FA3019201C501B4010E94543548
:104B300020E030E040E05FE30E94D6372B013C01EB
:104B4000C092270FD092280FE092290FF0922A0FDF
:104B5000C701B6010E941F366D837E838F839887BD
:104B6000C701B6010E9485384B015C0120E030E0AE
:104B7000A9016D817E818F8198850E94D6376983D6
:104B80007A838B839C83A5019401C301B2010E94A7
:104B9000D6379B01AC0169817A818B819C810E940F
:104BA00055352091330F3091340F4091350F50918E
:104BB000360F0E94553569837A838B839C8360937B
:104BC000330F7093340F8093350F9093360F2D81F0
:104BD0003E814F815885C301B2010E94D6372B0117
:104BE0003C0120E030E0A901C501B4010E94D637A4
:104BF0009B01AC01C301B2010E94543520912F0FDB
:104C00003091300F4091310F5091320F0E94553545
:104C100060932F0F7093300F8093310F9093320F6A
:104C200029813A814B815C812093570F3093580F33
:104C30004093590F50935A0F6093530F7093540F32
:104C40008093550F9093560F2BED3FE049E450E4CD
:104C5000C701B6010E94223620E030E044E353E46D
:104C60000E94D63760934F0F7093500F8093510F6F
:104C70009093520F28960FB6F894DEBF0FBECDBFAB
:104C8000DF91CF91FF90EF90DF90CF90BF90AF90EA
:104C90009F908F907F906F905F904F900895E8EC79
:104CA000FEE0918D81E08927818F8EE39DE00E9457
:104CB000C60F68EC70E080E090E00C94684184E0FE
:104CC0000E94CE4240914B0F50914C0F60914D0F7E
:104CD00070914E0F019729F44150510961097109F2
:104CE00004C04F5F5F4F6F4F7F4F40934B0F509308
:104CF0004C0F60934D0F70934E0F089585E00E9406
:104D0000CE424091470F5091480F6091490F7091EA
:104D10004A0F019729F44F5F5F4F6F4F7F4F04C0D9
:104D200041505109610971094093470F5093480F51
:104D30006093490F70934A0F089586E00E94CE4217
:104D40004091430F5091440F6091450F7091460F71
:104D5000019729F44F5F5F4F6F4F7F4F04C0415061
:104D60005109610971094093430F5093440F6093B7
:104D7000450F7093460F089562E083E10E946342FD
:104D800062E082E00E94634262E083E00E9463424C
:104D900062E084E00E94634262E085E00E94634238
:104DA00062E086E00E94634242E050E06FE576E216
:104DB00084E00E94223F42E050E06EE776E280E02D
:104DC0000E94223F42E050E06DE976E281E00C94DF
:104DD000223FCF93DF9300D000D0CDB7DEB726E0DF
:104DE00040E052EC61E070E088E290E10E94D63A47
:104DF00040E052EC61E070E08EEE9EE00E942412F2
:104E00008FEE9EE00E94A11381E69EE00E94AB110E
:104E1000B3DF66E677E0CE0101960E949C4342E351
:104E200050E0BE016F5F7F4F8CEB9EE00E94B33479
:104E3000CE0101960E94354364EC74E28CEB9EE057
:104E40000E9422358EE39DE00E94D00F8EE39DE00C
:104E50000E94BC0F8EE39DE00E94C60F88EC9EE08E
:104E60000E94481888EC9EE00E94D61881E080934A
:104E7000E10E62E089E00E94634268E070E08DEC40
:104E80009FE00E946F3340E85AE166E070E08DECED
:104E90009FE00E9470336AE070E38DEC9FE00E9417
:104EA000F43362E082E10E94634242E050E06FE44A
:104EB00076E285E00E94223F85EB9DE00E94531B35
:104EC00026960FB6F894DEBF0FBECDBFDF91CF910F
:104ED00008952F923F924F925F926F927F928F929E
:104EE0009F92AF92BF92CF92DF92EF92FF920F9379
:104EF0001F93CF93DF93CDB7DEB76E970FB6F894BD
:104F0000DEBF0FBECDBF89E00E94CE42892B21F4C7
:104F100088EC9EE00E94D61883E39EE0B2DC8EE32C
:104F20009DE00E94BC0F0E942B340E9408348091A7
:104F3000E10E81110CC680912710811142C280912F
:104F40002B0E90912C0E892BA1F5C0904F0FD09075
:104F5000500FE090510FF090520F0091530F1091AD
:104F6000540F2091550F3091560F4091570F50918B
:104F7000580F6091590F70915A0F84E48F9383EC0E
:104F80008F931F921F92812C912C540185EB9DE0F1
:104F90000E94CC1B0F900F900F900F90882349F028
:104FA00080912B0E90912C0E019690932C0E809355
:104FB0002B0E80912B0E90912C0E0197D9F44091DD
:104FC0004F0F5091500F6091510F7091520F00E0B0
:104FD00010E024EB32E485EB9DE00E94E91E88237B
:104FE00049F080912B0E90912C0E019690932C0EEF
:104FF00080932B0E80912B0E90912C0E0297B9F579
:10500000C0904F0FD090500FE090510FF090520F82
:105010000091530F1091540F2091550F3091560F5E
:105020004091570F5091580F6091590F70915A0F3E
:1050300084E48F9383EC8F931F921F92812C912C89
:10504000F6E1AF2EF4E4BF2E85EB9DE00E94CC1B71
:105050000F900F900F900F90882349F080912B0EA6
:1050600090912C0E019690932C0E80932B0E809194
:105070002B0E90912C0E0397D1F440914F0F50912D
:10508000500F6091510F7091520F00E010E09801A5
:1050900085EB9DE00E94E91E882349F080912B0E4C
:1050A00090912C0E019690932C0E80932B0E809154
:1050B0002B0E90912C0E0497C1F5C0904F0FD090FD
:1050C000500FE090510FF090520F0091530F10913C
:1050D000540F2091550F3091560F4091570F50911A
:1050E000580F6091590F70915A0F85E48F938BE29E
:1050F0008F9380E48F931F92812C912CE6E1AE2E4A
:10510000E4E4BE2E85EB9DE00E94CC1B0F900F9037
:105110000F900F90882349F080912B0E90912C0EC8
:10512000019690932C0E80932B0E80912B0E9091D4
:105130002C0E0597D9F440914F0F5091500F60916C
:10514000510F7091520F00E010E024EB32EC85EB30
:105150009DE00E94E91E882349F080912B0E9091DA
:105160002C0E019690932C0E80932B0E80912B0E7B
:1051700090912C0E0697C1F5C0904F0FD090500F14
:10518000E090510FF090520F0091530F1091540F77
:105190002091550F3091560F4091570F5091580F55
:1051A0006091590F70915A0F85E48F938BE28F9322
:1051B00080E48F931F92812C912C96E1A92E94EC80
:1051C000B92E85EB9DE00E94CC1B0F900F900F90A5
:1051D0000F90882349F080912B0E90912C0E019610
:1051E00090932C0E80932B0E80912B0E90912C0E71
:1051F0000797D9F440914F0F5091500F6091510F84
:105200007091520F00E010E023E333EC85EB9DE05A
:105210000E94E91E882349F080912B0E90912C0E5C
:10522000019690932C0E80932B0E80912B0E9091D3
:105230002C0E0897B9F5C0904F0FD090500FE0900A
:10524000510FF090520F0091530F1091540F209175
:10525000550F3091560F4091570F5091580F609154
:10526000590F70915A0F84E48F9383EC8F931F92A0
:105270001F92812C912C86E1A82E84ECB82E85EB10
:105280009DE00E94CC1B0F900F900F900F908823F1
:1052900049F080912B0E90912C0E019690932C0E3C
:1052A00080932B0E80912B0E90912C0E0997D9F4A0
:1052B00040914F0F5091500F6091510F7091520FCC
:1052C00000E010E024EB32E485EB9DE00E94E91E53
:1052D000882349F080912B0E90912C0E019690938B
:1052E0002C0E80932B0E80912B0E90912C0E0A97F2
:1052F000A1F5C0904F0FD090500FE090510FF0905B
:10530000520F0091530F1091540F2091550F30916F
:10531000560F4091570F5091580F6091590F70914F
:105320005A0F84E48F9383EC8F931F921F92812CEA
:10533000912C540185EB9DE00E94CC1B0F900F90A7
:105340000F900F90882349F080912B0E90912C0E96
:10535000019690932C0E80932B0E80912B0E9091A2
:105360002C0E0B97D9F440914F0F5091500F609134
:10537000510F7091520F00E010E023E333E485EB0E
:105380009DE00E94E91E882349F080912B0E9091A8
:105390002C0E019690932C0E80932B0E80912B0E49
:1053A00090912C0E0C976CF081E080932710109256
:1053B0002C0E10922B0E63ED7CE088E290E10E94AF
:1053C000523D80912710813009F05BC080913F06EB
:1053D0008130A9F580E090E0A0E8BFEB8093250E36
:1053E0009093260EA093270EB093280E1092210EB4
:1053F0001092220E1092230E1092240E8091330EE2
:105400008823E9F068EE73E080E090E00E94684154
:105410008091330E882399F01092250E1092260E5B
:105420001092270E1092280E1092210E1092220E2A
:105430001092230E1092240E83E080933F068091F9
:105440003F068330F1F44091400E5091410E60913F
:10545000420E7091430E4093330F5093340F60937C
:10546000350F7093360F40E050E06AEF74E44093DC
:105470002F0F5093300F6093310F7093320F809342
:10548000271080912710833049F584E59DE00E9424
:105490009512C0904F0FD090500FE090510FF090A8
:1054A000520F0091530F1091540F2091550F3091CE
:1054B000560F4091570F5091580F6091590F7091AE
:1054C0005A0F84E59DE00E94B4120E943741709308
:1054D000570D6093560D84E080932710809127101C
:1054E0008430C1F40E9437414090560D5090570DC2
:1054F000052C000C66087708DC01CB01841995099E
:10550000A609B70981339547A105B10518F085E0D3
:105510008093271080912710853009F0F5C1809184
:105520002B0E90912C0E892BD9F440914F0F509156
:10553000500F6091510F7091520F00E010E024EB7A
:1055400032E485EB9DE00E94E91E882349F08091BA
:105550002B0E90912C0E019690932C0E80932B0E77
:1055600080912B0E90912C0E0197B9F5C0904F0FA2
:10557000D090500FE090510FF090520F0091530FC8
:105580001091540F2091550F3091560F4091570FA5
:105590005091580F6091590F70915A0F84E48F9376
:1055A00081E98F931F921F92812C912CBAE7AB2E29
:1055B000B4E4BB2E85EB9DE00E94CC1B0F900F90B6
:1055C0000F900F90882349F080912B0E90912C0E14
:1055D000019690932C0E80932B0E80912B0E909120
:1055E0002C0E0297D1F440914F0F5091500F6091C3
:1055F000510F7091520F00E010E0980185EB9DE093
:105600000E94E91E882349F080912B0E90912C0E68
:10561000019690932C0E80932B0E80912B0E9091DF
:105620002C0E0397C1F5C0904F0FD090500FE09013
:10563000510FF090520F0091530F1091540F209181
:10564000550F3091560F4091570F5091580F609160
:10565000590F70915A0F85E48F9384E48F9380E4FF
:105660008F931F92812C912CAAE7AA2EA4E4BA2E24
:1056700085EB9DE00E94CC1B0F900F900F900F9038
:10568000882349F080912B0E90912C0E01969093D7
:105690002C0E80932B0E80912B0E90912C0E049744
:1056A000D9F440914F0F5091500F6091510F70916C
:1056B000520F00E010E024EB32EC85EB9DE00E94FD
:1056C000E91E882349F080912B0E90912C0E0196B3
:1056D00090932C0E80932B0E80912B0E90912C0E7C
:1056E0000597C1F5C0904F0FD090500FE090510F2B
:1056F000F090520F0091530F1091540F2091550FBD
:105700003091560F4091570F5091580F6091590F9B
:1057100070915A0F85E48F9384E48F9380E48F9384
:105720001F92812C912CFAE7AF2EF4ECBF2E85EB63
:105730009DE00E94CC1B0F900F900F900F9088233C
:1057400049F080912B0E90912C0E019690932C0E87
:1057500080932B0E80912B0E90912C0E0697D9F4EE
:1057600040914F0F5091500F6091510F7091520F17
:1057700000E010E023E333EC85EB9DE00E94E91E9E
:10578000882349F080912B0E90912C0E01969093D6
:105790002C0E80932B0E80912B0E90912C0E079740
:1057A000B9F5C0904F0FD090500FE090510FF0908E
:1057B000520F0091530F1091540F2091550F3091BB
:1057C000560F4091570F5091580F6091590F70919B
:1057D0005A0F84E48F9381E98F931F921F92812C3B
:1057E000912CEAE7AE2EE4ECBE2E85EB9DE00E9404
:1057F000CC1B0F900F900F900F90882349F0809151
:105800002B0E90912C0E019690932C0E80932B0EC4
:1058100080912B0E90912C0E0897D9F440914F0F48
:105820005091500F6091510F7091520F00E010E0B5
:1058300024EB32E485EB9DE00E94E91E882349F0C9
:1058400080912B0E90912C0E019690932C0E8093AC
:105850002B0E80912B0E90912C0E0997A1F5C090E4
:105860004F0FD090500FE090510FF090520F0091D9
:10587000530F1091540F2091550F3091560F4091B6
:10588000570F5091580F6091590F70915A0F84E43F
:105890008F9381E98F931F921F92812C912C540139
:1058A00085EB9DE00E94CC1B0F900F900F900F9006
:1058B000882349F080912B0E90912C0E01969093A5
:1058C0002C0E80932B0E80912B0E90912C0E0A970C
:1058D000D9F440914F0F5091500F6091510F70913A
:1058E000520F00E010E024EB32E485EB9DE00E94D3
:1058F000E91E882349F080912B0E90912C0E019681
:1059000090932C0E80932B0E809127108630C9F532
:1059100080913F068130A9F580E090E0A0E8BFEBE0
:105920008093250E9093260EA093270EB093280EF9
:105930001092210E1092220E1092230E1092240E1D
:105940008091330E8823E9F06CE271E080E090E012
:105950000E9468418091330E882399F01092250EA1
:105960001092260E1092270E1092280E1092210EE1
:105970001092220E1092230E1092240E83E0809338
:105980003F0680912710893009F047C080E090E001
:10599000A0E8BFE38093250E9093260EA093270ED8
:1059A000B093280E80E090E0A0E0BFEB8093210E42
:1059B0009093220EA093230EB093240E8091540E48
:1059C000882359F120E030E84BEB54E46091440E19
:1059D0007091450E8091460E9091470E0E94CB37F4
:1059E00087FD1BC08BE08093271040914F0F509193
:1059F000500F6091510F7091520F00E010E024E3BE
:105A000033E485EB9DE00E948F1B6093231070931D
:105A100024108093251090932610809127108B30AE
:105A2000A9F580E090E0A0E8BFEB8093250E90936D
:105A3000260EA093270EB093280E1092210E1092DE
:105A4000220E1092230E1092240E8091330E882382
:105A5000E9F06CE271E080E090E00E9468418091A2
:105A6000330E882399F01092250E1092260E109274
:105A7000270E1092280E1092210E1092220E1092D4
:105A8000230E1092240E8CE0809327108091271013
:105A90008C30F9F48091400E9091410EA091420E0D
:105AA000B091430E8093330F9093340FA093350F32
:105AB000B093360F80E090E0AAEFB4E480932F0F0C
:105AC0009093300FA093310FB093320F8DE08093FD
:105AD0002710809127108D3049F584E59DE00E94C4
