S0150000736B657463685F6665623033612E737265633D
S1130000DAC3000009C4000007C4000005C40000EE
S113001003C4000001C40000FFC30000FDC30000CE
S1130020FBC30000F9C30000F7C30000F5C30000E0
S1130030F3C30000F1C30000EFC30000EDC30000F0
S1130040EBC300000C946F21E7C30000E5C300007C
S1130050E3C30000E1C30000DFC300000C94EA29FD
S1130060DBC300000C947F260C94B526D5C3000096
S1130070D3C30000D1C30000CFC30000CDC3000030
S1130080CBC30000C9C30000C7C30000C5C3000040
S11300900C9414270C944A27BFC300000C942B1E05
S11300A0BBC30000B9C30000B7C30000B5C3000060
S11300B0B3C30000B1C30000AFC30000ADC3000070
S11300C0ABC30000A9C30000A7C30000A5C3000080
S11300D0A3C30000A1C300009FC300009DC3000090
S11300E09BC3000007634236B79BD8A71A396856EA
S11300F018AEBAAB558C1D3CB7CC5763BD6DEDFD46
S1130100753EF6177231BF000000803F0800000002
S1130110BE922449123EABAAAA2ABECDCCCC4C3EF8
S113012000000080BEABAAAAAA3E00000000BF00E7
S11301300000803F0000000000084178D3BB4387E3
S1130140D1133D190E3CC3BD4282AD2B3E68EC82F7
S113015076BED98FE1A93E4C80EFFFBE01C4FF7F7C
S11301603F0000000000252B282B172B1B2B212BD5
S11301705F2B2C2B302B362B3A2B3E2B442B482B2E
S11301804C2B5F2B522B562B5A2B00000000003EA9
S11301905B4F5B3E3E6B4F6B3E1C3E7C3E1C183CF3
S11301A07E3C181C577D571C1C5E7F5E1C00183C4F
S11301B01800FFE7C3E7FF0018241800FFE7DBE798
S11301C0FF30483A060E2629792926407F0505077F
S11301D0407F05253F5A3CE73C5A7F3E1C1C0808DB
S11301E01C1C3E7F14227F22145F5F005F5F0609A0
S11301F07F017F006689956A606060606094A2FFF9
S1130200A29408047E040810207E201008082A1CEA
S113021008081C2A08081E101010100C1E0C1E0CB6
S113022030383E3830060E3E0E0600000000000056
S1130230005F00000007000700147F147F14242AC5
S11302407F2A122313086462364956205000080797
S11302500300001C2241000041221C002A1C7F1CB8
S11302602A08083E080800807030000808080808BA
S1130270000060600020100804023E5149453E0021
S1130280427F400072494949462141494D3318147F
S1130290127F1027454545393C4A494931412111CE
S11302A009073649494936464949291E00001400C0
S11302B000004034000000081422411414141414E3
S11302C0004122140802015909063E415D594E7C41
S11302D01211127C7F494949363E414141227F41F6
S11302E041413E7F494949417F090909013E414154
S11302F051737F0808087F00417F41002040413F3F
S1130300017F081422417F404040407F021C027F4D
S11303107F0408107F3E4141413E7F090909063EA2
S11303204151215E7F091929462649494932030171
S11303307F01033F4040403F1F2040201F3F403883
S1130340403F631408146303047804036159494D5E
S113035043007F4141410204081020004141417F94
S1130360040201020440404040400003070800200A
S1130370545478407F28444438384444442838440A
S113038044287F385454541800087E090218A4A441
S11303909C787F0804047800447D40002040403D60
S11303A0007F1028440000417F40007C04780478DA
S11303B07C080404783844444438FC18242418186D
S11303C0242418FC7C0804040848545454240404C9
S11303D03F44243C4040207C1C2040201C3C4030B6
S11303E0403C44281028444C9090907C4464544CE5
S11303F04400083641000000770000004136080040
S113040002010204023C2623263C1EA1A161123AE9
S11304104040207A38545455592155557941225435
S1130420547842215554784020545579400C1E523A
S113043072123955555559395454545939555454DF
S1130440580000457C410002457D420001457C4046
S11304507D1211127DF0282528F07C54554500208A
S113046054547C547C0A097F4932494949323A44FC
S113047044443A324A4848303A4141217A3A424067
S11304802078009DA0A07D3D4242423D3D40404039
S11304903D3C24FF2424487E4943662B2FFC2F2B0C
S11304A0FF0929F620C0887E0903205454794100AD
S11304B000447D413048484A32384040227A007A2C
S11304C00A0A727D0D19317D2629292F282629290A
S11304D0292630484D40203808080808080808082C
S11304E0382F10C8ACBA2F102834FA00007B000053
S11304F008142A142222142A14085500550055AA57
S113050055AA55AAFF55FF55FF000000FF00101023
S113051010FF00141414FF001010FF00FF1010F05F
S113052010F0141414FC001414F700FF0000FF0072
S1130530FF1414F404FC141417101F10101F101FC0
S11305401414141F00101010F0000000001F1010ED
S113055010101F10101010F010000000FF101010E9
S1130560101010101010FF10000000FF140000FF06
S113057000FF00001F10170000FC04F414141710EF
S1130580171414F404F40000FF00F71414141414E2
S11305901414F700F7141414171410101F101F1458
S11305A01414F4141010F010F000001F101F0000B9
S11305B0001F14000000FC140000F010F01010FFE5
S11305C010FF141414FF141010101F00000000F08A
S11305D010FFFFFFFFFFF0F0F0F0F0FFFFFF00005F
S11305E0000000FFFF0F0F0F0F0F3844443844FC86
S11305F04A4A4A347E02020606027E027E0263559D
S11306004941633844443C04407E201E2006027E57
S1130610020299A5E7A5991C2A492A1C4C72017269
S11306204C304A4D4D303048784830BC625A463DD3
S11306303E494949007E0101017E2A2A2A2A2A4488
S1130640445F444440514A444040444A51400000BD
S1130650FF0103E080FF000008086B6B08361236C8
S11306602436060F090F06000018180000001010A9
S1130670003040FF0101001F01011E00191D171267
S1130680003C3C3C3C000000000000000A0B020956
S11306900C0D0E0807030401000000000000000018
S11306A00000000000000000000000000000000046
S11306B00000000000001211100000000000000003
S11306C00000000000000000000000000000000026
S11306D00102102020080810204010204080020150
S11306E00201080402010102040810204080804035
S11306F02010080402018004020180402010080434
S113070002010804020101020408102040800102D1
S11307100408102040800505050507050808080899
S1130720020202020A0A0808040404040101010185
S11307300101010103030303030303030407070780
S11307400C0C0C0C0C0C0C0C020202020606060625
S1130750060606060B0B0B0B0B0B0B0B0000200005
S11307602300260029002C002F0032000001000085
S113077003010601090100002200250028002B00C6
S11307802E003100340002010000050108010B01B4
S113079000002100240027002A002D00300033002F
S11307A001010000040107010A014713B71C7C2062
S11307B0E7267C27F61C11241FBECFEFD1E2DEBF53
S11307C0CDBF00E00CBF1CE0A0E0B2E0EEE4FFE52A
S11307D000E00BBF02C007900D92A832B107D9F711
S11307E02FE0A8E2BCE001C01D92A233B207E1F7FA
S11307F013E0CAEDD3E000E006C021970109802F81
S1130800FE010E94392DC53DD10780E00807A9F7F4
S11308100E94AA270C94962FF3CB80E090E00895D1
S113082008952F923F924F925F926F927F928F9290
S11308309F92AF92BF92CF92DF92EF92FF920F936B
S11308401F93CF93DF9300D0CDB7DEB74C017B83EA
S11308506A836A01590117019801241B350B37FF7C
S113086003C0319521953109C5014A815B81841BFF
S1130870950B97FF03C091958195910951E0598398
S11308808217930714F019820BC09A2D8B2D5801EF
S1130890092F182F9A818B81DB82CA82C92ED82E08
S11308A08A819B81A816B9065CF49C2D8D2D680164
S11308B0092F182F9A818B81BB82AA82A92EB82E68
S11308C02501AA81BB814A1A5B0A38016C187D088C
S11308D077FE03C0719461947108720157FE03C0DE
S11308E0BFEFEB1AFB0AF594E794C016D1061CF08F
S11308F00FEF1FEF1FC001E010E01CC0D401ED9109
S1130900FC91B9810484F585E02D9101BB23C1F0EC
S11309104A815B81B601C4011995E618F708F7FE10
S113092004C0C00ED11EE40CF51CEA81FB81319693
S1130930FB83EA834A815B81A416B506FCF604C0F6
S1130940A6016A817B81E7CF0F900F900F90DF9112
S1130950CF911F910F91FF90EF90DF90CF90BF90B8
S1130960AF909F908F907F906F905F904F903F904B
S11309702F9008950895DC01ED91FC910084F18598
S1130980E02D19940F931F93DC01ED91FC91048CDD
S1130990F58DE02D19951F910F9108950F931F93D5
S11309A0DC01ED91FC91068CF78DE02D19951F91DA
S11309B00F910895EF92FF920F931F93DC01ED9135
S11309C0FC9100A0F1A1E02D19951F910F91FF90CA
S11309D0EF9008950895AF92BF92CF92DF92EF9275
S11309E0FF920F931F93CF93DF9300D01F92CDB745
S11309F0DEB75C016901DC01ED91FC910284F385B1
S1130A00E02D4B835C8369837A831995D501ED913D
S1130A10FC914B815C81C40ED51EB1E0CB1AD10888
S1130A200488F589E02D7801860169817A819B012A
S1130A30C5011995D501ED91FC910688F789E02D42
S1130A40C5010F900F900F900F90DF91CF911F91E0
S1130A500F91FF90EF90DF90CF90BF90AF901994DB
S1130A60AF92BF92CF92DF92EF92FF920F931F93B8
S1130A70CF93DF9300D01F92CDB7DEB75C0169013D
S1130A80DC01ED91FC910284F385E02D4B835C83C2
S1130A9069837A831995D501ED91FC9169817A81F5
S1130AA09B012C0D3D1D215031090488F589E02D51
S1130AB078014B815C818A01C5011995D501ED91BD
S1130AC0FC910688F789E02DC5010F900F900F90D7
S1130AD00F90DF91CF911F910F91FF90EF90DF90D6
S1130AE0CF90BF90AF9019944F925F926F927F9284
S1130AF08F929F92AF92BF92CF92DF92EF92FF922A
S1130B000F931F93CF93DF931F921F92CDB7DEB73E
S1130B106C015A0139014801DC01ED91FC91028418
S1130B20F385E02D69837A8319956981462E7A814C
S1130B30572E640C751CD601ED91FC914614570494
S1130B406CF40088F189E02D87019401A501B201BC
S1130B50C6011995BFEF4B1A5B0AEDCF0688F789DA
S1130B60E02DC6010F900F90DF91CF911F910F914F
S1130B70FF90EF90DF90CF90BF90AF909F908F90B9
S1130B807F906F905F904F901994EF92FF920F9324
S1130B901F93DC01ED91FC9111971A960D911C9114
S1130BA01B9718962D913C91199700A0F1A1E02D67
S1130BB07B0140E050E060E070E019951F910F91D7
S1130BC0FF90EF900895CF92DF92EF92FF920F93F0
S1130BD01F93CF93DF9300D000D0CDB7DEB76C0165
S1130BE0DC01ED91FC916217730789F40417150772
S1130BF02CF4942F852FA801092F182F041B150BF3
S1130C0098012F5F3F4F048CF58DE02D12C04017E3
S1130C10510709F5261737072CF4962F872FB901AA
S1130C20292F382F261B370B2F5F3F4F068CF78D4C
S1130C30E02D8701C601199526960FB6F894DEBFFC
S1130C400FBECDBFDF91CF911F910F91FF90EF9019
S1130C50DF90CF9008950284F385E02D2D833E83A9
S1130C604B835C8369837A831995D601ED91FC915A
S1130C700488F589E02D2D813E814B815C81698159
S1130C807A81C6011995D601ED91FC910688F78900
S1130C90E02DC60126960FB6F894DEBF0FBECDBF79
S1130CA0DF91CF911F910F91FF90EF90DF90CF9044
S1130CB019946F927F928F929F92AF92BF92CF922C
S1130CC0DF92EF92FF920F931F93CF93DF93EC0188
S1130CD04B015A0169013801E881F9810284F385E5
S1130CE0E02D1995E881F9810288F389E02D8701C7
S1130CF09601A501B401CE011995E881F981A501F8
S1130D00460D571D415051090288F389E02D960183
S1130D10B401CE011995E881F9810088F189E02DAB
S1130D209301A501B401CE011995E881F981C80C9C
S1130D30D91CB601615071090088F189E02D930135
S1130D40A501CE011995E881F9810688F789E02D7E
S1130D50CE01DF91CF911F910F91FF90EF90DF9023
S1130D60CF90BF90AF909F908F907F906F90199489
S1130D700895FC016370658B848195812681378198
S1130D80613039F0633029F0918780873387228777
S1130D90089531872087938782870895FC01138201
S1130DA012828BE496E091838083758364835783F6
S1130DB046837187608753874287158A1586148610
S1130DC01786168681E0848B2FEF3FEF338B228BBF
S1130DD0318B208B868B178A118E108E08952F925B
S1130DE03F924F925F926F927F928F929F92AF92B7
S1130DF0BF92CF92DF92EF92FF920F931F93CF9304
S1130E00DF93CDB7DEB76C970FB6F894DEBF0FBE95
S1130E10CDBF9C8F8B8F5B011A011F830E8337011B
S1130E20C982DC0158964D915C9159974115510541
S1130E3009F0E5C018968D919C9119976817790768
S1130E400CF0CAC11A968D919C911B9728163906ED
S1130E500CF0C2C18C2C912CFB0136E0C39EE00D3A
S1130E60F11D1124FB87EA871E161F060CF0B4C17E
S1130E70C40133E0880F991F3A95E1F79D878C8769
S1130E80820D931D181619060CF0A6C157968C9165
S1130E90811103C0203B08F02F5FAB8DBC8DED9119
S1130EA0FC9111970284F385E02DCD012A8F1995C9
S1130EB02A8DB5E02B9F90011124F5013596FF870B
S1130EC0EE872501BB82AA82A9014A195B09598BC5
S1130ED0488BC10108969B8B8A8BE889F989E40DBC
S1130EE0F51DE657FE4F949198873D822C8261014F
S1130EF0A885A0FF13C0AB8DBC8DED91FC91B98189
S1130F00B13031F40484F585E02D2E813F8116C083
S1130F100684F785E02DEE80FF801AC0EE81FF8104
S1130F206E167F06F1F0AB8DBC8DED91FC91B9810D
S1130F30B13051F40484F585E02D9301A601B2018A
S1130F408B8D9C8D19950DC00684F785E02D73015A
S1130F50840194014C815D816A817B818B8D9C8DA0
S1130F601995E885E695E8872C813D81280D391D82
S1130F703D832C833FEFC31AD30A4A895B89C41685
S1130F80D50609F0B5CF8A819B81880D991D9B8375
S1130F908A839FEF491A590AAE85BF854A165B06B4
S1130FA009F09BCFEE81FF816E167F0609F4F2C033
S1130FB0EB8DFC8DA081B181F981F13079F4B5011B
S1130FC06B5F7F4F5096ED91FC915197830128E020
S1130FD030E0A1018B8D9C8D1995DCC06A857B85E1
S1130FE0681979091E96ED91FC911F9773010C8580
S1130FF01D859401A1018B8D9C8D1995CBC0FA019F
S113100034969491329765917491291BCB01B7E082
S11310102B9F800D911D1124FA01259134913B8B56
S11310202A8BFC01459154915B834A83FC013296DF
S1131030C490319654915C87329614913196D49031
S11310408981823058F0612E012E000C7708AD2D75
S11310500D2C000CBB0BB987A88704C01986188611
S1131060612C712CAB8DBC8DED91FC911197028498
S1131070F385E02DCD011995B9818B2E912C689CB7
S1131080C001699C900D789C900D1124FC01EA0D1F
S1131090FB1DF98BE88B1C82712C612CE12F110F45
S11310A0FF0B95012E0F3F1F3B872A87AC0CB11C09
S11310B0A5014E0F5F1F5F8B4E8BC1018D0D911DDE
S11310C0D7FC9A95998F888F4C85641608F062C076
S11310D0862D90E048855985480F591F489D9001F9
S11310E0499D300D589D300D1124D901A20DB31D19
S11310F0BF87AE87AA84BB8448885988DC80BA85B8
S1131100DB1AE88DF98DE80FF91FFD8BEC8B8D2D23
S11311108A0D2E893F89A216B306B9F1877061F44E
S11311208A819B810196EA89FB89AA81BB81EA0FA6
S1131130FB1F74909B838A8377FE20C0AB8DBC8D8C
S1131140ED91FC91B981B13061F40484F585E02D11
S11311502E813F814C895D89B5018B8D9C8D1995BC
S11311600DC00684F785E02DEE80FF808401940194
S11311704E855F85B2018B8D9C8D1995770C480C3B
S1131180591CEFEFAE1ABE0AC2CF3C813C0D3C8322
S113119063949ACFAB8DBC8DED91FC911197068829
S11311A0F789E02DCD016C960FB6F894DEBF0FBE23
S11311B0CDBFDF91CF911F910F91FF90EF90DF9002
S11311C0CF90BF90AF909F908F907F906F905F90E3
S11311D04F903F902F9019946C960FB6F894DEBF01
S11311E00FBECDBFDF91CF911F910F91FF90EF9074
S11311F0DF90CF90BF90AF909F908F907F906F9033
S11312005F904F903F902F900895AF92BF92CF92EE
S1131210EF92FF920F931F93CF93DF93EC01262F4E
S1131220888D998D009709F03FC06A3059F41D8666
S11312301C862C898E859F8538E0239F800D911D07
S1131240112440C06D3009F4A8C08E898823C1F0F0
S11312503C898C859D8546E0349F800D911D112429
S113126048855985481759075CF41D861C868E8568
S11312709F8548E0349F800D911D11249F878E87A0
S1131280EA88FB88088919894E855F856C857D8588
S1131290CC88CE01A4DD2C898C859D8536E0239FE6
S11312A0800D911D112442C06A3079F41D861C867C
S11312B02C89FC013696E4918E859F852E9F800DA6
S11312C0911D11249F878E8768C06D3009F465C015
S11312D0FC0134963491631708F45FC03196E491AD
S11312E0E61708F45AC0FC013296A590B490462F34
S11312F050E0431B510937E0349FB001359F700D16
S11313001124A60EB71EF501329634913196E4915C
S1131310332311F0E1110DC0F5013496E4912C89C9
S11313208C859D85E29F800D911D11249D878C875E
S113133034C0F501359644915E89552311F16C89C9
S1131340E32FF0E0E40FF11D47FDFA956E9FD00105
S11313506F9FB00D11244C855D854A0F5B1FE88596
S1131360F985E417F5076CF41D861C86FC01369696
S1131370E4918E859F856E9F800D911D11249F871A
S11313808E87EA88FB88088919894E855F856C8574
S11313907D85CC88CE0123DDBFCF81E090E0DF9155
S11313A0CF911F910F91FF90EF90CF90BF90AF908E
S11313B00895FC01758764875787468708956111EE
S11313C001C061E0FC01648B0895FC01738B628BA6
S11313D0718B608B0895FC0185890895FC018085DB
S11313E091850895FC018285938508950F931F9339
S11313F0CF93DF93DC01FB0155968C915597823096
S113140089F0833021F1813009F0E6C014968D9182
S11314109C911597BC01641B750BAB01415051099C
S1131420BF011DC014966D917C911597CB018E1B45
S11314309F0BFC0116968D919C911797BC01641B20
S1131440750BAB0141505109E21BF30BC5C0169655
S11314506D917C9117976E1B7F0B621B730B57FD6D
S11314601AC114968D919C911597481759070CF041
S113147012C177FF04C0260F371F60E070E0169694
S11314808D919C911797FB01E20FF31F8E179F0715
S11314901CF49C01261B370B121613060CF0FBC020
S11314A0A22F862F86958695869590E8899F400D74
S11314B0511D1124FA01EA5EFD4F6770A9F198E00D
S11314C0961B492F50E0EA01C25FDD4F888129173E
S11314D090F4421B51092FEF30E002C03595279557
S11314E04A95E2F782230130110541F068F0023099
S11314F0110589F0D0C00130110519F42081822B27
S11315000CC00130110520F480952081822305C090
S11315100230110531F4208182278083A91708F451
S1131520BAC0A91BE058FF4FA83048F1023011059A
S113153059F4EF018A2F988190959883C058DF4F12
S113154088508830C0F732C081E00130110509F0BD
S113155080E08195EF019A2F8883C058DF4F98501F
S11315609830D0F788EF8A0F86958695869560E83F
S1131570869FE00DF11D1124E058FF4FA770AA23A8
S113158009F489C0B0E0AA5FBD4F8C910130110508
S113159029F038F002301105E1F07DC09081892BEB
S11315A003C0809590818923808375C088EF8A0F5A
S11315B086958695869570E8879FE00DF11D112428
S11315C0E058FF4FA77009F466C0B0E0AA5FBD4FB2
S11315D08C9190818927E8CF57FD5DC016968D9137
S11315E09C911797481759070CF055C0F7FF04C092
S11315F02E0F3F1FE0E0F0E014968D919C9115971B
S1131600BF01620F731F861797071CF49C012E1BE2
S11316103F0B121613060CF03EC0CA0157FD079685
S113162063E0959587956A95E1F79695982F8827B5
S113163097958795E80FF91FEA5EFD4F4770552788
S113164081E090E001C0880F4A95EAF7482F013005
S1131650110539F078F002301105E9F42E0F3F1F1F
S113166013C02E0F3F1FE217F307A9F08081842BCC
S11316708193F9CF80952E0F3F1FE217F30759F09E
S1131680908198239193F9CFE217F30721F0808199
S113169084278193F9CFDF91CF911F910F91089502
S11316A00F931F93CF93DF93DC0155968C9155973D
S11316B0823071F0833009F1813009F08CC01496C6
S11316C0ED91FC911597E41BF50BE21BF30B20C085
S11316D01496ED91FC911597CF01861B970BBC01D5
S11316E0615071091696ED91FC911797CF01841BF7
S11316F0950BAC01421B530B6EC01696ED91FC91F9
S11317001797CF01861B970BBC0161507109FA0131
S113171077FD1BC116968D919C91179768177907D1
S11317200CF013C1F7FF04C02E0F3F1FE0E0F0E000
S113173014968D919C911597AF01420F531F8417F6
S113174095071CF49C012E1B3F0B121613060CF07C
S1131750FCC0CB0177FD079643E0959587954A95A4
S1131760E1F79695982F882797958795E80FF91FA5
S1131770EA5EFD4F6770772781E090E001C0880F33
S11317806A95EAF7482F0130110541F088F00230DC
S1131790110509F0DAC02E0F3F1F15C02E0F3F1F91
S11317A0E217F30709F4D1C08081842B8193F8CF29
S11317B080952E0F3F1FE217F30709F4C6C09081EE
S11317C098239193F8CFE217F30709F4BEC0808100
S11317D084278193F8CF77FDB8C014968D919C919E
S11317E01597681779070CF0B0C057FF04C0240F91
S11317F0351F40E050E016968D919C911797FA01A1
S1131800E20FF31F8E179F071CF49C01241B350B5A
S1131810121613060CF099C0A22F842F8695869574
S1131820869590E8899F600D711D1124FB01EA5E85
S1131830FD4F4770A9F198E0941B492F50E0EA014D
S1131840C25FDD4F8881291790F4421B51092FEFA5
S113185030E002C0359527954A95E2F7822301309E
S1131860110541F068F00230110589F06EC00130B5
S1131870110519F42081822B0CC00130110520F4CC
S113188080952081822305C00230110531F4208126
S113189082278083A91708F458C0A91BE058FF4F7A
S11318A0A83048F10230110559F4EF018A2F9881CC
S11318B090959883C058DF4F88508830C0F730C067
S11318C081E00130110509F080E08195EF019A2F44
S11318D08883C058DF4F98509830D0F788EF8A0F2C
S11318E086958695869590E8899FE00DF11D1124D3
S11318F0E058FF4FA770AA2341F1B0E0AA5FBD4FA3
S11319008C910130110529F038F002301105D1F025
S11319101CC09081892B18C080959081892314C0A4
S113192088EF8A0F86958695869590E8899FE00DC5
S1131930F11D1124E058FF4FA77039F0B0E0AA5F01
S1131940BD4F8C91908189278083DF91CF911F9126
S11319500F910895CF92DF92EF92FF920F931F930E
S1131960CF93DF937C018B01EA01690177FD9DC070
S113197035DD081719070CF098C0D7FD96C0C701CC
S113198031DDC817D9070CF090C0C70124DD8230BF
S113199009F07FC0F70164817581CB01801B910B35
S11319A08C010150110946815781FA01EC1BFD0B92
S11319B0EF0121970BC0813049F4F70184819581AF
S11319C08C1B9D0BE8018C0101501109F1E0CF162D
S11319D0D10431F010F182E0C816D104E1F165C000
S11319E0FE01D7FD379643E0F595E7954A95E1F773
S11319F0F695FE2FEE27F795E7950E0F1F1FF801BA
S1131A00EA5EFD4FC770DD2781E090E001C0880FDA
S1131A10CA95EAF79081892B3AC0FE01D7FD379623
S1131A2023E0F595E7952A95E1F7F695FE2FEE2745
S1131A30F795E7950E0F1F1FF801EA5EFD4FC7707B
S1131A40DD2781E090E001C0880FCA95EAF7809510
S1131A50908189231CC0FE01D7FD379683E0F5955C
S1131A60E7958A95E1F7F695FE2FEE27F795E7952A
S1131A700E0F1F1FF801EA5EFD4FC770DD2781E0DE
S1131A8090E001C0880FCA95EAF790818927808386
S1131A900CC0833009F08FCFF70186819781801BBA
S1131AA0910B8E01EC01219791CFDF91CF911F9182
S1131AB00F91FF90EF90DF90CF9008951F93CF93F5
S1131AC0DF93EC01162F40E450E060E870E066D943
S1131AD087E796E0998388838FEF8C8F88A38E8F16
S1131AE08D8F1F8FDF91CF911F91089580E094E037
S1131AF0E6E1F2E0DF019C011D9221503040E1F764
S1131B000895FC0181A1882339F06EBD00000DB455
S1131B1007FEFDCF8EB5089528E030E090E8A4A13B
S1131B20B5A14C9183A5809584238C93A2A1B3A1E4
S1131B3082A5492F462319F04C91842B03C04C9164
S1131B40809584238C93A4A1B5A14C9183A5842B67
S1131B508C9396952150310911F708951F93CF93D3
S1131B60DF93EC01162F8C8D8F3F01F1EEA1FFA1C5
S1131B7090818CA5892B8083E8A5F9A590818DA5FA
S1131B80809589238083EEA1FFA190818CA5809507
S1131B9089238083CE01B5DFEEA1FFA190818CA5BE
S1131BA0892B8083DF91CF911F9108958A8D682FAF
S1131BB0880F770B89E99DE00E94052060E089E9A0
S1131BC09DE00E94B41F612F89E99DE00E94B41F2B
S1131BD089E99DE0DF91CF911F910C947A200F93B6
S1131BE01F93CF93DF93EC01162F022F6B8F4A8F35
S1131BF08C8D8F3F09F48CC061E08E8D0E94602B28
S1131C0061E088A10E94602B88A1082E000C990B2A
S1131C10FC01EA5EF84FE491F0E0EE0FFF1FEA5892
S1131C20F84F259134913FA32EA3FC01E053F94FC3
S1131C30E491ECA78E8D082E000C990BFC01EA5E52
S1131C40F84FE491F0E0EE0FFF1FEA58F84F2591AA
S1131C50349139A728A7FC01E053F94FE491EDA78B
S1131C6089A1811134C061E08C8D0E94602B61E0F8
S1131C708D8D0E94602B8D8D082E000C990BFC011C
S1131C80EA5EF84FE491F0E0EE0FFF1FEA58F84FD8
S1131C90259134913DA32CA3FC01E053F94FE49129
S1131CA0EBA78C8D082E000C990BFC01EA5EF84F13
S1131CB0E491F0E0EE0FFF1FEA58F84F25913491BC
S1131CC03BA32AA3FC01E053F94FE491EAA789A1BD
S1131CD0882311F10E94011D8091290D882399F018
S1131CE02FB7F8948091290D813059F48DB38093E6
S1131CF0270D9DB38091280D809589238DBB2FBF1F
S1131D0002C02093270D80E58CBD81E08DBD04C009
S1131D1089E99DE00E94F21F0023F1F08F8D87FD79
S1131D201BC061E00E94602B61E08F8D0E949C2BA0
S1131D3061E070E080E090E00E94652A60E08F8DB1
S1131D400E949C2B6AE070E080E090E00E94652A8B
S1131D5061E08F8D0E949C2B6EEACE01FFDE65ED63
S1131D60CE01FCDE60E8CE01F9DE68EACE01F6DEE3
S1131D706FE3CE01F3DE63EDCE01F0DE60E0CE0171
S1131D80EDDE60E4CE01EADE6DE8CE01E7DE11307F
S1131D9011F460E101C064E1CE01E0DE60E2CE0155
S1131DA0DDDE60E0CE01DADE61EACE01D7DE68EC8A
S1131DB0CE01D4DE6AEDCE01D1DE62E1CE01CEDE0B
S1131DC061E8CE01CBDE113011F46FE901C06FEC94
S1131DD0CE01C4DE69EDCE01C1DE113011F462E240
S1131DE001C061EFCE01BADE6BEDCE01B7DE60E477
S1131DF0CE01B4DE64EACE01B1DE66EACE01AEDE27
S1131E006EE2CE01ABDE6FEACE01DF91CF911F917E
S1131E100F91A4CEDF92EF92FF920F931F93CF9373
S1131E20DF93EC0161E29ADE60E0CE0197DE6FE7BA
S1131E30CE0194DE62E2CE0191DE60E0CE018EDE60
S1131E4067E0CE018BDE8C8D8F3F29F1EEA1FFA1DF
S1131E5090818CA5892B8083E8A5F9A590818DA517
S1131E60892B8083EEA1FFA190818CA58095892385
S1131E70808306E112E0F80161918F01CE0141DE19
S1131E80F6E006311F07B9F7EEA1FFA190818CA5FA
S1131E90892B808331C0D090B8008CE08093B80047
S1131EA006E112E06A8D062E000C770B89E99DE0AD
S1131EB00E94052060E489E99DE00E94B41FE12CA2
S1131EC0F12CF801EE0DFF1D608189E99DE00E946F
S1131ED0B41F8FEFE81AF80AE0E1EE16F10489F76F
S1131EE089E99DE00E947A20005F1F4FF6E00631E9
S1131EF01F07C1F6D092B800DF91CF911F910F91C7
S1131F00FF90EF90DF900895CF93DF93FC0188E07A
S1131F10DF01C82F1D92CA95E9F7DF011896ED017C
S1131F2019928A95E9F7148E158E168E178E10A2C3
S1131F3080E090E0A0E8BFE3808B918BA28BB38B11
S1131F40848B958BA68BB78B808F918FA28FB38F49
S1131F50DF91CF910895CF93DF93EA0170E089E98F
S1131F609DE00E9405206FE976E089E99DE00E94EA
S1131F7004284AE050E0BE0189E99DE00E94CE2891
S1131F8089E99DE0DF91CF910C947A20CF92DF9282
S1131F90EF92FF920F931F93CF93DF93EC016A01AB
S1131FA07901AB0161E0D7DFA60162E0CE01D3DFA6
S1131FB0A70163E0CE01CFDFA80164E0CE01DF9189
S1131FC0CF911F910F91FF90EF90DF90CF90C3CFEF
S1131FD04F925F926F927F92AF92BF92CF92DF92B5
S1131FE0EF92FF920F931F93CF93DF9300D01F9232
S1131FF0CDB7DEB729013A01E982FA820B831C834B
S113200070E089E99DE00E94052062EA76E089E9B2
S11320109DE00E94042822E030E0B301A20189E996
S11320209DE00E94D92966EA76E089E99DE00E9454
S1132030042822E030E049815A816B817C8189E95E
S11320409DE00E94D9296AEA76E089E99DE00E9430
S1132050042822E030E0B601A50189E99DE00E9450
S1132060D92989E99DE00E940C2889E99DE00F9017
S11320700F900F900F90DF91CF911F910F91FF90D0
S1132080EF90DF90CF90BF90AF907F906F905F9074
S11320904F900C947A20AF92BF92CF92DF92EF923E
S11320A0FF920F931F93CF93DF93EC01A88CB98C0D
S11320B0CA8CDB8CEC88FD880E891F8928893989B4
S11320C04A895B8961E084DFA88CB98CCA8CDB8C7B
S11320D0EC88FD880E891F89288939894A895B899A
S11320E062E0CE0175DFA88CB98CCA8CDB8CEC88DD
S11320F0FD880E891F89288939894A895B8963E0AB
S1132100CE0166DFA88CB98CCA8CDB8CEC88FD8888
S11321100E891F89288939894A895B8964E0CE013F
S113212057DFDF91CF911F910F91FF90EF90DF90D8
S1132130CF90BF90AF900895CF93DF931F92CDB708
S1132140DEB789E99DE069830E94F21F698170E02E
S113215041E050E089E99DE00E94782089E99DE012
S11321600E94591F892B39F089E99DE00F90DF9176
S1132170CF910C94611F0F90DF91CF910895AF928E
S1132180BF92CF92DF92EF92FF920F931F93CF9360
S1132190DF93EC0189E99DE00E94F21F6EEA76E08C
S11321A08BEE9DE00E941F2886E0A82EB12CC88CDF
S11321B0D98CEA8CFB8C0C891D892E893F8948892E
S11321C059896A897B89CE0166DF61EB76E08BEE03
S11321D09DE00E941F2861E0CE01AEDF6C0162E049
S11321E0CE01AADF7C0163E0CE01A6DF8C0164E0AE
S11321F0CE01A2DF9C0181E0C816D10469F482E01B
S1132200E816F10449F40330110531F424303105A2
S113221019F481E08C8F04C01C8ECA94CD2811F46B
S113222081E08D8F82E0E816F10411F481E08E8F55
S11322300330110511F481E08F8F2430310511F43E
S113224081E088A381E0A81AB10809F0B0CF65EB5A
S113225076E08BEE9DE0DF91CF911F910F91FF907F
S1132260EF90DF90CF90BF90AF900C941F2808950B
S113227026E040E052EC61E070E088E89EE00E94D5
S11322801C2669EB76E088E89EE00C941F28CF9228
S1132290DF92EF92FF920F931F93CF93DF936B0123
S11322A07A01E9016DEB76E088E89EE00E9404285B
S11322B04AE050E0B60188E89EE00E94C8286CE23B
S11322C088E89EE00E9405284AE050E0B70188E8CB
S11322D09EE00E94C8286CE288E89EE00E940528DF
S11322E04AE050E0BE0188E89EE00E94C8286CE203
S11322F088E89EE00E9405284AE050E0B80188E89A
S11323009EE0DF91CF911F910F91FF90EF90DF90AE
S1132310CF900C94CE284F925F926F927F928F92BF
S11323209F92AF92BF92CF92DF92EF92FF920F9360
S11323301F932A013B014801590165EC76E088E8C6
S11323409EE00E94042822E030E0B301A20188E864
S11323509EE00E94D9296CE288E89EE00E9405284C
S113236022E030E0B501A40188E89EE00E94D9296A
S11323706CE288E89EE00E94052822E030E0B70184
S1132380A60188E89EE01F910F91FF90EF90DF90E7
S1132390CF90BF90AF909F908F907F906F905F9001
S11323A04F900C94DA29CF93DF93EB016AEC76E03B
S11323B088E89EE00E940428BE0188E89EE0DF9140
S11323C0CF910C940F2825E030E0FC013183208369
S11323D0128208954F925F926F927F928F929F9292
S11323E0AF92BF92CF92DF92EF92FF920F931F931F
S11323F0CF93DF93EC012A013B01480159016BEEB5
S113240076E08BEE9DE00E94042867EF76E08BEE89
S11324109DE00E94042822E030E0B301A2018BEE8B
S11324209DE00E94D9296AEF76E08BEE9DE00E9440
S1132430042822E030E0B501A4018BEE9DE00E9467
S1132440D92967EC76E08BEE9DE00E94042822E017
S113245030E0B701A6018BEE9DE00E94D9296DEF13
S113246076E08BEE9DE00E941F286881798189E9DE
S11324709DE00E94052065EC76E089E99DE00E94DC
S1132480042867EF76E089E99DE00E94042822E0B1
S113249030E0B301A20189E99DE00E94D9296AEFE5
S11324A076E089E99DE00E94042822E030E0B5014D
S11324B0A40189E99DE00E94D92967EC76E089E9C5
S11324C09DE00E94042822E030E0B701A60189E9DA
S11324D09DE00E94D92962E077E089E99DE00E94AD
S11324E01F2889E99DE0DF91CF911F910F91FF9003
S11324F0EF90DF90CF90BF90AF909F908F907F90A0
S11325006F905F904F900C947A20089521E04CE3F3
S113251062E088E29CE063DB88E29CE07BDC68EEBE
S113252073E080E090E00E94652A88E29CE0DECAC5
S11325308F929F92AF92BF92CF92DF92EF92FF92CF
S11325400F931F93CF93DF93CDB7DEB74B016A018F
S11325505901EC88FD8861E088E29CE00E94DF0973
S113256061E070E088E29CE00E94E50940E050E010
S113257060E070E088E29CE00E94D90988E29CE077
S1132580B5DA6AE177E088E29CE00E9404280E94C0
S1132590342AAB01BC012AE030E088E29CE00E94CE
S11325A0E32848E050E060E070E088E29CE00E94AC
S11325B0D90960E277E088E29CE00E9404284AE0BE
S11325C050E0B40188E29CE00E94C82848E050E052
S11325D060E470E088E29CE00E94D90964E277E05C
S11325E088E29CE00E9404284AE050E0B50188E2B9
S11325F09CE00E94C82840E150E060E070E088E27E
S11326009CE00E94D90968E277E088E29CE00E949D
S113261004284AE050E0B60188E29CE00E94C82801
S113262040E150E060E470E088E29CE00E94D90957
S11326306CE277E088E29CE00E9404284AE050E0E3
S1132640B80188E29CE00E94C8284EE150E060E0B6
S113265070E088E29CE00E94D90960E377E088E2B8
S11326609CE00E940428B70188E29CE00E94F627BF
S113267088E29CE0DF91CF911F910F91FF90EF9042
S1132680DF90CF90BF90AF909F908F90C3CB64E0CA
S113269088E29CE013CA4F925F926F927F92AF924E
S11326A0BF92CF92DF92EF92FF920F931F93CF933B
S11326B0DF93EC015B01CA01B9012AA33BA34CA33C
S11326C05DA32BED3FE049E450E40E9452236C8764
S11326D07D878E879F87B9A2A8A2EEA2FFA208A732
S11326E019A7B601DD0C880B990B0E949E229B0151
S11326F0AC0160E070E080E090E40E94B52320E04B
S113270030E040E85FE30E949A216AA77BA78CA788
S11327109DA7DF91CF911F910F91FF90EF90DF90D4
S1132720CF90BF90AF907F906F905F904F9008953F
S11327302F923F924F925F926F927F928F929F92CD
S1132740AF92BF92CF92DF92EF92FF920F931F93BB
S1132750CF93DF93CDB7DEB760970FB6F894DEBFA3
S11327600FBECDBF1C01CB01BA014801590120E0C5
S113277030E040E752E40E94522369877A878B87CE
S11327809C87D1016D937D938D939C93139720E047
S113279030E040E752E4C501B4010E9452232B010A
S11327A03C01F101648375838683978320E030E0E4
S11327B040E752E4C701B6010E945223D1011896A2
S11327C06D937D938D939C931B9796962D913D913C
S11327D04D915C9199970E9452236D877E878F87D4
S11327E0988BF101608B718B828B938B848495849D
S11327F0A684B784A501940169857A858B859C8517
S11328000E9403226B017C01D10154966D937D9348
S11328108D939C935797A5019401C301B2010E9423
S113282003222B013C01F101608F718F828F938F02
S1132830A50194016D857E858F8598890E94032268
S11328404B015C01D1015C966D937D938D939C93B8
S11328505F97A3019201C701B6010E949A2169877B
S11328607A878B879C87A3019201C701B6010E94D6
S11328709B216B017C01A501940169857A858B8577
S11328809C850E949A210E946B22662E7A8369831A
S1132890A5019401C701B6010E949B210E946B22ED
S11328A0762E7C836B83A5019401C701B6010E9437
S11328B09A210E946B22F62E7E836D83A5019401DA
S11328C069857A858B859C850E949B210E946B2259
S11328D0862F262F372F38872F83262D3A81472D91
S11328E05C816F2D7E81988560960FB6F894DEBF6B
S11328F00FBECDBFDF91CF911F910F91FF90EF904D
S1132900DF90CF90BF90AF909F908F907F906F900B
S11329105F904F903F902F900895CF92DF92EF9267
S1132920FF92CF93DF93EC01072E000C880B990BD9
S11329300E949E226B017C0148A159A1BA01550F46
S1132940880B990B0E949E229B01AC01C701B60122
S11329500E9403222AA53BA54CA55DA50E945223F3
S11329600E946B22CB01DF91CF91FF90EF90DF901B
S1132970CF900895AF92BF92CF92DF92EF92FF92E1
S11329800F931F93CF93DF93CDB7DEB760970FB646
S1132990F894DEBF0FBECDBF5C01CADE29873A873B
S11329A04B875C876D877E878F87988B69857A854F
S11329B0C501B3DFF82EC92E6B857C85C501ADDF5B
S11329C0082FD92E6D857E85C501A7DF182FE92E26
S11329D06F857889C501A1DF2F2D3C2D402F5D2DFA
S11329E0612F7E2D60960FB6F894DEBF0FBECDBF6B
S11329F0DF91CF911F910F91FF90EF90DF90CF90D7
S1132A00BF90AF900895FC0182E0808383E08183CE
S1132A1084E0828385E083831582148281E090E0E0
S1132A209783868311861086938782870895FC0195
S1132A3080E090E0A6E1B5E480839183A283B38330
S1132A4014821582168217821086118612861386C6
S1132A501486158616861786108A118A128A138A96
S1132A60148A158A168A178A089508950895FC0110
S1132A7011821082128213821482158216821782A6
S1132A801086118612868FE790E094878387968755
S1132A908587908B8787928B818B6AE17CE0CF015D
S1132AA043960C94712CCF92EF920F93CF93DF93B4
S1132AB0EC0126E040E052EC61E070E08BEE9DE03A
S1132AC00E941C266CE271E080E090E00E94652A7E
S1132AD0C12CE12C0DE02AE04BE06CE086E59CE0A3
S1132AE08DD4282F30E0398328832115310569F5E9
S1132AF065E377E08BEE9DE00E9404286EE577E0C5
S1132B008BEE9DE00E9404286BE677E08BEE9DE05F
S1132B100E941F2861E777E08BEE9DE00E94042865
S1132B206BE677E08BEE9DE00E941F286BE777E071
S1132B308BEE9DE00E941F286FEC77E08BEE9DE00A
S1132B400E941F2868E078E011C02130310519F493
S1132B5068E478E00BC02230310519F46EEB78E0BC
S1132B6005C02330310531F46EE379E08BEE9DE04E
S1132B700E941F2886E59CE043D28A83813059F065
S1132B8038F0823059F08330A1F46CEB79E008C05E
S1132B9060E879E005C06AEC79E002C06FE979E0A9
S1132BA08BEE9DE0DF91CF910F91EF90CF900C943D
S1132BB00428DF91CF910F91EF90CF900895CF9398
S1132BC0DF93FC012281223009F4B5C1EC01438179
S1132BD060E086E59CE011D368E070E086E59CE067
S1132BE0FED1882361F066EE79E08BEE9DE00E94D1
S1132BF01F2866EE79E0CE0143960E94A22C61E084
S1132C0070E086E59CE0EBD1882361F06AEF79E01F
S1132C108BEE9DE00E941F286AEF79E0CE01439677
S1132C200E94A22C60E170E086E59CE0D8D1882364
S1132C30C9F06FE07AE08BEE9DE00E9404286BE01F
S1132C4086E59CE0D8D14AE050E0682F8BEE9DE009
S1132C500E94F52881E08C8363E27AE0CE014396FA
S1132C600E94A22C60E270E086E59CE0B8D1882343
S1132C70C9F064E37AE08BEE9DE00E94042869E0E9
S1132C8086E59CE0B8D14AE050E0682F8BEE9DE0E9
S1132C900E94F52881E08F836BE47AE0CE014396AD
S1132CA00E94A22C60E870E086E59CE098D188231D
S1132CB0C9F06FE57AE08BEE9DE00E9404286AE09B
S1132CC086E59CE098D14AE050E0682F8BEE9DE0C9
S1132CD00E94F52881E08E8365E77AE0CE01439671
S1132CE00E94A22C60E470E086E59CE078D1882301
S1132CF0C9F068E87AE08BEE9DE00E9404286CE05D
S1132D0086E59CE078D14AE050E0682F8BEE9DE0A8
S1132D100E94F52881E08D836EE97AE0CE01439626
S1132D200E94A22C6FE086E59CE065D18B8386E54A
S1132D309CE004D1882309F45FC062E070E086E57A
S1132D409CE04DD1882361F061EB7AE08BEE9DE04D
S1132D500E941F286CEB7AE0CE0143960E94A22CBD
S1132D6064E070E086E59CE03AD1882361F06DEC84
S1132D707AE08BEE9DE00E941F2868ED7AE0CE0198
S1132D8043960E94A22C60E071E086E59CE027D186
S1132D90882361F069EE7AE08BEE9DE00E941F28A3
S1132DA064EF7AE0CE0143960E94A22C60E072E0C8
S1132DB086E59CE014D1882361F065E07BE08BEE2E
S1132DC09DE00E941F2860E17BE0CE0143960E94B3
S1132DD0A22C60E070E186E59CE001D1882361F0DB
S1132DE061E27BE08BEE9DE00E941F2862E37BE0C2
S1132DF0CE0143960E94A22C60E070E286E59CE03E
S1132E00B6D0882371F069E47BE08BEE9DE00E94EC
S1132E101F2881E089876DE57BE0CE0143960E94FF
S1132E20A22C60E070E486E59CE093D0882371F0E6
S1132E3062E77BE08BEE9DE00E941F2881E08A8799
S1132E4061E87BE0CE0143960E94A22C60E070E82A
S1132E5086E59CE0A8D0882371F061E97BE08BEEE5
S1132E609DE00E941F2881E0898766EA7BE0CE010D
S1132E7043960E94A22C6BEB7BE08BEE9DE00E94BC
S1132E80042868E086E59CE0B6D04AE050E0682F6C
S1132E908BEE9DE00E94EF2868E086E59CE0ABD0D5
S1132EA090E09C878B8769EC7BE08BEE9DE00E9431
S1132EB0042867E086E59CE09ED04AE050E0682F55
S1132EC08BEE9DE00E94EF2867E086E59CE093D0BE
S1132ED090E09E878D8769EC7BE08BEE9DE00E94FD
S1132EE0042866E086E59CE086D04AE050E0682F3E
S1132EF08BEE9DE00E94EF2866E086E59CE07BD0A7
S1132F0090E0988B8F8769EC7BE08BEE9DE00E94CC
S1132F10042865E086E59CE06ED04AE050E0682F26
S1132F208BEE9DE00E94F52865E086E59CE063D089
S1132F3090E09A8B898BDF91CF910895FC0181E019
S1132F4046895789208D318D4217530709F480E053
S1132F500895FC01208D318D8689978982279327D6
S1132F606823792381E0672B09F480E00895DC016C
S1132F705896ED91FC915997AF0140955095462391
S1132F80572391E0452B09F490E056962D913C91FE
S1132F9057972E273F276223732381E0672B09F479
S1132FA080E089230895DC015696ED91FC915797B2
S1132FB0AF01409550954623572391E0452B09F4E2
S1132FC090E058962D913C9159972E273F276223E4
S1132FD0732381E0672B09F480E089230895FC01C1
S1132FE0808D918D809590956823792381E0672B5E
S1132FF009F480E00895860F911DFC0180810895F5
S1133000FC0183A5833031F0813031F08C3031F014
S113301080E0089581E0089582E0089583E00895B2
S1133020DC019FB7F8945B96ED91FC915C9720814D
S11330305A968C91822B80839FBF0895DC019FB7A1
S1133040F8945E96ED91FC915F9720815D968C914A
S1133050822B80839FBF08958F929F92AF92BF92DD
S1133060CF92DF92EF92FF920F931F93CF93DF9350
S1133070EC0100E010E0F12CC62ED12C812C912C17
S113308054018394E02EC601002E02C095958795C5
S11330900A94E2F780FF03C0CE01D0DF0AC02FB745
S11330A0F894EE8DFF8D90818D8D8095892380839A
S11330B02FBF2FB7F894EB8DFC8D90818A8D80956E
S11330C0892380832FBF84E090E00E949E2AECA194
S11330D0FDA190818BA1892351F0D501C40104C0C5
S11330E0880F991FAA1FBB1FEA94D2F7F82ACE01B2
S11330F097DF0F5F1F4F0830110509F0C3CFCE01D2
S11331009DDF83E090E00E949E2A8F2DDF91CF9176
S11331101F910F91FF90EF90DF90CF90BF90AF90F1
S11331209F908F900895DC019FB7F8949196ED914C
S1133130FC919297208190968C91822B80839FBFE3
S11331400895DC012FB7F8949196ED91FC91929734
S1133150908190968C918095892380832FBF0895C8
S1133160CF92DF92EF92FF920F931F93CF93DF934F
S1133170EC016B01042FE5DF760110E0C7018C1927
S11331809D098017910734F4F70161917F01CE0105
S113319063DFF4CFCE01C7DF6AA570E080E090E082
S11331A0DF91CF911F910F91FF90EF90DF90CF901F
S11331B00C94652ACF93DF93EC0145E066E376E057
S11331C0CFDF49E06DE276E0CE01CADF8CA588232B
S11331D029F045E066E176E0CE01C2DF8DA58823C3
S11331E029F049E064E276E0CE01BADF49E06BE120
S11331F076E0CE01DF91CF91B3CF2F923F924F92E1
S11332005F926F927F928F929F92AF92BF92CF9272
S1133210DF92EF92FF920F931F93CF93DF93CDB77B
S1133220DEB729970FB6F894DEBF0FBECDBF4C01B1
S1133230762E142F0E94342AF401C6A0D7A0E0A44D
S1133240F1A46C197D098E099F090E949C226B01CF
S11332507C0120E030E84BEB54E40E944E23181626
S113326014F4C401A7DFF40162A570E080E090E0EB
S11332700E949E221B012C019B01AC01C701B601D7
S11332800E94FF2187FF0AC0A7019601C201B10174
S11332900E949A210E9470220E94652A1123E1F063
S11332A0612F70E080E090E01F921F921F922FEF39
S11332B02F9320E4A22EB12CC12CD12CE12CF12C83
S11332C08701EA9420E030E0A9010E94CB2B162F5D
S11332D00F900F900F900F90CE0101967C0189E022
S11332E0F70111928A95E9F781E0898382E48A8360
S11332F07C821D8385E0382E8E01065F1F4F64019A
S1133300F9E0CF0ED11C540185E1A80EB11CC40113
S113331095DEC40185DEC40114DF83E090E00E94E1
S11333209E2A27013401F20161912F01C40194DE28
S1133330F30181933F0140165106A9F7F4018181FD
S1133340893741F0C401EFDEF4018181807F803749
S113335061F417C0360160E0C4017EDEF30181939D
S11333603F01EA15FB05B9F7EDCFC40123DFF401F2
S113337062A570E080E090E00E94652A3A943110E2
S1133380C6CFF4018181807F803731F0F40182A5BA
S11333908A3010F48F5F82A7F401808D918D978B12
S11333A0868B83819481918F808F0E94342AF401CB
S11333B066A377A380A791A79181907F81E090373E
S11333C009F080E029960FB6F894DEBF0FBECDBF9A
S11333D0DF91CF911F910F91FF90EF90DF90CF90ED
S11333E0BF90AF909F908F907F906F905F904F9021
S11333F03F902F90089540E060E0FFCE6F927F925F
S11334008F929F92AF92BF92CF92EF92FF920F93BF
S11334101F93CF93DF93CDB7DEB72B970FB6F894F6
S1133420DEBF0FBECDBF5C01862F70E0FB01E05311
S1133430F94FE491D5015A96EC935A97FB01EA5E51
S1133440F84FE491F0E0EE0FFF1FEA58F84F659152
S11334507491F501748F638F642F70E0FB01E05366
S1133460F94FE4915D96EC935D97FB01EA5EF84FAA
S1133470E491F0E0EE0FFF1FEA58F84F6591749164
S1133480F501778F668F622F70E0FB01E053F94FEF
S1133490E4919096EC93FB01EA5EF84FE491F0E03E
S11334A0EE0FFF1FEA58F84F65917491F50172A36E
S11334B061A3A02FB0E0FD01E053F94F9491F50111
S11334C093A3FD01EA5EF84FE491F0E0EE0FFF1FD5
S11334D0E45AF84F65917491D50195967C936E9357
S11334E0949761E02A874B870E94602B61E02A85CC
S11334F0822F0E94602B61E04B85842F0E94602BF9
S113350060E0802F0E94602B61E0802F0E949C2B42
S1133510C50194DDC50184DDC5016DDFC5016BDF27
S1133520F5018181813429F0833719F0893709F055
S113353065C081E0D5019A968C938BE0882E912CFE
S1133540FF24F39445E066E376E0C50109DE83E0F9
S113355090E00E949E2AC50171DDC50161DDC501AF
S1133560F0DD83E090E00E949E2A0BEC1BE0CE018C
S113357001963C01F80161918F01C5016DDDD30114
S11335808D933D01BBE0043D1B07A1F7C501CBDDD5
S11335908C81F50183A749E06DE276E0C501E0DDA9
S11335A0CC2041F045E066E176E0C501D9DDD501E6
S11335B09C96FC92EE2039F049E064E276E0C50185
S11335C0CFDDF501F5A649E06BE176E0C501C8DD84
S11335D0C50111DFD50111968C91EE2021F08937B8
S11335E089F0833769F0833769F0B1E08B1A910869
S11335F059F0F50182A58F5F82A7A4CF81E005C0B1
S113360083E003C080E001C082E02B960FB6F894FB
S1133610DEBF0FBECDBFDF91CF911F910F91FF9001
S1133620EF90CF90BF90AF909F908F907F906F90CE
S113363008958DE09DE01ACACF93DF9300D000D0A7
S1133640CDB7DEB726E040E855E260E070E08BEEEF
S11336509DE00E941C2660E072EC85E29DE00E94E1
S1133660381186E29DE00E9486128DE09DE0FDD92E
S11336708AE89CE00E94BF1064ED7BE0CE010196D5
S11336800E94712C44E150E0BE016F5F7F4F8CEDCE
S11336909CE0AFD5CE0101960E940A2C69E17BE142
S11336A08CED9CE015D688EE9CE0FDD926960FB6ED
S11336B0F894DEBF0FBECDBFDF91CF9108952F9256
S11336C03F924F925F926F927F928F929F92AF92AE
S11336D0BF92CF92DF92EF92FF920F931F93CF93FB
S11336E0DF93CDB7DEB762970FB6F894DEBF0FBE97
S11336F0CDBF88EE9CE063DA8091F20C882329F137
S1133700C090150DD090160DE090170DF090180D87
S11337100091110D1091120D2091130D3091140D83
S113372040910D0D50910E0D60910F0D7091100D83
S113373089ED9CE00E94EA1168ED7BE084E89CE05E
S11337400E94A22C1092F20C06C062EE7BE084E888
S11337509CE00E94A22C6091F70C7091F80C072E4B
S1133760000C880B990B1F921F9221E02F9324EFDA
S11337702F932CE0A22E2EEFB22ECC24CA94DC2C54
S1133780E12CF12C8701EA9420E030E0A9010E94A9
S1133790CB2B2B013C018091F50C9091F60CBC01D4
S11337A0990F880B990B1F921F922CE02F9324E4FE
S11337B02F934CEBA42E43EFB42ECC24CA94DC2CD0
S11337C020E030E0A9010E94CB2B58EE852E53E077
S11337D0952EA12CB12CA50194010E941D2DCA0186
S11337E0B901ACD66B017C01C301B201A5019401FE
S11337F00E941D2DCA01B901A1D6AB01BC0100E094
S113380010E098018BEA9CE0B5D829833A834B8376
S11338105C836D837E838F83988789819A819A8B59
S1133820898B8B819C81988B8F872D803E804F80E4
S1133830588482019101AC0169897A898AE89CE003
S11338400E94C60F00910B0D10910C0D2091090DD3
S113385030910A0D4091070D5091080D6091050DAE
S11338607091060D85E29DE00E944711C090150DF0
S1133870D090160DE090170DF090180D0091110DD9
S11338801091120D2091130D3091140D40910D0DD6
S113389050910E0D60910F0D7091100D85E29DE019
S11338A00E948B113E0199E0690E711C64E87CE072
S11338B0C3010E949A2CB30185E29DE00E94D311BA
S11338C0C3010E940A2C6BEF7CE0C3010E949A2C76
S11338D08090110D9090120DA090130DB090140DC6
S11338E0C0900D0DD0900E0DE0900F0DF090100DC6
S11338F07F926F928091180D8F938091170D8F9303
S11339008091160D8F938091150D8F9382019101F3
S11339104F85588969897A8986E29DE00E949812C8
S1133920C3010E940A2C62E370E080E090E00E94F0
S1133930652A0FB6F894DEBF0FBECDBF62960FB6F0
S1133940F894DEBF0FBECDBFDF91CF911F910F91D1
S1133950FF90EF90DF90CF90BF90AF909F908F90AB
S11339607F906F905F904F903F902F900895CF92EB
S1133970DF92EF92FF920F931F9386E29DE00E94E5
S1133980851285E29DE00E9437118DE09DE04FD8BD
S113399081E09DE038D888EE9CE069D88CED9CE00D
S11339A013D489ED9CE00E94E31188E0C82ED12C49
S11339B0E12CF12C00E01FE326E933E44BE85DE35E
S11339C06CE271E08BEA9CE00E944B138AE89CE075
S11339D00E94840F6EEE7BE084E89CE01F910F91BF
S11339E0FF90EF90DF90CF900C94712C84E89CE0D2
S11339F00E940A2C8CED9CE070D48BEF9CE00C941C
S1133A000A2CCF93CFB7F89480912A0D811127C047
S1133A10EBE4F7E08491E5E0F7E09491E82FF0E03F
S1133A20EE0FFF1FE057F84FA591B491EC91E923F5
S1133A3021F461E085E30E949C2B61E085E30E9410
S1133A40602B8CB580618CBD8CB580648CBD61E0CD
S1133A5084E30E94602B61E083E30E94602B8091E9
S1133A602A0D8F5F80932A0DCFBFCF9108951092B6
S1133A70980D81E08093960D1092950D61E084E19C
S1133A800E949C2B61E085E10E949C2BE9EBF0E015
S1133A9080818E7F808380818D7F808388E4809382
S1133AA0B80085E48093BC000895413208F043C017
S1133AB09091980D9111FCCF91E09093980D2093E3
S1133AC0960D2FEF20932B0D1092700D240F209341
S1133AD06F0D9093970D9091970D880F892B80937C
S1133AE0970D8091950D813061F41092950D809120
S1133AF0970D8093BB008091BC0083FDF8CF85ECCB
S1133B0001C085EE8093BC008091980D8130E1F373
S1133B108091700D841710F44091700D21E73DE001
S1133B20FB01D9018A2F821B841718F48D9181938C
S1133B30F9CF842F089580E008950F93413208F05F
S1133B404AC09091980D9111FCCF32E03093980DBA
S1133B500093960D3FEF30932B0D1092700D409310
S1133B606F0DFB0161E77DE0DB013A2F361B341753
S1133B7018F431913D93F9CF1092970D3091970D30
S1133B80880F832B8093970D8091950D813061F47C
S1133B901092950D8091970D8093BB008091BC008D
S1133BA083FDF8CF85EC01C085EE8093BC00222311
S1133BB021F08091980D8230D1F380912B0D8F3FAD
S1133BC079F080912B0D803241F080912B0D803360
S1133BD031F094E005C091E003C092E001C093E0AD
S1133BE0892F0F91089540914D0D262F30E0240F19
S1133BF0311D21323105DCF42091980D2430C9F4B3
S1133C00FC0180E090E0861758F430914D0D21912D
S1133C10DC01A15BB24FA30FB11D2C930196F3CF2E
S1133C2080914D0D680F60934D0D80E0089581E003
S1133C30089582E0089585ED8093BC008091BC00D6
S1133C4084FDFCCF1092980D089585EC8093BC0000
S1133C501092980D08951F920F920FB60F9211248F
S1133C600BB60F922F933F934F935F936F937F9372
S1133C708F939F93AF93BF93EF93FF938091B9007A
S1133C80887F803609F49DC070F5883209F45CC0E1
S1133C9090F4803109F455C038F4882309F4F3C052
S1133CA0883009F44EC0F2C0883109F44DC0803226
S1133CB009F45EC0EBC0803409F469C050F4803369
S1133CC009F456C0883309F0E1C080932B0DBDDFA1
S1133CD0DDC0803509F44FC0883509F45DC08834EF
S1133CE009F0D4C0D2C0883909F4C3C0A8F4883715
S1133CF009F467C038F4883609F463C0803709F4DE
S1133D0060C0C4C0883809F4B4C0803909F45FC005
S1133D10803809F0BBC05BC0803B09F482C038F432
S1133D20803A09F466C0883A09F47BC0AFC0803C8D
S1133D3009F4A3C0883C09F4A0C0883B09F486C0F8
S1133D40A5C08091970D10C09091700D80916F0D5A
S1133D50981770F5E091700D81E08E0F8093700DCF
S1133D60F0E0EF58F24F80818093BB0085EC82C075
S1133D7080932B0D8AC0E091700D81E08E0F8093AB
S1133D80700D8091BB00F0E0EF58F24F808390916A
S1133D90700D80916F0D6AC0E091700D81E08E0FFF
S1133DA08093700D8091BB00F0E0EF58F24F808358
S1133DB08091960D811169C081E08093950D84EA0C
S1133DC05DC083E08093980D10922C0DCFCF80912D
S1133DD02C0D803208F04DC0E0912C0D81E08E0F47
S1133DE080932C0D8091BB00F0E0E35DF24F808363
S1133DF0BDCF2BDF80912C0D803230F4E0912C0D5F
S1133E00F0E0E35DF24F108260912C0D70E0E091E0
S1133E10910DF091920D8DE29DE0199510922C0D6B
S1133E2035C084E08093980D10924E0D10924D0D84
S1133E30E091930DF091940D199580914D0D8111A0
S1133E4005C081E080934D0D10924F0DE0914E0D11
S1133E5081E08E0F80934E0DF0E0E15BF24F8081A4
S1133E608093BB0090914E0D80914D0D981708F4EE
S1133E707DCF85E88093BC0009C085EC8093BC00AD
S1133E801092980D03C010922B0DD5DEFF91EF9187
S1133E90BF91AF919F918F917F916F915F914F915E
S1133EA03F912F910F900BBE0F900FBE0F901F905C
S1133EB018958091C90D90E02091CA0D821B91093B
S1133EC008959091CA0D8091C90D981750F4E92F67
S1133ED0F0E0E553F24F208130E09F5F9093CA0DEC
S1133EE002C02FEF3FEFC9010895E091CA0D809100
S1133EF0C90DE81730F4F0E0E553F24F808190E00B
S1133F0008958FEF9FEF08950895CF92DF92EF9277
S1133F10FF920F931F93CF93DF937C01262F972F4C
S1133F208A018091A50D882391F0C62FD72F6E01A9
S1133F30C40ED51ECC15DD0569F06991D701ED914C
S1133F40FC910190F081E02DC7011995F3CF642F06
S1133F50822F49DEC801DF91CF911F910F91FF900D
S1133F60EF90DF90CF900895CF93DF931F92CDB75A
S1133F70DEB769832091A50D2223D1F02091A60DEF
S1133F80203240F021E030E0FC013383228380E0E2
S1133F9090E014C08091A70DE82FF0E0E855F24FAF
S1133FA0998190838F5F8093A70D8093A60D04C0A1
S1133FB061E0CE01019617DE81E090E00F90DF9181
S1133FC0CF910895FC011382128288EE93E0A0E061
S1133FD0B0E084839583A683B78388EF9BE09183C5
S1133FE0808308951092CA0D1092C90D1092A70DE6
S1133FF01092A60D3CCD81E08093A50D6093C80D71
S11340001092A70D1092A60D0895F5CF0F93062FC9
S113401021E04091A60D68EA7DE08091C80D8DDD18
S11340201092A70D1092A60D1092A50D0F91089550
S11340304F925F926F927F92AF92BF92CF92EF9224
S1134040FF920F931F93CF93DF935C01F62ED42F2F
S113405028013901EE2011F1CEDFCE2DC43008F055
S1134060C3E0C150C0F0D501ED91FC91B8E0CB9F05
S1134070C0011124A301920104C0569547953795B8
S113408027958A95D2F7CA01B9010190F081E02DF4
S1134090C5011995E6CF60E0C501B8DF4D2FD132D7
S11340A008F040E22C2D6BEC7DE08F2DFEDC1092AD
S11340B0CA0D8093C90DDF91CF911F910F91FF908D
S11340C0EF90CF90BF90AF907F906F905F904F90A4
S11340D00895CF92EF920F931F93C22EE12C00E02C
S11340E010E09801A5DF1F910F91EF90CF900895F4
S11340F021E0EFCF61E08ACF89E99DE063CF0895A5
S11341004F925F926F927F92AF92BF92CF92DF9263
S1134110EF92FF920F931F93CF93DF93CDB7DEB748
S11341202A970FB6F894DEBF0FBECDBF7C015B01AA
S11341308AE0EDE3F6E0DE01119601900D928A9596
S1134140E1F7CE0101966C0100E010E030E8432E67
S11341503EE3532E612C712CF601619171916F0134
S1134160CB01770FAA0BBB0B77276627A30192011C
S11341700E941D2DA216B3062CF00F5F1F4F0530B1
S1134180110551F7F70131872087000F111FE1E076
S1134190F0E0EC0FFD1FE00FF11F808191812A9662
S11341A00FB6F894DEBF0FBECDBFDF91CF911F9144
S11341B00F91FF90EF90DF90CF90BF90AF907F90E2
S11341C06F905F904F900895CF93DF93EC016AE175
S11341D07CE00E94712C81E090E09F838E8319869D
S11341E018861B861A868FB780688FBFDF91CF91A0
S11341F00895EF92FF920F931F93CF93DF93EC01F7
S11342007B018A010E94852CB801CE0179DF9F834E
S11342108E83C7010E94D52C64ED7BE0C7010E9408
S1134220B72C882309F44DC01092800010928100AD
S113423088E0809381008E819F81019729F4809189
S113424081008160809381008E819F81089729F489
S1134250809181008260809381008E819F8180346F
S1134260910529F4809181008360809381008E817F
S11342709F818115914029F480918100846080930D
S113428081008E819F818115944029F48091810061
S113429085608093810020E83EE3D8010E94502D80
S11342A02E813F81032E000C440B550B0E941D2DC3
S11342B03B872A87309389002093880082E080938B
S11342C06F00DF91CF911F910F91FF90EF900895B0
S11342D070933C0660933B0608950C940A2C1F923D
S11342E00F920FB60F9211240BB60F922F933F9398
S11342F04F935F936F937F938F939F93AF93BF93EA
S1134300EF93FF93E0913B06F0913C061995FF91E2
S1134310EF91BF91AF919F918F917F916F915F9139
S11343204F913F912F910F900BBE0F900FBE0F90A6
S11343301F9018955058BB27AA270ED075C166D177
S113434030F06BD120F031F49F3F11F41EF45BC1C7
S11343500EF4E095E7FB51C1E92F77D180F3BA174A
S1134360620773078407950718F071F49EF58FC1EF
S11343700EF4E0950B2EBA2FA02D0B01B90190017C
S11343800C01CA01A0011124FF27591B99F0593FC0
S113439050F4503E68F11A16F040A22F232F342F08
S11343A04427585FF3CF469537952795A795F04056
S11343B05395C9F77EF41F16BA0B620B730B840B6B
S11343C0BAF09150A1F0FF0FBB1F661F771F881F23
S11343D0C2F70EC0BA0F621F731F841F48F487957B
S11343E077956795B795F7959E3F08F0B3CF93956A
S11343F0880F08F09927EE0F979587950895D9D0DF
S113440008F481E008950CD00FC107D140F0FED02C
S113441030F021F45F3F19F0F0C0511139C1F3C0FD
S113442014D198F39923C9F35523B1F3951B550B74
S1134430BB27AA2762177307840738F09F5F5F4F73
S1134440220F331F441FAA1FA9F333D00E2E3AF0B4
S1134450E0E830D091505040E695001CCAF729D0CE
S1134460FE2F27D0660F771F881FBB1F261737071D
S11344704807AB07B0E809F0BB0B802DBF01FF274D
S113448093585F4F2AF09E3F510568F0B6C000C1B3
S11344905F3FECF3983EDCF3869577956795B79587
S11344A0F7959F5FC9F7880F911D9695879597F9A2
S11344B00895E1E0660F771F881FBB1F621773071B
S11344C08407BA0720F0621B730B840BBA0BEE1F30
S11344D088F7E095089504D06894B111D9C008957F
S11344E0BCD088F09F5790F0B92F9927B751A0F00E
S11344F0D1F0660F771F881F991F1AF0BA95C9F774
S113450012C0B13081F0C3D0B1E00895C0C0672FAC
S1134510782F8827B85F39F0B93FCCF38695779523
S11345206795B395D9F73EF490958095709561950C
S11345307F4F8F4F9F4F0895E89409C097FB3EF437
S113454090958095709561957F4F8F4F9F4F9923DC
S1134550A9F0F92F96E9BB279395F695879577955A
S11345606795B795F111F8CFFAF4BB0F11F460FF1A
S11345701BC06F5F7F4F8F4F9F4F16C0882311F072
S113458096E911C0772321F09EE8872F762F05C086
S1134590662371F096E8862F70E060E02AF09A9521
S11345A0660F771F881FDAF7880F9695879597F916
S11345B00895990F0008550FAA0BE0E8FEEF1616B0
S11345C01706E807F907C0F012161306E407F50703
S11345D098F0621B730B840B950B39F40A2661F077
S11345E0232B242B252B21F408950A2609F4A1401A
S11345F0A6958FEF811D811D089597F99F6780E827
S113460070E060E008959FEF80EC089500240A9420
S11346101616170618060906089500240A94121699
S11346201306140605060895092E0394000C11F4CC
S1134630882352F0BB0F40F4BF2B11F460FF04C079
S11346406F5F7F4F8F4F9F4F089557FD9058440FD2
S1134650551F59F05F3F71F04795880F97FB991FDD
S113466061F09F3F79F0879508951216130614069A
S1134670551FF2CF4695F1DF08C016161706180627
S1134680991FF1CF86957105610508940895E89402
S1134690BB2766277727CB0197F908958ADF08F4AB
S11346A08FEF08950BD0C0CFB1DF28F0B6DF18F03C
S11346B0952309F0A2CFA7CF1124EACFC6DFA0F338
S11346C0959FD1F3950F50E0551F629FF001729FA3
S11346D0BB27F00DB11D639FAA27F00DB11DAA1FC2
S11346E0649F6627B00DA11D661F829F2227B00D0F
S11346F0A11D621F739FB00DA11D621F839FA00D9A
S1134700611D221F749F3327A00D611D231F849FE9
S1134710600D211D822F762F6A2F11249F57504040
S11347208AF0E1F088234AF0EE0FFF1FBB1F661FDB
S1134730771F881F91505040A9F79E3F510570F094
S11347405CCFA6CF5F3FECF3983EDCF3869577957C
S11347506795B795F795E7959F5FC1F7FE2B880F8F
S1134760911D9695879597F90895FA01EE0FFF1F0D
S113477030962105310599F16115710561F4803890
S1134780BFE39B0749F168949038810561F0803854
S1134790BFEF9B0741F0992342F5FF3FE105310547
S11347A0210511F1E8940894E795D901AA2329F485
S11347B0AB2FBE2FF85FD0F310C0FF5F70F4A69547
S11347C0E0F7F73950F019F0FF3A38F49F779F93E8
S11347D00CD00F9007FC905808953EF014CF60E081
S11347E070E080E89FE308954FE79F775F934F93CE
S11347F03F932F939ED02F913F914F915F9152DF22
S113480005C019F40EF0F9CE42CFFDCE26DFC8F371
S11348109638C0F707F80F92E8942BE33AEA48EB8E
S11348205FE74EDF0F920F920F924DB75EB70F9274
S1134830C0D0E4EEF0E016D04F915F91EF91FF917C
S1134840E595EE1FFF1F49F0FE57E0684427EE0F81
S1134850441FFA95E1F74195550B32D00F9007FEAE
S113486026C00895DF93CF931F930F93FF92EF9287
S1134870DF927B018C01689405C0DA2EEF011EDF04
S1134880FE01E894A5912591359145915591AEF39A
S1134890EF0162DDFE019701A801DA9479F7DF9058
S11348A0EF90FF900F911F91CF91DF9108959B019D
S11348B0AC0160E070E080E89FE3A5CD9ECEACC083
S11348C0CCDEE8F39923D9F3940F511DBBF3915037
S11348D0504094F059F0882332F0660F771F881FF8
S11348E091505040C1F79E3F510544F7880F911DE8
S11348F09695879597F908955F3FACF0983E9CF0A4
S1134900BB27869577956795B79508F4B16093951D
S1134910C1F7BB0F58F711F460FFE8CF6F5F7F4F0B
S11349208F4F9F4FE3CFB4CE0EF076C06CCE689419
S113493064CE93DEC8F39923D1F3C6F3DF93CF9308
S11349401F930F93FF92C92FDD2788232AF0219705
S1134950660F771F881FDAF720E030E040E85FEB4E
S11349609FE3883920F0803E30F021968F77E3DC96
S1134970ECE0F1E003C0DFDCE9E3F1E073DF8B019D
S1134980BE01EC01FB2E6F5771097595771F880BDB
S1134990990BD4DD28E132E741E35FE38FDEAF2DED
S11349A09801AE01FF900F911F91CF91DF91D4DC5C
S11349B03BCEFA01DC01AA0FBB1F9B01AC01BF5720
S11349C028F422273327442750781FC0B75188F48E
S11349D0AB2F0024469537952795011CA395D2F358
S11349E0002069F0220F331F441FB395DAF30DD072
S11349F0A1CC61307105A0E88A07B94630F49B0167
S1134A00AC016627772788279078309621F0208399
S1134A1031834283538308959F3F31F0915020F4B2
S1134A20879577956795B795880F911D9695879586
S1134A3097F908950E94712FFC01918D228D892F81
S1134A4090E0805C9F4F821B91098F739927089592
S1134A50FC01918D828D981731F0828DE80FF11D44
S1134A60858D90E008958FEF9FEF0895FC01918D5F
S1134A70828D981761F0828DDF01A80FB11D5D96BC
S1134A808C91928D9F5F9F73928F90E008958FEF2A
S1134A909FEF0895FC01538D448D252F30E0842F22
S1134AA090E0821B930B541710F0CF960895019752
S1134AB008958EED96E2892B39F080E090E0892B01
S1134AC019F07CD1811124C083E797E2892B39F056
S1134AD080E090E0892B19F006D281111CC080E09F
S1134AE090E0892B41F080E090E0892B21F00E9436
S1134AF00000811113C080E090E0892BA1F080E0D8
S1134B0090E0892B81F00E94000081110AC0089571
S1134B100E940000D9CF0E940000E1CF0E94000053
S1134B20EACF0C9400000895FC01848DDF01A80FE6
S1134B30B11DA35ABF4F2C91848D90E001968F73C1
S1134B409927848FA689B7892C93A089B1898C91E0
S1134B5080648C93938D848D981306C00288F389A6
S1134B60E02D80818F7D80830895CF93DF93EC01C6
S1134B70888D8823C1F0EA89FB89808185FD05C081
S1134B80A889B9898C9186FD0EC00FB607FCF5CFB4
S1134B90808185FFF2CFA889B9898C9185FFEDCFFB
S1134BA0CE01C2DFE8CFDF91CF910895EF92FF925B
S1134BB00F931F93CF93DF93EC0181E0888F9B8D3C
S1134BC08C8D981305C0E889F989808185FD23C0FF
S1134BD0F62E0B8D10E00F5F1F4F0F731127E02E81
S1134BE08C8DE8120BC00FB607FCFACFE889F9895F
S1134BF0808185FFF5CFCE0197DFF2CF8B8DFE014B
S1134C00E80FF11DE35AFF4FF0820B8FEA89FB890D
S1134C108081806207C0EE89FF896083E889F98911
S1134C2080818064808381E090E0DF91CF911F9147
S1134C300F91FF90EF900895CF92DF92EF92FF9241
S1134C401F93CF93DF93EC016A017B01122FE88954
S1134C50F98982E080834115514E61057105A9F0FF
S1134C6060E079E08DE390E0A7019601C4D6DA0113
S1134C70C9010197A109B109B695A795979587959B
S1134C80AC01411580E15807A0F0E889F989108248
S1134C9060E874E88EE190E0A7019601ACD6BA0111
S1134CA0A901415051096109710976956795579594
S1134CB04795EC85FD855083EE85FF854083188EEE
S1134CC0EC89FD891083EA89FB8980818061808376
S1134CD0EA89FB89808188608083EA89FB898081F5
S1134CE080688083EA89FB8980818F7D8083DF915E
S1134CF0CF911F91FF90EF90DF90CF9008951F9276
S1134D000F920FB60F9211240BB60F922F938F931D
S1134D109F93EF93FF93E091FB0DF091FC0D808145
S1134D20E091010EF091020E82FD12C090818091FB
S1134D30040E8F5F8F732091050E821751F0E0915E
S1134D40040EF0E0E551F24F958F8093040E01C0FC
S1134D508081FF91EF919F918F912F910F900BBEC6
S1134D600F900FBE0F901F9018951F920F920FB6C1
S1134D700F9211240BB60F922F933F934F935F938F
S1134D806F937F938F939F93AF93BF93EF93FF930F
S1134D908BEE9DE0C9DEFF91EF91BF91AF919F91A2
S1134DA08F917F916F915F914F913F912F910F90D0
S1134DB00BBE0F900FBE0F901F9018958BEE9DE0C9
S1134DC03BDE21E0892B09F420E0822F0895EBEEED
S1134DD0FDE01382128288EE93E0A0E0B0E08483C9
S1134DE09583A683B7838AE09CE09183808385ECD6
S1134DF090E09587848784EC90E09787868780ECA1
S1134E0090E0918B808B81EC90E0938B828B82EC91
S1134E1090E0958B848B86EC90E0978B868B118E3B
S1134E20128E138E148E08951F920F920FB60F9246
S1134E3011240BB60F922F938F939F93EF93FF93AD
S1134E40E091980EF091990E8081E0919E0EF09180
S1134E509F0E82FD12C090818091A10E8F5F8F738F
S1134E602091A20E821751F0E091A10EF0E0E857D4
S1134E70F14F958F8093A10E01C08081FF91EF9136
S1134E809F918F912F910F900BBE0F900FBE0F909B
S1134E901F9018951F920F920FB60F9211240BB604
S1134EA00F922F933F934F935F936F937F938F93BF
S1134EB09F93AF93BF93EF93FF9388E89EE034DE14
S1134EC0FF91EF91BF91AF919F918F917F916F91DE
S1134ED05F914F913F912F910F900BBE0F900FBE9A
S1134EE00F901F90189588E89EE0A6DD21E0892B9D
S1134EF009F420E0822F0895E8E8FEE0138212828C
S1134F0088EE93E0A0E0B0E084839583A683B78322
S1134F108AE09CE0918380838DEC90E09587848780
S1134F208CEC90E09787868788EC90E0918B808B5F
S1134F3089EC90E0938B828B8AEC90E0958B848B48
S1134F408EEC90E0978B868B118E128E138E148EBE
S1134F5008950895FED2FDDF0E941C1BC9E5D5E229
S1134F600E945F1B2097E1F3A4DDFACFCF92DF927A
S1134F70EF92FF920F931F93CF93DF936C017A010B
S1134F808B01C0E0D0E0CE15DF0589F0D8016D912A
S1134F908D01D601ED91FC910190F081E02DC601C7
S1134FA01995892B11F47E0102C02196ECCFC7011B
S1134FB0DF91CF911F910F91FF90EF90DF90CF90F1
S1134FC008956115710579F0FB0101900020E9F75E
S1134FD03197AF01461B570BDC01ED91FC91028028
S1134FE0F381E02D199480E090E00895DC01ED91C7
S1134FF0FC91DB0114964D915C9115976D917C9118
S11350000280F381E02D1994DCCFDC01ED91FC9159
S11350100190F081E02D199468E17CE0D2CF0F93E8
S11350201F93CF93DF93EC01E1DF8C01CE01F4DF1A
S1135030800F911FDF91CF911F910F9108950F93CE
S11350401F93CF93DF93EC01BCDF8C01CE01E4DF2F
S1135050800F911FDF91CF911F910F9108958F922F
S11350609F92AF92BF92CF92DF92EF92FF920F93F3
S11350701F93CF93DF93CDB7DEB7A1970FB6F89404
S1135080DEBF0FBECDBF7C01D42EC52EDB0119A21D
S1135090223008F42AE08E010F5D1F4F822E912CDE
S11350A0A12CB12C6D2D7C2DCD01A5019401A3D48F
S11350B0D22EC32EDA01015011096A30710581051F
S11350C0910510F4605D01C0695CF8016083232BD5
S11350D0242B252B39F7B801C70173DFA1960FB62E
S11350E0F894DEBF0FBECDBFDF91CF911F910F911A
S11350F0FF90EF90DF90CF90BF90AF909F908F90F4
S11351000895CF92DF92EF92FF920F931F93CF9364
S1135110DF93EC016A017B012115310579F4E88103
S1135120F9810190F081E02D642FDF91CF911F91DF
S11351300F91FF90EF90DF90CF9019942A303105B2
S1135140D9F477FF18C06DE260DF8C01442755273E
S1135150BA014C195D096E097F092AE0CE017FDF8F
S1135160800F911FDF91CF911F910F91FF90EF90CE
S1135170DF90CF9008952AE0B701A601CE01DF9118
S1135180CF911F910F91FF90EF90DF90CF9067CF59
S11351909A01AB01770F660B770BB3CF0F931F9375
S11351A0CF93DF93EC019A01AB01770F660B770B7A
S11351B0A8DF8C01CE0130DF800F911FDF91CF91EA
S11351C01F910F9108952115310541F4DC01ED91F2
S11351D0FC910190F081E02D642F199440CF9A0145
S11351E0462F50E060E070E0EECF0F931F93CF9313
S11351F0DF93EC019A01462F50E060E070E0E3DFBA
S11352008C01CE0109DF800F911FDF91CF911F9197
S11352100F9108954F925F926F927F928F929F9217
S1135220AF92BF92CF92DF92EF92FF92CF93DF9330
S1135230EC016A017B01B22E9A01AB01C701B601F0
S1135240C6D3882319F06BE17CE024C02601370122
S1135250E89477F82FEF3FEF4FE75FE7C301B20120
S1135260B6D381110CC02FEF3FEF4FE75FE7C301C7
S1135270B201C5D818161CF46FE17CE00BC02FEF07
S11352803FEF4FE75FE4C701B60108DA181694F45C
S113529063E27CE0CE01DF91CF91FF90EF90DF904D
S11352A0CF90BF90AF909F908F907F906F905F90C2
S11352B04F9087CE2FEF3FEF4FE75FECC701B6016A
S11352C09ED887FDE5CF20E030E0A901C701B601F3
S11352D096D887FF09C06DE2CE0197DE4C01F7FA3C
S11352E0F094F7F8F09402C0812C912CA12C60E08A
S11352F070E080E09FE3AB1439F020E030E040E25E
S113530051E481D8A394F7CF9B01AC01C701B60146
S113531012D82B013C01E4D86B017C010DD99B010F
S1135320AC01C301B20106D82B013C012AE0B7014C
S1135330A601CE0194DE7C01E80CF91CBB2029F007
S11353406EE2CE0162DEE80EF91EDB2CDD2009F1EF
S113535020E030E040E251E4C301B201A3D92B01C3
S11353603C01BED84B01A12CB12C2AE0B501A4010B
S1135370CE0175DEE80EF91EC501B401DDD89B012E
S1135380AC01C301B2010E949A212B013C01DA94C1
S1135390DDCFC701DF91CF91FF90EF90DF90CF90E9
S11353A0BF90AF909F908F907F906F905F904F9041
S11353B0089530CF0F931F93CF93DF93EC012ADF2F
S11353C08C01CE0129DE800F911FDF91CF911F91B7
S11353D00F9108951F920F920FB60F9211242F93DD
S11353E03F938F939F93AF93BF938091260F909198
S11353F0270FA091280FB091290F3091250F23E09A
S1135400230F2D3720F40196A11DB11D05C026E8F8
S1135410230F0296A11DB11D2093250F8093260F03
S11354209093270FA093280FB093290F80912A0FF0
S113543090912B0FA0912C0FB0912D0F0196A11DCF
S1135440B11D80932A0F90932B0FA0932C0FB09330
S11354502D0FBF91AF919F918F913F912F910F90FD
S11354600FBE0F901F9018952FB7F8946091260FD8
S11354707091270F8091280F9091290F2FBF0895C5
S11354803FB7F89480912A0F90912B0FA0912C0F85
S1135490B0912D0F26B5A89B05C02F3F19F001969A
S11354A0A11DB11D3FBFBA2FA92F982F8827820FA6
S11354B0911DA11DB11DBC01CD0142E0660F771FF6
S11354C0881F991F4A95D1F708958F929F92AF92A2
S11354D0BF92CF92DF92EF92FF926B017C01D0DFFB
S11354E04B015C01C114D104E104F104F1F06ED26A
S11354F0C7DFDC01CB0188199909AA09BB09883ED9
S11355009340A105B10570F321E0C21AD108E10866
S1135510F10888EE880E83E0981EA11CB11CC1140A
S1135520D104E104F10421F7DDCFFF90EF90DF9087
S1135530CF90BF90AF909F908F9008958230910547
S113554038F0880F991F880F991F05970197F1F775
S11355500895789484B5826084BD84B5816084BDE7
S113556085B5826085BD85B5816085BDEEE6F0E0D8
S1135570808181608083E1E8F0E010828081826034
S11355808083808181608083E0E8F0E080818160B5
S11355908083E1EBF0E0808184608083E0EBF0E0E5
S11355A0808181608083E1E9F0E080818260808392
S11355B0808181608083E0E9F0E080818160808384
S11355C0E1EAF0E080818260808380818160808371
S11355D0E0EAF0E0808181608083E1E2F1E08081B3
S11355E082608083808181608083E0E2F1E0808159
S11355F081608083EAE7F0E0808184608083808139
S113560082608083808181608083808180688083E0
S11356101092C100089590E0FC013197E231F10548
S113562008F04DC08827ED54FF4F8F4F22C2809160
S113563080008F7703C0809180008F7D80938000ED
S1135640089580918000877FF9CF84B58F7702C059
S113565084B58F7D84BD08958091B0008F7703C099
S11356608091B0008F7D8093B00008958091900068
S11356708F7707C0809190008F7D03C08091900048
S1135680877F8093900008958091A0008F7707C052
S11356908091A0008F7D03C08091A000877F8093BC
S11356A0A0000895809120018F7707C08091200188
S11356B08F7D03C080912001877F8093200108950E
S11356C0CF93DF9390E0FC01E053F94F2491FC0168
S11356D0EA5EF84F8491882361F190E0880F991F66
S11356E0FC01E057F84FC591D491FC01EA58F84FFA
S11356F0A591B491611109C09FB7F8948881209550
S113570082238883EC912E230BC0623061F49FB70F
S1135710F8943881822F809583238883EC912E2BF3
S11357202C939FBF06C08FB7F894E8812E2B288353
S11357308FBFDF91CF9108951F93CF93DF93282FCD
S113574030E0F901E657F94F8491F901E053F94F3C
S1135750D491F901EA5EF84FC491CC23C1F0162F1D
S1135760811159DFEC2FF0E0EE0FFF1FEA58F84FDC
S1135770A591B4918FB7F894111105C09C91ED2FA8
S1135780E095E92302C0EC91ED2BEC938FBFDF9100
S1135790CF911F9108954F925F926F927F92AF9233
S11357A0BF92CF92DF92EF92FF920F931F93CF930A
S11357B0DF93CDB7DEB729013A019B01AC0124196F
S11357C03509460957098A899B89AC89BD89BC0179
S11357D0CD016A197B098C099D09FED0A8019701A6
S11357E0241935094609570928D1CA01B9016A0D96
S11357F07B1D8C1D9D1DDF91CF911F910F91FF90FB
S1135800EF90DF90CF90BF90AF907F906F905F90BC
S11358104F900895FC0180819181E7C1CF93DF937C
S1135820EC0188819981009709F0DFD119821882EF
S11358301D821C821B821A82DF91CF9108950F93DF
S11358401F93CF93DF93EC018B016F5F7F4F8881B0
S1135850998163D2009731F0998388831B830A83EB
S113586081E001C080E0DF91CF911F910F910895F5
S1135870CF93DF93EC0188819981892B29F08A8168
S11358809B818617970758F4CE01D9DF882341F00E
S11358908C819D81892B19F4E881F981108281E042
S11358A0DF91CF910895EF92FF920F931F93CF93BF
S11358B0DF93EC017B018A01BA01DADF811103C0B5
S11358C0CE01ACDF06C01D830C83B70188819981AA
S11358D026D3CE01DF91CF911F910F91FF90EF90CE
S11358E00895FC011182108213821282158214829F
S11358F06115710549F0FB0101900020E9F731972A
S1135900AF01461B570BCFCF0895CF93DF93EC0124
S1135910FB018617970751F060817181611571054C
S113592021F044815581BFDF01C078DFCE01DF91D2
S1135930CF910895FC011182108213821282158284
S11359401482E3CFCF93DF93EC016115710551F01D
S1135950FB0101900020E9F73197AF01461B570B7B
S1135960A2DF01C05BDFCE01DF91CF910895FC017E
S113597024813581232B31F421E06115710599F0DF
S1135980FB0108C0FC01808191816115710531F42E
S113599021E0FC018081882331F004C0B7D221E0EA
S11359A0892B09F020E0822F0895CF93DF93FC0127
S11359B0C081D181209739F08881882321F090E03B
S11359C094D28993F9CFDF91CF91089508950E94DD
S11359D0D922880B990B0895DB018F939F9366D08E
S11359E0BF91AF91A29F800D911DA39F900DB29F77
S11359F0900D11240895A1E21A2EAA1BBB1BFD01D0
S1135A000DC0AA1FBB1FEE1FFF1FA217B307E40799
S1135A10F50720F0A21BB30BE40BF50B661F771FF1
S1135A20881F991F1A9469F76095709580959095D1
S1135A309B01AC01BD01CF010895052E97FB16F41F
S1135A4000940FD057FD05D0D6DF07FC02D046F4F2
S1135A5008C050954095309521953F4F4F4F5F4F6B
S1135A60089590958095709561957F4F8F4F9F4FC6
S1135A700895EE0FFF1F881F8BBF0790F691E02D4E
S1135A801994A29FB001B39FC001A39F700D811D03
S1135A901124911DB29F700D811D1124911D089533
S1135AA0F0DFB7FF0895821B930B0895EADFA59FEB
S1135AB0900DB49F900DA49F800D911D1124089505
S1135AC0CF93DF938230910510F482E090E0E0916F
S1135AD0300FF091310F20E030E0C0E0D0E030979B
S1135AE011F14081518148175907C0F048175907EF
S1135AF061F482819381209719F09B838A832BC060
S1135B009093310F8093300F26C02115310519F081
S1135B104217530718F49A01BE01DF01EF01028016
S1135B20F381E02DDCCF2115310509F1281B390B58
S1135B302430310590F412968D919C911397611540
S1135B40710521F0FB019383828304C09093310F8C
S1135B508093300FFD01329644C0FD01E20FF31F24
S1135B6081939193225031092D933C933AC0209113
S1135B702E0F30912F0F232B41F4209102023091EC
S1135B80030230932F0F20932E0F209100023091A7
S1135B9001022115310541F42DB73EB740910402AD
S1135BA050910502241B350BE0912E0FF0912F0F1D
S1135BB0E217F307A0F42E1B3F0B2817390778F0E0
S1135BC0AC014E5F5F4F2417350748F04E0F5F1F3F
S1135BD050932F0F40932E0F8193919302C0E0E0D6
S1135BE0F0E0CF01DF91CF9108950F931F93CF93EE
S1135BF0DF93009709F48CC0FC0132971382128260
S1135C000091300F1091310F0115110581F420819D
S1135C103181820F931F20912E0F30912F0F28175F
S1135C20390779F5F0932F0FE0932E0F71C0D80147
S1135C3040E050E0AE17BF0750F412962D913C910E
S1135C401397AD012115310509F1D901F3CF9D0158
S1135C50DA013383228360817181860F971F821753
S1135C60930769F4EC0128813981260F371F2E5FD1
S1135C703F4F318320838A819B8193838283452B89
S1135C8029F4F093310FE093300F42C01396FC9344
S1135C90EE931297ED01499159919E01240F351FFE
S1135CA0E217F30771F480819181840F951F0296A6
S1135CB011969C938E938281938113969C938E93D9
S1135CC01297E0E0F0E0D80112968D919C91139721
S1135CD0009719F0F8018C01F6CF8D919C919801F1
S1135CE02E5F3F4F820F931F20912E0F30912F0F65
