:1000000007C400000C94F5310C9420320C944B3250
:100010000C9476320C94A1320C94CC320C94F732BE
:100020000C94223326C4000024C4000022C4000023
:1000300020C400001EC400001CC400001AC400003C
:1000400018C400000C94B22714C4000012C40000AD
:1000500010C400000EC400000CC400000C944D330A
:1000600008C400000C94132E0C94492E02C4000006
:1000700000C40000FEC30000FCC30000FAC300007F
:10008000F8C30000F6C30000F4C30000F2C3000090
:10009000F0C30000EEC30000ECC300000C946E241B
:1000A000E8C30000E6C30000E4C30000E2C30000B0
:1000B000E0C30000DEC30000DCC30000DAC30000C0
:1000C000D8C30000D6C30000D4C300000C94A82EEF
:1000D0000C94DE2ECEC30000CCC30000CAC30000C7
:1000E000C8C30000084AD73B3BCE016E84BCBFFDAD
:1000F000C12F3D6C74319ABD56833DDA3D00C77FF8
:1001000011BED9E4BB4C3E916BAAAABE0000008090
:100110003F05A84CCDB2D44EB93836A9020C50B91F
:10012000918688083CA6AAAA2ABE000000803F0744
:10013000634236B79BD8A71A39685618AEBAAB5582
:100140008C1D3CB7CC5763BD6DEDFD753EF6177247
:1001500031BF000000803F08000000BE9224491219
:100160003EABAAAA2ABECDCCCC4C3E00000080BE3D
:10017000ABAAAAAA3E00000000BF000000803F001A
:1001800000000000084178D3BB4387D1133D190E0E
:100190003CC3BD4282AD2B3E68EC8276BED98FE176
:1001A000A93E4C80EFFFBE01C4FF7F3F000000006E
:1001B0000000CF319931A131AD31BA31DB31E831B5
:1001C00088348B347A347E348434C2348F3493341C
:1001D00099349D34A134A734AB34AF34C234B53430
:1001E000B934BD3400000000003E5B4F5B3E3E6B07
:1001F0004F6B3E1C3E7C3E1C183C7E3C181C577DC1
:10020000571C1C5E7F5E1C00183C1800FFE7C3E70C
:10021000FF0018241800FFE7DBE7FF30483A060E1E
:100220002629792926407F050507407F05253F5A65
:100230003CE73C5A7F3E1C1C08081C1C3E7F1422D5
:100240007F22145F5F005F5F06097F017F00668980
:10025000956A606060606094A2FFA29408047E04C6
:100260000810207E201008082A1C08081C2A0808EC
:100270001E101010100C1E0C1E0C30383E383006AC
:100280000E3E0E06000000000000005F00000007A8
:10029000000700147F147F14242A7F2A12231308D6
:1002A000646236495620500008070300001C2241B2
:1002B000000041221C002A1C7F1C2A08083E080856
:1002C0000080703000080808080800006060002006
:1002D000100804023E5149453E00427F40007249E9
:1002E0004949462141494D331814127F102745458D
:1002F00045393C4A494931412111090736494949A3
:1003000036464949291E0000140000004034000010
:100310000008142241141414141400412214080279
:10032000015909063E415D594E7C1211127C7F49EC
:100330004949363E414141227F4141413E7F494941
:1003400049417F090909013E414151737F0808086D
:100350007F00417F41002040413F017F081422413E
:100360007F404040407F021C027F7F0408107F3E98
:100370004141413E7F090909063E4151215E7F0905
:10038000192946264949493203017F01033F40406C
:10039000403F1F2040201F3F4038403F6314081457
:1003A0006303047804036159494D43007F4141418F
:1003B0000204081020004141417F04020102044070
:1003C00040404040000307080020545478407F28F4
:1003D0004444383844444428384444287F385454EA
:1003E000541800087E090218A4A49C787F0804040D
:1003F0007800447D40002040403D007F10284400AC
:1004000000417F40007C047804787C08040478383C
:1004100044444438FC1824241818242418FC7C086C
:10042000040408485454542404043F44243C4040E9
:10043000207C1C2040201C3C4030403C442810289C
:10044000444C9090907C4464544C440008364100E5
:100450000000770000004136080002010204023C5F
:100460002623263C1EA1A161123A4040207A38542E
:1004700054555921555579412254547842215554A7
:10048000784020545579400C1E52721239555555FA
:1004900059395454545939555454580000457C41E5
:1004A0000002457D420001457C407D1211127DF025
:1004B000282528F07C545545002054547C547C0A4F
:1004C000097F4932494949323A4444443A324A4818
:1004D00048303A4141217A3A42402078009DA0A01C
:1004E0007D3D4242423D3D4040403D3C24FF24246E
:1004F000487E4943662B2FFC2F2BFF0929F620C08D
:10050000887E090320545479410000447D413048DD
:10051000484A32384040227A007A0A0A727D0D1920
:10052000317D2629292F28262929292630484D4082
:1005300020380808080808080808382F10C8ACBA7E
:100540002F102834FA00007B000008142A142222FD
:10055000142A14085500550055AA55AA55AAFF5546
:10056000FF55FF000000FF00101010FF00141414CE
:10057000FF001010FF00FF1010F010F0141414FC16
:10058000001414F700FF0000FF00FF1414F404FC33
:10059000141417101F10101F101F1414141F001014
:1005A0001010F0000000001F101010101F1010108D
:1005B00010F010000000FF1010101010101010109C
:1005C000FF10000000FF140000FF00FF00001F10DC
:1005D000170000FC04F414141710171414F404F496
:1005E0000000FF00F714141414141414F700F71487
:1005F0001414171410101F101F141414F4141010D6
:10060000F010F000001F101F0000001F1400000079
:10061000FC140000F010F01010FF10FF141414FF71
:10062000141010101F00000000F010FFFFFFFFFF6C
:10063000F0F0F0F0F0FFFFFF0000000000FFFF0F00
:100640000F0F0F0F3844443844FC4A4A4A347E02A4
:10065000020606027E027E02635549416338444425
:100660003C04407E201E2006027E020299A5E7A5DA
:10067000991C2A492A1C4C7201724C304A4D4D304B
:100680003048784830BC625A463D3E494949007E70
:100690000101017E2A2A2A2A2A44445F4444405107
:1006A0004A444040444A51400000FF0103E080FFBB
:1006B000000008086B6B083612362436060F090F47
:1006C00006000018180000001010003040FF010163
:1006D000001F01011E00191D1712003C3C3C3C008C
:1006E0000000000000000A0B02090C0D0E080703B1
:1006F00004010000000000000000000000000000F5
:1007000000000000000000000000000000000000E9
:1007100012111000000000000000000000000000A6
:10072000000000000000000000000102102020086E
:10073000081020401020408002010201080402013C
:1007400001020408102040808040201008040201AB
:100750008004020180402010080402010804020104
:10076000010204081020408001020408102040808B
:1007700005050505070508080808020202020A0A1D
:10078000080804040404010101010101010103033B
:10079000030303030303040707070C0C0C0C0C0CE6
:1007A0000C0C0202020206060606060606060B0BE3
:1007B0000B0B0B0B0B0B0000200023002600290065
:1007C0002C002F0032000001000003010601090186
:1007D00000002200250028002B002E0031003400EC
:1007E00002010000050108010B01000021002400A6
:1007F00027002A002D003000330001010000040111
:1008000007010A014B14F722BF267B2E102F392334
:1008100011241FBECFEFD1E2DEBFCDBF00E00CBF81
:100820001CE0A0E0B2E0E4E6F2E700E00BBF02C0AB
:1008300007900D92AA34B107D9F720E1AAE4BCE0F1
:1008400001C01D92AA31B207E1F714E0C7E0D4E07D
:1008500000E006C021970109802FFE010E94C436E6
:10086000C230D10780E00807A9F70E943E2F0C9400
:100870002139C6CB80E090E0089508952F923F92F1
:100880004F925F926F927F928F929F92AF92BF92A0
:10089000CF92DF92EF92FF920F931F93CF93DF934C
:1008A00000D0CDB7DEB74C017B836A836A01590162
:1008B00017019801241B350B37FF03C03195219593
:1008C0003109C5014A815B81841B950B97FF03C0E9
:1008D00091958195910951E059838217930714F0FE
:1008E00019820BC09A2D8B2D5801092F182F9A8130
:1008F0008B81DB82CA82C92ED82E8A819B81A81661
:10090000B9065CF49C2D8D2D6801092F182F9A8152
:100910008B81BB82AA82A92EB82E2501AA81BB8118
:100920004A1A5B0A38016C187D0877FE03C071947F
:1009300061947108720157FE03C0BFEFEB1AFB0A06
:10094000F594E794C016D1061CF00FEF1FEF1FC0FF
:1009500001E010E01CC0D401ED91FC91B981048448
:10096000F585E02D9101BB23C1F04A815B81B60181
:10097000C4011995E618F708F7FE04C0C00ED11E91
:10098000E40CF51CEA81FB813196FB83EA834A8102
:100990005B81A416B506FCF604C0A6016A817B81C2
:1009A000E7CF0F900F900F90DF91CF911F910F9194
:1009B000FF90EF90DF90CF90BF90AF909F908F907F
:1009C0007F906F905F904F903F902F900895089583
:1009D000DC01ED91FC910084F185E02D19940F93D9
:1009E0001F93DC01ED91FC91048CF58DE02D1995A0
:1009F0001F910F9108950F931F93DC01ED91FC91CE
:100A0000068CF78DE02D19951F910F910895EF92A7
:100A1000FF920F931F93DC01ED91FC9100A0F1A1D7
:100A2000E02D19951F910F91FF90EF900895089573
:100A3000AF92BF92CF92DF92EF92FF920F931F93EC
:100A4000CF93DF9300D01F92CDB7DEB75C01690171
:100A5000DC01ED91FC910284F385E02D4B835C83F6
:100A600069837A831995D501ED91FC914B815C8165
:100A7000C40ED51EB1E0CB1AD1080488F589E02D4B
:100A80007801860169817A819B01C5011995D5019B
:100A9000ED91FC910688F789E02DC5010F900F902C
:100AA0000F900F90DF91CF911F910F91FF90EF90DA
:100AB000DF90CF90BF90AF901994AF92BF92CF923A
:100AC000DF92EF92FF920F931F93CF93DF9300D0AB
:100AD0001F92CDB7DEB75C016901DC01ED91FC919D
:100AE0000284F385E02D4B835C8369837A831995B7
:100AF000D501ED91FC9169817A819B012C0D3D1D01
:100B0000215031090488F589E02D78014B815C8101
:100B10008A01C5011995D501ED91FC910688F789E7
:100B2000E02DC5010F900F900F900F90DF91CF91A6
:100B30001F910F91FF90EF90DF90CF90BF90AF90FB
:100B400019944F925F926F927F928F929F92AF9281
:100B5000BF92CF92DF92EF92FF920F931F93CF93AA
:100B6000DF931F921F92CDB7DEB76C015A01390196
:100B70004801DC01ED91FC910284F385E02D69834D
:100B80007A8319956981462E7A81572E640C751CDB
:100B9000D601ED91FC91461457046CF40088F1895C
:100BA000E02D87019401A501B201C6011995BFEF9F
:100BB0004B1A5B0AEDCF0688F789E02DC6010F902E
:100BC0000F90DF91CF911F910F91FF90EF90DF90E9
:100BD000CF90BF90AF909F908F907F906F905F90DD
:100BE0004F901994EF92FF920F931F93DC01ED91B8
:100BF000FC9111971A960D911C911B9718962D91A7
:100C00003C91199700A0F1A1E02D7B0140E050E05C
:100C100060E070E019951F910F91FF90EF9008959B
:100C2000CF92DF92EF92FF920F931F93CF93DF93B8
:100C300000D000D0CDB7DEB76C01DC01ED91FC91A6
:100C40006217730789F4041715072CF4942F852F66
:100C5000A801092F182F041B150B98012F5F3F4F78
:100C6000048CF58DE02D12C04017510709F52617A9
:100C700037072CF4962F872FB901292F382F261BE1
:100C8000370B2F5F3F4F068CF78DE02D8701C60194
:100C9000199526960FB6F894DEBF0FBECDBFDF9133
:100CA000CF911F910F91FF90EF90DF90CF9008951B
:100CB0000284F385E02D2D833E834B835C8369831F
:100CC0007A831995D601ED91FC910488F589E02D80
:100CD0002D813E814B815C8169817A81C6011995A4
:100CE000D601ED91FC910688F789E02DC601269684
:100CF0000FB6F894DEBF0FBECDBFDF91CF911F912D
:100D00000F91FF90EF90DF90CF9019946F927F92A8
:100D10008F929F92AF92BF92CF92DF92EF92FF920B
:100D20000F931F93CF93DF93EC014B015A0169019D
:100D30003801E881F9810284F385E02D1995E88175
:100D4000F9810288F389E02D87019601A501B4019C
:100D5000CE011995E881F981A501460D571D415035
:100D600051090288F389E02D9601B401CE0119954D
:100D7000E881F9810088F189E02D9301A501B40192
:100D8000CE011995E881F981C80CD91CB6016150D2
:100D900071090088F189E02D9301A501CE01199513
:100DA000E881F9810688F789E02DCE01DF91CF91A6
:100DB0001F910F91FF90EF90DF90CF90BF90AF9079
:100DC0009F908F907F906F9019940895FC016370AD
:100DD000658B8481958126813781613039F063305C
:100DE00029F091878087338722870895318720876C
:100DF000938782870895FC01138212828BE596E027
:100E0000918380837583648357834683718760876A
:100E100053874287158A158614861786168681E0C1
:100E2000848B2FEF3FEF338B228B318B208B868B84
:100E3000178A118E108E08952F923F924F925F92D3
:100E40006F927F928F929F92AF92BF92CF92DF92DA
:100E5000EF92FF920F931F93CF93DF93CDB7DEB73F
:100E60006C970FB6F894DEBF0FBECDBF9C8F8B8FF3
:100E70005B011A011F830E833701C982DC0158967A
:100E80004D915C9159974115510509F0E5C01896AF
:100E90008D919C911997681779070CF0CAC11A9621
:100EA0008D919C911B97281639060CF0C2C18C2C91
:100EB000912CFB0136E0C39EE00DF11D1124FB8750
:100EC000EA871E161F060CF0B4C1C40133E0880F78
:100ED000991F3A95E1F79D878C87820D931D18160F
:100EE00019060CF0A6C157968C91811103C0203BC6
:100EF00008F02F5FAB8DBC8DED91FC9111970284B2
:100F0000F385E02DCD012A8F19952A8DB5E02B9F11
:100F100090011124F5013596FF87EE872501BB82EC
:100F2000AA82A9014A195B09598B488BC10108960D
:100F30009B8B8A8BE889F989E40DF51DEC51FE4FF6
:100F4000949198873D822C826101A885A0FF13C0EF
:100F5000AB8DBC8DED91FC91B981B13031F404843D
:100F6000F585E02D2E813F8116C00684F785E02DA2
:100F7000EE80FF801AC0EE81FF816E167F06F1F0D1
:100F8000AB8DBC8DED91FC91B981B13051F40484ED
:100F9000F585E02D9301A601B2018B8D9C8D1995ED
:100FA0000DC00684F785E02D7301840194014C8106
:100FB0005D816A817B818B8D9C8D1995E885E69595
:100FC000E8872C813D81280D391D3D832C833FEF1F
:100FD000C31AD30A4A895B89C416D50609F0B5CF6E
:100FE0008A819B81880D991D9B838A839FEF491A73
:100FF000590AAE85BF854A165B0609F09BCFEE8184
:10100000FF816E167F0609F4F2C0EB8DFC8DA08186
:10101000B181F981F13079F4B5016B5F7F4F509662
:10102000ED91FC915197830128E030E0A1018B8D77
:101030009C8D1995DCC06A857B85681979091E9697
:10104000ED91FC911F9773010C851D859401A10101
:101050008B8D9C8D1995CBC0FA0134969491329763
:1010600065917491291BCB01B7E02B9F800D911DD9
:101070001124FA01259134913B8B2A8BFC01459177
:1010800054915B834A83FC013296C490319654910B
:101090005C87329614913196D4908981823058F0D1
:1010A000612E012E000C7708AD2D0D2C000CBB0B12
:1010B000B987A88704C019861886612C712CAB8D5E
:1010C000BC8DED91FC9111970284F385E02DCD014B
:1010D0001995B9818B2E912C689CC001699C900D4B
:1010E000789C900D1124FC01EA0DFB1DF98BE88B17
:1010F0001C82712C612CE12F110FFF0B95012E0F1B
:101100003F1F3B872A87AC0CB11CA5014E0F5F1F08
:101110005F8B4E8BC1018D0D911DD7FC9A95998FD8
:10112000888F4C85641608F062C0862D90E0488553
:101130005985480F591F489D9001499D300D589D74
:10114000300D1124D901A20DB31DBF87AE87AA842B
:10115000BB8448885988DC80BA85DB1AE88DF98D14
:10116000E80FF91FFD8BEC8B8D2D8A0D2E893F89A1
:10117000A216B306B9F1877061F48A819B8101964A
:10118000EA89FB89AA81BB81EA0FFB1F74909B83CC
:101190008A8377FE20C0AB8DBC8DED91FC91B98127
:1011A000B13061F40484F585E02D2E813F814C89B6
:1011B0005D89B5018B8D9C8D19950DC00684F785D1
:1011C000E02DEE80FF80840194014E855F85B201A1
:1011D0008B8D9C8D1995770C480C591CEFEFAE1A2E
:1011E000BE0AC2CF3C813C0D3C8363949ACFAB8D49
:1011F000BC8DED91FC9111970688F789E02DCD010A
:101200006C960FB6F894DEBF0FBECDBFDF91CF91C5
:101210001F910F91FF90EF90DF90CF90BF90AF9014
:101220009F908F907F906F905F904F903F902F9006
:1012300019946C960FB6F894DEBF0FBECDBFDF9148
:10124000CF911F910F91FF90EF90DF90CF90BF90C3
:10125000AF909F908F907F906F905F904F903F9056
:101260002F900895AF92BF92CF92EF92FF920F937B
:101270001F93CF93DF93EC01262F888D998D0097D4
:1012800009F03FC06A3059F41D861C862C898E8572
:101290009F8538E0239F800D911D112440C06D3043
:1012A00009F4A8C08E898823C1F03C898C859D856E
:1012B00046E0349F800D911D1124488559854817BB
:1012C00059075CF41D861C868E859F8548E0349FF7
:1012D000800D911D11249F878E87EA88FB880889DD
:1012E00019894E855F856C857D85CC88CE01A4DD0E
:1012F0002C898C859D8536E0239F800D911D1124BE
:1013000042C06A3079F41D861C862C89FC01369611
:10131000E4918E859F852E9F800D911D11249F87BE
:101320008E8768C06D3009F465C0FC013496349135
:10133000631708F45FC03196E491E61708F45AC0C9
:10134000FC013296A590B490462F50E0431B510902
:1013500037E0349FB001359F700D1124A60EB71EE3
:10136000F501329634913196E491332311F0E11175
:101370000DC0F5013496E4912C898C859D85E29F02
:10138000800D911D11249D878C8734C0F501359601
:1013900044915E89552311F16C89E32FF0E0E40F4D
:1013A000F11D47FDFA956E9FD0016F9FB00D11247E
:1013B0004C855D854A0F5B1FE885F985E417F507C5
:1013C0006CF41D861C86FC013696E4918E859F8503
:1013D0006E9F800D911D11249F878E87EA88FB8860
:1013E000088919894E855F856C857D85CC88CE01FD
:1013F00023DDBFCF81E090E0DF91CF911F910F916E
:10140000FF90EF90CF90BF90AF900895FC0175874B
:101410006487578746870895611101C061E0FC0128
:10142000648B0895FC01738B628B718B608B0895C4
:10143000FC0185890895FC01808591850895FC0152
:101440008285938508950F931F93CF93DF93DC01DB
:10145000FB0155968C915597823089F0833021F1AC
:10146000813009F0E6C014968D919C911597BC01CE
:10147000641B750BAB0141505109BF011DC014968F
:101480006D917C911597CB018E1B9F0BFC011696DD
:101490008D919C911797BC01641B750BAB0141505A
:1014A0005109E21BF30BC5C016966D917C911797FD
:1014B0006E1B7F0B621B730B57FD1AC114968D9127
:1014C0009C911597481759070CF012C177FF04C07B
:1014D000260F371F60E070E016968D919C9117974C
:1014E000FB01E20FF31F8E179F071CF49C01261BC4
:1014F000370B121613060CF0FBC0A22F862F869511
:101500008695869590E8899F400D511D1124FA011A
:10151000EA5EFD4F6770A9F198E0961B492F50E0F5
:10152000EA01C25FDD4F8881291790F4421B5109FF
:101530002FEF30E002C0359527954A95E2F78223D8
:101540000130110541F068F00230110589F0D0C07A
:101550000130110519F42081822B0CC001301105D6
:1015600020F480952081822305C00230110531F4DA
:10157000208182278083A91708F4BAC0A91BE058EC
:10158000FF4FA83048F10230110559F4EF018A2FBE
:10159000988190959883C058DF4F88508830C0F765
:1015A00032C081E00130110509F080E08195EF0142
:1015B0009A2F8883C058DF4F98509830D0F788EF23
:1015C0008A0F86958695869560E8869FE00DF11DC9
:1015D0001124E058FF4FA770AA2309F489C0B0E096
:1015E000AA5FBD4F8C910130110529F038F002300F
:1015F0001105E1F07DC09081892B03C08095908119
:101600008923808375C088EF8A0F86958695869595
:1016100070E8879FE00DF11D1124E058FF4FA7707F
:1016200009F466C0B0E0AA5FBD4F8C919081892714
:10163000E8CF57FD5DC016968D919C91179748177E
:1016400059070CF055C0F7FF04C02E0F3F1FE0E014
:10165000F0E014968D919C911597BF01620F731F56
:10166000861797071CF49C012E1B3F0B12161306BE
:101670000CF03EC0CA0157FD079663E0959587952B
:101680006A95E1F79695982F882797958795E80FA3
:10169000F91FEA5EFD4F4770552781E090E001C0D9
:1016A000880F4A95EAF7482F0130110539F078F094
:1016B00002301105E9F42E0F3F1F13C02E0F3F1FFC
:1016C000E217F307A9F08081842B8193F9CF8095ED
:1016D0002E0F3F1FE217F30759F090819823919343
:1016E000F9CFE217F30721F0808184278193F9CFA6
:1016F000DF91CF911F910F9108950F931F93CF9377
:10170000DF93DC0155968C915597823071F08330D0
:1017100009F1813009F08CC01496ED91FC91159778
:10172000E41BF50BE21BF30B20C01496ED91FC912A
:101730001597CF01861B970BBC0161507109169656
:10174000ED91FC911797CF01841B950BAC01421BC7
:10175000530B6EC01696ED91FC911797CF01861B27
:10176000970BBC0161507109FA0177FD1BC11696F8
:101770008D919C911797681779070CF013C1F7FFAB
:1017800004C02E0F3F1FE0E0F0E014968D919C9175
:101790001597AF01420F531F841795071CF49C0146
:1017A0002E1B3F0B121613060CF0FCC0CB0177FD6D
:1017B000079643E0959587954A95E1F79695982F7A
:1017C000882797958795E80FF91FEA5EFD4F6770A8
:1017D000772781E090E001C0880F6A95EAF7482FEB
:1017E0000130110541F088F00230110509F0DAC02E
:1017F0002E0F3F1F15C02E0F3F1FE217F30709F4EE
:10180000D1C08081842B8193F8CF80952E0F3F1F0C
:10181000E217F30709F4C6C0908198239193F8CF9B
:10182000E217F30709F4BEC0808184278193F8CFC3
:1018300077FDB8C014968D919C911597681779071C
:101840000CF0B0C057FF04C0240F351F40E050E03B
:1018500016968D919C911797FA01E20FF31F8E1740
:101860009F071CF49C01241B350B121613060CF069
:1018700099C0A22F842F86958695869590E8899F9A
:10188000600D711D1124FB01EA5EFD4F4770A9F147
:1018900098E0941B492F50E0EA01C25FDD4F888138
:1018A000291790F4421B51092FEF30E002C0359503
:1018B00027954A95E2F782230130110541F068F03F
:1018C0000230110589F06EC00130110519F4208134
:1018D000822B0CC00130110520F4809520818223D9
:1018E00005C00230110531F4208182278083A917B9
:1018F00008F458C0A91BE058FF4FA83048F1023047
:10190000110559F4EF018A2F988190959883C0585A
:10191000DF4F88508830C0F730C081E001301105BA
:1019200009F080E08195EF019A2F8883C058DF4F3E
:1019300098509830D0F788EF8A0F869586958695CF
:1019400090E8899FE00DF11D1124E058FF4FA7702A
:10195000AA2341F1B0E0AA5FBD4F8C91013011057F
:1019600029F038F002301105D1F01CC09081892B8C
:1019700018C080959081892314C088EF8A0F8695BE
:101980008695869590E8899FE00DF11D1124E05819
:10199000FF4FA77039F0B0E0AA5FBD4F8C919081E6
:1019A00089278083DF91CF911F910F910895CF9266
:1019B000DF92EF92FF920F931F93CF93DF937C01FF
:1019C0008B01EA01690177FD9DC035DD0817190714
:1019D0000CF098C0D7FD96C0C70131DDC817D907F4
:1019E0000CF090C0C70124DD823009F07FC0F70100
:1019F00064817581CB01801B910B8C010150110911
:101A000046815781FA01EC1BFD0BEF0121970BC0BA
:101A1000813049F4F701848195818C1B9D0BE8018D
:101A20008C0101501109F1E0CF16D10431F010F111
:101A300082E0C816D104E1F165C0FE01D7FD3796FA
:101A400043E0F595E7954A95E1F7F695FE2FEE27E9
:101A5000F795E7950E0F1F1FF801EA5EFD4FC7705F
:101A6000DD2781E090E001C0880FCA95EAF79081F8
:101A7000892B3AC0FE01D7FD379623E0F595E7950F
:101A80002A95E1F7F695FE2FEE27F795E7950E0FCD
:101A90001F1FF801EA5EFD4FC770DD2781E090E06F
:101AA00001C0880FCA95EAF78095908189231CC0F0
:101AB000FE01D7FD379683E0F595E7958A95E1F726
:101AC000F695FE2FEE27F795E7950E0F1F1FF801ED
:101AD000EA5EFD4FC770DD2781E090E001C0880F0E
:101AE000CA95EAF79081892780830CC0833009F07A
:101AF0008FCFF70186819781801B910B8E01EC01BE
:101B0000219791CFDF91CF911F910F91FF90EF908F
:101B1000DF90CF9008951F93CF93DF93EC01162FA2
:101B200040E450E060E870E066D987E896E0998389
:101B300088838FEF8C8F88A38E8F8D8F1F8FDF917F
:101B4000CF911F91089580E094E0E6E1F2E0DF019B
:101B50009C011D9221503040E1F70895FC0181A1C4
:101B6000882339F06EBD00000DB407FEFDCF8EB5A1
:101B7000089528E030E090E8A4A1B5A14C9183A598
:101B8000809584238C93A2A1B3A182A5492F4623DB
:101B900019F04C91842B03C04C91809584238C9335
:101BA000A4A1B5A14C9183A5842B8C93969521502B
:101BB000310911F708951F93CF93DF93EC01162F8E
:101BC0008C8D8F3F01F1EEA1FFA190818CA5892B17
:101BD0008083E8A5F9A590818DA5809589238083D0
:101BE000EEA1FFA190818CA5809589238083CE01F1
:101BF000B5DFEEA1FFA190818CA5892B8083DF91B9
:101C0000CF911F9108958A8D682F880F770B81E8F7
:101C10009EE00E94482660E081E89EE00E94F72551
:101C2000612F81E89EE00E94F72581E89EE0DF9128
:101C3000CF911F910C94BD260F931F93CF93DF93E9
:101C4000EC01162F022F6B8F4A8F8C8D8F3F09F47A
:101C50008CC061E08E8D0E94C33461E088A10E9437
:101C6000C33488A1082E000C990BFC01E059F84FF1
:101C7000E491F0E0EE0FFF1FE053F84F259134910F
:101C80003FA32EA3FC01E65DF84FE491ECA78E8DF7
:101C9000082E000C990BFC01E059F84FE491F0E09C
:101CA000EE0FFF1FE053F84F2591349139A728A775
:101CB000FC01E65DF84FE491EDA789A1811134C0E4
:101CC00061E08C8D0E94C33461E08D8D0E94C3342D
:101CD0008D8D082E000C990BFC01E059F84FE49112
:101CE000F0E0EE0FFF1FE053F84F259134913DA334
:101CF0002CA3FC01E65DF84FE491EBA78C8D082E38
:101D0000000C990BFC01E059F84FE491F0E0EE0F64
:101D1000FF1FE053F84F259134913BA32AA3FC0108
:101D2000E65DF84FE491EAA789A1882311F10E94AA
:101D300044238091110E882399F02FB7F894809155
:101D4000110E813059F48DB380930F0E9DB38091A5
:101D5000100E809589238DBB2FBF02C020930F0EDC
:101D600080E58CBD81E08DBD04C081E89EE00E94CD
:101D700035260023F1F08F8D87FD1BC061E00E94A6
:101D8000C33461E08F8D0E94FF3461E070E080E039
:101D900090E00E94C83360E08F8D0E94FF346AE0BB
:101DA00070E080E090E00E94C83361E08F8D0E9477
:101DB000FF346EEACE01FFDE65EDCE01FCDE60E8A9
:101DC000CE01F9DE68EACE01F6DE6FE3CE01F3DE86
:101DD00063EDCE01F0DE60E0CE01EDDE60E4CE0129
:101DE000EADE6DE8CE01E7DE113011F460E101C0FA
:101DF00064E1CE01E0DE60E2CE01DDDE60E0CE0136
:101E0000DADE61EACE01D7DE68ECCE01D4DE6AED1F
:101E1000CE01D1DE62E1CE01CEDE61E8CE01CBDEC5
:101E2000113011F46FE901C06FECCE01C4DE69ED31
:101E3000CE01C1DE113011F462E201C061EFCE01CA
:101E4000BADE6BEDCE01B7DE60E4CE01B4DE64EA4B
:101E5000CE01B1DE66EACE01AEDE6EE2CE01ABDED1
:101E60006FEACE01DF91CF911F910F91A4CEDF9247
:101E7000EF92FF920F931F93CF93DF93EC0161E2F8
:101E80009ADE60E0CE0197DE6FE7CE0194DE62E27B
:101E9000CE0191DE60E0CE018EDE67E0CE018BDE0A
:101EA0008C8D8F3F29F1EEA1FFA190818CA5892B0C
:101EB0008083E8A5F9A590818DA5892B8083EEA16B
:101EC000FFA190818CA580958923808306E112E093
:101ED000F80161918F01CE0141DEF6E006311F0766
:101EE000B9F7EEA1FFA190818CA5892B808331C029
:101EF000D090B8008CE08093B80006E112E06A8DC3
:101F0000062E000C770B81E89EE00E94482660E4D4
:101F100081E89EE00E94F725E12CF12CF801EE0DFE
:101F2000FF1D608181E89EE00E94F7258FEFE81A8F
:101F3000F80AE0E1EE16F10489F781E89EE00E94DC
:101F4000BD26005F1F4FF6E006311F07C1F6D09295
:101F5000B800DF91CF911F910F91FF90EF90DF902C
:101F60000895CF93DF93FC0188E0DF01C82F1D9215
:101F7000CA95E9F7DF011896ED0119928A95E9F7FC
:101F8000148E158E168E178E10A280E090E0A0E8B9
:101F9000BFE3808B918BA28BB38B848B958BA68BAD
:101FA000B78B808F918FA28FB38FDF91CF910895E0
:101FB000CF93DF93EA0170E081E89EE00E9448261B
:101FC0006FEA76E081E89EE00E94982F4AE050E0B8
:101FD000BE0181E89EE00E94623081E89EE0DF91D0
:101FE000CF910C94BD26CF92DF92EF92FF920F9388
:101FF0001F93CF93DF93EC016A017901AB0161E09C
:10200000D7DFA60162E0CE01D3DFA70163E0CE01F6
:10201000CFDFA80164E0CE01DF91CF911F910F9136
:10202000FF90EF90DF90CF90C3CF4F925F926F926F
:102030007F92AF92BF92CF92DF92EF92FF920F9377
:102040001F93CF93DF9300D01F92CDB7DEB7290146
:102050003A01E982FA820B831C8370E081E89EE0FA
:102060000E94482662EB76E081E89EE00E94982F6D
:1020700022E030E0B301A20181E89EE00E947031CD
:1020800066EB76E081E89EE00E94982F22E030E047
:1020900049815A816B817C8181E89EE00E94703188
:1020A0006AEB76E081E89EE00E94982F22E030E023
:1020B000B601A50181E89EE00E94703181E89EE0B2
:1020C0000E94A02F81E89EE00F900F900F900F903C
:1020D000DF91CF911F910F91FF90EF90DF90CF9004
:1020E000BF90AF907F906F905F904F900C94BD2603
:1020F000AF92BF92CF92DF92EF92FF920F931F9316
:10210000CF93DF93EC01A88CB98CCA8CDB8CEC8864
:10211000FD880E891F89288939894A895B8961E090
:1021200084DFA88CB98CCA8CDB8CEC88FD880E8986
:102130001F89288939894A895B8962E0CE0175DF68
:10214000A88CB98CCA8CDB8CEC88FD880E891F8921
:10215000288939894A895B8963E0CE0166DFA88CCA
:10216000B98CCA8CDB8CEC88FD880E891F89288984
:1021700039894A895B8964E0CE0157DFDF91CF91CD
:102180001F910F91FF90EF90DF90CF90BF90AF9095
:102190000895CF93DF931F92CDB7DEB781E89EE01D
:1021A00069830E943526698170E041E050E081E852
:1021B0009EE00E94BB2681E89EE00E949C25892B20
:1021C00039F081E89EE00F90DF91CF910C94A42527
:1021D0000F90DF91CF910895AF92BF92CF92DF928F
:1021E000EF92FF920F931F93CF93DF93EC0181E85F
:1021F0009EE00E9435266EEB76E083ED9EE00E9425
:10220000B32F86E0A82EB12CC88CD98CEA8CFB8C1D
:102210000C891D892E893F89488959896A897B895A
:10222000CE0166DF61EC76E083ED9EE00E94B32F85
:1022300061E0CE01AEDF6C0162E0CE01AADF7C017D
:1022400063E0CE01A6DF8C0164E0CE01A2DF9C0139
:1022500081E0C816D10469F482E0E816F10449F47B
:102260000330110531F42430310519F481E08C8FED
:1022700004C01C8ECA94CD2811F481E08D8F82E0B9
:10228000E816F10411F481E08E8F0330110511F48A
:1022900081E08F8F2430310511F481E088A381E043
:1022A000A81AB10809F0B0CF65EC76E083ED9EE0A6
:1022B000DF91CF911F910F91FF90EF90DF90CF9022
:1022C000BF90AF900C94B32F089526E080E79FE075
:1022D0000E94AE2D69EC76E080E79FE00C94B32F6E
:1022E000CF92DF92EF92FF920F931F93CF93DF93E2
:1022F0006B017A01E9016DEC76E080E79FE00E94D6
:10230000982F4AE050E0B60180E79FE00E945C30E1
:102310006CE280E79FE00E94992F4AE050E0B7010D
:1023200080E79FE00E945C306CE280E79FE00E94C3
:10233000992F4AE050E0BE0180E79FE00E945C30A8
:102340006CE280E79FE00E94992F4AE050E0B801DC
:1023500080E79FE0DF91CF911F910F91FF90EF9069
:10236000DF90CF900C9462304F925F926F927F9289
:102370008F929F92AF92BF92CF92DF92EF92FF9295
:102380000F931F932A013B01480159016FEA76E040
:1023900080E79FE00E94982F4AE050E060E070E004
:1023A00080E79FE00E945C3065ED76E080E79FE08B
:1023B0000E94982F4AE050E060E070E080E79FE0E4
:1023C0000E945C3068ED76E080E79FE00E94982FE5
:1023D00022E030E0B301A20180E79FE00E9470316B
:1023E0006BED76E080E79FE00E94982F22E030E0DE
:1023F000B501A40180E79FE00E94703163EB76E0B5
:1024000080E79FE00E94982F22E030E0B701A6010C
:1024100080E79FE01F910F91FF90EF90DF90CF90AA
:10242000BF90AF909F908F907F906F905F904F90F4
:102430000C947131CF93DF93EB016EED76E080E782
:102440009FE00E94982FBE0180E79FE0DF91CF912F
:102450000C94A32F25E030E0FC013183208312820D
:1024600008954F925F926F927F928F929F92AF9258
:10247000BF92CF92DF92EF92FF920F931F93CF9371
:10248000DF93EC012A013B01480159016FEF76E02F
:1024900083ED9EE00E94982F6BE077E083ED9EE055
:1024A0000E94982F22E030E0B301A20183ED9EE06C
:1024B0000E9470316EE077E083ED9EE00E94982FDD
:1024C00022E030E0B501A40183ED9EE00E9470316E
:1024D00068E177E083ED9EE00E94982F22E030E0F3
:1024E000B701A60183ED9EE00E94703161E177E0C3
:1024F00083ED9EE00E94B32F6881798181E89EE0A0
:102500000E94482666E177E081E89EE00E94982FCD
:102510006BE077E081E89EE00E94982F22E030E0B7
:10252000B301A20181E89EE00E9470316EE077E085
:1025300081E89EE00E94982F22E030E0B501A401DE
:1025400081E89EE00E94703168E177E081E89EE0DA
:102550000E94982F22E030E0B701A60181E89EE0BA
:102560000E9470316BE177E081E89EE00E94B32F1A
:1025700081E89EE0DF91CF911F910F91FF90EF9046
:10258000DF90CF90BF90AF909F908F907F906F9093
:102590005F904F900C94BD26FC0111821082138233
:1025A0001282158214822AE030E03783268380E489
:1025B00090E091878087338722871586148622E1F1
:1025C00030E037872687918B808B338B228B158A5F
:1025D000148A2CE130E0378B268B918F808F338FDC
:1025E000228F158E148E24E230E0378F268F11A2B1
:1025F00010A22EE230E033A322A395A384A337A335
:1026000026A311A610A686E390E093A782A70895BB
:1026100021E04CE362E08AE49CE00EDB8AE49CE08B
:1026200026DC68EE73E080E090E00E94C8338AE424
:102630009CE089CA2F923F924F925F926F927F9255
:102640008F929F92AF92BF92CF92DF92EF92FF92C2
:102650000F931F93CF93DF93CDB7DEB728970FB6B5
:10266000F894DEBF0FBECDBF3C017A8369832A0197
:1026700019018E8D9F8DA8A1B9A18B839C83AD83F9
:10268000BE83AAA1BBA1B887AF8361E08AE49CE0C6
:102690000E940C0A61E070E08AE49CE00E94120A49
:1026A00040E050E060E070E08AE49CE00E94060AAE
:1026B0008AE49CE048DA63E377E08AE49CE00E94E5
:1026C000982F0E949733AB01BC012AE030E08AE4E6
:1026D0009CE00E947730F3014681578164817581C7
:1026E0008AE49CE00E94060A69E377E08AE49CE0C1
:1026F0000E94982F4AE050E069817A818AE49CE048
:102700000E945C30D3011A964D915C911B971896EC
:102710006D917C9119978AE49CE00E94060A6DE312
:1027200077E08AE49CE00E94982F4AE050E0B101F3
:102730008AE49CE00E945C30F301468557856485FD
:1027400075858AE49CE00E94060A61E477E08AE4E9
:102750009CE00E94982F4AE050E0B2018AE49CE09D
:102760000E945C30D30152964D915C9153975096E4
:102770006D917C9151978AE49CE00E94060A65E481
:1027800077E08AE49CE00E94982F4AE050E0B8018C
:102790008AE49CE00E945C30F30146895789648991
:1027A00075898AE49CE00E94060A69E477E08AE47D
:1027B0009CE00E94982F22E030E0B701A6018AE455
:1027C0009CE00E947031D3015A964D915C915B97C9
:1027D00058966D917C9159978AE49CE00E94060A74
:1027E0006FE477E08AE49CE00E94982F22E030E0DA
:1027F000B501A4018AE49CE00E947031F301468D8A
:10280000578D648D758D8AE49CE00E94060A65E50B
:1028100077E08AE49CE00E94982F22E030E04B8130
:102820005C816D817E818AE49CE00E947031D301DD
:1028300056964D915C91579790966D917C9191979A
:102840008AE49CE00E94060A6BE577E08AE49CE05B
:102850000E94982F6F8178858AE49CE00E948A2FDD
:102860008AE49CE028960FB6F894DEBF0FBECDBF79
:10287000DF91CF911F910F91FF90EF90DF90CF905C
:10288000BF90AF909F908F907F906F905F904F9090
:102890003F902F90ECCA64E08AE49CE03CC94F92E0
:1028A0005F926F927F92AF92BF92CF92DF92EF9240
:1028B000FF920F931F93CF93DF93EC015B01CA014B
:1028C000B9012AA33BA34CA35DA32BED3FE049E450
:1028D00050E40E94BB2A6C877D878E879F87B9A2B0
:1028E000A8A2EEA2FFA208A719A7B601DD0C880BCB
:1028F000990B0E9446299B01AC0160E070E080E0EA
:1029000090E40E941E2B20E030E040E85FE30E944C
:10291000DD276AA77BA78CA79DA7DF91CF911F9189
:102920000F91FF90EF90DF90CF90BF90AF907F908E
:102930006F905F904F9008952F923F924F925F92C9
:102940006F927F928F929F92AF92BF92CF92DF92BF
:10295000EF92FF920F931F93CF93DF93CDB7DEB724
:1029600060970FB6F894DEBF0FBECDBF1C01CB0140
:10297000BA014801590120E030E040E752E40E94EA
:10298000BB2A69877A878B879C87D1016D937D935A
:102990008D939C93139720E030E040E752E4C5010B
:1029A000B4010E94BB2A2B013C01F10164837583B1
:1029B0008683978320E030E040E752E4C701B60108
:1029C0000E94BB2AD10118966D937D938D939C93A1
:1029D0001B9796962D913D914D915C9199970E94F0
:1029E000BB2A6D877E878F87988BF101608B718BF7
:1029F000828B938B84849584A684B784A5019401EB
:102A000069857A858B859C850E94AB286B017C014A
:102A1000D10154966D937D938D939C935797A50107
:102A20009401C301B2010E94AB282B013C01F101CA
:102A3000608F718F828F938FA50194016D857E8544
:102A40008F8598890E94AB284B015C01D1015C966F
:102A50006D937D938D939C935F97A3019201C70122
:102A6000B6010E94DD2769877A878B879C87A3013F
:102A70009201C701B6010E94DE276B017C01A5010E
:102A8000940169857A858B859C850E94DD270E944B
:102A90001329662E7A836983A5019401C701B601C3
:102AA0000E94DD270E941329762E7C836B83A5016B
:102AB0009401C701B6010E94DE270E941329F62E59
:102AC0007E836D83A501940169857A858B859C85BC
:102AD0000E94DE270E941329862F262F372F388742
:102AE0002F83262D3A81472D5C816F2D7E8198851D
:102AF00060960FB6F894DEBF0FBECDBFDF91CF91C9
:102B00001F910F91FF90EF90DF90CF90BF90AF900B
:102B10009F908F907F906F905F904F903F902F90FD
:102B20000895CF92DF92EF92FF92CF93DF93EC0163
:102B3000072E000C880B990B0E9446296B017C0123
:102B400048A159A1BA01550F880B990B0E9446293B
:102B50009B01AC01C701B6010E94AB282AA53BA589
:102B60004CA55DA50E94BB2A0E941329CB01DF91D1
:102B7000CF91FF90EF90DF90CF9008954F925F92AA
:102B80006F927F928F929F92AF92BF92CF92DF927D
:102B9000EF92FF920F931F93CF93DF93CDB7DEB7E2
:102BA00060970FB6F894DEBF0FBECDBF5C01C4DEE8
:102BB00029873A874B875C876D877E878F87988BBD
:102BC00069857A85C501ADDF4C016B857C85C501C2
:102BD000A8DF6C016D857E85C501A3DF8C016F8543
:102BE0007889C5019EDF7C01B40197FE04C0662789
:102BF0007727681979096F3F710509F024F5C60137
:102C0000D7FE04C0882799278C199D098F3F91050D
:102C100009F0CCF4C80117FF04C088279927801B4E
:102C2000910B8F3F910511F00CF051C0C701F7FED9
:102C300004C0882799278E199F098F3F910511F0AD
:102C40000CF045C09FC0072E000C880B990B0E940A
:102C500046299B01AC0160E070E08FE793E40E949D
:102C6000AB282B013C01B801110F880B990B0E9476
:102C70004629A30192010E94BB2A0E9413298B01BD
:102C8000B701FF0C880B990B0E944629A301920102
:102C90000E94BB2A0E9413297B01B401990C880B66
:102CA000990B0E944629A30192010E94BB2A0E940F
:102CB00013294B01B601DD0C880B990B0E944629A4
:102CC000A30192010E94BB2A0E9413296B01B80143
:102CD00017FF04C066277727601B710B6F3F7105D4
:102CE00009F064F4C701F7FE04C0882799278E19FC
:102CF0009F098F3F910509F00CF444C0072E000C8A
:102D0000880B990B0E9446299B01AC0160E070E0A2
:102D10008FE793E40E94AB282B013C01B801110F0F
:102D2000880B990B0E944629A30192010E94BB2A9D
:102D30000E9413298B01B701FF0C880B990B0E948D
:102D40004629A30192010E94BB2A0E9413297B01FC
:102D5000B401990C880B990B0E944629A30192019A
:102D60000E94BB2A0E9413294B01B601DD0C880B7F
:102D7000990B0E944629A30192010E94BB2A0E943E
:102D800013296B019A828982DC82CB821E830D8398
:102D9000F886EF82282D3A814C2D5C81602F7E8150
:102DA0008E2D988560960FB6F894DEBF0FBECDBF0E
:102DB000DF91CF911F910F91FF90EF90DF90CF9017
:102DC000BF90AF909F908F907F906F905F904F904B
:102DD0000895FC0182E0808383E0818384E0828324
:102DE00085E083831582148281E090E09783868357
:102DF00011861086938782870895CF93DF93EC0125
:102E0000198218821A821B821C821D821E821F82D6
:102E1000188619861A868FE790E09C878B879E8795
:102E20008D87988B8F879A8B898B6DE37CE0CE01A1
:102E300043960E94FC3581E0898FDF91CF91089500
:102E4000CF92EF920F93CF93DF93EC0126E040E017
:102E500052EC61E070E083ED9EE00E94AE2D6CE2EA
:102E600071E080E090E00E94C833C12CE12C0DE0BD
:102E70002AE04BE06CE088E79CE03FD6282F30E06A
:102E8000398328832115310569F560E677E083ED04
:102E90009EE00E94982F69E877E083ED9EE00E9413
:102EA000982F66E977E083ED9EE00E94B32F6CE9EE
:102EB00077E083ED9EE00E94982F66E977E083ED4E
:102EC0009EE00E94B32F66EA77E083ED9EE00E94C9
:102ED000B32F6AEF77E083ED9EE00E94B32F63E3A8
:102EE00078E011C02130310519F463E778E00BC0B8
:102EF0002230310519F469EE78E005C02330310540
:102F000031F469E679E083ED9EE00E94B32F88E713
:102F10009CE0F5D38A83813059F038F0823059F043
:102F20008330A1F467EE79E008C06BEA79E005C070
:102F300065EF79E002C06AEC79E083ED9EE0DF9115
:102F4000CF910F91EF90CF900C94982FDF91CF916C
:102F50000F91EF90CF9008951F93CF93DF93FC01D3
:102F60002281223009F473C1EC01438160E088E7DB
:102F70009CE0C2D468E070E088E79CE0AFD388238F
:102F800061F061E17AE083ED9EE00E94B32F61E1A0
:102F90007AE0CE0143960E942D3661E070E088E72A
:102FA0009CE09CD3882361F065E27AE083ED9EE0AB
:102FB0000E94B32F65E27AE0CE0143960E942D363F
:102FC00060E170E088E79CE089D38823C9F06AE378
:102FD0007AE083ED9EE00E94982F6BE088E79CE00A
:102FE00089D34AE050E0682F83ED9EE00E94833051
:102FF00081E08C836EE47AE0CE0143960E942D3608
:1030000060E270E088E79CE069D38823C9F06FE54F
:103010007AE083ED9EE00E94982F69E088E79CE0CB
:1030200069D34AE050E0682F83ED9EE00E94833030
:1030300081E08F8366E77AE0CE0143960E942D36C9
:1030400060E870E088E79CE049D38823C9F06AE82B
:103050007AE083ED9EE00E94982F6AE088E79CE08A
:1030600049D34AE050E0682F83ED9EE00E94833010
:1030700081E08E8360EA7AE0CE0143960E942D368D
:1030800060E470E088E79CE029D38823C9F063EB13
:103090007AE083ED9EE00E94982F6CE088E79CE048
:1030A00029D34AE050E0682F83ED9EE00E948330F0
:1030B00081E08D8369EC7AE0CE0143960E942D3643
:1030C0006FE088E79CE016D38B8388E79CE0B5D25D
:1030D000882309F45FC062E070E088E79CE0FED2DC
:1030E000882361F06CED7AE083ED9EE00E94B32FBF
:1030F00067EE7AE0CE0143960E942D3664E070E0E0
:1031000088E79CE0EBD2882361F068EF7AE083EDFA
:103110009EE00E94B32F63E07BE0CE0143960E94C5
:103120002D3660E071E088E79CE0D8D2882361F01A
:1031300064E17BE083ED9EE00E94B32F6FE17BE0D2
:10314000CE0143960E942D3660E072E088E79CE055
:10315000C5D2882361F060E37BE083ED9EE00E94AE
:10316000B32F6BE37BE0CE0143960E942D3660E0E7
:1031700070E188E79CE0B2D2882361F06CE47BE0E8
:1031800083ED9EE00E94B32F6DE57BE0CE01439678
:103190000E942D3660E070E288E79CE067D28823C9
:1031A00079F064E77BE083ED9EE00E94B32F11E0AD
:1031B000198768E87BE0CE0143960E942D36198F6F
:1031C00060E070E488E79CE043D2882371F06DE909
:1031D0007BE083ED9EE00E94B32F81E08A876CEA5A
:1031E0007BE0CE0143960E942D3660E070E888E7D0
:1031F0009CE058D2882379F06CEB7BE083ED9EE075
:103200000E94B32F81E0898761ED7BE0CE01439678
:103210000E942D36198E68E088E79CE06BD290E022
:103220009C878B8767E088E79CE064D290E09E876C
:103230008D8766E088E79CE05DD290E0988B8F8771
:1032400065E088E79CE056D290E09A8B898BDF910D
:10325000CF911F910895CF93DF93FC0180E5DF01AB
:103260001D928A95E9F76EE774E0758364838CEFAD
:1032700098E0918780879587848777876687918B89
:10328000808B938B828B958B848BCAE7DDE0D78B09
:10329000C68B918F808F48EF51E1538F428F758F8E
:1032A000648F578F468F53A342A3A2E8BBEFB5A309
:1032B000A4A357A346A324E037EF31A720A753A721
:1032C00042A735A724A7D7A7C6A731AB20AB93AB9E
:1032D00082AB35AB24AB77AB66AB31AF20AFB5AFCC
:1032E000A4AFEF01C05BDF4F8DEC9CECACECBDEB11
:1032F00088839983AA83BB83249688839983AA832E
:10330000BB83DF01A85ABF4F4FE652E163E87AE37F
:103310004D935D936D937C93139714961D921D921C
:103320001D921C92139714961D921D921D921C9231
:10333000139714961D921D921D921C92139714962A
:103340001D921D921D921C92139714961D921D9210
:103350001D921C92139714964DEC5CEC6CE47EE38A
:103360004D935D936D937C931397EC58FF4F81E0E1
:1033700090E091838083DF91CF910895CF92DF9287
:10338000EF92FF920F931F93CB01BA01A90198010D
:103390000E94DD276B017C0120E030E044E353E430
:1033A0000E94B02A181654F420E030E044EB53E4B5
:1033B000C701B6010E94DD276B017C0120E030E0EF
:1033C00044E353ECC701B6010E94A42887FF0AC05A
:1033D00020E030E044EB53E4C701B6010E94DE2751
:1033E0006B017C01C701B6011F910F91FF90EF9017
:1033F000DF90CF9008952F923F924F925F926F92FD
:103400007F928F929F92AF92BF92CF92DF92EF9274
:10341000FF920F931F93CF93DF9300D000D0CDB7CF
:10342000DEB71C01280139019A01AB01C501B401C5
:103430000E94DD274B015C01A30192016C8D7D8D03
:103440008E8D9F8D0E94DD272B013C01A5019401EB
:10345000C501B4010E94BB2A69837A838B839C8354
:10346000A3019201C301B2010E94BB2A9B01AC01DE
:1034700069817A818B819C810E94DE270E94742B56
:1034800020E030E048E452E40E94A4289101205951
:103490003F4F3E832D83F101E459FF4FFA83E983C7
:1034A00087FF14C066EE7BE083ED9EE00E94B32FA1
:1034B000ED81FE811082118212821382E981FA81EC
:1034C000108211821282138281E09EC0A3019201B8
:1034D000C501B4010E9451282BED3FE049E450E4BE
:1034E0000E94AB2820E030E044E353E40E94BB2A72
:1034F000AB01BC01F101E45AFF4F40835183628369
:10350000738397018601C10139DF6B017C01F101F1
:10351000E05AFF4F60837183828393839F7720E01B
:1035200030E040E251E40E94B02A810108591F4F67
:10353000181664F4F101E05BFF4FA701960160816A
:103540007181828193810E94BB2A2EC0F801208163
:10355000318142815381C701B6010E94DD274B01B1
:103560005C01F101EC59FF4F608371838283938387
:1035700070972081318142815381C701B6010E9439
:10358000BB2A2B013C01F101E85AFF4F2081318118
:1035900042815381C501B4010E94BB2A9B01AC0149
:1035A000C301B2010E94DD27E981FA816083718342
:1035B00082839383F801C082D182E282F3828DEC10
:1035C0009CECACE4BFE3ED81FE8180839183A28318
:1035D000B38322E030E0B701A60183ED9EE00E94B4
:1035E000703169EA79E083ED9EE00E94982FE981CD
:1035F000FA81408151816281738122E030E083ED64
:103600009EE00E94713180E026960FB6F894DEBFEE
:103610000FBECDBFDF91CF911F910F91FF90EF9023
:10362000DF90CF90BF90AF909F908F907F906F90E2
:103630005F904F903F902F900895FC0181E0468964
:103640005789208D318D4217530709F480E0089582
:10365000FC01208D318D86899789822793276823E5
:10366000792381E0672B09F480E00895DC01589606
:10367000ED91FC915997AF01409550954623572302
:1036800091E0452B09F490E056962D913C91579787
:103690002E273F276223732381E0672B09F480E004
:1036A00089230895DC015696ED91FC915797AF015F
:1036B000409550954623572391E0452B09F490E01F
:1036C00058962D913C9159972E273F2762237323BB
:1036D00081E0672B09F480E089230895FC01808D47
:1036E000918D809590956823792381E0672B09F46B
:1036F00080E00895860F911DFC0180810895FC01F2
:1037000083A5833031F0813031F08C3031F080E0AE
:10371000089581E0089582E0089583E00895DC0132
:103720009FB7F8945B96ED91FC915C9720815A9637
:103730008C91822B80839FBF0895DC019FB7F89402
:103740005E96ED91FC915F9720815D968C91822B26
:1037500080839FBF08958F929F92AF92BF92CF9226
:10376000DF92EF92FF920F931F93CF93DF93EC01C1
:1037700000E010E0F12CC62ED12C812C912C5401AC
:103780008394E02EC601002E02C0959587950A9479
:10379000E2F780FF03C0CE01D0DF0AC02FB7F89454
:1037A000EE8DFF8D90818D8D8095892380832FBF35
:1037B0002FB7F894EB8DFC8D90818A8D80958923AD
:1037C00080832FBF84E090E00E940134ECA1FDA132
:1037D00090818BA1892351F0D501C40104C0880FC9
:1037E000991FAA1FBB1FEA94D2F7F82ACE0197DFD0
:1037F0000F5F1F4F0830110509F0C3CFCE019DDFC9
:1038000083E090E00E9401348F2DDF91CF911F91D2
:103810000F91FF90EF90DF90CF90BF90AF909F906F
:103820008F900895DC019FB7F8949196ED91FC91EB
:103830009297208190968C91822B80839FBF0895D0
:10384000DC012FB7F8949196ED91FC9192979081BD
:1038500090968C918095892380832FBF0895CF9275
:10386000DF92EF92FF920F931F93CF93DF93EC01C0
:103870006B01042FE5DF760110E0C7018C199D096B
:103880008017910734F4F70161917F01CE0163DF66
:10389000F4CFCE01C7DF6AA570E080E090E0DF9151
:1038A000CF911F910F91FF90EF90DF90CF900C94EC
:1038B000C833CF93DF93EC0145E066E376E0CFDFDA
:1038C00049E06DE276E0CE01CADF8CA5882329F0BD
:1038D00045E066E176E0CE01C2DF8DA5882329F0C0
:1038E00049E064E276E0CE01BADF49E06BE176E0E0
:1038F000CE01DF91CF91B3CF2F923F924F925F9243
:103900006F927F928F929F92AF92BF92CF92DF92EF
:10391000EF92FF920F931F93CF93DF93CDB7DEB754
:1039200029970FB6F894DEBF0FBECDBF4C01762E9F
:10393000142F0E949733F401C6A0D7A0E0A4F1A4ED
:103940006C197D098E099F090E9444296B017C0135
:1039500020E030E84BEB54E40E94B02A181614F42F
:10396000C401A7DFF40162A570E080E090E00E944E
:1039700046291B012C019B01AC01C701B6010E9425
:10398000A42887FF0AC0A7019601C201B1010E94C5
:10399000DD270E9418290E94C8331123E1F0612F0E
:1039A00070E080E090E01F921F921F922FEF2F9304
:1039B00020E4A22EB12CC12CD12CE12CF12C8701BA
:1039C000EA9420E030E0A9010E945635162F0F90AE
:1039D0000F900F900F90CE0101967C0189E0F701C6
:1039E00011928A95E9F781E0898382E48A837C8257
:1039F0001D8385E0382E8E01065F1F4F6401F9E0BC
:103A0000CF0ED11C540185E1A80EB11CC40195DE76
:103A1000C40185DEC40114DF83E090E00E9401341C
:103A200027013401F20161912F01C40194DEF301F9
:103A300081933F0140165106A9F7F401818189372E
:103A400041F0C401EFDEF4018181807F803761F4B1
:103A500017C0360160E0C4017EDEF30181933F01AF
:103A6000EA15FB05B9F7EDCFC40123DFF40162A528
:103A700070E080E090E00E94C8333A943110C6CFE5
:103A8000F4018181807F803731F0F40182A58A3092
:103A900010F48F5F82A7F401808D918D978B868BB8
:103AA00083819481918F808F0E949733F40166A364
:103AB00077A380A791A79181907F81E0903709F04B
:103AC00080E029960FB6F894DEBF0FBECDBFDF9120
:103AD000CF911F910F91FF90EF90DF90CF90BF900B
:103AE000AF909F908F907F906F905F904F903F909E
:103AF0002F90089540E060E0FFCE6F927F928F920A
:103B00009F92AF92BF92CF92EF92FF920F931F932B
:103B1000CF93DF93CDB7DEB72B970FB6F894DEBF08
:103B20000FBECDBF5C01862F70E0FB01E65DF84F54
:103B3000E491D5015A96EC935A97FB01E059F84F5E
:103B4000E491F0E0EE0FFF1FE053F84F65917491A0
:103B5000F501748F638F642F70E0FB01E65DF84F11
:103B6000E4915D96EC935D97FB01E059F84FE49189
:103B7000F0E0EE0FFF1FE053F84F65917491F501EF
:103B8000778F668F622F70E0FB01E65DF84FE4915E
:103B90009096EC93FB01E059F84FE491F0E0EE0FC2
:103BA000FF1FE053F84F65917491F50172A361A373
:103BB000A02FB0E0FD01E65DF84F9491F50193A3CD
:103BC000FD01E059F84FE491F0E0EE0FFF1FEA54D9
:103BD000F84F65917491D50195967C936E93949767
:103BE00061E02A874B870E94C33461E02A85822FD7
:103BF0000E94C33461E04B85842F0E94C33460E08F
:103C0000802F0E94C33461E0802F0E94FF34C501E1
:103C100094DDC50184DDC5016DDFC5016BDFF501F4
:103C20008181813429F0833719F0893709F065C023
:103C300081E0D5019A968C938BE0882E912CFF24FD
:103C4000F39445E066E376E0C50109DE83E090E0A9
:103C50000E940134C50171DDC50161DDC501F0DDE2
:103C600083E090E00E9401340EEE1BE0CE0101964D
:103C70003C01F80161918F01C5016DDDD3018D9388
:103C80003D01BBE0073F1B07A1F7C501CBDD8C81E0
:103C9000F50183A749E06DE276E0C501E0DDCC20C7
:103CA00041F045E066E176E0C501D9DDD5019C969D
:103CB000FC92EE2039F049E064E276E0C501CFDD08
:103CC000F501F5A649E06BE176E0C501C8DDC50167
:103CD00011DFD50111968C91EE2021F0893789F002
:103CE000833769F0833769F0B1E08B1A910859F096
:103CF000F50182A58F5F82A7A4CF81E005C083E094
:103D000003C080E001C082E02B960FB6F894DEBFBE
:103D10000FBECDBFDF91CF911F910F91FF90EF901C
:103D2000CF90BF90AF909F908F907F906F900895AD
:103D30004F925F926F927F928F929F92AF92BF92BB
:103D4000CF92DF92EF92FF92CF93DF93CDB7DEB7A2
:103D50002C970FB6F894DEBF0FBECDBF6091FF0D5C
:103D60007091000E8091010E9091020E0E944629E2
:103D700020E030E040E05BE30E94BB2A2BED3FE017
:103D800049E450E40E94BB2A20E030E048E152E4DC
:103D90000E94BB2A69837A838B839C836093E70D9F
:103DA0007093E80D8093E90D9093EA0D6091FB0DFF
:103DB0007091FC0D8091FD0D9091FE0D0E944629A1
:103DC00020E030E040E05BE30E94BB2A2BED3FE0C7
:103DD00049E450E40E94BB2A20E030E048E152E48C
:103DE0000E94BB2A4B015C016093E30D7093E40DCC
:103DF0008093E50D9093E60D6091F70D7091F80DAD
:103E00008091F90D9091FA0D0E94462920E030E052
:103E100040E85BE30E94BB2A2BED3FE049E450E41D
:103E20000E94BB2A20E030E048E152E40E94BB2A15
:103E30002B013C016093DF0D7093E00D8093E10D49
:103E40009093E20D9B01AC01C501B4010E94DD27F6
:103E500020E030E040E05FE30E94BB2A6B017C0180
:103E60006093D70D7093D80D8093D90D9093DA0D90
:103E7000A3019201C501B4010E94DE2720E030E0D9
:103E800048E453E40E94AB284B015C016093D30DDE
:103E90007093D40D8093D50D9093D60D905820E05B
:103EA00030E040EA52E40E94BB2A29813A814B81EA
:103EB0005C810E94DE272B013C016093DB0D709337
:103EC000DC0D8093DD0D9093DE0D2BED3FE049E49A
:103ED00050E4C501B4010E94B02A87FD1CC02BED3F
:103EE0003FE049E450E4C501B4010E94DE272BED18
:103EF0003FE049EC50E40E9488292BED3FE049E483
:103F000050E40E94DD276093D30D7093D40D80930D
:103F1000D50D9093D60D8090D30D9090D40DA09098
:103F2000D50DB090D60D2BED3FE049E450ECC50126
:103F3000B4010E94A4281816E4F02BED3FE049E4F8
:103F400050E4C501B4010E94DD272BED3FE049ECB0
:103F500050E40E9488292BED3FE049E450E40E94A0
:103F6000DE276093D30D7093D40D8093D50D90937D
:103F7000D60D2091F30D3091F40D4091F50D509137
:103F8000F60DC301B2010E94DD274B015C01409296
:103F9000F30D5092F40D6092F50D7092F60D209194
:103FA000EF0D3091F00D4091F10D5091F20DC701E0
:103FB000B6010E94DD272B013C01C092EF0DD0928B
:103FC000F00DE092F10DF092F20DC090D30DD09073
:103FD000D40DE090D50DF090D60DC092EB0DD0929F
:103FE000EC0DE092ED0DF092EE0DC701B6010E94CE
:103FF000A82869837A838B839C83C701B6010E94BA
:104000006A2B6D837E838F83988729813A814B81C8
:104010005C81C501B4010E94BB2A69877A878B87BE
:104020009C872D813E814F815885C301B2010E943A
:10403000BB2A9B01AC0169857A858B859C85BED79F
:104040009B01AC0160910B0E70910C0E80910D0ED6
:1040500090910E0EB3D760930B0E70930C0E80935D
:104060000D0E90930E0E29813A814B815C81C30124
:10407000B2010E94BB2A2B013C012D813E814F8160
:104080005885C501B4010E94BB2A9B01AC01C30144
:10409000B20193D79B01AC016091070E7091080E9D
:1040A0008091090E90910A0E89D76093070E709344
:1040B000080E8093090E90930A0E2BED3FE049E421
:1040C00050E4C701B6010E94AB2820E030E044E391
:1040D00053E40E94BB2A6093030E7093040E8093F6
:1040E000050E9093060E2C960FB6F894DEBF0FBE09
:1040F000CDBFDF91CF91FF90EF90DF90CF90BF9039
:10410000AF909F908F907F906F905F904F900895A9
:1041100084E00E942E354091FF0D5091000E609179
:10412000010E7091020E019729F44F5F5F4F6F4FA0
:104130007F4F04C041505109610971094093FF0D3F
:104140005093000E6093010E7093020E089585E067
:104150000E942E354091FB0D5091FC0D6091FD0D9C
:104160007091FE0D019729F44150510961097109BF
:1041700004C04F5F5F4F6F4F7F4F4093FB0D5093D5
:10418000FC0D6093FD0D7093FE0D089586E00E9476
:104190002E354091F70D5091F80D6091F90D709109
:1041A000FA0D019729F4415051096109710904C0C0
:1041B0004F5F5F4F6F4F7F4F4093F70D5093F80D58
:1041C0006093F90D7093FA0D089562E083E10E9407
:1041D000C33462E082E00E94C33462E083E00E9464
:1041E000C33462E084E00E94C33462E085E00E9450
:1041F000C33462E086E00E94C33442E050E068E8E5
:1042000070E284E00E94823142E050E067EA70E2AE
:1042100080E00E94823142E050E066EC70E281E092
:104220000C948231CF93DF9300D000D0CDB7DEB7AE
:1042300026E040E052EC61E070E083ED9EE00E94F9
:10424000AE2D40E052EC61E070E086EA9DE00E9415
:10425000651187EA9DE00E94081382E29DE00E94BA
:10426000EC10B3DF67EF7BE0CE0101960E94FC35D6
:1042700042E350E0BE016F5F7F4F84E79DE0FCD5D5
:10428000CE0101960E94953568E97EE184E79DE0C4
:1042900062D680E89DE00E94201780E89DE00E94A1
:1042A000AC1781E08093990D26960FB6F894DEBF87
:1042B0000FBECDBFDF91CF9108952F923F924F92C5
:1042C0005F926F927F928F929F92AF92BF92CF92A6
:1042D000DF92EF92FF920F931F93CF93DF93CDB7AF
:1042E000DEB762970FB6F894DEBF0FBECDBF80E891
:1042F0009DE00E94AC1780918A0D882329F1C0901F
:10430000030ED090040EE090050EF090060E009182
:10431000070E1091080E2091090E30910A0E40915F
:104320000B0E50910C0E60910D0E70910E0E81E7E8
:104330009DE00E9431126BEF7BE086EA9CE00E94D8
:104340002D3610928A0D06C065E07CE086EA9CE07E
:104350000E942D368091990DC090030ED090040ECE
:10436000E090050EF090060E0091070E1091080ED9
:104370002091090E30910A0E40910B0E50910C0EB7
:1043800060910D0E70910E0E811124C084E48F9304
:104390008AE78F931F921F92812C912CEAE7AE2E11
:1043A000E4E4BE2E8CEA9CE026D820901C0D3090D0
:1043B0001D0D40901E0D50901F0DC090180DD090F7
:1043C000190DE0901A0DF0901B0D0F900F900F90AB
:1043D0000F905CC083E48F938AEF8F931F921F929C
:1043E000812C912C8AEFA82E83E4B82E8CEA9CE0D5
:1043F00002D860918F0D7091900D072E000C880BE4
:10440000990B77247A947F927F922CEF2F9328E157
:104410002F9328EEA22E23E0B22EC12CD12CE12C1A
:10442000F12C8701EA9420E030E0A9010E94563582
:104430002DD720E030E04AE754E48DD61B012C0153
:1044400060918D0D70918E0D072E000C880B990BCD
:104450007F927F9223EF2F932CEB2F9344E4A42E93
:104460004CE0B42EC12CD12C20E030E0A9010E94F8
:1044700056350CD720E030E84BEB54E46CD66B019A
:104480007C010FB6F894DEBF0FBECDBF00E010E098
:104490009801B201A10183E49DE00E94BE15298329
:1044A0003A834B835C836D837E838F839887898176
:1044B0009A819A8B898B8B819C81988B8F872D8099
:1044C0003E804F80588482019101AC0169897A89CC
:1044D00082E29DE00E94F30F91014F85588969891E
:1044E0007A8986EA9DE00E947011C090030ED090F8
:1044F000040EE090050EF090060E0091070E10914C
:10450000080E2091090E30910A0E40910B0E509129
:104510000C0E60910D0E70910E0E86EA9DE00E94C9
:10452000B4113E0199E0690E711C66EA7CE0C3019A
:104530000E942536B30186EA9DE00E941A12C3014B
:104540000E94953563E97DE0C3010E942536809085
:10455000070E9090080EA090090EB0900A0EC09021
:104560000B0ED0900C0EE0900D0EF0900E0E7F9280
:104570006F928091060E8F938091050E8F9380919C
:10458000040E8F938091030E8F93820191014F85CA
:10459000588969897A8987EA9DE00E941A13C301C4
:1045A0000E9495356DE37CE083E99DE00E942D3605
:1045B0000F900F900F900F900F900F9062960FB684
:1045C000F894DEBF0FBECDBFDF91CF911F910F9149
:1045D000FF90EF90DF90CF90BF90AF909F908F9023
:1045E0007F906F905F904F903F902F900895CF9263
:1045F000DF92EF92FF920F931F9387EA9DE00E9454
:10460000CC1286EA9DE00E9464118AE99DE00E9436
:10461000E91680E89DE00E94FD1684E79DE017D42E
:1046200081E79DE00E942A1288E0C82ED12CE12C5F
:10463000F12C00E01FE326E933E44BE85DE36CE294
:1046400071E083E49DE00E944F1482E29DE00E94AD
:10465000B10F8CEA9CE00E942B1961E17CE086EAB4
:104660009CE01F910F91FF90EF90DF90CF900C9402
:10467000FC3586EA9CE00E94953584E79DE070D485
:1046800083E99DE00C949535CF93CFB7F894809152
:10469000120E811127C0E5EAF7E08491EFE5F7E01B
:1046A0009491E82FF0E0EE0FFF1FE651F84FA5912F
:1046B000B491EC91E92321F461E085E30E94FF3499
:1046C00061E085E30E94C3348CB580618CBD8CB5FC
:1046D00080648CBD61E084E30E94C33461E083E3C5
:1046E0000E94C3348091120E8F5F8093120ECFBF51
:1046F000CF9108951092800E81E080937E0E1092EB
:104700007D0E61E084E10E94FF3461E085E10E945A
:10471000FF34E9EBF0E080818E7F808380818D7FA4
:10472000808388E48093B80085E48093BC0008957A
:10473000413208F043C09091800E9111FCCF91E07E
:104740009093800E20937E0E2FEF2093130E1092E5
:10475000580E240F2093570E90937F0E90917F0E4A
:10476000880F892B80937F0E80917D0E813061F4BC
:1047700010927D0E80917F0E8093BB008091BC00D3
:1047800083FDF8CF85EC01C085EE8093BC0080915D
:10479000800E8130E1F38091580E841710F440911F
:1047A000580E29E53EE0FB01D9018A2F821B8417B0
:1047B00018F48D918193F9CF842F089580E00895A6
:1047C0000F93413208F04AC09091800E9111FCCFB6
:1047D00032E03093800E00937E0E3FEF3093130E45
:1047E0001092580E4093570EFB0169E57EE0DB0105
:1047F0003A2F361B341718F431913D93F9CF1092AC
:104800007F0E30917F0E880F832B80937F0E8091D7
:104810007D0E813061F410927D0E80917F0E809329
:10482000BB008091BC0083FDF8CF85EC01C085EE14
:104830008093BC00222321F08091800E8230D1F33E
:104840008091130E8F3F79F08091130E803241F0EA
:104850008091130E803331F094E005C091E003C0E5
:1048600092E001C093E0892F0F9108954091350E99
:10487000262F30E0240F311D21323105DCF4209148
:10488000800E2430C9F4FC0180E090E0861758F4D3
:104890003091350E2191DC01A95CB14FA30FB11D00
:1048A0002C930196F3CF8091350E680F6093350EEF
:1048B00080E0089581E0089582E0089585ED809379
:1048C000BC008091BC0084FDFCCF1092800E089546
:1048D00085EC8093BC001092800E08951F920F9279
:1048E0000FB60F9211240BB60F922F933F934F9355
:1048F0005F936F937F938F939F93AF93BF93EF9348
:10490000FF938091B900887F803609F49DC070F5CF
:10491000883209F45CC090F4803109F455C038F451
:10492000882309F4F3C0883009F44EC0F2C08831FE
:1049300009F44DC0803209F45EC0EBC0803409F444
:1049400069C050F4803309F456C0883309F0E1C0DF
:104950008093130EBDDFDDC0803509F44FC088356C
:1049600009F45DC0883409F0D4C0D2C0883909F494
:10497000C3C0A8F4883709F467C038F4883609F44E
:1049800063C0803709F460C0C4C0883809F4B4C07B
:10499000803909F45FC0803809F0BBC05BC0803B40
:1049A00009F482C038F4803A09F466C0883A09F400
:1049B0007BC0AFC0803C09F4A3C0883C09F4A0C010
:1049C000883B09F486C0A5C080917F0E10C09091ED
:1049D000580E8091570E981770F5E091580E81E0AF
:1049E0008E0F8093580EF0E0E75AF14F808180934C
:1049F000BB0085EC82C08093130E8AC0E091580EF4
:104A000081E08E0F8093580E8091BB00F0E0E75A52
:104A1000F14F80839091580E8091570E6AC0E091BB
:104A2000580E81E08E0F8093580E8091BB00F0E00D
:104A3000E75AF14F808380917E0E811169C081E039
:104A400080937D0E84EA5DC083E08093800E109297
:104A5000140ECFCF8091140E803208F04DC0E0913B
:104A6000140E81E08E0F8093140E8091BB00F0E055
:104A7000EB5EF14F8083BDCF2BDF8091140E80322F
:104A800030F4E091140EF0E0EB5EF14F1082609193
:104A9000140E70E0E091790EF0917A0E85E19EE0BF
:104AA00019951092140E35C084E08093800E1092F8
:104AB000360E1092350EE0917B0EF0917C0E19951A
:104AC0008091350E811105C081E08093350E1092E2
:104AD000370EE091360E81E08E0F8093360EF0E0B7
:104AE000E95CF14F80818093BB009091360E8091FC
:104AF000350E981708F47DCF85E88093BC0009C077
:104B000085EC8093BC001092800E03C01092130EAF
:104B1000D5DEFF91EF91BF91AF919F918F917F91E2
:104B20006F915F914F913F912F910F900BBE0F901E
:104B30000FBE0F901F9018958091B10E90E02091BC
:104B4000B20E821B910908959091B20E8091B10E20
:104B5000981750F4E92FF0E0ED54F14F208130E048
:104B60009F5F9093B20E02C02FEF3FEFC9010895EF
:104B7000E091B20E8091B10EE81730F4F0E0ED5400
:104B8000F14F808190E008958FEF9FEF0895089591
:104B9000CF92DF92EF92FF920F931F93CF93DF9309
:104BA0007C01262F972F8A0180918D0E882391F00A
:104BB000C62FD72F6E01C40ED51ECC15DD0569F0AA
:104BC0006991D701ED91FC910190F081E02DC70131
:104BD0001995F3CF642F822F49DEC801DF91CF9161
:104BE0001F910F91FF90EF90DF90CF900895CF939A
:104BF000DF931F92CDB7DEB7698320918D0E2223FC
:104C0000D1F020918E0E203240F021E030E0FC0106
:104C10003383228380E090E014C080918F0EE82FD0
:104C2000F0E0E057F14F998190838F5F80938F0E72
:104C300080938E0E04C061E0CE01019617DE81E004
:104C400090E00F90DF91CF910895FC0113821282C2
:104C500088EE93E0A0E0B0E084839583A683B783D9
:104C60008BE19CE09183808308951092B20E1092A4
:104C7000B10E10928F0E10928E0E3CCD81E080937B
:104C80008D0E6093B00E10928F0E10928E0E0895BE
:104C9000F5CF0F93062F21E040918E0E60E97EE064
:104CA0008091B00E8DDD10928F0E10928E0E1092AC
:104CB0008D0E0F9108954F925F926F927F92AF92F7
:104CC000BF92CF92EF92FF920F931F93CF93DF93F8
:104CD0005C01F62ED42F28013901EE2011F1CEDF30
:104CE000CE2DC43008F0C3E0C150C0F0D501ED9125
:104CF000FC91B8E0CB9FC0011124A301920104C034
:104D000056954795379527958A95D2F7CA01B901E7
:104D10000190F081E02DC5011995E6CF60E0C50155
:104D2000B8DF4D2FD13208F040E22C2D63EB7EE04E
:104D30008F2DFEDC1092B20E8093B10EDF91CF91D9
:104D40001F910F91FF90EF90CF90BF90AF907F9009
:104D50006F905F904F900895CF92EF920F931F93B3
:104D6000C22EE12C00E010E09801A5DF1F910F9109
:104D7000EF90CF90089521E0EFCF61E08ACF81E8F6
:104D80009EE063CF08954F925F926F927F92AF92B1
:104D9000BF92CF92DF92EF92FF920F931F93CF9328
:104DA000DF93CDB7DEB72A970FB6F894DEBF0FBEFC
:104DB000CDBF7C015B018AE0EDE4F6E0DE011196F7
:104DC00001900D928A95E1F7CE0101966C0100E009
:104DD00010E030E8432E3EE3532E612C712CF60197
:104DE000619171916F01CB01770FAA0BBB0B7727F4
:104DF0006627A30192010E94A836A216B3062CF0E2
:104E00000F5F1F4F0530110551F7F70131872087DC
:104E1000000F111FE1E0F0E0EC0FFD1FE00FF11FAC
:104E2000808191812A960FB6F894DEBF0FBECDBF68
:104E3000DF91CF911F910F91FF90EF90DF90CF9076
:104E4000BF90AF907F906F905F904F900895CF93F9
:104E5000DF93EC016DE37CE00E94FC3581E090E0A3
:104E60009F838E83198618861B861A868FB7806863
:104E70008FBFDF91CF910895EF92FF920F931F9311
:104E8000CF93DF93EC017B018A010E941036B801B9
:104E9000CE0179DF9F838E83C7010E94603667EF62
:104EA0007BE0C7010E944236882309F44DC010926E
:104EB00080001092810088E0809381008E819F8124
:104EC000019729F4809181008160809381008E8117
:104ED0009F81089729F480918100826080938100EE
:104EE0008E819F818034910529F4809181008360B7
:104EF000809381008E819F818115914029F480915A
:104F000081008460809381008E819F81811594400F
:104F100029F48091810085608093810020E83EE340
:104F2000D8010E94DB362E813F81032E000C440BFA
:104F3000550B0E94A8363B872A873093890020931F
:104F4000880082E080936F00DF91CF911F910F91D5
:104F5000FF90EF90089570933C0660933B06089590
:104F60000C9495351F920F920FB60F9211240BB629
:104F70000F922F933F934F935F936F937F938F93F2
:104F80009F93AF93BF93EF93FF93E0913B06F09114
:104F90003C061995FF91EF91BF91AF919F918F9131
:104FA0007F916F915F914F913F912F910F900BBE29
:104FB0000F900FBE0F901F9018955058BB27AA272F
:104FC0000ED083C24CD230F051D220F031F49F3F4A
:104FD00011F41EF41CC20EF4E095E7FB04C2E92FA5
:104FE00096D280F3BA17620773078407950718F003
:104FF00071F49EF5AEC20EF4E0950B2EBA2FA02DE3
:105000000B01B90190010C01CA01A0011124FF2775
:10501000591B99F0593F50F4503E68F11A16F04070
:10502000A22F232F342F4427585FF3CF469537956F
:105030002795A795F0405395C9F77EF41F16BA0B34
:10504000620B730B840BBAF09150A1F0FF0FBB1FE2
:10505000661F771F881FC2F70EC0BA0F621F731F2B
:10506000841F48F4879577956795B795F7959E3F88
:1050700008F0B3CF9395880F08F09927EE0F979516
:1050800087950895ECD158F080E891E009F49EEFFF
:10509000EDD128F040E851E059F45EEF09C0B7C106
:1050A00058C2E92FE07833D268F3092E052AC1F3FC
:1050B000261737074807590738F00E2E07F8E0255E
:1050C00069F0E025E0640AC0EF6307F8009407FA8E
:1050D000DB01B9019D01DC01CA01AD01EF934AD0AA
:1050E000F4D10AD05F91552331F02BED3FE049E434
:1050F00050FD49EC63CF0895DF93DD27B92FBF77CB
:1051000040E85FE31616170648075B0710F4D92F2F
:105110002BD29F938F937F936F9324D3E4EEF0E091
:1051200079D1D3D12F913F914F915F9130D2DD232F
:1051300049F09058A2EA2AED3FE049EC5FE3D078CD
:105140005D274DDFDF91C1C12AD108F481E00895C8
:1051500095D1E395CBC10CD0B8C188D140F07FD1B7
:1051600030F021F45F3F19F03EC15111F3C14FC13E
:10517000CED198F39923C9F35523B1F3951B550B61
:10518000BB27AA2762177307840738F09F5F5F4F1A
:10519000220F331F441FAA1FA9F333D00E2E3AF05B
:1051A000E0E830D091505040E695001CCAF729D075
:1051B000FE2F27D0660F771F881FBB1F26173707C4
:1051C0004807AB07B0E809F0BB0B802DBF01FF27F4
:1051D00093585F4F2AF09E3F510568F004C1BAC151
:1051E0005F3FECF3983EDCF3869577956795B7952E
:1051F000F7959F5FC9F7880F911D9695879597F949
:105200000895E1E0660F771F881FBB1F62177307C1
:105210008407BA0720F0621B730B840BBA0BEE1FD6
:1052200088F7E095089504D06894B11193C108956A
:1052300076D188F09F5790F0B92F9927B751A0F0F9
:10524000D1F0660F771F881F991F1AF0BA95C9F71A
:1052500012C0B13081F07DD1B1E008957AC1672FDD
:10526000782F8827B85F39F0B93FCCF386957795CA
:105270006795B395D9F73EF49095809570956195B3
:105280007F4F8F4F9F4F0895E89409C097FB3EF4DE
:1052900090958095709561957F4F8F4F9F4F992383
:1052A000A9F0F92F96E9BB279395F6958795779501
:1052B0006795B795F111F8CFFAF4BB0F11F460FFC1
:1052C0001BC06F5F7F4F8F4F9F4F16C0882311F019
:1052D00096E911C0772321F09EE8872F762F05C02D
:1052E000662371F096E8862F70E060E02AF09A95C8
:1052F000660F771F881FDAF7880F9695879597F9BD
:105300000895ADD018F011F0B1D038F480C022C1AA
:10531000E92FFDD0B0F35523C9F3E7FB62177307FC
:1053200084079507A8F199F3E92FFF2788232AF02E
:105330003197660F771F881FDAF7952F552744237B
:1053400032F091505040220F331F441FD2F7BB2739
:10535000E91BF50B621B730B840BB109C1F222F43C
:10536000620F731F841FB11D31972AF0660F771FDC
:10537000881FBB1FEFCF915050405AF041F0882357
:1053800032F0660F771F881F91505040C1F79395F8
:1053900030C08695779567959F5FD9F7F8CF990FBD
:1053A0000008550FAA0BE0E8FEEF16161706E807EF
:1053B000F907C0F012161306E407F50798F0621B10
:1053C000730B840B950B39F40A2661F0232B242BE5
:1053D000252B21F408950A2609F4A140A6958FEF04
:1053E000811D811D089597F99F6780E870E060E056
:1053F00008959F3F31F0915020F4879577956795F8
:10540000B795880F911D9695879597F908959FEF09
:1054100080EC0895DF93CF931F930F93FF92EF9249
:10542000DF927B018C01689405C0DA2EEF01AFD0CA
:10543000FE01E894A5912591359145915591AEF3E2
:10544000EF01CDDDFE019701A801DA9479F7DF9035
:10545000EF90FF900F911F91CF91DF91089500245D
:105460000A941616170618060906089500240A94C9
:1054700012161306140605060895C9CF50D0E8F396
:10548000E894E0E0BB279F57F0F02AED3FE049ECBD
:1054900006C0EE0FBB0F661F771F881F28F0B23AB9
:1054A00062077307840728F0B25A620B730B840BF0
:1054B000E3959A9572F7803830F49A95BB0F661F82
:1054C000771F881FD2F7904896CF092E0394000CBF
:1054D00011F4882352F0BB0F40F4BF2B11F460FF8E
:1054E00004C06F5F7F4F8F4F9F4F0895EF93E0FF92
:1054F00006C0A2EA2AED3FE049EC5FEB70DDE5DF94
:105500000F90039401FC9058E1E1F1E066C157FD72
:105510009058440F551F59F05F3F71F04795880F21
:1055200097FB991F61F09F3F79F0879508951216B8
:1055300013061406551FF2CF4695F1DF08C0161664
:1055400017061806991FF1CF869571056105089415
:105550000895E894BB2766277727CB0197F908952C
:105560001EDF08F48FEF08959B01AC0160E070E04E
:1055700080E89FE3F0CD0BD0A8CF71DF28F076DF75
:1055800018F0952309F02FCF42CF1124E3CFBFDFCE
:10559000A0F3959FD1F3950F50E0551F629FF00146
:1055A000729FBB27F00DB11D639FAA27F00DB11D9F
:1055B000AA1F649F6627B00DA11D661F829F222728
:1055C000B00DA11D621F739FB00DA11D621F839FAF
:1055D000A00D611D221F749F3327A00D611D231F85
:1055E000849F600D211D822F762F6A2F11249F57D3
:1055F00050408AF0E1F088234AF0EE0FFF1FBB1FF6
:10560000661F771F881F91505040A9F79E3F510594
:1056100070F0E9CE9FCF5F3FECF3983EDCF38695C8
:1056200077956795B795F795E7959F5FC1F7FE2B3F
:10563000880F911D9695879597F90895FA01EE0FB9
:10564000FF1F30962105310599F16115710561F44F
:105650008038BFE39B0749F168949038810561F079
:105660008038BFEF9B0741F0992342F5FF3FE105EA
:105670003105210511F1E8940894E795D901AA2391
:1056800029F4AB2FBE2FF85FD0F310C0FF5F70F48A
:10569000A695E0F7F73950F019F0FF3A38F49F7704
:1056A0009F930CD00F9007FC905808953EF0AFCE1A
:1056B00060E070E080E89FE308954FE79F775F9395
:1056C0004F933F932F93D5D02F913F914F915F915F
:1056D00052DF50C09F93D2DE0F9007FCEE5F06CFE3
:1056E00011F40EF494CE85CE1ADFD0F39923D9F3BA
:1056F000CEF39F57550B87FF69D00024A0E640EA00
:10570000900180585695979528F4805C660F771F16
:10571000881F20F026173707480730F4621B730BE9
:10572000840B202931294A2BA6951794079420250C
:1057300031254A2758F7660F771F881F20F0261754
:105740003707480730F4620B730B840B200D311DB3
:10575000411DA09581F7B901842F9158880F969526
:10576000879508959B01AC0106CF19F40EF03BCE4E
:10577000F0CE4DCED4DEC8F39638C0F707F80F92BE
:10578000E8942BE33AEA48EB5FE703DF0F920F92CE
:105790000F924DB75EB70F92ACD0EFE2F1E03ADE78
:1057A0004F915F91EF91FF91E595EE1FFF1F49F03B
:1057B000FE57E0684427EE0F441FFA95E1F7419544
:1057C000550B1ED00F9007FECFCE0895915050403C
:1057D000660F771F881FD2F708959F938F937F934B
:1057E0006F93FF93EF939B01AC01C5DEEF91FF91A7
:1057F00011DE2F913F914F915F91BDCEF4CDF9CD48
:105800008EDEE8F39923D9F3940F511DBBF3915029
:10581000504094F059F0882332F0660F771F881FAC
:1058200091505040C1F79E3F510544F7880F911D9C
:105830009695879597F908955F3FACF0983E9CF058
:10584000BB27869577956795B79508F4B1609395D2
:10585000C1F7BB0F58F711F460FFE8CF6F5F7F4FC0
:105860008F4F9F4FE3CF76CE0EF0C3CDD0CD68944F
:10587000BACD55DEC8F39923D1F3C6F3DF93CF93A6
:105880001F930F93FF92C92FDD2788232AF02197BA
:10589000660F771F881FDAF720E030E040E85FEB03
:1058A0009FE3883920F0803E30F021968F7786DBA9
:1058B000E7E5F1E003C082DBE4E8F1E0ABDD8B017A
:1058C000BE01EC01FB2E6F5771097595771F880B90
:1058D000990BDCDC28E132E741E35FE358DEAF2DD2
:1058E0009801AE01FF900F911F91CF91DF9177DB6F
:1058F000ECCDFA01DC01AA0FBB1F9B01AC01BF5725
:1059000028F422273327442750781FC0B75188F442
:10591000AB2F0024469537952795011CA395D2F30C
:10592000002069F0220F331F441FB395DAF30DD026
:1059300044CB61307105A0E88A07B94630F49B0179
:10594000AC016627772788279078309621F020834E
:1059500031834283538308950E94FC38FC01918D6A
:10596000228D892F90E0805C9F4F821B91098F735D
:1059700099270895FC01918D828D981731F0828DC1
:10598000E80FF11D858D90E008958FEF9FEF08954A
:10599000FC01918D828D981761F0828DDF01A80F37
:1059A000B11D5D968C91928D9F5F9F73928F90E059
:1059B00008958FEF9FEF0895FC01538D448D252F9F
:1059C00030E0842F90E0821B930B541710F0CF9699
:1059D00008950197089582E79EE2892B39F080E0CF
:1059E00090E0892B19F07ED1811124C080E090E0F5
:1059F000892B41F080E090E0892B21F00E9400008B
:105A000081111BC087E09FE2892B39F080E090E094
:105A1000892B19F0FCD1811113C080E090E0892B13
:105A2000A1F080E090E0892B81F00E9400008111BC
:105A30000AC008950E940000D9CF0E940000E2CF62
:105A40000E940000EACF0C9400000895FC01848DB0
:105A5000DF01A80FB11DA35ABF4F2C91848D90E098
:105A600001968F739927848FA689B7892C93A08973
:105A7000B1898C9180648C93938D848D981306C02A
:105A80000288F389E02D80818F7D80830895CF93F4
:105A9000DF93EC01888D8823C1F0EA89FB8980813E
:105AA00085FD05C0A889B9898C9186FD0EC00FB609
:105AB00007FCF5CF808185FFF2CFA889B9898C9149
:105AC00085FFEDCFCE01C2DFE8CFDF91CF91089502
:105AD000EF92FF920F931F93CF93DF93EC0181E03E
